{
  "contractName": "AdminContract",
  "abi": [
    {
      "anonymous": false,
      "inputs": [
        {
          "indexed": true,
          "name": "emailCode",
          "type": "bytes32"
        },
        {
          "indexed": false,
          "name": "index",
          "type": "uint256"
        },
        {
          "indexed": false,
          "name": "email",
          "type": "string"
        },
        {
          "indexed": false,
          "name": "passwordCode",
          "type": "bytes32"
        },
        {
          "indexed": false,
          "name": "passwordRestToken",
          "type": "bytes32"
        },
        {
          "indexed": false,
          "name": "name",
          "type": "string"
        },
        {
          "indexed": false,
          "name": "contactNumber",
          "type": "uint256"
        },
        {
          "indexed": false,
          "name": "userAddress",
          "type": "string"
        },
        {
          "indexed": false,
          "name": "userAccess",
          "type": "uint256"
        }
      ],
      "name": "LogNewAdmin",
      "type": "event"
    },
    {
      "anonymous": false,
      "inputs": [
        {
          "indexed": true,
          "name": "emailCode",
          "type": "bytes32"
        },
        {
          "indexed": false,
          "name": "index",
          "type": "uint256"
        },
        {
          "indexed": false,
          "name": "email",
          "type": "string"
        },
        {
          "indexed": false,
          "name": "passwordCode",
          "type": "bytes32"
        },
        {
          "indexed": false,
          "name": "passwordRestToken",
          "type": "bytes32"
        },
        {
          "indexed": false,
          "name": "name",
          "type": "string"
        },
        {
          "indexed": false,
          "name": "contactNumber",
          "type": "uint256"
        },
        {
          "indexed": false,
          "name": "userAddress",
          "type": "string"
        },
        {
          "indexed": false,
          "name": "userAccess",
          "type": "uint256"
        }
      ],
      "name": "LogUpdateAdmin",
      "type": "event"
    },
    {
      "anonymous": false,
      "inputs": [
        {
          "indexed": true,
          "name": "emailcode",
          "type": "bytes32"
        },
        {
          "indexed": false,
          "name": "index",
          "type": "uint256"
        }
      ],
      "name": "LogDeleteAdmin",
      "type": "event"
    },
    {
      "constant": true,
      "inputs": [
        {
          "name": "_emailCode",
          "type": "bytes32"
        }
      ],
      "name": "isAdmin",
      "outputs": [
        {
          "name": "isIndeed",
          "type": "bool"
        }
      ],
      "payable": false,
      "stateMutability": "view",
      "type": "function"
    },
    {
      "constant": false,
      "inputs": [
        {
          "name": "_email",
          "type": "string"
        },
        {
          "name": "_name",
          "type": "string"
        }
      ],
      "name": "insertAdmin",
      "outputs": [
        {
          "name": "",
          "type": "bytes32"
        }
      ],
      "payable": false,
      "stateMutability": "nonpayable",
      "type": "function"
    },
    {
      "constant": false,
      "inputs": [
        {
          "name": "email",
          "type": "bytes32"
        }
      ],
      "name": "deleteAdmin",
      "outputs": [
        {
          "name": "",
          "type": "string"
        }
      ],
      "payable": false,
      "stateMutability": "nonpayable",
      "type": "function"
    },
    {
      "constant": false,
      "inputs": [
        {
          "name": "email",
          "type": "bytes32"
        }
      ],
      "name": "blockAdmin",
      "outputs": [
        {
          "name": "",
          "type": "string"
        }
      ],
      "payable": false,
      "stateMutability": "nonpayable",
      "type": "function"
    },
    {
      "constant": true,
      "inputs": [
        {
          "name": "_email",
          "type": "string"
        }
      ],
      "name": "getAdmin",
      "outputs": [
        {
          "name": "email",
          "type": "string"
        },
        {
          "name": "name",
          "type": "string"
        },
        {
          "name": "contactNumber",
          "type": "uint256"
        },
        {
          "name": "userAddress",
          "type": "string"
        },
        {
          "name": "userAccess",
          "type": "uint256"
        }
      ],
      "payable": false,
      "stateMutability": "view",
      "type": "function"
    },
    {
      "constant": true,
      "inputs": [
        {
          "name": "i",
          "type": "uint256"
        }
      ],
      "name": "getAdmini",
      "outputs": [
        {
          "name": "",
          "type": "bytes32"
        },
        {
          "name": "",
          "type": "string"
        },
        {
          "name": "",
          "type": "string"
        },
        {
          "name": "",
          "type": "uint256"
        },
        {
          "name": "",
          "type": "string"
        },
        {
          "name": "",
          "type": "uint256"
        }
      ],
      "payable": false,
      "stateMutability": "view",
      "type": "function"
    },
    {
      "constant": true,
      "inputs": [],
      "name": "getAdminCount",
      "outputs": [
        {
          "name": "",
          "type": "uint256"
        }
      ],
      "payable": false,
      "stateMutability": "view",
      "type": "function"
    },
    {
      "constant": false,
      "inputs": [
        {
          "name": "_email",
          "type": "string"
        },
        {
          "name": "_name",
          "type": "string"
        }
      ],
      "name": "updateAdminName",
      "outputs": [
        {
          "name": "success",
          "type": "bool"
        }
      ],
      "payable": false,
      "stateMutability": "nonpayable",
      "type": "function"
    },
    {
      "constant": false,
      "inputs": [
        {
          "name": "_email",
          "type": "string"
        },
        {
          "name": "_userAddress",
          "type": "string"
        }
      ],
      "name": "updateAdminAddress",
      "outputs": [
        {
          "name": "success",
          "type": "bool"
        }
      ],
      "payable": false,
      "stateMutability": "nonpayable",
      "type": "function"
    },
    {
      "constant": false,
      "inputs": [
        {
          "name": "_email",
          "type": "string"
        },
        {
          "name": "_contactNumber",
          "type": "uint256"
        }
      ],
      "name": "updateAdminContactNumber",
      "outputs": [
        {
          "name": "success",
          "type": "bool"
        }
      ],
      "payable": false,
      "stateMutability": "nonpayable",
      "type": "function"
    },
    {
      "constant": false,
      "inputs": [
        {
          "name": "_email",
          "type": "string"
        },
        {
          "name": "index",
          "type": "uint256[]"
        },
        {
          "name": "_name",
          "type": "string"
        },
        {
          "name": "_userAddress",
          "type": "string"
        },
        {
          "name": "_contactNumber",
          "type": "uint256"
        }
      ],
      "name": "updateAdmin",
      "outputs": [
        {
          "name": "success",
          "type": "bool"
        }
      ],
      "payable": false,
      "stateMutability": "nonpayable",
      "type": "function"
    },
    {
      "constant": false,
      "inputs": [
        {
          "name": "_email",
          "type": "string"
        }
      ],
      "name": "updateAdminEmail",
      "outputs": [
        {
          "name": "success",
          "type": "bool"
        }
      ],
      "payable": false,
      "stateMutability": "nonpayable",
      "type": "function"
    },
    {
      "constant": true,
      "inputs": [
        {
          "name": "email",
          "type": "bytes32"
        }
      ],
      "name": "checkAdminUserAccess",
      "outputs": [
        {
          "name": "userAccess",
          "type": "uint256"
        }
      ],
      "payable": false,
      "stateMutability": "view",
      "type": "function"
    },
    {
      "constant": true,
      "inputs": [
        {
          "name": "email",
          "type": "bytes32"
        }
      ],
      "name": "checkAdminPasswordCode",
      "outputs": [
        {
          "name": "passwordCode",
          "type": "bytes32"
        }
      ],
      "payable": false,
      "stateMutability": "view",
      "type": "function"
    }
  ],
  "bytecode": "0x608060405234801561001057600080fd5b50612f38806100206000396000f3fe608060405234801561001057600080fd5b50600436106100ea5760003560e01c80638b7bf3eb1161008c578063c4c755ca11610066578063c4c755ca14610718578063e4fa3a931461094a578063e6d218d914610967578063f3690dcc14610b5d576100ea565b80638b7bf3eb146105435780639e0ee56f1461054b578063b45ecca8146105ef576100ea565b806374a1cba1116100c857806374a1cba11461025857806375580b5514610275578063806137f61461039e57806389a4212014610514576100ea565b806309a53252146100ef5780631f24f8a5146101a957806372d144801461023b575b600080fd5b6101956004803603604081101561010557600080fd5b810190602081018135600160201b81111561011f57600080fd5b82018360208201111561013157600080fd5b803590602001918460018302840111600160201b8311171561015257600080fd5b91908080601f0160208091040260200160405190810160405280939291908181526020018383808284376000920191909152509295505091359250610c86915050565b604080519115158252519081900360200190f35b6101c6600480360360208110156101bf57600080fd5b5035610fbc565b6040805160208082528351818301528351919283929083019185019080838360005b838110156102005781810151838201526020016101e8565b50505050905090810190601f16801561022d5780820380516001836020036101000a031916815260200191505b509250505060405180910390f35b6101956004803603602081101561025157600080fd5b50356111ef565b6101c66004803603602081101561026e57600080fd5b503561123c565b6101956004803603604081101561028b57600080fd5b810190602081018135600160201b8111156102a557600080fd5b8201836020820111156102b757600080fd5b803590602001918460018302840111600160201b831117156102d857600080fd5b91908080601f0160208091040260200160405190810160405280939291908181526020018383808284376000920191909152509295949360208101935035915050600160201b81111561032a57600080fd5b82018360208201111561033c57600080fd5b803590602001918460018302840111600160201b8311171561035d57600080fd5b91908080601f016020809104026020016040519081016040528093929190818152602001838380828437600092019190915250929550611349945050505050565b6103bb600480360360208110156103b457600080fd5b503561164d565b60405180878152602001806020018060200186815260200180602001858152602001848103845289818151815260200191508051906020019080838360005b838110156104125781810151838201526020016103fa565b50505050905090810190601f16801561043f5780820380516001836020036101000a031916815260200191505b5084810383528851815288516020918201918a019080838360005b8381101561047257818101518382015260200161045a565b50505050905090810190601f16801561049f5780820380516001836020036101000a031916815260200191505b50848103825286518152865160209182019188019080838360005b838110156104d25781810151838201526020016104ba565b50505050905090810190601f1680156104ff5780820380516001836020036101000a031916815260200191505b50995050505050505050505060405180910390f35b6105316004803603602081101561052a57600080fd5b50356118d0565b60408051918252519081900360200190f35b6105316118e5565b6101956004803603602081101561056157600080fd5b810190602081018135600160201b81111561057b57600080fd5b82018360208201111561058d57600080fd5b803590602001918460018302840111600160201b831117156105ae57600080fd5b91908080601f0160208091040260200160405190810160405280939291908181526020018383808284376000920191909152509295506118ec945050505050565b6101956004803603604081101561060557600080fd5b810190602081018135600160201b81111561061f57600080fd5b82018360208201111561063157600080fd5b803590602001918460018302840111600160201b8311171561065257600080fd5b91908080601f0160208091040260200160405190810160405280939291908181526020018383808284376000920191909152509295949360208101935035915050600160201b8111156106a457600080fd5b8201836020820111156106b657600080fd5b803590602001918460018302840111600160201b831117156106d757600080fd5b91908080601f0160208091040260200160405190810160405280939291908181526020018383808284376000920191909152509295506118f2945050505050565b610195600480360360a081101561072e57600080fd5b810190602081018135600160201b81111561074857600080fd5b82018360208201111561075a57600080fd5b803590602001918460018302840111600160201b8311171561077b57600080fd5b91908080601f0160208091040260200160405190810160405280939291908181526020018383808284376000920191909152509295949360208101935035915050600160201b8111156107cd57600080fd5b8201836020820111156107df57600080fd5b803590602001918460208302840111600160201b8311171561080057600080fd5b9190808060200260200160405190810160405280939291908181526020018383602002808284376000920191909152509295949360208101935035915050600160201b81111561084f57600080fd5b82018360208201111561086157600080fd5b803590602001918460018302840111600160201b8311171561088257600080fd5b91908080601f0160208091040260200160405190810160405280939291908181526020018383808284376000920191909152509295949360208101935035915050600160201b8111156108d457600080fd5b8201836020820111156108e657600080fd5b803590602001918460018302840111600160201b8311171561090757600080fd5b91908080601f0160208091040260200160405190810160405280939291908181526020018383808284376000920191909152509295505091359250611c42915050565b6105316004803603602081101561096057600080fd5b50356124cc565b610a0b6004803603602081101561097d57600080fd5b810190602081018135600160201b81111561099757600080fd5b8201836020820111156109a957600080fd5b803590602001918460018302840111600160201b831117156109ca57600080fd5b91908080601f0160208091040260200160405190810160405280939291908181526020018383808284376000920191909152509295506124e1945050505050565b60405180806020018060200186815260200180602001858152602001848103845289818151815260200191508051906020019080838360005b83811015610a5c578181015183820152602001610a44565b50505050905090810190601f168015610a895780820380516001836020036101000a031916815260200191505b5084810383528851815288516020918201918a019080838360005b83811015610abc578181015183820152602001610aa4565b50505050905090810190601f168015610ae95780820380516001836020036101000a031916815260200191505b50848103825286518152865160209182019188019080838360005b83811015610b1c578181015183820152602001610b04565b50505050905090810190601f168015610b495780820380516001836020036101000a031916815260200191505b509850505050505050505060405180910390f35b61053160048036036040811015610b7357600080fd5b810190602081018135600160201b811115610b8d57600080fd5b820183602082011115610b9f57600080fd5b803590602001918460018302840111600160201b83111715610bc057600080fd5b91908080601f0160208091040260200160405190810160405280939291908181526020018383808284376000920191909152509295949360208101935035915050600160201b811115610c1257600080fd5b820183602082011115610c2457600080fd5b803590602001918460018302840111600160201b83111715610c4557600080fd5b91908080601f016020809104026020016040519081016040528093929190818152602001838380828437600092019190915250929550612796945050505050565b600080836040516020018082805190602001908083835b60208310610cbc5780518252601f199092019160209182019101610c9d565b6001836020036101000a038019825116818451168082178552505050505050905001915050604051602081830303815290604052805190602001209050610d02816111ef565b1515600114610d535760408051600160e51b62461bcd0281526020600482015260126024820152600160701b7175736572206e6f7420696e2073797374656d02604482015290519081900360640190fd5b60008181526020819052604090206005810184905560080154600180548592908110610d7b57fe5b90600052602060002090600602016003018190555080600080516020612eb283398151915260008084815260200190815260200160002060080154866000808681526020019081526020016000206002015460008087815260200190815260200160002060030154600080888152602001908152602001600020600401896000808a81526020019081526020016000206006016000808b8152602001908152602001600020600701546040518089815260200180602001888152602001878152602001806020018681526020018060200185815260200184810384528b818151815260200191508051906020019080838360005b83811015610e87578181015183820152602001610e6f565b50505050905090810190601f168015610eb45780820380516001836020036101000a031916815260200191505b50848103835288546002600019610100600184161502019091160480825260209091019089908015610f275780601f10610efc57610100808354040283529160200191610f27565b820191906000526020600020905b815481529060010190602001808311610f0a57829003601f168201915b5050848103825286546002600019610100600184161502019091160480825260209091019087908015610f9b5780601f10610f7057610100808354040283529160200191610f9b565b820191906000526020600020905b815481529060010190602001808311610f7e57829003601f168201915b50509b50505050505050505050505060405180910390a25060019392505050565b60606000815b60025482101561109d578360028381548110610fda57fe5b90600052602060002090600202016000015414156110925760028054600019810190811061100457fe5b9060005260206000209060020201600001546002838154811061102357fe5b60009182526020909120600291820201919091558054600019810190811061104757fe5b9060005260206000209060020201600101546002838154811061106657fe5b90600052602060002090600202016001018190555060028054809190600190036110909190612d78565b505b600190910190610fc2565b60008481526020819052604090206004600782018190556008909101546001805490919081106110c957fe5b9060005260206000209060060201600501819055506001600080868152602001908152602001600020600801548154811061110057fe5b600091825260209182902060026006909202018101805460408051601f6000196101006001861615020190931694909404918201859004850284018501905280835291929091908301828280156111985780601f1061116d57610100808354040283529160200191611198565b820191906000526020600020905b81548152906001019060200180831161117b57829003601f168201915b50505060008781526020818152604091829020600801548251908152915194955088947f4e8bcb6b6008aa5ec72e5bc9e94a9b6e33366c23fd6447d9427295b2c1a2396b945091829003019150a29150505b919050565b600154600090611201575060006111ea565b60008281526020819052604090206008015460018054849290811061122257fe5b906000526020600020906006020160000154149050919050565b6000818152602081905260409020600360078201819055600890910154600180546060938493909291811061126d57fe5b906000526020600020906006020160050181905550600160008085815260200190815260200160002060080154815481106112a457fe5b600091825260209182902060026006909202018101805460408051601f60001961010060018616150201909316949094049182018590048502840185019052808352919290919083018282801561133c5780601f106113115761010080835404028352916020019161133c565b820191906000526020600020905b81548152906001019060200180831161131f57829003601f168201915b5093979650505050505050565b600080836040516020018082805190602001908083835b6020831061137f5780518252601f199092019160209182019101611360565b6001836020036101000a0380198251168184511680821785525050505050509050019150506040516020818303038152906040528051906020012090506113c5816111ef565b15156001146114165760408051600160e51b62461bcd0281526020600482015260126024820152600160701b7175736572206e6f7420696e2073797374656d02604482015290519081900360640190fd5b600081815260208181526040909120845161143992600490920191860190612da9565b5060008181526020819052604090206008015460018054859290811061145b57fe5b9060005260206000209060060201600201908051906020019061147f929190612da9565b5080600080516020612eb28339815191526000808481526020019081526020016000206008015486600080868152602001908152602001600020600201546000808781526020019081526020016000206003015488600080898152602001908152602001600020600501546000808a81526020019081526020016000206006016000808b8152602001908152602001600020600701546040518089815260200180602001888152602001878152602001806020018681526020018060200185815260200184810384528b818151815260200191508051906020019080838360005b83811015611578578181015183820152602001611560565b50505050905090810190601f1680156115a55780820380516001836020036101000a031916815260200191505b5084810383528851815288516020918201918a019080838360005b838110156115d85781810151838201526020016115c0565b50505050905090810190601f1680156116055780820380516001836020036101000a031916815260200191505b50848103825286546002600019610100600184161502019091160480825260209091019087908015610f9b5780601f10610f7057610100808354040283529160200191610f9b565b60006060806000606060006001878154811061166557fe5b9060005260206000209060060201600001546001888154811061168457fe5b9060005260206000209060060201600101600189815481106116a257fe5b906000526020600020906006020160020160018a815481106116c057fe5b90600052602060002090600602016003015460018b815481106116df57fe5b906000526020600020906006020160040160018c815481106116fd57fe5b600091825260209182902060056006909202010154855460408051601f6002600019610100600187161502019094169390930492830185900485028101850190915281815291928791908301828280156117985780601f1061176d57610100808354040283529160200191611798565b820191906000526020600020905b81548152906001019060200180831161177b57829003601f168201915b5050875460408051602060026001851615610100026000190190941693909304601f8101849004840282018401909252818152959a50899450925084019050828280156118265780601f106117fb57610100808354040283529160200191611826565b820191906000526020600020905b81548152906001019060200180831161180957829003601f168201915b5050855460408051602060026001851615610100026000190190941693909304601f8101849004840282018401909252818152959950879450925084019050828280156118b45780601f10611889576101008083540402835291602001916118b4565b820191906000526020600020905b81548152906001019060200180831161189757829003601f168201915b5050505050915095509550955095509550955091939550919395565b60009081526020819052604090206007015490565b6001545b90565b50600090565b600080836040516020018082805190602001908083835b602083106119285780518252601f199092019160209182019101611909565b6001836020036101000a03801982511681845116808217855250505050505090500191505060405160208183030381529060405280519060200120905061196e816111ef565b15156001146119bf5760408051600160e51b62461bcd0281526020600482015260126024820152600160701b7175736572206e6f7420696e2073797374656d02604482015290519081900360640190fd5b60008181526020818152604090912084516119e292600690920191860190612da9565b50600081815260208190526040902060080154600180548592908110611a0457fe5b90600052602060002090600602016004019080519060200190611a28929190612da9565b5080600080516020612eb283398151915260008084815260200190815260200160002060080154866000808681526020019081526020016000206002015460008087815260200190815260200160002060030154600080888152602001908152602001600020600401600080898152602001908152602001600020600501548a6000808b8152602001908152602001600020600701546040518089815260200180602001888152602001878152602001806020018681526020018060200185815260200184810384528b818151815260200191508051906020019080838360005b83811015611b21578181015183820152602001611b09565b50505050905090810190601f168015611b4e5780820380516001836020036101000a031916815260200191505b50848103835288546002600019610100600184161502019091160480825260209091019089908015611bc15780601f10611b9657610100808354040283529160200191611bc1565b820191906000526020600020905b815481529060010190602001808311611ba457829003601f168201915b5050848103825286518152865160209182019188019080838360005b83811015611bf5578181015183820152602001611bdd565b50505050905090810190601f168015611c225780820380516001836020036101000a031916815260200191505b509b50505050505050505050505060405180910390a25060019392505050565b600080866040516020018082805190602001908083835b60208310611c785780518252601f199092019160209182019101611c59565b6001836020036101000a038019825116818451168082178552505050505050905001915050604051602081830303815290604052805190602001209050611cbe816111ef565b1515600114611d0f5760408051600160e51b62461bcd0281526020600482015260126024820152600160701b7175736572206e6f7420696e2073797374656d02604482015290519081900360640190fd5b6000818152602081905260408120600801545b87518210156124bd57878281518110611d3757fe5b602002602001015160011415611fb2576000838152602081815260409091208851611d6a926004909201918a0190612da9565b508660018281548110611d7957fe5b90600052602060002090600602016002019080519060200190611d9d929190612da9565b5082600080516020612eb2833981519152600080868152602001908152602001600020600801548b60008088815260200190815260200160002060020154600080898152602001908152602001600020600301548c6000808b8152602001908152602001600020600501546000808c81526020019081526020016000206006016000808d8152602001908152602001600020600701546040518089815260200180602001888152602001878152602001806020018681526020018060200185815260200184810384528b818151815260200191508051906020019080838360005b83811015611e96578181015183820152602001611e7e565b50505050905090810190601f168015611ec35780820380516001836020036101000a031916815260200191505b5084810383528851815288516020918201918a019080838360005b83811015611ef6578181015183820152602001611ede565b50505050905090810190601f168015611f235780820380516001836020036101000a031916815260200191505b50848103825286546002600019610100600184161502019091160480825260209091019087908015611f965780601f10611f6b57610100808354040283529160200191611f96565b820191906000526020600020905b815481529060010190602001808311611f7957829003601f168201915b50509b50505050505050505050505060405180910390a26124b2565b878281518110611fbe57fe5b602002602001015160021415612239576000838152602081815260409091208751611ff192600690920191890190612da9565b50856001828154811061200057fe5b90600052602060002090600602016004019080519060200190612024929190612da9565b5082600080516020612eb2833981519152600080868152602001908152602001600020600801548b60008088815260200190815260200160002060020154600080898152602001908152602001600020600301546000808a81526020019081526020016000206004016000808b8152602001908152602001600020600501548d6000808d8152602001908152602001600020600701546040518089815260200180602001888152602001878152602001806020018681526020018060200185815260200184810384528b818151815260200191508051906020019080838360005b8381101561211d578181015183820152602001612105565b50505050905090810190601f16801561214a5780820380516001836020036101000a031916815260200191505b508481038352885460026000196101006001841615020190911604808252602090910190899080156121bd5780601f10612192576101008083540402835291602001916121bd565b820191906000526020600020905b8154815290600101906020018083116121a057829003601f168201915b5050848103825286518152865160209182019188019080838360005b838110156121f15781810151838201526020016121d9565b50505050905090810190601f16801561221e5780820380516001836020036101000a031916815260200191505b509b50505050505050505050505060405180910390a26124b2565b87828151811061224557fe5b6020026020010151600314156124b2576000838152602081905260409020600501859055600180548691908390811061227a57fe5b90600052602060002090600602016003018190555082600080516020612eb2833981519152600080868152602001908152602001600020600801548b60008088815260200190815260200160002060020154600080898152602001908152602001600020600301546000808a81526020019081526020016000206004018b6000808c81526020019081526020016000206006016000808d8152602001908152602001600020600701546040518089815260200180602001888152602001878152602001806020018681526020018060200185815260200184810384528b818151815260200191508051906020019080838360005b8381101561238657818101518382015260200161236e565b50505050905090810190601f1680156123b35780820380516001836020036101000a031916815260200191505b508481038352885460026000196101006001841615020190911604808252602090910190899080156124265780601f106123fb57610100808354040283529160200191612426565b820191906000526020600020905b81548152906001019060200180831161240957829003601f168201915b505084810382528654600260001961010060018416150201909116048082526020909101908790801561249a5780601f1061246f5761010080835404028352916020019161249a565b820191906000526020600020905b81548152906001019060200180831161247d57829003601f168201915b50509b50505050505050505050505060405180910390a25b600190910190611d22565b50600198975050505050505050565b60009081526020819052604090206002015490565b60608060006060600080866040516020018082805190602001908083835b6020831061251e5780518252601f1990920191602091820191016124ff565b6001836020036101000a038019825116818451168082178552505050505050905001915050604051602081830303815290604052805190602001209050612564816111ef565b15156001146125b55760408051600160e51b62461bcd0281526020600482015260126024820152600160701b7175736572206e6f7420696e2073797374656d02604482015290519081900360640190fd5b600081815260208181526040918290206005810154600782015482548551601f60026000196101006001861615020190931692909204918201869004860281018601909652808652929460048601949293600687019387919083018282801561265f5780601f106126345761010080835404028352916020019161265f565b820191906000526020600020905b81548152906001019060200180831161264257829003601f168201915b5050875460408051602060026001851615610100026000190190941693909304601f8101849004840282018401909252818152959a50899450925084019050828280156126ed5780601f106126c2576101008083540402835291602001916126ed565b820191906000526020600020905b8154815290600101906020018083116126d057829003601f168201915b5050855460408051602060026001851615610100026000190190941693909304601f81018490048402820184019092528181529599508794509250840190508282801561277b5780601f106127505761010080835404028352916020019161277b565b820191906000526020600020905b81548152906001019060200180831161275e57829003601f168201915b50505050509150955095509550955095505091939590929450565b600080836040516020018082805190602001908083835b602083106127cc5780518252601f1990920191602091820191016127ad565b6001836020036101000a03801982511681845116808217855250505050505090500191505060405160208183030381529060405280519060200120905060006040516020018080600160f81b6061028152506001019050604051602081830303815290604052805190602001209050612844826111ef565b15156001141561289e5760408051600160e51b62461bcd02815260206004820152601660248201527f7573657220616c6c7265647920696e2073797374656d00000000000000000000604482015290519081900360640190fd5b60008281526020818152604090912086516128bb92880190612da9565b5060008281526020818152604082206001810185905560028101849055600381019290925585516128f29260040191870190612da9565b506000828152602081815260408083206005810184905581518084019283905284815286855293909252915161292e9260069092019190612da9565b5060008281526020819052604090206001600790910155612950828686612ba5565b50600180805490500360008084815260200190815260200160002060080181905550817f2d9d676840c870cc037bd86cc92e3231dc401cfe5b6a8cda2f2bda9c44e5234a60008085815260200190815260200160002060080154876000808781526020019081526020016000206002015460008088815260200190815260200160002060030154896000808a8152602001908152602001600020600501546000808b81526020019081526020016000206006016000808c8152602001908152602001600020600701546040518089815260200180602001888152602001878152602001806020018681526020018060200185815260200184810384528b818151815260200191508051906020019080838360005b83811015612a7c578181015183820152602001612a64565b50505050905090810190601f168015612aa95780820380516001836020036101000a031916815260200191505b5084810383528851815288516020918201918a019080838360005b83811015612adc578181015183820152602001612ac4565b50505050905090810190601f168015612b095780820380516001836020036101000a031916815260200191505b50848103825286546002600019610100600184161502019091160480825260209091019087908015612b7c5780601f10612b5157610100808354040283529160200191612b7c565b820191906000526020600020905b815481529060010190602001808311612b5f57829003601f168201915b50509b50505050505050505050505060405180910390a2612b9c82612cc6565b95945050505050565b6000612baf612e27565b84815260208082018590526040808301859052632ac5f23e6060808501919091528151908101909152603b8082529091612ed2908301396080820152600160a082018190528054808201808355600092909252825160069091027fb10e2d527612073b26eecdfd717e6a320cf44b4afac2b0732d9fcbe2b7fa0cf681019182556020808501518051869493612c6a937fb10e2d527612073b26eecdfd717e6a320cf44b4afac2b0732d9fcbe2b7fa0cf7909101920190612da9565b5060408201518051612c86916002840191602090910190612da9565b506060820151600382015560808201518051612cac916004840191602090910190612da9565b5060a0820151816005015550505060019150509392505050565b600080612cd1612d4c565b9050612cdb612e60565b83815260208101828152600280546001810182556000829052925192027f405787fa12a823e0f2b7631cc41b3ba8828b3321ca811111fa75cd3aa3bb5ace810192909255517f405787fa12a823e0f2b7631cc41b3ba8828b3321ca811111fa75cd3aa3bb5acf909101559050919050565b604080514260208083019190915244828401528251808303840181526060909201909252805191012090565b815481835581811115612da457600202816002028360005260206000209182019101612da49190612e77565b505050565b828054600181600116156101000203166002900490600052602060002090601f016020900481019282601f10612dea57805160ff1916838001178555612e17565b82800160010185558215612e17579182015b82811115612e17578251825591602001919060010190612dfc565b50612e23929150612e97565b5090565b6040518060c001604052806000801916815260200160608152602001606081526020016000815260200160608152602001600081525090565b604080518082019091526000808252602082015290565b6118e991905b80821115612e235760008082556001820155600201612e7d565b6118e991905b80821115612e235760008155600101612e9d56fee4b15a551fc7f1c535736e08118cbf9622dc7104fbc63bc36ab16524aa9935d9313333352c626f676168617761746874686120526f61642c70616e6e697069746979612c636f6c6f6d626f2c737269206c616e6b612c3130323330a165627a7a7230582041d9d232910989bf6feedaf7bff2802a8df9b492cfb62dea54386f98eaf16bb10029",
  "source": "pragma solidity >=0.4.21 <0.6.0;\n\ncontract AdminContract {\n    \n    struct Admin{\n        string email;\n        bytes32 emailCode;\n        bytes32 passwordCode;\n        bytes32 passwordRestToken;\n        string name;\n        uint contactNumber;\n        string userAddress;\n        uint userAccess;\n        uint index;\n    }\n\n    struct DisplayAdmin{\n        bytes32 emailCode;\n        string email;\n        string name;\n        uint contactNumber;\n        string userAddress;\n        uint userAccess;\n    }\n    \n    event LogNewAdmin(\n        bytes32 indexed emailCode,\n        uint index,string email,\n        bytes32 passwordCode,\n        bytes32 passwordRestToken,\n        string name,\n        uint contactNumber,\n        string userAddress,\n        uint userAccess\n        );\n    event LogUpdateAdmin(\n        bytes32 indexed emailCode,\n        uint index,string email,\n        bytes32 passwordCode,\n        bytes32 passwordRestToken,\n        string name,\n        uint contactNumber,\n        string userAddress,\n        uint userAccess\n        );\n    event LogDeleteAdmin(\n        bytes32 indexed emailcode,\n        uint index\n        );\n    \n    struct RegistationToken{\n        bytes32 emailCode;\n        bytes32 token;\n    }\n    \n     mapping(bytes32 => Admin) private adminArray;\n     DisplayAdmin[] private adminIndex;\n     RegistationToken[] private adminRegistationToken;\n\n\n    function isAdmin(bytes32 _emailCode)public view returns(bool isIndeed) {\n        if(adminIndex.length == 0) return false;\n        return (adminIndex[adminArray[_emailCode].index].emailCode == _emailCode);\n    }\n    function createAdminToken(bytes32 _emailCode)private returns(bytes32){\n        bytes32 token = randomtoken();\n        RegistationToken memory registationToken;\n        registationToken.emailCode = _emailCode;\n        registationToken.token = token;\n        adminRegistationToken.push(registationToken);\n        return token;\n    }\n    function randomtoken() private view returns (bytes32) {\n       return keccak256(abi.encodePacked( block.timestamp, block.difficulty));\n    }\n    function setDisplayAdmin(bytes32 _emailCode,string memory _email,string memory _name) private returns(bool){\n\n        DisplayAdmin memory displayAdmin;\n        displayAdmin.emailCode = _emailCode;\n        displayAdmin.email = _email;\n        displayAdmin.name = _name;\n        displayAdmin.contactNumber = 717615678;\n        displayAdmin.userAddress = \"1335,bogahawaththa Road,pannipitiya,colombo,sri lanka,10230\";\n        displayAdmin.userAccess = 1;\n        adminIndex.push(displayAdmin);\n        return true;\n\n    }\n    function insertAdmin(string memory _email,string memory _name) public returns(bytes32)\n    {\n        bytes32 _emailCode = keccak256(abi.encodePacked((_email)));\n        bytes32 _passwordCode = keccak256(abi.encodePacked((\"a\")));\n        require(isAdmin(_emailCode) != true,'user allredy in system');\n\n        adminArray[_emailCode].email = _email;\n        adminArray[_emailCode].emailCode = _emailCode;\n        adminArray[_emailCode].passwordCode = _passwordCode;\n        adminArray[_emailCode].passwordRestToken = \"\";\n        adminArray[_emailCode].name = _name;\n        adminArray[_emailCode].contactNumber = 0;\n        adminArray[_emailCode].userAddress = \"\";\n        adminArray[_emailCode].userAccess = 1;\n        setDisplayAdmin(_emailCode,_email,_name);\n        adminArray[_emailCode].index = adminIndex.length-1;\n\n        emit LogNewAdmin (\n            _emailCode,\n            adminArray[_emailCode].index,\n            _email,\n            adminArray[_emailCode].passwordCode,\n            adminArray[_emailCode].passwordRestToken,\n            _name,\n            adminArray[_emailCode].contactNumber,\n            adminArray[_emailCode].userAddress,\n            adminArray[_emailCode].userAccess\n            );\n        return createAdminToken(_emailCode);\n    }\n\n    function deleteAdmin(bytes32 email) public returns(string memory)\n    {\n        uint i;\n        string memory name;\n        for( i = 0; i < adminRegistationToken.length; i++) {\n            if(adminRegistationToken[i].emailCode == email){\n                adminRegistationToken[i].emailCode = adminRegistationToken[adminRegistationToken.length-1].emailCode;\n                adminRegistationToken[i].token = adminRegistationToken[adminRegistationToken.length-1].token;\n                adminRegistationToken.length--;\n            }\n        }\n        adminArray[email].userAccess = 4;\n        adminIndex[adminArray[email].index].userAccess = 4;\n        name = adminIndex[adminArray[email].index].name;\n        emit LogDeleteAdmin(\n            email,\n            adminArray[email].index\n        );\n        return name;\n    }\n    \n    function blockAdmin(bytes32 email) public returns(string memory)\n    {\n        string memory name;\n        adminArray[email].userAccess = 3;\n        adminIndex[adminArray[email].index].userAccess = 3;\n        name = adminIndex[adminArray[email].index].name;\n        return name;\n    }\n    \n    function getAdmin(string memory _email) public view returns(string memory email,string memory name,\n    uint contactNumber,string memory userAddress, uint userAccess)\n    {\n        bytes32 _emailCode = keccak256(abi.encodePacked((_email)));\n        require(isAdmin(_emailCode) == true,'user not in system');\n        return(\n            adminArray[_emailCode].email,\n            adminArray[_emailCode].name,\n            adminArray[_emailCode].contactNumber,\n            adminArray[_emailCode].userAddress,\n            adminArray[_emailCode].userAccess\n            );\n    }\n    \n    function getAdmini(uint i) public view returns(\n        bytes32,\n        string memory,\n        string memory,\n        uint,\n        string memory,\n        uint\n        ){\n            return (\n                adminIndex[i].emailCode,\n                adminIndex[i].email,\n                adminIndex[i].name,\n                adminIndex[i].contactNumber,\n                adminIndex[i].userAddress,\n                adminIndex[i].userAccess\n                );\n    }\n    \n    function getAdminCount() public view returns(uint)\n    {\n        return adminIndex.length;\n    }\n    \n    // function updateUserEmail(address userAddress, bytes32 userEmail) public returns(bool success)\n    // {\n    //     userStructs[userAddress].userEmail = userEmail;\n    //     emit LogUpdateUser(userAddress,  userStructs[userAddress].index, userEmail, userStructs[userAddress].userAge);\n    //     return true;\n    // }\n    function updateAdminName (string memory _email,string memory _name) public returns(bool success)\n    {\n        bytes32 _emailCode = keccak256(abi.encodePacked((_email)));\n        require(isAdmin(_emailCode) == true,'user not in system');\n        adminArray[_emailCode].name = _name;\n        adminIndex[adminArray[_emailCode].index].name = _name;\n        emit LogUpdateAdmin(\n            _emailCode,\n            adminArray[_emailCode].index,\n            _email,\n            adminArray[_emailCode].passwordCode,\n            adminArray[_emailCode].passwordRestToken,\n            _name,\n            adminArray[_emailCode].contactNumber,\n            adminArray[_emailCode].userAddress,\n            adminArray[_emailCode].userAccess\n            );\n        return true;\n    }\n    function updateAdminAddress (string memory _email,string memory _userAddress) public returns(bool success)\n    {\n        bytes32 _emailCode = keccak256(abi.encodePacked((_email)));\n        require(isAdmin(_emailCode) == true,'user not in system');\n        adminArray[_emailCode].userAddress = _userAddress;\n        adminIndex[adminArray[_emailCode].index].userAddress = _userAddress;\n        emit LogUpdateAdmin(\n            _emailCode,\n            adminArray[_emailCode].index,\n            _email,\n            adminArray[_emailCode].passwordCode,\n            adminArray[_emailCode].passwordRestToken,\n            adminArray[_emailCode].name,\n            adminArray[_emailCode].contactNumber,\n            _userAddress,\n            adminArray[_emailCode].userAccess\n            );\n        return true;\n    }\n     function updateAdminContactNumber (string memory _email,uint _contactNumber) public returns(bool success)\n    {\n        bytes32 _emailCode = keccak256(abi.encodePacked((_email)));\n        require(isAdmin(_emailCode) == true,'user not in system');\n        adminArray[_emailCode].contactNumber = _contactNumber;\n        adminIndex[adminArray[_emailCode].index].contactNumber = _contactNumber;\n        emit LogUpdateAdmin(\n            _emailCode,\n            adminArray[_emailCode].index,\n            _email,\n            adminArray[_emailCode].passwordCode,\n            adminArray[_emailCode].passwordRestToken,\n            adminArray[_emailCode].name,\n            _contactNumber,\n            adminArray[_emailCode].userAddress,\n            adminArray[_emailCode].userAccess\n            );\n        return true;\n    }\n    function updateAdmin(\n        string memory _email,\n        uint[] memory index,\n        string memory _name,\n        string memory _userAddress,\n        uint _contactNumber\n        ) public returns(bool success)\n    {\n        bytes32 _emailCode = keccak256(abi.encodePacked((_email)));\n        require(isAdmin(_emailCode) == true,'user not in system');\n        uint i;\n        uint num = adminArray[_emailCode].index;\n\n        for (i = 0;i<index.length;i++){\n            if(index[i]==1){\n                adminArray[_emailCode].name = _name;\n                adminIndex[num].name = _name;\n                emit LogUpdateAdmin(\n                    _emailCode,\n                    adminArray[_emailCode].index,\n                    _email,adminArray[_emailCode].passwordCode,\n                    adminArray[_emailCode].passwordRestToken,\n                    _name,\n                    adminArray[_emailCode].contactNumber,\n                    adminArray[_emailCode].userAddress,\n                    adminArray[_emailCode].userAccess\n                    );\n\n            }\n            else if(index[i]==2){\n                adminArray[_emailCode].userAddress = _userAddress;\n\n                adminIndex[num].userAddress = _userAddress;\n\n                emit LogUpdateAdmin(\n                    _emailCode,\n                    adminArray[_emailCode].index,\n                    _email,\n                    adminArray[_emailCode].passwordCode,\n                    adminArray[_emailCode].passwordRestToken,\n                    adminArray[_emailCode].name,\n                    adminArray[_emailCode].contactNumber,\n                    _userAddress,\n                    adminArray[_emailCode].userAccess\n                    );\n\n            }\n            else if(index[i]==3){\n                adminArray[_emailCode].contactNumber = _contactNumber;\n                adminIndex[num].contactNumber = _contactNumber;\n                emit LogUpdateAdmin(\n                    _emailCode,\n                    adminArray[_emailCode].index,\n                    _email,\n                    adminArray[_emailCode].passwordCode,\n                    adminArray[_emailCode].passwordRestToken,\n                    adminArray[_emailCode].name,\n                    _contactNumber,\n                    adminArray[_emailCode].userAddress,\n                    adminArray[_emailCode].userAccess\n                    );\n\n            }\n        }\n        return true;\n    }\n    ///////\n    function updateAdminEmail (string memory _email) public returns(bool success)\n    {\n       // return true;\n    }\n    function checkAdminUserAccess(bytes32 email)public view returns(uint userAccess){\n        return adminArray[email].userAccess;\n    }\n    function checkAdminPasswordCode(bytes32 email) public view returns(bytes32 passwordCode ){\n        return adminArray[email].passwordCode;\n    }\n}",
  "sourcePath": "C:\\project\\tea supply chain mangement system\\test2\\contracts\\Admin.sol",
  "compiler": {
    "name": "solc",
    "version": "0.5.8+commit.23d335f2.Emscripten.clang"
  },
  "schemaVersion": "3.0.16",
  "updatedAt": "2019-11-16T02:02:57.089Z",
  "devdoc": {
    "methods": {}
  },
  "userdoc": {
    "methods": {
      "updateAdminEmail(string)": {
        "notice": "////"
      }
    }
  }
}