{
  "contractName": "AdminContract",
  "abi": [
    {
      "anonymous": false,
      "inputs": [
        {
          "indexed": true,
          "internalType": "bytes32",
          "name": "emailcode",
          "type": "bytes32"
        },
        {
          "indexed": false,
          "internalType": "uint256",
          "name": "index",
          "type": "uint256"
        }
      ],
      "name": "LogDeleteAdmin",
      "type": "event"
    },
    {
      "anonymous": false,
      "inputs": [
        {
          "indexed": true,
          "internalType": "bytes32",
          "name": "emailCode",
          "type": "bytes32"
        },
        {
          "indexed": false,
          "internalType": "uint256",
          "name": "index",
          "type": "uint256"
        },
        {
          "indexed": false,
          "internalType": "string",
          "name": "email",
          "type": "string"
        },
        {
          "indexed": false,
          "internalType": "bytes32",
          "name": "passwordCode",
          "type": "bytes32"
        },
        {
          "indexed": false,
          "internalType": "string",
          "name": "name",
          "type": "string"
        },
        {
          "indexed": false,
          "internalType": "uint256",
          "name": "contactNumber",
          "type": "uint256"
        },
        {
          "indexed": false,
          "internalType": "string",
          "name": "userAddress",
          "type": "string"
        },
        {
          "indexed": false,
          "internalType": "uint256",
          "name": "userAccess",
          "type": "uint256"
        }
      ],
      "name": "LogNewAdmin",
      "type": "event"
    },
    {
      "anonymous": false,
      "inputs": [
        {
          "indexed": true,
          "internalType": "bytes32",
          "name": "emailCode",
          "type": "bytes32"
        },
        {
          "indexed": false,
          "internalType": "uint256",
          "name": "index",
          "type": "uint256"
        },
        {
          "indexed": false,
          "internalType": "string",
          "name": "email",
          "type": "string"
        },
        {
          "indexed": false,
          "internalType": "bytes32",
          "name": "passwordCode",
          "type": "bytes32"
        },
        {
          "indexed": false,
          "internalType": "string",
          "name": "name",
          "type": "string"
        },
        {
          "indexed": false,
          "internalType": "uint256",
          "name": "contactNumber",
          "type": "uint256"
        },
        {
          "indexed": false,
          "internalType": "string",
          "name": "userAddress",
          "type": "string"
        },
        {
          "indexed": false,
          "internalType": "uint256",
          "name": "userAccess",
          "type": "uint256"
        }
      ],
      "name": "LogUpdateAdmin",
      "type": "event"
    },
    {
      "constant": true,
      "inputs": [
        {
          "internalType": "bytes32",
          "name": "",
          "type": "bytes32"
        }
      ],
      "name": "adminArray",
      "outputs": [
        {
          "internalType": "string",
          "name": "email",
          "type": "string"
        },
        {
          "internalType": "bytes32",
          "name": "emailCode",
          "type": "bytes32"
        },
        {
          "internalType": "bytes32",
          "name": "passwordCode",
          "type": "bytes32"
        },
        {
          "internalType": "string",
          "name": "name",
          "type": "string"
        },
        {
          "internalType": "uint256",
          "name": "contactNumber",
          "type": "uint256"
        },
        {
          "internalType": "string",
          "name": "userAddress",
          "type": "string"
        },
        {
          "internalType": "uint256",
          "name": "userAccess",
          "type": "uint256"
        },
        {
          "internalType": "uint256",
          "name": "index",
          "type": "uint256"
        }
      ],
      "payable": false,
      "stateMutability": "view",
      "type": "function"
    },
    {
      "constant": true,
      "inputs": [
        {
          "internalType": "uint256",
          "name": "",
          "type": "uint256"
        }
      ],
      "name": "adminIndex",
      "outputs": [
        {
          "internalType": "bytes32",
          "name": "emailCode",
          "type": "bytes32"
        },
        {
          "internalType": "string",
          "name": "email",
          "type": "string"
        },
        {
          "internalType": "string",
          "name": "name",
          "type": "string"
        },
        {
          "internalType": "uint256",
          "name": "contactNumber",
          "type": "uint256"
        },
        {
          "internalType": "string",
          "name": "userAddress",
          "type": "string"
        },
        {
          "internalType": "uint256",
          "name": "userAccess",
          "type": "uint256"
        }
      ],
      "payable": false,
      "stateMutability": "view",
      "type": "function"
    },
    {
      "constant": true,
      "inputs": [
        {
          "internalType": "bytes32",
          "name": "",
          "type": "bytes32"
        }
      ],
      "name": "adminRegistationToken",
      "outputs": [
        {
          "internalType": "bytes32",
          "name": "emailCode",
          "type": "bytes32"
        },
        {
          "internalType": "bytes32",
          "name": "token",
          "type": "bytes32"
        }
      ],
      "payable": false,
      "stateMutability": "view",
      "type": "function"
    },
    {
      "constant": true,
      "inputs": [
        {
          "internalType": "bytes32",
          "name": "_emailCode",
          "type": "bytes32"
        }
      ],
      "name": "isAdmin",
      "outputs": [
        {
          "internalType": "bool",
          "name": "isIndeed",
          "type": "bool"
        }
      ],
      "payable": false,
      "stateMutability": "view",
      "type": "function"
    },
    {
      "constant": true,
      "inputs": [
        {
          "internalType": "string",
          "name": "_email",
          "type": "string"
        }
      ],
      "name": "isAdminx",
      "outputs": [
        {
          "internalType": "bool",
          "name": "isIndeed",
          "type": "bool"
        }
      ],
      "payable": false,
      "stateMutability": "view",
      "type": "function"
    },
    {
      "constant": false,
      "inputs": [
        {
          "internalType": "string",
          "name": "_email",
          "type": "string"
        }
      ],
      "name": "createAdminToken",
      "outputs": [
        {
          "internalType": "bytes32",
          "name": "",
          "type": "bytes32"
        }
      ],
      "payable": false,
      "stateMutability": "nonpayable",
      "type": "function"
    },
    {
      "constant": true,
      "inputs": [
        {
          "internalType": "string",
          "name": "_email",
          "type": "string"
        }
      ],
      "name": "getAdminToken",
      "outputs": [
        {
          "internalType": "bytes32",
          "name": "",
          "type": "bytes32"
        }
      ],
      "payable": false,
      "stateMutability": "view",
      "type": "function"
    },
    {
      "constant": true,
      "inputs": [
        {
          "internalType": "string",
          "name": "_email",
          "type": "string"
        },
        {
          "internalType": "bytes32",
          "name": "_token",
          "type": "bytes32"
        }
      ],
      "name": "checkAdminToken",
      "outputs": [
        {
          "internalType": "bool",
          "name": "",
          "type": "bool"
        }
      ],
      "payable": false,
      "stateMutability": "view",
      "type": "function"
    },
    {
      "constant": false,
      "inputs": [
        {
          "internalType": "string",
          "name": "_email",
          "type": "string"
        },
        {
          "internalType": "string",
          "name": "_password",
          "type": "string"
        }
      ],
      "name": "setPassword",
      "outputs": [
        {
          "internalType": "bool",
          "name": "",
          "type": "bool"
        }
      ],
      "payable": false,
      "stateMutability": "nonpayable",
      "type": "function"
    },
    {
      "constant": false,
      "inputs": [
        {
          "internalType": "string",
          "name": "_email",
          "type": "string"
        },
        {
          "internalType": "string",
          "name": "_name",
          "type": "string"
        },
        {
          "internalType": "string",
          "name": "_address",
          "type": "string"
        },
        {
          "internalType": "uint256",
          "name": "_telephone",
          "type": "uint256"
        }
      ],
      "name": "insertAdmin",
      "outputs": [
        {
          "internalType": "bool",
          "name": "",
          "type": "bool"
        }
      ],
      "payable": false,
      "stateMutability": "nonpayable",
      "type": "function"
    },
    {
      "constant": false,
      "inputs": [
        {
          "internalType": "bytes32",
          "name": "email",
          "type": "bytes32"
        }
      ],
      "name": "deleteAdmin",
      "outputs": [
        {
          "internalType": "string",
          "name": "",
          "type": "string"
        }
      ],
      "payable": false,
      "stateMutability": "nonpayable",
      "type": "function"
    },
    {
      "constant": false,
      "inputs": [
        {
          "internalType": "bytes32",
          "name": "email",
          "type": "bytes32"
        }
      ],
      "name": "blockAdmin",
      "outputs": [
        {
          "internalType": "string",
          "name": "",
          "type": "string"
        }
      ],
      "payable": false,
      "stateMutability": "nonpayable",
      "type": "function"
    },
    {
      "constant": false,
      "inputs": [
        {
          "internalType": "string",
          "name": "_email",
          "type": "string"
        },
        {
          "internalType": "uint256",
          "name": "usreAccess",
          "type": "uint256"
        }
      ],
      "name": "editUserAccess",
      "outputs": [
        {
          "internalType": "bool",
          "name": "",
          "type": "bool"
        }
      ],
      "payable": false,
      "stateMutability": "nonpayable",
      "type": "function"
    },
    {
      "constant": true,
      "inputs": [
        {
          "internalType": "string",
          "name": "_email",
          "type": "string"
        }
      ],
      "name": "getAdmin",
      "outputs": [
        {
          "internalType": "bytes32",
          "name": "",
          "type": "bytes32"
        },
        {
          "internalType": "string",
          "name": "email",
          "type": "string"
        },
        {
          "internalType": "string",
          "name": "name",
          "type": "string"
        },
        {
          "internalType": "uint256",
          "name": "contactNumber",
          "type": "uint256"
        },
        {
          "internalType": "string",
          "name": "userAddress",
          "type": "string"
        },
        {
          "internalType": "uint256",
          "name": "userAccess",
          "type": "uint256"
        }
      ],
      "payable": false,
      "stateMutability": "view",
      "type": "function"
    },
    {
      "constant": true,
      "inputs": [
        {
          "internalType": "uint256",
          "name": "i",
          "type": "uint256"
        }
      ],
      "name": "getAdmini",
      "outputs": [
        {
          "internalType": "bytes32",
          "name": "",
          "type": "bytes32"
        },
        {
          "internalType": "string",
          "name": "",
          "type": "string"
        },
        {
          "internalType": "string",
          "name": "",
          "type": "string"
        },
        {
          "internalType": "uint256",
          "name": "",
          "type": "uint256"
        },
        {
          "internalType": "string",
          "name": "",
          "type": "string"
        },
        {
          "internalType": "uint256",
          "name": "",
          "type": "uint256"
        }
      ],
      "payable": false,
      "stateMutability": "view",
      "type": "function"
    },
    {
      "constant": true,
      "inputs": [],
      "name": "getAdminCount",
      "outputs": [
        {
          "internalType": "uint256",
          "name": "",
          "type": "uint256"
        }
      ],
      "payable": false,
      "stateMutability": "view",
      "type": "function"
    },
    {
      "constant": false,
      "inputs": [
        {
          "internalType": "string",
          "name": "_email",
          "type": "string"
        },
        {
          "internalType": "string",
          "name": "_name",
          "type": "string"
        }
      ],
      "name": "updateAdminName",
      "outputs": [
        {
          "internalType": "bool",
          "name": "success",
          "type": "bool"
        }
      ],
      "payable": false,
      "stateMutability": "nonpayable",
      "type": "function"
    },
    {
      "constant": false,
      "inputs": [
        {
          "internalType": "string",
          "name": "_email",
          "type": "string"
        },
        {
          "internalType": "string",
          "name": "_userAddress",
          "type": "string"
        }
      ],
      "name": "updateAdminAddress",
      "outputs": [
        {
          "internalType": "bool",
          "name": "success",
          "type": "bool"
        }
      ],
      "payable": false,
      "stateMutability": "nonpayable",
      "type": "function"
    },
    {
      "constant": false,
      "inputs": [
        {
          "internalType": "string",
          "name": "_email",
          "type": "string"
        },
        {
          "internalType": "uint256",
          "name": "_contactNumber",
          "type": "uint256"
        }
      ],
      "name": "updateAdminContactNumber",
      "outputs": [
        {
          "internalType": "bool",
          "name": "success",
          "type": "bool"
        }
      ],
      "payable": false,
      "stateMutability": "nonpayable",
      "type": "function"
    },
    {
      "constant": false,
      "inputs": [
        {
          "internalType": "string",
          "name": "_email",
          "type": "string"
        },
        {
          "internalType": "uint256[]",
          "name": "index",
          "type": "uint256[]"
        },
        {
          "internalType": "string",
          "name": "_name",
          "type": "string"
        },
        {
          "internalType": "string",
          "name": "_userAddress",
          "type": "string"
        },
        {
          "internalType": "uint256",
          "name": "_contactNumber",
          "type": "uint256"
        }
      ],
      "name": "updateAdmin",
      "outputs": [
        {
          "internalType": "bool",
          "name": "success",
          "type": "bool"
        }
      ],
      "payable": false,
      "stateMutability": "nonpayable",
      "type": "function"
    },
    {
      "constant": false,
      "inputs": [
        {
          "internalType": "string",
          "name": "_email",
          "type": "string"
        }
      ],
      "name": "updateAdminiEmail",
      "outputs": [
        {
          "internalType": "bool",
          "name": "success",
          "type": "bool"
        }
      ],
      "payable": false,
      "stateMutability": "nonpayable",
      "type": "function"
    },
    {
      "constant": true,
      "inputs": [
        {
          "internalType": "bytes32",
          "name": "email",
          "type": "bytes32"
        }
      ],
      "name": "checkAdminUserAccess",
      "outputs": [
        {
          "internalType": "uint256",
          "name": "userAccess",
          "type": "uint256"
        }
      ],
      "payable": false,
      "stateMutability": "view",
      "type": "function"
    },
    {
      "constant": true,
      "inputs": [
        {
          "internalType": "bytes32",
          "name": "email",
          "type": "bytes32"
        }
      ],
      "name": "checkAdminPasswordCode",
      "outputs": [
        {
          "internalType": "bytes32",
          "name": "passwordCode",
          "type": "bytes32"
        }
      ],
      "payable": false,
      "stateMutability": "view",
      "type": "function"
    }
  ],
  "bytecode": "0x608060405234801561001057600080fd5b50613cc4806100206000396000f3fe608060405234801561001057600080fd5b506004361061014d5760003560e01c80638b7bf3eb116100c3578063dfc167d91161007c578063dfc167d914610f73578063e4fa3a9314611017578063e6d218d914611034578063f06e51ca146110d8578063f488ccde1461117c578063f9e10ce9146111b25761014d565b80638b7bf3eb14610893578063accbdf471461089b578063b45ecca814610a4b578063c4c755ca14610b74578063ca38649614610da6578063d72e291914610ecf5761014d565b806372d144801161011557806372d144801461056057806374a1cba11461057d57806375580b551461059a578063806137f6146106c357806389a42120146106e05780638ab5626f1461070f5761014d565b806309a532521461015257806316f8f0a21461020c5780631f24f8a5146103825780635c50771c146104145780636609b7cc146104ba575b600080fd5b6101f86004803603604081101561016857600080fd5b810190602081018135600160201b81111561018257600080fd5b82018360208201111561019457600080fd5b803590602001918460018302840111600160201b831117156101b557600080fd5b91908080601f0160208091040260200160405190810160405280939291908181526020018383808284376000920191909152509295505091359250611256915050565b604080519115158252519081900360200190f35b6102296004803603602081101561022257600080fd5b5035611532565b60405180878152602001806020018060200186815260200180602001858152602001848103845289818151815260200191508051906020019080838360005b83811015610280578181015183820152602001610268565b50505050905090810190601f1680156102ad5780820380516001836020036101000a031916815260200191505b5084810383528851815288516020918201918a019080838360005b838110156102e05781810151838201526020016102c8565b50505050905090810190601f16801561030d5780820380516001836020036101000a031916815260200191505b50848103825286518152865160209182019188019080838360005b83811015610340578181015183820152602001610328565b50505050905090810190601f16801561036d5780820380516001836020036101000a031916815260200191505b50995050505050505050505060405180910390f35b61039f6004803603602081101561039857600080fd5b503561172a565b6040805160208082528351818301528351919283929083019185019080838360005b838110156103d95781810151838201526020016103c1565b50505050905090810190601f1680156104065780820380516001836020036101000a031916815260200191505b509250505060405180910390f35b6101f86004803603604081101561042a57600080fd5b810190602081018135600160201b81111561044457600080fd5b82018360208201111561045657600080fd5b803590602001918460018302840111600160201b8311171561047757600080fd5b91908080601f0160208091040260200160405190810160405280939291908181526020018383808284376000920191909152509295505091359250611894915050565b6101f8600480360360408110156104d057600080fd5b810190602081018135600160201b8111156104ea57600080fd5b8201836020820111156104fc57600080fd5b803590602001918460018302840111600160201b8311171561051d57600080fd5b91908080601f0160208091040260200160405190810160405280939291908181526020018383808284376000920191909152509295505091359250611920915050565b6101f86004803603602081101561057657600080fd5b50356119d8565b61039f6004803603602081101561059357600080fd5b5035611a25565b6101f8600480360360408110156105b057600080fd5b810190602081018135600160201b8111156105ca57600080fd5b8201836020820111156105dc57600080fd5b803590602001918460018302840111600160201b831117156105fd57600080fd5b91908080601f0160208091040260200160405190810160405280939291908181526020018383808284376000920191909152509295949360208101935035915050600160201b81111561064f57600080fd5b82018360208201111561066157600080fd5b803590602001918460018302840111600160201b8311171561068257600080fd5b91908080601f016020809104026020016040519081016040528093929190818152602001838380828437600092019190915250929550611c6a945050505050565b610229600480360360208110156106d957600080fd5b5035611f16565b6106fd600480360360208110156106f657600080fd5b5035612199565b60408051918252519081900360200190f35b61072c6004803603602081101561072557600080fd5b50356121ae565b6040518080602001898152602001888152602001806020018781526020018060200186815260200185815260200184810384528c818151815260200191508051906020019080838360005b8381101561078f578181015183820152602001610777565b50505050905090810190601f1680156107bc5780820380516001836020036101000a031916815260200191505b5084810383528951815289516020918201918b019080838360005b838110156107ef5781810151838201526020016107d7565b50505050905090810190601f16801561081c5780820380516001836020036101000a031916815260200191505b50848103825287518152875160209182019189019080838360005b8381101561084f578181015183820152602001610837565b50505050905090810190601f16801561087c5780820380516001836020036101000a031916815260200191505b509b50505050505050505050505060405180910390f35b6106fd612399565b6101f8600480360360808110156108b157600080fd5b810190602081018135600160201b8111156108cb57600080fd5b8201836020820111156108dd57600080fd5b803590602001918460018302840111600160201b831117156108fe57600080fd5b91908080601f0160208091040260200160405190810160405280939291908181526020018383808284376000920191909152509295949360208101935035915050600160201b81111561095057600080fd5b82018360208201111561096257600080fd5b803590602001918460018302840111600160201b8311171561098357600080fd5b91908080601f0160208091040260200160405190810160405280939291908181526020018383808284376000920191909152509295949360208101935035915050600160201b8111156109d557600080fd5b8201836020820111156109e757600080fd5b803590602001918460018302840111600160201b83111715610a0857600080fd5b91908080601f01602080910402602001604051908101604052809392919081815260200183838082843760009201919091525092955050913592506123a0915050565b6101f860048036036040811015610a6157600080fd5b810190602081018135600160201b811115610a7b57600080fd5b820183602082011115610a8d57600080fd5b803590602001918460018302840111600160201b83111715610aae57600080fd5b91908080601f0160208091040260200160405190810160405280939291908181526020018383808284376000920191909152509295949360208101935035915050600160201b811115610b0057600080fd5b820183602082011115610b1257600080fd5b803590602001918460018302840111600160201b83111715610b3357600080fd5b91908080601f016020809104026020016040519081016040528093929190818152602001838380828437600092019190915250929550612735945050505050565b6101f8600480360360a0811015610b8a57600080fd5b810190602081018135600160201b811115610ba457600080fd5b820183602082011115610bb657600080fd5b803590602001918460018302840111600160201b83111715610bd757600080fd5b91908080601f0160208091040260200160405190810160405280939291908181526020018383808284376000920191909152509295949360208101935035915050600160201b811115610c2957600080fd5b820183602082011115610c3b57600080fd5b803590602001918460208302840111600160201b83111715610c5c57600080fd5b9190808060200260200160405190810160405280939291908181526020018383602002808284376000920191909152509295949360208101935035915050600160201b811115610cab57600080fd5b820183602082011115610cbd57600080fd5b803590602001918460018302840111600160201b83111715610cde57600080fd5b91908080601f0160208091040260200160405190810160405280939291908181526020018383808284376000920191909152509295949360208101935035915050600160201b811115610d3057600080fd5b820183602082011115610d4257600080fd5b803590602001918460018302840111600160201b83111715610d6357600080fd5b91908080601f0160208091040260200160405190810160405280939291908181526020018383808284376000920191909152509295505091359250612a2e915050565b6101f860048036036040811015610dbc57600080fd5b810190602081018135600160201b811115610dd657600080fd5b820183602082011115610de857600080fd5b803590602001918460018302840111600160201b83111715610e0957600080fd5b91908080601f0160208091040260200160405190810160405280939291908181526020018383808284376000920191909152509295949360208101935035915050600160201b811115610e5b57600080fd5b820183602082011115610e6d57600080fd5b803590602001918460018302840111600160201b83111715610e8e57600080fd5b91908080601f01602080910402602001604051908101604052809392919081815260200183838082843760009201919091525092955061325b945050505050565b6106fd60048036036020811015610ee557600080fd5b810190602081018135600160201b811115610eff57600080fd5b820183602082011115610f1157600080fd5b803590602001918460018302840111600160201b83111715610f3257600080fd5b91908080601f016020809104026020016040519081016040528093929190818152602001838380828437600092019190915250929550613568945050505050565b6106fd60048036036020811015610f8957600080fd5b810190602081018135600160201b811115610fa357600080fd5b820183602082011115610fb557600080fd5b803590602001918460018302840111600160201b83111715610fd657600080fd5b91908080601f0160208091040260200160405190810160405280939291908181526020018383808284376000920191909152509295506135f0945050505050565b6106fd6004803603602081101561102d57600080fd5b50356136b2565b6102296004803603602081101561104a57600080fd5b810190602081018135600160201b81111561106457600080fd5b82018360208201111561107657600080fd5b803590602001918460018302840111600160201b8311171561109757600080fd5b91908080601f0160208091040260200160405190810160405280939291908181526020018383808284376000920191909152509295506136c7945050505050565b6101f8600480360360208110156110ee57600080fd5b810190602081018135600160201b81111561110857600080fd5b82018360208201111561111a57600080fd5b803590602001918460018302840111600160201b8311171561113b57600080fd5b91908080601f01602080910402602001604051908101604052809392919081815260200183838082843760009201919091525092955061397b945050505050565b6111996004803603602081101561119257600080fd5b5035613a42565b6040805192835260208301919091528051918290030190f35b6101f8600480360360208110156111c857600080fd5b810190602081018135600160201b8111156111e257600080fd5b8201836020820111156111f457600080fd5b803590602001918460018302840111600160201b8311171561121557600080fd5b91908080601f016020809104026020016040519081016040528093929190818152602001838380828437600092019190915250929550613a5b945050505050565b600080836040516020018082805190602001908083835b6020831061128c5780518252601f19909201916020918201910161126d565b6001836020036101000a0380198251168184511680821785525050505050509050019150506040516020818303038152906040528051906020012090506112d2816119d8565b151560011461131d576040805162461bcd60e51b815260206004820152601260248201527175736572206e6f7420696e2073797374656d60701b604482015290519081900360640190fd5b6000818152602081905260409020600481018490556007015460018054859290811061134557fe5b60009182526020808320600692830201600390810194909455848352828152604080842060078101546002820154948201548351828152938401869052608084018b905260c0840181905260e08486018181528d51918601919091528c518a99600080516020613c708339815191529994988f989097918701968f96600590910195949293606085019260a0860192610100870192918d0191908190849084905b838110156113fe5781810151838201526020016113e6565b50505050905090810190601f16801561142b5780820380516001836020036101000a031916815260200191505b5084810383528854600260001961010060018416150201909116048082526020909101908990801561149e5780601f106114735761010080835404028352916020019161149e565b820191906000526020600020905b81548152906001019060200180831161148157829003601f168201915b50508481038252865460026000196101006001841615020190911604808252602090910190879080156115125780601f106114e757610100808354040283529160200191611512565b820191906000526020600020905b8154815290600101906020018083116114f557829003601f168201915b50509a505050505050505050505060405180910390a25060019392505050565b6001818154811061153f57fe5b9060005260206000209060060201600091509050806000015490806001018054600181600116156101000203166002900480601f0160208091040260200160405190810160405280929190818152602001828054600181600116156101000203166002900480156115f15780601f106115c6576101008083540402835291602001916115f1565b820191906000526020600020905b8154815290600101906020018083116115d457829003601f168201915b50505060028085018054604080516020601f60001961010060018716150201909416959095049283018590048502810185019091528181529596959450909250908301828280156116835780601f1061165857610100808354040283529160200191611683565b820191906000526020600020905b81548152906001019060200180831161166657829003601f168201915b50505050600383015460048401805460408051602060026001851615610100026000190190941693909304601f8101849004840282018401909252818152959693959394509083018282801561171a5780601f106116ef5761010080835404028352916020019161171a565b820191906000526020600020905b8154815290600101906020018083116116fd57829003601f168201915b5050505050908060050154905086565b600081815260026020908152604080832083815560019081018490559183905282206004600682018190556007909101548254606094938593929091811061176e57fe5b906000526020600020906006020160050181905550600160008086815260200190815260200160002060070154815481106117a557fe5b600091825260209182902060026006909202018101805460408051601f60001961010060018616150201909316949094049182018590048502840185019052808352919290919083018282801561183d5780601f106118125761010080835404028352916020019161183d565b820191906000526020600020905b81548152906001019060200180831161182057829003601f168201915b50505060008781526020818152604091829020600701548251908152915194955088947f4e8bcb6b6008aa5ec72e5bc9e94a9b6e33366c23fd6447d9427295b2c1a2396b945091829003019150a29150505b919050565b600080836040516020018082805190602001908083835b602083106118ca5780518252601f1990920191602091820191016118ab565b51815160209384036101000a60001901801990921691161790526040805192909401828103601f190183528452815191810191909120600090815260029091529190912060010154959095149695505050505050565b600080836040516020018082805190602001908083835b602083106119565780518252601f199092019160209182019101611937565b51815160209384036101000a60001901801990921691161790526040805192909401828103601f190183528452815191810191909120600081815291829052929020600681018890556007015460018054939650889550935091821090506119ba57fe5b60009182526020909120600560069092020101555060019392505050565b6001546000906119ea5750600061188f565b600082815260208190526040902060070154600180548492908110611a0b57fe5b906000526020600020906006020160000154149050919050565b600081815260208190526040902060060154606090819060051415611b47576000838152602081905260409020600360068201819055600790910154600180549091908110611a7057fe5b90600052602060002090600602016005018190555060016000808581526020019081526020016000206007015481548110611aa757fe5b600091825260209182902060026006909202018101805460408051601f600019610100600186161502019093169490940491820185900485028401850190528083529192909190830182828015611b3f5780601f10611b1457610100808354040283529160200191611b3f565b820191906000526020600020905b815481529060010190602001808311611b2257829003601f168201915b505050505090505b60008381526020819052604090206006015460031415611c64576000838152602081905260409020600560068201819055600790910154600180549091908110611b8d57fe5b90600052602060002090600602016005018190555060016000808581526020019081526020016000206007015481548110611bc457fe5b600091825260209182902060026006909202018101805460408051601f600019610100600186161502019093169490940491820185900485028401850190528083529192909190830182828015611c5c5780601f10611c3157610100808354040283529160200191611c5c565b820191906000526020600020905b815481529060010190602001808311611c3f57829003601f168201915b505050505090505b92915050565b600080836040516020018082805190602001908083835b60208310611ca05780518252601f199092019160209182019101611c81565b6001836020036101000a038019825116818451168082178552505050505050905001915050604051602081830303815290604052805190602001209050611ce6816119d8565b1515600114611d31576040805162461bcd60e51b815260206004820152601260248201527175736572206e6f7420696e2073797374656d60701b604482015290519081900360640190fd5b6000818152602081815260409091208451611d5492600390920191860190613b9e565b50600081815260208190526040902060070154600180548592908110611d7657fe5b90600052602060002090600602016002019080519060200190611d9a929190613b9e565b50600081815260208181526040808320600781015460028201546004830154600684015485518481529586018390526080860182905260c0860181905260e08688018181528d51918801919091528c518a99600080516020613c708339815191529996988f9896978f97600501959491939192606085019260a0860192610100870192908d0191908190849084905b83811015611e41578181015183820152602001611e29565b50505050905090810190601f168015611e6e5780820380516001836020036101000a031916815260200191505b5084810383528851815288516020918201918a019080838360005b83811015611ea1578181015183820152602001611e89565b50505050905090810190601f168015611ece5780820380516001836020036101000a031916815260200191505b508481038252865460026000196101006001841615020190911604808252602090910190879080156115125780601f106114e757610100808354040283529160200191611512565b600060608060006060600060018781548110611f2e57fe5b90600052602060002090600602016000015460018881548110611f4d57fe5b906000526020600020906006020160010160018981548110611f6b57fe5b906000526020600020906006020160020160018a81548110611f8957fe5b90600052602060002090600602016003015460018b81548110611fa857fe5b906000526020600020906006020160040160018c81548110611fc657fe5b600091825260209182902060056006909202010154855460408051601f6002600019610100600187161502019094169390930492830185900485028101850190915281815291928791908301828280156120615780601f1061203657610100808354040283529160200191612061565b820191906000526020600020905b81548152906001019060200180831161204457829003601f168201915b5050875460408051602060026001851615610100026000190190941693909304601f8101849004840282018401909252818152959a50899450925084019050828280156120ef5780601f106120c4576101008083540402835291602001916120ef565b820191906000526020600020905b8154815290600101906020018083116120d257829003601f168201915b5050855460408051602060026001851615610100026000190190941693909304601f81018490048402820184019092528181529599508794509250840190508282801561217d5780601f106121525761010080835404028352916020019161217d565b820191906000526020600020905b81548152906001019060200180831161216057829003601f168201915b5050505050915095509550955095509550955091939550919395565b60009081526020819052604090206006015490565b6000602081815291815260409081902080548251601f6002600019610100600186161502019093169290920491820185900485028101850190935280835290928391908301828280156122425780601f1061221757610100808354040283529160200191612242565b820191906000526020600020905b81548152906001019060200180831161222557829003601f168201915b505050505090806001015490806002015490806003018054600181600116156101000203166002900480601f0160208091040260200160405190810160405280929190818152602001828054600181600116156101000203166002900480156122ec5780601f106122c1576101008083540402835291602001916122ec565b820191906000526020600020905b8154815290600101906020018083116122cf57829003601f168201915b50505050600483015460058401805460408051602060026001851615610100026000190190941693909304601f810184900484028201840190925281815295969395939450908301828280156123835780601f1061235857610100808354040283529160200191612383565b820191906000526020600020905b81548152906001019060200180831161236657829003601f168201915b5050505050908060060154908060070154905088565b6001545b90565b600080856040516020018082805190602001908083835b602083106123d65780518252601f1990920191602091820191016123b7565b6001836020036101000a03801982511681845116808217855250505050505090500191505060405160208183030381529060405280519060200120905060006040516020018080606160f81b815250600101905060405160208183030381529060405280519060200120905061244b826119d8565b15156001141561249b576040805162461bcd60e51b81526020600482015260166024820152757573657220616c6c7265647920696e2073797374656d60501b604482015290519081900360640190fd5b60008281526020818152604090912088516124b8928a0190613b9e565b50600082815260208181526040909120600181018490556002810183905587516124ea92600390920191890190613b9e565b5060008281526020818152604090912060048101869055865161251592600590920191880190613b9e565b50600082815260208190526040902060016006909101556125398288888789613a61565b506001546000838152602081905260409020600019909101600790910155612560876135f0565b50817f71f9179b88bb9779e428228697934b9da07a26a4cdedcacda6a6a774efeae66d6000808581526020019081526020016000206007015489600080878152602001908152602001600020600201548a898b6000808b8152602001908152602001600020600601546040518088815260200180602001878152602001806020018681526020018060200185815260200184810384528a818151815260200191508051906020019080838360005b8381101561262657818101518382015260200161260e565b50505050905090810190601f1680156126535780820380516001836020036101000a031916815260200191505b5084810383528851815288516020918201918a019080838360005b8381101561268657818101518382015260200161266e565b50505050905090810190601f1680156126b35780820380516001836020036101000a031916815260200191505b50848103825286518152865160209182019188019080838360005b838110156126e65781810151838201526020016126ce565b50505050905090810190601f1680156127135780820380516001836020036101000a031916815260200191505b509a505050505050505050505060405180910390a25060019695505050505050565b600080836040516020018082805190602001908083835b6020831061276b5780518252601f19909201916020918201910161274c565b6001836020036101000a0380198251168184511680821785525050505050509050019150506040516020818303038152906040528051906020012090506127b1816119d8565b15156001146127fc576040805162461bcd60e51b815260206004820152601260248201527175736572206e6f7420696e2073797374656d60701b604482015290519081900360640190fd5b600081815260208181526040909120845161281f92600590920191860190613b9e565b5060008181526020819052604090206007015460018054859290811061284157fe5b90600052602060002090600602016004019080519060200190612865929190613b9e565b50600081815260208181526040808320600781015460028201546004830154600684015485518481529586018390526080860182905260c0860181905260e08688018181528d51918801919091528c518a99600080516020613c708339815191529996988f9896976003909701968f959491939192606085019260a0860192610100870192908d0191908190849084905b8381101561290e5781810151838201526020016128f6565b50505050905090810190601f16801561293b5780820380516001836020036101000a031916815260200191505b508481038352885460026000196101006001841615020190911604808252602090910190899080156129ae5780601f10612983576101008083540402835291602001916129ae565b820191906000526020600020905b81548152906001019060200180831161299157829003601f168201915b5050848103825286518152865160209182019188019080838360005b838110156129e25781810151838201526020016129ca565b50505050905090810190601f168015612a0f5780820380516001836020036101000a031916815260200191505b509a505050505050505050505060405180910390a25060019392505050565b600080866040516020018082805190602001908083835b60208310612a645780518252601f199092019160209182019101612a45565b6001836020036101000a038019825116818451168082178552505050505050905001915050604051602081830303815290604052805190602001209050612aaa816119d8565b1515600114612af5576040805162461bcd60e51b815260206004820152601260248201527175736572206e6f7420696e2073797374656d60701b604482015290519081900360640190fd5b6000818152602081905260408120600701545b875182101561324c57878281518110612b1d57fe5b602002602001015160011415612d7b576000838152602081815260409091208851612b50926003909201918a0190613b9e565b508660018281548110612b5f57fe5b90600052602060002090600602016002019080519060200190612b83929190613b9e565b5082600080516020613c70833981519152600080868152602001908152602001600020600701548b600080888152602001908152602001600020600201548b6000808a8152602001908152602001600020600401546000808b81526020019081526020016000206005016000808c8152602001908152602001600020600601546040518088815260200180602001878152602001806020018681526020018060200185815260200184810384528a818151815260200191508051906020019080838360005b83811015612c60578181015183820152602001612c48565b50505050905090810190601f168015612c8d5780820380516001836020036101000a031916815260200191505b5084810383528851815288516020918201918a019080838360005b83811015612cc0578181015183820152602001612ca8565b50505050905090810190601f168015612ced5780820380516001836020036101000a031916815260200191505b50848103825286546002600019610100600184161502019091160480825260209091019087908015612d605780601f10612d3557610100808354040283529160200191612d60565b820191906000526020600020905b815481529060010190602001808311612d4357829003601f168201915b50509a505050505050505050505060405180910390a2613241565b878281518110612d8757fe5b602002602001015160021415612fe5576000838152602081815260409091208751612dba92600590920191890190613b9e565b508560018281548110612dc957fe5b90600052602060002090600602016004019080519060200190612ded929190613b9e565b5082600080516020613c70833981519152600080868152602001908152602001600020600701548b600080888152602001908152602001600020600201546000808981526020019081526020016000206003016000808a8152602001908152602001600020600401548c6000808c8152602001908152602001600020600601546040518088815260200180602001878152602001806020018681526020018060200185815260200184810384528a818151815260200191508051906020019080838360005b83811015612eca578181015183820152602001612eb2565b50505050905090810190601f168015612ef75780820380516001836020036101000a031916815260200191505b50848103835288546002600019610100600184161502019091160480825260209091019089908015612f6a5780601f10612f3f57610100808354040283529160200191612f6a565b820191906000526020600020905b815481529060010190602001808311612f4d57829003601f168201915b5050848103825286518152865160209182019188019080838360005b83811015612f9e578181015183820152602001612f86565b50505050905090810190601f168015612fcb5780820380516001836020036101000a031916815260200191505b509a505050505050505050505060405180910390a2613241565b878281518110612ff157fe5b602002602001015160031415613241576000838152602081905260409020600401859055600180548691908390811061302657fe5b90600052602060002090600602016003018190555082600080516020613c70833981519152600080868152602001908152602001600020600701548b600080888152602001908152602001600020600201546000808981526020019081526020016000206003018a6000808b81526020019081526020016000206005016000808c8152602001908152602001600020600601546040518088815260200180602001878152602001806020018681526020018060200185815260200184810384528a818151815260200191508051906020019080838360005b838110156131165781810151838201526020016130fe565b50505050905090810190601f1680156131435780820380516001836020036101000a031916815260200191505b508481038352885460026000196101006001841615020190911604808252602090910190899080156131b65780601f1061318b576101008083540402835291602001916131b6565b820191906000526020600020905b81548152906001019060200180831161319957829003601f168201915b505084810382528654600260001961010060018416150201909116048082526020909101908790801561322a5780601f106131ff5761010080835404028352916020019161322a565b820191906000526020600020905b81548152906001019060200180831161320d57829003601f168201915b50509a505050505050505050505060405180910390a25b600190910190612b08565b50600198975050505050505050565b600080836040516020018082805190602001908083835b602083106132915780518252601f199092019160209182019101613272565b6001836020036101000a0380198251168184511680821785525050505050509050019150506040516020818303038152906040528051906020012090506000836040516020018082805190602001908083835b602083106133035780518252601f1990920191602091820191016132e4565b51815160209384036101000a60001901801990921691161790526040805192909401828103601f1901835284528151918101919091206000888152808352848120600280820184905584529481208181556001908101829055925260056006850181905560079094015482549197509395509093508210905061338257fe5b60009182526020808320600560069093020182019390935584825281835260408083206007810154600482015483518281529384018890526080840181905260c0840185905260e08488018181528d51918601919091528c518a98600080516020613c708339815191529894978f978c9760038101979083019592949193606085019260a08601926101008701928d0191908190849084905b8381101561343357818101518382015260200161341b565b50505050905090810190601f1680156134605780820380516001836020036101000a031916815260200191505b508481038352885460026000196101006001841615020190911604808252602090910190899080156134d35780601f106134a8576101008083540402835291602001916134d3565b820191906000526020600020905b8154815290600101906020018083116134b657829003601f168201915b50508481038252865460026000196101006001841615020190911604808252602090910190879080156135475780601f1061351c57610100808354040283529160200191613547565b820191906000526020600020905b81548152906001019060200180831161352a57829003601f168201915b50509a505050505050505050505060405180910390a2506001949350505050565b600080826040516020018082805190602001908083835b6020831061359e5780518252601f19909201916020918201910161357f565b51815160209384036101000a60001901801990921691161790526040805192909401828103601f1901835284528151918101919091206000908152600290915291909120600101549695505050505050565b600080826040516020018082805190602001908083835b602083106136265780518252601f199092019160209182019101613607565b6001836020036101000a038019825116818451168082178552505050505050905001915050604051602081830303815290604052805190602001209050600061366d613b67565b60008381526002602052604090205490915082146136975760008281526002602052604090208290555b60009182526002602052604090912060010181905592915050565b60009081526020819052604090206002015490565b600060608060006060600080876040516020018082805190602001908083835b602083106137065780518252601f1990920191602091820191016136e7565b6001836020036101000a03801982511681845116808217855250505050505090500191505060405160208183030381529060405280519060200120905061374c816119d8565b1515600114613797576040805162461bcd60e51b815260206004820152601260248201527175736572206e6f7420696e2073797374656d60701b604482015290519081900360640190fd5b60008181526020818152604091829020600481015460068201548254855160026001831615610100026000190190921691909104601f8101869004860282018601909652858152869593946003860194600587019392918791908301828280156138425780601f1061381757610100808354040283529160200191613842565b820191906000526020600020905b81548152906001019060200180831161382557829003601f168201915b5050875460408051602060026001851615610100026000190190941693909304601f8101849004840282018401909252818152959a50899450925084019050828280156138d05780601f106138a5576101008083540402835291602001916138d0565b820191906000526020600020905b8154815290600101906020018083116138b357829003601f168201915b5050855460408051602060026001851615610100026000190190941693909304601f81018490048402820184019092528181529599508794509250840190508282801561395e5780601f106139335761010080835404028352916020019161395e565b820191906000526020600020905b81548152906001019060200180831161394157829003601f168201915b505050505091509650965096509650965096505091939550919395565b600080826040516020018082805190602001908083835b602083106139b15780518252601f199092019160209182019101613992565b6001836020036101000a03801982511681845116808217855250505050505090500191505060405160208183030381529060405280519060200120905060018054905060001415613a0657600091505061188f565b600081815260208190526040902060070154600180548392908110613a2757fe5b90600052602060002090600602016000015414915050919050565b6002602052600090815260409020805460019091015482565b50600090565b6000613a6b613c1c565b8681526020808201878152604083018790526060830186905260808301859052600160a084018190528054808201808355600092909252845160069091027fb10e2d527612073b26eecdfd717e6a320cf44b4afac2b0732d9fcbe2b7fa0cf6810191825592518051929486949293613b09937fb10e2d527612073b26eecdfd717e6a320cf44b4afac2b0732d9fcbe2b7fa0cf7019290910190613b9e565b5060408201518051613b25916002840191602090910190613b9e565b506060820151600382015560808201518051613b4b916004840191602090910190613b9e565b5060a08201518160050155505050600191505095945050505050565b6040805142602080830191909152448284015243606080840191909152835180840390910181526080909201909252805191012090565b828054600181600116156101000203166002900490600052602060002090601f016020900481019282601f10613bdf57805160ff1916838001178555613c0c565b82800160010185558215613c0c579182015b82811115613c0c578251825591602001919060010190613bf1565b50613c18929150613c55565b5090565b6040518060c001604052806000801916815260200160608152602001606081526020016000815260200160608152602001600081525090565b61239d91905b80821115613c185760008155600101613c5b56fe19ee6c855c485880cd6ca4f28b7b5a1154b1b613c41a0c282d1c8151288cfd37a265627a7a723158201366f02162c747e4f700a891faebeb3bbb6da957ae22ad674044134c9924d94164736f6c63430005100032",
  "source": "pragma solidity >=0.4.21 <0.6.0;\n\ncontract AdminContract {\n    \n    struct Admin{\n        string email;\n        bytes32 emailCode;\n        bytes32 passwordCode;\n        string name;\n        uint contactNumber;\n        string userAddress;\n        uint userAccess;\n        uint index;\n    }\n\n    struct DisplayAdmin{\n        bytes32 emailCode;\n        string email;\n        string name;\n        uint contactNumber;\n        string userAddress;\n        uint userAccess;\n    }\n    \n    event LogNewAdmin(\n        bytes32 indexed emailCode,\n        uint index,string email,\n        bytes32 passwordCode,\n        string name,\n        uint contactNumber,\n        string userAddress,\n        uint userAccess\n        );\n    event LogUpdateAdmin(\n        bytes32 indexed emailCode,\n        uint index,string email,\n        bytes32 passwordCode,\n        string name,\n        uint contactNumber,\n        string userAddress,\n        uint userAccess\n        );\n    event LogDeleteAdmin(\n        bytes32 indexed emailcode,\n        uint index\n        );\n        \n    struct RegistationToken{\n        bytes32 emailCode;\n        bytes32 token;\n    }\n        \n    mapping(bytes32 => Admin) public adminArray;\n    DisplayAdmin[] public adminIndex;\n    mapping(bytes32 => RegistationToken) public adminRegistationToken;\n    \n    function isAdmin(bytes32 _emailCode)public view returns(bool isIndeed) {\n        if(adminIndex.length == 0) return false;\n        return (adminIndex[adminArray[_emailCode].index].emailCode == _emailCode);\n    }\n    function isAdminx(string memory _email)public view returns(bool isIndeed) {\n        bytes32 _emailCode = keccak256(abi.encodePacked((_email)));\n        if(adminIndex.length == 0) return false;\n        return (adminIndex[adminArray[_emailCode].index].emailCode == _emailCode);\n    }\n    function createAdminToken(string memory _email)public returns(bytes32){\n        bytes32 _emailCode = keccak256(abi.encodePacked((_email)));\n        bytes32 token = randomtoken();\n        if(adminRegistationToken[_emailCode].emailCode != _emailCode){\n            adminRegistationToken[_emailCode].emailCode = _emailCode;\n        }\n        adminRegistationToken[_emailCode].token = token;\n        return token;\n    }\n    function getAdminToken(string memory _email)public view returns(bytes32){\n        bytes32 _emailCode = keccak256(abi.encodePacked((_email)));\n        return  adminRegistationToken[_emailCode].token;\n    }\n    function checkAdminToken(string memory _email,bytes32 _token)public view returns(bool){\n        bytes32 _emailCode = keccak256(abi.encodePacked((_email)));\n        return  (adminRegistationToken[_emailCode].token == _token);\n    }\n    function randomtoken() private view returns (bytes32) {\n       return keccak256(abi.encodePacked(block.timestamp,block.difficulty,block.number));\n    }\n    function setPassword(string memory _email,string memory _password)public returns (bool) {\n        bytes32 _emailCode = keccak256(abi.encodePacked((_email)));\n        bytes32 _passwordCode = keccak256(abi.encodePacked((_password)));\n        adminArray[_emailCode].passwordCode = _passwordCode;\n        delete adminRegistationToken[_emailCode];\n        adminArray[_emailCode].userAccess = 5;\n        adminIndex[adminArray[_emailCode].index].userAccess = 5;\n        emit LogUpdateAdmin(\n            _emailCode,\n            adminArray[_emailCode].index,\n            _email,\n            _passwordCode,\n            adminArray[_emailCode].name,\n            adminArray[_emailCode].contactNumber,\n            adminArray[_emailCode].userAddress,\n            5\n            );\n        return true;\n\n    }\n    function setDisplayAdmin(bytes32 _emailCode,string memory _email,string memory _name,uint _telephone,string memory _address)\n     private returns(bool){\n\n        DisplayAdmin memory displayAdmin;\n        displayAdmin.emailCode = _emailCode;\n        displayAdmin.email = _email;\n        displayAdmin.name = _name;\n        displayAdmin.contactNumber = _telephone;\n        displayAdmin.userAddress = _address;\n        displayAdmin.userAccess = 1;\n        adminIndex.push(displayAdmin);\n        return true;\n\n    }\n    function insertAdmin(string memory _email,string memory _name,string memory _address,uint _telephone) public returns(bool){\n        bytes32 _emailCode = keccak256(abi.encodePacked((_email)));\n        bytes32 _passwordCode = keccak256(abi.encodePacked((\"a\")));\n        require(isAdmin(_emailCode) != true,'user allredy in system');\n\n        adminArray[_emailCode].email = _email;\n        adminArray[_emailCode].emailCode = _emailCode;\n        adminArray[_emailCode].passwordCode = _passwordCode;\n        adminArray[_emailCode].name = _name;\n        adminArray[_emailCode].contactNumber = _telephone;\n        adminArray[_emailCode].userAddress = _address;\n        adminArray[_emailCode].userAccess = 1;\n        setDisplayAdmin(_emailCode,_email,_name,_telephone,_address);\n        adminArray[_emailCode].index = adminIndex.length-1;\n        createAdminToken(_email);\n\n        emit LogNewAdmin (\n            _emailCode,\n            adminArray[_emailCode].index,\n            _email,\n            adminArray[_emailCode].passwordCode,\n            _name,\n            _telephone,\n            _address,\n            adminArray[_emailCode].userAccess\n            );\n        return true;\n    }\n    function deleteAdmin (bytes32 email) public returns(string memory){\n        uint i;\n        string memory name;\n        delete adminRegistationToken[email];\n        adminArray[email].userAccess = 4;\n        adminIndex[adminArray[email].index].userAccess = 4;\n        name = adminIndex[adminArray[email].index].name;\n        emit LogDeleteAdmin(\n            email,\n            adminArray[email].index\n        );\n        return name;\n    }\n    function blockAdmin(bytes32 email) public returns(string memory)\n    {\n        string memory name;\n        if(adminArray[email].userAccess == 5){\n        adminArray[email].userAccess = 3;\n        adminIndex[adminArray[email].index].userAccess = 3;\n        name = adminIndex[adminArray[email].index].name;\n        }\n        if(adminArray[email].userAccess == 3){\n        adminArray[email].userAccess = 5;\n        adminIndex[adminArray[email].index].userAccess = 5;\n        name = adminIndex[adminArray[email].index].name;\n        }\n        return name;\n    }\n    function editUserAccess(string memory _email,uint usreAccess)public returns(bool){\n        bytes32 email = keccak256(abi.encodePacked((_email)));\n        adminArray[email].userAccess = usreAccess;\n        adminIndex[adminArray[email].index].userAccess = usreAccess;\n        return true;\n\n    }\n    function getAdmin(string memory _email) public view returns(bytes32,string memory email,string memory name,\n    uint contactNumber,string memory userAddress, uint userAccess){\n        bytes32 _emailCode = keccak256(abi.encodePacked((_email)));\n        require(isAdmin(_emailCode) == true,'user not in system');\n        return(\n            _emailCode,\n            adminArray[_emailCode].email,\n            adminArray[_emailCode].name,\n            adminArray[_emailCode].contactNumber,\n            adminArray[_emailCode].userAddress,\n            adminArray[_emailCode].userAccess\n            );\n    }\n    function getAdmini(uint i) public view returns(\n        bytes32,\n        string memory,\n        string memory,\n        uint,\n        string memory,\n        uint\n        ){\n            return (\n                adminIndex[i].emailCode,\n                adminIndex[i].email,\n                adminIndex[i].name,\n                adminIndex[i].contactNumber,\n                adminIndex[i].userAddress,\n                adminIndex[i].userAccess\n                );\n    }\n    function getAdminCount() public view returns(uint)\n    {\n        return adminIndex.length;\n    }\n    \n    // function updateUserEmail(address userAddress, bytes32 userEmail) public returns(bool success)\n    // {\n    //     userStructs[userAddress].userEmail = userEmail;\n    //     emit LogUpdateUser(userAddress,  userStructs[userAddress].index, userEmail, userStructs[userAddress].userAge);\n    //     return true;\n    // }\n    function updateAdminName (string memory _email,string memory _name) public returns(bool success){\n        bytes32 _emailCode = keccak256(abi.encodePacked((_email)));\n        require(isAdmin(_emailCode) == true,'user not in system');\n        adminArray[_emailCode].name = _name;\n        adminIndex[adminArray[_emailCode].index].name = _name;\n        emit LogUpdateAdmin(\n            _emailCode,\n            adminArray[_emailCode].index,\n            _email,\n            adminArray[_emailCode].passwordCode,\n            _name,\n            adminArray[_emailCode].contactNumber,\n            adminArray[_emailCode].userAddress,\n            adminArray[_emailCode].userAccess\n            );\n        return true;\n    }\n    function updateAdminAddress (string memory _email,string memory _userAddress) public returns(bool success){\n        bytes32 _emailCode = keccak256(abi.encodePacked((_email)));\n        require(isAdmin(_emailCode) == true,'user not in system');\n        adminArray[_emailCode].userAddress = _userAddress;\n        adminIndex[adminArray[_emailCode].index].userAddress = _userAddress;\n        emit LogUpdateAdmin(\n            _emailCode,\n            adminArray[_emailCode].index,\n            _email,\n            adminArray[_emailCode].passwordCode,\n            adminArray[_emailCode].name,\n            adminArray[_emailCode].contactNumber,\n            _userAddress,\n            adminArray[_emailCode].userAccess\n            );\n        return true;\n    }\n    function updateAdminContactNumber (string memory _email,uint _contactNumber) public returns(bool success){\n        bytes32 _emailCode = keccak256(abi.encodePacked((_email)));\n        require(isAdmin(_emailCode) == true,'user not in system');\n        adminArray[_emailCode].contactNumber = _contactNumber;\n        adminIndex[adminArray[_emailCode].index].contactNumber = _contactNumber;\n        emit LogUpdateAdmin(\n            _emailCode,\n            adminArray[_emailCode].index,\n            _email,\n            adminArray[_emailCode].passwordCode,\n            adminArray[_emailCode].name,\n            _contactNumber,\n            adminArray[_emailCode].userAddress,\n            adminArray[_emailCode].userAccess\n            );\n        return true;\n    }\n    function updateAdmin(\n        string memory _email,\n        uint[] memory index,\n        string memory _name,\n        string memory _userAddress,\n        uint _contactNumber\n        ) public returns(bool success){\n        bytes32 _emailCode = keccak256(abi.encodePacked((_email)));\n        require(isAdmin(_emailCode) == true,'user not in system');\n        uint i;\n        uint num = adminArray[_emailCode].index;\n\n        for (i = 0;i<index.length;i++){\n            if(index[i]==1){\n                adminArray[_emailCode].name = _name;\n                adminIndex[num].name = _name;\n                emit LogUpdateAdmin(\n                    _emailCode,\n                    adminArray[_emailCode].index,\n                    _email,adminArray[_emailCode].passwordCode,\n                    _name,\n                    adminArray[_emailCode].contactNumber,\n                    adminArray[_emailCode].userAddress,\n                    adminArray[_emailCode].userAccess\n                    );\n\n            }\n            else if(index[i]==2){\n                adminArray[_emailCode].userAddress = _userAddress;\n\n                adminIndex[num].userAddress = _userAddress;\n\n                emit LogUpdateAdmin(\n                    _emailCode,\n                    adminArray[_emailCode].index,\n                    _email,\n                    adminArray[_emailCode].passwordCode,\n                    adminArray[_emailCode].name,\n                    adminArray[_emailCode].contactNumber,\n                    _userAddress,\n                    adminArray[_emailCode].userAccess\n                    );\n\n            }\n            else if(index[i]==3){\n                adminArray[_emailCode].contactNumber = _contactNumber;\n                adminIndex[num].contactNumber = _contactNumber;\n                emit LogUpdateAdmin(\n                    _emailCode,\n                    adminArray[_emailCode].index,\n                    _email,\n                    adminArray[_emailCode].passwordCode,\n                    adminArray[_emailCode].name,\n                    _contactNumber,\n                    adminArray[_emailCode].userAddress,\n                    adminArray[_emailCode].userAccess\n                    );\n\n            }\n        }\n        return true;\n    }\n    ///////\n    function updateAdminiEmail (string memory _email) public returns(bool success)\n    {\n       // return true;\n    }\n    function checkAdminUserAccess(bytes32 email)public view returns(uint userAccess){\n        \n        return adminArray[email].userAccess;\n    }\n    function checkAdminPasswordCode(bytes32 email) public view returns(bytes32 passwordCode ){\n        return adminArray[email].passwordCode;\n    }\n}",
  "sourcePath": "/home/ubuntu/tea-supplychain-manege-system/test2/contracts/Admin.sol",
  "compiler": {
    "name": "solc",
    "version": "0.5.16+commit.9c3226ce.Emscripten.clang"
  },
  "schemaVersion": "3.0.23",
  "updatedAt": "2020-02-14T13:53:54.466Z",
  "networkType": "ethereum",
  "devdoc": {
    "methods": {}
  },
  "userdoc": {
    "methods": {
      "updateAdminiEmail(string)": {
        "notice": "////"
      }
    }
  }
}