{
  "contractName": "AdminContract",
  "abi": [
    {
      "constant": true,
      "inputs": [
        {
          "name": "",
          "type": "uint256"
        }
      ],
      "name": "adminIndex",
      "outputs": [
        {
          "name": "emailCode",
          "type": "bytes32"
        },
        {
          "name": "email",
          "type": "string"
        },
        {
          "name": "name",
          "type": "string"
        },
        {
          "name": "contactNumber",
          "type": "uint256"
        },
        {
          "name": "userAddress",
          "type": "string"
        },
        {
          "name": "userAccess",
          "type": "uint256"
        }
      ],
      "payable": false,
      "stateMutability": "view",
      "type": "function"
    },
    {
      "constant": true,
      "inputs": [
        {
          "name": "",
          "type": "bytes32"
        }
      ],
      "name": "adminArray",
      "outputs": [
        {
          "name": "email",
          "type": "string"
        },
        {
          "name": "emailCode",
          "type": "bytes32"
        },
        {
          "name": "passwordCode",
          "type": "bytes32"
        },
        {
          "name": "name",
          "type": "string"
        },
        {
          "name": "contactNumber",
          "type": "uint256"
        },
        {
          "name": "userAddress",
          "type": "string"
        },
        {
          "name": "userAccess",
          "type": "uint256"
        },
        {
          "name": "index",
          "type": "uint256"
        }
      ],
      "payable": false,
      "stateMutability": "view",
      "type": "function"
    },
    {
      "constant": true,
      "inputs": [
        {
          "name": "",
          "type": "bytes32"
        }
      ],
      "name": "adminRegistationToken",
      "outputs": [
        {
          "name": "emailCode",
          "type": "bytes32"
        },
        {
          "name": "token",
          "type": "bytes32"
        }
      ],
      "payable": false,
      "stateMutability": "view",
      "type": "function"
    },
    {
      "anonymous": false,
      "inputs": [
        {
          "indexed": true,
          "name": "emailCode",
          "type": "bytes32"
        },
        {
          "indexed": false,
          "name": "index",
          "type": "uint256"
        },
        {
          "indexed": false,
          "name": "email",
          "type": "string"
        },
        {
          "indexed": false,
          "name": "passwordCode",
          "type": "bytes32"
        },
        {
          "indexed": false,
          "name": "name",
          "type": "string"
        },
        {
          "indexed": false,
          "name": "contactNumber",
          "type": "uint256"
        },
        {
          "indexed": false,
          "name": "userAddress",
          "type": "string"
        },
        {
          "indexed": false,
          "name": "userAccess",
          "type": "uint256"
        }
      ],
      "name": "LogNewAdmin",
      "type": "event"
    },
    {
      "anonymous": false,
      "inputs": [
        {
          "indexed": true,
          "name": "emailCode",
          "type": "bytes32"
        },
        {
          "indexed": false,
          "name": "index",
          "type": "uint256"
        },
        {
          "indexed": false,
          "name": "email",
          "type": "string"
        },
        {
          "indexed": false,
          "name": "passwordCode",
          "type": "bytes32"
        },
        {
          "indexed": false,
          "name": "name",
          "type": "string"
        },
        {
          "indexed": false,
          "name": "contactNumber",
          "type": "uint256"
        },
        {
          "indexed": false,
          "name": "userAddress",
          "type": "string"
        },
        {
          "indexed": false,
          "name": "userAccess",
          "type": "uint256"
        }
      ],
      "name": "LogUpdateAdmin",
      "type": "event"
    },
    {
      "anonymous": false,
      "inputs": [
        {
          "indexed": true,
          "name": "emailcode",
          "type": "bytes32"
        },
        {
          "indexed": false,
          "name": "index",
          "type": "uint256"
        }
      ],
      "name": "LogDeleteAdmin",
      "type": "event"
    },
    {
      "constant": true,
      "inputs": [
        {
          "name": "_emailCode",
          "type": "bytes32"
        }
      ],
      "name": "isAdmin",
      "outputs": [
        {
          "name": "isIndeed",
          "type": "bool"
        }
      ],
      "payable": false,
      "stateMutability": "view",
      "type": "function"
    },
    {
      "constant": true,
      "inputs": [
        {
          "name": "_email",
          "type": "string"
        }
      ],
      "name": "isAdminx",
      "outputs": [
        {
          "name": "isIndeed",
          "type": "bool"
        }
      ],
      "payable": false,
      "stateMutability": "view",
      "type": "function"
    },
    {
      "constant": false,
      "inputs": [
        {
          "name": "_email",
          "type": "string"
        }
      ],
      "name": "createAdminToken",
      "outputs": [
        {
          "name": "",
          "type": "bytes32"
        }
      ],
      "payable": false,
      "stateMutability": "nonpayable",
      "type": "function"
    },
    {
      "constant": true,
      "inputs": [
        {
          "name": "_email",
          "type": "string"
        }
      ],
      "name": "getAdminToken",
      "outputs": [
        {
          "name": "",
          "type": "bytes32"
        }
      ],
      "payable": false,
      "stateMutability": "view",
      "type": "function"
    },
    {
      "constant": true,
      "inputs": [
        {
          "name": "_email",
          "type": "string"
        },
        {
          "name": "_token",
          "type": "bytes32"
        }
      ],
      "name": "checkAdminToken",
      "outputs": [
        {
          "name": "",
          "type": "bool"
        }
      ],
      "payable": false,
      "stateMutability": "view",
      "type": "function"
    },
    {
      "constant": false,
      "inputs": [
        {
          "name": "_email",
          "type": "string"
        },
        {
          "name": "_password",
          "type": "string"
        }
      ],
      "name": "setPassword",
      "outputs": [
        {
          "name": "",
          "type": "bool"
        }
      ],
      "payable": false,
      "stateMutability": "nonpayable",
      "type": "function"
    },
    {
      "constant": false,
      "inputs": [
        {
          "name": "_email",
          "type": "string"
        },
        {
          "name": "_name",
          "type": "string"
        },
        {
          "name": "_address",
          "type": "string"
        },
        {
          "name": "_telephone",
          "type": "uint256"
        }
      ],
      "name": "insertAdmin",
      "outputs": [
        {
          "name": "",
          "type": "bool"
        }
      ],
      "payable": false,
      "stateMutability": "nonpayable",
      "type": "function"
    },
    {
      "constant": false,
      "inputs": [
        {
          "name": "email",
          "type": "bytes32"
        }
      ],
      "name": "deleteAdmin",
      "outputs": [
        {
          "name": "",
          "type": "string"
        }
      ],
      "payable": false,
      "stateMutability": "nonpayable",
      "type": "function"
    },
    {
      "constant": false,
      "inputs": [
        {
          "name": "email",
          "type": "bytes32"
        }
      ],
      "name": "blockAdmin",
      "outputs": [
        {
          "name": "",
          "type": "string"
        }
      ],
      "payable": false,
      "stateMutability": "nonpayable",
      "type": "function"
    },
    {
      "constant": false,
      "inputs": [
        {
          "name": "_email",
          "type": "string"
        },
        {
          "name": "usreAccess",
          "type": "uint256"
        }
      ],
      "name": "editUserAccess",
      "outputs": [
        {
          "name": "",
          "type": "bool"
        }
      ],
      "payable": false,
      "stateMutability": "nonpayable",
      "type": "function"
    },
    {
      "constant": true,
      "inputs": [
        {
          "name": "_email",
          "type": "string"
        }
      ],
      "name": "getAdmin",
      "outputs": [
        {
          "name": "",
          "type": "bytes32"
        },
        {
          "name": "email",
          "type": "string"
        },
        {
          "name": "name",
          "type": "string"
        },
        {
          "name": "contactNumber",
          "type": "uint256"
        },
        {
          "name": "userAddress",
          "type": "string"
        },
        {
          "name": "userAccess",
          "type": "uint256"
        }
      ],
      "payable": false,
      "stateMutability": "view",
      "type": "function"
    },
    {
      "constant": true,
      "inputs": [
        {
          "name": "i",
          "type": "uint256"
        }
      ],
      "name": "getAdmini",
      "outputs": [
        {
          "name": "",
          "type": "bytes32"
        },
        {
          "name": "",
          "type": "string"
        },
        {
          "name": "",
          "type": "string"
        },
        {
          "name": "",
          "type": "uint256"
        },
        {
          "name": "",
          "type": "string"
        },
        {
          "name": "",
          "type": "uint256"
        }
      ],
      "payable": false,
      "stateMutability": "view",
      "type": "function"
    },
    {
      "constant": true,
      "inputs": [],
      "name": "getAdminCount",
      "outputs": [
        {
          "name": "",
          "type": "uint256"
        }
      ],
      "payable": false,
      "stateMutability": "view",
      "type": "function"
    },
    {
      "constant": false,
      "inputs": [
        {
          "name": "_email",
          "type": "string"
        },
        {
          "name": "_name",
          "type": "string"
        }
      ],
      "name": "updateAdminName",
      "outputs": [
        {
          "name": "success",
          "type": "bool"
        }
      ],
      "payable": false,
      "stateMutability": "nonpayable",
      "type": "function"
    },
    {
      "constant": false,
      "inputs": [
        {
          "name": "_email",
          "type": "string"
        },
        {
          "name": "_userAddress",
          "type": "string"
        }
      ],
      "name": "updateAdminAddress",
      "outputs": [
        {
          "name": "success",
          "type": "bool"
        }
      ],
      "payable": false,
      "stateMutability": "nonpayable",
      "type": "function"
    },
    {
      "constant": false,
      "inputs": [
        {
          "name": "_email",
          "type": "string"
        },
        {
          "name": "_contactNumber",
          "type": "uint256"
        }
      ],
      "name": "updateAdminContactNumber",
      "outputs": [
        {
          "name": "success",
          "type": "bool"
        }
      ],
      "payable": false,
      "stateMutability": "nonpayable",
      "type": "function"
    },
    {
      "constant": false,
      "inputs": [
        {
          "name": "_email",
          "type": "string"
        },
        {
          "name": "index",
          "type": "uint256[]"
        },
        {
          "name": "_name",
          "type": "string"
        },
        {
          "name": "_userAddress",
          "type": "string"
        },
        {
          "name": "_contactNumber",
          "type": "uint256"
        }
      ],
      "name": "updateAdmin",
      "outputs": [
        {
          "name": "success",
          "type": "bool"
        }
      ],
      "payable": false,
      "stateMutability": "nonpayable",
      "type": "function"
    },
    {
      "constant": false,
      "inputs": [
        {
          "name": "_email",
          "type": "string"
        }
      ],
      "name": "updateAdminiEmail",
      "outputs": [
        {
          "name": "success",
          "type": "bool"
        }
      ],
      "payable": false,
      "stateMutability": "nonpayable",
      "type": "function"
    },
    {
      "constant": true,
      "inputs": [
        {
          "name": "email",
          "type": "bytes32"
        }
      ],
      "name": "checkAdminUserAccess",
      "outputs": [
        {
          "name": "userAccess",
          "type": "uint256"
        }
      ],
      "payable": false,
      "stateMutability": "view",
      "type": "function"
    },
    {
      "constant": true,
      "inputs": [
        {
          "name": "email",
          "type": "bytes32"
        }
      ],
      "name": "checkAdminPasswordCode",
      "outputs": [
        {
          "name": "passwordCode",
          "type": "bytes32"
        }
      ],
      "payable": false,
      "stateMutability": "view",
      "type": "function"
    }
  ],
  "bytecode": "0x608060405234801561001057600080fd5b50613ce6806100206000396000f3fe608060405234801561001057600080fd5b506004361061014d5760003560e01c80638b7bf3eb116100c3578063dfc167d91161007c578063dfc167d914610f73578063e4fa3a9314611017578063e6d218d914611034578063f06e51ca146110d8578063f488ccde1461117c578063f9e10ce9146111b25761014d565b80638b7bf3eb14610893578063accbdf471461089b578063b45ecca814610a4b578063c4c755ca14610b74578063ca38649614610da6578063d72e291914610ecf5761014d565b806372d144801161011557806372d144801461056057806374a1cba11461057d57806375580b551461059a578063806137f6146106c357806389a42120146106e05780638ab5626f1461070f5761014d565b806309a532521461015257806316f8f0a21461020c5780631f24f8a5146103825780635c50771c146104145780636609b7cc146104ba575b600080fd5b6101f86004803603604081101561016857600080fd5b810190602081018135600160201b81111561018257600080fd5b82018360208201111561019457600080fd5b803590602001918460018302840111600160201b831117156101b557600080fd5b91908080601f0160208091040260200160405190810160405280939291908181526020018383808284376000920191909152509295505091359250611256915050565b604080519115158252519081900360200190f35b6102296004803603602081101561022257600080fd5b5035611538565b60405180878152602001806020018060200186815260200180602001858152602001848103845289818151815260200191508051906020019080838360005b83811015610280578181015183820152602001610268565b50505050905090810190601f1680156102ad5780820380516001836020036101000a031916815260200191505b5084810383528851815288516020918201918a019080838360005b838110156102e05781810151838201526020016102c8565b50505050905090810190601f16801561030d5780820380516001836020036101000a031916815260200191505b50848103825286518152865160209182019188019080838360005b83811015610340578181015183820152602001610328565b50505050905090810190601f16801561036d5780820380516001836020036101000a031916815260200191505b50995050505050505050505060405180910390f35b61039f6004803603602081101561039857600080fd5b5035611730565b6040805160208082528351818301528351919283929083019185019080838360005b838110156103d95781810151838201526020016103c1565b50505050905090810190601f1680156104065780820380516001836020036101000a031916815260200191505b509250505060405180910390f35b6101f86004803603604081101561042a57600080fd5b810190602081018135600160201b81111561044457600080fd5b82018360208201111561045657600080fd5b803590602001918460018302840111600160201b8311171561047757600080fd5b91908080601f016020809104026020016040519081016040528093929190818152602001838380828437600092019190915250929550509135925061189a915050565b6101f8600480360360408110156104d057600080fd5b810190602081018135600160201b8111156104ea57600080fd5b8201836020820111156104fc57600080fd5b803590602001918460018302840111600160201b8311171561051d57600080fd5b91908080601f0160208091040260200160405190810160405280939291908181526020018383808284376000920191909152509295505091359250611926915050565b6101f86004803603602081101561057657600080fd5b50356119de565b61039f6004803603602081101561059357600080fd5b5035611a2b565b6101f8600480360360408110156105b057600080fd5b810190602081018135600160201b8111156105ca57600080fd5b8201836020820111156105dc57600080fd5b803590602001918460018302840111600160201b831117156105fd57600080fd5b91908080601f0160208091040260200160405190810160405280939291908181526020018383808284376000920191909152509295949360208101935035915050600160201b81111561064f57600080fd5b82018360208201111561066157600080fd5b803590602001918460018302840111600160201b8311171561068257600080fd5b91908080601f016020809104026020016040519081016040528093929190818152602001838380828437600092019190915250929550611c70945050505050565b610229600480360360208110156106d957600080fd5b5035611f22565b6106fd600480360360208110156106f657600080fd5b50356121a5565b60408051918252519081900360200190f35b61072c6004803603602081101561072557600080fd5b50356121ba565b6040518080602001898152602001888152602001806020018781526020018060200186815260200185815260200184810384528c818151815260200191508051906020019080838360005b8381101561078f578181015183820152602001610777565b50505050905090810190601f1680156107bc5780820380516001836020036101000a031916815260200191505b5084810383528951815289516020918201918b019080838360005b838110156107ef5781810151838201526020016107d7565b50505050905090810190601f16801561081c5780820380516001836020036101000a031916815260200191505b50848103825287518152875160209182019189019080838360005b8381101561084f578181015183820152602001610837565b50505050905090810190601f16801561087c5780820380516001836020036101000a031916815260200191505b509b50505050505050505050505060405180910390f35b6106fd6123a5565b6101f8600480360360808110156108b157600080fd5b810190602081018135600160201b8111156108cb57600080fd5b8201836020820111156108dd57600080fd5b803590602001918460018302840111600160201b831117156108fe57600080fd5b91908080601f0160208091040260200160405190810160405280939291908181526020018383808284376000920191909152509295949360208101935035915050600160201b81111561095057600080fd5b82018360208201111561096257600080fd5b803590602001918460018302840111600160201b8311171561098357600080fd5b91908080601f0160208091040260200160405190810160405280939291908181526020018383808284376000920191909152509295949360208101935035915050600160201b8111156109d557600080fd5b8201836020820111156109e757600080fd5b803590602001918460018302840111600160201b83111715610a0857600080fd5b91908080601f01602080910402602001604051908101604052809392919081815260200183838082843760009201919091525092955050913592506123ac915050565b6101f860048036036040811015610a6157600080fd5b810190602081018135600160201b811115610a7b57600080fd5b820183602082011115610a8d57600080fd5b803590602001918460018302840111600160201b83111715610aae57600080fd5b91908080601f0160208091040260200160405190810160405280939291908181526020018383808284376000920191909152509295949360208101935035915050600160201b811115610b0057600080fd5b820183602082011115610b1257600080fd5b803590602001918460018302840111600160201b83111715610b3357600080fd5b91908080601f01602080910402602001604051908101604052809392919081815260200183838082843760009201919091525092955061274e945050505050565b6101f8600480360360a0811015610b8a57600080fd5b810190602081018135600160201b811115610ba457600080fd5b820183602082011115610bb657600080fd5b803590602001918460018302840111600160201b83111715610bd757600080fd5b91908080601f0160208091040260200160405190810160405280939291908181526020018383808284376000920191909152509295949360208101935035915050600160201b811115610c2957600080fd5b820183602082011115610c3b57600080fd5b803590602001918460208302840111600160201b83111715610c5c57600080fd5b9190808060200260200160405190810160405280939291908181526020018383602002808284376000920191909152509295949360208101935035915050600160201b811115610cab57600080fd5b820183602082011115610cbd57600080fd5b803590602001918460018302840111600160201b83111715610cde57600080fd5b91908080601f0160208091040260200160405190810160405280939291908181526020018383808284376000920191909152509295949360208101935035915050600160201b811115610d3057600080fd5b820183602082011115610d4257600080fd5b803590602001918460018302840111600160201b83111715610d6357600080fd5b91908080601f0160208091040260200160405190810160405280939291908181526020018383808284376000920191909152509295505091359250612a4d915050565b6101f860048036036040811015610dbc57600080fd5b810190602081018135600160201b811115610dd657600080fd5b820183602082011115610de857600080fd5b803590602001918460018302840111600160201b83111715610e0957600080fd5b91908080601f0160208091040260200160405190810160405280939291908181526020018383808284376000920191909152509295949360208101935035915050600160201b811115610e5b57600080fd5b820183602082011115610e6d57600080fd5b803590602001918460018302840111600160201b83111715610e8e57600080fd5b91908080601f016020809104026020016040519081016040528093929190818152602001838380828437600092019190915250929550613280945050505050565b6106fd60048036036020811015610ee557600080fd5b810190602081018135600160201b811115610eff57600080fd5b820183602082011115610f1157600080fd5b803590602001918460018302840111600160201b83111715610f3257600080fd5b91908080601f01602080910402602001604051908101604052809392919081815260200183838082843760009201919091525092955061358d945050505050565b6106fd60048036036020811015610f8957600080fd5b810190602081018135600160201b811115610fa357600080fd5b820183602082011115610fb557600080fd5b803590602001918460018302840111600160201b83111715610fd657600080fd5b91908080601f016020809104026020016040519081016040528093929190818152602001838380828437600092019190915250929550613615945050505050565b6106fd6004803603602081101561102d57600080fd5b50356136d7565b6102296004803603602081101561104a57600080fd5b810190602081018135600160201b81111561106457600080fd5b82018360208201111561107657600080fd5b803590602001918460018302840111600160201b8311171561109757600080fd5b91908080601f0160208091040260200160405190810160405280939291908181526020018383808284376000920191909152509295506136ec945050505050565b6101f8600480360360208110156110ee57600080fd5b810190602081018135600160201b81111561110857600080fd5b82018360208201111561111a57600080fd5b803590602001918460018302840111600160201b8311171561113b57600080fd5b91908080601f0160208091040260200160405190810160405280939291908181526020018383808284376000920191909152509295506139a6945050505050565b6111996004803603602081101561119257600080fd5b5035613a6d565b6040805192835260208301919091528051918290030190f35b6101f8600480360360208110156111c857600080fd5b810190602081018135600160201b8111156111e257600080fd5b8201836020820111156111f457600080fd5b803590602001918460018302840111600160201b8311171561121557600080fd5b91908080601f016020809104026020016040519081016040528093929190818152602001838380828437600092019190915250929550613a86945050505050565b600080836040516020018082805190602001908083835b6020831061128c5780518252601f19909201916020918201910161126d565b6001836020036101000a0380198251168184511680821785525050505050509050019150506040516020818303038152906040528051906020012090506112d2816119de565b15156001146113235760408051600160e51b62461bcd0281526020600482015260126024820152600160701b7175736572206e6f7420696e2073797374656d02604482015290519081900360640190fd5b6000818152602081905260409020600481018490556007015460018054859290811061134b57fe5b60009182526020808320600692830201600390810194909455848352828152604080842060078101546002820154948201548351828152938401869052608084018b905260c0840181905260e08486018181528d51918601919091528c518a99600080516020613c9b8339815191529994988f989097918701968f96600590910195949293606085019260a0860192610100870192918d0191908190849084905b838110156114045781810151838201526020016113ec565b50505050905090810190601f1680156114315780820380516001836020036101000a031916815260200191505b508481038352885460026000196101006001841615020190911604808252602090910190899080156114a45780601f10611479576101008083540402835291602001916114a4565b820191906000526020600020905b81548152906001019060200180831161148757829003601f168201915b50508481038252865460026000196101006001841615020190911604808252602090910190879080156115185780601f106114ed57610100808354040283529160200191611518565b820191906000526020600020905b8154815290600101906020018083116114fb57829003601f168201915b50509a505050505050505050505060405180910390a25060019392505050565b6001818154811061154557fe5b9060005260206000209060060201600091509050806000015490806001018054600181600116156101000203166002900480601f0160208091040260200160405190810160405280929190818152602001828054600181600116156101000203166002900480156115f75780601f106115cc576101008083540402835291602001916115f7565b820191906000526020600020905b8154815290600101906020018083116115da57829003601f168201915b50505060028085018054604080516020601f60001961010060018716150201909416959095049283018590048502810185019091528181529596959450909250908301828280156116895780601f1061165e57610100808354040283529160200191611689565b820191906000526020600020905b81548152906001019060200180831161166c57829003601f168201915b50505050600383015460048401805460408051602060026001851615610100026000190190941693909304601f810184900484028201840190925281815295969395939450908301828280156117205780601f106116f557610100808354040283529160200191611720565b820191906000526020600020905b81548152906001019060200180831161170357829003601f168201915b5050505050908060050154905086565b600081815260026020908152604080832083815560019081018490559183905282206004600682018190556007909101548254606094938593929091811061177457fe5b906000526020600020906006020160050181905550600160008086815260200190815260200160002060070154815481106117ab57fe5b600091825260209182902060026006909202018101805460408051601f6000196101006001861615020190931694909404918201859004850284018501905280835291929091908301828280156118435780601f1061181857610100808354040283529160200191611843565b820191906000526020600020905b81548152906001019060200180831161182657829003601f168201915b50505060008781526020818152604091829020600701548251908152915194955088947f4e8bcb6b6008aa5ec72e5bc9e94a9b6e33366c23fd6447d9427295b2c1a2396b945091829003019150a29150505b919050565b600080836040516020018082805190602001908083835b602083106118d05780518252601f1990920191602091820191016118b1565b51815160209384036101000a60001901801990921691161790526040805192909401828103601f190183528452815191810191909120600090815260029091529190912060010154959095149695505050505050565b600080836040516020018082805190602001908083835b6020831061195c5780518252601f19909201916020918201910161193d565b51815160209384036101000a60001901801990921691161790526040805192909401828103601f190183528452815191810191909120600081815291829052929020600681018890556007015460018054939650889550935091821090506119c057fe5b60009182526020909120600560069092020101555060019392505050565b6001546000906119f057506000611895565b600082815260208190526040902060070154600180548492908110611a1157fe5b906000526020600020906006020160000154149050919050565b600081815260208190526040902060060154606090819060051415611b4d576000838152602081905260409020600360068201819055600790910154600180549091908110611a7657fe5b90600052602060002090600602016005018190555060016000808581526020019081526020016000206007015481548110611aad57fe5b600091825260209182902060026006909202018101805460408051601f600019610100600186161502019093169490940491820185900485028401850190528083529192909190830182828015611b455780601f10611b1a57610100808354040283529160200191611b45565b820191906000526020600020905b815481529060010190602001808311611b2857829003601f168201915b505050505090505b60008381526020819052604090206006015460031415611c6a576000838152602081905260409020600560068201819055600790910154600180549091908110611b9357fe5b90600052602060002090600602016005018190555060016000808581526020019081526020016000206007015481548110611bca57fe5b600091825260209182902060026006909202018101805460408051601f600019610100600186161502019093169490940491820185900485028401850190528083529192909190830182828015611c625780601f10611c3757610100808354040283529160200191611c62565b820191906000526020600020905b815481529060010190602001808311611c4557829003601f168201915b505050505090505b92915050565b600080836040516020018082805190602001908083835b60208310611ca65780518252601f199092019160209182019101611c87565b6001836020036101000a038019825116818451168082178552505050505050905001915050604051602081830303815290604052805190602001209050611cec816119de565b1515600114611d3d5760408051600160e51b62461bcd0281526020600482015260126024820152600160701b7175736572206e6f7420696e2073797374656d02604482015290519081900360640190fd5b6000818152602081815260409091208451611d6092600390920191860190613bc9565b50600081815260208190526040902060070154600180548592908110611d8257fe5b90600052602060002090600602016002019080519060200190611da6929190613bc9565b50600081815260208181526040808320600781015460028201546004830154600684015485518481529586018390526080860182905260c0860181905260e08688018181528d51918801919091528c518a99600080516020613c9b8339815191529996988f9896978f97600501959491939192606085019260a0860192610100870192908d0191908190849084905b83811015611e4d578181015183820152602001611e35565b50505050905090810190601f168015611e7a5780820380516001836020036101000a031916815260200191505b5084810383528851815288516020918201918a019080838360005b83811015611ead578181015183820152602001611e95565b50505050905090810190601f168015611eda5780820380516001836020036101000a031916815260200191505b508481038252865460026000196101006001841615020190911604808252602090910190879080156115185780601f106114ed57610100808354040283529160200191611518565b600060608060006060600060018781548110611f3a57fe5b90600052602060002090600602016000015460018881548110611f5957fe5b906000526020600020906006020160010160018981548110611f7757fe5b906000526020600020906006020160020160018a81548110611f9557fe5b90600052602060002090600602016003015460018b81548110611fb457fe5b906000526020600020906006020160040160018c81548110611fd257fe5b600091825260209182902060056006909202010154855460408051601f60026000196101006001871615020190941693909304928301859004850281018501909152818152919287919083018282801561206d5780601f106120425761010080835404028352916020019161206d565b820191906000526020600020905b81548152906001019060200180831161205057829003601f168201915b5050875460408051602060026001851615610100026000190190941693909304601f8101849004840282018401909252818152959a50899450925084019050828280156120fb5780601f106120d0576101008083540402835291602001916120fb565b820191906000526020600020905b8154815290600101906020018083116120de57829003601f168201915b5050855460408051602060026001851615610100026000190190941693909304601f8101849004840282018401909252818152959950879450925084019050828280156121895780601f1061215e57610100808354040283529160200191612189565b820191906000526020600020905b81548152906001019060200180831161216c57829003601f168201915b5050505050915095509550955095509550955091939550919395565b60009081526020819052604090206006015490565b6000602081815291815260409081902080548251601f60026000196101006001861615020190931692909204918201859004850281018501909352808352909283919083018282801561224e5780601f106122235761010080835404028352916020019161224e565b820191906000526020600020905b81548152906001019060200180831161223157829003601f168201915b505050505090806001015490806002015490806003018054600181600116156101000203166002900480601f0160208091040260200160405190810160405280929190818152602001828054600181600116156101000203166002900480156122f85780601f106122cd576101008083540402835291602001916122f8565b820191906000526020600020905b8154815290600101906020018083116122db57829003601f168201915b50505050600483015460058401805460408051602060026001851615610100026000190190941693909304601f8101849004840282018401909252818152959693959394509083018282801561238f5780601f106123645761010080835404028352916020019161238f565b820191906000526020600020905b81548152906001019060200180831161237257829003601f168201915b5050505050908060060154908060070154905088565b6001545b90565b600080856040516020018082805190602001908083835b602083106123e25780518252601f1990920191602091820191016123c3565b6001836020036101000a03801982511681845116808217855250505050505090500191505060405160208183030381529060405280519060200120905060006040516020018080600160f81b606102815250600101905060405160208183030381529060405280519060200120905061245a826119de565b1515600114156124b45760408051600160e51b62461bcd02815260206004820152601660248201527f7573657220616c6c7265647920696e2073797374656d00000000000000000000604482015290519081900360640190fd5b60008281526020818152604090912088516124d1928a0190613bc9565b506000828152602081815260409091206001810184905560028101839055875161250392600390920191890190613bc9565b5060008281526020818152604090912060048101869055865161252e92600590920191880190613bc9565b50600082815260208190526040902060016006909101556125528288888789613a8c565b50600154600083815260208190526040902060001990910160079091015561257987613615565b50817f71f9179b88bb9779e428228697934b9da07a26a4cdedcacda6a6a774efeae66d6000808581526020019081526020016000206007015489600080878152602001908152602001600020600201548a898b6000808b8152602001908152602001600020600601546040518088815260200180602001878152602001806020018681526020018060200185815260200184810384528a818151815260200191508051906020019080838360005b8381101561263f578181015183820152602001612627565b50505050905090810190601f16801561266c5780820380516001836020036101000a031916815260200191505b5084810383528851815288516020918201918a019080838360005b8381101561269f578181015183820152602001612687565b50505050905090810190601f1680156126cc5780820380516001836020036101000a031916815260200191505b50848103825286518152865160209182019188019080838360005b838110156126ff5781810151838201526020016126e7565b50505050905090810190601f16801561272c5780820380516001836020036101000a031916815260200191505b509a505050505050505050505060405180910390a25060019695505050505050565b600080836040516020018082805190602001908083835b602083106127845780518252601f199092019160209182019101612765565b6001836020036101000a0380198251168184511680821785525050505050509050019150506040516020818303038152906040528051906020012090506127ca816119de565b151560011461281b5760408051600160e51b62461bcd0281526020600482015260126024820152600160701b7175736572206e6f7420696e2073797374656d02604482015290519081900360640190fd5b600081815260208181526040909120845161283e92600590920191860190613bc9565b5060008181526020819052604090206007015460018054859290811061286057fe5b90600052602060002090600602016004019080519060200190612884929190613bc9565b50600081815260208181526040808320600781015460028201546004830154600684015485518481529586018390526080860182905260c0860181905260e08688018181528d51918801919091528c518a99600080516020613c9b8339815191529996988f9896976003909701968f959491939192606085019260a0860192610100870192908d0191908190849084905b8381101561292d578181015183820152602001612915565b50505050905090810190601f16801561295a5780820380516001836020036101000a031916815260200191505b508481038352885460026000196101006001841615020190911604808252602090910190899080156129cd5780601f106129a2576101008083540402835291602001916129cd565b820191906000526020600020905b8154815290600101906020018083116129b057829003601f168201915b5050848103825286518152865160209182019188019080838360005b83811015612a015781810151838201526020016129e9565b50505050905090810190601f168015612a2e5780820380516001836020036101000a031916815260200191505b509a505050505050505050505060405180910390a25060019392505050565b600080866040516020018082805190602001908083835b60208310612a835780518252601f199092019160209182019101612a64565b6001836020036101000a038019825116818451168082178552505050505050905001915050604051602081830303815290604052805190602001209050612ac9816119de565b1515600114612b1a5760408051600160e51b62461bcd0281526020600482015260126024820152600160701b7175736572206e6f7420696e2073797374656d02604482015290519081900360640190fd5b6000818152602081905260408120600701545b875182101561327157878281518110612b4257fe5b602002602001015160011415612da0576000838152602081815260409091208851612b75926003909201918a0190613bc9565b508660018281548110612b8457fe5b90600052602060002090600602016002019080519060200190612ba8929190613bc9565b5082600080516020613c9b833981519152600080868152602001908152602001600020600701548b600080888152602001908152602001600020600201548b6000808a8152602001908152602001600020600401546000808b81526020019081526020016000206005016000808c8152602001908152602001600020600601546040518088815260200180602001878152602001806020018681526020018060200185815260200184810384528a818151815260200191508051906020019080838360005b83811015612c85578181015183820152602001612c6d565b50505050905090810190601f168015612cb25780820380516001836020036101000a031916815260200191505b5084810383528851815288516020918201918a019080838360005b83811015612ce5578181015183820152602001612ccd565b50505050905090810190601f168015612d125780820380516001836020036101000a031916815260200191505b50848103825286546002600019610100600184161502019091160480825260209091019087908015612d855780601f10612d5a57610100808354040283529160200191612d85565b820191906000526020600020905b815481529060010190602001808311612d6857829003601f168201915b50509a505050505050505050505060405180910390a2613266565b878281518110612dac57fe5b60200260200101516002141561300a576000838152602081815260409091208751612ddf92600590920191890190613bc9565b508560018281548110612dee57fe5b90600052602060002090600602016004019080519060200190612e12929190613bc9565b5082600080516020613c9b833981519152600080868152602001908152602001600020600701548b600080888152602001908152602001600020600201546000808981526020019081526020016000206003016000808a8152602001908152602001600020600401548c6000808c8152602001908152602001600020600601546040518088815260200180602001878152602001806020018681526020018060200185815260200184810384528a818151815260200191508051906020019080838360005b83811015612eef578181015183820152602001612ed7565b50505050905090810190601f168015612f1c5780820380516001836020036101000a031916815260200191505b50848103835288546002600019610100600184161502019091160480825260209091019089908015612f8f5780601f10612f6457610100808354040283529160200191612f8f565b820191906000526020600020905b815481529060010190602001808311612f7257829003601f168201915b5050848103825286518152865160209182019188019080838360005b83811015612fc3578181015183820152602001612fab565b50505050905090810190601f168015612ff05780820380516001836020036101000a031916815260200191505b509a505050505050505050505060405180910390a2613266565b87828151811061301657fe5b602002602001015160031415613266576000838152602081905260409020600401859055600180548691908390811061304b57fe5b90600052602060002090600602016003018190555082600080516020613c9b833981519152600080868152602001908152602001600020600701548b600080888152602001908152602001600020600201546000808981526020019081526020016000206003018a6000808b81526020019081526020016000206005016000808c8152602001908152602001600020600601546040518088815260200180602001878152602001806020018681526020018060200185815260200184810384528a818151815260200191508051906020019080838360005b8381101561313b578181015183820152602001613123565b50505050905090810190601f1680156131685780820380516001836020036101000a031916815260200191505b508481038352885460026000196101006001841615020190911604808252602090910190899080156131db5780601f106131b0576101008083540402835291602001916131db565b820191906000526020600020905b8154815290600101906020018083116131be57829003601f168201915b505084810382528654600260001961010060018416150201909116048082526020909101908790801561324f5780601f106132245761010080835404028352916020019161324f565b820191906000526020600020905b81548152906001019060200180831161323257829003601f168201915b50509a505050505050505050505060405180910390a25b600190910190612b2d565b50600198975050505050505050565b600080836040516020018082805190602001908083835b602083106132b65780518252601f199092019160209182019101613297565b6001836020036101000a0380198251168184511680821785525050505050509050019150506040516020818303038152906040528051906020012090506000836040516020018082805190602001908083835b602083106133285780518252601f199092019160209182019101613309565b51815160209384036101000a60001901801990921691161790526040805192909401828103601f190183528452815191810191909120600088815280835284812060028082018490558452948120818155600190810182905592526005600685018190556007909401548254919750939550909350821090506133a757fe5b60009182526020808320600560069093020182019390935584825281835260408083206007810154600482015483518281529384018890526080840181905260c0840185905260e08488018181528d51918601919091528c518a98600080516020613c9b8339815191529894978f978c9760038101979083019592949193606085019260a08601926101008701928d0191908190849084905b83811015613458578181015183820152602001613440565b50505050905090810190601f1680156134855780820380516001836020036101000a031916815260200191505b508481038352885460026000196101006001841615020190911604808252602090910190899080156134f85780601f106134cd576101008083540402835291602001916134f8565b820191906000526020600020905b8154815290600101906020018083116134db57829003601f168201915b505084810382528654600260001961010060018416150201909116048082526020909101908790801561356c5780601f106135415761010080835404028352916020019161356c565b820191906000526020600020905b81548152906001019060200180831161354f57829003601f168201915b50509a505050505050505050505060405180910390a2506001949350505050565b600080826040516020018082805190602001908083835b602083106135c35780518252601f1990920191602091820191016135a4565b51815160209384036101000a60001901801990921691161790526040805192909401828103601f1901835284528151918101919091206000908152600290915291909120600101549695505050505050565b600080826040516020018082805190602001908083835b6020831061364b5780518252601f19909201916020918201910161362c565b6001836020036101000a0380198251168184511680821785525050505050509050019150506040516020818303038152906040528051906020012090506000613692613b92565b60008381526002602052604090205490915082146136bc5760008281526002602052604090208290555b60009182526002602052604090912060010181905592915050565b60009081526020819052604090206002015490565b600060608060006060600080876040516020018082805190602001908083835b6020831061372b5780518252601f19909201916020918201910161370c565b6001836020036101000a038019825116818451168082178552505050505050905001915050604051602081830303815290604052805190602001209050613771816119de565b15156001146137c25760408051600160e51b62461bcd0281526020600482015260126024820152600160701b7175736572206e6f7420696e2073797374656d02604482015290519081900360640190fd5b60008181526020818152604091829020600481015460068201548254855160026001831615610100026000190190921691909104601f81018690048602820186019096528581528695939460038601946005870193929187919083018282801561386d5780601f106138425761010080835404028352916020019161386d565b820191906000526020600020905b81548152906001019060200180831161385057829003601f168201915b5050875460408051602060026001851615610100026000190190941693909304601f8101849004840282018401909252818152959a50899450925084019050828280156138fb5780601f106138d0576101008083540402835291602001916138fb565b820191906000526020600020905b8154815290600101906020018083116138de57829003601f168201915b5050855460408051602060026001851615610100026000190190941693909304601f8101849004840282018401909252818152959950879450925084019050828280156139895780601f1061395e57610100808354040283529160200191613989565b820191906000526020600020905b81548152906001019060200180831161396c57829003601f168201915b505050505091509650965096509650965096505091939550919395565b600080826040516020018082805190602001908083835b602083106139dc5780518252601f1990920191602091820191016139bd565b6001836020036101000a03801982511681845116808217855250505050505090500191505060405160208183030381529060405280519060200120905060018054905060001415613a31576000915050611895565b600081815260208190526040902060070154600180548392908110613a5257fe5b90600052602060002090600602016000015414915050919050565b6002602052600090815260409020805460019091015482565b50600090565b6000613a96613c47565b8681526020808201878152604083018790526060830186905260808301859052600160a084018190528054808201808355600092909252845160069091027fb10e2d527612073b26eecdfd717e6a320cf44b4afac2b0732d9fcbe2b7fa0cf6810191825592518051929486949293613b34937fb10e2d527612073b26eecdfd717e6a320cf44b4afac2b0732d9fcbe2b7fa0cf7019290910190613bc9565b5060408201518051613b50916002840191602090910190613bc9565b506060820151600382015560808201518051613b76916004840191602090910190613bc9565b5060a08201518160050155505050600191505095945050505050565b6040805142602080830191909152448284015243606080840191909152835180840390910181526080909201909252805191012090565b828054600181600116156101000203166002900490600052602060002090601f016020900481019282601f10613c0a57805160ff1916838001178555613c37565b82800160010185558215613c37579182015b82811115613c37578251825591602001919060010190613c1c565b50613c43929150613c80565b5090565b6040518060c001604052806000801916815260200160608152602001606081526020016000815260200160608152602001600081525090565b6123a991905b80821115613c435760008155600101613c8656fe19ee6c855c485880cd6ca4f28b7b5a1154b1b613c41a0c282d1c8151288cfd37a165627a7a72305820f5fefda9fbf48f730fcb49e52f4abdc5af899ab401edd11854785e52e93d477a0029",
  "source": "pragma solidity >=0.4.21 <0.6.0;\r\n\r\ncontract AdminContract {\r\n    \r\n    struct Admin{\r\n        string email;\r\n        bytes32 emailCode;\r\n        bytes32 passwordCode;\r\n        string name;\r\n        uint contactNumber;\r\n        string userAddress;\r\n        uint userAccess;\r\n        uint index;\r\n    }\r\n\r\n    struct DisplayAdmin{\r\n        bytes32 emailCode;\r\n        string email;\r\n        string name;\r\n        uint contactNumber;\r\n        string userAddress;\r\n        uint userAccess;\r\n    }\r\n    \r\n    event LogNewAdmin(\r\n        bytes32 indexed emailCode,\r\n        uint index,string email,\r\n        bytes32 passwordCode,\r\n        string name,\r\n        uint contactNumber,\r\n        string userAddress,\r\n        uint userAccess\r\n        );\r\n    event LogUpdateAdmin(\r\n        bytes32 indexed emailCode,\r\n        uint index,string email,\r\n        bytes32 passwordCode,\r\n        string name,\r\n        uint contactNumber,\r\n        string userAddress,\r\n        uint userAccess\r\n        );\r\n    event LogDeleteAdmin(\r\n        bytes32 indexed emailcode,\r\n        uint index\r\n        );\r\n        \r\n    struct RegistationToken{\r\n        bytes32 emailCode;\r\n        bytes32 token;\r\n    }\r\n        \r\n    mapping(bytes32 => Admin) public adminArray;\r\n    DisplayAdmin[] public adminIndex;\r\n    mapping(bytes32 => RegistationToken) public adminRegistationToken;\r\n    \r\n    function isAdmin(bytes32 _emailCode)public view returns(bool isIndeed) {\r\n        if(adminIndex.length == 0) return false;\r\n        return (adminIndex[adminArray[_emailCode].index].emailCode == _emailCode);\r\n    }\r\n    function isAdminx(string memory _email)public view returns(bool isIndeed) {\r\n        bytes32 _emailCode = keccak256(abi.encodePacked((_email)));\r\n        if(adminIndex.length == 0) return false;\r\n        return (adminIndex[adminArray[_emailCode].index].emailCode == _emailCode);\r\n    }\r\n    function createAdminToken(string memory _email)public returns(bytes32){\r\n        bytes32 _emailCode = keccak256(abi.encodePacked((_email)));\r\n        bytes32 token = randomtoken();\r\n        if(adminRegistationToken[_emailCode].emailCode != _emailCode){\r\n            adminRegistationToken[_emailCode].emailCode = _emailCode;\r\n        }\r\n        adminRegistationToken[_emailCode].token = token;\r\n        return token;\r\n    }\r\n    function getAdminToken(string memory _email)public view returns(bytes32){\r\n        bytes32 _emailCode = keccak256(abi.encodePacked((_email)));\r\n        return  adminRegistationToken[_emailCode].token;\r\n    }\r\n    function checkAdminToken(string memory _email,bytes32 _token)public view returns(bool){\r\n        bytes32 _emailCode = keccak256(abi.encodePacked((_email)));\r\n        return  (adminRegistationToken[_emailCode].token == _token);\r\n    }\r\n    function randomtoken() private view returns (bytes32) {\r\n       return keccak256(abi.encodePacked(block.timestamp,block.difficulty,block.number));\r\n    }\r\n    function setPassword(string memory _email,string memory _password)public returns (bool) {\r\n        bytes32 _emailCode = keccak256(abi.encodePacked((_email)));\r\n        bytes32 _passwordCode = keccak256(abi.encodePacked((_password)));\r\n        adminArray[_emailCode].passwordCode = _passwordCode;\r\n        delete adminRegistationToken[_emailCode];\r\n        adminArray[_emailCode].userAccess = 5;\r\n        adminIndex[adminArray[_emailCode].index].userAccess = 5;\r\n        emit LogUpdateAdmin(\r\n            _emailCode,\r\n            adminArray[_emailCode].index,\r\n            _email,\r\n            _passwordCode,\r\n            adminArray[_emailCode].name,\r\n            adminArray[_emailCode].contactNumber,\r\n            adminArray[_emailCode].userAddress,\r\n            5\r\n            );\r\n        return true;\r\n\r\n    }\r\n    function setDisplayAdmin(bytes32 _emailCode,string memory _email,string memory _name,uint _telephone,string memory _address)\r\n     private returns(bool){\r\n\r\n        DisplayAdmin memory displayAdmin;\r\n        displayAdmin.emailCode = _emailCode;\r\n        displayAdmin.email = _email;\r\n        displayAdmin.name = _name;\r\n        displayAdmin.contactNumber = _telephone;\r\n        displayAdmin.userAddress = _address;\r\n        displayAdmin.userAccess = 1;\r\n        adminIndex.push(displayAdmin);\r\n        return true;\r\n\r\n    }\r\n    function insertAdmin(string memory _email,string memory _name,string memory _address,uint _telephone) public returns(bool){\r\n        bytes32 _emailCode = keccak256(abi.encodePacked((_email)));\r\n        bytes32 _passwordCode = keccak256(abi.encodePacked((\"a\")));\r\n        require(isAdmin(_emailCode) != true,'user allredy in system');\r\n\r\n        adminArray[_emailCode].email = _email;\r\n        adminArray[_emailCode].emailCode = _emailCode;\r\n        adminArray[_emailCode].passwordCode = _passwordCode;\r\n        adminArray[_emailCode].name = _name;\r\n        adminArray[_emailCode].contactNumber = _telephone;\r\n        adminArray[_emailCode].userAddress = _address;\r\n        adminArray[_emailCode].userAccess = 1;\r\n        setDisplayAdmin(_emailCode,_email,_name,_telephone,_address);\r\n        adminArray[_emailCode].index = adminIndex.length-1;\r\n        createAdminToken(_email);\r\n\r\n        emit LogNewAdmin (\r\n            _emailCode,\r\n            adminArray[_emailCode].index,\r\n            _email,\r\n            adminArray[_emailCode].passwordCode,\r\n            _name,\r\n            _telephone,\r\n            _address,\r\n            adminArray[_emailCode].userAccess\r\n            );\r\n        return true;\r\n    }\r\n    function deleteAdmin (bytes32 email) public returns(string memory){\r\n        uint i;\r\n        string memory name;\r\n        delete adminRegistationToken[email];\r\n        adminArray[email].userAccess = 4;\r\n        adminIndex[adminArray[email].index].userAccess = 4;\r\n        name = adminIndex[adminArray[email].index].name;\r\n        emit LogDeleteAdmin(\r\n            email,\r\n            adminArray[email].index\r\n        );\r\n        return name;\r\n    }\r\n    function blockAdmin(bytes32 email) public returns(string memory)\r\n    {\r\n        string memory name;\r\n        if(adminArray[email].userAccess == 5){\r\n        adminArray[email].userAccess = 3;\r\n        adminIndex[adminArray[email].index].userAccess = 3;\r\n        name = adminIndex[adminArray[email].index].name;\r\n        }\r\n        if(adminArray[email].userAccess == 3){\r\n        adminArray[email].userAccess = 5;\r\n        adminIndex[adminArray[email].index].userAccess = 5;\r\n        name = adminIndex[adminArray[email].index].name;\r\n        }\r\n        return name;\r\n    }\r\n    function editUserAccess(string memory _email,uint usreAccess)public returns(bool){\r\n        bytes32 email = keccak256(abi.encodePacked((_email)));\r\n        adminArray[email].userAccess = usreAccess;\r\n        adminIndex[adminArray[email].index].userAccess = usreAccess;\r\n        return true;\r\n\r\n    }\r\n    function getAdmin(string memory _email) public view returns(bytes32,string memory email,string memory name,\r\n    uint contactNumber,string memory userAddress, uint userAccess){\r\n        bytes32 _emailCode = keccak256(abi.encodePacked((_email)));\r\n        require(isAdmin(_emailCode) == true,'user not in system');\r\n        return(\r\n            _emailCode,\r\n            adminArray[_emailCode].email,\r\n            adminArray[_emailCode].name,\r\n            adminArray[_emailCode].contactNumber,\r\n            adminArray[_emailCode].userAddress,\r\n            adminArray[_emailCode].userAccess\r\n            );\r\n    }\r\n    function getAdmini(uint i) public view returns(\r\n        bytes32,\r\n        string memory,\r\n        string memory,\r\n        uint,\r\n        string memory,\r\n        uint\r\n        ){\r\n            return (\r\n                adminIndex[i].emailCode,\r\n                adminIndex[i].email,\r\n                adminIndex[i].name,\r\n                adminIndex[i].contactNumber,\r\n                adminIndex[i].userAddress,\r\n                adminIndex[i].userAccess\r\n                );\r\n    }\r\n    function getAdminCount() public view returns(uint)\r\n    {\r\n        return adminIndex.length;\r\n    }\r\n    \r\n    // function updateUserEmail(address userAddress, bytes32 userEmail) public returns(bool success)\r\n    // {\r\n    //     userStructs[userAddress].userEmail = userEmail;\r\n    //     emit LogUpdateUser(userAddress,  userStructs[userAddress].index, userEmail, userStructs[userAddress].userAge);\r\n    //     return true;\r\n    // }\r\n    function updateAdminName (string memory _email,string memory _name) public returns(bool success){\r\n        bytes32 _emailCode = keccak256(abi.encodePacked((_email)));\r\n        require(isAdmin(_emailCode) == true,'user not in system');\r\n        adminArray[_emailCode].name = _name;\r\n        adminIndex[adminArray[_emailCode].index].name = _name;\r\n        emit LogUpdateAdmin(\r\n            _emailCode,\r\n            adminArray[_emailCode].index,\r\n            _email,\r\n            adminArray[_emailCode].passwordCode,\r\n            _name,\r\n            adminArray[_emailCode].contactNumber,\r\n            adminArray[_emailCode].userAddress,\r\n            adminArray[_emailCode].userAccess\r\n            );\r\n        return true;\r\n    }\r\n    function updateAdminAddress (string memory _email,string memory _userAddress) public returns(bool success){\r\n        bytes32 _emailCode = keccak256(abi.encodePacked((_email)));\r\n        require(isAdmin(_emailCode) == true,'user not in system');\r\n        adminArray[_emailCode].userAddress = _userAddress;\r\n        adminIndex[adminArray[_emailCode].index].userAddress = _userAddress;\r\n        emit LogUpdateAdmin(\r\n            _emailCode,\r\n            adminArray[_emailCode].index,\r\n            _email,\r\n            adminArray[_emailCode].passwordCode,\r\n            adminArray[_emailCode].name,\r\n            adminArray[_emailCode].contactNumber,\r\n            _userAddress,\r\n            adminArray[_emailCode].userAccess\r\n            );\r\n        return true;\r\n    }\r\n    function updateAdminContactNumber (string memory _email,uint _contactNumber) public returns(bool success){\r\n        bytes32 _emailCode = keccak256(abi.encodePacked((_email)));\r\n        require(isAdmin(_emailCode) == true,'user not in system');\r\n        adminArray[_emailCode].contactNumber = _contactNumber;\r\n        adminIndex[adminArray[_emailCode].index].contactNumber = _contactNumber;\r\n        emit LogUpdateAdmin(\r\n            _emailCode,\r\n            adminArray[_emailCode].index,\r\n            _email,\r\n            adminArray[_emailCode].passwordCode,\r\n            adminArray[_emailCode].name,\r\n            _contactNumber,\r\n            adminArray[_emailCode].userAddress,\r\n            adminArray[_emailCode].userAccess\r\n            );\r\n        return true;\r\n    }\r\n    function updateAdmin(\r\n        string memory _email,\r\n        uint[] memory index,\r\n        string memory _name,\r\n        string memory _userAddress,\r\n        uint _contactNumber\r\n        ) public returns(bool success){\r\n        bytes32 _emailCode = keccak256(abi.encodePacked((_email)));\r\n        require(isAdmin(_emailCode) == true,'user not in system');\r\n        uint i;\r\n        uint num = adminArray[_emailCode].index;\r\n\r\n        for (i = 0;i<index.length;i++){\r\n            if(index[i]==1){\r\n                adminArray[_emailCode].name = _name;\r\n                adminIndex[num].name = _name;\r\n                emit LogUpdateAdmin(\r\n                    _emailCode,\r\n                    adminArray[_emailCode].index,\r\n                    _email,adminArray[_emailCode].passwordCode,\r\n                    _name,\r\n                    adminArray[_emailCode].contactNumber,\r\n                    adminArray[_emailCode].userAddress,\r\n                    adminArray[_emailCode].userAccess\r\n                    );\r\n\r\n            }\r\n            else if(index[i]==2){\r\n                adminArray[_emailCode].userAddress = _userAddress;\r\n\r\n                adminIndex[num].userAddress = _userAddress;\r\n\r\n                emit LogUpdateAdmin(\r\n                    _emailCode,\r\n                    adminArray[_emailCode].index,\r\n                    _email,\r\n                    adminArray[_emailCode].passwordCode,\r\n                    adminArray[_emailCode].name,\r\n                    adminArray[_emailCode].contactNumber,\r\n                    _userAddress,\r\n                    adminArray[_emailCode].userAccess\r\n                    );\r\n\r\n            }\r\n            else if(index[i]==3){\r\n                adminArray[_emailCode].contactNumber = _contactNumber;\r\n                adminIndex[num].contactNumber = _contactNumber;\r\n                emit LogUpdateAdmin(\r\n                    _emailCode,\r\n                    adminArray[_emailCode].index,\r\n                    _email,\r\n                    adminArray[_emailCode].passwordCode,\r\n                    adminArray[_emailCode].name,\r\n                    _contactNumber,\r\n                    adminArray[_emailCode].userAddress,\r\n                    adminArray[_emailCode].userAccess\r\n                    );\r\n\r\n            }\r\n        }\r\n        return true;\r\n    }\r\n    ///////\r\n    function updateAdminiEmail (string memory _email) public returns(bool success)\r\n    {\r\n       // return true;\r\n    }\r\n    function checkAdminUserAccess(bytes32 email)public view returns(uint userAccess){\r\n        \r\n        return adminArray[email].userAccess;\r\n    }\r\n    function checkAdminPasswordCode(bytes32 email) public view returns(bytes32 passwordCode ){\r\n        return adminArray[email].passwordCode;\r\n    }\r\n}",
  "sourcePath": "C:\\project\\tea supply chain mangement system\\test2\\contracts\\Admin.sol",
  "compiler": {
    "name": "solc",
    "version": "0.5.8+commit.23d335f2.Emscripten.clang"
  },
  "schemaVersion": "3.0.16",
  "updatedAt": "2020-01-13T03:30:36.329Z",
  "devdoc": {
    "methods": {}
  },
  "userdoc": {
    "methods": {
      "updateAdminiEmail(string)": {
        "notice": "////"
      }
    }
  }
}