{
  "contractName": "AdminContract",
  "abi": [
    {
      "constant": true,
      "inputs": [
        {
          "name": "",
          "type": "bytes32"
        }
      ],
      "name": "adminArray",
      "outputs": [
        {
          "name": "email",
          "type": "string"
        },
        {
          "name": "emailCode",
          "type": "bytes32"
        },
        {
          "name": "passwordCode",
          "type": "bytes32"
        },
        {
          "name": "passwordRestToken",
          "type": "bytes32"
        },
        {
          "name": "name",
          "type": "string"
        },
        {
          "name": "contactNumber",
          "type": "uint256"
        },
        {
          "name": "userAddress",
          "type": "string"
        },
        {
          "name": "userAccess",
          "type": "uint256"
        },
        {
          "name": "index",
          "type": "uint256"
        }
      ],
      "payable": false,
      "stateMutability": "view",
      "type": "function"
    },
    {
      "anonymous": false,
      "inputs": [
        {
          "indexed": true,
          "name": "emailCode",
          "type": "bytes32"
        },
        {
          "indexed": false,
          "name": "index",
          "type": "uint256"
        },
        {
          "indexed": false,
          "name": "email",
          "type": "string"
        },
        {
          "indexed": false,
          "name": "passwordCode",
          "type": "bytes32"
        },
        {
          "indexed": false,
          "name": "passwordRestToken",
          "type": "bytes32"
        },
        {
          "indexed": false,
          "name": "name",
          "type": "string"
        },
        {
          "indexed": false,
          "name": "contactNumber",
          "type": "uint256"
        },
        {
          "indexed": false,
          "name": "userAddress",
          "type": "string"
        },
        {
          "indexed": false,
          "name": "userAccess",
          "type": "uint256"
        }
      ],
      "name": "LogNewAdmin",
      "type": "event"
    },
    {
      "anonymous": false,
      "inputs": [
        {
          "indexed": true,
          "name": "emailCode",
          "type": "bytes32"
        },
        {
          "indexed": false,
          "name": "index",
          "type": "uint256"
        },
        {
          "indexed": false,
          "name": "email",
          "type": "string"
        },
        {
          "indexed": false,
          "name": "passwordCode",
          "type": "bytes32"
        },
        {
          "indexed": false,
          "name": "passwordRestToken",
          "type": "bytes32"
        },
        {
          "indexed": false,
          "name": "name",
          "type": "string"
        },
        {
          "indexed": false,
          "name": "contactNumber",
          "type": "uint256"
        },
        {
          "indexed": false,
          "name": "userAddress",
          "type": "string"
        },
        {
          "indexed": false,
          "name": "userAccess",
          "type": "uint256"
        }
      ],
      "name": "LogUpdateAdmin",
      "type": "event"
    },
    {
      "anonymous": false,
      "inputs": [
        {
          "indexed": true,
          "name": "emailcode",
          "type": "bytes32"
        },
        {
          "indexed": false,
          "name": "index",
          "type": "uint256"
        }
      ],
      "name": "LogDeleteAdmin",
      "type": "event"
    },
    {
      "constant": true,
      "inputs": [
        {
          "name": "_emailCode",
          "type": "bytes32"
        }
      ],
      "name": "isAdmin",
      "outputs": [
        {
          "name": "isIndeed",
          "type": "bool"
        }
      ],
      "payable": false,
      "stateMutability": "view",
      "type": "function"
    },
    {
      "constant": true,
      "inputs": [
        {
          "name": "_email",
          "type": "string"
        }
      ],
      "name": "isAdminx",
      "outputs": [
        {
          "name": "isIndeed",
          "type": "bool"
        }
      ],
      "payable": false,
      "stateMutability": "view",
      "type": "function"
    },
    {
      "constant": false,
      "inputs": [
        {
          "name": "_emailCode",
          "type": "bytes32"
        }
      ],
      "name": "createAdminToken",
      "outputs": [
        {
          "name": "",
          "type": "bytes32"
        }
      ],
      "payable": false,
      "stateMutability": "nonpayable",
      "type": "function"
    },
    {
      "constant": false,
      "inputs": [
        {
          "name": "_email",
          "type": "string"
        },
        {
          "name": "_name",
          "type": "string"
        },
        {
          "name": "_address",
          "type": "string"
        },
        {
          "name": "_telephone",
          "type": "uint256"
        }
      ],
      "name": "insertAdmin",
      "outputs": [
        {
          "name": "",
          "type": "bool"
        }
      ],
      "payable": false,
      "stateMutability": "nonpayable",
      "type": "function"
    },
    {
      "constant": false,
      "inputs": [
        {
          "name": "email",
          "type": "bytes32"
        }
      ],
      "name": "deleteAdmin",
      "outputs": [
        {
          "name": "",
          "type": "string"
        }
      ],
      "payable": false,
      "stateMutability": "nonpayable",
      "type": "function"
    },
    {
      "constant": false,
      "inputs": [
        {
          "name": "email",
          "type": "bytes32"
        }
      ],
      "name": "blockAdmin",
      "outputs": [
        {
          "name": "",
          "type": "string"
        }
      ],
      "payable": false,
      "stateMutability": "nonpayable",
      "type": "function"
    },
    {
      "constant": false,
      "inputs": [
        {
          "name": "_email",
          "type": "string"
        },
        {
          "name": "usreAccess",
          "type": "uint256"
        }
      ],
      "name": "editUserAccess",
      "outputs": [
        {
          "name": "",
          "type": "bool"
        }
      ],
      "payable": false,
      "stateMutability": "nonpayable",
      "type": "function"
    },
    {
      "constant": true,
      "inputs": [
        {
          "name": "_email",
          "type": "string"
        }
      ],
      "name": "getAdmin",
      "outputs": [
        {
          "name": "",
          "type": "bytes32"
        },
        {
          "name": "email",
          "type": "string"
        },
        {
          "name": "name",
          "type": "string"
        },
        {
          "name": "contactNumber",
          "type": "uint256"
        },
        {
          "name": "userAddress",
          "type": "string"
        },
        {
          "name": "userAccess",
          "type": "uint256"
        }
      ],
      "payable": false,
      "stateMutability": "view",
      "type": "function"
    },
    {
      "constant": true,
      "inputs": [
        {
          "name": "i",
          "type": "uint256"
        }
      ],
      "name": "getAdmini",
      "outputs": [
        {
          "name": "",
          "type": "bytes32"
        },
        {
          "name": "",
          "type": "string"
        },
        {
          "name": "",
          "type": "string"
        },
        {
          "name": "",
          "type": "uint256"
        },
        {
          "name": "",
          "type": "string"
        },
        {
          "name": "",
          "type": "uint256"
        }
      ],
      "payable": false,
      "stateMutability": "view",
      "type": "function"
    },
    {
      "constant": true,
      "inputs": [],
      "name": "getAdminCount",
      "outputs": [
        {
          "name": "",
          "type": "uint256"
        }
      ],
      "payable": false,
      "stateMutability": "view",
      "type": "function"
    },
    {
      "constant": false,
      "inputs": [
        {
          "name": "_email",
          "type": "string"
        },
        {
          "name": "_name",
          "type": "string"
        }
      ],
      "name": "updateAdminName",
      "outputs": [
        {
          "name": "success",
          "type": "bool"
        }
      ],
      "payable": false,
      "stateMutability": "nonpayable",
      "type": "function"
    },
    {
      "constant": false,
      "inputs": [
        {
          "name": "_email",
          "type": "string"
        },
        {
          "name": "_userAddress",
          "type": "string"
        }
      ],
      "name": "updateAdminAddress",
      "outputs": [
        {
          "name": "success",
          "type": "bool"
        }
      ],
      "payable": false,
      "stateMutability": "nonpayable",
      "type": "function"
    },
    {
      "constant": false,
      "inputs": [
        {
          "name": "_email",
          "type": "string"
        },
        {
          "name": "_contactNumber",
          "type": "uint256"
        }
      ],
      "name": "updateAdminContactNumber",
      "outputs": [
        {
          "name": "success",
          "type": "bool"
        }
      ],
      "payable": false,
      "stateMutability": "nonpayable",
      "type": "function"
    },
    {
      "constant": false,
      "inputs": [
        {
          "name": "_email",
          "type": "string"
        },
        {
          "name": "index",
          "type": "uint256[]"
        },
        {
          "name": "_name",
          "type": "string"
        },
        {
          "name": "_userAddress",
          "type": "string"
        },
        {
          "name": "_contactNumber",
          "type": "uint256"
        }
      ],
      "name": "updateAdmin",
      "outputs": [
        {
          "name": "success",
          "type": "bool"
        }
      ],
      "payable": false,
      "stateMutability": "nonpayable",
      "type": "function"
    },
    {
      "constant": false,
      "inputs": [
        {
          "name": "_email",
          "type": "string"
        }
      ],
      "name": "updateAdminiEmail",
      "outputs": [
        {
          "name": "success",
          "type": "bool"
        }
      ],
      "payable": false,
      "stateMutability": "nonpayable",
      "type": "function"
    },
    {
      "constant": true,
      "inputs": [
        {
          "name": "email",
          "type": "bytes32"
        }
      ],
      "name": "checkAdminUserAccess",
      "outputs": [
        {
          "name": "userAccess",
          "type": "uint256"
        }
      ],
      "payable": false,
      "stateMutability": "view",
      "type": "function"
    },
    {
      "constant": true,
      "inputs": [
        {
          "name": "email",
          "type": "bytes32"
        }
      ],
      "name": "checkAdminPasswordCode",
      "outputs": [
        {
          "name": "passwordCode",
          "type": "bytes32"
        }
      ],
      "payable": false,
      "stateMutability": "view",
      "type": "function"
    }
  ],
  "bytecode": "0x608060405234801561001057600080fd5b5061343f806100206000396000f3fe608060405234801561001057600080fd5b50600436106101165760003560e01c80638b7bf3eb116100a2578063e1a1198211610071578063e1a1198214610cb3578063e4fa3a9314610cd0578063e6d218d914610ced578063f06e51ca14610d91578063f9e10ce914610e3557610116565b80638b7bf3eb146107a0578063accbdf47146107a8578063b45ecca814610958578063c4c755ca14610a8157610116565b806374a1cba1116100e957806374a1cba11461032a57806375580b5514610347578063806137f61461047057806389a42120146105e65780638ab5626f1461061557610116565b806309a532521461011b5780631f24f8a5146101d55780636609b7cc1461026757806372d144801461030d575b600080fd5b6101c16004803603604081101561013157600080fd5b810190602081018135600160201b81111561014b57600080fd5b82018360208201111561015d57600080fd5b803590602001918460018302840111600160201b8311171561017e57600080fd5b91908080601f0160208091040260200160405190810160405280939291908181526020018383808284376000920191909152509295505091359250610ed9915050565b604080519115158252519081900360200190f35b6101f2600480360360208110156101eb57600080fd5b503561120f565b6040805160208082528351818301528351919283929083019185019080838360005b8381101561022c578181015183820152602001610214565b50505050905090810190601f1680156102595780820380516001836020036101000a031916815260200191505b509250505060405180910390f35b6101c16004803603604081101561027d57600080fd5b810190602081018135600160201b81111561029757600080fd5b8201836020820111156102a957600080fd5b803590602001918460018302840111600160201b831117156102ca57600080fd5b91908080601f0160208091040260200160405190810160405280939291908181526020018383808284376000920191909152509295505091359250611379915050565b6101c16004803603602081101561032357600080fd5b5035611431565b6101f26004803603602081101561034057600080fd5b503561147e565b6101c16004803603604081101561035d57600080fd5b810190602081018135600160201b81111561037757600080fd5b82018360208201111561038957600080fd5b803590602001918460018302840111600160201b831117156103aa57600080fd5b91908080601f0160208091040260200160405190810160405280939291908181526020018383808284376000920191909152509295949360208101935035915050600160201b8111156103fc57600080fd5b82018360208201111561040e57600080fd5b803590602001918460018302840111600160201b8311171561042f57600080fd5b91908080601f0160208091040260200160405190810160405280939291908181526020018383808284376000920191909152509295506116c3945050505050565b61048d6004803603602081101561048657600080fd5b50356119c7565b60405180878152602001806020018060200186815260200180602001858152602001848103845289818151815260200191508051906020019080838360005b838110156104e45781810151838201526020016104cc565b50505050905090810190601f1680156105115780820380516001836020036101000a031916815260200191505b5084810383528851815288516020918201918a019080838360005b8381101561054457818101518382015260200161052c565b50505050905090810190601f1680156105715780820380516001836020036101000a031916815260200191505b50848103825286518152865160209182019188019080838360005b838110156105a457818101518382015260200161058c565b50505050905090810190601f1680156105d15780820380516001836020036101000a031916815260200191505b50995050505050505050505060405180910390f35b610603600480360360208110156105fc57600080fd5b5035611c4a565b60408051918252519081900360200190f35b6106326004803603602081101561062b57600080fd5b5035611c5f565b60405180806020018a8152602001898152602001888152602001806020018781526020018060200186815260200185815260200184810384528d818151815260200191508051906020019080838360005b8381101561069b578181015183820152602001610683565b50505050905090810190601f1680156106c85780820380516001836020036101000a031916815260200191505b5084810383528951815289516020918201918b019080838360005b838110156106fb5781810151838201526020016106e3565b50505050905090810190601f1680156107285780820380516001836020036101000a031916815260200191505b50848103825287518152875160209182019189019080838360005b8381101561075b578181015183820152602001610743565b50505050905090810190601f1680156107885780820380516001836020036101000a031916815260200191505b509c5050505050505050505050505060405180910390f35b610603611e50565b6101c1600480360360808110156107be57600080fd5b810190602081018135600160201b8111156107d857600080fd5b8201836020820111156107ea57600080fd5b803590602001918460018302840111600160201b8311171561080b57600080fd5b91908080601f0160208091040260200160405190810160405280939291908181526020018383808284376000920191909152509295949360208101935035915050600160201b81111561085d57600080fd5b82018360208201111561086f57600080fd5b803590602001918460018302840111600160201b8311171561089057600080fd5b91908080601f0160208091040260200160405190810160405280939291908181526020018383808284376000920191909152509295949360208101935035915050600160201b8111156108e257600080fd5b8201836020820111156108f457600080fd5b803590602001918460018302840111600160201b8311171561091557600080fd5b91908080601f0160208091040260200160405190810160405280939291908181526020018383808284376000920191909152509295505091359250611e57915050565b6101c16004803603604081101561096e57600080fd5b810190602081018135600160201b81111561098857600080fd5b82018360208201111561099a57600080fd5b803590602001918460018302840111600160201b831117156109bb57600080fd5b91908080601f0160208091040260200160405190810160405280939291908181526020018383808284376000920191909152509295949360208101935035915050600160201b811115610a0d57600080fd5b820183602082011115610a1f57600080fd5b803590602001918460018302840111600160201b83111715610a4057600080fd5b91908080601f01602080910402602001604051908101604052809392919081815260200183838082843760009201919091525092955061222c945050505050565b6101c1600480360360a0811015610a9757600080fd5b810190602081018135600160201b811115610ab157600080fd5b820183602082011115610ac357600080fd5b803590602001918460018302840111600160201b83111715610ae457600080fd5b91908080601f0160208091040260200160405190810160405280939291908181526020018383808284376000920191909152509295949360208101935035915050600160201b811115610b3657600080fd5b820183602082011115610b4857600080fd5b803590602001918460208302840111600160201b83111715610b6957600080fd5b9190808060200260200160405190810160405280939291908181526020018383602002808284376000920191909152509295949360208101935035915050600160201b811115610bb857600080fd5b820183602082011115610bca57600080fd5b803590602001918460018302840111600160201b83111715610beb57600080fd5b91908080601f0160208091040260200160405190810160405280939291908181526020018383808284376000920191909152509295949360208101935035915050600160201b811115610c3d57600080fd5b820183602082011115610c4f57600080fd5b803590602001918460018302840111600160201b83111715610c7057600080fd5b91908080601f016020809104026020016040519081016040528093929190818152602001838380828437600092019190915250929550509135925061257c915050565b61060360048036036020811015610cc957600080fd5b5035612e06565b61060360048036036020811015610ce657600080fd5b5035612e54565b61048d60048036036020811015610d0357600080fd5b810190602081018135600160201b811115610d1d57600080fd5b820183602082011115610d2f57600080fd5b803590602001918460018302840111600160201b83111715610d5057600080fd5b91908080601f016020809104026020016040519081016040528093929190818152602001838380828437600092019190915250929550612e69945050505050565b6101c160048036036020811015610da757600080fd5b810190602081018135600160201b811115610dc157600080fd5b820183602082011115610dd357600080fd5b803590602001918460018302840111600160201b83111715610df457600080fd5b91908080601f016020809104026020016040519081016040528093929190818152602001838380828437600092019190915250929550613123945050505050565b6101c160048036036020811015610e4b57600080fd5b810190602081018135600160201b811115610e6557600080fd5b820183602082011115610e7757600080fd5b803590602001918460018302840111600160201b83111715610e9857600080fd5b91908080601f0160208091040260200160405190810160405280939291908181526020018383808284376000920191909152509295506131ea945050505050565b600080836040516020018082805190602001908083835b60208310610f0f5780518252601f199092019160209182019101610ef0565b6001836020036101000a038019825116818451168082178552505050505050905001915050604051602081830303815290604052805190602001209050610f5581611431565b1515600114610fa65760408051600160e51b62461bcd0281526020600482015260126024820152600160701b7175736572206e6f7420696e2073797374656d02604482015290519081900360640190fd5b60008181526020819052604090206005810184905560080154600180548592908110610fce57fe5b906000526020600020906006020160030181905550806000805160206133f483398151915260008084815260200190815260200160002060080154866000808681526020019081526020016000206002015460008087815260200190815260200160002060030154600080888152602001908152602001600020600401896000808a81526020019081526020016000206006016000808b8152602001908152602001600020600701546040518089815260200180602001888152602001878152602001806020018681526020018060200185815260200184810384528b818151815260200191508051906020019080838360005b838110156110da5781810151838201526020016110c2565b50505050905090810190601f1680156111075780820380516001836020036101000a031916815260200191505b5084810383528854600260001961010060018416150201909116048082526020909101908990801561117a5780601f1061114f5761010080835404028352916020019161117a565b820191906000526020600020905b81548152906001019060200180831161115d57829003601f168201915b50508481038252865460026000196101006001841615020190911604808252602090910190879080156111ee5780601f106111c3576101008083540402835291602001916111ee565b820191906000526020600020905b8154815290600101906020018083116111d157829003601f168201915b50509b50505050505050505050505060405180910390a25060019392505050565b600081815260026020908152604080832083815560019081018490559183905282206004600782018190556008909101548254606094938593929091811061125357fe5b9060005260206000209060060201600501819055506001600080868152602001908152602001600020600801548154811061128a57fe5b600091825260209182902060026006909202018101805460408051601f6000196101006001861615020190931694909404918201859004850284018501905280835291929091908301828280156113225780601f106112f757610100808354040283529160200191611322565b820191906000526020600020905b81548152906001019060200180831161130557829003601f168201915b50505060008781526020818152604091829020600801548251908152915194955088947f4e8bcb6b6008aa5ec72e5bc9e94a9b6e33366c23fd6447d9427295b2c1a2396b945091829003019150a29150505b919050565b600080836040516020018082805190602001908083835b602083106113af5780518252601f199092019160209182019101611390565b51815160209384036101000a60001901801990921691161790526040805192909401828103601f1901835284528151918101919091206000818152918290529290206007810188905560080154600180549396508895509350918210905061141357fe5b60009182526020909120600560069092020101555060019392505050565b60015460009061144357506000611374565b60008281526020819052604090206008015460018054849290811061146457fe5b906000526020600020906006020160000154149050919050565b6000818152602081905260409020600701546060908190600514156115a05760008381526020819052604090206003600782018190556008909101546001805490919081106114c957fe5b9060005260206000209060060201600501819055506001600080858152602001908152602001600020600801548154811061150057fe5b600091825260209182902060026006909202018101805460408051601f6000196101006001861615020190931694909404918201859004850284018501905280835291929091908301828280156115985780601f1061156d57610100808354040283529160200191611598565b820191906000526020600020905b81548152906001019060200180831161157b57829003601f168201915b505050505090505b600083815260208190526040902060070154600314156116bd5760008381526020819052604090206005600782018190556008909101546001805490919081106115e657fe5b9060005260206000209060060201600501819055506001600080858152602001908152602001600020600801548154811061161d57fe5b600091825260209182902060026006909202018101805460408051601f6000196101006001861615020190931694909404918201859004850284018501905280835291929091908301828280156116b55780601f1061168a576101008083540402835291602001916116b5565b820191906000526020600020905b81548152906001019060200180831161169857829003601f168201915b505050505090505b92915050565b600080836040516020018082805190602001908083835b602083106116f95780518252601f1990920191602091820191016116da565b6001836020036101000a03801982511681845116808217855250505050505090500191505060405160208183030381529060405280519060200120905061173f81611431565b15156001146117905760408051600160e51b62461bcd0281526020600482015260126024820152600160701b7175736572206e6f7420696e2073797374656d02604482015290519081900360640190fd5b60008181526020818152604090912084516117b392600490920191860190613322565b506000818152602081905260409020600801546001805485929081106117d557fe5b906000526020600020906006020160020190805190602001906117f9929190613322565b50806000805160206133f48339815191526000808481526020019081526020016000206008015486600080868152602001908152602001600020600201546000808781526020019081526020016000206003015488600080898152602001908152602001600020600501546000808a81526020019081526020016000206006016000808b8152602001908152602001600020600701546040518089815260200180602001888152602001878152602001806020018681526020018060200185815260200184810384528b818151815260200191508051906020019080838360005b838110156118f25781810151838201526020016118da565b50505050905090810190601f16801561191f5780820380516001836020036101000a031916815260200191505b5084810383528851815288516020918201918a019080838360005b8381101561195257818101518382015260200161193a565b50505050905090810190601f16801561197f5780820380516001836020036101000a031916815260200191505b508481038252865460026000196101006001841615020190911604808252602090910190879080156111ee5780601f106111c3576101008083540402835291602001916111ee565b6000606080600060606000600187815481106119df57fe5b906000526020600020906006020160000154600188815481106119fe57fe5b906000526020600020906006020160010160018981548110611a1c57fe5b906000526020600020906006020160020160018a81548110611a3a57fe5b90600052602060002090600602016003015460018b81548110611a5957fe5b906000526020600020906006020160040160018c81548110611a7757fe5b600091825260209182902060056006909202010154855460408051601f600260001961010060018716150201909416939093049283018590048502810185019091528181529192879190830182828015611b125780601f10611ae757610100808354040283529160200191611b12565b820191906000526020600020905b815481529060010190602001808311611af557829003601f168201915b5050875460408051602060026001851615610100026000190190941693909304601f8101849004840282018401909252818152959a5089945092508401905082828015611ba05780601f10611b7557610100808354040283529160200191611ba0565b820191906000526020600020905b815481529060010190602001808311611b8357829003601f168201915b5050855460408051602060026001851615610100026000190190941693909304601f810184900484028201840190925281815295995087945092508401905082828015611c2e5780601f10611c0357610100808354040283529160200191611c2e565b820191906000526020600020905b815481529060010190602001808311611c1157829003601f168201915b5050505050915095509550955095509550955091939550919395565b60009081526020819052604090206007015490565b6000602081815291815260409081902080548251601f600260001961010060018616150201909316929092049182018590048502810185019093528083529092839190830182828015611cf35780601f10611cc857610100808354040283529160200191611cf3565b820191906000526020600020905b815481529060010190602001808311611cd657829003601f168201915b505050505090806001015490806002015490806003015490806004018054600181600116156101000203166002900480601f016020809104026020016040519081016040528092919081815260200182805460018160011615610100020316600290048015611da35780601f10611d7857610100808354040283529160200191611da3565b820191906000526020600020905b815481529060010190602001808311611d8657829003601f168201915b50505050600583015460068401805460408051602060026001851615610100026000190190941693909304601f81018490048402820184019092528181529596939593945090830182828015611e3a5780601f10611e0f57610100808354040283529160200191611e3a565b820191906000526020600020905b815481529060010190602001808311611e1d57829003601f168201915b5050505050908060070154908060080154905089565b6001545b90565b600080856040516020018082805190602001908083835b60208310611e8d5780518252601f199092019160209182019101611e6e565b6001836020036101000a03801982511681845116808217855250505050505090500191505060405160208183030381529060405280519060200120905060006040516020018080600160f81b6061028152506001019050604051602081830303815290604052805190602001209050611f0582611431565b151560011415611f5f5760408051600160e51b62461bcd02815260206004820152601660248201527f7573657220616c6c7265647920696e2073797374656d00000000000000000000604482015290519081900360640190fd5b6000828152602081815260409091208851611f7c928a0190613322565b50600082815260208190526040902060018101839055600201819055611fa182612e06565b60008381526020818152604090912060038101929092558751611fca9260040191890190613322565b50600082815260208181526040909120600581018690558651611ff592600690920191880190613322565b506000828152602081905260409020600160079091015561201982888887896131f0565b50600180805490500360008084815260200190815260200160002060080181905550817f2d9d676840c870cc037bd86cc92e3231dc401cfe5b6a8cda2f2bda9c44e5234a600080858152602001908152602001600020600801548960008087815260200190815260200160002060020154600080888152602001908152602001600020600301548b8a8c6000808c8152602001908152602001600020600701546040518089815260200180602001888152602001878152602001806020018681526020018060200185815260200184810384528b818151815260200191508051906020019080838360005b8381101561211c578181015183820152602001612104565b50505050905090810190601f1680156121495780820380516001836020036101000a031916815260200191505b5084810383528851815288516020918201918a019080838360005b8381101561217c578181015183820152602001612164565b50505050905090810190601f1680156121a95780820380516001836020036101000a031916815260200191505b50848103825286518152865160209182019188019080838360005b838110156121dc5781810151838201526020016121c4565b50505050905090810190601f1680156122095780820380516001836020036101000a031916815260200191505b509b50505050505050505050505060405180910390a25060019695505050505050565b600080836040516020018082805190602001908083835b602083106122625780518252601f199092019160209182019101612243565b6001836020036101000a0380198251168184511680821785525050505050509050019150506040516020818303038152906040528051906020012090506122a881611431565b15156001146122f95760408051600160e51b62461bcd0281526020600482015260126024820152600160701b7175736572206e6f7420696e2073797374656d02604482015290519081900360640190fd5b600081815260208181526040909120845161231c92600690920191860190613322565b5060008181526020819052604090206008015460018054859290811061233e57fe5b90600052602060002090600602016004019080519060200190612362929190613322565b50806000805160206133f483398151915260008084815260200190815260200160002060080154866000808681526020019081526020016000206002015460008087815260200190815260200160002060030154600080888152602001908152602001600020600401600080898152602001908152602001600020600501548a6000808b8152602001908152602001600020600701546040518089815260200180602001888152602001878152602001806020018681526020018060200185815260200184810384528b818151815260200191508051906020019080838360005b8381101561245b578181015183820152602001612443565b50505050905090810190601f1680156124885780820380516001836020036101000a031916815260200191505b508481038352885460026000196101006001841615020190911604808252602090910190899080156124fb5780601f106124d0576101008083540402835291602001916124fb565b820191906000526020600020905b8154815290600101906020018083116124de57829003601f168201915b5050848103825286518152865160209182019188019080838360005b8381101561252f578181015183820152602001612517565b50505050905090810190601f16801561255c5780820380516001836020036101000a031916815260200191505b509b50505050505050505050505060405180910390a25060019392505050565b600080866040516020018082805190602001908083835b602083106125b25780518252601f199092019160209182019101612593565b6001836020036101000a0380198251168184511680821785525050505050509050019150506040516020818303038152906040528051906020012090506125f881611431565b15156001146126495760408051600160e51b62461bcd0281526020600482015260126024820152600160701b7175736572206e6f7420696e2073797374656d02604482015290519081900360640190fd5b6000818152602081905260408120600801545b8751821015612df75787828151811061267157fe5b6020026020010151600114156128ec5760008381526020818152604090912088516126a4926004909201918a0190613322565b5086600182815481106126b357fe5b906000526020600020906006020160020190805190602001906126d7929190613322565b50826000805160206133f4833981519152600080868152602001908152602001600020600801548b60008088815260200190815260200160002060020154600080898152602001908152602001600020600301548c6000808b8152602001908152602001600020600501546000808c81526020019081526020016000206006016000808d8152602001908152602001600020600701546040518089815260200180602001888152602001878152602001806020018681526020018060200185815260200184810384528b818151815260200191508051906020019080838360005b838110156127d05781810151838201526020016127b8565b50505050905090810190601f1680156127fd5780820380516001836020036101000a031916815260200191505b5084810383528851815288516020918201918a019080838360005b83811015612830578181015183820152602001612818565b50505050905090810190601f16801561285d5780820380516001836020036101000a031916815260200191505b508481038252865460026000196101006001841615020190911604808252602090910190879080156128d05780601f106128a5576101008083540402835291602001916128d0565b820191906000526020600020905b8154815290600101906020018083116128b357829003601f168201915b50509b50505050505050505050505060405180910390a2612dec565b8782815181106128f857fe5b602002602001015160021415612b7357600083815260208181526040909120875161292b92600690920191890190613322565b50856001828154811061293a57fe5b9060005260206000209060060201600401908051906020019061295e929190613322565b50826000805160206133f4833981519152600080868152602001908152602001600020600801548b60008088815260200190815260200160002060020154600080898152602001908152602001600020600301546000808a81526020019081526020016000206004016000808b8152602001908152602001600020600501548d6000808d8152602001908152602001600020600701546040518089815260200180602001888152602001878152602001806020018681526020018060200185815260200184810384528b818151815260200191508051906020019080838360005b83811015612a57578181015183820152602001612a3f565b50505050905090810190601f168015612a845780820380516001836020036101000a031916815260200191505b50848103835288546002600019610100600184161502019091160480825260209091019089908015612af75780601f10612acc57610100808354040283529160200191612af7565b820191906000526020600020905b815481529060010190602001808311612ada57829003601f168201915b5050848103825286518152865160209182019188019080838360005b83811015612b2b578181015183820152602001612b13565b50505050905090810190601f168015612b585780820380516001836020036101000a031916815260200191505b509b50505050505050505050505060405180910390a2612dec565b878281518110612b7f57fe5b602002602001015160031415612dec5760008381526020819052604090206005018590556001805486919083908110612bb457fe5b906000526020600020906006020160030181905550826000805160206133f4833981519152600080868152602001908152602001600020600801548b60008088815260200190815260200160002060020154600080898152602001908152602001600020600301546000808a81526020019081526020016000206004018b6000808c81526020019081526020016000206006016000808d8152602001908152602001600020600701546040518089815260200180602001888152602001878152602001806020018681526020018060200185815260200184810384528b818151815260200191508051906020019080838360005b83811015612cc0578181015183820152602001612ca8565b50505050905090810190601f168015612ced5780820380516001836020036101000a031916815260200191505b50848103835288546002600019610100600184161502019091160480825260209091019089908015612d605780601f10612d3557610100808354040283529160200191612d60565b820191906000526020600020905b815481529060010190602001808311612d4357829003601f168201915b5050848103825286546002600019610100600184161502019091160480825260209091019087908015612dd45780601f10612da957610100808354040283529160200191612dd4565b820191906000526020600020905b815481529060010190602001808311612db757829003601f168201915b50509b50505050505050505050505060405180910390a25b60019091019061265c565b50600198975050505050505050565b600080612e116132f6565b6000848152600260205260409020549091508314612e3b5760008381526002602052604090208390555b6000928352600260205260409092206001018290555090565b60009081526020819052604090206002015490565b600060608060006060600080876040516020018082805190602001908083835b60208310612ea85780518252601f199092019160209182019101612e89565b6001836020036101000a038019825116818451168082178552505050505050905001915050604051602081830303815290604052805190602001209050612eee81611431565b1515600114612f3f5760408051600160e51b62461bcd0281526020600482015260126024820152600160701b7175736572206e6f7420696e2073797374656d02604482015290519081900360640190fd5b60008181526020818152604091829020600581015460078201548254855160026001831615610100026000190190921691909104601f810186900486028201860190965285815286959394600486019460068701939291879190830182828015612fea5780601f10612fbf57610100808354040283529160200191612fea565b820191906000526020600020905b815481529060010190602001808311612fcd57829003601f168201915b5050875460408051602060026001851615610100026000190190941693909304601f8101849004840282018401909252818152959a50899450925084019050828280156130785780601f1061304d57610100808354040283529160200191613078565b820191906000526020600020905b81548152906001019060200180831161305b57829003601f168201915b5050855460408051602060026001851615610100026000190190941693909304601f8101849004840282018401909252818152959950879450925084019050828280156131065780601f106130db57610100808354040283529160200191613106565b820191906000526020600020905b8154815290600101906020018083116130e957829003601f168201915b505050505091509650965096509650965096505091939550919395565b600080826040516020018082805190602001908083835b602083106131595780518252601f19909201916020918201910161313a565b6001836020036101000a038019825116818451168082178552505050505050905001915050604051602081830303815290604052805190602001209050600180549050600014156131ae576000915050611374565b6000818152602081905260409020600801546001805483929081106131cf57fe5b90600052602060002090600602016000015414915050919050565b50600090565b60006131fa6133a0565b8681526020808201878152604083018790526060830186905260808301859052600160a084018190528054808201808355600092909252845160069091027fb10e2d527612073b26eecdfd717e6a320cf44b4afac2b0732d9fcbe2b7fa0cf6810191825592518051929486949293613298937fb10e2d527612073b26eecdfd717e6a320cf44b4afac2b0732d9fcbe2b7fa0cf7019290910190613322565b50604082015180516132b4916002840191602090910190613322565b5060608201516003820155608082015180516132da916004840191602090910190613322565b5060a08201518160050155505050600191505095945050505050565b604080514260208083019190915244828401528251808303840181526060909201909252805191012090565b828054600181600116156101000203166002900490600052602060002090601f016020900481019282601f1061336357805160ff1916838001178555613390565b82800160010185558215613390579182015b82811115613390578251825591602001919060010190613375565b5061339c9291506133d9565b5090565b6040518060c001604052806000801916815260200160608152602001606081526020016000815260200160608152602001600081525090565b611e5491905b8082111561339c57600081556001016133df56fee4b15a551fc7f1c535736e08118cbf9622dc7104fbc63bc36ab16524aa9935d9a165627a7a7230582067628cf1d4f1f276ccff54ee5645027071f2b90ca7a8f3badc5e6093d826bf890029",
  "source": "pragma solidity >=0.4.21 <0.6.0;\r\n\r\ncontract AdminContract {\r\n    \r\n    struct Admin{\r\n        string email;\r\n        bytes32 emailCode;\r\n        bytes32 passwordCode;\r\n        bytes32 passwordRestToken;\r\n        string name;\r\n        uint contactNumber;\r\n        string userAddress;\r\n        uint userAccess;\r\n        uint index;\r\n    }\r\n\r\n    struct DisplayAdmin{\r\n        bytes32 emailCode;\r\n        string email;\r\n        string name;\r\n        uint contactNumber;\r\n        string userAddress;\r\n        uint userAccess;\r\n    }\r\n    \r\n    event LogNewAdmin(\r\n        bytes32 indexed emailCode,\r\n        uint index,string email,\r\n        bytes32 passwordCode,\r\n        bytes32 passwordRestToken,\r\n        string name,\r\n        uint contactNumber,\r\n        string userAddress,\r\n        uint userAccess\r\n        );\r\n    event LogUpdateAdmin(\r\n        bytes32 indexed emailCode,\r\n        uint index,string email,\r\n        bytes32 passwordCode,\r\n        bytes32 passwordRestToken,\r\n        string name,\r\n        uint contactNumber,\r\n        string userAddress,\r\n        uint userAccess\r\n        );\r\n    event LogDeleteAdmin(\r\n        bytes32 indexed emailcode,\r\n        uint index\r\n        );\r\n        \r\n    struct RegistationToken{\r\n        bytes32 emailCode;\r\n        bytes32 token;\r\n    }\r\n        \r\n    mapping(bytes32 => Admin) public adminArray;\r\n    DisplayAdmin[] private adminIndex;\r\n    mapping(bytes32 => RegistationToken) private adminRegistationToken;\r\n    \r\n    function isAdmin(bytes32 _emailCode)public view returns(bool isIndeed) {\r\n        if(adminIndex.length == 0) return false;\r\n        return (adminIndex[adminArray[_emailCode].index].emailCode == _emailCode);\r\n    }\r\n    function isAdminx(string memory _email)public view returns(bool isIndeed) {\r\n        bytes32 _emailCode = keccak256(abi.encodePacked((_email)));\r\n        if(adminIndex.length == 0) return false;\r\n        return (adminIndex[adminArray[_emailCode].index].emailCode == _emailCode);\r\n    }\r\n    function createAdminToken(bytes32 _emailCode)public returns(bytes32){\r\n        bytes32 token = randomtoken();\r\n        if(adminRegistationToken[_emailCode].emailCode != _emailCode){\r\n            adminRegistationToken[_emailCode].emailCode = _emailCode;\r\n        }\r\n        adminRegistationToken[_emailCode].token = token;\r\n        return token;\r\n    }\r\n    function randomtoken() private view returns (bytes32) {\r\n       return keccak256(abi.encodePacked( block.timestamp, block.difficulty));\r\n    }\r\n    function setDisplayAdmin(bytes32 _emailCode,string memory _email,string memory _name,uint _telephone,string memory _address)\r\n     private returns(bool){\r\n\r\n        DisplayAdmin memory displayAdmin;\r\n        displayAdmin.emailCode = _emailCode;\r\n        displayAdmin.email = _email;\r\n        displayAdmin.name = _name;\r\n        displayAdmin.contactNumber = _telephone;\r\n        displayAdmin.userAddress = _address;\r\n        displayAdmin.userAccess = 1;\r\n        adminIndex.push(displayAdmin);\r\n        return true;\r\n\r\n    }\r\n    function insertAdmin(string memory _email,string memory _name,string memory _address,uint _telephone) public returns(bool){\r\n        bytes32 _emailCode = keccak256(abi.encodePacked((_email)));\r\n        bytes32 _passwordCode = keccak256(abi.encodePacked((\"a\")));\r\n        require(isAdmin(_emailCode) != true,'user allredy in system');\r\n\r\n        adminArray[_emailCode].email = _email;\r\n        adminArray[_emailCode].emailCode = _emailCode;\r\n        adminArray[_emailCode].passwordCode = _passwordCode;\r\n        adminArray[_emailCode].passwordRestToken = createAdminToken(_emailCode);\r\n        adminArray[_emailCode].name = _name;\r\n        adminArray[_emailCode].contactNumber = _telephone;\r\n        adminArray[_emailCode].userAddress = _address;\r\n        adminArray[_emailCode].userAccess = 1;\r\n        setDisplayAdmin(_emailCode,_email,_name,_telephone,_address);\r\n        adminArray[_emailCode].index = adminIndex.length-1;\r\n\r\n        emit LogNewAdmin (\r\n            _emailCode,\r\n            adminArray[_emailCode].index,\r\n            _email,\r\n            adminArray[_emailCode].passwordCode,\r\n            adminArray[_emailCode].passwordRestToken,\r\n            _name,\r\n            _telephone,\r\n            _address,\r\n            adminArray[_emailCode].userAccess\r\n            );\r\n        return true;\r\n    }\r\n    function deleteAdmin (bytes32 email) public returns(string memory){\r\n        uint i;\r\n        string memory name;\r\n        delete adminRegistationToken[email];\r\n        adminArray[email].userAccess = 4;\r\n        adminIndex[adminArray[email].index].userAccess = 4;\r\n        name = adminIndex[adminArray[email].index].name;\r\n        emit LogDeleteAdmin(\r\n            email,\r\n            adminArray[email].index\r\n        );\r\n        return name;\r\n    }\r\n    function blockAdmin(bytes32 email) public returns(string memory)\r\n    {\r\n        string memory name;\r\n        if(adminArray[email].userAccess == 5){\r\n        adminArray[email].userAccess = 3;\r\n        adminIndex[adminArray[email].index].userAccess = 3;\r\n        name = adminIndex[adminArray[email].index].name;\r\n        }\r\n        if(adminArray[email].userAccess == 3){\r\n        adminArray[email].userAccess = 5;\r\n        adminIndex[adminArray[email].index].userAccess = 5;\r\n        name = adminIndex[adminArray[email].index].name;\r\n        }\r\n        return name;\r\n    }\r\n    function editUserAccess(string memory _email,uint usreAccess)public returns(bool){\r\n        bytes32 email = keccak256(abi.encodePacked((_email)));\r\n        adminArray[email].userAccess = usreAccess;\r\n        adminIndex[adminArray[email].index].userAccess = usreAccess;\r\n        return true;\r\n\r\n    }\r\n    function getAdmin(string memory _email) public view returns(bytes32,string memory email,string memory name,\r\n    uint contactNumber,string memory userAddress, uint userAccess){\r\n        bytes32 _emailCode = keccak256(abi.encodePacked((_email)));\r\n        require(isAdmin(_emailCode) == true,'user not in system');\r\n        return(\r\n            _emailCode,\r\n            adminArray[_emailCode].email,\r\n            adminArray[_emailCode].name,\r\n            adminArray[_emailCode].contactNumber,\r\n            adminArray[_emailCode].userAddress,\r\n            adminArray[_emailCode].userAccess\r\n            );\r\n    }\r\n    function getAdmini(uint i) public view returns(\r\n        bytes32,\r\n        string memory,\r\n        string memory,\r\n        uint,\r\n        string memory,\r\n        uint\r\n        ){\r\n            return (\r\n                adminIndex[i].emailCode,\r\n                adminIndex[i].email,\r\n                adminIndex[i].name,\r\n                adminIndex[i].contactNumber,\r\n                adminIndex[i].userAddress,\r\n                adminIndex[i].userAccess\r\n                );\r\n    }\r\n    function getAdminCount() public view returns(uint)\r\n    {\r\n        return adminIndex.length;\r\n    }\r\n    \r\n    // function updateUserEmail(address userAddress, bytes32 userEmail) public returns(bool success)\r\n    // {\r\n    //     userStructs[userAddress].userEmail = userEmail;\r\n    //     emit LogUpdateUser(userAddress,  userStructs[userAddress].index, userEmail, userStructs[userAddress].userAge);\r\n    //     return true;\r\n    // }\r\n    function updateAdminName (string memory _email,string memory _name) public returns(bool success){\r\n        bytes32 _emailCode = keccak256(abi.encodePacked((_email)));\r\n        require(isAdmin(_emailCode) == true,'user not in system');\r\n        adminArray[_emailCode].name = _name;\r\n        adminIndex[adminArray[_emailCode].index].name = _name;\r\n        emit LogUpdateAdmin(\r\n            _emailCode,\r\n            adminArray[_emailCode].index,\r\n            _email,\r\n            adminArray[_emailCode].passwordCode,\r\n            adminArray[_emailCode].passwordRestToken,\r\n            _name,\r\n            adminArray[_emailCode].contactNumber,\r\n            adminArray[_emailCode].userAddress,\r\n            adminArray[_emailCode].userAccess\r\n            );\r\n        return true;\r\n    }\r\n    function updateAdminAddress (string memory _email,string memory _userAddress) public returns(bool success){\r\n        bytes32 _emailCode = keccak256(abi.encodePacked((_email)));\r\n        require(isAdmin(_emailCode) == true,'user not in system');\r\n        adminArray[_emailCode].userAddress = _userAddress;\r\n        adminIndex[adminArray[_emailCode].index].userAddress = _userAddress;\r\n        emit LogUpdateAdmin(\r\n            _emailCode,\r\n            adminArray[_emailCode].index,\r\n            _email,\r\n            adminArray[_emailCode].passwordCode,\r\n            adminArray[_emailCode].passwordRestToken,\r\n            adminArray[_emailCode].name,\r\n            adminArray[_emailCode].contactNumber,\r\n            _userAddress,\r\n            adminArray[_emailCode].userAccess\r\n            );\r\n        return true;\r\n    }\r\n    function updateAdminContactNumber (string memory _email,uint _contactNumber) public returns(bool success){\r\n        bytes32 _emailCode = keccak256(abi.encodePacked((_email)));\r\n        require(isAdmin(_emailCode) == true,'user not in system');\r\n        adminArray[_emailCode].contactNumber = _contactNumber;\r\n        adminIndex[adminArray[_emailCode].index].contactNumber = _contactNumber;\r\n        emit LogUpdateAdmin(\r\n            _emailCode,\r\n            adminArray[_emailCode].index,\r\n            _email,\r\n            adminArray[_emailCode].passwordCode,\r\n            adminArray[_emailCode].passwordRestToken,\r\n            adminArray[_emailCode].name,\r\n            _contactNumber,\r\n            adminArray[_emailCode].userAddress,\r\n            adminArray[_emailCode].userAccess\r\n            );\r\n        return true;\r\n    }\r\n    function updateAdmin(\r\n        string memory _email,\r\n        uint[] memory index,\r\n        string memory _name,\r\n        string memory _userAddress,\r\n        uint _contactNumber\r\n        ) public returns(bool success){\r\n        bytes32 _emailCode = keccak256(abi.encodePacked((_email)));\r\n        require(isAdmin(_emailCode) == true,'user not in system');\r\n        uint i;\r\n        uint num = adminArray[_emailCode].index;\r\n\r\n        for (i = 0;i<index.length;i++){\r\n            if(index[i]==1){\r\n                adminArray[_emailCode].name = _name;\r\n                adminIndex[num].name = _name;\r\n                emit LogUpdateAdmin(\r\n                    _emailCode,\r\n                    adminArray[_emailCode].index,\r\n                    _email,adminArray[_emailCode].passwordCode,\r\n                    adminArray[_emailCode].passwordRestToken,\r\n                    _name,\r\n                    adminArray[_emailCode].contactNumber,\r\n                    adminArray[_emailCode].userAddress,\r\n                    adminArray[_emailCode].userAccess\r\n                    );\r\n\r\n            }\r\n            else if(index[i]==2){\r\n                adminArray[_emailCode].userAddress = _userAddress;\r\n\r\n                adminIndex[num].userAddress = _userAddress;\r\n\r\n                emit LogUpdateAdmin(\r\n                    _emailCode,\r\n                    adminArray[_emailCode].index,\r\n                    _email,\r\n                    adminArray[_emailCode].passwordCode,\r\n                    adminArray[_emailCode].passwordRestToken,\r\n                    adminArray[_emailCode].name,\r\n                    adminArray[_emailCode].contactNumber,\r\n                    _userAddress,\r\n                    adminArray[_emailCode].userAccess\r\n                    );\r\n\r\n            }\r\n            else if(index[i]==3){\r\n                adminArray[_emailCode].contactNumber = _contactNumber;\r\n                adminIndex[num].contactNumber = _contactNumber;\r\n                emit LogUpdateAdmin(\r\n                    _emailCode,\r\n                    adminArray[_emailCode].index,\r\n                    _email,\r\n                    adminArray[_emailCode].passwordCode,\r\n                    adminArray[_emailCode].passwordRestToken,\r\n                    adminArray[_emailCode].name,\r\n                    _contactNumber,\r\n                    adminArray[_emailCode].userAddress,\r\n                    adminArray[_emailCode].userAccess\r\n                    );\r\n\r\n            }\r\n        }\r\n        return true;\r\n    }\r\n    ///////\r\n    function updateAdminiEmail (string memory _email) public returns(bool success)\r\n    {\r\n       // return true;\r\n    }\r\n    function checkAdminUserAccess(bytes32 email)public view returns(uint userAccess){\r\n        \r\n        return adminArray[email].userAccess;\r\n    }\r\n    function checkAdminPasswordCode(bytes32 email) public view returns(bytes32 passwordCode ){\r\n        return adminArray[email].passwordCode;\r\n    }\r\n}",
  "sourcePath": "C:\\project\\tea supply chain mangement system\\test2\\contracts\\Admin.sol",
  "compiler": {
    "name": "solc",
    "version": "0.5.8+commit.23d335f2.Emscripten.clang"
  },
  "schemaVersion": "3.0.16",
  "updatedAt": "2020-01-11T01:40:50.289Z",
  "devdoc": {
    "methods": {}
  },
  "userdoc": {
    "methods": {
      "updateAdminiEmail(string)": {
        "notice": "////"
      }
    }
  }
}