{
  "contractName": "AdminContract",
  "abi": [
    {
      "constant": true,
      "inputs": [
        {
          "name": "",
          "type": "bytes32"
        }
      ],
      "name": "adminArray",
      "outputs": [
        {
          "name": "email",
          "type": "string"
        },
        {
          "name": "emailCode",
          "type": "bytes32"
        },
        {
          "name": "passwordCode",
          "type": "bytes32"
        },
        {
          "name": "passwordRestToken",
          "type": "bytes32"
        },
        {
          "name": "name",
          "type": "string"
        },
        {
          "name": "contactNumber",
          "type": "uint256"
        },
        {
          "name": "userAddress",
          "type": "string"
        },
        {
          "name": "userAccess",
          "type": "uint256"
        },
        {
          "name": "index",
          "type": "uint256"
        }
      ],
      "payable": false,
      "stateMutability": "view",
      "type": "function"
    },
    {
      "anonymous": false,
      "inputs": [
        {
          "indexed": true,
          "name": "emailCode",
          "type": "bytes32"
        },
        {
          "indexed": false,
          "name": "index",
          "type": "uint256"
        },
        {
          "indexed": false,
          "name": "email",
          "type": "string"
        },
        {
          "indexed": false,
          "name": "passwordCode",
          "type": "bytes32"
        },
        {
          "indexed": false,
          "name": "passwordRestToken",
          "type": "bytes32"
        },
        {
          "indexed": false,
          "name": "name",
          "type": "string"
        },
        {
          "indexed": false,
          "name": "contactNumber",
          "type": "uint256"
        },
        {
          "indexed": false,
          "name": "userAddress",
          "type": "string"
        },
        {
          "indexed": false,
          "name": "userAccess",
          "type": "uint256"
        }
      ],
      "name": "LogNewAdmin",
      "type": "event"
    },
    {
      "anonymous": false,
      "inputs": [
        {
          "indexed": true,
          "name": "emailCode",
          "type": "bytes32"
        },
        {
          "indexed": false,
          "name": "index",
          "type": "uint256"
        },
        {
          "indexed": false,
          "name": "email",
          "type": "string"
        },
        {
          "indexed": false,
          "name": "passwordCode",
          "type": "bytes32"
        },
        {
          "indexed": false,
          "name": "passwordRestToken",
          "type": "bytes32"
        },
        {
          "indexed": false,
          "name": "name",
          "type": "string"
        },
        {
          "indexed": false,
          "name": "contactNumber",
          "type": "uint256"
        },
        {
          "indexed": false,
          "name": "userAddress",
          "type": "string"
        },
        {
          "indexed": false,
          "name": "userAccess",
          "type": "uint256"
        }
      ],
      "name": "LogUpdateAdmin",
      "type": "event"
    },
    {
      "anonymous": false,
      "inputs": [
        {
          "indexed": true,
          "name": "emailcode",
          "type": "bytes32"
        },
        {
          "indexed": false,
          "name": "index",
          "type": "uint256"
        }
      ],
      "name": "LogDeleteAdmin",
      "type": "event"
    },
    {
      "constant": true,
      "inputs": [
        {
          "name": "_emailCode",
          "type": "bytes32"
        }
      ],
      "name": "isAdmin",
      "outputs": [
        {
          "name": "isIndeed",
          "type": "bool"
        }
      ],
      "payable": false,
      "stateMutability": "view",
      "type": "function"
    },
    {
      "constant": true,
      "inputs": [
        {
          "name": "_email",
          "type": "string"
        }
      ],
      "name": "isAdminx",
      "outputs": [
        {
          "name": "isIndeed",
          "type": "bool"
        }
      ],
      "payable": false,
      "stateMutability": "view",
      "type": "function"
    },
    {
      "constant": false,
      "inputs": [
        {
          "name": "_email",
          "type": "string"
        },
        {
          "name": "_name",
          "type": "string"
        },
        {
          "name": "_address",
          "type": "string"
        },
        {
          "name": "_telephone",
          "type": "uint256"
        }
      ],
      "name": "insertAdmin",
      "outputs": [
        {
          "name": "",
          "type": "bool"
        }
      ],
      "payable": false,
      "stateMutability": "nonpayable",
      "type": "function"
    },
    {
      "constant": false,
      "inputs": [
        {
          "name": "email",
          "type": "bytes32"
        }
      ],
      "name": "deleteAdmin",
      "outputs": [
        {
          "name": "",
          "type": "string"
        }
      ],
      "payable": false,
      "stateMutability": "nonpayable",
      "type": "function"
    },
    {
      "constant": false,
      "inputs": [
        {
          "name": "email",
          "type": "bytes32"
        }
      ],
      "name": "blockAdmin",
      "outputs": [
        {
          "name": "",
          "type": "string"
        }
      ],
      "payable": false,
      "stateMutability": "nonpayable",
      "type": "function"
    },
    {
      "constant": false,
      "inputs": [
        {
          "name": "_email",
          "type": "string"
        },
        {
          "name": "usreAccess",
          "type": "uint256"
        }
      ],
      "name": "editUserAccess",
      "outputs": [
        {
          "name": "",
          "type": "bool"
        }
      ],
      "payable": false,
      "stateMutability": "nonpayable",
      "type": "function"
    },
    {
      "constant": true,
      "inputs": [
        {
          "name": "_email",
          "type": "string"
        }
      ],
      "name": "getAdmin",
      "outputs": [
        {
          "name": "",
          "type": "bytes32"
        },
        {
          "name": "email",
          "type": "string"
        },
        {
          "name": "name",
          "type": "string"
        },
        {
          "name": "contactNumber",
          "type": "uint256"
        },
        {
          "name": "userAddress",
          "type": "string"
        },
        {
          "name": "userAccess",
          "type": "uint256"
        }
      ],
      "payable": false,
      "stateMutability": "view",
      "type": "function"
    },
    {
      "constant": true,
      "inputs": [
        {
          "name": "i",
          "type": "uint256"
        }
      ],
      "name": "getAdmini",
      "outputs": [
        {
          "name": "",
          "type": "bytes32"
        },
        {
          "name": "",
          "type": "string"
        },
        {
          "name": "",
          "type": "string"
        },
        {
          "name": "",
          "type": "uint256"
        },
        {
          "name": "",
          "type": "string"
        },
        {
          "name": "",
          "type": "uint256"
        }
      ],
      "payable": false,
      "stateMutability": "view",
      "type": "function"
    },
    {
      "constant": true,
      "inputs": [],
      "name": "getAdminCount",
      "outputs": [
        {
          "name": "",
          "type": "uint256"
        }
      ],
      "payable": false,
      "stateMutability": "view",
      "type": "function"
    },
    {
      "constant": false,
      "inputs": [
        {
          "name": "_email",
          "type": "string"
        },
        {
          "name": "_name",
          "type": "string"
        }
      ],
      "name": "updateAdminName",
      "outputs": [
        {
          "name": "success",
          "type": "bool"
        }
      ],
      "payable": false,
      "stateMutability": "nonpayable",
      "type": "function"
    },
    {
      "constant": false,
      "inputs": [
        {
          "name": "_email",
          "type": "string"
        },
        {
          "name": "_userAddress",
          "type": "string"
        }
      ],
      "name": "updateAdminAddress",
      "outputs": [
        {
          "name": "success",
          "type": "bool"
        }
      ],
      "payable": false,
      "stateMutability": "nonpayable",
      "type": "function"
    },
    {
      "constant": false,
      "inputs": [
        {
          "name": "_email",
          "type": "string"
        },
        {
          "name": "_contactNumber",
          "type": "uint256"
        }
      ],
      "name": "updateAdminContactNumber",
      "outputs": [
        {
          "name": "success",
          "type": "bool"
        }
      ],
      "payable": false,
      "stateMutability": "nonpayable",
      "type": "function"
    },
    {
      "constant": false,
      "inputs": [
        {
          "name": "_email",
          "type": "string"
        },
        {
          "name": "index",
          "type": "uint256[]"
        },
        {
          "name": "_name",
          "type": "string"
        },
        {
          "name": "_userAddress",
          "type": "string"
        },
        {
          "name": "_contactNumber",
          "type": "uint256"
        }
      ],
      "name": "updateAdmin",
      "outputs": [
        {
          "name": "success",
          "type": "bool"
        }
      ],
      "payable": false,
      "stateMutability": "nonpayable",
      "type": "function"
    },
    {
      "constant": false,
      "inputs": [
        {
          "name": "_email",
          "type": "string"
        }
      ],
      "name": "updateAdminiEmail",
      "outputs": [
        {
          "name": "success",
          "type": "bool"
        }
      ],
      "payable": false,
      "stateMutability": "nonpayable",
      "type": "function"
    },
    {
      "constant": true,
      "inputs": [
        {
          "name": "email",
          "type": "bytes32"
        }
      ],
      "name": "checkAdminUserAccess",
      "outputs": [
        {
          "name": "userAccess",
          "type": "uint256"
        }
      ],
      "payable": false,
      "stateMutability": "view",
      "type": "function"
    },
    {
      "constant": true,
      "inputs": [
        {
          "name": "email",
          "type": "bytes32"
        }
      ],
      "name": "checkAdminPasswordCode",
      "outputs": [
        {
          "name": "passwordCode",
          "type": "bytes32"
        }
      ],
      "payable": false,
      "stateMutability": "view",
      "type": "function"
    }
  ],
  "bytecode": "0x608060405234801561001057600080fd5b50613580806100206000396000f3fe608060405234801561001057600080fd5b506004361061010b5760003560e01c80638ab5626f116100a2578063c4c755ca11610071578063c4c755ca14610a76578063e4fa3a9314610ca8578063e6d218d914610cc5578063f06e51ca14610d69578063f9e10ce914610e0d5761010b565b80638ab5626f1461060a5780638b7bf3eb14610795578063accbdf471461079d578063b45ecca81461094d5761010b565b806374a1cba1116100de57806374a1cba11461031f57806375580b551461033c578063806137f61461046557806389a42120146105db5761010b565b806309a53252146101105780631f24f8a5146101ca5780636609b7cc1461025c57806372d1448014610302575b600080fd5b6101b66004803603604081101561012657600080fd5b810190602081018135600160201b81111561014057600080fd5b82018360208201111561015257600080fd5b803590602001918460018302840111600160201b8311171561017357600080fd5b91908080601f0160208091040260200160405190810160405280939291908181526020018383808284376000920191909152509295505091359250610eb1915050565b604080519115158252519081900360200190f35b6101e7600480360360208110156101e057600080fd5b50356111e7565b6040805160208082528351818301528351919283929083019185019080838360005b83811015610221578181015183820152602001610209565b50505050905090810190601f16801561024e5780820380516001836020036101000a031916815260200191505b509250505060405180910390f35b6101b66004803603604081101561027257600080fd5b810190602081018135600160201b81111561028c57600080fd5b82018360208201111561029e57600080fd5b803590602001918460018302840111600160201b831117156102bf57600080fd5b91908080601f016020809104026020016040519081016040528093929190818152602001838380828437600092019190915250929550509135925061141a915050565b6101b66004803603602081101561031857600080fd5b50356114d2565b6101e76004803603602081101561033557600080fd5b503561151f565b6101b66004803603604081101561035257600080fd5b810190602081018135600160201b81111561036c57600080fd5b82018360208201111561037e57600080fd5b803590602001918460018302840111600160201b8311171561039f57600080fd5b91908080601f0160208091040260200160405190810160405280939291908181526020018383808284376000920191909152509295949360208101935035915050600160201b8111156103f157600080fd5b82018360208201111561040357600080fd5b803590602001918460018302840111600160201b8311171561042457600080fd5b91908080601f016020809104026020016040519081016040528093929190818152602001838380828437600092019190915250929550611764945050505050565b6104826004803603602081101561047b57600080fd5b5035611a68565b60405180878152602001806020018060200186815260200180602001858152602001848103845289818151815260200191508051906020019080838360005b838110156104d95781810151838201526020016104c1565b50505050905090810190601f1680156105065780820380516001836020036101000a031916815260200191505b5084810383528851815288516020918201918a019080838360005b83811015610539578181015183820152602001610521565b50505050905090810190601f1680156105665780820380516001836020036101000a031916815260200191505b50848103825286518152865160209182019188019080838360005b83811015610599578181015183820152602001610581565b50505050905090810190601f1680156105c65780820380516001836020036101000a031916815260200191505b50995050505050505050505060405180910390f35b6105f8600480360360208110156105f157600080fd5b5035611ceb565b60408051918252519081900360200190f35b6106276004803603602081101561062057600080fd5b5035611d00565b60405180806020018a8152602001898152602001888152602001806020018781526020018060200186815260200185815260200184810384528d818151815260200191508051906020019080838360005b83811015610690578181015183820152602001610678565b50505050905090810190601f1680156106bd5780820380516001836020036101000a031916815260200191505b5084810383528951815289516020918201918b019080838360005b838110156106f05781810151838201526020016106d8565b50505050905090810190601f16801561071d5780820380516001836020036101000a031916815260200191505b50848103825287518152875160209182019189019080838360005b83811015610750578181015183820152602001610738565b50505050905090810190601f16801561077d5780820380516001836020036101000a031916815260200191505b509c5050505050505050505050505060405180910390f35b6105f8611ef1565b6101b6600480360360808110156107b357600080fd5b810190602081018135600160201b8111156107cd57600080fd5b8201836020820111156107df57600080fd5b803590602001918460018302840111600160201b8311171561080057600080fd5b91908080601f0160208091040260200160405190810160405280939291908181526020018383808284376000920191909152509295949360208101935035915050600160201b81111561085257600080fd5b82018360208201111561086457600080fd5b803590602001918460018302840111600160201b8311171561088557600080fd5b91908080601f0160208091040260200160405190810160405280939291908181526020018383808284376000920191909152509295949360208101935035915050600160201b8111156108d757600080fd5b8201836020820111156108e957600080fd5b803590602001918460018302840111600160201b8311171561090a57600080fd5b91908080601f0160208091040260200160405190810160405280939291908181526020018383808284376000920191909152509295505091359250611ef8915050565b6101b66004803603604081101561096357600080fd5b810190602081018135600160201b81111561097d57600080fd5b82018360208201111561098f57600080fd5b803590602001918460018302840111600160201b831117156109b057600080fd5b91908080601f0160208091040260200160405190810160405280939291908181526020018383808284376000920191909152509295949360208101935035915050600160201b811115610a0257600080fd5b820183602082011115610a1457600080fd5b803590602001918460018302840111600160201b83111715610a3557600080fd5b91908080601f0160208091040260200160405190810160405280939291908181526020018383808284376000920191909152509295506122cd945050505050565b6101b6600480360360a0811015610a8c57600080fd5b810190602081018135600160201b811115610aa657600080fd5b820183602082011115610ab857600080fd5b803590602001918460018302840111600160201b83111715610ad957600080fd5b91908080601f0160208091040260200160405190810160405280939291908181526020018383808284376000920191909152509295949360208101935035915050600160201b811115610b2b57600080fd5b820183602082011115610b3d57600080fd5b803590602001918460208302840111600160201b83111715610b5e57600080fd5b9190808060200260200160405190810160405280939291908181526020018383602002808284376000920191909152509295949360208101935035915050600160201b811115610bad57600080fd5b820183602082011115610bbf57600080fd5b803590602001918460018302840111600160201b83111715610be057600080fd5b91908080601f0160208091040260200160405190810160405280939291908181526020018383808284376000920191909152509295949360208101935035915050600160201b811115610c3257600080fd5b820183602082011115610c4457600080fd5b803590602001918460018302840111600160201b83111715610c6557600080fd5b91908080601f016020809104026020016040519081016040528093929190818152602001838380828437600092019190915250929550509135925061261d915050565b6105f860048036036020811015610cbe57600080fd5b5035612ea7565b61048260048036036020811015610cdb57600080fd5b810190602081018135600160201b811115610cf557600080fd5b820183602082011115610d0757600080fd5b803590602001918460018302840111600160201b83111715610d2857600080fd5b91908080601f016020809104026020016040519081016040528093929190818152602001838380828437600092019190915250929550612ebc945050505050565b6101b660048036036020811015610d7f57600080fd5b810190602081018135600160201b811115610d9957600080fd5b820183602082011115610dab57600080fd5b803590602001918460018302840111600160201b83111715610dcc57600080fd5b91908080601f016020809104026020016040519081016040528093929190818152602001838380828437600092019190915250929550613176945050505050565b6101b660048036036020811015610e2357600080fd5b810190602081018135600160201b811115610e3d57600080fd5b820183602082011115610e4f57600080fd5b803590602001918460018302840111600160201b83111715610e7057600080fd5b91908080601f01602080910402602001604051908101604052809392919081815260200183838082843760009201919091525092955061323d945050505050565b600080836040516020018082805190602001908083835b60208310610ee75780518252601f199092019160209182019101610ec8565b6001836020036101000a038019825116818451168082178552505050505050905001915050604051602081830303815290604052805190602001209050610f2d816114d2565b1515600114610f7e5760408051600160e51b62461bcd0281526020600482015260126024820152600160701b7175736572206e6f7420696e2073797374656d02604482015290519081900360640190fd5b60008181526020819052604090206005810184905560080154600180548592908110610fa657fe5b9060005260206000209060060201600301819055508060008051602061353583398151915260008084815260200190815260200160002060080154866000808681526020019081526020016000206002015460008087815260200190815260200160002060030154600080888152602001908152602001600020600401896000808a81526020019081526020016000206006016000808b8152602001908152602001600020600701546040518089815260200180602001888152602001878152602001806020018681526020018060200185815260200184810384528b818151815260200191508051906020019080838360005b838110156110b257818101518382015260200161109a565b50505050905090810190601f1680156110df5780820380516001836020036101000a031916815260200191505b508481038352885460026000196101006001841615020190911604808252602090910190899080156111525780601f1061112757610100808354040283529160200191611152565b820191906000526020600020905b81548152906001019060200180831161113557829003601f168201915b50508481038252865460026000196101006001841615020190911604808252602090910190879080156111c65780601f1061119b576101008083540402835291602001916111c6565b820191906000526020600020905b8154815290600101906020018083116111a957829003601f168201915b50509b50505050505050505050505060405180910390a25060019392505050565b60606000815b6002548210156112c857836002838154811061120557fe5b90600052602060002090600202016000015414156112bd5760028054600019810190811061122f57fe5b9060005260206000209060020201600001546002838154811061124e57fe5b60009182526020909120600291820201919091558054600019810190811061127257fe5b9060005260206000209060020201600101546002838154811061129157fe5b90600052602060002090600202016001018190555060028054809190600190036112bb91906133fb565b505b6001909101906111ed565b60008481526020819052604090206004600782018190556008909101546001805490919081106112f457fe5b9060005260206000209060060201600501819055506001600080868152602001908152602001600020600801548154811061132b57fe5b600091825260209182902060026006909202018101805460408051601f6000196101006001861615020190931694909404918201859004850284018501905280835291929091908301828280156113c35780601f10611398576101008083540402835291602001916113c3565b820191906000526020600020905b8154815290600101906020018083116113a657829003601f168201915b50505060008781526020818152604091829020600801548251908152915194955088947f4e8bcb6b6008aa5ec72e5bc9e94a9b6e33366c23fd6447d9427295b2c1a2396b945091829003019150a29150505b919050565b600080836040516020018082805190602001908083835b602083106114505780518252601f199092019160209182019101611431565b51815160209384036101000a60001901801990921691161790526040805192909401828103601f190183528452815191810191909120600081815291829052929020600781018890556008015460018054939650889550935091821090506114b457fe5b60009182526020909120600560069092020101555060019392505050565b6001546000906114e457506000611415565b60008281526020819052604090206008015460018054849290811061150557fe5b906000526020600020906006020160000154149050919050565b60008181526020819052604090206007015460609081906005141561164157600083815260208190526040902060036007820181905560089091015460018054909190811061156a57fe5b906000526020600020906006020160050181905550600160008085815260200190815260200160002060080154815481106115a157fe5b600091825260209182902060026006909202018101805460408051601f6000196101006001861615020190931694909404918201859004850284018501905280835291929091908301828280156116395780601f1061160e57610100808354040283529160200191611639565b820191906000526020600020905b81548152906001019060200180831161161c57829003601f168201915b505050505090505b6000838152602081905260409020600701546003141561175e57600083815260208190526040902060056007820181905560089091015460018054909190811061168757fe5b906000526020600020906006020160050181905550600160008085815260200190815260200160002060080154815481106116be57fe5b600091825260209182902060026006909202018101805460408051601f6000196101006001861615020190931694909404918201859004850284018501905280835291929091908301828280156117565780601f1061172b57610100808354040283529160200191611756565b820191906000526020600020905b81548152906001019060200180831161173957829003601f168201915b505050505090505b92915050565b600080836040516020018082805190602001908083835b6020831061179a5780518252601f19909201916020918201910161177b565b6001836020036101000a0380198251168184511680821785525050505050509050019150506040516020818303038152906040528051906020012090506117e0816114d2565b15156001146118315760408051600160e51b62461bcd0281526020600482015260126024820152600160701b7175736572206e6f7420696e2073797374656d02604482015290519081900360640190fd5b60008181526020818152604090912084516118549260049092019186019061342c565b5060008181526020819052604090206008015460018054859290811061187657fe5b9060005260206000209060060201600201908051906020019061189a92919061342c565b50806000805160206135358339815191526000808481526020019081526020016000206008015486600080868152602001908152602001600020600201546000808781526020019081526020016000206003015488600080898152602001908152602001600020600501546000808a81526020019081526020016000206006016000808b8152602001908152602001600020600701546040518089815260200180602001888152602001878152602001806020018681526020018060200185815260200184810384528b818151815260200191508051906020019080838360005b8381101561199357818101518382015260200161197b565b50505050905090810190601f1680156119c05780820380516001836020036101000a031916815260200191505b5084810383528851815288516020918201918a019080838360005b838110156119f35781810151838201526020016119db565b50505050905090810190601f168015611a205780820380516001836020036101000a031916815260200191505b508481038252865460026000196101006001841615020190911604808252602090910190879080156111c65780601f1061119b576101008083540402835291602001916111c6565b600060608060006060600060018781548110611a8057fe5b90600052602060002090600602016000015460018881548110611a9f57fe5b906000526020600020906006020160010160018981548110611abd57fe5b906000526020600020906006020160020160018a81548110611adb57fe5b90600052602060002090600602016003015460018b81548110611afa57fe5b906000526020600020906006020160040160018c81548110611b1857fe5b600091825260209182902060056006909202010154855460408051601f600260001961010060018716150201909416939093049283018590048502810185019091528181529192879190830182828015611bb35780601f10611b8857610100808354040283529160200191611bb3565b820191906000526020600020905b815481529060010190602001808311611b9657829003601f168201915b5050875460408051602060026001851615610100026000190190941693909304601f8101849004840282018401909252818152959a5089945092508401905082828015611c415780601f10611c1657610100808354040283529160200191611c41565b820191906000526020600020905b815481529060010190602001808311611c2457829003601f168201915b5050855460408051602060026001851615610100026000190190941693909304601f810184900484028201840190925281815295995087945092508401905082828015611ccf5780601f10611ca457610100808354040283529160200191611ccf565b820191906000526020600020905b815481529060010190602001808311611cb257829003601f168201915b5050505050915095509550955095509550955091939550919395565b60009081526020819052604090206007015490565b6000602081815291815260409081902080548251601f600260001961010060018616150201909316929092049182018590048502810185019093528083529092839190830182828015611d945780601f10611d6957610100808354040283529160200191611d94565b820191906000526020600020905b815481529060010190602001808311611d7757829003601f168201915b505050505090806001015490806002015490806003015490806004018054600181600116156101000203166002900480601f016020809104026020016040519081016040528092919081815260200182805460018160011615610100020316600290048015611e445780601f10611e1957610100808354040283529160200191611e44565b820191906000526020600020905b815481529060010190602001808311611e2757829003601f168201915b50505050600583015460068401805460408051602060026001851615610100026000190190941693909304601f81018490048402820184019092528181529596939593945090830182828015611edb5780601f10611eb057610100808354040283529160200191611edb565b820191906000526020600020905b815481529060010190602001808311611ebe57829003601f168201915b5050505050908060070154908060080154905089565b6001545b90565b600080856040516020018082805190602001908083835b60208310611f2e5780518252601f199092019160209182019101611f0f565b6001836020036101000a03801982511681845116808217855250505050505090500191505060405160208183030381529060405280519060200120905060006040516020018080600160f81b6061028152506001019050604051602081830303815290604052805190602001209050611fa6826114d2565b1515600114156120005760408051600160e51b62461bcd02815260206004820152601660248201527f7573657220616c6c7265647920696e2073797374656d00000000000000000000604482015290519081900360640190fd5b600082815260208181526040909120885161201d928a019061342c565b5060008281526020819052604090206001810183905560020181905561204282613243565b6000838152602081815260409091206003810192909255875161206b926004019189019061342c565b506000828152602081815260409091206005810186905586516120969260069092019188019061342c565b50600082815260208190526040902060016007909101556120ba82888887896132c9565b50600180805490500360008084815260200190815260200160002060080181905550817f2d9d676840c870cc037bd86cc92e3231dc401cfe5b6a8cda2f2bda9c44e5234a600080858152602001908152602001600020600801548960008087815260200190815260200160002060020154600080888152602001908152602001600020600301548b8a8c6000808c8152602001908152602001600020600701546040518089815260200180602001888152602001878152602001806020018681526020018060200185815260200184810384528b818151815260200191508051906020019080838360005b838110156121bd5781810151838201526020016121a5565b50505050905090810190601f1680156121ea5780820380516001836020036101000a031916815260200191505b5084810383528851815288516020918201918a019080838360005b8381101561221d578181015183820152602001612205565b50505050905090810190601f16801561224a5780820380516001836020036101000a031916815260200191505b50848103825286518152865160209182019188019080838360005b8381101561227d578181015183820152602001612265565b50505050905090810190601f1680156122aa5780820380516001836020036101000a031916815260200191505b509b50505050505050505050505060405180910390a25060019695505050505050565b600080836040516020018082805190602001908083835b602083106123035780518252601f1990920191602091820191016122e4565b6001836020036101000a038019825116818451168082178552505050505050905001915050604051602081830303815290604052805190602001209050612349816114d2565b151560011461239a5760408051600160e51b62461bcd0281526020600482015260126024820152600160701b7175736572206e6f7420696e2073797374656d02604482015290519081900360640190fd5b60008181526020818152604090912084516123bd9260069092019186019061342c565b506000818152602081905260409020600801546001805485929081106123df57fe5b9060005260206000209060060201600401908051906020019061240392919061342c565b508060008051602061353583398151915260008084815260200190815260200160002060080154866000808681526020019081526020016000206002015460008087815260200190815260200160002060030154600080888152602001908152602001600020600401600080898152602001908152602001600020600501548a6000808b8152602001908152602001600020600701546040518089815260200180602001888152602001878152602001806020018681526020018060200185815260200184810384528b818151815260200191508051906020019080838360005b838110156124fc5781810151838201526020016124e4565b50505050905090810190601f1680156125295780820380516001836020036101000a031916815260200191505b5084810383528854600260001961010060018416150201909116048082526020909101908990801561259c5780601f106125715761010080835404028352916020019161259c565b820191906000526020600020905b81548152906001019060200180831161257f57829003601f168201915b5050848103825286518152865160209182019188019080838360005b838110156125d05781810151838201526020016125b8565b50505050905090810190601f1680156125fd5780820380516001836020036101000a031916815260200191505b509b50505050505050505050505060405180910390a25060019392505050565b600080866040516020018082805190602001908083835b602083106126535780518252601f199092019160209182019101612634565b6001836020036101000a038019825116818451168082178552505050505050905001915050604051602081830303815290604052805190602001209050612699816114d2565b15156001146126ea5760408051600160e51b62461bcd0281526020600482015260126024820152600160701b7175736572206e6f7420696e2073797374656d02604482015290519081900360640190fd5b6000818152602081905260408120600801545b8751821015612e985787828151811061271257fe5b60200260200101516001141561298d576000838152602081815260409091208851612745926004909201918a019061342c565b50866001828154811061275457fe5b9060005260206000209060060201600201908051906020019061277892919061342c565b5082600080516020613535833981519152600080868152602001908152602001600020600801548b60008088815260200190815260200160002060020154600080898152602001908152602001600020600301548c6000808b8152602001908152602001600020600501546000808c81526020019081526020016000206006016000808d8152602001908152602001600020600701546040518089815260200180602001888152602001878152602001806020018681526020018060200185815260200184810384528b818151815260200191508051906020019080838360005b83811015612871578181015183820152602001612859565b50505050905090810190601f16801561289e5780820380516001836020036101000a031916815260200191505b5084810383528851815288516020918201918a019080838360005b838110156128d15781810151838201526020016128b9565b50505050905090810190601f1680156128fe5780820380516001836020036101000a031916815260200191505b508481038252865460026000196101006001841615020190911604808252602090910190879080156129715780601f1061294657610100808354040283529160200191612971565b820191906000526020600020905b81548152906001019060200180831161295457829003601f168201915b50509b50505050505050505050505060405180910390a2612e8d565b87828151811061299957fe5b602002602001015160021415612c145760008381526020818152604090912087516129cc9260069092019189019061342c565b5085600182815481106129db57fe5b906000526020600020906006020160040190805190602001906129ff92919061342c565b5082600080516020613535833981519152600080868152602001908152602001600020600801548b60008088815260200190815260200160002060020154600080898152602001908152602001600020600301546000808a81526020019081526020016000206004016000808b8152602001908152602001600020600501548d6000808d8152602001908152602001600020600701546040518089815260200180602001888152602001878152602001806020018681526020018060200185815260200184810384528b818151815260200191508051906020019080838360005b83811015612af8578181015183820152602001612ae0565b50505050905090810190601f168015612b255780820380516001836020036101000a031916815260200191505b50848103835288546002600019610100600184161502019091160480825260209091019089908015612b985780601f10612b6d57610100808354040283529160200191612b98565b820191906000526020600020905b815481529060010190602001808311612b7b57829003601f168201915b5050848103825286518152865160209182019188019080838360005b83811015612bcc578181015183820152602001612bb4565b50505050905090810190601f168015612bf95780820380516001836020036101000a031916815260200191505b509b50505050505050505050505060405180910390a2612e8d565b878281518110612c2057fe5b602002602001015160031415612e8d5760008381526020819052604090206005018590556001805486919083908110612c5557fe5b90600052602060002090600602016003018190555082600080516020613535833981519152600080868152602001908152602001600020600801548b60008088815260200190815260200160002060020154600080898152602001908152602001600020600301546000808a81526020019081526020016000206004018b6000808c81526020019081526020016000206006016000808d8152602001908152602001600020600701546040518089815260200180602001888152602001878152602001806020018681526020018060200185815260200184810384528b818151815260200191508051906020019080838360005b83811015612d61578181015183820152602001612d49565b50505050905090810190601f168015612d8e5780820380516001836020036101000a031916815260200191505b50848103835288546002600019610100600184161502019091160480825260209091019089908015612e015780601f10612dd657610100808354040283529160200191612e01565b820191906000526020600020905b815481529060010190602001808311612de457829003601f168201915b5050848103825286546002600019610100600184161502019091160480825260209091019087908015612e755780601f10612e4a57610100808354040283529160200191612e75565b820191906000526020600020905b815481529060010190602001808311612e5857829003601f168201915b50509b50505050505050505050505060405180910390a25b6001909101906126fd565b50600198975050505050505050565b60009081526020819052604090206002015490565b600060608060006060600080876040516020018082805190602001908083835b60208310612efb5780518252601f199092019160209182019101612edc565b6001836020036101000a038019825116818451168082178552505050505050905001915050604051602081830303815290604052805190602001209050612f41816114d2565b1515600114612f925760408051600160e51b62461bcd0281526020600482015260126024820152600160701b7175736572206e6f7420696e2073797374656d02604482015290519081900360640190fd5b60008181526020818152604091829020600581015460078201548254855160026001831615610100026000190190921691909104601f81018690048602820186019096528581528695939460048601946006870193929187919083018282801561303d5780601f106130125761010080835404028352916020019161303d565b820191906000526020600020905b81548152906001019060200180831161302057829003601f168201915b5050875460408051602060026001851615610100026000190190941693909304601f8101849004840282018401909252818152959a50899450925084019050828280156130cb5780601f106130a0576101008083540402835291602001916130cb565b820191906000526020600020905b8154815290600101906020018083116130ae57829003601f168201915b5050855460408051602060026001851615610100026000190190941693909304601f8101849004840282018401909252818152959950879450925084019050828280156131595780601f1061312e57610100808354040283529160200191613159565b820191906000526020600020905b81548152906001019060200180831161313c57829003601f168201915b505050505091509650965096509650965096505091939550919395565b600080826040516020018082805190602001908083835b602083106131ac5780518252601f19909201916020918201910161318d565b6001836020036101000a03801982511681845116808217855250505050505090500191505060405160208183030381529060405280519060200120905060018054905060001415613201576000915050611415565b60008181526020819052604090206008015460018054839290811061322257fe5b90600052602060002090600602016000015414915050919050565b50600090565b60008061324e6133cf565b90506132586134aa565b83815260208101828152600280546001810182556000829052925192027f405787fa12a823e0f2b7631cc41b3ba8828b3321ca811111fa75cd3aa3bb5ace810192909255517f405787fa12a823e0f2b7631cc41b3ba8828b3321ca811111fa75cd3aa3bb5acf909101559050919050565b60006132d36134c1565b8681526020808201878152604083018790526060830186905260808301859052600160a084018190528054808201808355600092909252845160069091027fb10e2d527612073b26eecdfd717e6a320cf44b4afac2b0732d9fcbe2b7fa0cf6810191825592518051929486949293613371937fb10e2d527612073b26eecdfd717e6a320cf44b4afac2b0732d9fcbe2b7fa0cf701929091019061342c565b506040820151805161338d91600284019160209091019061342c565b5060608201516003820155608082015180516133b391600484019160209091019061342c565b5060a08201518160050155505050600191505095945050505050565b604080514260208083019190915244828401528251808303840181526060909201909252805191012090565b8154818355818111156134275760020281600202836000526020600020918201910161342791906134fa565b505050565b828054600181600116156101000203166002900490600052602060002090601f016020900481019282601f1061346d57805160ff191683800117855561349a565b8280016001018555821561349a579182015b8281111561349a57825182559160200191906001019061347f565b506134a692915061351a565b5090565b604080518082019091526000808252602082015290565b6040518060c001604052806000801916815260200160608152602001606081526020016000815260200160608152602001600081525090565b611ef591905b808211156134a65760008082556001820155600201613500565b611ef591905b808211156134a6576000815560010161352056fee4b15a551fc7f1c535736e08118cbf9622dc7104fbc63bc36ab16524aa9935d9a165627a7a723058208b5be225ff388e7a94278f0dcdde7498faf25ac1bb9c7e56a4861fedcbb6669c0029",
  "source": "pragma solidity >=0.4.21 <0.6.0;\n\ncontract AdminContract {\n    \n    struct Admin{\n        string email;\n        bytes32 emailCode;\n        bytes32 passwordCode;\n        bytes32 passwordRestToken;\n        string name;\n        uint contactNumber;\n        string userAddress;\n        uint userAccess;\n        uint index;\n    }\n\n    struct DisplayAdmin{\n        bytes32 emailCode;\n        string email;\n        string name;\n        uint contactNumber;\n        string userAddress;\n        uint userAccess;\n    }\n    \n    event LogNewAdmin(\n        bytes32 indexed emailCode,\n        uint index,string email,\n        bytes32 passwordCode,\n        bytes32 passwordRestToken,\n        string name,\n        uint contactNumber,\n        string userAddress,\n        uint userAccess\n        );\n    event LogUpdateAdmin(\n        bytes32 indexed emailCode,\n        uint index,string email,\n        bytes32 passwordCode,\n        bytes32 passwordRestToken,\n        string name,\n        uint contactNumber,\n        string userAddress,\n        uint userAccess\n        );\n    event LogDeleteAdmin(\n        bytes32 indexed emailcode,\n        uint index\n        );\n        \n    struct RegistationToken{\n        bytes32 emailCode;\n        bytes32 token;\n    }\n        \n    mapping(bytes32 => Admin) public adminArray;\n    DisplayAdmin[] private adminIndex;\n    RegistationToken[] private adminRegistationToken;\n    \n    function isAdmin(bytes32 _emailCode)public view returns(bool isIndeed) {\n        if(adminIndex.length == 0) return false;\n        return (adminIndex[adminArray[_emailCode].index].emailCode == _emailCode);\n    }\n    function isAdminx(string memory _email)public view returns(bool isIndeed) {\n        bytes32 _emailCode = keccak256(abi.encodePacked((_email)));\n        if(adminIndex.length == 0) return false;\n        return (adminIndex[adminArray[_emailCode].index].emailCode == _emailCode);\n    }\n    function createAdminToken(bytes32 _emailCode)private returns(bytes32){\n        bytes32 token = randomtoken();\n        RegistationToken memory registationToken;\n        registationToken.emailCode = _emailCode;\n        registationToken.token = token;\n        adminRegistationToken.push(registationToken);\n        return token;\n    }\n    function randomtoken() private view returns (bytes32) {\n       return keccak256(abi.encodePacked( block.timestamp, block.difficulty));\n    }\n    function setDisplayAdmin(bytes32 _emailCode,string memory _email,string memory _name,uint _telephone,string memory _address)\n     private returns(bool){\n\n        DisplayAdmin memory displayAdmin;\n        displayAdmin.emailCode = _emailCode;\n        displayAdmin.email = _email;\n        displayAdmin.name = _name;\n        displayAdmin.contactNumber = _telephone;\n        displayAdmin.userAddress = _address;\n        displayAdmin.userAccess = 1;\n        adminIndex.push(displayAdmin);\n        return true;\n\n    }\n    function insertAdmin(string memory _email,string memory _name,string memory _address,uint _telephone) public returns(bool){\n        bytes32 _emailCode = keccak256(abi.encodePacked((_email)));\n        bytes32 _passwordCode = keccak256(abi.encodePacked((\"a\")));\n        require(isAdmin(_emailCode) != true,'user allredy in system');\n\n        adminArray[_emailCode].email = _email;\n        adminArray[_emailCode].emailCode = _emailCode;\n        adminArray[_emailCode].passwordCode = _passwordCode;\n        adminArray[_emailCode].passwordRestToken = createAdminToken(_emailCode);\n        adminArray[_emailCode].name = _name;\n        adminArray[_emailCode].contactNumber = _telephone;\n        adminArray[_emailCode].userAddress = _address;\n        adminArray[_emailCode].userAccess = 1;\n        setDisplayAdmin(_emailCode,_email,_name,_telephone,_address);\n        adminArray[_emailCode].index = adminIndex.length-1;\n\n        emit LogNewAdmin (\n            _emailCode,\n            adminArray[_emailCode].index,\n            _email,\n            adminArray[_emailCode].passwordCode,\n            adminArray[_emailCode].passwordRestToken,\n            _name,\n            _telephone,\n            _address,\n            adminArray[_emailCode].userAccess\n            );\n        return true;\n    }\n    function deleteAdmin (bytes32 email) public returns(string memory){\n        uint i;\n        string memory name;\n        for( i = 0; i < adminRegistationToken.length; i++) {\n            if(adminRegistationToken[i].emailCode == email){\n                adminRegistationToken[i].emailCode = adminRegistationToken[adminRegistationToken.length-1].emailCode;\n                adminRegistationToken[i].token = adminRegistationToken[adminRegistationToken.length-1].token;\n                adminRegistationToken.length--;\n            }\n        }\n        adminArray[email].userAccess = 4;\n        adminIndex[adminArray[email].index].userAccess = 4;\n        name = adminIndex[adminArray[email].index].name;\n        emit LogDeleteAdmin(\n            email,\n            adminArray[email].index\n        );\n        return name;\n    }\n    function blockAdmin(bytes32 email) public returns(string memory)\n    {\n        string memory name;\n        if(adminArray[email].userAccess == 5){\n        adminArray[email].userAccess = 3;\n        adminIndex[adminArray[email].index].userAccess = 3;\n        name = adminIndex[adminArray[email].index].name;\n        }\n        if(adminArray[email].userAccess == 3){\n        adminArray[email].userAccess = 5;\n        adminIndex[adminArray[email].index].userAccess = 5;\n        name = adminIndex[adminArray[email].index].name;\n        }\n        return name;\n    }\n    function editUserAccess(string memory _email,uint usreAccess)public returns(bool){\n        bytes32 email = keccak256(abi.encodePacked((_email)));\n        adminArray[email].userAccess = usreAccess;\n        adminIndex[adminArray[email].index].userAccess = usreAccess;\n        return true;\n\n    }\n    function getAdmin(string memory _email) public view returns(bytes32,string memory email,string memory name,\n    uint contactNumber,string memory userAddress, uint userAccess){\n        bytes32 _emailCode = keccak256(abi.encodePacked((_email)));\n        require(isAdmin(_emailCode) == true,'user not in system');\n        return(\n            _emailCode,\n            adminArray[_emailCode].email,\n            adminArray[_emailCode].name,\n            adminArray[_emailCode].contactNumber,\n            adminArray[_emailCode].userAddress,\n            adminArray[_emailCode].userAccess\n            );\n    }\n    function getAdmini(uint i) public view returns(\n        bytes32,\n        string memory,\n        string memory,\n        uint,\n        string memory,\n        uint\n        ){\n            return (\n                adminIndex[i].emailCode,\n                adminIndex[i].email,\n                adminIndex[i].name,\n                adminIndex[i].contactNumber,\n                adminIndex[i].userAddress,\n                adminIndex[i].userAccess\n                );\n    }\n    function getAdminCount() public view returns(uint)\n    {\n        return adminIndex.length;\n    }\n    \n    // function updateUserEmail(address userAddress, bytes32 userEmail) public returns(bool success)\n    // {\n    //     userStructs[userAddress].userEmail = userEmail;\n    //     emit LogUpdateUser(userAddress,  userStructs[userAddress].index, userEmail, userStructs[userAddress].userAge);\n    //     return true;\n    // }\n    function updateAdminName (string memory _email,string memory _name) public returns(bool success){\n        bytes32 _emailCode = keccak256(abi.encodePacked((_email)));\n        require(isAdmin(_emailCode) == true,'user not in system');\n        adminArray[_emailCode].name = _name;\n        adminIndex[adminArray[_emailCode].index].name = _name;\n        emit LogUpdateAdmin(\n            _emailCode,\n            adminArray[_emailCode].index,\n            _email,\n            adminArray[_emailCode].passwordCode,\n            adminArray[_emailCode].passwordRestToken,\n            _name,\n            adminArray[_emailCode].contactNumber,\n            adminArray[_emailCode].userAddress,\n            adminArray[_emailCode].userAccess\n            );\n        return true;\n    }\n    function updateAdminAddress (string memory _email,string memory _userAddress) public returns(bool success){\n        bytes32 _emailCode = keccak256(abi.encodePacked((_email)));\n        require(isAdmin(_emailCode) == true,'user not in system');\n        adminArray[_emailCode].userAddress = _userAddress;\n        adminIndex[adminArray[_emailCode].index].userAddress = _userAddress;\n        emit LogUpdateAdmin(\n            _emailCode,\n            adminArray[_emailCode].index,\n            _email,\n            adminArray[_emailCode].passwordCode,\n            adminArray[_emailCode].passwordRestToken,\n            adminArray[_emailCode].name,\n            adminArray[_emailCode].contactNumber,\n            _userAddress,\n            adminArray[_emailCode].userAccess\n            );\n        return true;\n    }\n    function updateAdminContactNumber (string memory _email,uint _contactNumber) public returns(bool success){\n        bytes32 _emailCode = keccak256(abi.encodePacked((_email)));\n        require(isAdmin(_emailCode) == true,'user not in system');\n        adminArray[_emailCode].contactNumber = _contactNumber;\n        adminIndex[adminArray[_emailCode].index].contactNumber = _contactNumber;\n        emit LogUpdateAdmin(\n            _emailCode,\n            adminArray[_emailCode].index,\n            _email,\n            adminArray[_emailCode].passwordCode,\n            adminArray[_emailCode].passwordRestToken,\n            adminArray[_emailCode].name,\n            _contactNumber,\n            adminArray[_emailCode].userAddress,\n            adminArray[_emailCode].userAccess\n            );\n        return true;\n    }\n    function updateAdmin(\n        string memory _email,\n        uint[] memory index,\n        string memory _name,\n        string memory _userAddress,\n        uint _contactNumber\n        ) public returns(bool success){\n        bytes32 _emailCode = keccak256(abi.encodePacked((_email)));\n        require(isAdmin(_emailCode) == true,'user not in system');\n        uint i;\n        uint num = adminArray[_emailCode].index;\n\n        for (i = 0;i<index.length;i++){\n            if(index[i]==1){\n                adminArray[_emailCode].name = _name;\n                adminIndex[num].name = _name;\n                emit LogUpdateAdmin(\n                    _emailCode,\n                    adminArray[_emailCode].index,\n                    _email,adminArray[_emailCode].passwordCode,\n                    adminArray[_emailCode].passwordRestToken,\n                    _name,\n                    adminArray[_emailCode].contactNumber,\n                    adminArray[_emailCode].userAddress,\n                    adminArray[_emailCode].userAccess\n                    );\n\n            }\n            else if(index[i]==2){\n                adminArray[_emailCode].userAddress = _userAddress;\n\n                adminIndex[num].userAddress = _userAddress;\n\n                emit LogUpdateAdmin(\n                    _emailCode,\n                    adminArray[_emailCode].index,\n                    _email,\n                    adminArray[_emailCode].passwordCode,\n                    adminArray[_emailCode].passwordRestToken,\n                    adminArray[_emailCode].name,\n                    adminArray[_emailCode].contactNumber,\n                    _userAddress,\n                    adminArray[_emailCode].userAccess\n                    );\n\n            }\n            else if(index[i]==3){\n                adminArray[_emailCode].contactNumber = _contactNumber;\n                adminIndex[num].contactNumber = _contactNumber;\n                emit LogUpdateAdmin(\n                    _emailCode,\n                    adminArray[_emailCode].index,\n                    _email,\n                    adminArray[_emailCode].passwordCode,\n                    adminArray[_emailCode].passwordRestToken,\n                    adminArray[_emailCode].name,\n                    _contactNumber,\n                    adminArray[_emailCode].userAddress,\n                    adminArray[_emailCode].userAccess\n                    );\n\n            }\n        }\n        return true;\n    }\n    ///////\n    function updateAdminiEmail (string memory _email) public returns(bool success)\n    {\n       // return true;\n    }\n    function checkAdminUserAccess(bytes32 email)public view returns(uint userAccess){\n        \n        return adminArray[email].userAccess;\n    }\n    function checkAdminPasswordCode(bytes32 email) public view returns(bytes32 passwordCode ){\n        return adminArray[email].passwordCode;\n    }\n}",
  "sourcePath": "C:\\project\\tea supply chain mangement system\\test2\\contracts\\Admin.sol",
  "compiler": {
    "name": "solc",
    "version": "0.5.8+commit.23d335f2.Emscripten.clang"
  },
  "schemaVersion": "3.0.16",
  "updatedAt": "2019-12-04T03:38:15.200Z",
  "devdoc": {
    "methods": {}
  },
  "userdoc": {
    "methods": {
      "updateAdminiEmail(string)": {
        "notice": "////"
      }
    }
  }
}