{
  "contractName": "BlendSheetContract",
  "abi": [
    {
      "anonymous": false,
      "inputs": [
        {
          "indexed": true,
          "internalType": "bytes32",
          "name": "blendSheetIdcode",
          "type": "bytes32"
        },
        {
          "indexed": false,
          "internalType": "uint256",
          "name": "index",
          "type": "uint256"
        }
      ],
      "name": "LogDeleteBlendSheet",
      "type": "event"
    },
    {
      "anonymous": false,
      "inputs": [
        {
          "indexed": true,
          "internalType": "bytes32",
          "name": "blendSheetIdCode",
          "type": "bytes32"
        },
        {
          "indexed": false,
          "internalType": "uint256",
          "name": "index",
          "type": "uint256"
        },
        {
          "indexed": false,
          "internalType": "string",
          "name": "blendSheetId",
          "type": "string"
        },
        {
          "indexed": false,
          "internalType": "string",
          "name": "oderId",
          "type": "string"
        },
        {
          "indexed": false,
          "internalType": "string",
          "name": "date",
          "type": "string"
        },
        {
          "indexed": false,
          "internalType": "uint256",
          "name": "blendSheetAccess",
          "type": "uint256"
        }
      ],
      "name": "LogNewBlendSheet",
      "type": "event"
    },
    {
      "constant": true,
      "inputs": [
        {
          "internalType": "bytes32",
          "name": "",
          "type": "bytes32"
        }
      ],
      "name": "BlendSheetArray",
      "outputs": [
        {
          "internalType": "string",
          "name": "blendSheetId",
          "type": "string"
        },
        {
          "internalType": "bytes32",
          "name": "blendSheetIdCode",
          "type": "bytes32"
        },
        {
          "internalType": "string",
          "name": "orderId",
          "type": "string"
        },
        {
          "internalType": "string",
          "name": "date",
          "type": "string"
        },
        {
          "internalType": "uint256",
          "name": "blendSheetAccess",
          "type": "uint256"
        },
        {
          "internalType": "uint256",
          "name": "index",
          "type": "uint256"
        }
      ],
      "payable": false,
      "stateMutability": "view",
      "type": "function"
    },
    {
      "constant": true,
      "inputs": [
        {
          "internalType": "bytes32",
          "name": "_blendSheetIdCode",
          "type": "bytes32"
        }
      ],
      "name": "isBlendSheet",
      "outputs": [
        {
          "internalType": "bool",
          "name": "isIndeed",
          "type": "bool"
        }
      ],
      "payable": false,
      "stateMutability": "view",
      "type": "function"
    },
    {
      "constant": false,
      "inputs": [
        {
          "internalType": "string",
          "name": "_blendSheetId",
          "type": "string"
        },
        {
          "internalType": "string",
          "name": "_orderId",
          "type": "string"
        },
        {
          "internalType": "string",
          "name": "_date",
          "type": "string"
        }
      ],
      "name": "insertBlendSheet",
      "outputs": [
        {
          "internalType": "bool",
          "name": "",
          "type": "bool"
        }
      ],
      "payable": false,
      "stateMutability": "nonpayable",
      "type": "function"
    },
    {
      "constant": false,
      "inputs": [
        {
          "internalType": "bytes32",
          "name": "_blendSheetIdCode",
          "type": "bytes32"
        }
      ],
      "name": "deleteBlendSheet",
      "outputs": [
        {
          "internalType": "string",
          "name": "",
          "type": "string"
        }
      ],
      "payable": false,
      "stateMutability": "nonpayable",
      "type": "function"
    },
    {
      "constant": true,
      "inputs": [
        {
          "internalType": "string",
          "name": "_blendSheetId",
          "type": "string"
        }
      ],
      "name": "getBlendSheet",
      "outputs": [
        {
          "internalType": "bytes32",
          "name": "blendSheetIdCode",
          "type": "bytes32"
        },
        {
          "internalType": "string",
          "name": "blendSheetId",
          "type": "string"
        },
        {
          "internalType": "string",
          "name": "orderId",
          "type": "string"
        },
        {
          "internalType": "string",
          "name": "date",
          "type": "string"
        },
        {
          "internalType": "uint256",
          "name": "blendSheetAccess",
          "type": "uint256"
        },
        {
          "internalType": "uint256",
          "name": "estateIdCount",
          "type": "uint256"
        }
      ],
      "payable": false,
      "stateMutability": "view",
      "type": "function"
    },
    {
      "constant": true,
      "inputs": [
        {
          "internalType": "uint256",
          "name": "i",
          "type": "uint256"
        }
      ],
      "name": "getBlendSheeti",
      "outputs": [
        {
          "internalType": "bytes32",
          "name": "",
          "type": "bytes32"
        },
        {
          "internalType": "string",
          "name": "",
          "type": "string"
        },
        {
          "internalType": "string",
          "name": "",
          "type": "string"
        },
        {
          "internalType": "string",
          "name": "",
          "type": "string"
        },
        {
          "internalType": "uint256",
          "name": "",
          "type": "uint256"
        },
        {
          "internalType": "uint256",
          "name": "",
          "type": "uint256"
        }
      ],
      "payable": false,
      "stateMutability": "view",
      "type": "function"
    },
    {
      "constant": true,
      "inputs": [],
      "name": "getBlendSheetCount",
      "outputs": [
        {
          "internalType": "uint256",
          "name": "",
          "type": "uint256"
        }
      ],
      "payable": false,
      "stateMutability": "view",
      "type": "function"
    },
    {
      "constant": true,
      "inputs": [
        {
          "internalType": "bytes32",
          "name": "_blendSheetIdCode",
          "type": "bytes32"
        },
        {
          "internalType": "uint256",
          "name": "i",
          "type": "uint256"
        }
      ],
      "name": "getBlendSheetEstatei",
      "outputs": [
        {
          "internalType": "string",
          "name": "",
          "type": "string"
        }
      ],
      "payable": false,
      "stateMutability": "view",
      "type": "function"
    },
    {
      "constant": false,
      "inputs": [
        {
          "internalType": "bytes32",
          "name": "_blendSheetIdCode",
          "type": "bytes32"
        },
        {
          "internalType": "string",
          "name": "estateId",
          "type": "string"
        }
      ],
      "name": "addEstate",
      "outputs": [
        {
          "internalType": "bool",
          "name": "",
          "type": "bool"
        }
      ],
      "payable": false,
      "stateMutability": "nonpayable",
      "type": "function"
    }
  ],
  "bytecode": "0x608060405234801561001057600080fd5b50611644806100206000396000f3fe608060405234801561001057600080fd5b50600436106100935760003560e01c806374c206861161006657806374c206861461030457806381c81ce6146103fe5780639ebbdc4c1461041b578063d34fe180146104ad578063ed89b4d51461065b57610093565b80633390d332146100985780633551480c146100c9578063567b4a79146100e357806372eeb57f14610259575b600080fd5b6100b5600480360360208110156100ae57600080fd5b503561067e565b604080519115158252519081900360200190f35b6100d16106cc565b60408051918252519081900360200190f35b610100600480360360208110156100f957600080fd5b50356106d3565b6040518080602001878152602001806020018060200186815260200185815260200184810384528a818151815260200191508051906020019080838360005b8381101561015757818101518382015260200161013f565b50505050905090810190601f1680156101845780820380516001836020036101000a031916815260200191505b5084810383528851815288516020918201918a019080838360005b838110156101b757818101518382015260200161019f565b50505050905090810190601f1680156101e45780820380516001836020036101000a031916815260200191505b50848103825287518152875160209182019189019080838360005b838110156102175781810151838201526020016101ff565b50505050905090810190601f1680156102445780820380516001836020036101000a031916815260200191505b50995050505050505050505060405180910390f35b6100b56004803603604081101561026f57600080fd5b81359190810190604081016020820135600160201b81111561029057600080fd5b8201836020820111156102a257600080fd5b803590602001918460018302840111600160201b831117156102c357600080fd5b91908080601f0160208091040260200160405190810160405280939291908181526020018383808284376000920191909152509295506108b1945050505050565b6103a86004803603602081101561031a57600080fd5b810190602081018135600160201b81111561033457600080fd5b82018360208201111561034657600080fd5b803590602001918460018302840111600160201b8311171561036757600080fd5b91908080601f01602080910402602001604051908101604052809392919081815260200183838082843760009201919091525092955061094f945050505050565b60405180878152602001806020018060200180602001868152602001858152602001848103845289818151815260200191508051906020019080838360008381101561015757818101518382015260200161013f565b6103a86004803603602081101561041457600080fd5b5035610c0c565b6104386004803603602081101561043157600080fd5b5035610e8e565b6040805160208082528351818301528351919283929083019185019080838360005b8381101561047257818101518382015260200161045a565b50505050905090810190601f16801561049f5780820380516001836020036101000a031916815260200191505b509250505060405180910390f35b6100b5600480360360608110156104c357600080fd5b810190602081018135600160201b8111156104dd57600080fd5b8201836020820111156104ef57600080fd5b803590602001918460018302840111600160201b8311171561051057600080fd5b91908080601f0160208091040260200160405190810160405280939291908181526020018383808284376000920191909152509295949360208101935035915050600160201b81111561056257600080fd5b82018360208201111561057457600080fd5b803590602001918460018302840111600160201b8311171561059557600080fd5b91908080601f0160208091040260200160405190810160405280939291908181526020018383808284376000920191909152509295949360208101935035915050600160201b8111156105e757600080fd5b8201836020820111156105f957600080fd5b803590602001918460018302840111600160201b8311171561061a57600080fd5b91908080601f016020809104026020016040519081016040528093929190818152602001838380828437600092019190915250929550610fbb945050505050565b6104386004803603604081101561067157600080fd5b50803590602001356112c1565b600154600090610690575060006106c7565b6000828152602081905260409020600601546001805484929081106106b157fe5b9060005260206000209060070201600101541490505b919050565b6001545b90565b6000602081815291815260409081902080548251601f6002600019610100600186161502019093169290920491820185900485028101850190935280835290928391908301828280156107675780601f1061073c57610100808354040283529160200191610767565b820191906000526020600020905b81548152906001019060200180831161074a57829003601f168201915b505050505090806001015490806002018054600181600116156101000203166002900480601f01602080910402602001604051908101604052809291908181526020018280546001816001161561010002031660029004801561080b5780601f106107e05761010080835404028352916020019161080b565b820191906000526020600020905b8154815290600101906020018083116107ee57829003601f168201915b5050505060038301805460408051602060026001851615610100026000190190941693909304601f810184900484028201840190925281815294959493509083018282801561089b5780601f106108705761010080835404028352916020019161089b565b820191906000526020600020905b81548152906001019060200180831161087e57829003601f168201915b5050505050908060050154908060060154905086565b6000828152602081815260408220600401805460018101808355918452828420855192936108e6939190920191860190611474565b50506001600080858152602001908152602001600020600601548154811061090a57fe5b6000918252602080832060046007909302019190910180546001810180835591845292829020855191936109449391019190860190611474565b506001949350505050565b600060608060606000806000876040516020018082805190602001908083835b6020831061098e5780518252601f19909201916020918201910161096f565b6001836020036101000a0380198251168184511680821785525050505050509050019150506040516020818303038152906040528051906020012090506109d48161067e565b1515600114610a2a576040805162461bcd60e51b815260206004820152601860248201527f626c656e645368656574206e6f7420696e2073797374656d0000000000000000604482015290519081900360640190fd5b600081815260208181526040918290206005810154600482015482548551600260018316156101000260001901909216829004601f8101879004870282018701909752868152879694959186019460038701949392879190830182828015610ad35780601f10610aa857610100808354040283529160200191610ad3565b820191906000526020600020905b815481529060010190602001808311610ab657829003601f168201915b5050875460408051602060026001851615610100026000190190941693909304601f8101849004840282018401909252818152959a5089945092508401905082828015610b615780601f10610b3657610100808354040283529160200191610b61565b820191906000526020600020905b815481529060010190602001808311610b4457829003601f168201915b5050865460408051602060026001851615610100026000190190941693909304601f810184900484028201840190925281815295995088945092508401905082828015610bef5780601f10610bc457610100808354040283529160200191610bef565b820191906000526020600020905b815481529060010190602001808311610bd257829003601f168201915b505050505092509650965096509650965096505091939550919395565b6000606080606060008060018781548110610c2357fe5b90600052602060002090600702016001015460018881548110610c4257fe5b906000526020600020906007020160000160018981548110610c6057fe5b906000526020600020906007020160020160018a81548110610c7e57fe5b906000526020600020906007020160030160018b81548110610c9c57fe5b90600052602060002090600702016005015460018c81548110610cbb57fe5b600091825260209182902060046007909202010154855460408051601f600260001961010060018716150201909416939093049283018590048502810185019091528181529192879190830182828015610d565780601f10610d2b57610100808354040283529160200191610d56565b820191906000526020600020905b815481529060010190602001808311610d3957829003601f168201915b5050875460408051602060026001851615610100026000190190941693909304601f8101849004840282018401909252818152959a5089945092508401905082828015610de45780601f10610db957610100808354040283529160200191610de4565b820191906000526020600020905b815481529060010190602001808311610dc757829003601f168201915b5050865460408051602060026001851615610100026000190190941693909304601f810184900484028201840190925281815295995088945092508401905082828015610e725780601f10610e4757610100808354040283529160200191610e72565b820191906000526020600020905b815481529060010190602001808311610e5557829003601f168201915b5050505050925095509550955095509550955091939550919395565b60008181526020819052604090206004600582018190556006909101546001805460609392908110610ebc57fe5b906000526020600020906007020160050181905550817fb19dee7d2a81130d5574a451c36bd3868ad774967c6fdbce63fd6a4b0c95d85d600080858152602001908152602001600020600601546040518082815260200191505060405180910390a26000828152602081815260409182902080548351601f600260001961010060018616150201909316929092049182018490048402810184019094528084529091830182828015610faf5780601f10610f8457610100808354040283529160200191610faf565b820191906000526020600020905b815481529060010190602001808311610f9257829003601f168201915b50505050509050919050565b600080846040516020018082805190602001908083835b60208310610ff15780518252601f199092019160209182019101610fd2565b6001836020036101000a0380198251168184511680821785525050505050509050019150506040516020818303038152906040528051906020012090506110378161067e565b15156001141561108e576040805162461bcd60e51b815260206004820152601c60248201527f626c656e64536865657420616c6c7265647920696e2073797374656d00000000604482015290519081900360640190fd5b60008181526020818152604090912086516110ab92880190611474565b506000818152602081815260409091206001808201849055600582015585516110dc92600290920191870190611474565b50600081815260208181526040909120845161110092600390920191860190611474565b5061110d8186868661137e565b506001546000828152602081815260408083206000199094016006850181905560059094015481518581526080810182905260a08185018181528c51918301919091528b5188977f0fb208afbe23d6567ff27af17e4de19d83a888b3867f41bbb75d61c69bafc1c09790968e968e968e9690959094909391850192606086019260c0870192918b0191908190849084905b838110156111b657818101518382015260200161119e565b50505050905090810190601f1680156111e35780820380516001836020036101000a031916815260200191505b50848103835287518152875160209182019189019080838360005b838110156112165781810151838201526020016111fe565b50505050905090810190601f1680156112435780820380516001836020036101000a031916815260200191505b50848103825286518152865160209182019188019080838360005b8381101561127657818101518382015260200161125e565b50505050905090810190601f1680156112a35780820380516001836020036101000a031916815260200191505b509850505050505050505060405180910390a2506001949350505050565b606060008084815260200190815260200160002060040182815481106112e357fe5b600091825260209182902001805460408051601f60026000196101006001871615020190941693909304928301859004850281018501909152818152928301828280156113715780601f1061134657610100808354040283529160200191611371565b820191906000526020600020905b81548152906001019060200180831161135457829003601f168201915b5050505050905092915050565b60006113886114f2565b60208082018790528582526040820185905260608201849052600160a083018190528054808201808355600092909252835180519293859360079093027fb10e2d527612073b26eecdfd717e6a320cf44b4afac2b0732d9fcbe2b7fa0cf601926113f59284920190611474565b506020828101516001830155604083015180516114189260028501920190611474565b5060608201518051611434916003840191602090910190611474565b5060808201518051611450916004840191602090910190611532565b5060a0820151600582015560c0909101516006909101555060019695505050505050565b828054600181600116156101000203166002900490600052602060002090601f016020900481019282601f106114b557805160ff19168380011785556114e2565b828001600101855582156114e2579182015b828111156114e25782518255916020019190600101906114c7565b506114ee92915061158b565b5090565b6040518060e00160405280606081526020016000801916815260200160608152602001606081526020016060815260200160008152602001600081525090565b82805482825590600052602060002090810192821561157f579160200282015b8281111561157f578251805161156f918491602090910190611474565b5091602001919060010190611552565b506114ee9291506115a5565b6106d091905b808211156114ee5760008155600101611591565b6106d091905b808211156114ee5760006115bf82826115c8565b506001016115ab565b50805460018160011615610100020316600290046000825580601f106115ee575061160c565b601f01602090049060005260206000209081019061160c919061158b565b5056fea265627a7a72315820bd4c4b1b4374fb5d03a2dddea388c273c9e5afc44662099b18969931531e739264736f6c63430005100032",
  "source": "pragma solidity >=0.4.21 <0.6.0;\n\ncontract BlendSheetContract {\n\n    struct BlendSheet{\n        string blendSheetId;\n        bytes32 blendSheetIdCode;\n        string orderId;\n        string date;\n        string[] estateId;\n        uint blendSheetAccess;\n        uint index;\n    }\n\n    struct DisplayBlendSheet{\n        string blendSheetId;\n        bytes32 blendSheetIdCode;\n        string orderId;\n        string date;\n        string[] estateId;\n        uint blendSheetAccess;\n        uint index;\n    }\n\n    event LogNewBlendSheet(\n        bytes32 indexed blendSheetIdCode,\n        uint index,\n        string blendSheetId,\n        string oderId,\n        string date,\n        uint blendSheetAccess\n        );\n    event LogDeleteBlendSheet(\n        bytes32 indexed blendSheetIdcode,\n        uint index\n        );\n\n    mapping(bytes32 => BlendSheet) public BlendSheetArray;\n    DisplayBlendSheet[] private BlendSheetIndex;\n\n    function isBlendSheet(bytes32 _blendSheetIdCode)public view returns(bool isIndeed) {\n        if(BlendSheetIndex.length == 0) return false;\n        return (BlendSheetIndex[BlendSheetArray[_blendSheetIdCode].index].blendSheetIdCode == _blendSheetIdCode);\n    }\n\n    function setDisplayBlendSheet\n    (bytes32 _blendSheetIdCode,string memory _blendSheetId,string memory _orderId,string memory _date)\n     private returns(bool){\n\n        DisplayBlendSheet memory displayBlendSheet;\n        displayBlendSheet.blendSheetIdCode = _blendSheetIdCode;\n        displayBlendSheet.blendSheetId = _blendSheetId;\n        displayBlendSheet.orderId = _orderId;\n        displayBlendSheet.date = _date;\n        displayBlendSheet.blendSheetAccess = 1;\n        BlendSheetIndex.push(displayBlendSheet);\n        return true;\n\n    }\n    function insertBlendSheet\n    (string memory _blendSheetId,string memory _orderId,string memory _date) public returns(bool){\n        bytes32 _blendSheetIdCode = keccak256(abi.encodePacked((_blendSheetId)));\n        require(isBlendSheet(_blendSheetIdCode) != true,'blendSheet allredy in system');\n\n        BlendSheetArray[_blendSheetIdCode].blendSheetId = _blendSheetId;\n        BlendSheetArray[_blendSheetIdCode].blendSheetIdCode = _blendSheetIdCode;\n        BlendSheetArray[_blendSheetIdCode].blendSheetAccess = 1;\n        BlendSheetArray[_blendSheetIdCode].orderId = _orderId;\n        BlendSheetArray[_blendSheetIdCode].date = _date;\n        setDisplayBlendSheet(_blendSheetIdCode,_blendSheetId,_orderId,_date);\n        BlendSheetArray[_blendSheetIdCode].index = BlendSheetIndex.length-1;\n\n        emit LogNewBlendSheet (\n            _blendSheetIdCode,\n            BlendSheetArray[_blendSheetIdCode].index,\n            _blendSheetId,\n            _orderId,\n            _date,\n            BlendSheetArray[_blendSheetIdCode].blendSheetAccess\n            );\n        return true;\n    }\n    function deleteBlendSheet (bytes32 _blendSheetIdCode) public returns(string memory){\n        BlendSheetArray[_blendSheetIdCode].blendSheetAccess = 4;\n        BlendSheetIndex[BlendSheetArray[_blendSheetIdCode].index].blendSheetAccess = 4;\n        emit LogDeleteBlendSheet(\n            _blendSheetIdCode,\n            BlendSheetArray[_blendSheetIdCode].index\n        );\n        return  BlendSheetArray[_blendSheetIdCode].blendSheetId;\n    }\n\n    function getBlendSheet(string memory _blendSheetId) public view returns\n    (bytes32 blendSheetIdCode,string memory blendSheetId,string memory orderId,string memory date,uint blendSheetAccess,uint estateIdCount){\n        bytes32 _blendSheetIdCode = keccak256(abi.encodePacked((_blendSheetId)));\n        require(isBlendSheet(_blendSheetIdCode) == true,'blendSheet not in system');\n        return(\n            _blendSheetIdCode,\n            BlendSheetArray[_blendSheetIdCode].blendSheetId,\n            BlendSheetArray[_blendSheetIdCode].orderId,\n            BlendSheetArray[_blendSheetIdCode].date,\n            BlendSheetArray[_blendSheetIdCode].blendSheetAccess,\n            BlendSheetArray[_blendSheetIdCode].estateId.length\n            );\n\n    }\n    function getBlendSheeti(uint i) public view returns(\n        bytes32,\n        string memory,\n        string memory,\n        string memory,\n        uint,\n        uint\n        ){\n            return (\n                BlendSheetIndex[i].blendSheetIdCode,\n                BlendSheetIndex[i].blendSheetId,\n                BlendSheetIndex[i].orderId,\n                BlendSheetIndex[i].date,\n                BlendSheetIndex[i].blendSheetAccess,\n                BlendSheetIndex[i].estateId.length\n                );\n    }\n    function getBlendSheetCount() public view returns(uint)\n    {\n        return BlendSheetIndex.length;\n    }\n    function getBlendSheetEstatei(bytes32 _blendSheetIdCode,uint i) public view returns(string memory)\n    {\n        return BlendSheetArray[_blendSheetIdCode].estateId[i];\n    }\n    function addEstate(bytes32 _blendSheetIdCode,string memory estateId) public returns(bool)\n    {\n        BlendSheetArray[_blendSheetIdCode].estateId.push(estateId);\n        BlendSheetIndex[BlendSheetArray[_blendSheetIdCode].index].estateId.push(estateId);\n        return true;\n    }\n\n\n}",
  "sourcePath": "/home/ubuntu/tea-supplychain-manege-system/test2/contracts/BlendSheet.sol",
  "compiler": {
    "name": "solc",
    "version": "0.5.16+commit.9c3226ce.Emscripten.clang"
  },
  "schemaVersion": "3.0.23",
  "updatedAt": "2020-02-14T23:38:38.776Z",
  "devdoc": {
    "methods": {}
  },
  "userdoc": {
    "methods": {}
  }
}