{
  "contractName": "BoxContract",
  "abi": [
    {
      "anonymous": false,
      "inputs": [
        {
          "indexed": true,
          "internalType": "bytes32",
          "name": "boxIdcode",
          "type": "bytes32"
        },
        {
          "indexed": false,
          "internalType": "uint256",
          "name": "index",
          "type": "uint256"
        }
      ],
      "name": "LogDeleteBox",
      "type": "event"
    },
    {
      "anonymous": false,
      "inputs": [
        {
          "indexed": true,
          "internalType": "bytes32",
          "name": "boxIdCode",
          "type": "bytes32"
        },
        {
          "indexed": false,
          "internalType": "uint256",
          "name": "index",
          "type": "uint256"
        },
        {
          "indexed": false,
          "internalType": "string",
          "name": "boxId",
          "type": "string"
        },
        {
          "indexed": false,
          "internalType": "string",
          "name": "oderId",
          "type": "string"
        }
      ],
      "name": "LogNewBox",
      "type": "event"
    },
    {
      "constant": true,
      "inputs": [
        {
          "internalType": "bytes32",
          "name": "",
          "type": "bytes32"
        }
      ],
      "name": "BoxArray",
      "outputs": [
        {
          "internalType": "string",
          "name": "boxId",
          "type": "string"
        },
        {
          "internalType": "bytes32",
          "name": "boxIdCode",
          "type": "bytes32"
        },
        {
          "internalType": "string",
          "name": "orderId",
          "type": "string"
        },
        {
          "internalType": "string",
          "name": "containerId",
          "type": "string"
        },
        {
          "internalType": "string",
          "name": "loaderScanDateAndTime",
          "type": "string"
        },
        {
          "internalType": "uint256",
          "name": "scantime",
          "type": "uint256"
        },
        {
          "internalType": "uint256",
          "name": "index",
          "type": "uint256"
        }
      ],
      "payable": false,
      "stateMutability": "view",
      "type": "function"
    },
    {
      "constant": true,
      "inputs": [
        {
          "internalType": "bytes32",
          "name": "",
          "type": "bytes32"
        }
      ],
      "name": "OrderArray",
      "outputs": [
        {
          "internalType": "bytes32",
          "name": "orderIdCode",
          "type": "bytes32"
        },
        {
          "internalType": "string",
          "name": "orderId",
          "type": "string"
        },
        {
          "internalType": "string",
          "name": "boxId",
          "type": "string"
        },
        {
          "internalType": "uint256",
          "name": "index",
          "type": "uint256"
        },
        {
          "internalType": "uint256",
          "name": "quantity",
          "type": "uint256"
        }
      ],
      "payable": false,
      "stateMutability": "view",
      "type": "function"
    },
    {
      "constant": true,
      "inputs": [
        {
          "internalType": "string",
          "name": "_boxId",
          "type": "string"
        }
      ],
      "name": "isBox",
      "outputs": [
        {
          "internalType": "bool",
          "name": "isIndeed",
          "type": "bool"
        }
      ],
      "payable": false,
      "stateMutability": "view",
      "type": "function"
    },
    {
      "constant": true,
      "inputs": [
        {
          "internalType": "bytes32",
          "name": "_boxIdCode",
          "type": "bytes32"
        }
      ],
      "name": "isBoxx",
      "outputs": [
        {
          "internalType": "bool",
          "name": "isIndeed",
          "type": "bool"
        }
      ],
      "payable": false,
      "stateMutability": "view",
      "type": "function"
    },
    {
      "constant": false,
      "inputs": [
        {
          "internalType": "string",
          "name": "_boxId",
          "type": "string"
        },
        {
          "internalType": "string",
          "name": "_orderId",
          "type": "string"
        }
      ],
      "name": "insertBox",
      "outputs": [
        {
          "internalType": "bool",
          "name": "",
          "type": "bool"
        }
      ],
      "payable": false,
      "stateMutability": "nonpayable",
      "type": "function"
    },
    {
      "constant": true,
      "inputs": [
        {
          "internalType": "string",
          "name": "_boxId",
          "type": "string"
        }
      ],
      "name": "getBox",
      "outputs": [
        {
          "internalType": "bytes32",
          "name": "boxIdCode",
          "type": "bytes32"
        },
        {
          "internalType": "string",
          "name": "boxId",
          "type": "string"
        },
        {
          "internalType": "string",
          "name": "orderId",
          "type": "string"
        },
        {
          "internalType": "string",
          "name": "containerId",
          "type": "string"
        },
        {
          "internalType": "string",
          "name": "loaderScanDateAndTime",
          "type": "string"
        },
        {
          "internalType": "uint256",
          "name": "distributorIdCount",
          "type": "uint256"
        }
      ],
      "payable": false,
      "stateMutability": "view",
      "type": "function"
    },
    {
      "constant": true,
      "inputs": [
        {
          "internalType": "uint256",
          "name": "i",
          "type": "uint256"
        }
      ],
      "name": "getBoxi",
      "outputs": [
        {
          "internalType": "bytes32",
          "name": "boxIdCode",
          "type": "bytes32"
        },
        {
          "internalType": "string",
          "name": "boxId",
          "type": "string"
        },
        {
          "internalType": "string",
          "name": "orderId",
          "type": "string"
        }
      ],
      "payable": false,
      "stateMutability": "view",
      "type": "function"
    },
    {
      "constant": true,
      "inputs": [
        {
          "internalType": "bytes32",
          "name": "_boxIdCode",
          "type": "bytes32"
        },
        {
          "internalType": "uint256",
          "name": "i",
          "type": "uint256"
        }
      ],
      "name": "getBoxDistributori",
      "outputs": [
        {
          "internalType": "string",
          "name": "",
          "type": "string"
        },
        {
          "internalType": "string",
          "name": "",
          "type": "string"
        }
      ],
      "payable": false,
      "stateMutability": "view",
      "type": "function"
    },
    {
      "constant": false,
      "inputs": [
        {
          "internalType": "bytes32",
          "name": "_boxIdCode",
          "type": "bytes32"
        },
        {
          "internalType": "string",
          "name": "distributorId",
          "type": "string"
        },
        {
          "internalType": "string",
          "name": "dateAndTime",
          "type": "string"
        }
      ],
      "name": "scanDistributor",
      "outputs": [
        {
          "internalType": "bool",
          "name": "",
          "type": "bool"
        }
      ],
      "payable": false,
      "stateMutability": "nonpayable",
      "type": "function"
    },
    {
      "constant": false,
      "inputs": [
        {
          "internalType": "string",
          "name": "_orderId",
          "type": "string"
        },
        {
          "internalType": "uint256",
          "name": "quantity",
          "type": "uint256"
        }
      ],
      "name": "insertOrder",
      "outputs": [
        {
          "internalType": "bool",
          "name": "",
          "type": "bool"
        }
      ],
      "payable": false,
      "stateMutability": "nonpayable",
      "type": "function"
    },
    {
      "constant": true,
      "inputs": [
        {
          "internalType": "string",
          "name": "_orderId",
          "type": "string"
        }
      ],
      "name": "getOrder",
      "outputs": [
        {
          "internalType": "bytes32",
          "name": "orderIdCode",
          "type": "bytes32"
        },
        {
          "internalType": "string",
          "name": "orderId",
          "type": "string"
        },
        {
          "internalType": "uint256",
          "name": "index",
          "type": "uint256"
        },
        {
          "internalType": "uint256",
          "name": "quantity",
          "type": "uint256"
        }
      ],
      "payable": false,
      "stateMutability": "view",
      "type": "function"
    },
    {
      "constant": true,
      "inputs": [],
      "name": "getLastBox",
      "outputs": [
        {
          "internalType": "string",
          "name": "",
          "type": "string"
        }
      ],
      "payable": false,
      "stateMutability": "view",
      "type": "function"
    }
  ],
  "bytecode": "0x608060405234801561001057600080fd5b506120f4806100206000396000f3fe608060405234801561001057600080fd5b50600436106100b45760003560e01c8063712ca0f811610071578063712ca0f814610941578063808152e514610a3357806396563edf14610ab0578063c1a54c2f14610b54578063e511de0414610c84578063ec53b85e14610ca1576100b4565b806311ce2670146100b95780631c65e0ac146101bb57806337feeb98146102cb5780633b7a3176146104a7578063708d8cc0146105a857806370d1af1e146106e5575b600080fd5b6100d6600480360360208110156100cf57600080fd5b5035610d47565b604051808481526020018060200180602001838103835285818151815260200191508051906020019080838360005b8381101561011d578181015183820152602001610105565b50505050905090810190601f16801561014a5780820380516001836020036101000a031916815260200191505b50838103825284518152845160209182019186019080838360005b8381101561017d578181015183820152602001610165565b50505050905090810190601f1680156101aa5780820380516001836020036101000a031916815260200191505b509550505050505060405180910390f35b6101d8600480360360208110156101d157600080fd5b5035610ed0565b604051808681526020018060200180602001858152602001848152602001838103835287818151815260200191508051906020019080838360005b8381101561022b578181015183820152602001610213565b50505050905090810190601f1680156102585780820380516001836020036101000a031916815260200191505b50838103825286518152865160209182019188019080838360005b8381101561028b578181015183820152602001610273565b50505050905090810190601f1680156102b85780820380516001836020036101000a031916815260200191505b5097505050505050505060405180910390f35b6102e8600480360360208110156102e157600080fd5b5035611013565b604051808060200188815260200180602001806020018060200187815260200186815260200185810385528c818151815260200191508051906020019080838360005b8381101561034357818101518382015260200161032b565b50505050905090810190601f1680156103705780820380516001836020036101000a031916815260200191505b5085810384528a5181528a516020918201918c019080838360005b838110156103a357818101518382015260200161038b565b50505050905090810190601f1680156103d05780820380516001836020036101000a031916815260200191505b5085810383528951815289516020918201918b019080838360005b838110156104035781810151838201526020016103eb565b50505050905090810190601f1680156104305780820380516001836020036101000a031916815260200191505b5085810382528851815288516020918201918a019080838360005b8381101561046357818101518382015260200161044b565b50505050905090810190601f1680156104905780820380516001836020036101000a031916815260200191505b509b50505050505050505050505060405180910390f35b6104ca600480360360408110156104bd57600080fd5b5080359060200135611281565b604051808060200180602001838103835285818151815260200191508051906020019080838360005b8381101561050b5781810151838201526020016104f3565b50505050905090810190601f1680156105385780820380516001836020036101000a031916815260200191505b50838103825284518152845160209182019186019080838360005b8381101561056b578181015183820152602001610553565b50505050905090810190601f1680156105985780820380516001836020036101000a031916815260200191505b5094505050505060405180910390f35b6106d1600480360360408110156105be57600080fd5b810190602081018135600160201b8111156105d857600080fd5b8201836020820111156105ea57600080fd5b803590602001918460018302840111600160201b8311171561060b57600080fd5b91908080601f0160208091040260200160405190810160405280939291908181526020018383808284376000920191909152509295949360208101935035915050600160201b81111561065d57600080fd5b82018360208201111561066f57600080fd5b803590602001918460018302840111600160201b8311171561069057600080fd5b91908080601f0160208091040260200160405190810160405280939291908181526020018383808284376000920191909152509295506113c4945050505050565b604080519115158252519081900360200190f35b610789600480360360208110156106fb57600080fd5b810190602081018135600160201b81111561071557600080fd5b82018360208201111561072757600080fd5b803590602001918460018302840111600160201b8311171561074857600080fd5b91908080601f01602080910402602001604051908101604052809392919081815260200183838082843760009201919091525092955061161b945050505050565b604051808781526020018060200180602001806020018060200186815260200185810385528a818151815260200191508051906020019080838360005b838110156107de5781810151838201526020016107c6565b50505050905090810190601f16801561080b5780820380516001836020036101000a031916815260200191505b5085810384528951815289516020918201918b019080838360005b8381101561083e578181015183820152602001610826565b50505050905090810190601f16801561086b5780820380516001836020036101000a031916815260200191505b5085810383528851815288516020918201918a019080838360005b8381101561089e578181015183820152602001610886565b50505050905090810190601f1680156108cb5780820380516001836020036101000a031916815260200191505b50858103825287518152875160209182019189019080838360005b838110156108fe5781810151838201526020016108e6565b50505050905090810190601f16801561092b5780820380516001836020036101000a031916815260200191505b509a505050505050505050505060405180910390f35b6109e56004803603602081101561095757600080fd5b810190602081018135600160201b81111561097157600080fd5b82018360208201111561098357600080fd5b803590602001918460018302840111600160201b831117156109a457600080fd5b91908080601f016020809104026020016040519081016040528093929190818152602001838380828437600092019190915250929550611959945050505050565b6040518085815260200180602001848152602001838152602001828103825285818151815260200191508051906020019080838360008381101561017d578181015183820152602001610165565b610a3b611a91565b6040805160208082528351818301528351919283929083019185019080838360005b83811015610a75578181015183820152602001610a5d565b50505050905090810190601f168015610aa25780820380516001836020036101000a031916815260200191505b509250505060405180910390f35b6106d160048036036020811015610ac657600080fd5b810190602081018135600160201b811115610ae057600080fd5b820183602082011115610af257600080fd5b803590602001918460018302840111600160201b83111715610b1357600080fd5b91908080601f016020809104026020016040519081016040528093929190818152602001838380828437600092019190915250929550611b69945050505050565b6106d160048036036060811015610b6a57600080fd5b81359190810190604081016020820135600160201b811115610b8b57600080fd5b820183602082011115610b9d57600080fd5b803590602001918460018302840111600160201b83111715610bbe57600080fd5b91908080601f0160208091040260200160405190810160405280939291908181526020018383808284376000920191909152509295949360208101935035915050600160201b811115610c1057600080fd5b820183602082011115610c2257600080fd5b803590602001918460018302840111600160201b83111715610c4357600080fd5b91908080601f016020809104026020016040519081016040528093929190818152602001838380828437600092019190915250929550611c31945050505050565b6106d160048036036020811015610c9a57600080fd5b5035611cd0565b6106d160048036036040811015610cb757600080fd5b810190602081018135600160201b811115610cd157600080fd5b820183602082011115610ce357600080fd5b803590602001918460018302840111600160201b83111715610d0457600080fd5b91908080601f0160208091040260200160405190810160405280939291908181526020018383808284376000920191909152509295505091359250611d1d915050565b600060608060018481548110610d5957fe5b90600052602060002090600802016001015460018581548110610d7857fe5b906000526020600020906008020160000160018681548110610d9657fe5b6000918252602091829020835460408051601f60026000196101006001871615020190941684900490810187900487028201870190925281815260089094029092010192849190830182828015610e2e5780601f10610e0357610100808354040283529160200191610e2e565b820191906000526020600020905b815481529060010190602001808311610e1157829003601f168201915b5050845460408051602060026001851615610100026000190190941693909304601f810184900484028201840190925281815295975086945092508401905082828015610ebc5780601f10610e9157610100808354040283529160200191610ebc565b820191906000526020600020905b815481529060010190602001808311610e9f57829003601f168201915b505050505090509250925092509193909250565b60026020818152600092835260409283902080546001808301805487519281161561010002600019011695909504601f8101859004850282018501909652858152909491939092909190830182828015610f6b5780601f10610f4057610100808354040283529160200191610f6b565b820191906000526020600020905b815481529060010190602001808311610f4e57829003601f168201915b50505060028085018054604080516020601f6000196101006001871615020190941695909504928301859004850281018501909152818152959695945090925090830182828015610ffd5780601f10610fd257610100808354040283529160200191610ffd565b820191906000526020600020905b815481529060010190602001808311610fe057829003601f168201915b5050505050908060030154908060040154905085565b6000602081815291815260409081902080548251601f6002600019610100600186161502019093169290920491820185900485028101850190935280835290928391908301828280156110a75780601f1061107c576101008083540402835291602001916110a7565b820191906000526020600020905b81548152906001019060200180831161108a57829003601f168201915b505050505090806001015490806002018054600181600116156101000203166002900480601f01602080910402602001604051908101604052809291908181526020018280546001816001161561010002031660029004801561114b5780601f106111205761010080835404028352916020019161114b565b820191906000526020600020905b81548152906001019060200180831161112e57829003601f168201915b5050505060038301805460408051602060026001851615610100026000190190941693909304601f81018490048402820184019092528181529495949350908301828280156111db5780601f106111b0576101008083540402835291602001916111db565b820191906000526020600020905b8154815290600101906020018083116111be57829003601f168201915b5050505060048301805460408051602060026001851615610100026000190190941693909304601f810184900484028201840190925281815294959493509083018282801561126b5780601f106112405761010080835404028352916020019161126b565b820191906000526020600020905b81548152906001019060200180831161124e57829003601f168201915b5050505050908060060154908060070154905087565b600082815260208181526040808320848452600501825291829020805483516002600180841615610100026000190190931604601f81018590048502820185019095528481526060948594928401928491908301828280156113245780601f106112f957610100808354040283529160200191611324565b820191906000526020600020905b81548152906001019060200180831161130757829003601f168201915b5050845460408051602060026001851615610100026000190190941693909304601f8101849004840282018401909252818152959750869450925084019050828280156113b25780601f10611387576101008083540402835291602001916113b2565b820191906000526020600020905b81548152906001019060200180831161139557829003601f168201915b50505050509050915091509250929050565b600080836040516020018082805190602001908083835b602083106113fa5780518252601f1990920191602091820191016113db565b6001836020036101000a03801982511681845116808217855250505050505090500191505060405160208183030381529060405280519060200120905061144081611cd0565b15156001141561148f576040805162461bcd60e51b8152602060048201526015602482015274626f7820616c6c7265647920696e2073797374656d60581b604482015290519081900360640190fd5b60008181526020818152604090912085516114ac92870190611f72565b506000818152602081815260409091206001810183905584516114d792600290920191860190611f72565b506114e3818585611e8b565b506001546000828152602081815260408083206000199094016007909401849055805184815260608184018181528a5191830191909152895187967fc6d294e3d022b20e84c67a2480aafa1d057fd73d3f63b0723c8c3c2218e07f9c9690958c958c959493908501926080860192880191908190849084905b8381101561157457818101518382015260200161155c565b50505050905090810190601f1680156115a15780820380516001836020036101000a031916815260200191505b50838103825284518152845160209182019186019080838360005b838110156115d45781810151838201526020016115bc565b50505050905090810190601f1680156116015780820380516001836020036101000a031916815260200191505b509550505050505060405180910390a25060019392505050565b6000606080606080600080876040516020018082805190602001908083835b602083106116595780518252601f19909201916020918201910161163a565b6001836020036101000a03801982511681845116808217855250505050505090500191505060405160208183030381529060405280519060200120905061169f81611cd0565b15156001146116e9576040805162461bcd60e51b8152602060048201526011602482015270626f78206e6f7420696e2073797374656d60781b604482015290519081900360640190fd5b60008181526020818152604091829020600681015481548451600260018316156101000260001901909216829004601f810186900486028201860190965285815286959394918501936003860193600487019390929187918301828280156117925780601f1061176757610100808354040283529160200191611792565b820191906000526020600020905b81548152906001019060200180831161177557829003601f168201915b5050875460408051602060026001851615610100026000190190941693909304601f8101849004840282018401909252818152959a50899450925084019050828280156118205780601f106117f557610100808354040283529160200191611820565b820191906000526020600020905b81548152906001019060200180831161180357829003601f168201915b5050865460408051602060026001851615610100026000190190941693909304601f8101849004840282018401909252818152959950889450925084019050828280156118ae5780601f10611883576101008083540402835291602001916118ae565b820191906000526020600020905b81548152906001019060200180831161189157829003601f168201915b5050855460408051602060026001851615610100026000190190941693909304601f81018490048402820184019092528181529598508794509250840190508282801561193c5780601f106119115761010080835404028352916020019161193c565b820191906000526020600020905b81548152906001019060200180831161191f57829003601f168201915b505050505091509650965096509650965096505091939550919395565b600060606000806000856040516020018082805190602001908083835b602083106119955780518252601f199092019160209182019101611976565b518151602093840361010090810a600019908101801990941693909216929092179092526040805194909601848103601f190185528087528451948401949094206000818152600280865290889020805460038201546004830154600193840180549485161590970290970190921692909204601f8101879004870288018701909952888752919a509850909650949093508591830182828015611a7a5780601f10611a4f57610100808354040283529160200191611a7a565b820191906000526020600020905b815481529060010190602001808311611a5d57829003601f168201915b505050505092509450945094509450509193509193565b600154606090611ab957506040805180820190915260018152600360fc1b6020820152611b66565b600180546000198101908110611acb57fe5b6000918252602091829020600890910201805460408051601f6002600019610100600187161502019094169390930492830185900485028101850190915281815292830182828015611b5e5780601f10611b3357610100808354040283529160200191611b5e565b820191906000526020600020905b815481529060010190602001808311611b4157829003601f168201915b505050505090505b90565b600080826040516020018082805190602001908083835b60208310611b9f5780518252601f199092019160209182019101611b80565b6001836020036101000a03801982511681845116808217855250505050505090500191505060405160208183030381529060405280519060200120905060018054905060001415611bf4576000915050611c2c565b600081815260208190526040902060070154600180548392908110611c1557fe5b906000526020600020906008020160010154149150505b919050565b600083815260208181526040808320600681018054600101908190558452600501825282208451611c6492860190611f72565b50600084815260208190526040902060070154600180548492908110611c8657fe5b60009182526020808320888452838252604080852060060154855260089390930201600501815291208251611cc5936001909201929190910190611f72565b506001949350505050565b600154600090611ce257506000611c2c565b600082815260208190526040902060070154600180548492908110611d0357fe5b906000526020600020906008020160010154149050919050565b600080836040516020018082805190602001908083835b60208310611d535780518252601f199092019160209182019101611d34565b6001836020036101000a038019825116818451168082178552505050505050905001915050604051602081830303815290604052805190602001209050611d9981611cd0565b151560011415611de8576040805162461bcd60e51b8152602060048201526015602482015274426f7820616c6c7265647920696e2073797374656d60581b604482015290519081900360640190fd5b60008181526002602090815260409091208551611e0d92600190920191870190611f72565b5060008181526002602052604090208181556001805460001990810160038401556004909201859055805490918101908110611e4557fe5b9060005260206000209060080201600001600260008381526020019081526020016000206002019080546001816001161561010002031660029004611cc5929190611ff0565b6000611e95612065565b60208082018690528482526040820184905260018054808201808355600092909252835180519293859360089093027fb10e2d527612073b26eecdfd717e6a320cf44b4afac2b0732d9fcbe2b7fa0cf60192611ef49284920190611f72565b50602082810151600183015560408301518051611f179260028501920190611f72565b5060608201518051611f33916003840191602090910190611f72565b5060808201518051611f4f916004840191602090910190611f72565b5060a0820151600682015560c09091015160079091015550600195945050505050565b828054600181600116156101000203166002900490600052602060002090601f016020900481019282601f10611fb357805160ff1916838001178555611fe0565b82800160010185558215611fe0579182015b82811115611fe0578251825591602001919060010190611fc5565b50611fec9291506120a5565b5090565b828054600181600116156101000203166002900490600052602060002090601f016020900481019282601f106120295780548555611fe0565b82800160010185558215611fe057600052602060002091601f016020900482015b82811115611fe057825482559160010191906001019061204a565b6040518060e00160405280606081526020016000801916815260200160608152602001606081526020016060815260200160008152602001600081525090565b611b6691905b80821115611fec57600081556001016120ab56fea265627a7a72315820a94f641b3d1553b8a264023c1168644121213b08769ab4ff0f8426142ade8d7f64736f6c63430005100032",
  "source": "pragma solidity >=0.4.21 <0.6.0;\n\ncontract BoxContract {\n\n    struct Distributor{\n        string distributor;\n        string dateAndTime;\n    }\n\n    struct Box{\n        string boxId;\n        bytes32 boxIdCode;\n        string orderId;\n        string containerId;\n        string loaderScanDateAndTime;\n        mapping (uint=>Distributor) distributorId;\n        uint scantime;\n        uint index;\n    }\n\n    struct Order{\n        bytes32 orderIdCode;\n        string orderId;\n        string boxId;\n        uint index;\n        uint quantity;\n    }\n\n    struct DisplayBox{\n        string boxId;\n        bytes32 boxIdCode;\n        string orderId;\n        string containerId;\n        string loaderScanDateAndTime;\n        mapping (uint=>Distributor) distributorId;\n        uint scantime;\n        uint index;\n    }\n\n    event LogNewBox(\n        bytes32 indexed boxIdCode,\n        uint index,\n        string boxId,\n        string oderId\n        );\n    event LogDeleteBox(\n        bytes32 indexed boxIdcode,\n        uint index\n        );\n\n    mapping(bytes32 => Box) public BoxArray;\n    DisplayBox[] private BoxIndex;\n    mapping(bytes32 => Order) public OrderArray;\n\n    function isBox(string memory _boxId)public view returns(bool isIndeed) {\n        bytes32 _boxIdCode = keccak256(abi.encodePacked((_boxId)));\n        if(BoxIndex.length == 0) return false;\n        return (BoxIndex[BoxArray[_boxIdCode].index].boxIdCode == _boxIdCode);\n    }\n    function isBoxx(bytes32 _boxIdCode)public view returns(bool isIndeed) {\n        if(BoxIndex.length == 0) return false;\n        return (BoxIndex[BoxArray[_boxIdCode].index].boxIdCode == _boxIdCode);\n    }\n    function setDisplayBox\n    (bytes32 _boxIdCode,string memory _boxId,string memory _orderId)\n     private returns(bool){\n\n        DisplayBox memory displayBox;\n        displayBox.boxIdCode = _boxIdCode;\n        displayBox.boxId = _boxId;\n        displayBox.orderId = _orderId;\n        BoxIndex.push(displayBox);\n        return true;\n\n    }\n    function insertBox\n    (string memory _boxId,string memory _orderId) public returns(bool){\n        bytes32 _boxIdCode = keccak256(abi.encodePacked((_boxId)));\n        require(isBoxx(_boxIdCode) != true,'box allredy in system');\n\n        BoxArray[_boxIdCode].boxId = _boxId;\n        BoxArray[_boxIdCode].boxIdCode = _boxIdCode;\n        BoxArray[_boxIdCode].orderId = _orderId;\n        setDisplayBox(_boxIdCode,_boxId,_orderId);\n        BoxArray[_boxIdCode].index = BoxIndex.length-1;\n\n        emit LogNewBox (\n            _boxIdCode,\n            BoxArray[_boxIdCode].index,\n            _boxId,\n            _orderId\n            );\n        return true;\n    }\n\n\n    function getBox(string memory _boxId) public view returns\n    (bytes32 boxIdCode,string memory boxId,string memory orderId,string memory containerId,string memory loaderScanDateAndTime,uint distributorIdCount){\n        bytes32 _boxIdCode = keccak256(abi.encodePacked((_boxId)));\n        require(isBoxx(_boxIdCode) == true,'box not in system');\n        return(\n            _boxIdCode,\n            BoxArray[_boxIdCode].boxId,\n            BoxArray[_boxIdCode].orderId,\n            BoxArray[_boxIdCode].containerId,\n            BoxArray[_boxIdCode].loaderScanDateAndTime,\n            BoxArray[_boxIdCode].scantime\n            );\n\n    }\n\n    function getBoxi(uint i) public view returns\n    (bytes32 boxIdCode,string memory boxId,string memory orderId){\n        return(\n            BoxIndex[i].boxIdCode,\n            BoxIndex[i].boxId,\n            BoxIndex[i].orderId\n            );\n\n    }\n\n    function getBoxDistributori(bytes32 _boxIdCode,uint i) public view returns(string memory,string memory)\n    {\n        return \n        (\n            BoxArray[_boxIdCode].distributorId[i].distributor,\n            BoxArray[_boxIdCode].distributorId[i].dateAndTime\n        );\n    }\n    \n    function scanDistributor(bytes32 _boxIdCode,string memory distributorId,string memory dateAndTime) public returns(bool)\n    {\n        BoxArray[_boxIdCode].scantime++;\n        \n        BoxArray[_boxIdCode].distributorId[BoxArray[_boxIdCode].scantime].distributor = distributorId;\n        BoxIndex[BoxArray[_boxIdCode].index].distributorId[BoxArray[_boxIdCode].scantime].dateAndTime = dateAndTime;\n        return true;\n    }\n\n    function insertOrder\n    (string memory _orderId,uint quantity) public returns(bool){\n        bytes32 _orderIdCode = keccak256(abi.encodePacked((_orderId)));\n        require(isBoxx(_orderIdCode) != true,'Box allredy in system');\n\n        OrderArray[_orderIdCode].orderId = _orderId;\n        OrderArray[_orderIdCode].orderIdCode = _orderIdCode;\n        OrderArray[_orderIdCode].index = BoxIndex.length-1;\n        OrderArray[_orderIdCode].quantity = quantity;\n        OrderArray[_orderIdCode].boxId = BoxIndex[BoxIndex.length-1].boxId;\n\n        return true;\n    }\n\n    function getOrder\n    (string memory _orderId) public view returns(\n        bytes32 orderIdCode,string memory orderId,uint index,uint quantity\n    ){\n        bytes32 _orderIdCode = keccak256(abi.encodePacked((_orderId)));\n\n        return(\n        OrderArray[_orderIdCode].orderIdCode,\n        OrderArray[_orderIdCode].orderId,\n        OrderArray[_orderIdCode].index,\n        OrderArray[_orderIdCode].quantity\n        );\n    }\n\n    function getLastBox() public view returns(string memory){\n        if(BoxIndex.length == 0) {\n            return '0';\n        } else {\n            return BoxIndex[BoxIndex.length - 1].boxId;\n        }\n        \n    }\n\n}",
  "sourcePath": "/home/ubuntu/tea-supplychain-manege-system/test2/contracts/Box.sol",
  "compiler": {
    "name": "solc",
    "version": "0.5.16+commit.9c3226ce.Emscripten.clang"
  },
  "schemaVersion": "3.0.23",
  "updatedAt": "2020-02-14T13:53:54.639Z",
  "networkType": "ethereum",
  "devdoc": {
    "methods": {}
  },
  "userdoc": {
    "methods": {}
  }
}