{
  "contractName": "BoxContract",
  "abi": [
    {
      "anonymous": false,
      "inputs": [
        {
          "indexed": true,
          "internalType": "bytes32",
          "name": "boxIdcode",
          "type": "bytes32"
        },
        {
          "indexed": false,
          "internalType": "uint256",
          "name": "index",
          "type": "uint256"
        }
      ],
      "name": "LogDeleteBox",
      "type": "event"
    },
    {
      "anonymous": false,
      "inputs": [
        {
          "indexed": true,
          "internalType": "bytes32",
          "name": "boxIdCode",
          "type": "bytes32"
        },
        {
          "indexed": false,
          "internalType": "uint256",
          "name": "index",
          "type": "uint256"
        },
        {
          "indexed": false,
          "internalType": "string",
          "name": "boxId",
          "type": "string"
        },
        {
          "indexed": false,
          "internalType": "string",
          "name": "oderId",
          "type": "string"
        }
      ],
      "name": "LogNewBox",
      "type": "event"
    },
    {
      "constant": true,
      "inputs": [
        {
          "internalType": "bytes32",
          "name": "",
          "type": "bytes32"
        }
      ],
      "name": "BoxArray",
      "outputs": [
        {
          "internalType": "string",
          "name": "boxId",
          "type": "string"
        },
        {
          "internalType": "bytes32",
          "name": "boxIdCode",
          "type": "bytes32"
        },
        {
          "internalType": "string",
          "name": "orderId",
          "type": "string"
        },
        {
          "internalType": "string",
          "name": "containerId",
          "type": "string"
        },
        {
          "internalType": "string",
          "name": "loaderScanDateAndTime",
          "type": "string"
        },
        {
          "internalType": "uint256",
          "name": "scantime",
          "type": "uint256"
        },
        {
          "internalType": "uint256",
          "name": "index",
          "type": "uint256"
        }
      ],
      "payable": false,
      "stateMutability": "view",
      "type": "function"
    },
    {
      "constant": true,
      "inputs": [
        {
          "internalType": "bytes32",
          "name": "",
          "type": "bytes32"
        }
      ],
      "name": "OrderArray",
      "outputs": [
        {
          "internalType": "bytes32",
          "name": "orderIdCode",
          "type": "bytes32"
        },
        {
          "internalType": "string",
          "name": "orderId",
          "type": "string"
        },
        {
          "internalType": "string",
          "name": "boxId",
          "type": "string"
        },
        {
          "internalType": "uint256",
          "name": "index",
          "type": "uint256"
        },
        {
          "internalType": "uint256",
          "name": "quantity",
          "type": "uint256"
        }
      ],
      "payable": false,
      "stateMutability": "view",
      "type": "function"
    },
    {
      "constant": true,
      "inputs": [
        {
          "internalType": "string",
          "name": "_boxId",
          "type": "string"
        }
      ],
      "name": "isBox",
      "outputs": [
        {
          "internalType": "bool",
          "name": "isIndeed",
          "type": "bool"
        }
      ],
      "payable": false,
      "stateMutability": "view",
      "type": "function"
    },
    {
      "constant": true,
      "inputs": [
        {
          "internalType": "bytes32",
          "name": "_boxIdCode",
          "type": "bytes32"
        }
      ],
      "name": "isBoxx",
      "outputs": [
        {
          "internalType": "bool",
          "name": "isIndeed",
          "type": "bool"
        }
      ],
      "payable": false,
      "stateMutability": "view",
      "type": "function"
    },
    {
      "constant": false,
      "inputs": [
        {
          "internalType": "string",
          "name": "_boxId",
          "type": "string"
        },
        {
          "internalType": "string",
          "name": "_orderId",
          "type": "string"
        }
      ],
      "name": "insertBox",
      "outputs": [
        {
          "internalType": "bool",
          "name": "",
          "type": "bool"
        }
      ],
      "payable": false,
      "stateMutability": "nonpayable",
      "type": "function"
    },
    {
      "constant": true,
      "inputs": [
        {
          "internalType": "string",
          "name": "_boxId",
          "type": "string"
        }
      ],
      "name": "getBox",
      "outputs": [
        {
          "internalType": "bytes32",
          "name": "boxIdCode",
          "type": "bytes32"
        },
        {
          "internalType": "string",
          "name": "boxId",
          "type": "string"
        },
        {
          "internalType": "string",
          "name": "orderId",
          "type": "string"
        },
        {
          "internalType": "string",
          "name": "containerId",
          "type": "string"
        },
        {
          "internalType": "string",
          "name": "loaderScanDateAndTime",
          "type": "string"
        },
        {
          "internalType": "uint256",
          "name": "distributorIdCount",
          "type": "uint256"
        }
      ],
      "payable": false,
      "stateMutability": "view",
      "type": "function"
    },
    {
      "constant": true,
      "inputs": [
        {
          "internalType": "bytes32",
          "name": "_boxIdCode",
          "type": "bytes32"
        }
      ],
      "name": "getBoxCode",
      "outputs": [
        {
          "internalType": "bytes32",
          "name": "boxIdCode",
          "type": "bytes32"
        },
        {
          "internalType": "string",
          "name": "boxId",
          "type": "string"
        },
        {
          "internalType": "string",
          "name": "orderId",
          "type": "string"
        },
        {
          "internalType": "string",
          "name": "containerId",
          "type": "string"
        },
        {
          "internalType": "string",
          "name": "loaderScanDateAndTime",
          "type": "string"
        },
        {
          "internalType": "uint256",
          "name": "distributorIdCount",
          "type": "uint256"
        }
      ],
      "payable": false,
      "stateMutability": "view",
      "type": "function"
    },
    {
      "constant": true,
      "inputs": [
        {
          "internalType": "uint256",
          "name": "i",
          "type": "uint256"
        }
      ],
      "name": "getBoxi",
      "outputs": [
        {
          "internalType": "bytes32",
          "name": "boxIdCode",
          "type": "bytes32"
        },
        {
          "internalType": "string",
          "name": "boxId",
          "type": "string"
        },
        {
          "internalType": "string",
          "name": "orderId",
          "type": "string"
        }
      ],
      "payable": false,
      "stateMutability": "view",
      "type": "function"
    },
    {
      "constant": true,
      "inputs": [
        {
          "internalType": "bytes32",
          "name": "_boxIdCode",
          "type": "bytes32"
        },
        {
          "internalType": "uint256",
          "name": "i",
          "type": "uint256"
        }
      ],
      "name": "getBoxDistributori",
      "outputs": [
        {
          "internalType": "string",
          "name": "",
          "type": "string"
        },
        {
          "internalType": "string",
          "name": "",
          "type": "string"
        }
      ],
      "payable": false,
      "stateMutability": "view",
      "type": "function"
    },
    {
      "constant": false,
      "inputs": [
        {
          "internalType": "bytes32",
          "name": "_boxIdCode",
          "type": "bytes32"
        },
        {
          "internalType": "string",
          "name": "distributorId",
          "type": "string"
        },
        {
          "internalType": "string",
          "name": "dateAndTime",
          "type": "string"
        }
      ],
      "name": "scanDistributor",
      "outputs": [
        {
          "internalType": "bool",
          "name": "",
          "type": "bool"
        }
      ],
      "payable": false,
      "stateMutability": "nonpayable",
      "type": "function"
    },
    {
      "constant": false,
      "inputs": [
        {
          "internalType": "string",
          "name": "_orderId",
          "type": "string"
        },
        {
          "internalType": "uint256",
          "name": "quantity",
          "type": "uint256"
        }
      ],
      "name": "insertOrder",
      "outputs": [
        {
          "internalType": "bool",
          "name": "",
          "type": "bool"
        }
      ],
      "payable": false,
      "stateMutability": "nonpayable",
      "type": "function"
    },
    {
      "constant": true,
      "inputs": [
        {
          "internalType": "string",
          "name": "_orderId",
          "type": "string"
        }
      ],
      "name": "getOrder",
      "outputs": [
        {
          "internalType": "bytes32",
          "name": "orderIdCode",
          "type": "bytes32"
        },
        {
          "internalType": "string",
          "name": "orderId",
          "type": "string"
        },
        {
          "internalType": "uint256",
          "name": "index",
          "type": "uint256"
        },
        {
          "internalType": "uint256",
          "name": "quantity",
          "type": "uint256"
        }
      ],
      "payable": false,
      "stateMutability": "view",
      "type": "function"
    },
    {
      "constant": true,
      "inputs": [],
      "name": "getLastBox",
      "outputs": [
        {
          "internalType": "string",
          "name": "",
          "type": "string"
        }
      ],
      "payable": false,
      "stateMutability": "view",
      "type": "function"
    }
  ],
  "bytecode": "0x608060405234801561001057600080fd5b506123f8806100206000396000f3fe608060405234801561001057600080fd5b50600436106100cf5760003560e01c8063712ca0f81161008c578063c1a54c2f11610066578063c1a54c2f14610b6f578063d723f7e514610c9f578063e511de0414610cbc578063ec53b85e14610cd9576100cf565b8063712ca0f81461095c578063808152e514610a4e57806396563edf14610acb576100cf565b806311ce2670146100d45780631c65e0ac146101d657806337feeb98146102e65780633b7a3176146104c2578063708d8cc0146105c357806370d1af1e14610700575b600080fd5b6100f1600480360360208110156100ea57600080fd5b5035610d7f565b604051808481526020018060200180602001838103835285818151815260200191508051906020019080838360005b83811015610138578181015183820152602001610120565b50505050905090810190601f1680156101655780820380516001836020036101000a031916815260200191505b50838103825284518152845160209182019186019080838360005b83811015610198578181015183820152602001610180565b50505050905090810190601f1680156101c55780820380516001836020036101000a031916815260200191505b509550505050505060405180910390f35b6101f3600480360360208110156101ec57600080fd5b5035610f08565b604051808681526020018060200180602001858152602001848152602001838103835287818151815260200191508051906020019080838360005b8381101561024657818101518382015260200161022e565b50505050905090810190601f1680156102735780820380516001836020036101000a031916815260200191505b50838103825286518152865160209182019188019080838360005b838110156102a657818101518382015260200161028e565b50505050905090810190601f1680156102d35780820380516001836020036101000a031916815260200191505b5097505050505050505060405180910390f35b610303600480360360208110156102fc57600080fd5b503561104b565b604051808060200188815260200180602001806020018060200187815260200186815260200185810385528c818151815260200191508051906020019080838360005b8381101561035e578181015183820152602001610346565b50505050905090810190601f16801561038b5780820380516001836020036101000a031916815260200191505b5085810384528a5181528a516020918201918c019080838360005b838110156103be5781810151838201526020016103a6565b50505050905090810190601f1680156103eb5780820380516001836020036101000a031916815260200191505b5085810383528951815289516020918201918b019080838360005b8381101561041e578181015183820152602001610406565b50505050905090810190601f16801561044b5780820380516001836020036101000a031916815260200191505b5085810382528851815288516020918201918a019080838360005b8381101561047e578181015183820152602001610466565b50505050905090810190601f1680156104ab5780820380516001836020036101000a031916815260200191505b509b50505050505050505050505060405180910390f35b6104e5600480360360408110156104d857600080fd5b50803590602001356112b9565b604051808060200180602001838103835285818151815260200191508051906020019080838360005b8381101561052657818101518382015260200161050e565b50505050905090810190601f1680156105535780820380516001836020036101000a031916815260200191505b50838103825284518152845160209182019186019080838360005b8381101561058657818101518382015260200161056e565b50505050905090810190601f1680156105b35780820380516001836020036101000a031916815260200191505b5094505050505060405180910390f35b6106ec600480360360408110156105d957600080fd5b810190602081018135600160201b8111156105f357600080fd5b82018360208201111561060557600080fd5b803590602001918460018302840111600160201b8311171561062657600080fd5b91908080601f0160208091040260200160405190810160405280939291908181526020018383808284376000920191909152509295949360208101935035915050600160201b81111561067857600080fd5b82018360208201111561068a57600080fd5b803590602001918460018302840111600160201b831117156106ab57600080fd5b91908080601f0160208091040260200160405190810160405280939291908181526020018383808284376000920191909152509295506113fc945050505050565b604080519115158252519081900360200190f35b6107a46004803603602081101561071657600080fd5b810190602081018135600160201b81111561073057600080fd5b82018360208201111561074257600080fd5b803590602001918460018302840111600160201b8311171561076357600080fd5b91908080601f016020809104026020016040519081016040528093929190818152602001838380828437600092019190915250929550611653945050505050565b604051808781526020018060200180602001806020018060200186815260200185810385528a818151815260200191508051906020019080838360005b838110156107f95781810151838201526020016107e1565b50505050905090810190601f1680156108265780820380516001836020036101000a031916815260200191505b5085810384528951815289516020918201918b019080838360005b83811015610859578181015183820152602001610841565b50505050905090810190601f1680156108865780820380516001836020036101000a031916815260200191505b5085810383528851815288516020918201918a019080838360005b838110156108b95781810151838201526020016108a1565b50505050905090810190601f1680156108e65780820380516001836020036101000a031916815260200191505b50858103825287518152875160209182019189019080838360005b83811015610919578181015183820152602001610901565b50505050905090810190601f1680156109465780820380516001836020036101000a031916815260200191505b509a505050505050505050505060405180910390f35b610a006004803603602081101561097257600080fd5b810190602081018135600160201b81111561098c57600080fd5b82018360208201111561099e57600080fd5b803590602001918460018302840111600160201b831117156109bf57600080fd5b91908080601f016020809104026020016040519081016040528093929190818152602001838380828437600092019190915250929550611991945050505050565b60405180858152602001806020018481526020018381526020018281038252858181518152602001915080519060200190808383600083811015610198578181015183820152602001610180565b610a56611ac9565b6040805160208082528351818301528351919283929083019185019080838360005b83811015610a90578181015183820152602001610a78565b50505050905090810190601f168015610abd5780820380516001836020036101000a031916815260200191505b509250505060405180910390f35b6106ec60048036036020811015610ae157600080fd5b810190602081018135600160201b811115610afb57600080fd5b820183602082011115610b0d57600080fd5b803590602001918460018302840111600160201b83111715610b2e57600080fd5b91908080601f016020809104026020016040519081016040528093929190818152602001838380828437600092019190915250929550611ba1945050505050565b6106ec60048036036060811015610b8557600080fd5b81359190810190604081016020820135600160201b811115610ba657600080fd5b820183602082011115610bb857600080fd5b803590602001918460018302840111600160201b83111715610bd957600080fd5b91908080601f0160208091040260200160405190810160405280939291908181526020018383808284376000920191909152509295949360208101935035915050600160201b811115610c2b57600080fd5b820183602082011115610c3d57600080fd5b803590602001918460018302840111600160201b83111715610c5e57600080fd5b91908080601f016020809104026020016040519081016040528093929190818152602001838380828437600092019190915250929550611c69945050505050565b6107a460048036036020811015610cb557600080fd5b5035611d08565b6106ec60048036036020811015610cd257600080fd5b5035611fd4565b6106ec60048036036040811015610cef57600080fd5b810190602081018135600160201b811115610d0957600080fd5b820183602082011115610d1b57600080fd5b803590602001918460018302840111600160201b83111715610d3c57600080fd5b91908080601f0160208091040260200160405190810160405280939291908181526020018383808284376000920191909152509295505091359250612021915050565b600060608060018481548110610d9157fe5b90600052602060002090600802016001015460018581548110610db057fe5b906000526020600020906008020160000160018681548110610dce57fe5b6000918252602091829020835460408051601f60026000196101006001871615020190941684900490810187900487028201870190925281815260089094029092010192849190830182828015610e665780601f10610e3b57610100808354040283529160200191610e66565b820191906000526020600020905b815481529060010190602001808311610e4957829003601f168201915b5050845460408051602060026001851615610100026000190190941693909304601f810184900484028201840190925281815295975086945092508401905082828015610ef45780601f10610ec957610100808354040283529160200191610ef4565b820191906000526020600020905b815481529060010190602001808311610ed757829003601f168201915b505050505090509250925092509193909250565b60026020818152600092835260409283902080546001808301805487519281161561010002600019011695909504601f8101859004850282018501909652858152909491939092909190830182828015610fa35780601f10610f7857610100808354040283529160200191610fa3565b820191906000526020600020905b815481529060010190602001808311610f8657829003601f168201915b50505060028085018054604080516020601f60001961010060018716150201909416959095049283018590048502810185019091528181529596959450909250908301828280156110355780601f1061100a57610100808354040283529160200191611035565b820191906000526020600020905b81548152906001019060200180831161101857829003601f168201915b5050505050908060030154908060040154905085565b6000602081815291815260409081902080548251601f6002600019610100600186161502019093169290920491820185900485028101850190935280835290928391908301828280156110df5780601f106110b4576101008083540402835291602001916110df565b820191906000526020600020905b8154815290600101906020018083116110c257829003601f168201915b505050505090806001015490806002018054600181600116156101000203166002900480601f0160208091040260200160405190810160405280929190818152602001828054600181600116156101000203166002900480156111835780601f1061115857610100808354040283529160200191611183565b820191906000526020600020905b81548152906001019060200180831161116657829003601f168201915b5050505060038301805460408051602060026001851615610100026000190190941693909304601f81018490048402820184019092528181529495949350908301828280156112135780601f106111e857610100808354040283529160200191611213565b820191906000526020600020905b8154815290600101906020018083116111f657829003601f168201915b5050505060048301805460408051602060026001851615610100026000190190941693909304601f81018490048402820184019092528181529495949350908301828280156112a35780601f10611278576101008083540402835291602001916112a3565b820191906000526020600020905b81548152906001019060200180831161128657829003601f168201915b5050505050908060060154908060070154905087565b600082815260208181526040808320848452600501825291829020805483516002600180841615610100026000190190931604601f810185900485028201850190955284815260609485949284019284919083018282801561135c5780601f106113315761010080835404028352916020019161135c565b820191906000526020600020905b81548152906001019060200180831161133f57829003601f168201915b5050845460408051602060026001851615610100026000190190941693909304601f8101849004840282018401909252818152959750869450925084019050828280156113ea5780601f106113bf576101008083540402835291602001916113ea565b820191906000526020600020905b8154815290600101906020018083116113cd57829003601f168201915b50505050509050915091509250929050565b600080836040516020018082805190602001908083835b602083106114325780518252601f199092019160209182019101611413565b6001836020036101000a03801982511681845116808217855250505050505090500191505060405160208183030381529060405280519060200120905061147881611fd4565b1515600114156114c7576040805162461bcd60e51b8152602060048201526015602482015274626f7820616c6c7265647920696e2073797374656d60581b604482015290519081900360640190fd5b60008181526020818152604090912085516114e492870190612276565b5060008181526020818152604090912060018101839055845161150f92600290920191860190612276565b5061151b81858561218f565b506001546000828152602081815260408083206000199094016007909401849055805184815260608184018181528a5191830191909152895187967fc6d294e3d022b20e84c67a2480aafa1d057fd73d3f63b0723c8c3c2218e07f9c9690958c958c959493908501926080860192880191908190849084905b838110156115ac578181015183820152602001611594565b50505050905090810190601f1680156115d95780820380516001836020036101000a031916815260200191505b50838103825284518152845160209182019186019080838360005b8381101561160c5781810151838201526020016115f4565b50505050905090810190601f1680156116395780820380516001836020036101000a031916815260200191505b509550505050505060405180910390a25060019392505050565b6000606080606080600080876040516020018082805190602001908083835b602083106116915780518252601f199092019160209182019101611672565b6001836020036101000a0380198251168184511680821785525050505050509050019150506040516020818303038152906040528051906020012090506116d781611fd4565b1515600114611721576040805162461bcd60e51b8152602060048201526011602482015270626f78206e6f7420696e2073797374656d60781b604482015290519081900360640190fd5b60008181526020818152604091829020600681015481548451600260018316156101000260001901909216829004601f810186900486028201860190965285815286959394918501936003860193600487019390929187918301828280156117ca5780601f1061179f576101008083540402835291602001916117ca565b820191906000526020600020905b8154815290600101906020018083116117ad57829003601f168201915b5050875460408051602060026001851615610100026000190190941693909304601f8101849004840282018401909252818152959a50899450925084019050828280156118585780601f1061182d57610100808354040283529160200191611858565b820191906000526020600020905b81548152906001019060200180831161183b57829003601f168201915b5050865460408051602060026001851615610100026000190190941693909304601f8101849004840282018401909252818152959950889450925084019050828280156118e65780601f106118bb576101008083540402835291602001916118e6565b820191906000526020600020905b8154815290600101906020018083116118c957829003601f168201915b5050855460408051602060026001851615610100026000190190941693909304601f8101849004840282018401909252818152959850879450925084019050828280156119745780601f1061194957610100808354040283529160200191611974565b820191906000526020600020905b81548152906001019060200180831161195757829003601f168201915b505050505091509650965096509650965096505091939550919395565b600060606000806000856040516020018082805190602001908083835b602083106119cd5780518252601f1990920191602091820191016119ae565b518151602093840361010090810a600019908101801990941693909216929092179092526040805194909601848103601f190185528087528451948401949094206000818152600280865290889020805460038201546004830154600193840180549485161590970290970190921692909204601f8101879004870288018701909952888752919a509850909650949093508591830182828015611ab25780601f10611a8757610100808354040283529160200191611ab2565b820191906000526020600020905b815481529060010190602001808311611a9557829003601f168201915b505050505092509450945094509450509193509193565b600154606090611af157506040805180820190915260018152600360fc1b6020820152611b9e565b600180546000198101908110611b0357fe5b6000918252602091829020600890910201805460408051601f6002600019610100600187161502019094169390930492830185900485028101850190915281815292830182828015611b965780601f10611b6b57610100808354040283529160200191611b96565b820191906000526020600020905b815481529060010190602001808311611b7957829003601f168201915b505050505090505b90565b600080826040516020018082805190602001908083835b60208310611bd75780518252601f199092019160209182019101611bb8565b6001836020036101000a03801982511681845116808217855250505050505090500191505060405160208183030381529060405280519060200120905060018054905060001415611c2c576000915050611c64565b600081815260208190526040902060070154600180548392908110611c4d57fe5b906000526020600020906008020160010154149150505b919050565b600083815260208181526040808320600681018054600101908190558452600501825282208451611c9c92860190612276565b50600084815260208190526040902060070154600180548492908110611cbe57fe5b60009182526020808320888452838252604080852060060154855260089390930201600501815291208251611cfd936001909201929190910190612276565b506001949350505050565b60006060806060806000611d1b87611fd4565b1515600114611d65576040805162461bcd60e51b8152602060048201526011602482015270626f78206e6f7420696e2073797374656d60781b604482015290519081900360640190fd5b60008781526020818152604091829020600681015481548451600260018316156101000260001901909216829004601f81018690048602820186019096528581528c95939491850193600386019360048701939092918791830182828015611e0e5780601f10611de357610100808354040283529160200191611e0e565b820191906000526020600020905b815481529060010190602001808311611df157829003601f168201915b5050875460408051602060026001851615610100026000190190941693909304601f8101849004840282018401909252818152959a5089945092508401905082828015611e9c5780601f10611e7157610100808354040283529160200191611e9c565b820191906000526020600020905b815481529060010190602001808311611e7f57829003601f168201915b5050865460408051602060026001851615610100026000190190941693909304601f810184900484028201840190925281815295995088945092508401905082828015611f2a5780601f10611eff57610100808354040283529160200191611f2a565b820191906000526020600020905b815481529060010190602001808311611f0d57829003601f168201915b5050855460408051602060026001851615610100026000190190941693909304601f810184900484028201840190925281815295985087945092508401905082828015611fb85780601f10611f8d57610100808354040283529160200191611fb8565b820191906000526020600020905b815481529060010190602001808311611f9b57829003601f168201915b5050505050915095509550955095509550955091939550919395565b600154600090611fe657506000611c64565b60008281526020819052604090206007015460018054849290811061200757fe5b906000526020600020906008020160010154149050919050565b600080836040516020018082805190602001908083835b602083106120575780518252601f199092019160209182019101612038565b6001836020036101000a03801982511681845116808217855250505050505090500191505060405160208183030381529060405280519060200120905061209d81611fd4565b1515600114156120ec576040805162461bcd60e51b8152602060048201526015602482015274426f7820616c6c7265647920696e2073797374656d60581b604482015290519081900360640190fd5b6000818152600260209081526040909120855161211192600190920191870190612276565b506000818152600260205260409020818155600180546000199081016003840155600490920185905580549091810190811061214957fe5b9060005260206000209060080201600001600260008381526020019081526020016000206002019080546001816001161561010002031660029004611cfd9291906122f4565b6000612199612369565b60208082018690528482526040820184905260018054808201808355600092909252835180519293859360089093027fb10e2d527612073b26eecdfd717e6a320cf44b4afac2b0732d9fcbe2b7fa0cf601926121f89284920190612276565b5060208281015160018301556040830151805161221b9260028501920190612276565b5060608201518051612237916003840191602090910190612276565b5060808201518051612253916004840191602090910190612276565b5060a0820151600682015560c09091015160079091015550600195945050505050565b828054600181600116156101000203166002900490600052602060002090601f016020900481019282601f106122b757805160ff19168380011785556122e4565b828001600101855582156122e4579182015b828111156122e45782518255916020019190600101906122c9565b506122f09291506123a9565b5090565b828054600181600116156101000203166002900490600052602060002090601f016020900481019282601f1061232d57805485556122e4565b828001600101855582156122e457600052602060002091601f016020900482015b828111156122e457825482559160010191906001019061234e565b6040518060e00160405280606081526020016000801916815260200160608152602001606081526020016060815260200160008152602001600081525090565b611b9e91905b808211156122f057600081556001016123af56fea265627a7a72315820a728b5585579564a64c59744a2a6b2cd0b0ecd6afb7d4ae41531aed8f26c8bd664736f6c63430005100032",
  "source": "pragma solidity >=0.4.21 <0.6.0;\n\ncontract BoxContract {\n\n    struct Distributor{\n        string distributor;\n        string dateAndTime;\n    }\n\n    struct Box{\n        string boxId;\n        bytes32 boxIdCode;\n        string orderId;\n        string containerId;\n        string loaderScanDateAndTime;\n        mapping (uint=>Distributor) distributorId;\n        uint scantime;\n        uint index;\n    }\n\n    struct Order{\n        bytes32 orderIdCode;\n        string orderId;\n        string boxId;\n        uint index;\n        uint quantity;\n    }\n\n    struct DisplayBox{\n        string boxId;\n        bytes32 boxIdCode;\n        string orderId;\n        string containerId;\n        string loaderScanDateAndTime;\n        mapping (uint=>Distributor) distributorId;\n        uint scantime;\n        uint index;\n    }\n\n    event LogNewBox(\n        bytes32 indexed boxIdCode,\n        uint index,\n        string boxId,\n        string oderId\n        );\n    event LogDeleteBox(\n        bytes32 indexed boxIdcode,\n        uint index\n        );\n\n    mapping(bytes32 => Box) public BoxArray;\n    DisplayBox[] private BoxIndex;\n    mapping(bytes32 => Order) public OrderArray;\n\n    function isBox(string memory _boxId)public view returns(bool isIndeed) {\n        bytes32 _boxIdCode = keccak256(abi.encodePacked((_boxId)));\n        if(BoxIndex.length == 0) return false;\n        return (BoxIndex[BoxArray[_boxIdCode].index].boxIdCode == _boxIdCode);\n    }\n    function isBoxx(bytes32 _boxIdCode)public view returns(bool isIndeed) {\n        if(BoxIndex.length == 0) return false;\n        return (BoxIndex[BoxArray[_boxIdCode].index].boxIdCode == _boxIdCode);\n    }\n    function setDisplayBox\n    (bytes32 _boxIdCode,string memory _boxId,string memory _orderId)\n     private returns(bool){\n\n        DisplayBox memory displayBox;\n        displayBox.boxIdCode = _boxIdCode;\n        displayBox.boxId = _boxId;\n        displayBox.orderId = _orderId;\n        BoxIndex.push(displayBox);\n        return true;\n\n    }\n    function insertBox\n    (string memory _boxId,string memory _orderId) public returns(bool){\n        bytes32 _boxIdCode = keccak256(abi.encodePacked((_boxId)));\n        require(isBoxx(_boxIdCode) != true,'box allredy in system');\n\n        BoxArray[_boxIdCode].boxId = _boxId;\n        BoxArray[_boxIdCode].boxIdCode = _boxIdCode;\n        BoxArray[_boxIdCode].orderId = _orderId;\n        setDisplayBox(_boxIdCode,_boxId,_orderId);\n        BoxArray[_boxIdCode].index = BoxIndex.length-1;\n\n        emit LogNewBox (\n            _boxIdCode,\n            BoxArray[_boxIdCode].index,\n            _boxId,\n            _orderId\n            );\n        return true;\n    }\n\n\n    function getBox(string memory _boxId) public view returns\n    (bytes32 boxIdCode,string memory boxId,string memory orderId,string memory containerId,string memory loaderScanDateAndTime,uint distributorIdCount){\n        bytes32 _boxIdCode = keccak256(abi.encodePacked((_boxId)));\n        require(isBoxx(_boxIdCode) == true,'box not in system');\n        return(\n            _boxIdCode,\n            BoxArray[_boxIdCode].boxId,\n            BoxArray[_boxIdCode].orderId,\n            BoxArray[_boxIdCode].containerId,\n            BoxArray[_boxIdCode].loaderScanDateAndTime,\n            BoxArray[_boxIdCode].scantime\n            );\n\n    }\n\n    function getBoxCode(bytes32 _boxIdCode) public view returns\n    (bytes32 boxIdCode,string memory boxId,string memory orderId,string memory containerId,string memory loaderScanDateAndTime,uint distributorIdCount){\n        require(isBoxx(_boxIdCode) == true,'box not in system');\n        return(\n            _boxIdCode,\n            BoxArray[_boxIdCode].boxId,\n            BoxArray[_boxIdCode].orderId,\n            BoxArray[_boxIdCode].containerId,\n            BoxArray[_boxIdCode].loaderScanDateAndTime,\n            BoxArray[_boxIdCode].scantime\n            );\n\n    }\n\n    function getBoxi(uint i) public view returns\n    (bytes32 boxIdCode,string memory boxId,string memory orderId){\n        return(\n            BoxIndex[i].boxIdCode,\n            BoxIndex[i].boxId,\n            BoxIndex[i].orderId\n            );\n\n    }\n\n    function getBoxDistributori(bytes32 _boxIdCode,uint i) public view returns(string memory,string memory)\n    {\n        return \n        (\n            BoxArray[_boxIdCode].distributorId[i].distributor,\n            BoxArray[_boxIdCode].distributorId[i].dateAndTime\n        );\n    }\n    \n    function scanDistributor(bytes32 _boxIdCode,string memory distributorId,string memory dateAndTime) public returns(bool)\n    {\n        BoxArray[_boxIdCode].scantime++;\n        \n        BoxArray[_boxIdCode].distributorId[BoxArray[_boxIdCode].scantime].distributor = distributorId;\n        BoxIndex[BoxArray[_boxIdCode].index].distributorId[BoxArray[_boxIdCode].scantime].dateAndTime = dateAndTime;\n        return true;\n    }\n\n    function insertOrder\n    (string memory _orderId,uint quantity) public returns(bool){\n        bytes32 _orderIdCode = keccak256(abi.encodePacked((_orderId)));\n        require(isBoxx(_orderIdCode) != true,'Box allredy in system');\n\n        OrderArray[_orderIdCode].orderId = _orderId;\n        OrderArray[_orderIdCode].orderIdCode = _orderIdCode;\n        OrderArray[_orderIdCode].index = BoxIndex.length-1;\n        OrderArray[_orderIdCode].quantity = quantity;\n        OrderArray[_orderIdCode].boxId = BoxIndex[BoxIndex.length-1].boxId;\n\n        return true;\n    }\n\n    function getOrder\n    (string memory _orderId) public view returns(\n        bytes32 orderIdCode,string memory orderId,uint index,uint quantity\n    ){\n        bytes32 _orderIdCode = keccak256(abi.encodePacked((_orderId)));\n\n        return(\n        OrderArray[_orderIdCode].orderIdCode,\n        OrderArray[_orderIdCode].orderId,\n        OrderArray[_orderIdCode].index,\n        OrderArray[_orderIdCode].quantity\n        );\n    }\n\n    function getLastBox() public view returns(string memory){\n        if(BoxIndex.length == 0) {\n            return '0';\n        } else {\n            return BoxIndex[BoxIndex.length - 1].boxId;\n        }\n        \n    }\n\n}",
  "sourcePath": "/home/ubuntu/tea-supplychain-manege-system/test2/contracts/Box.sol",
  "compiler": {
    "name": "solc",
    "version": "0.5.16+commit.9c3226ce.Emscripten.clang"
  },
  "schemaVersion": "3.0.23",
  "updatedAt": "2020-02-17T08:45:51.312Z",
  "networkType": "ethereum",
  "devdoc": {
    "methods": {}
  },
  "userdoc": {
    "methods": {}
  }
}