{
  "contractName": "ContainerContract",
  "abi": [
    {
      "anonymous": false,
      "inputs": [
        {
          "indexed": true,
          "internalType": "bytes32",
          "name": "containerIdcode",
          "type": "bytes32"
        },
        {
          "indexed": false,
          "internalType": "uint256",
          "name": "index",
          "type": "uint256"
        }
      ],
      "name": "LogDeleteContainer",
      "type": "event"
    },
    {
      "anonymous": false,
      "inputs": [
        {
          "indexed": true,
          "internalType": "bytes32",
          "name": "containerIdCode",
          "type": "bytes32"
        },
        {
          "indexed": false,
          "internalType": "uint256",
          "name": "index",
          "type": "uint256"
        },
        {
          "indexed": false,
          "internalType": "string",
          "name": "containerId",
          "type": "string"
        }
      ],
      "name": "LogNewContainer",
      "type": "event"
    },
    {
      "constant": true,
      "inputs": [
        {
          "internalType": "bytes32",
          "name": "",
          "type": "bytes32"
        }
      ],
      "name": "ContainerArray",
      "outputs": [
        {
          "internalType": "string",
          "name": "containerId",
          "type": "string"
        },
        {
          "internalType": "bytes32",
          "name": "containerIdCode",
          "type": "bytes32"
        },
        {
          "internalType": "string",
          "name": "mainDistributorScanDateAndTime",
          "type": "string"
        },
        {
          "internalType": "uint256",
          "name": "index",
          "type": "uint256"
        }
      ],
      "payable": false,
      "stateMutability": "view",
      "type": "function"
    }
  ],
  "bytecode": "0x608060405234801561001057600080fd5b506102b6806100206000396000f3fe608060405234801561001057600080fd5b506004361061002b5760003560e01c80630f43944b14610030575b600080fd5b61004d6004803603602081101561004657600080fd5b5035610139565b604051808060200185815260200180602001848152602001838103835287818151815260200191508051906020019080838360005b8381101561009a578181015183820152602001610082565b50505050905090810190601f1680156100c75780820380516001836020036101000a031916815260200191505b50838103825285518152855160209182019187019080838360005b838110156100fa5781810151838201526020016100e2565b50505050905090810190601f1680156101275780820380516001836020036101000a031916815260200191505b50965050505050505060405180910390f35b6000602081815291815260409081902080548251601f6002600019610100600186161502019093169290920491820185900485028101850190935280835290928391908301828280156101cd5780601f106101a2576101008083540402835291602001916101cd565b820191906000526020600020905b8154815290600101906020018083116101b057829003601f168201915b505050505090806001015490806002018054600181600116156101000203166002900480601f0160208091040260200160405190810160405280929190818152602001828054600181600116156101000203166002900480156102715780601f1061024657610100808354040283529160200191610271565b820191906000526020600020905b81548152906001019060200180831161025457829003601f168201915b505050505090806004015490508456fea265627a7a723158201796aa0f45b8beead95f1c76ede348510c14529d7ee3aef5b4225816270b546a64736f6c63430005100032",
  "source": "pragma solidity >=0.4.21 <0.6.0;\n\ncontract ContainerContract {\n\n    struct order{\n        string orderId;\n        uint quntity;\n    }\n\n    struct Container{\n        string containerId;\n        bytes32 containerIdCode;\n        string mainDistributorScanDateAndTime;\n        order[] orderDetail;\n        uint index;\n    }\n\n    struct DisplayContainer{\n        string containerId;\n        bytes32 containerIdCode;\n        string mainDistributorScanDateAndTime;\n        order[] orderDetail;\n        uint index;\n    }\n\n    event LogNewContainer(\n        bytes32 indexed containerIdCode,\n        uint index,\n        string containerId\n        );\n    event LogDeleteContainer(\n        bytes32 indexed containerIdcode,\n        uint index\n        );\n\n    mapping(bytes32 => Container) public ContainerArray;\n    DisplayContainer[] private ContainerIndex;\n\n    // function isContainer(string memory _containerId)public view returns(bool isIndeed) {\n    //     bytes32 _containerIdCode = keccak256(abi.encodePacked((_containerId)));\n    //     if(ContainerIndex.length == 0) return false;\n    //     return (ContainerIndex[ContainerArray[_containerIdCode].index].containerIdCode == _containerIdCode);\n    // }\n    // function isContainerx(bytes32 _containerIdCode)public view returns(bool isIndeed) {\n    //     if(ContainerIndex.length == 0) return false;\n    //     return (ContainerIndex[ContainerArray[_containerIdCode].index].containerIdCode == _containerIdCode);\n    // }\n    // function insertContainer\n    // (string memory _containerId,string memory _orderId) public returns(bool){\n    //     bytes32 _containerIdCode = keccak256(abi.encodePacked((_containerId)));\n    //     require(isContainerx(_containerIdCode) != true,'container allredy in system');\n\n    //     ContainerArray[_containerIdCode].containerId = _containerId;\n    //     ContainerArray[_containerIdCode].containerIdCode = _containerIdCode;\n\n\n    //     ContainerArray[_containerIdCode].index = ContainerIndex.length-1;\n\n    //     emit LogNewContainer (\n    //         _containerIdCode,\n    //         ContainerArray[_containerIdCode].index,\n    //         _containerId,\n    //         _orderId\n    //         );\n    //     return true;\n    // }\n\n    // function getContainer(string memory _containerId) public view returns\n    // (bytes32 containerIdCode,string memory containerId,string memory orderId,string memory loaderScanDateAndTime,uint distributorIdCount){\n    //     bytes32 _containerIdCode = keccak256(abi.encodePacked((_containerId)));\n    //     require(isContainerx(_containerIdCode) == true,'container not in system');\n    //     return(\n    //         _containerIdCode,\n    //         ContainerArray[_containerIdCode].containerId,\n    //         ContainerArray[_containerIdCode].orderId,\n    //         ContainerArray[_containerIdCode].containerId,\n    //         ContainerArray[_containerIdCode].loaderScanDateAndTime,\n    //         ContainerArray[_containerIdCode].distributorId.length\n    //         );\n\n    // }\n\n    // function getContainerDistributori(bytes32 _containerIdCode,uint i) public view returns(string memory,string memory)\n    // {\n    //     return \n    //     (\n    //         ContainerArray[_containerIdCode].distributorId[i].distributor,\n    //         ContainerArray[_containerIdCode].distributorId[i].dateAndTime\n    //     );\n    // }\n    // // function scanDistributor(bytes32 _containerIdCode,string memory distributorId,string memory dateAndTime) public returns(bool)\n    // // {\n    // //     Distributor memory distributorDetail;\n    // //     distributorDetail.distributor = distributorId;\n    // //     distributorDetail.dateAndTime = dateAndTime;\n    // //     ContainerArray[_containerIdCode].distributorId.push(distributorDetail);\n    // //     ContainerIndex[ContainerArray[_containerIdCode].index].distributorId.push(distributorDetail);\n    // //     return true;\n    // // }\n\n\n}",
  "sourcePath": "/home/ubuntu/tea-supplychain-manege-system/test2/contracts/Container.sol",
  "compiler": {
    "name": "solc",
    "version": "0.5.16+commit.9c3226ce.Emscripten.clang"
  },
  "schemaVersion": "3.0.23",
  "updatedAt": "2020-02-14T11:46:53.321Z",
  "devdoc": {
    "methods": {}
  },
  "userdoc": {
    "methods": {}
  }
}