{
  "contractName": "ContainerContract",
  "abi": [
    {
      "anonymous": false,
      "inputs": [
        {
          "indexed": true,
          "internalType": "bytes32",
          "name": "containerIdcode",
          "type": "bytes32"
        },
        {
          "indexed": false,
          "internalType": "uint256",
          "name": "index",
          "type": "uint256"
        }
      ],
      "name": "LogDeleteContainer",
      "type": "event"
    },
    {
      "anonymous": false,
      "inputs": [
        {
          "indexed": true,
          "internalType": "bytes32",
          "name": "containerIdCode",
          "type": "bytes32"
        },
        {
          "indexed": false,
          "internalType": "uint256",
          "name": "index",
          "type": "uint256"
        },
        {
          "indexed": false,
          "internalType": "string",
          "name": "containerId",
          "type": "string"
        }
      ],
      "name": "LogNewContainer",
      "type": "event"
    },
    {
      "constant": true,
      "inputs": [
        {
          "internalType": "bytes32",
          "name": "",
          "type": "bytes32"
        }
      ],
      "name": "ContainerArray",
      "outputs": [
        {
          "internalType": "string",
          "name": "containerId",
          "type": "string"
        },
        {
          "internalType": "bytes32",
          "name": "containerIdCode",
          "type": "bytes32"
        },
        {
          "internalType": "string",
          "name": "mainDistributorScanDateAndTime",
          "type": "string"
        },
        {
          "internalType": "string",
          "name": "loaderScanDateAndTime",
          "type": "string"
        },
        {
          "internalType": "uint256",
          "name": "orderIdCount",
          "type": "uint256"
        },
        {
          "internalType": "uint256",
          "name": "index",
          "type": "uint256"
        },
        {
          "internalType": "uint256",
          "name": "scantime",
          "type": "uint256"
        }
      ],
      "payable": false,
      "stateMutability": "view",
      "type": "function"
    },
    {
      "constant": true,
      "inputs": [
        {
          "internalType": "string",
          "name": "_containerId",
          "type": "string"
        }
      ],
      "name": "isContainer",
      "outputs": [
        {
          "internalType": "bool",
          "name": "isIndeed",
          "type": "bool"
        }
      ],
      "payable": false,
      "stateMutability": "view",
      "type": "function"
    },
    {
      "constant": true,
      "inputs": [
        {
          "internalType": "bytes32",
          "name": "_containerIdCode",
          "type": "bytes32"
        }
      ],
      "name": "isContainerx",
      "outputs": [
        {
          "internalType": "bool",
          "name": "isIndeed",
          "type": "bool"
        }
      ],
      "payable": false,
      "stateMutability": "view",
      "type": "function"
    },
    {
      "constant": true,
      "inputs": [
        {
          "internalType": "bytes32",
          "name": "_containerIdCode",
          "type": "bytes32"
        },
        {
          "internalType": "string",
          "name": "_orderId",
          "type": "string"
        }
      ],
      "name": "isOrder",
      "outputs": [
        {
          "internalType": "bool",
          "name": "isIndeed",
          "type": "bool"
        }
      ],
      "payable": false,
      "stateMutability": "view",
      "type": "function"
    },
    {
      "constant": false,
      "inputs": [
        {
          "internalType": "string",
          "name": "_containerId",
          "type": "string"
        }
      ],
      "name": "insertContainer",
      "outputs": [
        {
          "internalType": "bool",
          "name": "",
          "type": "bool"
        }
      ],
      "payable": false,
      "stateMutability": "nonpayable",
      "type": "function"
    },
    {
      "constant": true,
      "inputs": [
        {
          "internalType": "string",
          "name": "_containerId",
          "type": "string"
        }
      ],
      "name": "getContainer",
      "outputs": [
        {
          "internalType": "bytes32",
          "name": "containerIdCode",
          "type": "bytes32"
        },
        {
          "internalType": "string",
          "name": "containerId",
          "type": "string"
        },
        {
          "internalType": "uint256",
          "name": "orderIdCount",
          "type": "uint256"
        },
        {
          "internalType": "string",
          "name": "loaderScanDateAndTime",
          "type": "string"
        },
        {
          "internalType": "string",
          "name": "mainDistributorScanDateAndTime",
          "type": "string"
        }
      ],
      "payable": false,
      "stateMutability": "view",
      "type": "function"
    },
    {
      "constant": true,
      "inputs": [
        {
          "internalType": "string",
          "name": "_containerId",
          "type": "string"
        },
        {
          "internalType": "uint256",
          "name": "i",
          "type": "uint256"
        }
      ],
      "name": "getorderi",
      "outputs": [
        {
          "internalType": "string",
          "name": "orderId",
          "type": "string"
        }
      ],
      "payable": false,
      "stateMutability": "view",
      "type": "function"
    },
    {
      "constant": false,
      "inputs": [
        {
          "internalType": "bytes32",
          "name": "_containerIdCode",
          "type": "bytes32"
        },
        {
          "internalType": "string",
          "name": "orderId",
          "type": "string"
        }
      ],
      "name": "addOrder",
      "outputs": [
        {
          "internalType": "bool",
          "name": "",
          "type": "bool"
        }
      ],
      "payable": false,
      "stateMutability": "nonpayable",
      "type": "function"
    },
    {
      "constant": false,
      "inputs": [
        {
          "internalType": "bytes32",
          "name": "_containerIdCode",
          "type": "bytes32"
        },
        {
          "internalType": "string",
          "name": "distributorIdAnddateAndTime",
          "type": "string"
        }
      ],
      "name": "scanContaine",
      "outputs": [
        {
          "internalType": "bool",
          "name": "",
          "type": "bool"
        }
      ],
      "payable": false,
      "stateMutability": "nonpayable",
      "type": "function"
    }
  ],
  "bytecode": "0x608060405234801561001057600080fd5b506114f5806100206000396000f3fe608060405234801561001057600080fd5b50600436106100935760003560e01c80635fdf90ea116100665780635fdf90ea1461040c57806379999dd6146104b0578063982151671461055b578063b6ae49b9146105ff578063c4d5f69e146107f557610093565b80630f43944b14610098578063414d8b0014610215578063433cdada146103305780635e6ee6e814610361575b600080fd5b6100b5600480360360208110156100ae57600080fd5b50356108a0565b6040518080602001888152602001806020018060200187815260200186815260200185815260200184810384528b818151815260200191508051906020019080838360005b838110156101125781810151838201526020016100fa565b50505050905090810190601f16801561013f5780820380516001836020036101000a031916815260200191505b5084810383528951815289516020918201918b019080838360005b8381101561017257818101518382015260200161015a565b50505050905090810190601f16801561019f5780820380516001836020036101000a031916815260200191505b5084810382528851815288516020918201918a019080838360005b838110156101d25781810151838201526020016101ba565b50505050905090810190601f1680156101ff5780820380516001836020036101000a031916815260200191505b509a505050505050505050505060405180910390f35b6102bb6004803603604081101561022b57600080fd5b810190602081018135600160201b81111561024557600080fd5b82018360208201111561025757600080fd5b803590602001918460018302840111600160201b8311171561027857600080fd5b91908080601f0160208091040260200160405190810160405280939291908181526020018383808284376000920191909152509295505091359250610a84915050565b6040805160208082528351818301528351919283929083019185019080838360005b838110156102f55781810151838201526020016102dd565b50505050905090810190601f1680156103225780820380516001836020036101000a031916815260200191505b509250505060405180910390f35b61034d6004803603602081101561034657600080fd5b5035610c02565b604080519115158252519081900360200190f35b61034d6004803603604081101561037757600080fd5b81359190810190604081016020820135600160201b81111561039857600080fd5b8201836020820111156103aa57600080fd5b803590602001918460018302840111600160201b831117156103cb57600080fd5b91908080601f016020809104026020016040519081016040528093929190818152602001838380828437600092019190915250929550610c50945050505050565b61034d6004803603602081101561042257600080fd5b810190602081018135600160201b81111561043c57600080fd5b82018360208201111561044e57600080fd5b803590602001918460018302840111600160201b8311171561046f57600080fd5b91908080601f016020809104026020016040519081016040528093929190818152602001838380828437600092019190915250929550610ce3945050505050565b61034d600480360360408110156104c657600080fd5b81359190810190604081016020820135600160201b8111156104e757600080fd5b8201836020820111156104f957600080fd5b803590602001918460018302840111600160201b8311171561051a57600080fd5b91908080601f016020809104026020016040519081016040528093929190818152602001838380828437600092019190915250929550610eab945050505050565b61034d6004803603602081101561057157600080fd5b810190602081018135600160201b81111561058b57600080fd5b82018360208201111561059d57600080fd5b803590602001918460018302840111600160201b831117156105be57600080fd5b91908080601f016020809104026020016040519081016040528093929190818152602001838380828437600092019190915250929550610f7d945050505050565b6106a36004803603602081101561061557600080fd5b810190602081018135600160201b81111561062f57600080fd5b82018360208201111561064157600080fd5b803590602001918460018302840111600160201b8311171561066257600080fd5b91908080601f016020809104026020016040519081016040528093929190818152602001838380828437600092019190915250929550611044945050505050565b60405180868152602001806020018581526020018060200180602001848103845288818151815260200191508051906020019080838360005b838110156106f45781810151838201526020016106dc565b50505050905090810190601f1680156107215780820380516001836020036101000a031916815260200191505b50848103835286518152865160209182019188019080838360005b8381101561075457818101518382015260200161073c565b50505050905090810190601f1680156107815780820380516001836020036101000a031916815260200191505b50848103825285518152855160209182019187019080838360005b838110156107b457818101518382015260200161079c565b50505050905090810190601f1680156107e15780820380516001836020036101000a031916815260200191505b509850505050505050505060405180910390f35b61034d6004803603604081101561080b57600080fd5b81359190810190604081016020820135600160201b81111561082c57600080fd5b82018360208201111561083e57600080fd5b803590602001918460018302840111600160201b8311171561085f57600080fd5b91908080601f0160208091040260200160405190810160405280939291908181526020018383808284376000920191909152509295506112f4945050505050565b6000602081815291815260409081902080548251601f6002600019610100600186161502019093169290920491820185900485028101850190935280835290928391908301828280156109345780601f1061090957610100808354040283529160200191610934565b820191906000526020600020905b81548152906001019060200180831161091757829003601f168201915b505050505090806001015490806002018054600181600116156101000203166002900480601f0160208091040260200160405190810160405280929190818152602001828054600181600116156101000203166002900480156109d85780601f106109ad576101008083540402835291602001916109d8565b820191906000526020600020905b8154815290600101906020018083116109bb57829003601f168201915b5050505060038301805460408051602060026001851615610100026000190190941693909304601f8101849004840282018401909252818152949594935090830182828015610a685780601f10610a3d57610100808354040283529160200191610a68565b820191906000526020600020905b815481529060010190602001808311610a4b57829003601f168201915b5050505050908060050154908060060154908060070154905087565b60606000836040516020018082805190602001908083835b60208310610abb5780518252601f199092019160209182019101610a9c565b6001836020036101000a038019825116818451168082178552505050505050905001915050604051602081830303815290604052805190602001209050610b0181610c02565b151560011415610b52576040805162461bcd60e51b8152602060048201526017602482015276636f6e7461696e6572206e6f7420696e2073797374656d60481b604482015290519081900360640190fd5b600081815260208181526040808320868452600401825291829020600190810180548451600293821615610100026000190190911692909204601f810184900484028301840190945283825290929091830182828015610bf35780601f10610bc857610100808354040283529160200191610bf3565b820191906000526020600020905b815481529060010190602001808311610bd657829003601f168201915b50505050509150505b92915050565b600154600090610c1457506000610c4b565b600082815260208190526040902060060154600180548492908110610c3557fe5b9060005260206000209060070201600101541490505b919050565b600082815260208190526040812060070180546001908101918290551415610c9b576000838152602081815260409091208351610c9592600390920191850190611425565b50610cda565b60008381526020819052604090206007015460021415610cda576000838152602081815260409091208351610cd892600290920191850190611425565b505b50600192915050565b600080826040516020018082805190602001908083835b60208310610d195780518252601f199092019160209182019101610cfa565b6001836020036101000a038019825116818451168082178552505050505050905001915050604051602081830303815290604052805190602001209050610d5f81610c02565b151560011415610db6576040805162461bcd60e51b815260206004820152601b60248201527f636f6e7461696e657220616c6c7265647920696e2073797374656d0000000000604482015290519081900360640190fd5b6000818152602081815260409091208451610dd392860190611425565b50600081815260208181526040808320600180820185905560058201859055546000190160069091018190558151818152808401838152885193820193909352875186957fdc26db684c9900d7d99a802245c7b1bc76585c555aac62f043a2241cb98337259593948a9490926060850192918601918190849084905b83811015610e67578181015183820152602001610e4f565b50505050905090810190601f168015610e945780820380516001836020036101000a031916815260200191505b50935050505060405180910390a250600192915050565b600080826040516020018082805190602001908083835b60208310610ee15780518252601f199092019160209182019101610ec2565b6001836020036101000a03801982511681845116808217855250505050505090500191505060405160208183030381529060405280519060200120905060008090505b600085815260208190526040902060050154811015610f7257600085815260208181526040808320848452600401909152902054821415610f6a57600192505050610bfc565b600101610f24565b506000949350505050565b600080826040516020018082805190602001908083835b60208310610fb35780518252601f199092019160209182019101610f94565b6001836020036101000a03801982511681845116808217855250505050505090500191505060405160208183030381529060405280519060200120905060018054905060001415611008576000915050610c4b565b60008181526020819052604090206006015460018054839290811061102957fe5b90600052602060002090600702016001015414915050919050565b6000606060006060806000866040516020018082805190602001908083835b602083106110825780518252601f199092019160209182019101611063565b6001836020036101000a0380198251168184511680821785525050505050509050019150506040516020818303038152906040528051906020012090506110c881610c02565b151560011415611119576040805162461bcd60e51b8152602060048201526017602482015276636f6e7461696e6572206e6f7420696e2073797374656d60481b604482015290519081900360640190fd5b60008181526020818152604091829020600581015481548451600260018316156101000260001901909216829004601f81018690048602820186019096528581528695939492936003860193928601928691908301828280156111bd5780601f10611192576101008083540402835291602001916111bd565b820191906000526020600020905b8154815290600101906020018083116111a057829003601f168201915b5050855460408051602060026001851615610100026000190190941693909304601f81018490048402820184019092528181529599508794509250840190508282801561124b5780601f106112205761010080835404028352916020019161124b565b820191906000526020600020905b81548152906001019060200180831161122e57829003601f168201915b5050845460408051602060026001851615610100026000190190941693909304601f8101849004840282018401909252818152959750869450925084019050828280156112d95780601f106112ae576101008083540402835291602001916112d9565b820191906000526020600020905b8154815290600101906020018083116112bc57829003601f168201915b50505050509050955095509550955095505091939590929450565b60006113008383610eab565b15156001141561134b576040805162461bcd60e51b81526020600482015260116024820152701bdc99195c88185b1b1c99591e48185919607a1b604482015290519081900360640190fd5b6000826040516020018082805190602001908083835b602083106113805780518252601f199092019160209182019101611361565b51815160209384036101000a60001901801990921691161790526040805192909401828103601f19018352845281519181019190912060008a81528083528481206005810154825260040183529390932088519396506113ea955060010193508701919050611425565b506000848152602081815260408083206005810180548552600490910183529083209390935594815290935250508054600190810190915590565b828054600181600116156101000203166002900490600052602060002090601f016020900481019282601f1061146657805160ff1916838001178555611493565b82800160010185558215611493579182015b82811115611493578251825591602001919060010190611478565b5061149f9291506114a3565b5090565b6114bd91905b8082111561149f57600081556001016114a9565b9056fea265627a7a723158208a9a792aff164c31d51223b09f9534a64ca61d09c873e67c54281228739bc05564736f6c63430005100032",
  "source": "pragma solidity >=0.4.21 <0.6.0;\n\ncontract ContainerContract {\n\n    struct order{\n        string orderId;\n        uint quntity;\n    }\n\n    struct Container{\n        string containerId;\n        bytes32 containerIdCode;\n        string mainDistributorScanDateAndTime;\n        string loaderScanDateAndTime;\n        mapping (uint=>Order) orderId;\n        uint orderIdCount;\n        uint index;\n        uint scantime;\n    }\n\n    struct DisplayContainer{\n        string containerId;\n        bytes32 containerIdCode;\n        string mainDistributorScanDateAndTime;\n        string loaderScanDateAndTime;\n        mapping (uint=>Order) orderId;\n        uint orderIdCount;\n        uint index;\n    }\n    \n    struct Order{\n        bytes32 orderIdCode;\n        string orderId;\n    }\n\n    event LogNewContainer(\n        bytes32 indexed containerIdCode,\n        uint index,\n        string containerId\n        );\n    event LogDeleteContainer(\n        bytes32 indexed containerIdcode,\n        uint index\n        );\n\n    mapping(bytes32 => Container) public ContainerArray;\n    DisplayContainer[] private ContainerIndex;\n\n    function isContainer(string memory _containerId)public view returns(bool isIndeed) {\n        bytes32 _containerIdCode = keccak256(abi.encodePacked((_containerId)));\n        if(ContainerIndex.length == 0) return false;\n        return (ContainerIndex[ContainerArray[_containerIdCode].index].containerIdCode == _containerIdCode);\n    }\n    function isContainerx(bytes32 _containerIdCode)public view returns(bool isIndeed) {\n        if(ContainerIndex.length == 0) return false;\n        return (ContainerIndex[ContainerArray[_containerIdCode].index].containerIdCode == _containerIdCode);\n    }\n     function isOrder(bytes32 _containerIdCode,string memory _orderId)public view returns(bool isIndeed) {\n        bytes32 _orderIdCode = keccak256(abi.encodePacked((_orderId)));\n        for(uint i=0;i<ContainerArray[_containerIdCode].orderIdCount;i++){\n            if(ContainerArray[_containerIdCode].orderId[i].orderIdCode == _orderIdCode){\n                return true;\n            }\n        }\n        return false;\n    }\n    function insertContainer\n    (string memory _containerId) public returns(bool){\n        bytes32 _containerIdCode = keccak256(abi.encodePacked((_containerId)));\n        require(isContainerx(_containerIdCode) != true,'container allredy in system');\n\n        ContainerArray[_containerIdCode].containerId = _containerId;\n        ContainerArray[_containerIdCode].containerIdCode = _containerIdCode;\n        ContainerArray[_containerIdCode].containerIdCode = 0;\n        ContainerArray[_containerIdCode].orderIdCount = 0;\n        ContainerArray[_containerIdCode].index = ContainerIndex.length-1;\n\n        emit LogNewContainer (\n            _containerIdCode,\n            ContainerArray[_containerIdCode].index,\n            _containerId\n            );\n        return true;\n    }\n\n    function getContainer(string memory _containerId) public view returns\n    (bytes32 containerIdCode,string memory containerId,uint orderIdCount,string memory loaderScanDateAndTime,string memory mainDistributorScanDateAndTime){\n        bytes32 _containerIdCode = keccak256(abi.encodePacked((_containerId)));\n        require(isContainerx(_containerIdCode) != true,'container not in system');\n        return(\n            _containerIdCode,\n            ContainerArray[_containerIdCode].containerId,\n            ContainerArray[_containerIdCode].orderIdCount,\n            ContainerArray[_containerIdCode].loaderScanDateAndTime,\n            ContainerArray[_containerIdCode].mainDistributorScanDateAndTime\n            );\n\n    }\n    \n    function getorderi(string memory _containerId,uint i) public view returns\n    (string memory orderId){\n        bytes32 _containerIdCode = keccak256(abi.encodePacked((_containerId)));\n        require(isContainerx(_containerIdCode) != true,'container not in system');\n        return(\n           \n            ContainerArray[_containerIdCode].orderId[i].orderId\n            );\n\n    }\n    \n    function addOrder(bytes32 _containerIdCode,string memory orderId) public returns(bool)\n    {\n        require(isOrder(_containerIdCode,orderId) != true ,'order allredy add');\n        bytes32 orderIdCode = keccak256(abi.encodePacked((orderId)));\n        ContainerArray[_containerIdCode].orderId[ ContainerArray[_containerIdCode].orderIdCount].orderId = orderId;\n        ContainerArray[_containerIdCode].orderId[ ContainerArray[_containerIdCode].orderIdCount].orderIdCode = orderIdCode;\n        ContainerArray[_containerIdCode].orderIdCount++;\n        return true;\n    }\n     function scanContaine(bytes32 _containerIdCode,string memory distributorIdAnddateAndTime) public returns(bool)\n    {\n        ContainerArray[_containerIdCode].scantime++;\n        if(ContainerArray[_containerIdCode].scantime == 1){\n            ContainerArray[_containerIdCode].loaderScanDateAndTime = distributorIdAnddateAndTime;\n        } else if(ContainerArray[_containerIdCode].scantime == 2){\n            ContainerArray[_containerIdCode].mainDistributorScanDateAndTime = distributorIdAnddateAndTime;\n        }\n        return true;\n    }\n\n\n\n}",
  "sourcePath": "/home/ubuntu/tea-supplychain-manege-system/test2/contracts/Container.sol",
  "compiler": {
    "name": "solc",
    "version": "0.5.16+commit.9c3226ce.Emscripten.clang"
  },
  "schemaVersion": "3.0.23",
  "updatedAt": "2020-02-17T07:14:27.512Z",
  "devdoc": {
    "methods": {}
  },
  "userdoc": {
    "methods": {}
  }
}