{
  "contractName": "DistributorContract",
  "abi": [
    {
      "constant": true,
      "inputs": [
        {
          "name": "",
          "type": "bytes32"
        }
      ],
      "name": "distributorArray",
      "outputs": [
        {
          "name": "email",
          "type": "string"
        },
        {
          "name": "emailCode",
          "type": "bytes32"
        },
        {
          "name": "passwordCode",
          "type": "bytes32"
        },
        {
          "name": "passwordRestToken",
          "type": "bytes32"
        },
        {
          "name": "name",
          "type": "string"
        },
        {
          "name": "contactNumber",
          "type": "uint256"
        },
        {
          "name": "userAddress",
          "type": "string"
        },
        {
          "name": "userAccess",
          "type": "uint256"
        },
        {
          "name": "index",
          "type": "uint256"
        }
      ],
      "payable": false,
      "stateMutability": "view",
      "type": "function"
    },
    {
      "anonymous": false,
      "inputs": [
        {
          "indexed": true,
          "name": "emailCode",
          "type": "bytes32"
        },
        {
          "indexed": false,
          "name": "index",
          "type": "uint256"
        },
        {
          "indexed": false,
          "name": "email",
          "type": "string"
        },
        {
          "indexed": false,
          "name": "passwordCode",
          "type": "bytes32"
        },
        {
          "indexed": false,
          "name": "passwordRestToken",
          "type": "bytes32"
        },
        {
          "indexed": false,
          "name": "name",
          "type": "string"
        },
        {
          "indexed": false,
          "name": "contactNumber",
          "type": "uint256"
        },
        {
          "indexed": false,
          "name": "userAddress",
          "type": "string"
        },
        {
          "indexed": false,
          "name": "userAccess",
          "type": "uint256"
        }
      ],
      "name": "LogNewDistributor",
      "type": "event"
    },
    {
      "anonymous": false,
      "inputs": [
        {
          "indexed": true,
          "name": "emailCode",
          "type": "bytes32"
        },
        {
          "indexed": false,
          "name": "index",
          "type": "uint256"
        },
        {
          "indexed": false,
          "name": "email",
          "type": "string"
        },
        {
          "indexed": false,
          "name": "passwordCode",
          "type": "bytes32"
        },
        {
          "indexed": false,
          "name": "passwordRestToken",
          "type": "bytes32"
        },
        {
          "indexed": false,
          "name": "name",
          "type": "string"
        },
        {
          "indexed": false,
          "name": "contactNumber",
          "type": "uint256"
        },
        {
          "indexed": false,
          "name": "userAddress",
          "type": "string"
        },
        {
          "indexed": false,
          "name": "userAccess",
          "type": "uint256"
        }
      ],
      "name": "LogUpdateDistributor",
      "type": "event"
    },
    {
      "anonymous": false,
      "inputs": [
        {
          "indexed": true,
          "name": "emailcode",
          "type": "bytes32"
        },
        {
          "indexed": false,
          "name": "index",
          "type": "uint256"
        }
      ],
      "name": "LogDeleteDistributor",
      "type": "event"
    },
    {
      "constant": true,
      "inputs": [
        {
          "name": "_emailCode",
          "type": "bytes32"
        }
      ],
      "name": "isDistributor",
      "outputs": [
        {
          "name": "isIndeed",
          "type": "bool"
        }
      ],
      "payable": false,
      "stateMutability": "view",
      "type": "function"
    },
    {
      "constant": false,
      "inputs": [
        {
          "name": "_emailCode",
          "type": "bytes32"
        }
      ],
      "name": "createDistributorToken",
      "outputs": [
        {
          "name": "",
          "type": "bytes32"
        }
      ],
      "payable": false,
      "stateMutability": "nonpayable",
      "type": "function"
    },
    {
      "constant": false,
      "inputs": [
        {
          "name": "_email",
          "type": "string"
        },
        {
          "name": "_name",
          "type": "string"
        },
        {
          "name": "_address",
          "type": "string"
        },
        {
          "name": "_telephone",
          "type": "uint256"
        }
      ],
      "name": "insertDistributor",
      "outputs": [
        {
          "name": "",
          "type": "bool"
        }
      ],
      "payable": false,
      "stateMutability": "nonpayable",
      "type": "function"
    },
    {
      "constant": false,
      "inputs": [
        {
          "name": "email",
          "type": "bytes32"
        }
      ],
      "name": "deleteDistributor",
      "outputs": [
        {
          "name": "",
          "type": "string"
        }
      ],
      "payable": false,
      "stateMutability": "nonpayable",
      "type": "function"
    },
    {
      "constant": false,
      "inputs": [
        {
          "name": "email",
          "type": "bytes32"
        }
      ],
      "name": "blockDistributor",
      "outputs": [
        {
          "name": "",
          "type": "string"
        }
      ],
      "payable": false,
      "stateMutability": "nonpayable",
      "type": "function"
    },
    {
      "constant": false,
      "inputs": [
        {
          "name": "_email",
          "type": "string"
        },
        {
          "name": "usreAccess",
          "type": "uint256"
        }
      ],
      "name": "editUserAccess",
      "outputs": [
        {
          "name": "",
          "type": "bool"
        }
      ],
      "payable": false,
      "stateMutability": "nonpayable",
      "type": "function"
    },
    {
      "constant": true,
      "inputs": [
        {
          "name": "_email",
          "type": "string"
        }
      ],
      "name": "getDistributor",
      "outputs": [
        {
          "name": "",
          "type": "bytes32"
        },
        {
          "name": "email",
          "type": "string"
        },
        {
          "name": "name",
          "type": "string"
        },
        {
          "name": "contactNumber",
          "type": "uint256"
        },
        {
          "name": "userAddress",
          "type": "string"
        },
        {
          "name": "userAccess",
          "type": "uint256"
        }
      ],
      "payable": false,
      "stateMutability": "view",
      "type": "function"
    },
    {
      "constant": true,
      "inputs": [
        {
          "name": "i",
          "type": "uint256"
        }
      ],
      "name": "getDistributori",
      "outputs": [
        {
          "name": "",
          "type": "bytes32"
        },
        {
          "name": "",
          "type": "string"
        },
        {
          "name": "",
          "type": "string"
        },
        {
          "name": "",
          "type": "uint256"
        },
        {
          "name": "",
          "type": "string"
        },
        {
          "name": "",
          "type": "uint256"
        }
      ],
      "payable": false,
      "stateMutability": "view",
      "type": "function"
    },
    {
      "constant": true,
      "inputs": [],
      "name": "getDistributorCount",
      "outputs": [
        {
          "name": "",
          "type": "uint256"
        }
      ],
      "payable": false,
      "stateMutability": "view",
      "type": "function"
    },
    {
      "constant": false,
      "inputs": [
        {
          "name": "_email",
          "type": "string"
        },
        {
          "name": "_name",
          "type": "string"
        }
      ],
      "name": "updateDistributorName",
      "outputs": [
        {
          "name": "success",
          "type": "bool"
        }
      ],
      "payable": false,
      "stateMutability": "nonpayable",
      "type": "function"
    },
    {
      "constant": false,
      "inputs": [
        {
          "name": "_email",
          "type": "string"
        },
        {
          "name": "_userAddress",
          "type": "string"
        }
      ],
      "name": "updateDistributorAddress",
      "outputs": [
        {
          "name": "success",
          "type": "bool"
        }
      ],
      "payable": false,
      "stateMutability": "nonpayable",
      "type": "function"
    },
    {
      "constant": false,
      "inputs": [
        {
          "name": "_email",
          "type": "string"
        },
        {
          "name": "_contactNumber",
          "type": "uint256"
        }
      ],
      "name": "updateDistributorContactNumber",
      "outputs": [
        {
          "name": "success",
          "type": "bool"
        }
      ],
      "payable": false,
      "stateMutability": "nonpayable",
      "type": "function"
    },
    {
      "constant": false,
      "inputs": [
        {
          "name": "_email",
          "type": "string"
        },
        {
          "name": "index",
          "type": "uint256[]"
        },
        {
          "name": "_name",
          "type": "string"
        },
        {
          "name": "_userAddress",
          "type": "string"
        },
        {
          "name": "_contactNumber",
          "type": "uint256"
        }
      ],
      "name": "updateDistributor",
      "outputs": [
        {
          "name": "success",
          "type": "bool"
        }
      ],
      "payable": false,
      "stateMutability": "nonpayable",
      "type": "function"
    },
    {
      "constant": false,
      "inputs": [
        {
          "name": "_email",
          "type": "string"
        }
      ],
      "name": "updateDistributoriEmail",
      "outputs": [
        {
          "name": "success",
          "type": "bool"
        }
      ],
      "payable": false,
      "stateMutability": "nonpayable",
      "type": "function"
    },
    {
      "constant": true,
      "inputs": [
        {
          "name": "email",
          "type": "bytes32"
        }
      ],
      "name": "checkDistributorUserAccess",
      "outputs": [
        {
          "name": "userAccess",
          "type": "uint256"
        }
      ],
      "payable": false,
      "stateMutability": "view",
      "type": "function"
    },
    {
      "constant": true,
      "inputs": [
        {
          "name": "email",
          "type": "bytes32"
        }
      ],
      "name": "checkDistributorPasswordCode",
      "outputs": [
        {
          "name": "passwordCode",
          "type": "bytes32"
        }
      ],
      "payable": false,
      "stateMutability": "view",
      "type": "function"
    }
  ],
  "bytecode": "0x608060405234801561001057600080fd5b506132c9806100206000396000f3fe608060405234801561001057600080fd5b506004361061010b5760003560e01c80635a103bb1116100a257806377c7b7251161007157806377c7b72514610c19578063c8fc50c914610d42578063e669c00214610de8578063ea0fd49b14610e05578063f6edf18c14610e225761010b565b80635a103bb1146109ae5780635d4b3b7f146109cb5780636420152a146109e85780636609b7cc14610b735761010b565b80634743c2cb116100de5780634743c2cb146104bb5780634cb1389b146106b85780634dc242c81461086857806356f81d8b146109915761010b565b806316ac4bd2146101105780632133b063146101a2578063247fb142146103e85780632d9c9d8814610417575b600080fd5b61012d6004803603602081101561012657600080fd5b5035610e2a565b6040805160208082528351818301528351919283929083019185019080838360005b8381101561016757818101518382015260200161014f565b50505050905090810190601f1680156101945780820380516001836020036101000a031916815260200191505b509250505060405180910390f35b6103d4600480360360a08110156101b857600080fd5b810190602081018135600160201b8111156101d257600080fd5b8201836020820111156101e457600080fd5b803590602001918460018302840111600160201b8311171561020557600080fd5b91908080601f0160208091040260200160405190810160405280939291908181526020018383808284376000920191909152509295949360208101935035915050600160201b81111561025757600080fd5b82018360208201111561026957600080fd5b803590602001918460208302840111600160201b8311171561028a57600080fd5b9190808060200260200160405190810160405280939291908181526020018383602002808284376000920191909152509295949360208101935035915050600160201b8111156102d957600080fd5b8201836020820111156102eb57600080fd5b803590602001918460018302840111600160201b8311171561030c57600080fd5b91908080601f0160208091040260200160405190810160405280939291908181526020018383808284376000920191909152509295949360208101935035915050600160201b81111561035e57600080fd5b82018360208201111561037057600080fd5b803590602001918460018302840111600160201b8311171561039157600080fd5b91908080601f0160208091040260200160405190810160405280939291908181526020018383808284376000920191909152509295505091359250611071915050565b604080519115158252519081900360200190f35b610405600480360360208110156103fe57600080fd5b50356118fb565b60408051918252519081900360200190f35b6103d46004803603602081101561042d57600080fd5b810190602081018135600160201b81111561044757600080fd5b82018360208201111561045957600080fd5b803590602001918460018302840111600160201b8311171561047a57600080fd5b91908080601f016020809104026020016040519081016040528093929190818152602001838380828437600092019190915250929550611910945050505050565b61055f600480360360208110156104d157600080fd5b810190602081018135600160201b8111156104eb57600080fd5b8201836020820111156104fd57600080fd5b803590602001918460018302840111600160201b8311171561051e57600080fd5b91908080601f016020809104026020016040519081016040528093929190818152602001838380828437600092019190915250929550611916945050505050565b60405180878152602001806020018060200186815260200180602001858152602001848103845289818151815260200191508051906020019080838360005b838110156105b657818101518382015260200161059e565b50505050905090810190601f1680156105e35780820380516001836020036101000a031916815260200191505b5084810383528851815288516020918201918a019080838360005b838110156106165781810151838201526020016105fe565b50505050905090810190601f1680156106435780820380516001836020036101000a031916815260200191505b50848103825286518152865160209182019188019080838360005b8381101561067657818101518382015260200161065e565b50505050905090810190601f1680156106a35780820380516001836020036101000a031916815260200191505b50995050505050505050505060405180910390f35b6103d4600480360360808110156106ce57600080fd5b810190602081018135600160201b8111156106e857600080fd5b8201836020820111156106fa57600080fd5b803590602001918460018302840111600160201b8311171561071b57600080fd5b91908080601f0160208091040260200160405190810160405280939291908181526020018383808284376000920191909152509295949360208101935035915050600160201b81111561076d57600080fd5b82018360208201111561077f57600080fd5b803590602001918460018302840111600160201b831117156107a057600080fd5b91908080601f0160208091040260200160405190810160405280939291908181526020018383808284376000920191909152509295949360208101935035915050600160201b8111156107f257600080fd5b82018360208201111561080457600080fd5b803590602001918460018302840111600160201b8311171561082557600080fd5b91908080601f0160208091040260200160405190810160405280939291908181526020018383808284376000920191909152509295505091359250611bd0915050565b6103d46004803603604081101561087e57600080fd5b810190602081018135600160201b81111561089857600080fd5b8201836020820111156108aa57600080fd5b803590602001918460018302840111600160201b831117156108cb57600080fd5b91908080601f0160208091040260200160405190810160405280939291908181526020018383808284376000920191909152509295949360208101935035915050600160201b81111561091d57600080fd5b82018360208201111561092f57600080fd5b803590602001918460018302840111600160201b8311171561095057600080fd5b91908080601f016020809104026020016040519081016040528093929190818152602001838380828437600092019190915250929550611fa5945050505050565b61055f600480360360208110156109a757600080fd5b50356122f5565b610405600480360360208110156109c457600080fd5b5035612578565b610405600480360360208110156109e157600080fd5b50356125c6565b610a05600480360360208110156109fe57600080fd5b50356125db565b60405180806020018a8152602001898152602001888152602001806020018781526020018060200186815260200185815260200184810384528d818151815260200191508051906020019080838360005b83811015610a6e578181015183820152602001610a56565b50505050905090810190601f168015610a9b5780820380516001836020036101000a031916815260200191505b5084810383528951815289516020918201918b019080838360005b83811015610ace578181015183820152602001610ab6565b50505050905090810190601f168015610afb5780820380516001836020036101000a031916815260200191505b50848103825287518152875160209182019189019080838360005b83811015610b2e578181015183820152602001610b16565b50505050905090810190601f168015610b5b5780820380516001836020036101000a031916815260200191505b509c5050505050505050505050505060405180910390f35b6103d460048036036040811015610b8957600080fd5b810190602081018135600160201b811115610ba357600080fd5b820183602082011115610bb557600080fd5b803590602001918460018302840111600160201b83111715610bd657600080fd5b91908080601f01602080910402602001604051908101604052809392919081815260200183838082843760009201919091525092955050913592506127cc915050565b6103d460048036036040811015610c2f57600080fd5b810190602081018135600160201b811115610c4957600080fd5b820183602082011115610c5b57600080fd5b803590602001918460018302840111600160201b83111715610c7c57600080fd5b91908080601f0160208091040260200160405190810160405280939291908181526020018383808284376000920191909152509295949360208101935035915050600160201b811115610cce57600080fd5b820183602082011115610ce057600080fd5b803590602001918460018302840111600160201b83111715610d0157600080fd5b91908080601f016020809104026020016040519081016040528093929190818152602001838380828437600092019190915250929550612884945050505050565b6103d460048036036040811015610d5857600080fd5b810190602081018135600160201b811115610d7257600080fd5b820183602082011115610d8457600080fd5b803590602001918460018302840111600160201b83111715610da557600080fd5b91908080601f0160208091040260200160405190810160405280939291908181526020018383808284376000920191909152509295505091359250612bd4915050565b61012d60048036036020811015610dfe57600080fd5b5035612ebe565b6103d460048036036020811015610e1b57600080fd5b5035613026565b610405613073565b600081815260208190526040902060070154606090819060051415610f4c576000838152602081905260409020600360078201819055600890910154600180549091908110610e7557fe5b90600052602060002090600602016005018190555060016000808581526020019081526020016000206008015481548110610eac57fe5b600091825260209182902060026006909202018101805460408051601f600019610100600186161502019093169490940491820185900485028401850190528083529192909190830182828015610f445780601f10610f1957610100808354040283529160200191610f44565b820191906000526020600020905b815481529060010190602001808311610f2757829003601f168201915b505050505090505b60008381526020819052604090206007015460031415611069576000838152602081905260409020600560078201819055600890910154600180549091908110610f9257fe5b90600052602060002090600602016005018190555060016000808581526020019081526020016000206008015481548110610fc957fe5b600091825260209182902060026006909202018101805460408051601f6000196101006001861615020190931694909404918201859004850284018501905280835291929091908301828280156110615780601f1061103657610100808354040283529160200191611061565b820191906000526020600020905b81548152906001019060200180831161104457829003601f168201915b505050505090505b90505b919050565b600080866040516020018082805190602001908083835b602083106110a75780518252601f199092019160209182019101611088565b6001836020036101000a0380198251168184511680821785525050505050509050019150506040516020818303038152906040528051906020012090506110ed81613026565b151560011461113e5760408051600160e51b62461bcd0281526020600482015260126024820152600160701b7175736572206e6f7420696e2073797374656d02604482015290519081900360640190fd5b6000818152602081905260408120600801545b87518210156118ec5787828151811061116657fe5b6020026020010151600114156113e1576000838152602081815260409091208851611199926004909201918a01906131ac565b5086600182815481106111a857fe5b906000526020600020906006020160020190805190602001906111cc9291906131ac565b508260008051602061327e833981519152600080868152602001908152602001600020600801548b60008088815260200190815260200160002060020154600080898152602001908152602001600020600301548c6000808b8152602001908152602001600020600501546000808c81526020019081526020016000206006016000808d8152602001908152602001600020600701546040518089815260200180602001888152602001878152602001806020018681526020018060200185815260200184810384528b818151815260200191508051906020019080838360005b838110156112c55781810151838201526020016112ad565b50505050905090810190601f1680156112f25780820380516001836020036101000a031916815260200191505b5084810383528851815288516020918201918a019080838360005b8381101561132557818101518382015260200161130d565b50505050905090810190601f1680156113525780820380516001836020036101000a031916815260200191505b508481038252865460026000196101006001841615020190911604808252602090910190879080156113c55780601f1061139a576101008083540402835291602001916113c5565b820191906000526020600020905b8154815290600101906020018083116113a857829003601f168201915b50509b50505050505050505050505060405180910390a26118e1565b8782815181106113ed57fe5b602002602001015160021415611668576000838152602081815260409091208751611420926006909201918901906131ac565b50856001828154811061142f57fe5b906000526020600020906006020160040190805190602001906114539291906131ac565b508260008051602061327e833981519152600080868152602001908152602001600020600801548b60008088815260200190815260200160002060020154600080898152602001908152602001600020600301546000808a81526020019081526020016000206004016000808b8152602001908152602001600020600501548d6000808d8152602001908152602001600020600701546040518089815260200180602001888152602001878152602001806020018681526020018060200185815260200184810384528b818151815260200191508051906020019080838360005b8381101561154c578181015183820152602001611534565b50505050905090810190601f1680156115795780820380516001836020036101000a031916815260200191505b508481038352885460026000196101006001841615020190911604808252602090910190899080156115ec5780601f106115c1576101008083540402835291602001916115ec565b820191906000526020600020905b8154815290600101906020018083116115cf57829003601f168201915b5050848103825286518152865160209182019188019080838360005b83811015611620578181015183820152602001611608565b50505050905090810190601f16801561164d5780820380516001836020036101000a031916815260200191505b509b50505050505050505050505060405180910390a26118e1565b87828151811061167457fe5b6020026020010151600314156118e157600083815260208190526040902060050185905560018054869190839081106116a957fe5b9060005260206000209060060201600301819055508260008051602061327e833981519152600080868152602001908152602001600020600801548b60008088815260200190815260200160002060020154600080898152602001908152602001600020600301546000808a81526020019081526020016000206004018b6000808c81526020019081526020016000206006016000808d8152602001908152602001600020600701546040518089815260200180602001888152602001878152602001806020018681526020018060200185815260200184810384528b818151815260200191508051906020019080838360005b838110156117b557818101518382015260200161179d565b50505050905090810190601f1680156117e25780820380516001836020036101000a031916815260200191505b508481038352885460026000196101006001841615020190911604808252602090910190899080156118555780601f1061182a57610100808354040283529160200191611855565b820191906000526020600020905b81548152906001019060200180831161183857829003601f168201915b50508481038252865460026000196101006001841615020190911604808252602090910190879080156118c95780601f1061189e576101008083540402835291602001916118c9565b820191906000526020600020905b8154815290600101906020018083116118ac57829003601f168201915b50509b50505050505050505050505060405180910390a25b600190910190611151565b50600198975050505050505050565b60009081526020819052604090206007015490565b50600090565b600060608060006060600080876040516020018082805190602001908083835b602083106119555780518252601f199092019160209182019101611936565b6001836020036101000a03801982511681845116808217855250505050505090500191505060405160208183030381529060405280519060200120905061199b81613026565b15156001146119ec5760408051600160e51b62461bcd0281526020600482015260126024820152600160701b7175736572206e6f7420696e2073797374656d02604482015290519081900360640190fd5b60008181526020818152604091829020600581015460078201548254855160026001831615610100026000190190921691909104601f810186900486028201860190965285815286959394600486019460068701939291879190830182828015611a975780601f10611a6c57610100808354040283529160200191611a97565b820191906000526020600020905b815481529060010190602001808311611a7a57829003601f168201915b5050875460408051602060026001851615610100026000190190941693909304601f8101849004840282018401909252818152959a5089945092508401905082828015611b255780601f10611afa57610100808354040283529160200191611b25565b820191906000526020600020905b815481529060010190602001808311611b0857829003601f168201915b5050855460408051602060026001851615610100026000190190941693909304601f810184900484028201840190925281815295995087945092508401905082828015611bb35780601f10611b8857610100808354040283529160200191611bb3565b820191906000526020600020905b815481529060010190602001808311611b9657829003601f168201915b505050505091509650965096509650965096505091939550919395565b600080856040516020018082805190602001908083835b60208310611c065780518252601f199092019160209182019101611be7565b6001836020036101000a03801982511681845116808217855250505050505090500191505060405160208183030381529060405280519060200120905060006040516020018080600160f81b6061028152506001019050604051602081830303815290604052805190602001209050611c7e82613026565b151560011415611cd85760408051600160e51b62461bcd02815260206004820152601660248201527f7573657220616c6c7265647920696e2073797374656d00000000000000000000604482015290519081900360640190fd5b6000828152602081815260409091208851611cf5928a01906131ac565b50600082815260208190526040902060018101839055600201819055611d1a82612578565b60008381526020818152604090912060038101929092558751611d4392600401918901906131ac565b50600082815260208181526040909120600581018690558651611d6e926006909201918801906131ac565b5060008281526020819052604090206001600790910155611d92828888878961307a565b50600180805490500360008084815260200190815260200160002060080181905550817ff1fe1914994a1125a37c6724a34ee0fc65c4130450ae0d815771142e6aedab51600080858152602001908152602001600020600801548960008087815260200190815260200160002060020154600080888152602001908152602001600020600301548b8a8c6000808c8152602001908152602001600020600701546040518089815260200180602001888152602001878152602001806020018681526020018060200185815260200184810384528b818151815260200191508051906020019080838360005b83811015611e95578181015183820152602001611e7d565b50505050905090810190601f168015611ec25780820380516001836020036101000a031916815260200191505b5084810383528851815288516020918201918a019080838360005b83811015611ef5578181015183820152602001611edd565b50505050905090810190601f168015611f225780820380516001836020036101000a031916815260200191505b50848103825286518152865160209182019188019080838360005b83811015611f55578181015183820152602001611f3d565b50505050905090810190601f168015611f825780820380516001836020036101000a031916815260200191505b509b50505050505050505050505060405180910390a25060019695505050505050565b600080836040516020018082805190602001908083835b60208310611fdb5780518252601f199092019160209182019101611fbc565b6001836020036101000a03801982511681845116808217855250505050505090500191505060405160208183030381529060405280519060200120905061202181613026565b15156001146120725760408051600160e51b62461bcd0281526020600482015260126024820152600160701b7175736572206e6f7420696e2073797374656d02604482015290519081900360640190fd5b6000818152602081815260409091208451612095926004909201918601906131ac565b506000818152602081905260409020600801546001805485929081106120b757fe5b906000526020600020906006020160020190805190602001906120db9291906131ac565b508060008051602061327e8339815191526000808481526020019081526020016000206008015486600080868152602001908152602001600020600201546000808781526020019081526020016000206003015488600080898152602001908152602001600020600501546000808a81526020019081526020016000206006016000808b8152602001908152602001600020600701546040518089815260200180602001888152602001878152602001806020018681526020018060200185815260200184810384528b818151815260200191508051906020019080838360005b838110156121d45781810151838201526020016121bc565b50505050905090810190601f1680156122015780820380516001836020036101000a031916815260200191505b5084810383528851815288516020918201918a019080838360005b8381101561223457818101518382015260200161221c565b50505050905090810190601f1680156122615780820380516001836020036101000a031916815260200191505b508481038252865460026000196101006001841615020190911604808252602090910190879080156122d45780601f106122a9576101008083540402835291602001916122d4565b820191906000526020600020905b8154815290600101906020018083116122b757829003601f168201915b50509b50505050505050505050505060405180910390a25060019392505050565b60006060806000606060006001878154811061230d57fe5b9060005260206000209060060201600001546001888154811061232c57fe5b90600052602060002090600602016001016001898154811061234a57fe5b906000526020600020906006020160020160018a8154811061236857fe5b90600052602060002090600602016003015460018b8154811061238757fe5b906000526020600020906006020160040160018c815481106123a557fe5b600091825260209182902060056006909202010154855460408051601f6002600019610100600187161502019094169390930492830185900485028101850190915281815291928791908301828280156124405780601f1061241557610100808354040283529160200191612440565b820191906000526020600020905b81548152906001019060200180831161242357829003601f168201915b5050875460408051602060026001851615610100026000190190941693909304601f8101849004840282018401909252818152959a50899450925084019050828280156124ce5780601f106124a3576101008083540402835291602001916124ce565b820191906000526020600020905b8154815290600101906020018083116124b157829003601f168201915b5050855460408051602060026001851615610100026000190190941693909304601f81018490048402820184019092528181529599508794509250840190508282801561255c5780601f106125315761010080835404028352916020019161255c565b820191906000526020600020905b81548152906001019060200180831161253f57829003601f168201915b5050505050915095509550955095509550955091939550919395565b600080612583613180565b60008481526002602052604090205490915083146125ad5760008381526002602052604090208390555b6000928352600260205260409092206001018290555090565b60009081526020819052604090206002015490565b6000602081815291815260409081902080548251601f60026000196101006001861615020190931692909204918201859004850281018501909352808352909283919083018282801561266f5780601f106126445761010080835404028352916020019161266f565b820191906000526020600020905b81548152906001019060200180831161265257829003601f168201915b505050505090806001015490806002015490806003015490806004018054600181600116156101000203166002900480601f01602080910402602001604051908101604052809291908181526020018280546001816001161561010002031660029004801561271f5780601f106126f45761010080835404028352916020019161271f565b820191906000526020600020905b81548152906001019060200180831161270257829003601f168201915b50505050600583015460068401805460408051602060026001851615610100026000190190941693909304601f810184900484028201840190925281815295969395939450908301828280156127b65780601f1061278b576101008083540402835291602001916127b6565b820191906000526020600020905b81548152906001019060200180831161279957829003601f168201915b5050505050908060070154908060080154905089565b600080836040516020018082805190602001908083835b602083106128025780518252601f1990920191602091820191016127e3565b51815160209384036101000a60001901801990921691161790526040805192909401828103601f1901835284528151918101919091206000818152918290529290206007810188905560080154600180549396508895509350918210905061286657fe5b60009182526020909120600560069092020101555060019392505050565b600080836040516020018082805190602001908083835b602083106128ba5780518252601f19909201916020918201910161289b565b6001836020036101000a03801982511681845116808217855250505050505090500191505060405160208183030381529060405280519060200120905061290081613026565b15156001146129515760408051600160e51b62461bcd0281526020600482015260126024820152600160701b7175736572206e6f7420696e2073797374656d02604482015290519081900360640190fd5b6000818152602081815260409091208451612974926006909201918601906131ac565b5060008181526020819052604090206008015460018054859290811061299657fe5b906000526020600020906006020160040190805190602001906129ba9291906131ac565b508060008051602061327e83398151915260008084815260200190815260200160002060080154866000808681526020019081526020016000206002015460008087815260200190815260200160002060030154600080888152602001908152602001600020600401600080898152602001908152602001600020600501548a6000808b8152602001908152602001600020600701546040518089815260200180602001888152602001878152602001806020018681526020018060200185815260200184810384528b818151815260200191508051906020019080838360005b83811015612ab3578181015183820152602001612a9b565b50505050905090810190601f168015612ae05780820380516001836020036101000a031916815260200191505b50848103835288546002600019610100600184161502019091160480825260209091019089908015612b535780601f10612b2857610100808354040283529160200191612b53565b820191906000526020600020905b815481529060010190602001808311612b3657829003601f168201915b5050848103825286518152865160209182019188019080838360005b83811015612b87578181015183820152602001612b6f565b50505050905090810190601f168015612bb45780820380516001836020036101000a031916815260200191505b509b50505050505050505050505060405180910390a25060019392505050565b600080836040516020018082805190602001908083835b60208310612c0a5780518252601f199092019160209182019101612beb565b6001836020036101000a038019825116818451168082178552505050505050905001915050604051602081830303815290604052805190602001209050612c5081613026565b1515600114612ca15760408051600160e51b62461bcd0281526020600482015260126024820152600160701b7175736572206e6f7420696e2073797374656d02604482015290519081900360640190fd5b60008181526020819052604090206005810184905560080154600180548592908110612cc957fe5b9060005260206000209060060201600301819055508060008051602061327e83398151915260008084815260200190815260200160002060080154866000808681526020019081526020016000206002015460008087815260200190815260200160002060030154600080888152602001908152602001600020600401896000808a81526020019081526020016000206006016000808b8152602001908152602001600020600701546040518089815260200180602001888152602001878152602001806020018681526020018060200185815260200184810384528b818151815260200191508051906020019080838360005b83811015612dd5578181015183820152602001612dbd565b50505050905090810190601f168015612e025780820380516001836020036101000a031916815260200191505b50848103835288546002600019610100600184161502019091160480825260209091019089908015612e755780601f10612e4a57610100808354040283529160200191612e75565b820191906000526020600020905b815481529060010190602001808311612e5857829003601f168201915b50508481038252865460026000196101006001841615020190911604808252602090910190879080156122d45780601f106122a9576101008083540402835291602001916122d4565b6000818152600260209081526040808320838155600190810184905591839052822060046007820181905560089091015482546060949385939290918110612f0257fe5b90600052602060002090600602016005018190555060016000808681526020019081526020016000206008015481548110612f3957fe5b600091825260209182902060026006909202018101805460408051601f600019610100600186161502019093169490940491820185900485028401850190528083529192909190830182828015612fd15780601f10612fa657610100808354040283529160200191612fd1565b820191906000526020600020905b815481529060010190602001808311612fb457829003601f168201915b50505060008781526020818152604091829020600801548251908152915194955088947fa9182ea46bf769f0b5f2c986c9a06c228fb686381c72137c62b04826d1b38d86945091829003019150a29392505050565b6001546000906130385750600061106c565b60008281526020819052604090206008015460018054849290811061305957fe5b906000526020600020906006020160000154149050919050565b6001545b90565b600061308461322a565b8681526020808201878152604083018790526060830186905260808301859052600160a084018190528054808201808355600092909252845160069091027fb10e2d527612073b26eecdfd717e6a320cf44b4afac2b0732d9fcbe2b7fa0cf6810191825592518051929486949293613122937fb10e2d527612073b26eecdfd717e6a320cf44b4afac2b0732d9fcbe2b7fa0cf70192909101906131ac565b506040820151805161313e9160028401916020909101906131ac565b5060608201516003820155608082015180516131649160048401916020909101906131ac565b5060a08201518160050155505050600191505095945050505050565b604080514260208083019190915244828401528251808303840181526060909201909252805191012090565b828054600181600116156101000203166002900490600052602060002090601f016020900481019282601f106131ed57805160ff191683800117855561321a565b8280016001018555821561321a579182015b8281111561321a5782518255916020019190600101906131ff565b50613226929150613263565b5090565b6040518060c001604052806000801916815260200160608152602001606081526020016000815260200160608152602001600081525090565b61307791905b80821115613226576000815560010161326956fe03751f335fdcedf5eb1e0283fc6b217d9defab43d4d6158b3b52fc9935338c96a165627a7a723058203bc94719ac4bfdac5bd2b02c85cf2ea37c683bba53b376ea80ea1fe59f2b82130029",
  "source": "pragma solidity >=0.4.21 <0.6.0;\r\n\r\ncontract DistributorContract {\r\n    \r\n    struct Distributor{\r\n        string email;\r\n        bytes32 emailCode;\r\n        bytes32 passwordCode;\r\n        bytes32 passwordRestToken;\r\n        string name;\r\n        uint contactNumber;\r\n        string userAddress;\r\n        uint userAccess;\r\n        uint index;\r\n    }\r\n\r\n    struct DisplayDistributor{\r\n        bytes32 emailCode;\r\n        string email;\r\n        string name;\r\n        uint contactNumber;\r\n        string userAddress;\r\n        uint userAccess;\r\n    }\r\n    \r\n    event LogNewDistributor(\r\n        bytes32 indexed emailCode,\r\n        uint index,string email,\r\n        bytes32 passwordCode,\r\n        bytes32 passwordRestToken,\r\n        string name,\r\n        uint contactNumber,\r\n        string userAddress,\r\n        uint userAccess\r\n        );\r\n    event LogUpdateDistributor(\r\n        bytes32 indexed emailCode,\r\n        uint index,string email,\r\n        bytes32 passwordCode,\r\n        bytes32 passwordRestToken,\r\n        string name,\r\n        uint contactNumber,\r\n        string userAddress,\r\n        uint userAccess\r\n        );\r\n    event LogDeleteDistributor(\r\n        bytes32 indexed emailcode,\r\n        uint index\r\n        );\r\n        \r\n    struct RegistationToken{\r\n        bytes32 emailCode;\r\n        bytes32 token;\r\n    }\r\n        \r\n    mapping(bytes32 => Distributor) public distributorArray;\r\n    DisplayDistributor[] private distributorIndex;\r\n    mapping(bytes32 => RegistationToken) private distributorRegistationToken;\r\n    \r\n    function isDistributor(bytes32 _emailCode)public view returns(bool isIndeed) {\r\n        if(distributorIndex.length == 0) return false;\r\n        return (distributorIndex[distributorArray[_emailCode].index].emailCode == _emailCode);\r\n    }\r\n    function createDistributorToken(bytes32 _emailCode)public returns(bytes32){\r\n        bytes32 token = randomtoken();\r\n        if(distributorRegistationToken[_emailCode].emailCode != _emailCode){\r\n            distributorRegistationToken[_emailCode].emailCode = _emailCode;\r\n        }\r\n        distributorRegistationToken[_emailCode].token = token;\r\n        return token;\r\n    }\r\n    function randomtoken() private view returns (bytes32) {\r\n       return keccak256(abi.encodePacked( block.timestamp, block.difficulty));\r\n    }\r\n    function setDisplayDistributor(bytes32 _emailCode,string memory _email,string memory _name,uint _telephone,string memory _address)\r\n     private returns(bool){\r\n\r\n        DisplayDistributor memory displayDistributor;\r\n        displayDistributor.emailCode = _emailCode;\r\n        displayDistributor.email = _email;\r\n        displayDistributor.name = _name;\r\n        displayDistributor.contactNumber = _telephone;\r\n        displayDistributor.userAddress = _address;\r\n        displayDistributor.userAccess = 1;\r\n        distributorIndex.push(displayDistributor);\r\n        return true;\r\n\r\n    }\r\n    function insertDistributor(string memory _email,string memory _name,string memory _address,uint _telephone) public returns(bool){\r\n        bytes32 _emailCode = keccak256(abi.encodePacked((_email)));\r\n        bytes32 _passwordCode = keccak256(abi.encodePacked((\"a\")));\r\n        require(isDistributor(_emailCode) != true,'user allredy in system');\r\n\r\n        distributorArray[_emailCode].email = _email;\r\n        distributorArray[_emailCode].emailCode = _emailCode;\r\n        distributorArray[_emailCode].passwordCode = _passwordCode;\r\n        distributorArray[_emailCode].passwordRestToken = createDistributorToken(_emailCode);\r\n        distributorArray[_emailCode].name = _name;\r\n        distributorArray[_emailCode].contactNumber = _telephone;\r\n        distributorArray[_emailCode].userAddress = _address;\r\n        distributorArray[_emailCode].userAccess = 1;\r\n        setDisplayDistributor(_emailCode,_email,_name,_telephone,_address);\r\n        distributorArray[_emailCode].index = distributorIndex.length-1;\r\n\r\n        emit LogNewDistributor (\r\n            _emailCode,\r\n            distributorArray[_emailCode].index,\r\n            _email,\r\n            distributorArray[_emailCode].passwordCode,\r\n            distributorArray[_emailCode].passwordRestToken,\r\n            _name,\r\n            _telephone,\r\n            _address,\r\n            distributorArray[_emailCode].userAccess\r\n            );\r\n        return true;\r\n    }\r\n    function deleteDistributor (bytes32 email) public returns(string memory){\r\n        uint i;\r\n        string memory name;\r\n        delete distributorRegistationToken[email];\r\n        distributorArray[email].userAccess = 4;\r\n        distributorIndex[distributorArray[email].index].userAccess = 4;\r\n        name = distributorIndex[distributorArray[email].index].name;\r\n        emit LogDeleteDistributor(\r\n            email,\r\n            distributorArray[email].index\r\n        );\r\n        return name;\r\n    }\r\n    function blockDistributor(bytes32 email) public returns(string memory)\r\n    {\r\n        string memory name;\r\n        if(distributorArray[email].userAccess == 5){\r\n        distributorArray[email].userAccess = 3;\r\n        distributorIndex[distributorArray[email].index].userAccess = 3;\r\n        name = distributorIndex[distributorArray[email].index].name;\r\n        }\r\n        if(distributorArray[email].userAccess == 3){\r\n        distributorArray[email].userAccess = 5;\r\n        distributorIndex[distributorArray[email].index].userAccess = 5;\r\n        name = distributorIndex[distributorArray[email].index].name;\r\n        }\r\n        return name;\r\n    }\r\n    function editUserAccess(string memory _email,uint usreAccess)public returns(bool){\r\n        bytes32 email = keccak256(abi.encodePacked((_email)));\r\n        distributorArray[email].userAccess = usreAccess;\r\n        distributorIndex[distributorArray[email].index].userAccess = usreAccess;\r\n        return true;\r\n\r\n    }\r\n    function getDistributor(string memory _email) public view returns(bytes32,string memory email,string memory name,\r\n    uint contactNumber,string memory userAddress, uint userAccess){\r\n        bytes32 _emailCode = keccak256(abi.encodePacked((_email)));\r\n        require(isDistributor(_emailCode) == true,'user not in system');\r\n        return(\r\n            _emailCode,\r\n            distributorArray[_emailCode].email,\r\n            distributorArray[_emailCode].name,\r\n            distributorArray[_emailCode].contactNumber,\r\n            distributorArray[_emailCode].userAddress,\r\n            distributorArray[_emailCode].userAccess\r\n            );\r\n    }\r\n    function getDistributori(uint i) public view returns(\r\n        bytes32,\r\n        string memory,\r\n        string memory,\r\n        uint,\r\n        string memory,\r\n        uint\r\n        ){\r\n            return (\r\n                distributorIndex[i].emailCode,\r\n                distributorIndex[i].email,\r\n                distributorIndex[i].name,\r\n                distributorIndex[i].contactNumber,\r\n                distributorIndex[i].userAddress,\r\n                distributorIndex[i].userAccess\r\n                );\r\n    }\r\n    function getDistributorCount() public view returns(uint)\r\n    {\r\n        return distributorIndex.length;\r\n    }\r\n    \r\n    // function updateUserEmail(address userAddress, bytes32 userEmail) public returns(bool success)\r\n    // {\r\n    //     userStructs[userAddress].userEmail = userEmail;\r\n    //     emit LogUpdateUser(userAddress,  userStructs[userAddress].index, userEmail, userStructs[userAddress].userAge);\r\n    //     return true;\r\n    // }\r\n    function updateDistributorName (string memory _email,string memory _name) public returns(bool success){\r\n        bytes32 _emailCode = keccak256(abi.encodePacked((_email)));\r\n        require(isDistributor(_emailCode) == true,'user not in system');\r\n        distributorArray[_emailCode].name = _name;\r\n        distributorIndex[distributorArray[_emailCode].index].name = _name;\r\n        emit LogUpdateDistributor(\r\n            _emailCode,\r\n            distributorArray[_emailCode].index,\r\n            _email,\r\n            distributorArray[_emailCode].passwordCode,\r\n            distributorArray[_emailCode].passwordRestToken,\r\n            _name,\r\n            distributorArray[_emailCode].contactNumber,\r\n            distributorArray[_emailCode].userAddress,\r\n            distributorArray[_emailCode].userAccess\r\n            );\r\n        return true;\r\n    }\r\n    function updateDistributorAddress (string memory _email,string memory _userAddress) public returns(bool success){\r\n        bytes32 _emailCode = keccak256(abi.encodePacked((_email)));\r\n        require(isDistributor(_emailCode) == true,'user not in system');\r\n        distributorArray[_emailCode].userAddress = _userAddress;\r\n        distributorIndex[distributorArray[_emailCode].index].userAddress = _userAddress;\r\n        emit LogUpdateDistributor(\r\n            _emailCode,\r\n            distributorArray[_emailCode].index,\r\n            _email,\r\n            distributorArray[_emailCode].passwordCode,\r\n            distributorArray[_emailCode].passwordRestToken,\r\n            distributorArray[_emailCode].name,\r\n            distributorArray[_emailCode].contactNumber,\r\n            _userAddress,\r\n            distributorArray[_emailCode].userAccess\r\n            );\r\n        return true;\r\n    }\r\n    function updateDistributorContactNumber (string memory _email,uint _contactNumber) public returns(bool success){\r\n        bytes32 _emailCode = keccak256(abi.encodePacked((_email)));\r\n        require(isDistributor(_emailCode) == true,'user not in system');\r\n        distributorArray[_emailCode].contactNumber = _contactNumber;\r\n        distributorIndex[distributorArray[_emailCode].index].contactNumber = _contactNumber;\r\n        emit LogUpdateDistributor(\r\n            _emailCode,\r\n            distributorArray[_emailCode].index,\r\n            _email,\r\n            distributorArray[_emailCode].passwordCode,\r\n            distributorArray[_emailCode].passwordRestToken,\r\n            distributorArray[_emailCode].name,\r\n            _contactNumber,\r\n            distributorArray[_emailCode].userAddress,\r\n            distributorArray[_emailCode].userAccess\r\n            );\r\n        return true;\r\n    }\r\n    function updateDistributor(\r\n        string memory _email,\r\n        uint[] memory index,\r\n        string memory _name,\r\n        string memory _userAddress,\r\n        uint _contactNumber\r\n        ) public returns(bool success){\r\n        bytes32 _emailCode = keccak256(abi.encodePacked((_email)));\r\n        require(isDistributor(_emailCode) == true,'user not in system');\r\n        uint i;\r\n        uint num = distributorArray[_emailCode].index;\r\n\r\n        for (i = 0;i<index.length;i++){\r\n            if(index[i]==1){\r\n                distributorArray[_emailCode].name = _name;\r\n                distributorIndex[num].name = _name;\r\n                emit LogUpdateDistributor(\r\n                    _emailCode,\r\n                    distributorArray[_emailCode].index,\r\n                    _email,distributorArray[_emailCode].passwordCode,\r\n                    distributorArray[_emailCode].passwordRestToken,\r\n                    _name,\r\n                    distributorArray[_emailCode].contactNumber,\r\n                    distributorArray[_emailCode].userAddress,\r\n                    distributorArray[_emailCode].userAccess\r\n                    );\r\n\r\n            }\r\n            else if(index[i]==2){\r\n                distributorArray[_emailCode].userAddress = _userAddress;\r\n\r\n                distributorIndex[num].userAddress = _userAddress;\r\n\r\n                emit LogUpdateDistributor(\r\n                    _emailCode,\r\n                    distributorArray[_emailCode].index,\r\n                    _email,\r\n                    distributorArray[_emailCode].passwordCode,\r\n                    distributorArray[_emailCode].passwordRestToken,\r\n                    distributorArray[_emailCode].name,\r\n                    distributorArray[_emailCode].contactNumber,\r\n                    _userAddress,\r\n                    distributorArray[_emailCode].userAccess\r\n                    );\r\n\r\n            }\r\n            else if(index[i]==3){\r\n                distributorArray[_emailCode].contactNumber = _contactNumber;\r\n                distributorIndex[num].contactNumber = _contactNumber;\r\n                emit LogUpdateDistributor(\r\n                    _emailCode,\r\n                    distributorArray[_emailCode].index,\r\n                    _email,\r\n                    distributorArray[_emailCode].passwordCode,\r\n                    distributorArray[_emailCode].passwordRestToken,\r\n                    distributorArray[_emailCode].name,\r\n                    _contactNumber,\r\n                    distributorArray[_emailCode].userAddress,\r\n                    distributorArray[_emailCode].userAccess\r\n                    );\r\n\r\n            }\r\n        }\r\n        return true;\r\n    }\r\n    ///////\r\n    function updateDistributoriEmail (string memory _email) public returns(bool success)\r\n    {\r\n       // return true;\r\n    }\r\n    function checkDistributorUserAccess(bytes32 email)public view returns(uint userAccess){\r\n        \r\n        return distributorArray[email].userAccess;\r\n    }\r\n    function checkDistributorPasswordCode(bytes32 email) public view returns(bytes32 passwordCode ){\r\n        return distributorArray[email].passwordCode;\r\n    }\r\n}",
  "sourcePath": "C:\\project\\tea supply chain mangement system\\test2\\contracts\\Distributor.sol",
  "compiler": {
    "name": "solc",
    "version": "0.5.8+commit.23d335f2.Emscripten.clang"
  },
  "schemaVersion": "3.0.16",
  "updatedAt": "2020-01-12T03:14:13.863Z",
  "devdoc": {
    "methods": {}
  },
  "userdoc": {
    "methods": {
      "updateDistributoriEmail(string)": {
        "notice": "////"
      }
    }
  }
}