{
  "contractName": "DistributorContract",
  "abi": [
    {
      "constant": true,
      "inputs": [
        {
          "name": "",
          "type": "bytes32"
        }
      ],
      "name": "distributorArray",
      "outputs": [
        {
          "name": "email",
          "type": "string"
        },
        {
          "name": "emailCode",
          "type": "bytes32"
        },
        {
          "name": "passwordCode",
          "type": "bytes32"
        },
        {
          "name": "name",
          "type": "string"
        },
        {
          "name": "contactNumber",
          "type": "uint256"
        },
        {
          "name": "userAddress",
          "type": "string"
        },
        {
          "name": "userAccess",
          "type": "uint256"
        },
        {
          "name": "index",
          "type": "uint256"
        }
      ],
      "payable": false,
      "stateMutability": "view",
      "type": "function"
    },
    {
      "anonymous": false,
      "inputs": [
        {
          "indexed": true,
          "name": "emailCode",
          "type": "bytes32"
        },
        {
          "indexed": false,
          "name": "index",
          "type": "uint256"
        },
        {
          "indexed": false,
          "name": "email",
          "type": "string"
        },
        {
          "indexed": false,
          "name": "passwordCode",
          "type": "bytes32"
        },
        {
          "indexed": false,
          "name": "name",
          "type": "string"
        },
        {
          "indexed": false,
          "name": "contactNumber",
          "type": "uint256"
        },
        {
          "indexed": false,
          "name": "userAddress",
          "type": "string"
        },
        {
          "indexed": false,
          "name": "userAccess",
          "type": "uint256"
        }
      ],
      "name": "LogNewDistributor",
      "type": "event"
    },
    {
      "anonymous": false,
      "inputs": [
        {
          "indexed": true,
          "name": "emailCode",
          "type": "bytes32"
        },
        {
          "indexed": false,
          "name": "index",
          "type": "uint256"
        },
        {
          "indexed": false,
          "name": "email",
          "type": "string"
        },
        {
          "indexed": false,
          "name": "passwordCode",
          "type": "bytes32"
        },
        {
          "indexed": false,
          "name": "name",
          "type": "string"
        },
        {
          "indexed": false,
          "name": "contactNumber",
          "type": "uint256"
        },
        {
          "indexed": false,
          "name": "userAddress",
          "type": "string"
        },
        {
          "indexed": false,
          "name": "userAccess",
          "type": "uint256"
        }
      ],
      "name": "LogUpdateDistributor",
      "type": "event"
    },
    {
      "anonymous": false,
      "inputs": [
        {
          "indexed": true,
          "name": "emailcode",
          "type": "bytes32"
        },
        {
          "indexed": false,
          "name": "index",
          "type": "uint256"
        }
      ],
      "name": "LogDeleteDistributor",
      "type": "event"
    },
    {
      "constant": true,
      "inputs": [
        {
          "name": "_emailCode",
          "type": "bytes32"
        }
      ],
      "name": "isDistributor",
      "outputs": [
        {
          "name": "isIndeed",
          "type": "bool"
        }
      ],
      "payable": false,
      "stateMutability": "view",
      "type": "function"
    },
    {
      "constant": false,
      "inputs": [
        {
          "name": "_email",
          "type": "string"
        }
      ],
      "name": "createDistributorToken",
      "outputs": [
        {
          "name": "",
          "type": "bytes32"
        }
      ],
      "payable": false,
      "stateMutability": "nonpayable",
      "type": "function"
    },
    {
      "constant": true,
      "inputs": [
        {
          "name": "_email",
          "type": "string"
        }
      ],
      "name": "getDistributorToken",
      "outputs": [
        {
          "name": "",
          "type": "bytes32"
        }
      ],
      "payable": false,
      "stateMutability": "view",
      "type": "function"
    },
    {
      "constant": true,
      "inputs": [
        {
          "name": "_email",
          "type": "string"
        },
        {
          "name": "_token",
          "type": "bytes32"
        }
      ],
      "name": "checkDistributorToken",
      "outputs": [
        {
          "name": "",
          "type": "bool"
        }
      ],
      "payable": false,
      "stateMutability": "view",
      "type": "function"
    },
    {
      "constant": false,
      "inputs": [
        {
          "name": "_email",
          "type": "string"
        },
        {
          "name": "_password",
          "type": "string"
        }
      ],
      "name": "setPassword",
      "outputs": [
        {
          "name": "",
          "type": "bool"
        }
      ],
      "payable": false,
      "stateMutability": "nonpayable",
      "type": "function"
    },
    {
      "constant": false,
      "inputs": [
        {
          "name": "_email",
          "type": "string"
        },
        {
          "name": "_name",
          "type": "string"
        },
        {
          "name": "_address",
          "type": "string"
        },
        {
          "name": "_telephone",
          "type": "uint256"
        }
      ],
      "name": "insertDistributor",
      "outputs": [
        {
          "name": "",
          "type": "bool"
        }
      ],
      "payable": false,
      "stateMutability": "nonpayable",
      "type": "function"
    },
    {
      "constant": false,
      "inputs": [
        {
          "name": "email",
          "type": "bytes32"
        }
      ],
      "name": "deleteDistributor",
      "outputs": [
        {
          "name": "",
          "type": "string"
        }
      ],
      "payable": false,
      "stateMutability": "nonpayable",
      "type": "function"
    },
    {
      "constant": false,
      "inputs": [
        {
          "name": "email",
          "type": "bytes32"
        }
      ],
      "name": "blockDistributor",
      "outputs": [
        {
          "name": "",
          "type": "string"
        }
      ],
      "payable": false,
      "stateMutability": "nonpayable",
      "type": "function"
    },
    {
      "constant": false,
      "inputs": [
        {
          "name": "_email",
          "type": "string"
        },
        {
          "name": "usreAccess",
          "type": "uint256"
        }
      ],
      "name": "editUserAccess",
      "outputs": [
        {
          "name": "",
          "type": "bool"
        }
      ],
      "payable": false,
      "stateMutability": "nonpayable",
      "type": "function"
    },
    {
      "constant": true,
      "inputs": [
        {
          "name": "_email",
          "type": "string"
        }
      ],
      "name": "getDistributor",
      "outputs": [
        {
          "name": "",
          "type": "bytes32"
        },
        {
          "name": "email",
          "type": "string"
        },
        {
          "name": "name",
          "type": "string"
        },
        {
          "name": "contactNumber",
          "type": "uint256"
        },
        {
          "name": "userAddress",
          "type": "string"
        },
        {
          "name": "userAccess",
          "type": "uint256"
        }
      ],
      "payable": false,
      "stateMutability": "view",
      "type": "function"
    },
    {
      "constant": true,
      "inputs": [
        {
          "name": "i",
          "type": "uint256"
        }
      ],
      "name": "getDistributori",
      "outputs": [
        {
          "name": "",
          "type": "bytes32"
        },
        {
          "name": "",
          "type": "string"
        },
        {
          "name": "",
          "type": "string"
        },
        {
          "name": "",
          "type": "uint256"
        },
        {
          "name": "",
          "type": "string"
        },
        {
          "name": "",
          "type": "uint256"
        }
      ],
      "payable": false,
      "stateMutability": "view",
      "type": "function"
    },
    {
      "constant": true,
      "inputs": [],
      "name": "getDistributorCount",
      "outputs": [
        {
          "name": "",
          "type": "uint256"
        }
      ],
      "payable": false,
      "stateMutability": "view",
      "type": "function"
    },
    {
      "constant": false,
      "inputs": [
        {
          "name": "_email",
          "type": "string"
        },
        {
          "name": "_name",
          "type": "string"
        }
      ],
      "name": "updateDistributorName",
      "outputs": [
        {
          "name": "success",
          "type": "bool"
        }
      ],
      "payable": false,
      "stateMutability": "nonpayable",
      "type": "function"
    },
    {
      "constant": false,
      "inputs": [
        {
          "name": "_email",
          "type": "string"
        },
        {
          "name": "_userAddress",
          "type": "string"
        }
      ],
      "name": "updateDistributorAddress",
      "outputs": [
        {
          "name": "success",
          "type": "bool"
        }
      ],
      "payable": false,
      "stateMutability": "nonpayable",
      "type": "function"
    },
    {
      "constant": false,
      "inputs": [
        {
          "name": "_email",
          "type": "string"
        },
        {
          "name": "_contactNumber",
          "type": "uint256"
        }
      ],
      "name": "updateDistributorContactNumber",
      "outputs": [
        {
          "name": "success",
          "type": "bool"
        }
      ],
      "payable": false,
      "stateMutability": "nonpayable",
      "type": "function"
    },
    {
      "constant": false,
      "inputs": [
        {
          "name": "_email",
          "type": "string"
        },
        {
          "name": "index",
          "type": "uint256[]"
        },
        {
          "name": "_name",
          "type": "string"
        },
        {
          "name": "_userAddress",
          "type": "string"
        },
        {
          "name": "_contactNumber",
          "type": "uint256"
        }
      ],
      "name": "updateDistributor",
      "outputs": [
        {
          "name": "success",
          "type": "bool"
        }
      ],
      "payable": false,
      "stateMutability": "nonpayable",
      "type": "function"
    },
    {
      "constant": false,
      "inputs": [
        {
          "name": "_email",
          "type": "string"
        }
      ],
      "name": "updateDistributoriEmail",
      "outputs": [
        {
          "name": "success",
          "type": "bool"
        }
      ],
      "payable": false,
      "stateMutability": "nonpayable",
      "type": "function"
    },
    {
      "constant": true,
      "inputs": [
        {
          "name": "email",
          "type": "bytes32"
        }
      ],
      "name": "checkDistributorUserAccess",
      "outputs": [
        {
          "name": "userAccess",
          "type": "uint256"
        }
      ],
      "payable": false,
      "stateMutability": "view",
      "type": "function"
    },
    {
      "constant": true,
      "inputs": [
        {
          "name": "email",
          "type": "bytes32"
        }
      ],
      "name": "checkDistributorPasswordCode",
      "outputs": [
        {
          "name": "passwordCode",
          "type": "bytes32"
        }
      ],
      "payable": false,
      "stateMutability": "view",
      "type": "function"
    }
  ],
  "bytecode": "0x608060405234801561001057600080fd5b506138f6806100206000396000f3fe608060405234801561001057600080fd5b506004361061012c5760003560e01c80636420152a116100ad578063ca38649611610071578063ca38649614610f2f578063d43bcb5f14611058578063e669c002146110fc578063ea0fd49b14611119578063f6edf18c146111365761012c565b80636420152a14610a905780636609b7cc14610c1457806377c7b72514610cba578063c7f970ff14610de3578063c8fc50c914610e895761012c565b80634cb1389b116100f45780634cb1389b146106d95780634dc242c81461088957806353f378fc146109b257806356f81d8b14610a565780635d4b3b7f14610a735761012c565b806316ac4bd2146101315780632133b063146101c3578063247fb142146104095780632d9c9d88146104385780634743c2cb146104dc575b600080fd5b61014e6004803603602081101561014757600080fd5b503561113e565b6040805160208082528351818301528351919283929083019185019080838360005b83811015610188578181015183820152602001610170565b50505050905090810190601f1680156101b55780820380516001836020036101000a031916815260200191505b509250505060405180910390f35b6103f5600480360360a08110156101d957600080fd5b810190602081018135600160201b8111156101f357600080fd5b82018360208201111561020557600080fd5b803590602001918460018302840111600160201b8311171561022657600080fd5b91908080601f0160208091040260200160405190810160405280939291908181526020018383808284376000920191909152509295949360208101935035915050600160201b81111561027857600080fd5b82018360208201111561028a57600080fd5b803590602001918460208302840111600160201b831117156102ab57600080fd5b9190808060200260200160405190810160405280939291908181526020018383602002808284376000920191909152509295949360208101935035915050600160201b8111156102fa57600080fd5b82018360208201111561030c57600080fd5b803590602001918460018302840111600160201b8311171561032d57600080fd5b91908080601f0160208091040260200160405190810160405280939291908181526020018383808284376000920191909152509295949360208101935035915050600160201b81111561037f57600080fd5b82018360208201111561039157600080fd5b803590602001918460018302840111600160201b831117156103b257600080fd5b91908080601f0160208091040260200160405190810160405280939291908181526020018383808284376000920191909152509295505091359250611385915050565b604080519115158252519081900360200190f35b6104266004803603602081101561041f57600080fd5b5035611bb8565b60408051918252519081900360200190f35b6103f56004803603602081101561044e57600080fd5b810190602081018135600160201b81111561046857600080fd5b82018360208201111561047a57600080fd5b803590602001918460018302840111600160201b8311171561049b57600080fd5b91908080601f016020809104026020016040519081016040528093929190818152602001838380828437600092019190915250929550611bcd945050505050565b610580600480360360208110156104f257600080fd5b810190602081018135600160201b81111561050c57600080fd5b82018360208201111561051e57600080fd5b803590602001918460018302840111600160201b8311171561053f57600080fd5b91908080601f016020809104026020016040519081016040528093929190818152602001838380828437600092019190915250929550611bd3945050505050565b60405180878152602001806020018060200186815260200180602001858152602001848103845289818151815260200191508051906020019080838360005b838110156105d75781810151838201526020016105bf565b50505050905090810190601f1680156106045780820380516001836020036101000a031916815260200191505b5084810383528851815288516020918201918a019080838360005b8381101561063757818101518382015260200161061f565b50505050905090810190601f1680156106645780820380516001836020036101000a031916815260200191505b50848103825286518152865160209182019188019080838360005b8381101561069757818101518382015260200161067f565b50505050905090810190601f1680156106c45780820380516001836020036101000a031916815260200191505b50995050505050505050505060405180910390f35b6103f5600480360360808110156106ef57600080fd5b810190602081018135600160201b81111561070957600080fd5b82018360208201111561071b57600080fd5b803590602001918460018302840111600160201b8311171561073c57600080fd5b91908080601f0160208091040260200160405190810160405280939291908181526020018383808284376000920191909152509295949360208101935035915050600160201b81111561078e57600080fd5b8201836020820111156107a057600080fd5b803590602001918460018302840111600160201b831117156107c157600080fd5b91908080601f0160208091040260200160405190810160405280939291908181526020018383808284376000920191909152509295949360208101935035915050600160201b81111561081357600080fd5b82018360208201111561082557600080fd5b803590602001918460018302840111600160201b8311171561084657600080fd5b91908080601f0160208091040260200160405190810160405280939291908181526020018383808284376000920191909152509295505091359250611e8d915050565b6103f56004803603604081101561089f57600080fd5b810190602081018135600160201b8111156108b957600080fd5b8201836020820111156108cb57600080fd5b803590602001918460018302840111600160201b831117156108ec57600080fd5b91908080601f0160208091040260200160405190810160405280939291908181526020018383808284376000920191909152509295949360208101935035915050600160201b81111561093e57600080fd5b82018360208201111561095057600080fd5b803590602001918460018302840111600160201b8311171561097157600080fd5b91908080601f01602080910402602001604051908101604052809392919081815260200183838082843760009201919091525092955061222f945050505050565b610426600480360360208110156109c857600080fd5b810190602081018135600160201b8111156109e257600080fd5b8201836020820111156109f457600080fd5b803590602001918460018302840111600160201b83111715610a1557600080fd5b91908080601f01602080910402602001604051908101604052809392919081815260200183838082843760009201919091525092955061252c945050505050565b61058060048036036020811015610a6c57600080fd5b50356125ee565b61042660048036036020811015610a8957600080fd5b5035612871565b610aad60048036036020811015610aa657600080fd5b5035612886565b6040518080602001898152602001888152602001806020018781526020018060200186815260200185815260200184810384528c818151815260200191508051906020019080838360005b83811015610b10578181015183820152602001610af8565b50505050905090810190601f168015610b3d5780820380516001836020036101000a031916815260200191505b5084810383528951815289516020918201918b019080838360005b83811015610b70578181015183820152602001610b58565b50505050905090810190601f168015610b9d5780820380516001836020036101000a031916815260200191505b50848103825287518152875160209182019189019080838360005b83811015610bd0578181015183820152602001610bb8565b50505050905090810190601f168015610bfd5780820380516001836020036101000a031916815260200191505b509b50505050505050505050505060405180910390f35b6103f560048036036040811015610c2a57600080fd5b810190602081018135600160201b811115610c4457600080fd5b820183602082011115610c5657600080fd5b803590602001918460018302840111600160201b83111715610c7757600080fd5b91908080601f0160208091040260200160405190810160405280939291908181526020018383808284376000920191909152509295505091359250612a71915050565b6103f560048036036040811015610cd057600080fd5b810190602081018135600160201b811115610cea57600080fd5b820183602082011115610cfc57600080fd5b803590602001918460018302840111600160201b83111715610d1d57600080fd5b91908080601f0160208091040260200160405190810160405280939291908181526020018383808284376000920191909152509295949360208101935035915050600160201b811115610d6f57600080fd5b820183602082011115610d8157600080fd5b803590602001918460018302840111600160201b83111715610da257600080fd5b91908080601f016020809104026020016040519081016040528093929190818152602001838380828437600092019190915250929550612b29945050505050565b6103f560048036036040811015610df957600080fd5b810190602081018135600160201b811115610e1357600080fd5b820183602082011115610e2557600080fd5b803590602001918460018302840111600160201b83111715610e4657600080fd5b91908080601f0160208091040260200160405190810160405280939291908181526020018383808284376000920191909152509295505091359250612e28915050565b6103f560048036036040811015610e9f57600080fd5b810190602081018135600160201b811115610eb957600080fd5b820183602082011115610ecb57600080fd5b803590602001918460018302840111600160201b83111715610eec57600080fd5b91908080601f0160208091040260200160405190810160405280939291908181526020018383808284376000920191909152509295505091359250612eb4915050565b6103f560048036036040811015610f4557600080fd5b810190602081018135600160201b811115610f5f57600080fd5b820183602082011115610f7157600080fd5b803590602001918460018302840111600160201b83111715610f9257600080fd5b91908080601f0160208091040260200160405190810160405280939291908181526020018383808284376000920191909152509295949360208101935035915050600160201b811115610fe457600080fd5b820183602082011115610ff657600080fd5b803590602001918460018302840111600160201b8311171561101757600080fd5b91908080601f01602080910402602001604051908101604052809392919081815260200183838082843760009201919091525092955061314b945050505050565b6104266004803603602081101561106e57600080fd5b810190602081018135600160201b81111561108857600080fd5b82018360208201111561109a57600080fd5b803590602001918460018302840111600160201b831117156110bb57600080fd5b91908080601f016020809104026020016040519081016040528093929190818152602001838380828437600092019190915250929550613458945050505050565b61014e6004803603602081101561111257600080fd5b50356134e0565b6103f56004803603602081101561112f57600080fd5b5035613648565b610426613695565b60008181526020819052604090206006015460609081906005141561126057600083815260208190526040902060036006820181905560079091015460018054909190811061118957fe5b906000526020600020906006020160050181905550600160008085815260200190815260200160002060070154815481106111c057fe5b600091825260209182902060026006909202018101805460408051601f6000196101006001861615020190931694909404918201859004850284018501905280835291929091908301828280156112585780601f1061122d57610100808354040283529160200191611258565b820191906000526020600020905b81548152906001019060200180831161123b57829003601f168201915b505050505090505b6000838152602081905260409020600601546003141561137d5760008381526020819052604090206005600682018190556007909101546001805490919081106112a657fe5b906000526020600020906006020160050181905550600160008085815260200190815260200160002060070154815481106112dd57fe5b600091825260209182902060026006909202018101805460408051601f6000196101006001861615020190931694909404918201859004850284018501905280835291929091908301828280156113755780601f1061134a57610100808354040283529160200191611375565b820191906000526020600020905b81548152906001019060200180831161135857829003601f168201915b505050505090505b90505b919050565b600080866040516020018082805190602001908083835b602083106113bb5780518252601f19909201916020918201910161139c565b6001836020036101000a03801982511681845116808217855250505050505090500191505060405160208183030381529060405280519060200120905061140181613648565b15156001146114525760408051600160e51b62461bcd0281526020600482015260126024820152600160701b7175736572206e6f7420696e2073797374656d02604482015290519081900360640190fd5b6000818152602081905260408120600701545b8751821015611ba95787828151811061147a57fe5b6020026020010151600114156116d85760008381526020818152604090912088516114ad926003909201918a01906137d9565b5086600182815481106114bc57fe5b906000526020600020906006020160020190805190602001906114e09291906137d9565b50826000805160206138ab833981519152600080868152602001908152602001600020600701548b600080888152602001908152602001600020600201548b6000808a8152602001908152602001600020600401546000808b81526020019081526020016000206005016000808c8152602001908152602001600020600601546040518088815260200180602001878152602001806020018681526020018060200185815260200184810384528a818151815260200191508051906020019080838360005b838110156115bd5781810151838201526020016115a5565b50505050905090810190601f1680156115ea5780820380516001836020036101000a031916815260200191505b5084810383528851815288516020918201918a019080838360005b8381101561161d578181015183820152602001611605565b50505050905090810190601f16801561164a5780820380516001836020036101000a031916815260200191505b508481038252865460026000196101006001841615020190911604808252602090910190879080156116bd5780601f10611692576101008083540402835291602001916116bd565b820191906000526020600020905b8154815290600101906020018083116116a057829003601f168201915b50509a505050505050505050505060405180910390a2611b9e565b8782815181106116e457fe5b602002602001015160021415611942576000838152602081815260409091208751611717926005909201918901906137d9565b50856001828154811061172657fe5b9060005260206000209060060201600401908051906020019061174a9291906137d9565b50826000805160206138ab833981519152600080868152602001908152602001600020600701548b600080888152602001908152602001600020600201546000808981526020019081526020016000206003016000808a8152602001908152602001600020600401548c6000808c8152602001908152602001600020600601546040518088815260200180602001878152602001806020018681526020018060200185815260200184810384528a818151815260200191508051906020019080838360005b8381101561182757818101518382015260200161180f565b50505050905090810190601f1680156118545780820380516001836020036101000a031916815260200191505b508481038352885460026000196101006001841615020190911604808252602090910190899080156118c75780601f1061189c576101008083540402835291602001916118c7565b820191906000526020600020905b8154815290600101906020018083116118aa57829003601f168201915b5050848103825286518152865160209182019188019080838360005b838110156118fb5781810151838201526020016118e3565b50505050905090810190601f1680156119285780820380516001836020036101000a031916815260200191505b509a505050505050505050505060405180910390a2611b9e565b87828151811061194e57fe5b602002602001015160031415611b9e576000838152602081905260409020600401859055600180548691908390811061198357fe5b906000526020600020906006020160030181905550826000805160206138ab833981519152600080868152602001908152602001600020600701548b600080888152602001908152602001600020600201546000808981526020019081526020016000206003018a6000808b81526020019081526020016000206005016000808c8152602001908152602001600020600601546040518088815260200180602001878152602001806020018681526020018060200185815260200184810384528a818151815260200191508051906020019080838360005b83811015611a73578181015183820152602001611a5b565b50505050905090810190601f168015611aa05780820380516001836020036101000a031916815260200191505b50848103835288546002600019610100600184161502019091160480825260209091019089908015611b135780601f10611ae857610100808354040283529160200191611b13565b820191906000526020600020905b815481529060010190602001808311611af657829003601f168201915b5050848103825286546002600019610100600184161502019091160480825260209091019087908015611b875780601f10611b5c57610100808354040283529160200191611b87565b820191906000526020600020905b815481529060010190602001808311611b6a57829003601f168201915b50509a505050505050505050505060405180910390a25b600190910190611465565b50600198975050505050505050565b60009081526020819052604090206006015490565b50600090565b600060608060006060600080876040516020018082805190602001908083835b60208310611c125780518252601f199092019160209182019101611bf3565b6001836020036101000a038019825116818451168082178552505050505050905001915050604051602081830303815290604052805190602001209050611c5881613648565b1515600114611ca95760408051600160e51b62461bcd0281526020600482015260126024820152600160701b7175736572206e6f7420696e2073797374656d02604482015290519081900360640190fd5b60008181526020818152604091829020600481015460068201548254855160026001831615610100026000190190921691909104601f810186900486028201860190965285815286959394600386019460058701939291879190830182828015611d545780601f10611d2957610100808354040283529160200191611d54565b820191906000526020600020905b815481529060010190602001808311611d3757829003601f168201915b5050875460408051602060026001851615610100026000190190941693909304601f8101849004840282018401909252818152959a5089945092508401905082828015611de25780601f10611db757610100808354040283529160200191611de2565b820191906000526020600020905b815481529060010190602001808311611dc557829003601f168201915b5050855460408051602060026001851615610100026000190190941693909304601f810184900484028201840190925281815295995087945092508401905082828015611e705780601f10611e4557610100808354040283529160200191611e70565b820191906000526020600020905b815481529060010190602001808311611e5357829003601f168201915b505050505091509650965096509650965096505091939550919395565b600080856040516020018082805190602001908083835b60208310611ec35780518252601f199092019160209182019101611ea4565b6001836020036101000a03801982511681845116808217855250505050505090500191505060405160208183030381529060405280519060200120905060006040516020018080600160f81b6061028152506001019050604051602081830303815290604052805190602001209050611f3b82613648565b151560011415611f955760408051600160e51b62461bcd02815260206004820152601660248201527f7573657220616c6c7265647920696e2073797374656d00000000000000000000604482015290519081900360640190fd5b6000828152602081815260409091208851611fb2928a01906137d9565b5060008281526020818152604090912060018101849055600281018390558751611fe4926003909201918901906137d9565b5060008281526020818152604090912060048101869055865161200f926005909201918801906137d9565b5060008281526020819052604090206001600690910155612033828888878961369c565b50600154600083815260208190526040902060001990910160079091015561205a8761252c565b50817f914230d96b337ea5a633586f1b56f8d8c8ce11ac855c2c24e15c074576d1dd5f6000808581526020019081526020016000206007015489600080878152602001908152602001600020600201548a898b6000808b8152602001908152602001600020600601546040518088815260200180602001878152602001806020018681526020018060200185815260200184810384528a818151815260200191508051906020019080838360005b83811015612120578181015183820152602001612108565b50505050905090810190601f16801561214d5780820380516001836020036101000a031916815260200191505b5084810383528851815288516020918201918a019080838360005b83811015612180578181015183820152602001612168565b50505050905090810190601f1680156121ad5780820380516001836020036101000a031916815260200191505b50848103825286518152865160209182019188019080838360005b838110156121e05781810151838201526020016121c8565b50505050905090810190601f16801561220d5780820380516001836020036101000a031916815260200191505b509a505050505050505050505060405180910390a25060019695505050505050565b600080836040516020018082805190602001908083835b602083106122655780518252601f199092019160209182019101612246565b6001836020036101000a0380198251168184511680821785525050505050509050019150506040516020818303038152906040528051906020012090506122ab81613648565b15156001146122fc5760408051600160e51b62461bcd0281526020600482015260126024820152600160701b7175736572206e6f7420696e2073797374656d02604482015290519081900360640190fd5b600081815260208181526040909120845161231f926003909201918601906137d9565b5060008181526020819052604090206007015460018054859290811061234157fe5b906000526020600020906006020160020190805190602001906123659291906137d9565b50600081815260208181526040808320600781015460028201546004830154600684015485518481529586018390526080860182905260c0860181905260e08688018181528d51918801919091528c518a996000805160206138ab8339815191529996988f9896978f97600501959491939192606085019260a0860192610100870192908d0191908190849084905b8381101561240c5781810151838201526020016123f4565b50505050905090810190601f1680156124395780820380516001836020036101000a031916815260200191505b5084810383528851815288516020918201918a019080838360005b8381101561246c578181015183820152602001612454565b50505050905090810190601f1680156124995780820380516001836020036101000a031916815260200191505b5084810382528654600260001961010060018416150201909116048082526020909101908790801561250c5780601f106124e15761010080835404028352916020019161250c565b820191906000526020600020905b8154815290600101906020018083116124ef57829003601f168201915b50509a505050505050505050505060405180910390a25060019392505050565b600080826040516020018082805190602001908083835b602083106125625780518252601f199092019160209182019101612543565b6001836020036101000a03801982511681845116808217855250505050505090500191505060405160208183030381529060405280519060200120905060006125a96137a2565b60008381526002602052604090205490915082146125d35760008281526002602052604090208290555b60009182526002602052604090912060010181905592915050565b60006060806000606060006001878154811061260657fe5b9060005260206000209060060201600001546001888154811061262557fe5b90600052602060002090600602016001016001898154811061264357fe5b906000526020600020906006020160020160018a8154811061266157fe5b90600052602060002090600602016003015460018b8154811061268057fe5b906000526020600020906006020160040160018c8154811061269e57fe5b600091825260209182902060056006909202010154855460408051601f6002600019610100600187161502019094169390930492830185900485028101850190915281815291928791908301828280156127395780601f1061270e57610100808354040283529160200191612739565b820191906000526020600020905b81548152906001019060200180831161271c57829003601f168201915b5050875460408051602060026001851615610100026000190190941693909304601f8101849004840282018401909252818152959a50899450925084019050828280156127c75780601f1061279c576101008083540402835291602001916127c7565b820191906000526020600020905b8154815290600101906020018083116127aa57829003601f168201915b5050855460408051602060026001851615610100026000190190941693909304601f8101849004840282018401909252818152959950879450925084019050828280156128555780601f1061282a57610100808354040283529160200191612855565b820191906000526020600020905b81548152906001019060200180831161283857829003601f168201915b5050505050915095509550955095509550955091939550919395565b60009081526020819052604090206002015490565b6000602081815291815260409081902080548251601f60026000196101006001861615020190931692909204918201859004850281018501909352808352909283919083018282801561291a5780601f106128ef5761010080835404028352916020019161291a565b820191906000526020600020905b8154815290600101906020018083116128fd57829003601f168201915b505050505090806001015490806002015490806003018054600181600116156101000203166002900480601f0160208091040260200160405190810160405280929190818152602001828054600181600116156101000203166002900480156129c45780601f10612999576101008083540402835291602001916129c4565b820191906000526020600020905b8154815290600101906020018083116129a757829003601f168201915b50505050600483015460058401805460408051602060026001851615610100026000190190941693909304601f81018490048402820184019092528181529596939593945090830182828015612a5b5780601f10612a3057610100808354040283529160200191612a5b565b820191906000526020600020905b815481529060010190602001808311612a3e57829003601f168201915b5050505050908060060154908060070154905088565b600080836040516020018082805190602001908083835b60208310612aa75780518252601f199092019160209182019101612a88565b51815160209384036101000a60001901801990921691161790526040805192909401828103601f19018352845281519181019190912060008181529182905292902060068101889055600701546001805493965088955093509182109050612b0b57fe5b60009182526020909120600560069092020101555060019392505050565b600080836040516020018082805190602001908083835b60208310612b5f5780518252601f199092019160209182019101612b40565b6001836020036101000a038019825116818451168082178552505050505050905001915050604051602081830303815290604052805190602001209050612ba581613648565b1515600114612bf65760408051600160e51b62461bcd0281526020600482015260126024820152600160701b7175736572206e6f7420696e2073797374656d02604482015290519081900360640190fd5b6000818152602081815260409091208451612c19926005909201918601906137d9565b50600081815260208190526040902060070154600180548592908110612c3b57fe5b90600052602060002090600602016004019080519060200190612c5f9291906137d9565b50600081815260208181526040808320600781015460028201546004830154600684015485518481529586018390526080860182905260c0860181905260e08688018181528d51918801919091528c518a996000805160206138ab8339815191529996988f9896976003909701968f959491939192606085019260a0860192610100870192908d0191908190849084905b83811015612d08578181015183820152602001612cf0565b50505050905090810190601f168015612d355780820380516001836020036101000a031916815260200191505b50848103835288546002600019610100600184161502019091160480825260209091019089908015612da85780601f10612d7d57610100808354040283529160200191612da8565b820191906000526020600020905b815481529060010190602001808311612d8b57829003601f168201915b5050848103825286518152865160209182019188019080838360005b83811015612ddc578181015183820152602001612dc4565b50505050905090810190601f168015612e095780820380516001836020036101000a031916815260200191505b509a505050505050505050505060405180910390a25060019392505050565b600080836040516020018082805190602001908083835b60208310612e5e5780518252601f199092019160209182019101612e3f565b51815160209384036101000a60001901801990921691161790526040805192909401828103601f190183528452815191810191909120600090815260029091529190912060010154959095149695505050505050565b600080836040516020018082805190602001908083835b60208310612eea5780518252601f199092019160209182019101612ecb565b6001836020036101000a038019825116818451168082178552505050505050905001915050604051602081830303815290604052805190602001209050612f3081613648565b1515600114612f815760408051600160e51b62461bcd0281526020600482015260126024820152600160701b7175736572206e6f7420696e2073797374656d02604482015290519081900360640190fd5b60008181526020819052604090206004810184905560070154600180548592908110612fa957fe5b60009182526020808320600692830201600390810194909455848352828152604080842060078101546002820154948201548351828152938401869052608084018b905260c0840181905260e08486018181528d51918601919091528c518a996000805160206138ab8339815191529994988f989097918701968f96600590910195949293606085019260a0860192610100870192918d0191908190849084905b8381101561306257818101518382015260200161304a565b50505050905090810190601f16801561308f5780820380516001836020036101000a031916815260200191505b508481038352885460026000196101006001841615020190911604808252602090910190899080156131025780601f106130d757610100808354040283529160200191613102565b820191906000526020600020905b8154815290600101906020018083116130e557829003601f168201915b505084810382528654600260001961010060018416150201909116048082526020909101908790801561250c5780601f106124e15761010080835404028352916020019161250c565b600080836040516020018082805190602001908083835b602083106131815780518252601f199092019160209182019101613162565b6001836020036101000a0380198251168184511680821785525050505050509050019150506040516020818303038152906040528051906020012090506000836040516020018082805190602001908083835b602083106131f35780518252601f1990920191602091820191016131d4565b51815160209384036101000a60001901801990921691161790526040805192909401828103601f1901835284528151918101919091206000888152808352848120600280820184905584529481208181556001908101829055925260056006850181905560079094015482549197509395509093508210905061327257fe5b60009182526020808320600560069093020182019390935584825281835260408083206007810154600482015483518281529384018890526080840181905260c0840185905260e08488018181528d51918601919091528c518a986000805160206138ab8339815191529894978f978c9760038101979083019592949193606085019260a08601926101008701928d0191908190849084905b8381101561332357818101518382015260200161330b565b50505050905090810190601f1680156133505780820380516001836020036101000a031916815260200191505b508481038352885460026000196101006001841615020190911604808252602090910190899080156133c35780601f10613398576101008083540402835291602001916133c3565b820191906000526020600020905b8154815290600101906020018083116133a657829003601f168201915b50508481038252865460026000196101006001841615020190911604808252602090910190879080156134375780601f1061340c57610100808354040283529160200191613437565b820191906000526020600020905b81548152906001019060200180831161341a57829003601f168201915b50509a505050505050505050505060405180910390a2506001949350505050565b600080826040516020018082805190602001908083835b6020831061348e5780518252601f19909201916020918201910161346f565b51815160209384036101000a60001901801990921691161790526040805192909401828103601f1901835284528151918101919091206000908152600290915291909120600101549695505050505050565b600081815260026020908152604080832083815560019081018490559183905282206004600682018190556007909101548254606094938593929091811061352457fe5b9060005260206000209060060201600501819055506001600080868152602001908152602001600020600701548154811061355b57fe5b600091825260209182902060026006909202018101805460408051601f6000196101006001861615020190931694909404918201859004850284018501905280835291929091908301828280156135f35780601f106135c8576101008083540402835291602001916135f3565b820191906000526020600020905b8154815290600101906020018083116135d657829003601f168201915b50505060008781526020818152604091829020600701548251908152915194955088947fa9182ea46bf769f0b5f2c986c9a06c228fb686381c72137c62b04826d1b38d86945091829003019150a29392505050565b60015460009061365a57506000611380565b60008281526020819052604090206007015460018054849290811061367b57fe5b906000526020600020906006020160000154149050919050565b6001545b90565b60006136a6613857565b8681526020808201878152604083018790526060830186905260808301859052600160a084018190528054808201808355600092909252845160069091027fb10e2d527612073b26eecdfd717e6a320cf44b4afac2b0732d9fcbe2b7fa0cf6810191825592518051929486949293613744937fb10e2d527612073b26eecdfd717e6a320cf44b4afac2b0732d9fcbe2b7fa0cf70192909101906137d9565b50604082015180516137609160028401916020909101906137d9565b5060608201516003820155608082015180516137869160048401916020909101906137d9565b5060a08201518160050155505050600191505095945050505050565b6040805142602080830191909152448284015243606080840191909152835180840390910181526080909201909252805191012090565b828054600181600116156101000203166002900490600052602060002090601f016020900481019282601f1061381a57805160ff1916838001178555613847565b82800160010185558215613847579182015b8281111561384757825182559160200191906001019061382c565b50613853929150613890565b5090565b6040518060c001604052806000801916815260200160608152602001606081526020016000815260200160608152602001600081525090565b61369991905b80821115613853576000815560010161389656fe768c395b0727785e3cd67e705a67c19f3da627b11c7bccf15bf210d658011446a165627a7a7230582023aa106d4d08435d0acf6455ed4a98eb448d28f8399f58808a03dea54147fa800029",
  "source": "pragma solidity >=0.4.21 <0.6.0;\r\n\r\ncontract DistributorContract {\r\n    \r\n    struct Distributor{\r\n        string email;\r\n        bytes32 emailCode;\r\n        bytes32 passwordCode;\r\n        string name;\r\n        uint contactNumber;\r\n        string userAddress;\r\n        uint userAccess;\r\n        uint index;\r\n    }\r\n\r\n    struct DisplayDistributor{\r\n        bytes32 emailCode;\r\n        string email;\r\n        string name;\r\n        uint contactNumber;\r\n        string userAddress;\r\n        uint userAccess;\r\n    }\r\n    \r\n    event LogNewDistributor(\r\n        bytes32 indexed emailCode,\r\n        uint index,string email,\r\n        bytes32 passwordCode,\r\n        string name,\r\n        uint contactNumber,\r\n        string userAddress,\r\n        uint userAccess\r\n        );\r\n    event LogUpdateDistributor(\r\n        bytes32 indexed emailCode,\r\n        uint index,string email,\r\n        bytes32 passwordCode,\r\n        string name,\r\n        uint contactNumber,\r\n        string userAddress,\r\n        uint userAccess\r\n        );\r\n    event LogDeleteDistributor(\r\n        bytes32 indexed emailcode,\r\n        uint index\r\n        );\r\n        \r\n    struct RegistationToken{\r\n        bytes32 emailCode;\r\n        bytes32 token;\r\n    }\r\n        \r\n    mapping(bytes32 => Distributor) public distributorArray;\r\n    DisplayDistributor[] private distributorIndex;\r\n    mapping(bytes32 => RegistationToken) private distributorRegistationToken;\r\n    \r\n    function isDistributor(bytes32 _emailCode)public view returns(bool isIndeed) {\r\n        if(distributorIndex.length == 0) return false;\r\n        return (distributorIndex[distributorArray[_emailCode].index].emailCode == _emailCode);\r\n    }\r\n    function createDistributorToken(string memory _email)public returns(bytes32){\r\n        bytes32 _emailCode = keccak256(abi.encodePacked((_email)));\r\n        bytes32 token = randomtoken();\r\n        if(distributorRegistationToken[_emailCode].emailCode != _emailCode){\r\n            distributorRegistationToken[_emailCode].emailCode = _emailCode;\r\n        }\r\n        distributorRegistationToken[_emailCode].token = token;\r\n        return token;\r\n    }\r\n    function getDistributorToken(string memory _email)public view returns(bytes32){\r\n        bytes32 _emailCode = keccak256(abi.encodePacked((_email)));\r\n        return  distributorRegistationToken[_emailCode].token;\r\n    }\r\n    function checkDistributorToken(string memory _email,bytes32 _token)public view returns(bool){\r\n        bytes32 _emailCode = keccak256(abi.encodePacked((_email)));\r\n        return  (distributorRegistationToken[_emailCode].token == _token);\r\n    }\r\n    function randomtoken() private view returns (bytes32) {\r\n       return keccak256(abi.encodePacked(block.timestamp,block.difficulty,block.number));\r\n    }\r\n    function setPassword(string memory _email,string memory _password)public returns (bool) {\r\n        bytes32 _emailCode = keccak256(abi.encodePacked((_email)));\r\n        bytes32 _passwordCode = keccak256(abi.encodePacked((_password)));\r\n\r\n        distributorArray[_emailCode].passwordCode = _passwordCode;\r\n        delete distributorRegistationToken[_emailCode];\r\n        distributorArray[_emailCode].userAccess = 5;\r\n        distributorIndex[distributorArray[_emailCode].index].userAccess = 5;\r\n        emit LogUpdateDistributor(\r\n            _emailCode,\r\n            distributorArray[_emailCode].index,\r\n            _email,\r\n            _passwordCode,\r\n            distributorArray[_emailCode].name,\r\n            distributorArray[_emailCode].contactNumber,\r\n            distributorArray[_emailCode].userAddress,\r\n            5\r\n            );\r\n        return true;\r\n\r\n    }\r\n    function setDisplayDistributor(bytes32 _emailCode,string memory _email,string memory _name,uint _telephone,string memory _address)\r\n     private returns(bool){\r\n\r\n        DisplayDistributor memory displayDistributor;\r\n        displayDistributor.emailCode = _emailCode;\r\n        displayDistributor.email = _email;\r\n        displayDistributor.name = _name;\r\n        displayDistributor.contactNumber = _telephone;\r\n        displayDistributor.userAddress = _address;\r\n        displayDistributor.userAccess = 1;\r\n        distributorIndex.push(displayDistributor);\r\n        return true;\r\n\r\n    }\r\n    function insertDistributor(string memory _email,string memory _name,string memory _address,uint _telephone) public returns(bool){\r\n        bytes32 _emailCode = keccak256(abi.encodePacked((_email)));\r\n        bytes32 _passwordCode = keccak256(abi.encodePacked((\"a\")));\r\n        require(isDistributor(_emailCode) != true,'user allredy in system');\r\n\r\n        distributorArray[_emailCode].email = _email;\r\n        distributorArray[_emailCode].emailCode = _emailCode;\r\n        distributorArray[_emailCode].passwordCode = _passwordCode;\r\n        distributorArray[_emailCode].name = _name;\r\n        distributorArray[_emailCode].contactNumber = _telephone;\r\n        distributorArray[_emailCode].userAddress = _address;\r\n        distributorArray[_emailCode].userAccess = 1;\r\n        setDisplayDistributor(_emailCode,_email,_name,_telephone,_address);\r\n        distributorArray[_emailCode].index = distributorIndex.length-1;\r\n        createDistributorToken(_email);\r\n\r\n        emit LogNewDistributor (\r\n            _emailCode,\r\n            distributorArray[_emailCode].index,\r\n            _email,\r\n            distributorArray[_emailCode].passwordCode,\r\n            _name,\r\n            _telephone,\r\n            _address,\r\n            distributorArray[_emailCode].userAccess\r\n            );\r\n        return true;\r\n    }\r\n    function deleteDistributor (bytes32 email) public returns(string memory){\r\n        uint i;\r\n        string memory name;\r\n        delete distributorRegistationToken[email];\r\n        distributorArray[email].userAccess = 4;\r\n        distributorIndex[distributorArray[email].index].userAccess = 4;\r\n        name = distributorIndex[distributorArray[email].index].name;\r\n        emit LogDeleteDistributor(\r\n            email,\r\n            distributorArray[email].index\r\n        );\r\n        return name;\r\n    }\r\n    function blockDistributor(bytes32 email) public returns(string memory)\r\n    {\r\n        string memory name;\r\n        if(distributorArray[email].userAccess == 5){\r\n        distributorArray[email].userAccess = 3;\r\n        distributorIndex[distributorArray[email].index].userAccess = 3;\r\n        name = distributorIndex[distributorArray[email].index].name;\r\n        }\r\n        if(distributorArray[email].userAccess == 3){\r\n        distributorArray[email].userAccess = 5;\r\n        distributorIndex[distributorArray[email].index].userAccess = 5;\r\n        name = distributorIndex[distributorArray[email].index].name;\r\n        }\r\n        return name;\r\n    }\r\n    function editUserAccess(string memory _email,uint usreAccess)public returns(bool){\r\n        bytes32 email = keccak256(abi.encodePacked((_email)));\r\n        distributorArray[email].userAccess = usreAccess;\r\n        distributorIndex[distributorArray[email].index].userAccess = usreAccess;\r\n        return true;\r\n\r\n    }\r\n    function getDistributor(string memory _email) public view returns(bytes32,string memory email,string memory name,\r\n    uint contactNumber,string memory userAddress, uint userAccess){\r\n        bytes32 _emailCode = keccak256(abi.encodePacked((_email)));\r\n        require(isDistributor(_emailCode) == true,'user not in system');\r\n        return(\r\n            _emailCode,\r\n            distributorArray[_emailCode].email,\r\n            distributorArray[_emailCode].name,\r\n            distributorArray[_emailCode].contactNumber,\r\n            distributorArray[_emailCode].userAddress,\r\n            distributorArray[_emailCode].userAccess\r\n            );\r\n    }\r\n    function getDistributori(uint i) public view returns(\r\n        bytes32,\r\n        string memory,\r\n        string memory,\r\n        uint,\r\n        string memory,\r\n        uint\r\n        ){\r\n            return (\r\n                distributorIndex[i].emailCode,\r\n                distributorIndex[i].email,\r\n                distributorIndex[i].name,\r\n                distributorIndex[i].contactNumber,\r\n                distributorIndex[i].userAddress,\r\n                distributorIndex[i].userAccess\r\n                );\r\n    }\r\n    function getDistributorCount() public view returns(uint)\r\n    {\r\n        return distributorIndex.length;\r\n    }\r\n    \r\n    // function updateUserEmail(address userAddress, bytes32 userEmail) public returns(bool success)\r\n    // {\r\n    //     userStructs[userAddress].userEmail = userEmail;\r\n    //     emit LogUpdateUser(userAddress,  userStructs[userAddress].index, userEmail, userStructs[userAddress].userAge);\r\n    //     return true;\r\n    // }\r\n    function updateDistributorName (string memory _email,string memory _name) public returns(bool success){\r\n        bytes32 _emailCode = keccak256(abi.encodePacked((_email)));\r\n        require(isDistributor(_emailCode) == true,'user not in system');\r\n        distributorArray[_emailCode].name = _name;\r\n        distributorIndex[distributorArray[_emailCode].index].name = _name;\r\n        emit LogUpdateDistributor(\r\n            _emailCode,\r\n            distributorArray[_emailCode].index,\r\n            _email,\r\n            distributorArray[_emailCode].passwordCode,\r\n            _name,\r\n            distributorArray[_emailCode].contactNumber,\r\n            distributorArray[_emailCode].userAddress,\r\n            distributorArray[_emailCode].userAccess\r\n            );\r\n        return true;\r\n    }\r\n    function updateDistributorAddress (string memory _email,string memory _userAddress) public returns(bool success){\r\n        bytes32 _emailCode = keccak256(abi.encodePacked((_email)));\r\n        require(isDistributor(_emailCode) == true,'user not in system');\r\n        distributorArray[_emailCode].userAddress = _userAddress;\r\n        distributorIndex[distributorArray[_emailCode].index].userAddress = _userAddress;\r\n        emit LogUpdateDistributor(\r\n            _emailCode,\r\n            distributorArray[_emailCode].index,\r\n            _email,\r\n            distributorArray[_emailCode].passwordCode,\r\n            distributorArray[_emailCode].name,\r\n            distributorArray[_emailCode].contactNumber,\r\n            _userAddress,\r\n            distributorArray[_emailCode].userAccess\r\n            );\r\n        return true;\r\n    }\r\n    function updateDistributorContactNumber (string memory _email,uint _contactNumber) public returns(bool success){\r\n        bytes32 _emailCode = keccak256(abi.encodePacked((_email)));\r\n        require(isDistributor(_emailCode) == true,'user not in system');\r\n        distributorArray[_emailCode].contactNumber = _contactNumber;\r\n        distributorIndex[distributorArray[_emailCode].index].contactNumber = _contactNumber;\r\n        emit LogUpdateDistributor(\r\n            _emailCode,\r\n            distributorArray[_emailCode].index,\r\n            _email,\r\n            distributorArray[_emailCode].passwordCode,\r\n            distributorArray[_emailCode].name,\r\n            _contactNumber,\r\n            distributorArray[_emailCode].userAddress,\r\n            distributorArray[_emailCode].userAccess\r\n            );\r\n        return true;\r\n    }\r\n    function updateDistributor(\r\n        string memory _email,\r\n        uint[] memory index,\r\n        string memory _name,\r\n        string memory _userAddress,\r\n        uint _contactNumber\r\n        ) public returns(bool success){\r\n        bytes32 _emailCode = keccak256(abi.encodePacked((_email)));\r\n        require(isDistributor(_emailCode) == true,'user not in system');\r\n        uint i;\r\n        uint num = distributorArray[_emailCode].index;\r\n\r\n        for (i = 0;i<index.length;i++){\r\n            if(index[i]==1){\r\n                distributorArray[_emailCode].name = _name;\r\n                distributorIndex[num].name = _name;\r\n                emit LogUpdateDistributor(\r\n                    _emailCode,\r\n                    distributorArray[_emailCode].index,\r\n                    _email,distributorArray[_emailCode].passwordCode,\r\n                    _name,\r\n                    distributorArray[_emailCode].contactNumber,\r\n                    distributorArray[_emailCode].userAddress,\r\n                    distributorArray[_emailCode].userAccess\r\n                    );\r\n\r\n            }\r\n            else if(index[i]==2){\r\n                distributorArray[_emailCode].userAddress = _userAddress;\r\n\r\n                distributorIndex[num].userAddress = _userAddress;\r\n\r\n                emit LogUpdateDistributor(\r\n                    _emailCode,\r\n                    distributorArray[_emailCode].index,\r\n                    _email,\r\n                    distributorArray[_emailCode].passwordCode,\r\n                    distributorArray[_emailCode].name,\r\n                    distributorArray[_emailCode].contactNumber,\r\n                    _userAddress,\r\n                    distributorArray[_emailCode].userAccess\r\n                    );\r\n\r\n            }\r\n            else if(index[i]==3){\r\n                distributorArray[_emailCode].contactNumber = _contactNumber;\r\n                distributorIndex[num].contactNumber = _contactNumber;\r\n                emit LogUpdateDistributor(\r\n                    _emailCode,\r\n                    distributorArray[_emailCode].index,\r\n                    _email,\r\n                    distributorArray[_emailCode].passwordCode,\r\n                    distributorArray[_emailCode].name,\r\n                    _contactNumber,\r\n                    distributorArray[_emailCode].userAddress,\r\n                    distributorArray[_emailCode].userAccess\r\n                    );\r\n\r\n            }\r\n        }\r\n        return true;\r\n    }\r\n    ///////\r\n    function updateDistributoriEmail (string memory _email) public returns(bool success)\r\n    {\r\n       // return true;\r\n    }\r\n    function checkDistributorUserAccess(bytes32 email)public view returns(uint userAccess){\r\n        \r\n        return distributorArray[email].userAccess;\r\n    }\r\n    function checkDistributorPasswordCode(bytes32 email) public view returns(bytes32 passwordCode ){\r\n        return distributorArray[email].passwordCode;\r\n    }\r\n}",
  "sourcePath": "C:\\project\\tea supply chain mangement system\\test2\\contracts\\Distributor.sol",
  "compiler": {
    "name": "solc",
    "version": "0.5.8+commit.23d335f2.Emscripten.clang"
  },
  "schemaVersion": "3.0.16",
  "updatedAt": "2020-01-13T03:30:36.456Z",
  "devdoc": {
    "methods": {}
  },
  "userdoc": {
    "methods": {
      "updateDistributoriEmail(string)": {
        "notice": "////"
      }
    }
  }
}