{
  "contractName": "DistributorContract",
  "abi": [
    {
      "constant": true,
      "inputs": [
        {
          "name": "",
          "type": "bytes32"
        }
      ],
      "name": "distributorArray",
      "outputs": [
        {
          "name": "email",
          "type": "string"
        },
        {
          "name": "emailCode",
          "type": "bytes32"
        },
        {
          "name": "passwordCode",
          "type": "bytes32"
        },
        {
          "name": "passwordRestToken",
          "type": "bytes32"
        },
        {
          "name": "name",
          "type": "string"
        },
        {
          "name": "contactNumber",
          "type": "uint256"
        },
        {
          "name": "userAddress",
          "type": "string"
        },
        {
          "name": "userAccess",
          "type": "uint256"
        },
        {
          "name": "index",
          "type": "uint256"
        }
      ],
      "payable": false,
      "stateMutability": "view",
      "type": "function"
    },
    {
      "anonymous": false,
      "inputs": [
        {
          "indexed": true,
          "name": "emailCode",
          "type": "bytes32"
        },
        {
          "indexed": false,
          "name": "index",
          "type": "uint256"
        },
        {
          "indexed": false,
          "name": "email",
          "type": "string"
        },
        {
          "indexed": false,
          "name": "passwordCode",
          "type": "bytes32"
        },
        {
          "indexed": false,
          "name": "passwordRestToken",
          "type": "bytes32"
        },
        {
          "indexed": false,
          "name": "name",
          "type": "string"
        },
        {
          "indexed": false,
          "name": "contactNumber",
          "type": "uint256"
        },
        {
          "indexed": false,
          "name": "userAddress",
          "type": "string"
        },
        {
          "indexed": false,
          "name": "userAccess",
          "type": "uint256"
        }
      ],
      "name": "LogNewDistributor",
      "type": "event"
    },
    {
      "anonymous": false,
      "inputs": [
        {
          "indexed": true,
          "name": "emailCode",
          "type": "bytes32"
        },
        {
          "indexed": false,
          "name": "index",
          "type": "uint256"
        },
        {
          "indexed": false,
          "name": "email",
          "type": "string"
        },
        {
          "indexed": false,
          "name": "passwordCode",
          "type": "bytes32"
        },
        {
          "indexed": false,
          "name": "passwordRestToken",
          "type": "bytes32"
        },
        {
          "indexed": false,
          "name": "name",
          "type": "string"
        },
        {
          "indexed": false,
          "name": "contactNumber",
          "type": "uint256"
        },
        {
          "indexed": false,
          "name": "userAddress",
          "type": "string"
        },
        {
          "indexed": false,
          "name": "userAccess",
          "type": "uint256"
        }
      ],
      "name": "LogUpdateDistributor",
      "type": "event"
    },
    {
      "anonymous": false,
      "inputs": [
        {
          "indexed": true,
          "name": "emailcode",
          "type": "bytes32"
        },
        {
          "indexed": false,
          "name": "index",
          "type": "uint256"
        }
      ],
      "name": "LogDeleteDistributor",
      "type": "event"
    },
    {
      "constant": false,
      "inputs": [
        {
          "name": "_email",
          "type": "string"
        },
        {
          "name": "_name",
          "type": "string"
        }
      ],
      "name": "insertdistributor",
      "outputs": [
        {
          "name": "",
          "type": "bytes32"
        }
      ],
      "payable": false,
      "stateMutability": "nonpayable",
      "type": "function"
    },
    {
      "constant": false,
      "inputs": [
        {
          "name": "email",
          "type": "bytes32"
        }
      ],
      "name": "deleteDistributor",
      "outputs": [
        {
          "name": "",
          "type": "string"
        }
      ],
      "payable": false,
      "stateMutability": "nonpayable",
      "type": "function"
    },
    {
      "constant": false,
      "inputs": [
        {
          "name": "email",
          "type": "bytes32"
        }
      ],
      "name": "blockDistributor",
      "outputs": [
        {
          "name": "",
          "type": "string"
        }
      ],
      "payable": false,
      "stateMutability": "nonpayable",
      "type": "function"
    },
    {
      "constant": true,
      "inputs": [
        {
          "name": "_email",
          "type": "string"
        }
      ],
      "name": "getDistributor",
      "outputs": [
        {
          "name": "email",
          "type": "string"
        },
        {
          "name": "name",
          "type": "string"
        },
        {
          "name": "contactNumber",
          "type": "uint256"
        },
        {
          "name": "userAddress",
          "type": "string"
        },
        {
          "name": "userAccess",
          "type": "uint256"
        }
      ],
      "payable": false,
      "stateMutability": "view",
      "type": "function"
    },
    {
      "constant": true,
      "inputs": [
        {
          "name": "i",
          "type": "uint256"
        }
      ],
      "name": "getDistributor",
      "outputs": [
        {
          "name": "",
          "type": "bytes32"
        },
        {
          "name": "",
          "type": "string"
        },
        {
          "name": "",
          "type": "string"
        },
        {
          "name": "",
          "type": "uint256"
        },
        {
          "name": "",
          "type": "string"
        },
        {
          "name": "",
          "type": "uint256"
        }
      ],
      "payable": false,
      "stateMutability": "view",
      "type": "function"
    },
    {
      "constant": true,
      "inputs": [],
      "name": "getDistributorCount",
      "outputs": [
        {
          "name": "",
          "type": "uint256"
        }
      ],
      "payable": false,
      "stateMutability": "view",
      "type": "function"
    },
    {
      "constant": false,
      "inputs": [
        {
          "name": "_email",
          "type": "string"
        },
        {
          "name": "_name",
          "type": "string"
        }
      ],
      "name": "updateDistributorName",
      "outputs": [
        {
          "name": "success",
          "type": "bool"
        }
      ],
      "payable": false,
      "stateMutability": "nonpayable",
      "type": "function"
    },
    {
      "constant": false,
      "inputs": [
        {
          "name": "_email",
          "type": "string"
        },
        {
          "name": "_userAddress",
          "type": "string"
        }
      ],
      "name": "updateDistributorAddress",
      "outputs": [
        {
          "name": "success",
          "type": "bool"
        }
      ],
      "payable": false,
      "stateMutability": "nonpayable",
      "type": "function"
    },
    {
      "constant": false,
      "inputs": [
        {
          "name": "_email",
          "type": "string"
        },
        {
          "name": "_contactNumber",
          "type": "uint256"
        }
      ],
      "name": "updateDistributorContactNumber",
      "outputs": [
        {
          "name": "success",
          "type": "bool"
        }
      ],
      "payable": false,
      "stateMutability": "nonpayable",
      "type": "function"
    },
    {
      "constant": false,
      "inputs": [
        {
          "name": "_email",
          "type": "string"
        },
        {
          "name": "index",
          "type": "uint256[]"
        },
        {
          "name": "_name",
          "type": "string"
        },
        {
          "name": "_userAddress",
          "type": "string"
        },
        {
          "name": "_contactNumber",
          "type": "uint256"
        }
      ],
      "name": "updateDistributor",
      "outputs": [
        {
          "name": "success",
          "type": "bool"
        }
      ],
      "payable": false,
      "stateMutability": "nonpayable",
      "type": "function"
    },
    {
      "constant": false,
      "inputs": [
        {
          "name": "_email",
          "type": "string"
        }
      ],
      "name": "updateDistributoriEmail",
      "outputs": [
        {
          "name": "success",
          "type": "bool"
        }
      ],
      "payable": false,
      "stateMutability": "nonpayable",
      "type": "function"
    },
    {
      "constant": true,
      "inputs": [
        {
          "name": "email",
          "type": "bytes32"
        }
      ],
      "name": "checkDistributorUserAccess",
      "outputs": [
        {
          "name": "userAccess",
          "type": "uint256"
        }
      ],
      "payable": false,
      "stateMutability": "view",
      "type": "function"
    },
    {
      "constant": true,
      "inputs": [
        {
          "name": "email",
          "type": "bytes32"
        }
      ],
      "name": "checkDistributorPasswordCode",
      "outputs": [
        {
          "name": "passwordCode",
          "type": "bytes32"
        }
      ],
      "payable": false,
      "stateMutability": "view",
      "type": "function"
    }
  ],
  "bytecode": "0x608060405234801561001057600080fd5b50613297806100206000396000f3fe608060405234801561001057600080fd5b50600436106100ea5760003560e01c806360166fe31161008c578063958a36be11610066578063958a36be14610c00578063c8fc50c914610d29578063e669c00214610dcf578063f6edf18c14610dec576100ea565b806360166fe3146107d65780636420152a1461094c57806377c7b72514610ad7576100ea565b80632d9c9d88116100c85780632d9c9d88146103f65780634743c2cb1461049a5780634dc242c8146106905780635d4b3b7f146107b9576100ea565b806316ac4bd2146100ef5780632133b06314610181578063247fb142146103c7575b600080fd5b61010c6004803603602081101561010557600080fd5b5035610df4565b6040805160208082528351818301528351919283929083019185019080838360005b8381101561014657818101518382015260200161012e565b50505050905090810190601f1680156101735780820380516001836020036101000a031916815260200191505b509250505060405180910390f35b6103b3600480360360a081101561019757600080fd5b810190602081018135600160201b8111156101b157600080fd5b8201836020820111156101c357600080fd5b803590602001918460018302840111600160201b831117156101e457600080fd5b91908080601f0160208091040260200160405190810160405280939291908181526020018383808284376000920191909152509295949360208101935035915050600160201b81111561023657600080fd5b82018360208201111561024857600080fd5b803590602001918460208302840111600160201b8311171561026957600080fd5b9190808060200260200160405190810160405280939291908181526020018383602002808284376000920191909152509295949360208101935035915050600160201b8111156102b857600080fd5b8201836020820111156102ca57600080fd5b803590602001918460018302840111600160201b831117156102eb57600080fd5b91908080601f0160208091040260200160405190810160405280939291908181526020018383808284376000920191909152509295949360208101935035915050600160201b81111561033d57600080fd5b82018360208201111561034f57600080fd5b803590602001918460018302840111600160201b8311171561037057600080fd5b91908080601f0160208091040260200160405190810160405280939291908181526020018383808284376000920191909152509295505091359250610f03915050565b604080519115158252519081900360200190f35b6103e4600480360360208110156103dd57600080fd5b503561178d565b60408051918252519081900360200190f35b6103b36004803603602081101561040c57600080fd5b810190602081018135600160201b81111561042657600080fd5b82018360208201111561043857600080fd5b803590602001918460018302840111600160201b8311171561045957600080fd5b91908080601f0160208091040260200160405190810160405280939291908181526020018383808284376000920191909152509295506117a2945050505050565b61053e600480360360208110156104b057600080fd5b810190602081018135600160201b8111156104ca57600080fd5b8201836020820111156104dc57600080fd5b803590602001918460018302840111600160201b831117156104fd57600080fd5b91908080601f0160208091040260200160405190810160405280939291908181526020018383808284376000920191909152509295506117a8945050505050565b60405180806020018060200186815260200180602001858152602001848103845289818151815260200191508051906020019080838360005b8381101561058f578181015183820152602001610577565b50505050905090810190601f1680156105bc5780820380516001836020036101000a031916815260200191505b5084810383528851815288516020918201918a019080838360005b838110156105ef5781810151838201526020016105d7565b50505050905090810190601f16801561061c5780820380516001836020036101000a031916815260200191505b50848103825286518152865160209182019188019080838360005b8381101561064f578181015183820152602001610637565b50505050905090810190601f16801561067c5780820380516001836020036101000a031916815260200191505b509850505050505050505060405180910390f35b6103b3600480360360408110156106a657600080fd5b810190602081018135600160201b8111156106c057600080fd5b8201836020820111156106d257600080fd5b803590602001918460018302840111600160201b831117156106f357600080fd5b91908080601f0160208091040260200160405190810160405280939291908181526020018383808284376000920191909152509295949360208101935035915050600160201b81111561074557600080fd5b82018360208201111561075757600080fd5b803590602001918460018302840111600160201b8311171561077857600080fd5b91908080601f016020809104026020016040519081016040528093929190818152602001838380828437600092019190915250929550611a5d945050505050565b6103e4600480360360208110156107cf57600080fd5b5035611dad565b6107f3600480360360208110156107ec57600080fd5b5035611dc2565b60405180878152602001806020018060200186815260200180602001858152602001848103845289818151815260200191508051906020019080838360005b8381101561084a578181015183820152602001610832565b50505050905090810190601f1680156108775780820380516001836020036101000a031916815260200191505b5084810383528851815288516020918201918a019080838360005b838110156108aa578181015183820152602001610892565b50505050905090810190601f1680156108d75780820380516001836020036101000a031916815260200191505b50848103825286518152865160209182019188019080838360005b8381101561090a5781810151838201526020016108f2565b50505050905090810190601f1680156109375780820380516001836020036101000a031916815260200191505b50995050505050505050505060405180910390f35b6109696004803603602081101561096257600080fd5b5035612045565b60405180806020018a8152602001898152602001888152602001806020018781526020018060200186815260200185815260200184810384528d818151815260200191508051906020019080838360005b838110156109d25781810151838201526020016109ba565b50505050905090810190601f1680156109ff5780820380516001836020036101000a031916815260200191505b5084810383528951815289516020918201918b019080838360005b83811015610a32578181015183820152602001610a1a565b50505050905090810190601f168015610a5f5780820380516001836020036101000a031916815260200191505b50848103825287518152875160209182019189019080838360005b83811015610a92578181015183820152602001610a7a565b50505050905090810190601f168015610abf5780820380516001836020036101000a031916815260200191505b509c5050505050505050505050505060405180910390f35b6103b360048036036040811015610aed57600080fd5b810190602081018135600160201b811115610b0757600080fd5b820183602082011115610b1957600080fd5b803590602001918460018302840111600160201b83111715610b3a57600080fd5b91908080601f0160208091040260200160405190810160405280939291908181526020018383808284376000920191909152509295949360208101935035915050600160201b811115610b8c57600080fd5b820183602082011115610b9e57600080fd5b803590602001918460018302840111600160201b83111715610bbf57600080fd5b91908080601f016020809104026020016040519081016040528093929190818152602001838380828437600092019190915250929550612236945050505050565b6103e460048036036040811015610c1657600080fd5b810190602081018135600160201b811115610c3057600080fd5b820183602082011115610c4257600080fd5b803590602001918460018302840111600160201b83111715610c6357600080fd5b91908080601f0160208091040260200160405190810160405280939291908181526020018383808284376000920191909152509295949360208101935035915050600160201b811115610cb557600080fd5b820183602082011115610cc757600080fd5b803590602001918460018302840111600160201b83111715610ce857600080fd5b91908080601f016020809104026020016040519081016040528093929190818152602001838380828437600092019190915250929550612586945050505050565b6103b360048036036040811015610d3f57600080fd5b810190602081018135600160201b811115610d5957600080fd5b820183602082011115610d6b57600080fd5b803590602001918460018302840111600160201b83111715610d8c57600080fd5b91908080601f0160208091040260200160405190810160405280939291908181526020018383808284376000920191909152509295505091359250612995915050565b61010c60048036036020811015610de557600080fd5b5035612c7f565b6103e4612eb0565b60008181526020819052604090206003600782018190556008909101546001805460609384939092918110610e2557fe5b90600052602060002090600602016005018190555060016000808581526020019081526020016000206008015481548110610e5c57fe5b600091825260209182902060026006909202018101805460408051601f600019610100600186161502019093169490940491820185900485028401850190528083529192909190830182828015610ef45780601f10610ec957610100808354040283529160200191610ef4565b820191906000526020600020905b815481529060010190602001808311610ed757829003601f168201915b5093955050505050505b919050565b600080866040516020018082805190602001908083835b60208310610f395780518252601f199092019160209182019101610f1a565b6001836020036101000a038019825116818451168082178552505050505050905001915050604051602081830303815290604052805190602001209050610f7f81612eb7565b1515600114610fd05760408051600160e51b62461bcd0281526020600482015260126024820152600160701b7175736572206e6f7420696e2073797374656d02604482015290519081900360640190fd5b6000818152602081905260408120600801545b875182101561177e57878281518110610ff857fe5b60200260200101516001141561127357600083815260208181526040909120885161102b926004909201918a01906130d7565b50866001828154811061103a57fe5b9060005260206000209060060201600201908051906020019061105e9291906130d7565b508260008051602061324c833981519152600080868152602001908152602001600020600801548b60008088815260200190815260200160002060020154600080898152602001908152602001600020600301548c6000808b8152602001908152602001600020600501546000808c81526020019081526020016000206006016000808d8152602001908152602001600020600701546040518089815260200180602001888152602001878152602001806020018681526020018060200185815260200184810384528b818151815260200191508051906020019080838360005b8381101561115757818101518382015260200161113f565b50505050905090810190601f1680156111845780820380516001836020036101000a031916815260200191505b5084810383528851815288516020918201918a019080838360005b838110156111b757818101518382015260200161119f565b50505050905090810190601f1680156111e45780820380516001836020036101000a031916815260200191505b508481038252865460026000196101006001841615020190911604808252602090910190879080156112575780601f1061122c57610100808354040283529160200191611257565b820191906000526020600020905b81548152906001019060200180831161123a57829003601f168201915b50509b50505050505050505050505060405180910390a2611773565b87828151811061127f57fe5b6020026020010151600214156114fa5760008381526020818152604090912087516112b2926006909201918901906130d7565b5085600182815481106112c157fe5b906000526020600020906006020160040190805190602001906112e59291906130d7565b508260008051602061324c833981519152600080868152602001908152602001600020600801548b60008088815260200190815260200160002060020154600080898152602001908152602001600020600301546000808a81526020019081526020016000206004016000808b8152602001908152602001600020600501548d6000808d8152602001908152602001600020600701546040518089815260200180602001888152602001878152602001806020018681526020018060200185815260200184810384528b818151815260200191508051906020019080838360005b838110156113de5781810151838201526020016113c6565b50505050905090810190601f16801561140b5780820380516001836020036101000a031916815260200191505b5084810383528854600260001961010060018416150201909116048082526020909101908990801561147e5780601f106114535761010080835404028352916020019161147e565b820191906000526020600020905b81548152906001019060200180831161146157829003601f168201915b5050848103825286518152865160209182019188019080838360005b838110156114b257818101518382015260200161149a565b50505050905090810190601f1680156114df5780820380516001836020036101000a031916815260200191505b509b50505050505050505050505060405180910390a2611773565b87828151811061150657fe5b602002602001015160031415611773576000838152602081905260409020600501859055600180548691908390811061153b57fe5b9060005260206000209060060201600301819055508260008051602061324c833981519152600080868152602001908152602001600020600801548b60008088815260200190815260200160002060020154600080898152602001908152602001600020600301546000808a81526020019081526020016000206004018b6000808c81526020019081526020016000206006016000808d8152602001908152602001600020600701546040518089815260200180602001888152602001878152602001806020018681526020018060200185815260200184810384528b818151815260200191508051906020019080838360005b8381101561164757818101518382015260200161162f565b50505050905090810190601f1680156116745780820380516001836020036101000a031916815260200191505b508481038352885460026000196101006001841615020190911604808252602090910190899080156116e75780601f106116bc576101008083540402835291602001916116e7565b820191906000526020600020905b8154815290600101906020018083116116ca57829003601f168201915b505084810382528654600260001961010060018416150201909116048082526020909101908790801561175b5780601f106117305761010080835404028352916020019161175b565b820191906000526020600020905b81548152906001019060200180831161173e57829003601f168201915b50509b50505050505050505050505060405180910390a25b600190910190610fe3565b50600198975050505050505050565b60009081526020819052604090206007015490565b50600090565b60608060006060600080866040516020018082805190602001908083835b602083106117e55780518252601f1990920191602091820191016117c6565b6001836020036101000a03801982511681845116808217855250505050505090500191505060405160208183030381529060405280519060200120905061182b81612eb7565b151560011461187c5760408051600160e51b62461bcd0281526020600482015260126024820152600160701b7175736572206e6f7420696e2073797374656d02604482015290519081900360640190fd5b600081815260208181526040918290206005810154600782015482548551601f6002600019610100600186161502019093169290920491820186900486028101860190965280865292946004860194929360068701938791908301828280156119265780601f106118fb57610100808354040283529160200191611926565b820191906000526020600020905b81548152906001019060200180831161190957829003601f168201915b5050875460408051602060026001851615610100026000190190941693909304601f8101849004840282018401909252818152959a50899450925084019050828280156119b45780601f10611989576101008083540402835291602001916119b4565b820191906000526020600020905b81548152906001019060200180831161199757829003601f168201915b5050855460408051602060026001851615610100026000190190941693909304601f810184900484028201840190925281815295995087945092508401905082828015611a425780601f10611a1757610100808354040283529160200191611a42565b820191906000526020600020905b815481529060010190602001808311611a2557829003601f168201915b50505050509150955095509550955095505091939590929450565b600080836040516020018082805190602001908083835b60208310611a935780518252601f199092019160209182019101611a74565b6001836020036101000a038019825116818451168082178552505050505050905001915050604051602081830303815290604052805190602001209050611ad981612eb7565b1515600114611b2a5760408051600160e51b62461bcd0281526020600482015260126024820152600160701b7175736572206e6f7420696e2073797374656d02604482015290519081900360640190fd5b6000818152602081815260409091208451611b4d926004909201918601906130d7565b50600081815260208190526040902060080154600180548592908110611b6f57fe5b90600052602060002090600602016002019080519060200190611b939291906130d7565b508060008051602061324c8339815191526000808481526020019081526020016000206008015486600080868152602001908152602001600020600201546000808781526020019081526020016000206003015488600080898152602001908152602001600020600501546000808a81526020019081526020016000206006016000808b8152602001908152602001600020600701546040518089815260200180602001888152602001878152602001806020018681526020018060200185815260200184810384528b818151815260200191508051906020019080838360005b83811015611c8c578181015183820152602001611c74565b50505050905090810190601f168015611cb95780820380516001836020036101000a031916815260200191505b5084810383528851815288516020918201918a019080838360005b83811015611cec578181015183820152602001611cd4565b50505050905090810190601f168015611d195780820380516001836020036101000a031916815260200191505b50848103825286546002600019610100600184161502019091160480825260209091019087908015611d8c5780601f10611d6157610100808354040283529160200191611d8c565b820191906000526020600020905b815481529060010190602001808311611d6f57829003601f168201915b50509b50505050505050505050505060405180910390a25060019392505050565b60009081526020819052604090206002015490565b600060608060006060600060018781548110611dda57fe5b90600052602060002090600602016000015460018881548110611df957fe5b906000526020600020906006020160010160018981548110611e1757fe5b906000526020600020906006020160020160018a81548110611e3557fe5b90600052602060002090600602016003015460018b81548110611e5457fe5b906000526020600020906006020160040160018c81548110611e7257fe5b600091825260209182902060056006909202010154855460408051601f600260001961010060018716150201909416939093049283018590048502810185019091528181529192879190830182828015611f0d5780601f10611ee257610100808354040283529160200191611f0d565b820191906000526020600020905b815481529060010190602001808311611ef057829003601f168201915b5050875460408051602060026001851615610100026000190190941693909304601f8101849004840282018401909252818152959a5089945092508401905082828015611f9b5780601f10611f7057610100808354040283529160200191611f9b565b820191906000526020600020905b815481529060010190602001808311611f7e57829003601f168201915b5050855460408051602060026001851615610100026000190190941693909304601f8101849004840282018401909252818152959950879450925084019050828280156120295780601f10611ffe57610100808354040283529160200191612029565b820191906000526020600020905b81548152906001019060200180831161200c57829003601f168201915b5050505050915095509550955095509550955091939550919395565b6000602081815291815260409081902080548251601f6002600019610100600186161502019093169290920491820185900485028101850190935280835290928391908301828280156120d95780601f106120ae576101008083540402835291602001916120d9565b820191906000526020600020905b8154815290600101906020018083116120bc57829003601f168201915b505050505090806001015490806002015490806003015490806004018054600181600116156101000203166002900480601f0160208091040260200160405190810160405280929190818152602001828054600181600116156101000203166002900480156121895780601f1061215e57610100808354040283529160200191612189565b820191906000526020600020905b81548152906001019060200180831161216c57829003601f168201915b50505050600583015460068401805460408051602060026001851615610100026000190190941693909304601f810184900484028201840190925281815295969395939450908301828280156122205780601f106121f557610100808354040283529160200191612220565b820191906000526020600020905b81548152906001019060200180831161220357829003601f168201915b5050505050908060070154908060080154905089565b600080836040516020018082805190602001908083835b6020831061226c5780518252601f19909201916020918201910161224d565b6001836020036101000a0380198251168184511680821785525050505050509050019150506040516020818303038152906040528051906020012090506122b281612eb7565b15156001146123035760408051600160e51b62461bcd0281526020600482015260126024820152600160701b7175736572206e6f7420696e2073797374656d02604482015290519081900360640190fd5b6000818152602081815260409091208451612326926006909201918601906130d7565b5060008181526020819052604090206008015460018054859290811061234857fe5b9060005260206000209060060201600401908051906020019061236c9291906130d7565b508060008051602061324c83398151915260008084815260200190815260200160002060080154866000808681526020019081526020016000206002015460008087815260200190815260200160002060030154600080888152602001908152602001600020600401600080898152602001908152602001600020600501548a6000808b8152602001908152602001600020600701546040518089815260200180602001888152602001878152602001806020018681526020018060200185815260200184810384528b818151815260200191508051906020019080838360005b8381101561246557818101518382015260200161244d565b50505050905090810190601f1680156124925780820380516001836020036101000a031916815260200191505b508481038352885460026000196101006001841615020190911604808252602090910190899080156125055780601f106124da57610100808354040283529160200191612505565b820191906000526020600020905b8154815290600101906020018083116124e857829003601f168201915b5050848103825286518152865160209182019188019080838360005b83811015612539578181015183820152602001612521565b50505050905090810190601f1680156125665780820380516001836020036101000a031916815260200191505b509b50505050505050505050505060405180910390a25060019392505050565b600080836040516020018082805190602001908083835b602083106125bc5780518252601f19909201916020918201910161259d565b6001836020036101000a03801982511681845116808217855250505050505090500191505060405160208183030381529060405280519060200120905060006040516020018080600160f81b606102815250600101905060405160208183030381529060405280519060200120905061263482612eb7565b15156001141561268e5760408051600160e51b62461bcd02815260206004820152601660248201527f7573657220616c6c7265647920696e2073797374656d00000000000000000000604482015290519081900360640190fd5b60008281526020818152604090912086516126ab928801906130d7565b5060008281526020818152604082206001810185905560028101849055600381019290925585516126e292600401918701906130d7565b506000828152602081815260408083206005810184905581518084019283905284815286855293909252915161271e92600690920191906130d7565b5060008281526020819052604090206001600790910155612740828686612f04565b50600180805490500360008084815260200190815260200160002060080181905550817ff1fe1914994a1125a37c6724a34ee0fc65c4130450ae0d815771142e6aedab5160008085815260200190815260200160002060080154876000808781526020019081526020016000206002015460008088815260200190815260200160002060030154896000808a8152602001908152602001600020600501546000808b81526020019081526020016000206006016000808c8152602001908152602001600020600701546040518089815260200180602001888152602001878152602001806020018681526020018060200185815260200184810384528b818151815260200191508051906020019080838360005b8381101561286c578181015183820152602001612854565b50505050905090810190601f1680156128995780820380516001836020036101000a031916815260200191505b5084810383528851815288516020918201918a019080838360005b838110156128cc5781810151838201526020016128b4565b50505050905090810190601f1680156128f95780820380516001836020036101000a031916815260200191505b5084810382528654600260001961010060018416150201909116048082526020909101908790801561296c5780601f106129415761010080835404028352916020019161296c565b820191906000526020600020905b81548152906001019060200180831161294f57829003601f168201915b50509b50505050505050505050505060405180910390a261298c82613025565b95945050505050565b600080836040516020018082805190602001908083835b602083106129cb5780518252601f1990920191602091820191016129ac565b6001836020036101000a038019825116818451168082178552505050505050905001915050604051602081830303815290604052805190602001209050612a1181612eb7565b1515600114612a625760408051600160e51b62461bcd0281526020600482015260126024820152600160701b7175736572206e6f7420696e2073797374656d02604482015290519081900360640190fd5b60008181526020819052604090206005810184905560080154600180548592908110612a8a57fe5b9060005260206000209060060201600301819055508060008051602061324c83398151915260008084815260200190815260200160002060080154866000808681526020019081526020016000206002015460008087815260200190815260200160002060030154600080888152602001908152602001600020600401896000808a81526020019081526020016000206006016000808b8152602001908152602001600020600701546040518089815260200180602001888152602001878152602001806020018681526020018060200185815260200184810384528b818151815260200191508051906020019080838360005b83811015612b96578181015183820152602001612b7e565b50505050905090810190601f168015612bc35780820380516001836020036101000a031916815260200191505b50848103835288546002600019610100600184161502019091160480825260209091019089908015612c365780601f10612c0b57610100808354040283529160200191612c36565b820191906000526020600020905b815481529060010190602001808311612c1957829003601f168201915b5050848103825286546002600019610100600184161502019091160480825260209091019087908015611d8c5780601f10611d6157610100808354040283529160200191611d8c565b60606000815b600254821015612d60578360028381548110612c9d57fe5b9060005260206000209060020201600001541415612d5557600280546000198101908110612cc757fe5b90600052602060002090600202016000015460028381548110612ce657fe5b600091825260209091206002918202019190915580546000198101908110612d0a57fe5b90600052602060002090600202016001015460028381548110612d2957fe5b9060005260206000209060020201600101819055506002805480919060019003612d539190613155565b505b600190910190612c85565b6000848152602081905260409020600460078201819055600890910154600180549091908110612d8c57fe5b90600052602060002090600602016005018190555060016000808681526020019081526020016000206008015481548110612dc357fe5b600091825260209182902060026006909202018101805460408051601f600019610100600186161502019093169490940491820185900485028401850190528083529192909190830182828015612e5b5780601f10612e3057610100808354040283529160200191612e5b565b820191906000526020600020905b815481529060010190602001808311612e3e57829003601f168201915b50505060008781526020818152604091829020600801548251908152915194955088947fa9182ea46bf769f0b5f2c986c9a06c228fb686381c72137c62b04826d1b38d86945091829003019150a29392505050565b6001545b90565b600154600090612ec957506000610efe565b600082815260208190526040902060080154600180548492908110612eea57fe5b906000526020600020906006020160000154149050919050565b6000612f0e613186565b84815260208082018590526040808301859052632ac5f23e6060808501919091528151908101909152603b8082529091613211908301396080820152600160a082018190528054808201808355600092909252825160069091027fb10e2d527612073b26eecdfd717e6a320cf44b4afac2b0732d9fcbe2b7fa0cf681019182556020808501518051869493612fc9937fb10e2d527612073b26eecdfd717e6a320cf44b4afac2b0732d9fcbe2b7fa0cf79091019201906130d7565b5060408201518051612fe59160028401916020909101906130d7565b50606082015160038201556080820151805161300b9160048401916020909101906130d7565b5060a0820151816005015550505060019150509392505050565b6000806130306130ab565b905061303a6131bf565b83815260208101828152600280546001810182556000829052925192027f405787fa12a823e0f2b7631cc41b3ba8828b3321ca811111fa75cd3aa3bb5ace810192909255517f405787fa12a823e0f2b7631cc41b3ba8828b3321ca811111fa75cd3aa3bb5acf909101559050919050565b604080514260208083019190915244828401528251808303840181526060909201909252805191012090565b828054600181600116156101000203166002900490600052602060002090601f016020900481019282601f1061311857805160ff1916838001178555613145565b82800160010185558215613145579182015b8281111561314557825182559160200191906001019061312a565b506131519291506131d6565b5090565b8154818355818111156131815760020281600202836000526020600020918201910161318191906131f0565b505050565b6040518060c001604052806000801916815260200160608152602001606081526020016000815260200160608152602001600081525090565b604080518082019091526000808252602082015290565b612eb491905b8082111561315157600081556001016131dc565b612eb491905b8082111561315157600080825560018201556002016131f656fe313333352c626f676168617761746874686120526f61642c70616e6e697069746979612c636f6c6f6d626f2c737269206c616e6b612c313032333003751f335fdcedf5eb1e0283fc6b217d9defab43d4d6158b3b52fc9935338c96a165627a7a72305820c9ef154bdd8397722308943607a1b00404f6519a82cc196671033b6affc88c730029",
  "source": "pragma solidity >=0.4.21 <0.6.0;\r\n\r\ncontract DistributorContract {\r\n    \r\n    struct Distributor{\r\n        string email;\r\n        bytes32 emailCode;\r\n        bytes32 passwordCode;\r\n        bytes32 passwordRestToken;\r\n        string name;\r\n        uint contactNumber;\r\n        string userAddress;\r\n        uint userAccess;\r\n        uint index;\r\n    }\r\n\r\n    struct DisplayDistributor{\r\n        bytes32 emailCode;\r\n        string email;\r\n        string name;\r\n        uint contactNumber;\r\n        string userAddress;\r\n        uint userAccess;\r\n    }\r\n    \r\n    event LogNewDistributor(\r\n        bytes32 indexed emailCode,\r\n        uint index,string email,\r\n        bytes32 passwordCode,\r\n        bytes32 passwordRestToken,\r\n        string name,\r\n        uint contactNumber,\r\n        string userAddress,\r\n        uint userAccess\r\n        );\r\n    event LogUpdateDistributor(\r\n        bytes32 indexed emailCode,\r\n        uint index,string email,\r\n        bytes32 passwordCode,\r\n        bytes32 passwordRestToken,\r\n        string name,\r\n        uint contactNumber,\r\n        string userAddress,\r\n        uint userAccess\r\n        );\r\n    event LogDeleteDistributor(\r\n        bytes32 indexed emailcode,\r\n        uint index\r\n        );\r\n        \r\n    struct RegistationToken{\r\n        bytes32 emailCode;\r\n        bytes32 token;\r\n    }\r\n        \r\n    mapping(bytes32 => Distributor) public distributorArray;\r\n    DisplayDistributor[] private distributorIndex;\r\n    RegistationToken[] private distributorRegistationToken;\r\n    \r\n    function isDistributor(bytes32 _emailCode)private view returns(bool isIndeed) {\r\n        if(distributorIndex.length == 0) return false;\r\n        return (distributorIndex[distributorArray[_emailCode].index].emailCode == _emailCode);\r\n    }\r\n    function createDistributorToken(bytes32 _emailCode)private returns(bytes32){\r\n        bytes32 token = randomtoken();\r\n        RegistationToken memory registationToken;\r\n        registationToken.emailCode = _emailCode;\r\n        registationToken.token = token;\r\n        distributorRegistationToken.push(registationToken);\r\n        return token;\r\n    }\r\n    function randomtoken() private view returns (bytes32) {\r\n       return keccak256(abi.encodePacked( block.timestamp, block.difficulty));\r\n    }\r\n    function setDisplayDistributor(bytes32 _emailCode,string memory _email,string memory _name) private returns(bool){\r\n\r\n        DisplayDistributor memory displayDistributor;\r\n        displayDistributor.emailCode = _emailCode;\r\n        displayDistributor.email = _email;\r\n        displayDistributor.name = _name;\r\n        displayDistributor.contactNumber = 717615678;\r\n        displayDistributor.userAddress = \"1335,bogahawaththa Road,pannipitiya,colombo,sri lanka,10230\";\r\n        displayDistributor.userAccess = 1;\r\n        distributorIndex.push(displayDistributor);\r\n        return true;\r\n\r\n    }\r\n    function insertdistributor(string memory _email,string memory _name) public returns(bytes32){\r\n        bytes32 _emailCode = keccak256(abi.encodePacked((_email)));\r\n        bytes32 _passwordCode = keccak256(abi.encodePacked((\"a\")));\r\n        require(isDistributor(_emailCode) != true,'user allredy in system');\r\n\r\n        distributorArray[_emailCode].email = _email;\r\n        distributorArray[_emailCode].emailCode = _emailCode;\r\n        distributorArray[_emailCode].passwordCode = _passwordCode;\r\n        distributorArray[_emailCode].passwordRestToken = \"\";\r\n        distributorArray[_emailCode].name = _name;\r\n        distributorArray[_emailCode].contactNumber = 0;\r\n        distributorArray[_emailCode].userAddress = \"\";\r\n        distributorArray[_emailCode].userAccess = 1;\r\n        setDisplayDistributor(_emailCode,_email,_name);\r\n        distributorArray[_emailCode].index = distributorIndex.length-1;\r\n\r\n        emit LogNewDistributor (\r\n            _emailCode,\r\n            distributorArray[_emailCode].index,\r\n            _email,\r\n            distributorArray[_emailCode].passwordCode,\r\n            distributorArray[_emailCode].passwordRestToken,\r\n            _name,\r\n            distributorArray[_emailCode].contactNumber,\r\n            distributorArray[_emailCode].userAddress,\r\n            distributorArray[_emailCode].userAccess\r\n            );\r\n        return createDistributorToken(_emailCode);\r\n    }\r\n    function deleteDistributor (bytes32 email) public returns(string memory){\r\n        uint i;\r\n        string memory name;\r\n        for( i = 0; i < distributorRegistationToken.length; i++) {\r\n            if(distributorRegistationToken[i].emailCode == email){\r\n                distributorRegistationToken[i].emailCode = distributorRegistationToken[distributorRegistationToken.length-1].emailCode;\r\n                distributorRegistationToken[i].token = distributorRegistationToken[distributorRegistationToken.length-1].token;\r\n                distributorRegistationToken.length--;\r\n            }\r\n        }\r\n        distributorArray[email].userAccess = 4;\r\n        distributorIndex[distributorArray[email].index].userAccess = 4;\r\n        name = distributorIndex[distributorArray[email].index].name;\r\n        emit LogDeleteDistributor(\r\n            email,\r\n            distributorArray[email].index\r\n        );\r\n        return name;\r\n    }\r\n    function blockDistributor(bytes32 email) public returns(string memory)\r\n    {\r\n        string memory name;\r\n        distributorArray[email].userAccess = 3;\r\n        distributorIndex[distributorArray[email].index].userAccess = 3;\r\n        name = distributorIndex[distributorArray[email].index].name;\r\n        return name;\r\n    }\r\n    function getDistributor(string memory _email) public view returns(string memory email,string memory name,\r\n    uint contactNumber,string memory userAddress, uint userAccess){\r\n        bytes32 _emailCode = keccak256(abi.encodePacked((_email)));\r\n        require(isDistributor(_emailCode) == true,'user not in system');\r\n        return(\r\n            distributorArray[_emailCode].email,\r\n            distributorArray[_emailCode].name,\r\n            distributorArray[_emailCode].contactNumber,\r\n            distributorArray[_emailCode].userAddress,\r\n            distributorArray[_emailCode].userAccess\r\n            );\r\n    }\r\n    function getDistributor(uint i) public view returns(\r\n        bytes32,\r\n        string memory,\r\n        string memory,\r\n        uint,\r\n        string memory,\r\n        uint\r\n        ){\r\n            return (\r\n                distributorIndex[i].emailCode,\r\n                distributorIndex[i].email,\r\n                distributorIndex[i].name,\r\n                distributorIndex[i].contactNumber,\r\n                distributorIndex[i].userAddress,\r\n                distributorIndex[i].userAccess\r\n                );\r\n    }\r\n    function getDistributorCount() public view returns(uint)\r\n    {\r\n        return distributorIndex.length;\r\n    }\r\n    \r\n    // function updateUserEmail(address userAddress, bytes32 userEmail) public returns(bool success)\r\n    // {\r\n    //     userStructs[userAddress].userEmail = userEmail;\r\n    //     emit LogUpdateUser(userAddress,  userStructs[userAddress].index, userEmail, userStructs[userAddress].userAge);\r\n    //     return true;\r\n    // }\r\n    function updateDistributorName (string memory _email,string memory _name) public returns(bool success){\r\n        bytes32 _emailCode = keccak256(abi.encodePacked((_email)));\r\n        require(isDistributor(_emailCode) == true,'user not in system');\r\n        distributorArray[_emailCode].name = _name;\r\n        distributorIndex[distributorArray[_emailCode].index].name = _name;\r\n        emit LogUpdateDistributor(\r\n            _emailCode,\r\n            distributorArray[_emailCode].index,\r\n            _email,\r\n            distributorArray[_emailCode].passwordCode,\r\n            distributorArray[_emailCode].passwordRestToken,\r\n            _name,\r\n            distributorArray[_emailCode].contactNumber,\r\n            distributorArray[_emailCode].userAddress,\r\n            distributorArray[_emailCode].userAccess\r\n            );\r\n        return true;\r\n    }\r\n    function updateDistributorAddress (string memory _email,string memory _userAddress) public returns(bool success){\r\n        bytes32 _emailCode = keccak256(abi.encodePacked((_email)));\r\n        require(isDistributor(_emailCode) == true,'user not in system');\r\n        distributorArray[_emailCode].userAddress = _userAddress;\r\n        distributorIndex[distributorArray[_emailCode].index].userAddress = _userAddress;\r\n        emit LogUpdateDistributor(\r\n            _emailCode,\r\n            distributorArray[_emailCode].index,\r\n            _email,\r\n            distributorArray[_emailCode].passwordCode,\r\n            distributorArray[_emailCode].passwordRestToken,\r\n            distributorArray[_emailCode].name,\r\n            distributorArray[_emailCode].contactNumber,\r\n            _userAddress,\r\n            distributorArray[_emailCode].userAccess\r\n            );\r\n        return true;\r\n    }\r\n    function updateDistributorContactNumber (string memory _email,uint _contactNumber) public returns(bool success){\r\n        bytes32 _emailCode = keccak256(abi.encodePacked((_email)));\r\n        require(isDistributor(_emailCode) == true,'user not in system');\r\n        distributorArray[_emailCode].contactNumber = _contactNumber;\r\n        distributorIndex[distributorArray[_emailCode].index].contactNumber = _contactNumber;\r\n        emit LogUpdateDistributor(\r\n            _emailCode,\r\n            distributorArray[_emailCode].index,\r\n            _email,\r\n            distributorArray[_emailCode].passwordCode,\r\n            distributorArray[_emailCode].passwordRestToken,\r\n            distributorArray[_emailCode].name,\r\n            _contactNumber,\r\n            distributorArray[_emailCode].userAddress,\r\n            distributorArray[_emailCode].userAccess\r\n            );\r\n        return true;\r\n    }\r\n    function updateDistributor(\r\n        string memory _email,\r\n        uint[] memory index,\r\n        string memory _name,\r\n        string memory _userAddress,\r\n        uint _contactNumber\r\n        ) public returns(bool success){\r\n        bytes32 _emailCode = keccak256(abi.encodePacked((_email)));\r\n        require(isDistributor(_emailCode) == true,'user not in system');\r\n        uint i;\r\n        uint num = distributorArray[_emailCode].index;\r\n\r\n        for (i = 0;i<index.length;i++){\r\n            if(index[i]==1){\r\n                distributorArray[_emailCode].name = _name;\r\n                distributorIndex[num].name = _name;\r\n                emit LogUpdateDistributor(\r\n                    _emailCode,\r\n                    distributorArray[_emailCode].index,\r\n                    _email,distributorArray[_emailCode].passwordCode,\r\n                    distributorArray[_emailCode].passwordRestToken,\r\n                    _name,\r\n                    distributorArray[_emailCode].contactNumber,\r\n                    distributorArray[_emailCode].userAddress,\r\n                    distributorArray[_emailCode].userAccess\r\n                    );\r\n\r\n            }\r\n            else if(index[i]==2){\r\n                distributorArray[_emailCode].userAddress = _userAddress;\r\n\r\n                distributorIndex[num].userAddress = _userAddress;\r\n\r\n                emit LogUpdateDistributor(\r\n                    _emailCode,\r\n                    distributorArray[_emailCode].index,\r\n                    _email,\r\n                    distributorArray[_emailCode].passwordCode,\r\n                    distributorArray[_emailCode].passwordRestToken,\r\n                    distributorArray[_emailCode].name,\r\n                    distributorArray[_emailCode].contactNumber,\r\n                    _userAddress,\r\n                    distributorArray[_emailCode].userAccess\r\n                    );\r\n\r\n            }\r\n            else if(index[i]==3){\r\n                distributorArray[_emailCode].contactNumber = _contactNumber;\r\n                distributorIndex[num].contactNumber = _contactNumber;\r\n                emit LogUpdateDistributor(\r\n                    _emailCode,\r\n                    distributorArray[_emailCode].index,\r\n                    _email,\r\n                    distributorArray[_emailCode].passwordCode,\r\n                    distributorArray[_emailCode].passwordRestToken,\r\n                    distributorArray[_emailCode].name,\r\n                    _contactNumber,\r\n                    distributorArray[_emailCode].userAddress,\r\n                    distributorArray[_emailCode].userAccess\r\n                    );\r\n\r\n            }\r\n        }\r\n        return true;\r\n    }\r\n    ///////\r\n    function updateDistributoriEmail (string memory _email) public returns(bool success)\r\n    {\r\n       // return true;\r\n    }\r\n    function checkDistributorUserAccess(bytes32 email)public view returns(uint userAccess){\r\n        \r\n        return distributorArray[email].userAccess;\r\n    }\r\n    function checkDistributorPasswordCode(bytes32 email) public view returns(bytes32 passwordCode ){\r\n        return distributorArray[email].passwordCode;\r\n    }\r\n}",
  "sourcePath": "C:\\project\\tea supply chain mangement system\\test2\\contracts\\Distributor.sol",
  "compiler": {
    "name": "solc",
    "version": "0.5.8+commit.23d335f2.Emscripten.clang"
  },
  "schemaVersion": "3.0.16",
  "updatedAt": "2019-11-15T04:39:17.594Z",
  "devdoc": {
    "methods": {}
  },
  "userdoc": {
    "methods": {
      "updateDistributoriEmail(string)": {
        "notice": "////"
      }
    }
  }
}