{
  "contractName": "DistributorContract",
  "abi": [
    {
      "constant": true,
      "inputs": [
        {
          "name": "",
          "type": "bytes32"
        }
      ],
      "name": "distributorArray",
      "outputs": [
        {
          "name": "email",
          "type": "string"
        },
        {
          "name": "emailCode",
          "type": "bytes32"
        },
        {
          "name": "passwordCode",
          "type": "bytes32"
        },
        {
          "name": "passwordRestToken",
          "type": "bytes32"
        },
        {
          "name": "name",
          "type": "string"
        },
        {
          "name": "contactNumber",
          "type": "uint256"
        },
        {
          "name": "userAddress",
          "type": "string"
        },
        {
          "name": "userAccess",
          "type": "uint256"
        },
        {
          "name": "index",
          "type": "uint256"
        }
      ],
      "payable": false,
      "stateMutability": "view",
      "type": "function"
    },
    {
      "anonymous": false,
      "inputs": [
        {
          "indexed": true,
          "name": "emailCode",
          "type": "bytes32"
        },
        {
          "indexed": false,
          "name": "index",
          "type": "uint256"
        },
        {
          "indexed": false,
          "name": "email",
          "type": "string"
        },
        {
          "indexed": false,
          "name": "passwordCode",
          "type": "bytes32"
        },
        {
          "indexed": false,
          "name": "passwordRestToken",
          "type": "bytes32"
        },
        {
          "indexed": false,
          "name": "name",
          "type": "string"
        },
        {
          "indexed": false,
          "name": "contactNumber",
          "type": "uint256"
        },
        {
          "indexed": false,
          "name": "userAddress",
          "type": "string"
        },
        {
          "indexed": false,
          "name": "userAccess",
          "type": "uint256"
        }
      ],
      "name": "LogNewDistributor",
      "type": "event"
    },
    {
      "anonymous": false,
      "inputs": [
        {
          "indexed": true,
          "name": "emailCode",
          "type": "bytes32"
        },
        {
          "indexed": false,
          "name": "index",
          "type": "uint256"
        },
        {
          "indexed": false,
          "name": "email",
          "type": "string"
        },
        {
          "indexed": false,
          "name": "passwordCode",
          "type": "bytes32"
        },
        {
          "indexed": false,
          "name": "passwordRestToken",
          "type": "bytes32"
        },
        {
          "indexed": false,
          "name": "name",
          "type": "string"
        },
        {
          "indexed": false,
          "name": "contactNumber",
          "type": "uint256"
        },
        {
          "indexed": false,
          "name": "userAddress",
          "type": "string"
        },
        {
          "indexed": false,
          "name": "userAccess",
          "type": "uint256"
        }
      ],
      "name": "LogUpdateDistributor",
      "type": "event"
    },
    {
      "anonymous": false,
      "inputs": [
        {
          "indexed": true,
          "name": "emailcode",
          "type": "bytes32"
        },
        {
          "indexed": false,
          "name": "index",
          "type": "uint256"
        }
      ],
      "name": "LogDeleteDistributor",
      "type": "event"
    },
    {
      "constant": false,
      "inputs": [
        {
          "name": "_email",
          "type": "string"
        },
        {
          "name": "_name",
          "type": "string"
        },
        {
          "name": "_address",
          "type": "string"
        },
        {
          "name": "_telephone",
          "type": "uint256"
        }
      ],
      "name": "insertDistributor",
      "outputs": [
        {
          "name": "",
          "type": "bool"
        }
      ],
      "payable": false,
      "stateMutability": "nonpayable",
      "type": "function"
    },
    {
      "constant": false,
      "inputs": [
        {
          "name": "email",
          "type": "bytes32"
        }
      ],
      "name": "deleteDistributor",
      "outputs": [
        {
          "name": "",
          "type": "string"
        }
      ],
      "payable": false,
      "stateMutability": "nonpayable",
      "type": "function"
    },
    {
      "constant": false,
      "inputs": [
        {
          "name": "email",
          "type": "bytes32"
        }
      ],
      "name": "blockDistributor",
      "outputs": [
        {
          "name": "",
          "type": "string"
        }
      ],
      "payable": false,
      "stateMutability": "nonpayable",
      "type": "function"
    },
    {
      "constant": true,
      "inputs": [
        {
          "name": "_email",
          "type": "string"
        }
      ],
      "name": "getDistributor",
      "outputs": [
        {
          "name": "email",
          "type": "string"
        },
        {
          "name": "name",
          "type": "string"
        },
        {
          "name": "contactNumber",
          "type": "uint256"
        },
        {
          "name": "userAddress",
          "type": "string"
        },
        {
          "name": "userAccess",
          "type": "uint256"
        }
      ],
      "payable": false,
      "stateMutability": "view",
      "type": "function"
    },
    {
      "constant": true,
      "inputs": [
        {
          "name": "i",
          "type": "uint256"
        }
      ],
      "name": "getDistributori",
      "outputs": [
        {
          "name": "",
          "type": "bytes32"
        },
        {
          "name": "",
          "type": "string"
        },
        {
          "name": "",
          "type": "string"
        },
        {
          "name": "",
          "type": "uint256"
        },
        {
          "name": "",
          "type": "string"
        },
        {
          "name": "",
          "type": "uint256"
        }
      ],
      "payable": false,
      "stateMutability": "view",
      "type": "function"
    },
    {
      "constant": true,
      "inputs": [],
      "name": "getDistributorCount",
      "outputs": [
        {
          "name": "",
          "type": "uint256"
        }
      ],
      "payable": false,
      "stateMutability": "view",
      "type": "function"
    },
    {
      "constant": false,
      "inputs": [
        {
          "name": "_email",
          "type": "string"
        },
        {
          "name": "_name",
          "type": "string"
        }
      ],
      "name": "updateDistributorName",
      "outputs": [
        {
          "name": "success",
          "type": "bool"
        }
      ],
      "payable": false,
      "stateMutability": "nonpayable",
      "type": "function"
    },
    {
      "constant": false,
      "inputs": [
        {
          "name": "_email",
          "type": "string"
        },
        {
          "name": "_userAddress",
          "type": "string"
        }
      ],
      "name": "updateDistributorAddress",
      "outputs": [
        {
          "name": "success",
          "type": "bool"
        }
      ],
      "payable": false,
      "stateMutability": "nonpayable",
      "type": "function"
    },
    {
      "constant": false,
      "inputs": [
        {
          "name": "_email",
          "type": "string"
        },
        {
          "name": "_contactNumber",
          "type": "uint256"
        }
      ],
      "name": "updateDistributorContactNumber",
      "outputs": [
        {
          "name": "success",
          "type": "bool"
        }
      ],
      "payable": false,
      "stateMutability": "nonpayable",
      "type": "function"
    },
    {
      "constant": false,
      "inputs": [
        {
          "name": "_email",
          "type": "string"
        },
        {
          "name": "index",
          "type": "uint256[]"
        },
        {
          "name": "_name",
          "type": "string"
        },
        {
          "name": "_userAddress",
          "type": "string"
        },
        {
          "name": "_contactNumber",
          "type": "uint256"
        }
      ],
      "name": "updateDistributor",
      "outputs": [
        {
          "name": "success",
          "type": "bool"
        }
      ],
      "payable": false,
      "stateMutability": "nonpayable",
      "type": "function"
    },
    {
      "constant": false,
      "inputs": [
        {
          "name": "_email",
          "type": "string"
        }
      ],
      "name": "updateDistributoriEmail",
      "outputs": [
        {
          "name": "success",
          "type": "bool"
        }
      ],
      "payable": false,
      "stateMutability": "nonpayable",
      "type": "function"
    },
    {
      "constant": true,
      "inputs": [
        {
          "name": "email",
          "type": "bytes32"
        }
      ],
      "name": "checkDistributorUserAccess",
      "outputs": [
        {
          "name": "userAccess",
          "type": "uint256"
        }
      ],
      "payable": false,
      "stateMutability": "view",
      "type": "function"
    },
    {
      "constant": true,
      "inputs": [
        {
          "name": "email",
          "type": "bytes32"
        }
      ],
      "name": "checkDistributorPasswordCode",
      "outputs": [
        {
          "name": "passwordCode",
          "type": "bytes32"
        }
      ],
      "payable": false,
      "stateMutability": "view",
      "type": "function"
    }
  ],
  "bytecode": "0x608060405234801561001057600080fd5b5061328e806100206000396000f3fe608060405234801561001057600080fd5b50600436106100ea5760003560e01c806356f81d8b1161008c57806377c7b7251161006657806377c7b72514610c87578063c8fc50c914610db0578063e669c00214610e56578063f6edf18c14610e73576100ea565b806356f81d8b146109695780635d4b3b7f14610adf5780636420152a14610afc576100ea565b80632d9c9d88116100c85780632d9c9d88146103f65780634743c2cb1461049a5780634cb1389b146106905780634dc242c814610840576100ea565b806316ac4bd2146100ef5780632133b06314610181578063247fb142146103c7575b600080fd5b61010c6004803603602081101561010557600080fd5b5035610e7b565b6040805160208082528351818301528351919283929083019185019080838360005b8381101561014657818101518382015260200161012e565b50505050905090810190601f1680156101735780820380516001836020036101000a031916815260200191505b509250505060405180910390f35b6103b3600480360360a081101561019757600080fd5b810190602081018135600160201b8111156101b157600080fd5b8201836020820111156101c357600080fd5b803590602001918460018302840111600160201b831117156101e457600080fd5b91908080601f0160208091040260200160405190810160405280939291908181526020018383808284376000920191909152509295949360208101935035915050600160201b81111561023657600080fd5b82018360208201111561024857600080fd5b803590602001918460208302840111600160201b8311171561026957600080fd5b9190808060200260200160405190810160405280939291908181526020018383602002808284376000920191909152509295949360208101935035915050600160201b8111156102b857600080fd5b8201836020820111156102ca57600080fd5b803590602001918460018302840111600160201b831117156102eb57600080fd5b91908080601f0160208091040260200160405190810160405280939291908181526020018383808284376000920191909152509295949360208101935035915050600160201b81111561033d57600080fd5b82018360208201111561034f57600080fd5b803590602001918460018302840111600160201b8311171561037057600080fd5b91908080601f0160208091040260200160405190810160405280939291908181526020018383808284376000920191909152509295505091359250610f8a915050565b604080519115158252519081900360200190f35b6103e4600480360360208110156103dd57600080fd5b5035611814565b60408051918252519081900360200190f35b6103b36004803603602081101561040c57600080fd5b810190602081018135600160201b81111561042657600080fd5b82018360208201111561043857600080fd5b803590602001918460018302840111600160201b8311171561045957600080fd5b91908080601f016020809104026020016040519081016040528093929190818152602001838380828437600092019190915250929550611829945050505050565b61053e600480360360208110156104b057600080fd5b810190602081018135600160201b8111156104ca57600080fd5b8201836020820111156104dc57600080fd5b803590602001918460018302840111600160201b831117156104fd57600080fd5b91908080601f01602080910402602001604051908101604052809392919081815260200183838082843760009201919091525092955061182f945050505050565b60405180806020018060200186815260200180602001858152602001848103845289818151815260200191508051906020019080838360005b8381101561058f578181015183820152602001610577565b50505050905090810190601f1680156105bc5780820380516001836020036101000a031916815260200191505b5084810383528851815288516020918201918a019080838360005b838110156105ef5781810151838201526020016105d7565b50505050905090810190601f16801561061c5780820380516001836020036101000a031916815260200191505b50848103825286518152865160209182019188019080838360005b8381101561064f578181015183820152602001610637565b50505050905090810190601f16801561067c5780820380516001836020036101000a031916815260200191505b509850505050505050505060405180910390f35b6103b3600480360360808110156106a657600080fd5b810190602081018135600160201b8111156106c057600080fd5b8201836020820111156106d257600080fd5b803590602001918460018302840111600160201b831117156106f357600080fd5b91908080601f0160208091040260200160405190810160405280939291908181526020018383808284376000920191909152509295949360208101935035915050600160201b81111561074557600080fd5b82018360208201111561075757600080fd5b803590602001918460018302840111600160201b8311171561077857600080fd5b91908080601f0160208091040260200160405190810160405280939291908181526020018383808284376000920191909152509295949360208101935035915050600160201b8111156107ca57600080fd5b8201836020820111156107dc57600080fd5b803590602001918460018302840111600160201b831117156107fd57600080fd5b91908080601f0160208091040260200160405190810160405280939291908181526020018383808284376000920191909152509295505091359250611ae4915050565b6103b36004803603604081101561085657600080fd5b810190602081018135600160201b81111561087057600080fd5b82018360208201111561088257600080fd5b803590602001918460018302840111600160201b831117156108a357600080fd5b91908080601f0160208091040260200160405190810160405280939291908181526020018383808284376000920191909152509295949360208101935035915050600160201b8111156108f557600080fd5b82018360208201111561090757600080fd5b803590602001918460018302840111600160201b8311171561092857600080fd5b91908080601f016020809104026020016040519081016040528093929190818152602001838380828437600092019190915250929550611eb9945050505050565b6109866004803603602081101561097f57600080fd5b5035612209565b60405180878152602001806020018060200186815260200180602001858152602001848103845289818151815260200191508051906020019080838360005b838110156109dd5781810151838201526020016109c5565b50505050905090810190601f168015610a0a5780820380516001836020036101000a031916815260200191505b5084810383528851815288516020918201918a019080838360005b83811015610a3d578181015183820152602001610a25565b50505050905090810190601f168015610a6a5780820380516001836020036101000a031916815260200191505b50848103825286518152865160209182019188019080838360005b83811015610a9d578181015183820152602001610a85565b50505050905090810190601f168015610aca5780820380516001836020036101000a031916815260200191505b50995050505050505050505060405180910390f35b6103e460048036036020811015610af557600080fd5b503561248c565b610b1960048036036020811015610b1257600080fd5b50356124a1565b60405180806020018a8152602001898152602001888152602001806020018781526020018060200186815260200185815260200184810384528d818151815260200191508051906020019080838360005b83811015610b82578181015183820152602001610b6a565b50505050905090810190601f168015610baf5780820380516001836020036101000a031916815260200191505b5084810383528951815289516020918201918b019080838360005b83811015610be2578181015183820152602001610bca565b50505050905090810190601f168015610c0f5780820380516001836020036101000a031916815260200191505b50848103825287518152875160209182019189019080838360005b83811015610c42578181015183820152602001610c2a565b50505050905090810190601f168015610c6f5780820380516001836020036101000a031916815260200191505b509c5050505050505050505050505060405180910390f35b6103b360048036036040811015610c9d57600080fd5b810190602081018135600160201b811115610cb757600080fd5b820183602082011115610cc957600080fd5b803590602001918460018302840111600160201b83111715610cea57600080fd5b91908080601f0160208091040260200160405190810160405280939291908181526020018383808284376000920191909152509295949360208101935035915050600160201b811115610d3c57600080fd5b820183602082011115610d4e57600080fd5b803590602001918460018302840111600160201b83111715610d6f57600080fd5b91908080601f016020809104026020016040519081016040528093929190818152602001838380828437600092019190915250929550612692945050505050565b6103b360048036036040811015610dc657600080fd5b810190602081018135600160201b811115610de057600080fd5b820183602082011115610df257600080fd5b803590602001918460018302840111600160201b83111715610e1357600080fd5b91908080601f01602080910402602001604051908101604052809392919081815260200183838082843760009201919091525092955050913592506129e2915050565b61010c60048036036020811015610e6c57600080fd5b5035612ccc565b6103e4612efd565b60008181526020819052604090206003600782018190556008909101546001805460609384939092918110610eac57fe5b90600052602060002090600602016005018190555060016000808581526020019081526020016000206008015481548110610ee357fe5b600091825260209182902060026006909202018101805460408051601f600019610100600186161502019093169490940491820185900485028401850190528083529192909190830182828015610f7b5780601f10610f5057610100808354040283529160200191610f7b565b820191906000526020600020905b815481529060010190602001808311610f5e57829003601f168201915b5093955050505050505b919050565b600080866040516020018082805190602001908083835b60208310610fc05780518252601f199092019160209182019101610fa1565b6001836020036101000a03801982511681845116808217855250505050505090500191505060405160208183030381529060405280519060200120905061100681612f04565b15156001146110575760408051600160e51b62461bcd0281526020600482015260126024820152600160701b7175736572206e6f7420696e2073797374656d02604482015290519081900360640190fd5b6000818152602081905260408120600801545b87518210156118055787828151811061107f57fe5b6020026020010151600114156112fa5760008381526020818152604090912088516110b2926004909201918a0190613109565b5086600182815481106110c157fe5b906000526020600020906006020160020190805190602001906110e5929190613109565b5082600080516020613243833981519152600080868152602001908152602001600020600801548b60008088815260200190815260200160002060020154600080898152602001908152602001600020600301548c6000808b8152602001908152602001600020600501546000808c81526020019081526020016000206006016000808d8152602001908152602001600020600701546040518089815260200180602001888152602001878152602001806020018681526020018060200185815260200184810384528b818151815260200191508051906020019080838360005b838110156111de5781810151838201526020016111c6565b50505050905090810190601f16801561120b5780820380516001836020036101000a031916815260200191505b5084810383528851815288516020918201918a019080838360005b8381101561123e578181015183820152602001611226565b50505050905090810190601f16801561126b5780820380516001836020036101000a031916815260200191505b508481038252865460026000196101006001841615020190911604808252602090910190879080156112de5780601f106112b3576101008083540402835291602001916112de565b820191906000526020600020905b8154815290600101906020018083116112c157829003601f168201915b50509b50505050505050505050505060405180910390a26117fa565b87828151811061130657fe5b60200260200101516002141561158157600083815260208181526040909120875161133992600690920191890190613109565b50856001828154811061134857fe5b9060005260206000209060060201600401908051906020019061136c929190613109565b5082600080516020613243833981519152600080868152602001908152602001600020600801548b60008088815260200190815260200160002060020154600080898152602001908152602001600020600301546000808a81526020019081526020016000206004016000808b8152602001908152602001600020600501548d6000808d8152602001908152602001600020600701546040518089815260200180602001888152602001878152602001806020018681526020018060200185815260200184810384528b818151815260200191508051906020019080838360005b8381101561146557818101518382015260200161144d565b50505050905090810190601f1680156114925780820380516001836020036101000a031916815260200191505b508481038352885460026000196101006001841615020190911604808252602090910190899080156115055780601f106114da57610100808354040283529160200191611505565b820191906000526020600020905b8154815290600101906020018083116114e857829003601f168201915b5050848103825286518152865160209182019188019080838360005b83811015611539578181015183820152602001611521565b50505050905090810190601f1680156115665780820380516001836020036101000a031916815260200191505b509b50505050505050505050505060405180910390a26117fa565b87828151811061158d57fe5b6020026020010151600314156117fa57600083815260208190526040902060050185905560018054869190839081106115c257fe5b90600052602060002090600602016003018190555082600080516020613243833981519152600080868152602001908152602001600020600801548b60008088815260200190815260200160002060020154600080898152602001908152602001600020600301546000808a81526020019081526020016000206004018b6000808c81526020019081526020016000206006016000808d8152602001908152602001600020600701546040518089815260200180602001888152602001878152602001806020018681526020018060200185815260200184810384528b818151815260200191508051906020019080838360005b838110156116ce5781810151838201526020016116b6565b50505050905090810190601f1680156116fb5780820380516001836020036101000a031916815260200191505b5084810383528854600260001961010060018416150201909116048082526020909101908990801561176e5780601f106117435761010080835404028352916020019161176e565b820191906000526020600020905b81548152906001019060200180831161175157829003601f168201915b50508481038252865460026000196101006001841615020190911604808252602090910190879080156117e25780601f106117b7576101008083540402835291602001916117e2565b820191906000526020600020905b8154815290600101906020018083116117c557829003601f168201915b50509b50505050505050505050505060405180910390a25b60019091019061106a565b50600198975050505050505050565b60009081526020819052604090206007015490565b50600090565b60608060006060600080866040516020018082805190602001908083835b6020831061186c5780518252601f19909201916020918201910161184d565b6001836020036101000a0380198251168184511680821785525050505050509050019150506040516020818303038152906040528051906020012090506118b281612f04565b15156001146119035760408051600160e51b62461bcd0281526020600482015260126024820152600160701b7175736572206e6f7420696e2073797374656d02604482015290519081900360640190fd5b600081815260208181526040918290206005810154600782015482548551601f6002600019610100600186161502019093169290920491820186900486028101860190965280865292946004860194929360068701938791908301828280156119ad5780601f10611982576101008083540402835291602001916119ad565b820191906000526020600020905b81548152906001019060200180831161199057829003601f168201915b5050875460408051602060026001851615610100026000190190941693909304601f8101849004840282018401909252818152959a5089945092508401905082828015611a3b5780601f10611a1057610100808354040283529160200191611a3b565b820191906000526020600020905b815481529060010190602001808311611a1e57829003601f168201915b5050855460408051602060026001851615610100026000190190941693909304601f810184900484028201840190925281815295995087945092508401905082828015611ac95780601f10611a9e57610100808354040283529160200191611ac9565b820191906000526020600020905b815481529060010190602001808311611aac57829003601f168201915b50505050509150955095509550955095505091939590929450565b600080856040516020018082805190602001908083835b60208310611b1a5780518252601f199092019160209182019101611afb565b6001836020036101000a03801982511681845116808217855250505050505090500191505060405160208183030381529060405280519060200120905060006040516020018080600160f81b6061028152506001019050604051602081830303815290604052805190602001209050611b9282612f04565b151560011415611bec5760408051600160e51b62461bcd02815260206004820152601660248201527f7573657220616c6c7265647920696e2073797374656d00000000000000000000604482015290519081900360640190fd5b6000828152602081815260409091208851611c09928a0190613109565b50600082815260208190526040902060018101839055600201819055611c2e82612f51565b60008381526020818152604090912060038101929092558751611c579260040191890190613109565b50600082815260208181526040909120600581018690558651611c8292600690920191880190613109565b5060008281526020819052604090206001600790910155611ca68288888789612fd7565b50600180805490500360008084815260200190815260200160002060080181905550817ff1fe1914994a1125a37c6724a34ee0fc65c4130450ae0d815771142e6aedab51600080858152602001908152602001600020600801548960008087815260200190815260200160002060020154600080888152602001908152602001600020600301548b8a8c6000808c8152602001908152602001600020600701546040518089815260200180602001888152602001878152602001806020018681526020018060200185815260200184810384528b818151815260200191508051906020019080838360005b83811015611da9578181015183820152602001611d91565b50505050905090810190601f168015611dd65780820380516001836020036101000a031916815260200191505b5084810383528851815288516020918201918a019080838360005b83811015611e09578181015183820152602001611df1565b50505050905090810190601f168015611e365780820380516001836020036101000a031916815260200191505b50848103825286518152865160209182019188019080838360005b83811015611e69578181015183820152602001611e51565b50505050905090810190601f168015611e965780820380516001836020036101000a031916815260200191505b509b50505050505050505050505060405180910390a25060019695505050505050565b600080836040516020018082805190602001908083835b60208310611eef5780518252601f199092019160209182019101611ed0565b6001836020036101000a038019825116818451168082178552505050505050905001915050604051602081830303815290604052805190602001209050611f3581612f04565b1515600114611f865760408051600160e51b62461bcd0281526020600482015260126024820152600160701b7175736572206e6f7420696e2073797374656d02604482015290519081900360640190fd5b6000818152602081815260409091208451611fa992600490920191860190613109565b50600081815260208190526040902060080154600180548592908110611fcb57fe5b90600052602060002090600602016002019080519060200190611fef929190613109565b50806000805160206132438339815191526000808481526020019081526020016000206008015486600080868152602001908152602001600020600201546000808781526020019081526020016000206003015488600080898152602001908152602001600020600501546000808a81526020019081526020016000206006016000808b8152602001908152602001600020600701546040518089815260200180602001888152602001878152602001806020018681526020018060200185815260200184810384528b818151815260200191508051906020019080838360005b838110156120e85781810151838201526020016120d0565b50505050905090810190601f1680156121155780820380516001836020036101000a031916815260200191505b5084810383528851815288516020918201918a019080838360005b83811015612148578181015183820152602001612130565b50505050905090810190601f1680156121755780820380516001836020036101000a031916815260200191505b508481038252865460026000196101006001841615020190911604808252602090910190879080156121e85780601f106121bd576101008083540402835291602001916121e8565b820191906000526020600020905b8154815290600101906020018083116121cb57829003601f168201915b50509b50505050505050505050505060405180910390a25060019392505050565b60006060806000606060006001878154811061222157fe5b9060005260206000209060060201600001546001888154811061224057fe5b90600052602060002090600602016001016001898154811061225e57fe5b906000526020600020906006020160020160018a8154811061227c57fe5b90600052602060002090600602016003015460018b8154811061229b57fe5b906000526020600020906006020160040160018c815481106122b957fe5b600091825260209182902060056006909202010154855460408051601f6002600019610100600187161502019094169390930492830185900485028101850190915281815291928791908301828280156123545780601f1061232957610100808354040283529160200191612354565b820191906000526020600020905b81548152906001019060200180831161233757829003601f168201915b5050875460408051602060026001851615610100026000190190941693909304601f8101849004840282018401909252818152959a50899450925084019050828280156123e25780601f106123b7576101008083540402835291602001916123e2565b820191906000526020600020905b8154815290600101906020018083116123c557829003601f168201915b5050855460408051602060026001851615610100026000190190941693909304601f8101849004840282018401909252818152959950879450925084019050828280156124705780601f1061244557610100808354040283529160200191612470565b820191906000526020600020905b81548152906001019060200180831161245357829003601f168201915b5050505050915095509550955095509550955091939550919395565b60009081526020819052604090206002015490565b6000602081815291815260409081902080548251601f6002600019610100600186161502019093169290920491820185900485028101850190935280835290928391908301828280156125355780601f1061250a57610100808354040283529160200191612535565b820191906000526020600020905b81548152906001019060200180831161251857829003601f168201915b505050505090806001015490806002015490806003015490806004018054600181600116156101000203166002900480601f0160208091040260200160405190810160405280929190818152602001828054600181600116156101000203166002900480156125e55780601f106125ba576101008083540402835291602001916125e5565b820191906000526020600020905b8154815290600101906020018083116125c857829003601f168201915b50505050600583015460068401805460408051602060026001851615610100026000190190941693909304601f8101849004840282018401909252818152959693959394509083018282801561267c5780601f106126515761010080835404028352916020019161267c565b820191906000526020600020905b81548152906001019060200180831161265f57829003601f168201915b5050505050908060070154908060080154905089565b600080836040516020018082805190602001908083835b602083106126c85780518252601f1990920191602091820191016126a9565b6001836020036101000a03801982511681845116808217855250505050505090500191505060405160208183030381529060405280519060200120905061270e81612f04565b151560011461275f5760408051600160e51b62461bcd0281526020600482015260126024820152600160701b7175736572206e6f7420696e2073797374656d02604482015290519081900360640190fd5b600081815260208181526040909120845161278292600690920191860190613109565b506000818152602081905260409020600801546001805485929081106127a457fe5b906000526020600020906006020160040190805190602001906127c8929190613109565b508060008051602061324383398151915260008084815260200190815260200160002060080154866000808681526020019081526020016000206002015460008087815260200190815260200160002060030154600080888152602001908152602001600020600401600080898152602001908152602001600020600501548a6000808b8152602001908152602001600020600701546040518089815260200180602001888152602001878152602001806020018681526020018060200185815260200184810384528b818151815260200191508051906020019080838360005b838110156128c15781810151838201526020016128a9565b50505050905090810190601f1680156128ee5780820380516001836020036101000a031916815260200191505b508481038352885460026000196101006001841615020190911604808252602090910190899080156129615780601f1061293657610100808354040283529160200191612961565b820191906000526020600020905b81548152906001019060200180831161294457829003601f168201915b5050848103825286518152865160209182019188019080838360005b8381101561299557818101518382015260200161297d565b50505050905090810190601f1680156129c25780820380516001836020036101000a031916815260200191505b509b50505050505050505050505060405180910390a25060019392505050565b600080836040516020018082805190602001908083835b60208310612a185780518252601f1990920191602091820191016129f9565b6001836020036101000a038019825116818451168082178552505050505050905001915050604051602081830303815290604052805190602001209050612a5e81612f04565b1515600114612aaf5760408051600160e51b62461bcd0281526020600482015260126024820152600160701b7175736572206e6f7420696e2073797374656d02604482015290519081900360640190fd5b60008181526020819052604090206005810184905560080154600180548592908110612ad757fe5b9060005260206000209060060201600301819055508060008051602061324383398151915260008084815260200190815260200160002060080154866000808681526020019081526020016000206002015460008087815260200190815260200160002060030154600080888152602001908152602001600020600401896000808a81526020019081526020016000206006016000808b8152602001908152602001600020600701546040518089815260200180602001888152602001878152602001806020018681526020018060200185815260200184810384528b818151815260200191508051906020019080838360005b83811015612be3578181015183820152602001612bcb565b50505050905090810190601f168015612c105780820380516001836020036101000a031916815260200191505b50848103835288546002600019610100600184161502019091160480825260209091019089908015612c835780601f10612c5857610100808354040283529160200191612c83565b820191906000526020600020905b815481529060010190602001808311612c6657829003601f168201915b50508481038252865460026000196101006001841615020190911604808252602090910190879080156121e85780601f106121bd576101008083540402835291602001916121e8565b60606000815b600254821015612dad578360028381548110612cea57fe5b9060005260206000209060020201600001541415612da257600280546000198101908110612d1457fe5b90600052602060002090600202016000015460028381548110612d3357fe5b600091825260209091206002918202019190915580546000198101908110612d5757fe5b90600052602060002090600202016001015460028381548110612d7657fe5b9060005260206000209060020201600101819055506002805480919060019003612da09190613187565b505b600190910190612cd2565b6000848152602081905260409020600460078201819055600890910154600180549091908110612dd957fe5b90600052602060002090600602016005018190555060016000808681526020019081526020016000206008015481548110612e1057fe5b600091825260209182902060026006909202018101805460408051601f600019610100600186161502019093169490940491820185900485028401850190528083529192909190830182828015612ea85780601f10612e7d57610100808354040283529160200191612ea8565b820191906000526020600020905b815481529060010190602001808311612e8b57829003601f168201915b50505060008781526020818152604091829020600801548251908152915194955088947fa9182ea46bf769f0b5f2c986c9a06c228fb686381c72137c62b04826d1b38d86945091829003019150a29392505050565b6001545b90565b600154600090612f1657506000610f85565b600082815260208190526040902060080154600180548492908110612f3757fe5b906000526020600020906006020160000154149050919050565b600080612f5c6130dd565b9050612f666131b8565b83815260208101828152600280546001810182556000829052925192027f405787fa12a823e0f2b7631cc41b3ba8828b3321ca811111fa75cd3aa3bb5ace810192909255517f405787fa12a823e0f2b7631cc41b3ba8828b3321ca811111fa75cd3aa3bb5acf909101559050919050565b6000612fe16131cf565b8681526020808201878152604083018790526060830186905260808301859052600160a084018190528054808201808355600092909252845160069091027fb10e2d527612073b26eecdfd717e6a320cf44b4afac2b0732d9fcbe2b7fa0cf681019182559251805192948694929361307f937fb10e2d527612073b26eecdfd717e6a320cf44b4afac2b0732d9fcbe2b7fa0cf7019290910190613109565b506040820151805161309b916002840191602090910190613109565b5060608201516003820155608082015180516130c1916004840191602090910190613109565b5060a08201518160050155505050600191505095945050505050565b604080514260208083019190915244828401528251808303840181526060909201909252805191012090565b828054600181600116156101000203166002900490600052602060002090601f016020900481019282601f1061314a57805160ff1916838001178555613177565b82800160010185558215613177579182015b8281111561317757825182559160200191906001019061315c565b50613183929150613208565b5090565b8154818355818111156131b3576002028160020283600052602060002091820191016131b39190613222565b505050565b604080518082019091526000808252602082015290565b6040518060c001604052806000801916815260200160608152602001606081526020016000815260200160608152602001600081525090565b612f0191905b80821115613183576000815560010161320e565b612f0191905b80821115613183576000808255600182015560020161322856fe03751f335fdcedf5eb1e0283fc6b217d9defab43d4d6158b3b52fc9935338c96a165627a7a72305820a44c47a6ff540f8750871ee5ffb09eaaf77e40736395fe6c126cd8a7329ca63d0029",
  "source": "pragma solidity >=0.4.21 <0.6.0;\r\n\r\ncontract DistributorContract {\r\n    \r\n    struct Distributor{\r\n        string email;\r\n        bytes32 emailCode;\r\n        bytes32 passwordCode;\r\n        bytes32 passwordRestToken;\r\n        string name;\r\n        uint contactNumber;\r\n        string userAddress;\r\n        uint userAccess;\r\n        uint index;\r\n    }\r\n\r\n    struct DisplayDistributor{\r\n        bytes32 emailCode;\r\n        string email;\r\n        string name;\r\n        uint contactNumber;\r\n        string userAddress;\r\n        uint userAccess;\r\n    }\r\n    \r\n    event LogNewDistributor(\r\n        bytes32 indexed emailCode,\r\n        uint index,string email,\r\n        bytes32 passwordCode,\r\n        bytes32 passwordRestToken,\r\n        string name,\r\n        uint contactNumber,\r\n        string userAddress,\r\n        uint userAccess\r\n        );\r\n    event LogUpdateDistributor(\r\n        bytes32 indexed emailCode,\r\n        uint index,string email,\r\n        bytes32 passwordCode,\r\n        bytes32 passwordRestToken,\r\n        string name,\r\n        uint contactNumber,\r\n        string userAddress,\r\n        uint userAccess\r\n        );\r\n    event LogDeleteDistributor(\r\n        bytes32 indexed emailcode,\r\n        uint index\r\n        );\r\n        \r\n    struct RegistationToken{\r\n        bytes32 emailCode;\r\n        bytes32 token;\r\n    }\r\n        \r\n    mapping(bytes32 => Distributor) public distributorArray;\r\n    DisplayDistributor[] private distributorIndex;\r\n    RegistationToken[] private distributorRegistationToken;\r\n    \r\n    function isDistributor(bytes32 _emailCode)private view returns(bool isIndeed) {\r\n        if(distributorIndex.length == 0) return false;\r\n        return (distributorIndex[distributorArray[_emailCode].index].emailCode == _emailCode);\r\n    }\r\n    function createDistributorToken(bytes32 _emailCode)private returns(bytes32){\r\n        bytes32 token = randomtoken();\r\n        RegistationToken memory registationToken;\r\n        registationToken.emailCode = _emailCode;\r\n        registationToken.token = token;\r\n        distributorRegistationToken.push(registationToken);\r\n        return token;\r\n    }\r\n    function randomtoken() private view returns (bytes32) {\r\n       return keccak256(abi.encodePacked( block.timestamp, block.difficulty));\r\n    }\r\n    function setDisplayDistributor(bytes32 _emailCode,string memory _email,string memory _name,uint _telephone,string memory _address)\r\n     private returns(bool){\r\n\r\n        DisplayDistributor memory displayDistributor;\r\n        displayDistributor.emailCode = _emailCode;\r\n        displayDistributor.email = _email;\r\n        displayDistributor.name = _name;\r\n        displayDistributor.contactNumber = _telephone;\r\n        displayDistributor.userAddress = _address;\r\n        displayDistributor.userAccess = 1;\r\n        distributorIndex.push(displayDistributor);\r\n        return true;\r\n\r\n    }\r\n    function insertDistributor(string memory _email,string memory _name,string memory _address,uint _telephone) public returns(bool){\r\n        bytes32 _emailCode = keccak256(abi.encodePacked((_email)));\r\n        bytes32 _passwordCode = keccak256(abi.encodePacked((\"a\")));\r\n        require(isDistributor(_emailCode) != true,'user allredy in system');\r\n\r\n        distributorArray[_emailCode].email = _email;\r\n        distributorArray[_emailCode].emailCode = _emailCode;\r\n        distributorArray[_emailCode].passwordCode = _passwordCode;\r\n        distributorArray[_emailCode].passwordRestToken = createDistributorToken(_emailCode);\r\n        distributorArray[_emailCode].name = _name;\r\n        distributorArray[_emailCode].contactNumber = _telephone;\r\n        distributorArray[_emailCode].userAddress = _address;\r\n        distributorArray[_emailCode].userAccess = 1;\r\n        setDisplayDistributor(_emailCode,_email,_name,_telephone,_address);\r\n        distributorArray[_emailCode].index = distributorIndex.length-1;\r\n\r\n        emit LogNewDistributor (\r\n            _emailCode,\r\n            distributorArray[_emailCode].index,\r\n            _email,\r\n            distributorArray[_emailCode].passwordCode,\r\n            distributorArray[_emailCode].passwordRestToken,\r\n            _name,\r\n            _telephone,\r\n            _address,\r\n            distributorArray[_emailCode].userAccess\r\n            );\r\n        return true;\r\n    }\r\n    function deleteDistributor (bytes32 email) public returns(string memory){\r\n        uint i;\r\n        string memory name;\r\n        for( i = 0; i < distributorRegistationToken.length; i++) {\r\n            if(distributorRegistationToken[i].emailCode == email){\r\n                distributorRegistationToken[i].emailCode = distributorRegistationToken[distributorRegistationToken.length-1].emailCode;\r\n                distributorRegistationToken[i].token = distributorRegistationToken[distributorRegistationToken.length-1].token;\r\n                distributorRegistationToken.length--;\r\n            }\r\n        }\r\n        distributorArray[email].userAccess = 4;\r\n        distributorIndex[distributorArray[email].index].userAccess = 4;\r\n        name = distributorIndex[distributorArray[email].index].name;\r\n        emit LogDeleteDistributor(\r\n            email,\r\n            distributorArray[email].index\r\n        );\r\n        return name;\r\n    }\r\n    function blockDistributor(bytes32 email) public returns(string memory)\r\n    {\r\n        string memory name;\r\n        distributorArray[email].userAccess = 3;\r\n        distributorIndex[distributorArray[email].index].userAccess = 3;\r\n        name = distributorIndex[distributorArray[email].index].name;\r\n        return name;\r\n    }\r\n    function getDistributor(string memory _email) public view returns(string memory email,string memory name,\r\n    uint contactNumber,string memory userAddress, uint userAccess){\r\n        bytes32 _emailCode = keccak256(abi.encodePacked((_email)));\r\n        require(isDistributor(_emailCode) == true,'user not in system');\r\n        return(\r\n            distributorArray[_emailCode].email,\r\n            distributorArray[_emailCode].name,\r\n            distributorArray[_emailCode].contactNumber,\r\n            distributorArray[_emailCode].userAddress,\r\n            distributorArray[_emailCode].userAccess\r\n            );\r\n    }\r\n    function getDistributori(uint i) public view returns(\r\n        bytes32,\r\n        string memory,\r\n        string memory,\r\n        uint,\r\n        string memory,\r\n        uint\r\n        ){\r\n            return (\r\n                distributorIndex[i].emailCode,\r\n                distributorIndex[i].email,\r\n                distributorIndex[i].name,\r\n                distributorIndex[i].contactNumber,\r\n                distributorIndex[i].userAddress,\r\n                distributorIndex[i].userAccess\r\n                );\r\n    }\r\n    function getDistributorCount() public view returns(uint)\r\n    {\r\n        return distributorIndex.length;\r\n    }\r\n    \r\n    // function updateUserEmail(address userAddress, bytes32 userEmail) public returns(bool success)\r\n    // {\r\n    //     userStructs[userAddress].userEmail = userEmail;\r\n    //     emit LogUpdateUser(userAddress,  userStructs[userAddress].index, userEmail, userStructs[userAddress].userAge);\r\n    //     return true;\r\n    // }\r\n    function updateDistributorName (string memory _email,string memory _name) public returns(bool success){\r\n        bytes32 _emailCode = keccak256(abi.encodePacked((_email)));\r\n        require(isDistributor(_emailCode) == true,'user not in system');\r\n        distributorArray[_emailCode].name = _name;\r\n        distributorIndex[distributorArray[_emailCode].index].name = _name;\r\n        emit LogUpdateDistributor(\r\n            _emailCode,\r\n            distributorArray[_emailCode].index,\r\n            _email,\r\n            distributorArray[_emailCode].passwordCode,\r\n            distributorArray[_emailCode].passwordRestToken,\r\n            _name,\r\n            distributorArray[_emailCode].contactNumber,\r\n            distributorArray[_emailCode].userAddress,\r\n            distributorArray[_emailCode].userAccess\r\n            );\r\n        return true;\r\n    }\r\n    function updateDistributorAddress (string memory _email,string memory _userAddress) public returns(bool success){\r\n        bytes32 _emailCode = keccak256(abi.encodePacked((_email)));\r\n        require(isDistributor(_emailCode) == true,'user not in system');\r\n        distributorArray[_emailCode].userAddress = _userAddress;\r\n        distributorIndex[distributorArray[_emailCode].index].userAddress = _userAddress;\r\n        emit LogUpdateDistributor(\r\n            _emailCode,\r\n            distributorArray[_emailCode].index,\r\n            _email,\r\n            distributorArray[_emailCode].passwordCode,\r\n            distributorArray[_emailCode].passwordRestToken,\r\n            distributorArray[_emailCode].name,\r\n            distributorArray[_emailCode].contactNumber,\r\n            _userAddress,\r\n            distributorArray[_emailCode].userAccess\r\n            );\r\n        return true;\r\n    }\r\n    function updateDistributorContactNumber (string memory _email,uint _contactNumber) public returns(bool success){\r\n        bytes32 _emailCode = keccak256(abi.encodePacked((_email)));\r\n        require(isDistributor(_emailCode) == true,'user not in system');\r\n        distributorArray[_emailCode].contactNumber = _contactNumber;\r\n        distributorIndex[distributorArray[_emailCode].index].contactNumber = _contactNumber;\r\n        emit LogUpdateDistributor(\r\n            _emailCode,\r\n            distributorArray[_emailCode].index,\r\n            _email,\r\n            distributorArray[_emailCode].passwordCode,\r\n            distributorArray[_emailCode].passwordRestToken,\r\n            distributorArray[_emailCode].name,\r\n            _contactNumber,\r\n            distributorArray[_emailCode].userAddress,\r\n            distributorArray[_emailCode].userAccess\r\n            );\r\n        return true;\r\n    }\r\n    function updateDistributor(\r\n        string memory _email,\r\n        uint[] memory index,\r\n        string memory _name,\r\n        string memory _userAddress,\r\n        uint _contactNumber\r\n        ) public returns(bool success){\r\n        bytes32 _emailCode = keccak256(abi.encodePacked((_email)));\r\n        require(isDistributor(_emailCode) == true,'user not in system');\r\n        uint i;\r\n        uint num = distributorArray[_emailCode].index;\r\n\r\n        for (i = 0;i<index.length;i++){\r\n            if(index[i]==1){\r\n                distributorArray[_emailCode].name = _name;\r\n                distributorIndex[num].name = _name;\r\n                emit LogUpdateDistributor(\r\n                    _emailCode,\r\n                    distributorArray[_emailCode].index,\r\n                    _email,distributorArray[_emailCode].passwordCode,\r\n                    distributorArray[_emailCode].passwordRestToken,\r\n                    _name,\r\n                    distributorArray[_emailCode].contactNumber,\r\n                    distributorArray[_emailCode].userAddress,\r\n                    distributorArray[_emailCode].userAccess\r\n                    );\r\n\r\n            }\r\n            else if(index[i]==2){\r\n                distributorArray[_emailCode].userAddress = _userAddress;\r\n\r\n                distributorIndex[num].userAddress = _userAddress;\r\n\r\n                emit LogUpdateDistributor(\r\n                    _emailCode,\r\n                    distributorArray[_emailCode].index,\r\n                    _email,\r\n                    distributorArray[_emailCode].passwordCode,\r\n                    distributorArray[_emailCode].passwordRestToken,\r\n                    distributorArray[_emailCode].name,\r\n                    distributorArray[_emailCode].contactNumber,\r\n                    _userAddress,\r\n                    distributorArray[_emailCode].userAccess\r\n                    );\r\n\r\n            }\r\n            else if(index[i]==3){\r\n                distributorArray[_emailCode].contactNumber = _contactNumber;\r\n                distributorIndex[num].contactNumber = _contactNumber;\r\n                emit LogUpdateDistributor(\r\n                    _emailCode,\r\n                    distributorArray[_emailCode].index,\r\n                    _email,\r\n                    distributorArray[_emailCode].passwordCode,\r\n                    distributorArray[_emailCode].passwordRestToken,\r\n                    distributorArray[_emailCode].name,\r\n                    _contactNumber,\r\n                    distributorArray[_emailCode].userAddress,\r\n                    distributorArray[_emailCode].userAccess\r\n                    );\r\n\r\n            }\r\n        }\r\n        return true;\r\n    }\r\n    ///////\r\n    function updateDistributoriEmail (string memory _email) public returns(bool success)\r\n    {\r\n       // return true;\r\n    }\r\n    function checkDistributorUserAccess(bytes32 email)public view returns(uint userAccess){\r\n        \r\n        return distributorArray[email].userAccess;\r\n    }\r\n    function checkDistributorPasswordCode(bytes32 email) public view returns(bytes32 passwordCode ){\r\n        return distributorArray[email].passwordCode;\r\n    }\r\n}",
  "sourcePath": "C:\\project\\tea supply chain mangement system\\test2\\contracts\\Distributor.sol",
  "compiler": {
    "name": "solc",
    "version": "0.5.8+commit.23d335f2.Emscripten.clang"
  },
  "schemaVersion": "3.0.16",
  "updatedAt": "2019-11-16T02:02:57.132Z",
  "devdoc": {
    "methods": {}
  },
  "userdoc": {
    "methods": {
      "updateDistributoriEmail(string)": {
        "notice": "////"
      }
    }
  }
}