{
  "contractName": "DistributorContract",
  "abi": [
    {
      "constant": true,
      "inputs": [
        {
          "name": "",
          "type": "bytes32"
        }
      ],
      "name": "distributorArray",
      "outputs": [
        {
          "name": "email",
          "type": "string"
        },
        {
          "name": "emailCode",
          "type": "bytes32"
        },
        {
          "name": "passwordCode",
          "type": "bytes32"
        },
        {
          "name": "passwordRestToken",
          "type": "bytes32"
        },
        {
          "name": "name",
          "type": "string"
        },
        {
          "name": "contactNumber",
          "type": "uint256"
        },
        {
          "name": "userAddress",
          "type": "string"
        },
        {
          "name": "userAccess",
          "type": "uint256"
        },
        {
          "name": "index",
          "type": "uint256"
        }
      ],
      "payable": false,
      "stateMutability": "view",
      "type": "function"
    },
    {
      "anonymous": false,
      "inputs": [
        {
          "indexed": true,
          "name": "emailCode",
          "type": "bytes32"
        },
        {
          "indexed": false,
          "name": "index",
          "type": "uint256"
        },
        {
          "indexed": false,
          "name": "email",
          "type": "string"
        },
        {
          "indexed": false,
          "name": "passwordCode",
          "type": "bytes32"
        },
        {
          "indexed": false,
          "name": "passwordRestToken",
          "type": "bytes32"
        },
        {
          "indexed": false,
          "name": "name",
          "type": "string"
        },
        {
          "indexed": false,
          "name": "contactNumber",
          "type": "uint256"
        },
        {
          "indexed": false,
          "name": "userAddress",
          "type": "string"
        },
        {
          "indexed": false,
          "name": "userAccess",
          "type": "uint256"
        }
      ],
      "name": "LogNewDistributor",
      "type": "event"
    },
    {
      "anonymous": false,
      "inputs": [
        {
          "indexed": true,
          "name": "emailCode",
          "type": "bytes32"
        },
        {
          "indexed": false,
          "name": "index",
          "type": "uint256"
        },
        {
          "indexed": false,
          "name": "email",
          "type": "string"
        },
        {
          "indexed": false,
          "name": "passwordCode",
          "type": "bytes32"
        },
        {
          "indexed": false,
          "name": "passwordRestToken",
          "type": "bytes32"
        },
        {
          "indexed": false,
          "name": "name",
          "type": "string"
        },
        {
          "indexed": false,
          "name": "contactNumber",
          "type": "uint256"
        },
        {
          "indexed": false,
          "name": "userAddress",
          "type": "string"
        },
        {
          "indexed": false,
          "name": "userAccess",
          "type": "uint256"
        }
      ],
      "name": "LogUpdateDistributor",
      "type": "event"
    },
    {
      "anonymous": false,
      "inputs": [
        {
          "indexed": true,
          "name": "emailcode",
          "type": "bytes32"
        },
        {
          "indexed": false,
          "name": "index",
          "type": "uint256"
        }
      ],
      "name": "LogDeleteDistributor",
      "type": "event"
    },
    {
      "constant": true,
      "inputs": [
        {
          "name": "_emailCode",
          "type": "bytes32"
        }
      ],
      "name": "isDistributor",
      "outputs": [
        {
          "name": "isIndeed",
          "type": "bool"
        }
      ],
      "payable": false,
      "stateMutability": "view",
      "type": "function"
    },
    {
      "constant": false,
      "inputs": [
        {
          "name": "_email",
          "type": "string"
        },
        {
          "name": "_name",
          "type": "string"
        },
        {
          "name": "_address",
          "type": "string"
        },
        {
          "name": "_telephone",
          "type": "uint256"
        }
      ],
      "name": "insertDistributor",
      "outputs": [
        {
          "name": "",
          "type": "bool"
        }
      ],
      "payable": false,
      "stateMutability": "nonpayable",
      "type": "function"
    },
    {
      "constant": false,
      "inputs": [
        {
          "name": "email",
          "type": "bytes32"
        }
      ],
      "name": "deleteDistributor",
      "outputs": [
        {
          "name": "",
          "type": "string"
        }
      ],
      "payable": false,
      "stateMutability": "nonpayable",
      "type": "function"
    },
    {
      "constant": false,
      "inputs": [
        {
          "name": "email",
          "type": "bytes32"
        }
      ],
      "name": "blockDistributor",
      "outputs": [
        {
          "name": "",
          "type": "string"
        }
      ],
      "payable": false,
      "stateMutability": "nonpayable",
      "type": "function"
    },
    {
      "constant": false,
      "inputs": [
        {
          "name": "_email",
          "type": "string"
        },
        {
          "name": "usreAccess",
          "type": "uint256"
        }
      ],
      "name": "editUserAccess",
      "outputs": [
        {
          "name": "",
          "type": "bool"
        }
      ],
      "payable": false,
      "stateMutability": "nonpayable",
      "type": "function"
    },
    {
      "constant": true,
      "inputs": [
        {
          "name": "_email",
          "type": "string"
        }
      ],
      "name": "getDistributor",
      "outputs": [
        {
          "name": "",
          "type": "bytes32"
        },
        {
          "name": "email",
          "type": "string"
        },
        {
          "name": "name",
          "type": "string"
        },
        {
          "name": "contactNumber",
          "type": "uint256"
        },
        {
          "name": "userAddress",
          "type": "string"
        },
        {
          "name": "userAccess",
          "type": "uint256"
        }
      ],
      "payable": false,
      "stateMutability": "view",
      "type": "function"
    },
    {
      "constant": true,
      "inputs": [
        {
          "name": "i",
          "type": "uint256"
        }
      ],
      "name": "getDistributori",
      "outputs": [
        {
          "name": "",
          "type": "bytes32"
        },
        {
          "name": "",
          "type": "string"
        },
        {
          "name": "",
          "type": "string"
        },
        {
          "name": "",
          "type": "uint256"
        },
        {
          "name": "",
          "type": "string"
        },
        {
          "name": "",
          "type": "uint256"
        }
      ],
      "payable": false,
      "stateMutability": "view",
      "type": "function"
    },
    {
      "constant": true,
      "inputs": [],
      "name": "getDistributorCount",
      "outputs": [
        {
          "name": "",
          "type": "uint256"
        }
      ],
      "payable": false,
      "stateMutability": "view",
      "type": "function"
    },
    {
      "constant": false,
      "inputs": [
        {
          "name": "_email",
          "type": "string"
        },
        {
          "name": "_name",
          "type": "string"
        }
      ],
      "name": "updateDistributorName",
      "outputs": [
        {
          "name": "success",
          "type": "bool"
        }
      ],
      "payable": false,
      "stateMutability": "nonpayable",
      "type": "function"
    },
    {
      "constant": false,
      "inputs": [
        {
          "name": "_email",
          "type": "string"
        },
        {
          "name": "_userAddress",
          "type": "string"
        }
      ],
      "name": "updateDistributorAddress",
      "outputs": [
        {
          "name": "success",
          "type": "bool"
        }
      ],
      "payable": false,
      "stateMutability": "nonpayable",
      "type": "function"
    },
    {
      "constant": false,
      "inputs": [
        {
          "name": "_email",
          "type": "string"
        },
        {
          "name": "_contactNumber",
          "type": "uint256"
        }
      ],
      "name": "updateDistributorContactNumber",
      "outputs": [
        {
          "name": "success",
          "type": "bool"
        }
      ],
      "payable": false,
      "stateMutability": "nonpayable",
      "type": "function"
    },
    {
      "constant": false,
      "inputs": [
        {
          "name": "_email",
          "type": "string"
        },
        {
          "name": "index",
          "type": "uint256[]"
        },
        {
          "name": "_name",
          "type": "string"
        },
        {
          "name": "_userAddress",
          "type": "string"
        },
        {
          "name": "_contactNumber",
          "type": "uint256"
        }
      ],
      "name": "updateDistributor",
      "outputs": [
        {
          "name": "success",
          "type": "bool"
        }
      ],
      "payable": false,
      "stateMutability": "nonpayable",
      "type": "function"
    },
    {
      "constant": false,
      "inputs": [
        {
          "name": "_email",
          "type": "string"
        }
      ],
      "name": "updateDistributoriEmail",
      "outputs": [
        {
          "name": "success",
          "type": "bool"
        }
      ],
      "payable": false,
      "stateMutability": "nonpayable",
      "type": "function"
    },
    {
      "constant": true,
      "inputs": [
        {
          "name": "email",
          "type": "bytes32"
        }
      ],
      "name": "checkDistributorUserAccess",
      "outputs": [
        {
          "name": "userAccess",
          "type": "uint256"
        }
      ],
      "payable": false,
      "stateMutability": "view",
      "type": "function"
    },
    {
      "constant": true,
      "inputs": [
        {
          "name": "email",
          "type": "bytes32"
        }
      ],
      "name": "checkDistributorPasswordCode",
      "outputs": [
        {
          "name": "passwordCode",
          "type": "bytes32"
        }
      ],
      "payable": false,
      "stateMutability": "view",
      "type": "function"
    }
  ],
  "bytecode": "0x608060405234801561001057600080fd5b5061340a806100206000396000f3fe608060405234801561001057600080fd5b50600436106101005760003560e01c80635d4b3b7f11610097578063c8fc50c911610066578063c8fc50c914610d1a578063e669c00214610dc0578063ea0fd49b14610ddd578063f6edf18c14610dfa57610100565b80635d4b3b7f146109a35780636420152a146109c05780636609b7cc14610b4b57806377c7b72514610bf157610100565b80634743c2cb116100d35780634743c2cb146104b05780634cb1389b146106ad5780634dc242c81461085d57806356f81d8b1461098657610100565b806316ac4bd2146101055780632133b06314610197578063247fb142146103dd5780632d9c9d881461040c575b600080fd5b6101226004803603602081101561011b57600080fd5b5035610e02565b6040805160208082528351818301528351919283929083019185019080838360005b8381101561015c578181015183820152602001610144565b50505050905090810190601f1680156101895780820380516001836020036101000a031916815260200191505b509250505060405180910390f35b6103c9600480360360a08110156101ad57600080fd5b810190602081018135600160201b8111156101c757600080fd5b8201836020820111156101d957600080fd5b803590602001918460018302840111600160201b831117156101fa57600080fd5b91908080601f0160208091040260200160405190810160405280939291908181526020018383808284376000920191909152509295949360208101935035915050600160201b81111561024c57600080fd5b82018360208201111561025e57600080fd5b803590602001918460208302840111600160201b8311171561027f57600080fd5b9190808060200260200160405190810160405280939291908181526020018383602002808284376000920191909152509295949360208101935035915050600160201b8111156102ce57600080fd5b8201836020820111156102e057600080fd5b803590602001918460018302840111600160201b8311171561030157600080fd5b91908080601f0160208091040260200160405190810160405280939291908181526020018383808284376000920191909152509295949360208101935035915050600160201b81111561035357600080fd5b82018360208201111561036557600080fd5b803590602001918460018302840111600160201b8311171561038657600080fd5b91908080601f0160208091040260200160405190810160405280939291908181526020018383808284376000920191909152509295505091359250611049915050565b604080519115158252519081900360200190f35b6103fa600480360360208110156103f357600080fd5b50356118d3565b60408051918252519081900360200190f35b6103c96004803603602081101561042257600080fd5b810190602081018135600160201b81111561043c57600080fd5b82018360208201111561044e57600080fd5b803590602001918460018302840111600160201b8311171561046f57600080fd5b91908080601f0160208091040260200160405190810160405280939291908181526020018383808284376000920191909152509295506118e8945050505050565b610554600480360360208110156104c657600080fd5b810190602081018135600160201b8111156104e057600080fd5b8201836020820111156104f257600080fd5b803590602001918460018302840111600160201b8311171561051357600080fd5b91908080601f0160208091040260200160405190810160405280939291908181526020018383808284376000920191909152509295506118ee945050505050565b60405180878152602001806020018060200186815260200180602001858152602001848103845289818151815260200191508051906020019080838360005b838110156105ab578181015183820152602001610593565b50505050905090810190601f1680156105d85780820380516001836020036101000a031916815260200191505b5084810383528851815288516020918201918a019080838360005b8381101561060b5781810151838201526020016105f3565b50505050905090810190601f1680156106385780820380516001836020036101000a031916815260200191505b50848103825286518152865160209182019188019080838360005b8381101561066b578181015183820152602001610653565b50505050905090810190601f1680156106985780820380516001836020036101000a031916815260200191505b50995050505050505050505060405180910390f35b6103c9600480360360808110156106c357600080fd5b810190602081018135600160201b8111156106dd57600080fd5b8201836020820111156106ef57600080fd5b803590602001918460018302840111600160201b8311171561071057600080fd5b91908080601f0160208091040260200160405190810160405280939291908181526020018383808284376000920191909152509295949360208101935035915050600160201b81111561076257600080fd5b82018360208201111561077457600080fd5b803590602001918460018302840111600160201b8311171561079557600080fd5b91908080601f0160208091040260200160405190810160405280939291908181526020018383808284376000920191909152509295949360208101935035915050600160201b8111156107e757600080fd5b8201836020820111156107f957600080fd5b803590602001918460018302840111600160201b8311171561081a57600080fd5b91908080601f0160208091040260200160405190810160405280939291908181526020018383808284376000920191909152509295505091359250611ba8915050565b6103c96004803603604081101561087357600080fd5b810190602081018135600160201b81111561088d57600080fd5b82018360208201111561089f57600080fd5b803590602001918460018302840111600160201b831117156108c057600080fd5b91908080601f0160208091040260200160405190810160405280939291908181526020018383808284376000920191909152509295949360208101935035915050600160201b81111561091257600080fd5b82018360208201111561092457600080fd5b803590602001918460018302840111600160201b8311171561094557600080fd5b91908080601f016020809104026020016040519081016040528093929190818152602001838380828437600092019190915250929550611f7d945050505050565b6105546004803603602081101561099c57600080fd5b50356122cd565b6103fa600480360360208110156109b957600080fd5b5035612550565b6109dd600480360360208110156109d657600080fd5b5035612565565b60405180806020018a8152602001898152602001888152602001806020018781526020018060200186815260200185815260200184810384528d818151815260200191508051906020019080838360005b83811015610a46578181015183820152602001610a2e565b50505050905090810190601f168015610a735780820380516001836020036101000a031916815260200191505b5084810383528951815289516020918201918b019080838360005b83811015610aa6578181015183820152602001610a8e565b50505050905090810190601f168015610ad35780820380516001836020036101000a031916815260200191505b50848103825287518152875160209182019189019080838360005b83811015610b06578181015183820152602001610aee565b50505050905090810190601f168015610b335780820380516001836020036101000a031916815260200191505b509c5050505050505050505050505060405180910390f35b6103c960048036036040811015610b6157600080fd5b810190602081018135600160201b811115610b7b57600080fd5b820183602082011115610b8d57600080fd5b803590602001918460018302840111600160201b83111715610bae57600080fd5b91908080601f0160208091040260200160405190810160405280939291908181526020018383808284376000920191909152509295505091359250612756915050565b6103c960048036036040811015610c0757600080fd5b810190602081018135600160201b811115610c2157600080fd5b820183602082011115610c3357600080fd5b803590602001918460018302840111600160201b83111715610c5457600080fd5b91908080601f0160208091040260200160405190810160405280939291908181526020018383808284376000920191909152509295949360208101935035915050600160201b811115610ca657600080fd5b820183602082011115610cb857600080fd5b803590602001918460018302840111600160201b83111715610cd957600080fd5b91908080601f01602080910402602001604051908101604052809392919081815260200183838082843760009201919091525092955061280e945050505050565b6103c960048036036040811015610d3057600080fd5b810190602081018135600160201b811115610d4a57600080fd5b820183602082011115610d5c57600080fd5b803590602001918460018302840111600160201b83111715610d7d57600080fd5b91908080601f0160208091040260200160405190810160405280939291908181526020018383808284376000920191909152509295505091359250612b5e915050565b61012260048036036020811015610dd657600080fd5b5035612e48565b6103c960048036036020811015610df357600080fd5b5035613079565b6103fa6130c6565b600081815260208190526040902060070154606090819060051415610f24576000838152602081905260409020600360078201819055600890910154600180549091908110610e4d57fe5b90600052602060002090600602016005018190555060016000808581526020019081526020016000206008015481548110610e8457fe5b600091825260209182902060026006909202018101805460408051601f600019610100600186161502019093169490940491820185900485028401850190528083529192909190830182828015610f1c5780601f10610ef157610100808354040283529160200191610f1c565b820191906000526020600020905b815481529060010190602001808311610eff57829003601f168201915b505050505090505b60008381526020819052604090206007015460031415611041576000838152602081905260409020600560078201819055600890910154600180549091908110610f6a57fe5b90600052602060002090600602016005018190555060016000808581526020019081526020016000206008015481548110610fa157fe5b600091825260209182902060026006909202018101805460408051601f6000196101006001861615020190931694909404918201859004850284018501905280835291929091908301828280156110395780601f1061100e57610100808354040283529160200191611039565b820191906000526020600020905b81548152906001019060200180831161101c57829003601f168201915b505050505090505b90505b919050565b600080866040516020018082805190602001908083835b6020831061107f5780518252601f199092019160209182019101611060565b6001836020036101000a0380198251168184511680821785525050505050509050019150506040516020818303038152906040528051906020012090506110c581613079565b15156001146111165760408051600160e51b62461bcd0281526020600482015260126024820152600160701b7175736572206e6f7420696e2073797374656d02604482015290519081900360640190fd5b6000818152602081905260408120600801545b87518210156118c45787828151811061113e57fe5b6020026020010151600114156113b9576000838152602081815260409091208851611171926004909201918a0190613285565b50866001828154811061118057fe5b906000526020600020906006020160020190805190602001906111a4929190613285565b50826000805160206133bf833981519152600080868152602001908152602001600020600801548b60008088815260200190815260200160002060020154600080898152602001908152602001600020600301548c6000808b8152602001908152602001600020600501546000808c81526020019081526020016000206006016000808d8152602001908152602001600020600701546040518089815260200180602001888152602001878152602001806020018681526020018060200185815260200184810384528b818151815260200191508051906020019080838360005b8381101561129d578181015183820152602001611285565b50505050905090810190601f1680156112ca5780820380516001836020036101000a031916815260200191505b5084810383528851815288516020918201918a019080838360005b838110156112fd5781810151838201526020016112e5565b50505050905090810190601f16801561132a5780820380516001836020036101000a031916815260200191505b5084810382528654600260001961010060018416150201909116048082526020909101908790801561139d5780601f106113725761010080835404028352916020019161139d565b820191906000526020600020905b81548152906001019060200180831161138057829003601f168201915b50509b50505050505050505050505060405180910390a26118b9565b8782815181106113c557fe5b6020026020010151600214156116405760008381526020818152604090912087516113f892600690920191890190613285565b50856001828154811061140757fe5b9060005260206000209060060201600401908051906020019061142b929190613285565b50826000805160206133bf833981519152600080868152602001908152602001600020600801548b60008088815260200190815260200160002060020154600080898152602001908152602001600020600301546000808a81526020019081526020016000206004016000808b8152602001908152602001600020600501548d6000808d8152602001908152602001600020600701546040518089815260200180602001888152602001878152602001806020018681526020018060200185815260200184810384528b818151815260200191508051906020019080838360005b8381101561152457818101518382015260200161150c565b50505050905090810190601f1680156115515780820380516001836020036101000a031916815260200191505b508481038352885460026000196101006001841615020190911604808252602090910190899080156115c45780601f10611599576101008083540402835291602001916115c4565b820191906000526020600020905b8154815290600101906020018083116115a757829003601f168201915b5050848103825286518152865160209182019188019080838360005b838110156115f85781810151838201526020016115e0565b50505050905090810190601f1680156116255780820380516001836020036101000a031916815260200191505b509b50505050505050505050505060405180910390a26118b9565b87828151811061164c57fe5b6020026020010151600314156118b9576000838152602081905260409020600501859055600180548691908390811061168157fe5b906000526020600020906006020160030181905550826000805160206133bf833981519152600080868152602001908152602001600020600801548b60008088815260200190815260200160002060020154600080898152602001908152602001600020600301546000808a81526020019081526020016000206004018b6000808c81526020019081526020016000206006016000808d8152602001908152602001600020600701546040518089815260200180602001888152602001878152602001806020018681526020018060200185815260200184810384528b818151815260200191508051906020019080838360005b8381101561178d578181015183820152602001611775565b50505050905090810190601f1680156117ba5780820380516001836020036101000a031916815260200191505b5084810383528854600260001961010060018416150201909116048082526020909101908990801561182d5780601f106118025761010080835404028352916020019161182d565b820191906000526020600020905b81548152906001019060200180831161181057829003601f168201915b50508481038252865460026000196101006001841615020190911604808252602090910190879080156118a15780601f10611876576101008083540402835291602001916118a1565b820191906000526020600020905b81548152906001019060200180831161188457829003601f168201915b50509b50505050505050505050505060405180910390a25b600190910190611129565b50600198975050505050505050565b60009081526020819052604090206007015490565b50600090565b600060608060006060600080876040516020018082805190602001908083835b6020831061192d5780518252601f19909201916020918201910161190e565b6001836020036101000a03801982511681845116808217855250505050505090500191505060405160208183030381529060405280519060200120905061197381613079565b15156001146119c45760408051600160e51b62461bcd0281526020600482015260126024820152600160701b7175736572206e6f7420696e2073797374656d02604482015290519081900360640190fd5b60008181526020818152604091829020600581015460078201548254855160026001831615610100026000190190921691909104601f810186900486028201860190965285815286959394600486019460068701939291879190830182828015611a6f5780601f10611a4457610100808354040283529160200191611a6f565b820191906000526020600020905b815481529060010190602001808311611a5257829003601f168201915b5050875460408051602060026001851615610100026000190190941693909304601f8101849004840282018401909252818152959a5089945092508401905082828015611afd5780601f10611ad257610100808354040283529160200191611afd565b820191906000526020600020905b815481529060010190602001808311611ae057829003601f168201915b5050855460408051602060026001851615610100026000190190941693909304601f810184900484028201840190925281815295995087945092508401905082828015611b8b5780601f10611b6057610100808354040283529160200191611b8b565b820191906000526020600020905b815481529060010190602001808311611b6e57829003601f168201915b505050505091509650965096509650965096505091939550919395565b600080856040516020018082805190602001908083835b60208310611bde5780518252601f199092019160209182019101611bbf565b6001836020036101000a03801982511681845116808217855250505050505090500191505060405160208183030381529060405280519060200120905060006040516020018080600160f81b6061028152506001019050604051602081830303815290604052805190602001209050611c5682613079565b151560011415611cb05760408051600160e51b62461bcd02815260206004820152601660248201527f7573657220616c6c7265647920696e2073797374656d00000000000000000000604482015290519081900360640190fd5b6000828152602081815260409091208851611ccd928a0190613285565b50600082815260208190526040902060018101839055600201819055611cf2826130cd565b60008381526020818152604090912060038101929092558751611d1b9260040191890190613285565b50600082815260208181526040909120600581018690558651611d4692600690920191880190613285565b5060008281526020819052604090206001600790910155611d6a8288888789613153565b50600180805490500360008084815260200190815260200160002060080181905550817ff1fe1914994a1125a37c6724a34ee0fc65c4130450ae0d815771142e6aedab51600080858152602001908152602001600020600801548960008087815260200190815260200160002060020154600080888152602001908152602001600020600301548b8a8c6000808c8152602001908152602001600020600701546040518089815260200180602001888152602001878152602001806020018681526020018060200185815260200184810384528b818151815260200191508051906020019080838360005b83811015611e6d578181015183820152602001611e55565b50505050905090810190601f168015611e9a5780820380516001836020036101000a031916815260200191505b5084810383528851815288516020918201918a019080838360005b83811015611ecd578181015183820152602001611eb5565b50505050905090810190601f168015611efa5780820380516001836020036101000a031916815260200191505b50848103825286518152865160209182019188019080838360005b83811015611f2d578181015183820152602001611f15565b50505050905090810190601f168015611f5a5780820380516001836020036101000a031916815260200191505b509b50505050505050505050505060405180910390a25060019695505050505050565b600080836040516020018082805190602001908083835b60208310611fb35780518252601f199092019160209182019101611f94565b6001836020036101000a038019825116818451168082178552505050505050905001915050604051602081830303815290604052805190602001209050611ff981613079565b151560011461204a5760408051600160e51b62461bcd0281526020600482015260126024820152600160701b7175736572206e6f7420696e2073797374656d02604482015290519081900360640190fd5b600081815260208181526040909120845161206d92600490920191860190613285565b5060008181526020819052604090206008015460018054859290811061208f57fe5b906000526020600020906006020160020190805190602001906120b3929190613285565b50806000805160206133bf8339815191526000808481526020019081526020016000206008015486600080868152602001908152602001600020600201546000808781526020019081526020016000206003015488600080898152602001908152602001600020600501546000808a81526020019081526020016000206006016000808b8152602001908152602001600020600701546040518089815260200180602001888152602001878152602001806020018681526020018060200185815260200184810384528b818151815260200191508051906020019080838360005b838110156121ac578181015183820152602001612194565b50505050905090810190601f1680156121d95780820380516001836020036101000a031916815260200191505b5084810383528851815288516020918201918a019080838360005b8381101561220c5781810151838201526020016121f4565b50505050905090810190601f1680156122395780820380516001836020036101000a031916815260200191505b508481038252865460026000196101006001841615020190911604808252602090910190879080156122ac5780601f10612281576101008083540402835291602001916122ac565b820191906000526020600020905b81548152906001019060200180831161228f57829003601f168201915b50509b50505050505050505050505060405180910390a25060019392505050565b6000606080600060606000600187815481106122e557fe5b9060005260206000209060060201600001546001888154811061230457fe5b90600052602060002090600602016001016001898154811061232257fe5b906000526020600020906006020160020160018a8154811061234057fe5b90600052602060002090600602016003015460018b8154811061235f57fe5b906000526020600020906006020160040160018c8154811061237d57fe5b600091825260209182902060056006909202010154855460408051601f6002600019610100600187161502019094169390930492830185900485028101850190915281815291928791908301828280156124185780601f106123ed57610100808354040283529160200191612418565b820191906000526020600020905b8154815290600101906020018083116123fb57829003601f168201915b5050875460408051602060026001851615610100026000190190941693909304601f8101849004840282018401909252818152959a50899450925084019050828280156124a65780601f1061247b576101008083540402835291602001916124a6565b820191906000526020600020905b81548152906001019060200180831161248957829003601f168201915b5050855460408051602060026001851615610100026000190190941693909304601f8101849004840282018401909252818152959950879450925084019050828280156125345780601f1061250957610100808354040283529160200191612534565b820191906000526020600020905b81548152906001019060200180831161251757829003601f168201915b5050505050915095509550955095509550955091939550919395565b60009081526020819052604090206002015490565b6000602081815291815260409081902080548251601f6002600019610100600186161502019093169290920491820185900485028101850190935280835290928391908301828280156125f95780601f106125ce576101008083540402835291602001916125f9565b820191906000526020600020905b8154815290600101906020018083116125dc57829003601f168201915b505050505090806001015490806002015490806003015490806004018054600181600116156101000203166002900480601f0160208091040260200160405190810160405280929190818152602001828054600181600116156101000203166002900480156126a95780601f1061267e576101008083540402835291602001916126a9565b820191906000526020600020905b81548152906001019060200180831161268c57829003601f168201915b50505050600583015460068401805460408051602060026001851615610100026000190190941693909304601f810184900484028201840190925281815295969395939450908301828280156127405780601f1061271557610100808354040283529160200191612740565b820191906000526020600020905b81548152906001019060200180831161272357829003601f168201915b5050505050908060070154908060080154905089565b600080836040516020018082805190602001908083835b6020831061278c5780518252601f19909201916020918201910161276d565b51815160209384036101000a60001901801990921691161790526040805192909401828103601f190183528452815191810191909120600081815291829052929020600781018890556008015460018054939650889550935091821090506127f057fe5b60009182526020909120600560069092020101555060019392505050565b600080836040516020018082805190602001908083835b602083106128445780518252601f199092019160209182019101612825565b6001836020036101000a03801982511681845116808217855250505050505090500191505060405160208183030381529060405280519060200120905061288a81613079565b15156001146128db5760408051600160e51b62461bcd0281526020600482015260126024820152600160701b7175736572206e6f7420696e2073797374656d02604482015290519081900360640190fd5b60008181526020818152604090912084516128fe92600690920191860190613285565b5060008181526020819052604090206008015460018054859290811061292057fe5b90600052602060002090600602016004019080519060200190612944929190613285565b50806000805160206133bf83398151915260008084815260200190815260200160002060080154866000808681526020019081526020016000206002015460008087815260200190815260200160002060030154600080888152602001908152602001600020600401600080898152602001908152602001600020600501548a6000808b8152602001908152602001600020600701546040518089815260200180602001888152602001878152602001806020018681526020018060200185815260200184810384528b818151815260200191508051906020019080838360005b83811015612a3d578181015183820152602001612a25565b50505050905090810190601f168015612a6a5780820380516001836020036101000a031916815260200191505b50848103835288546002600019610100600184161502019091160480825260209091019089908015612add5780601f10612ab257610100808354040283529160200191612add565b820191906000526020600020905b815481529060010190602001808311612ac057829003601f168201915b5050848103825286518152865160209182019188019080838360005b83811015612b11578181015183820152602001612af9565b50505050905090810190601f168015612b3e5780820380516001836020036101000a031916815260200191505b509b50505050505050505050505060405180910390a25060019392505050565b600080836040516020018082805190602001908083835b60208310612b945780518252601f199092019160209182019101612b75565b6001836020036101000a038019825116818451168082178552505050505050905001915050604051602081830303815290604052805190602001209050612bda81613079565b1515600114612c2b5760408051600160e51b62461bcd0281526020600482015260126024820152600160701b7175736572206e6f7420696e2073797374656d02604482015290519081900360640190fd5b60008181526020819052604090206005810184905560080154600180548592908110612c5357fe5b906000526020600020906006020160030181905550806000805160206133bf83398151915260008084815260200190815260200160002060080154866000808681526020019081526020016000206002015460008087815260200190815260200160002060030154600080888152602001908152602001600020600401896000808a81526020019081526020016000206006016000808b8152602001908152602001600020600701546040518089815260200180602001888152602001878152602001806020018681526020018060200185815260200184810384528b818151815260200191508051906020019080838360005b83811015612d5f578181015183820152602001612d47565b50505050905090810190601f168015612d8c5780820380516001836020036101000a031916815260200191505b50848103835288546002600019610100600184161502019091160480825260209091019089908015612dff5780601f10612dd457610100808354040283529160200191612dff565b820191906000526020600020905b815481529060010190602001808311612de257829003601f168201915b50508481038252865460026000196101006001841615020190911604808252602090910190879080156122ac5780601f10612281576101008083540402835291602001916122ac565b60606000815b600254821015612f29578360028381548110612e6657fe5b9060005260206000209060020201600001541415612f1e57600280546000198101908110612e9057fe5b90600052602060002090600202016000015460028381548110612eaf57fe5b600091825260209091206002918202019190915580546000198101908110612ed357fe5b90600052602060002090600202016001015460028381548110612ef257fe5b9060005260206000209060020201600101819055506002805480919060019003612f1c9190613303565b505b600190910190612e4e565b6000848152602081905260409020600460078201819055600890910154600180549091908110612f5557fe5b90600052602060002090600602016005018190555060016000808681526020019081526020016000206008015481548110612f8c57fe5b600091825260209182902060026006909202018101805460408051601f6000196101006001861615020190931694909404918201859004850284018501905280835291929091908301828280156130245780601f10612ff957610100808354040283529160200191613024565b820191906000526020600020905b81548152906001019060200180831161300757829003601f168201915b50505060008781526020818152604091829020600801548251908152915194955088947fa9182ea46bf769f0b5f2c986c9a06c228fb686381c72137c62b04826d1b38d86945091829003019150a29392505050565b60015460009061308b57506000611044565b6000828152602081905260409020600801546001805484929081106130ac57fe5b906000526020600020906006020160000154149050919050565b6001545b90565b6000806130d8613259565b90506130e2613334565b83815260208101828152600280546001810182556000829052925192027f405787fa12a823e0f2b7631cc41b3ba8828b3321ca811111fa75cd3aa3bb5ace810192909255517f405787fa12a823e0f2b7631cc41b3ba8828b3321ca811111fa75cd3aa3bb5acf909101559050919050565b600061315d61334b565b8681526020808201878152604083018790526060830186905260808301859052600160a084018190528054808201808355600092909252845160069091027fb10e2d527612073b26eecdfd717e6a320cf44b4afac2b0732d9fcbe2b7fa0cf68101918255925180519294869492936131fb937fb10e2d527612073b26eecdfd717e6a320cf44b4afac2b0732d9fcbe2b7fa0cf7019290910190613285565b5060408201518051613217916002840191602090910190613285565b50606082015160038201556080820151805161323d916004840191602090910190613285565b5060a08201518160050155505050600191505095945050505050565b604080514260208083019190915244828401528251808303840181526060909201909252805191012090565b828054600181600116156101000203166002900490600052602060002090601f016020900481019282601f106132c657805160ff19168380011785556132f3565b828001600101855582156132f3579182015b828111156132f35782518255916020019190600101906132d8565b506132ff929150613384565b5090565b81548183558181111561332f5760020281600202836000526020600020918201910161332f919061339e565b505050565b604080518082019091526000808252602082015290565b6040518060c001604052806000801916815260200160608152602001606081526020016000815260200160608152602001600081525090565b6130ca91905b808211156132ff576000815560010161338a565b6130ca91905b808211156132ff57600080825560018201556002016133a456fe03751f335fdcedf5eb1e0283fc6b217d9defab43d4d6158b3b52fc9935338c96a165627a7a723058205b491d796d5b03d5f7ce3bb062e225cd56643bcf719814ab4e57cb78609811190029",
  "source": "pragma solidity >=0.4.21 <0.6.0;\r\n\r\ncontract DistributorContract {\r\n    \r\n    struct Distributor{\r\n        string email;\r\n        bytes32 emailCode;\r\n        bytes32 passwordCode;\r\n        bytes32 passwordRestToken;\r\n        string name;\r\n        uint contactNumber;\r\n        string userAddress;\r\n        uint userAccess;\r\n        uint index;\r\n    }\r\n\r\n    struct DisplayDistributor{\r\n        bytes32 emailCode;\r\n        string email;\r\n        string name;\r\n        uint contactNumber;\r\n        string userAddress;\r\n        uint userAccess;\r\n    }\r\n    \r\n    event LogNewDistributor(\r\n        bytes32 indexed emailCode,\r\n        uint index,string email,\r\n        bytes32 passwordCode,\r\n        bytes32 passwordRestToken,\r\n        string name,\r\n        uint contactNumber,\r\n        string userAddress,\r\n        uint userAccess\r\n        );\r\n    event LogUpdateDistributor(\r\n        bytes32 indexed emailCode,\r\n        uint index,string email,\r\n        bytes32 passwordCode,\r\n        bytes32 passwordRestToken,\r\n        string name,\r\n        uint contactNumber,\r\n        string userAddress,\r\n        uint userAccess\r\n        );\r\n    event LogDeleteDistributor(\r\n        bytes32 indexed emailcode,\r\n        uint index\r\n        );\r\n        \r\n    struct RegistationToken{\r\n        bytes32 emailCode;\r\n        bytes32 token;\r\n    }\r\n        \r\n    mapping(bytes32 => Distributor) public distributorArray;\r\n    DisplayDistributor[] private distributorIndex;\r\n    RegistationToken[] private distributorRegistationToken;\r\n    \r\n    function isDistributor(bytes32 _emailCode)public view returns(bool isIndeed) {\r\n        if(distributorIndex.length == 0) return false;\r\n        return (distributorIndex[distributorArray[_emailCode].index].emailCode == _emailCode);\r\n    }\r\n    function createDistributorToken(bytes32 _emailCode)private returns(bytes32){\r\n        bytes32 token = randomtoken();\r\n        RegistationToken memory registationToken;\r\n        registationToken.emailCode = _emailCode;\r\n        registationToken.token = token;\r\n        distributorRegistationToken.push(registationToken);\r\n        return token;\r\n    }\r\n    function randomtoken() private view returns (bytes32) {\r\n       return keccak256(abi.encodePacked( block.timestamp, block.difficulty));\r\n    }\r\n    function setDisplayDistributor(bytes32 _emailCode,string memory _email,string memory _name,uint _telephone,string memory _address)\r\n     private returns(bool){\r\n\r\n        DisplayDistributor memory displayDistributor;\r\n        displayDistributor.emailCode = _emailCode;\r\n        displayDistributor.email = _email;\r\n        displayDistributor.name = _name;\r\n        displayDistributor.contactNumber = _telephone;\r\n        displayDistributor.userAddress = _address;\r\n        displayDistributor.userAccess = 1;\r\n        distributorIndex.push(displayDistributor);\r\n        return true;\r\n\r\n    }\r\n    function insertDistributor(string memory _email,string memory _name,string memory _address,uint _telephone) public returns(bool){\r\n        bytes32 _emailCode = keccak256(abi.encodePacked((_email)));\r\n        bytes32 _passwordCode = keccak256(abi.encodePacked((\"a\")));\r\n        require(isDistributor(_emailCode) != true,'user allredy in system');\r\n\r\n        distributorArray[_emailCode].email = _email;\r\n        distributorArray[_emailCode].emailCode = _emailCode;\r\n        distributorArray[_emailCode].passwordCode = _passwordCode;\r\n        distributorArray[_emailCode].passwordRestToken = createDistributorToken(_emailCode);\r\n        distributorArray[_emailCode].name = _name;\r\n        distributorArray[_emailCode].contactNumber = _telephone;\r\n        distributorArray[_emailCode].userAddress = _address;\r\n        distributorArray[_emailCode].userAccess = 1;\r\n        setDisplayDistributor(_emailCode,_email,_name,_telephone,_address);\r\n        distributorArray[_emailCode].index = distributorIndex.length-1;\r\n\r\n        emit LogNewDistributor (\r\n            _emailCode,\r\n            distributorArray[_emailCode].index,\r\n            _email,\r\n            distributorArray[_emailCode].passwordCode,\r\n            distributorArray[_emailCode].passwordRestToken,\r\n            _name,\r\n            _telephone,\r\n            _address,\r\n            distributorArray[_emailCode].userAccess\r\n            );\r\n        return true;\r\n    }\r\n    function deleteDistributor (bytes32 email) public returns(string memory){\r\n        uint i;\r\n        string memory name;\r\n        for( i = 0; i < distributorRegistationToken.length; i++) {\r\n            if(distributorRegistationToken[i].emailCode == email){\r\n                distributorRegistationToken[i].emailCode = distributorRegistationToken[distributorRegistationToken.length-1].emailCode;\r\n                distributorRegistationToken[i].token = distributorRegistationToken[distributorRegistationToken.length-1].token;\r\n                distributorRegistationToken.length--;\r\n            }\r\n        }\r\n        distributorArray[email].userAccess = 4;\r\n        distributorIndex[distributorArray[email].index].userAccess = 4;\r\n        name = distributorIndex[distributorArray[email].index].name;\r\n        emit LogDeleteDistributor(\r\n            email,\r\n            distributorArray[email].index\r\n        );\r\n        return name;\r\n    }\r\n    function blockDistributor(bytes32 email) public returns(string memory)\r\n    {\r\n        string memory name;\r\n        if(distributorArray[email].userAccess == 5){\r\n        distributorArray[email].userAccess = 3;\r\n        distributorIndex[distributorArray[email].index].userAccess = 3;\r\n        name = distributorIndex[distributorArray[email].index].name;\r\n        }\r\n        if(distributorArray[email].userAccess == 3){\r\n        distributorArray[email].userAccess = 5;\r\n        distributorIndex[distributorArray[email].index].userAccess = 5;\r\n        name = distributorIndex[distributorArray[email].index].name;\r\n        }\r\n        return name;\r\n    }\r\n    function editUserAccess(string memory _email,uint usreAccess)public returns(bool){\r\n        bytes32 email = keccak256(abi.encodePacked((_email)));\r\n        distributorArray[email].userAccess = usreAccess;\r\n        distributorIndex[distributorArray[email].index].userAccess = usreAccess;\r\n        return true;\r\n\r\n    }\r\n    function getDistributor(string memory _email) public view returns(bytes32,string memory email,string memory name,\r\n    uint contactNumber,string memory userAddress, uint userAccess){\r\n        bytes32 _emailCode = keccak256(abi.encodePacked((_email)));\r\n        require(isDistributor(_emailCode) == true,'user not in system');\r\n        return(\r\n            _emailCode,\r\n            distributorArray[_emailCode].email,\r\n            distributorArray[_emailCode].name,\r\n            distributorArray[_emailCode].contactNumber,\r\n            distributorArray[_emailCode].userAddress,\r\n            distributorArray[_emailCode].userAccess\r\n            );\r\n    }\r\n    function getDistributori(uint i) public view returns(\r\n        bytes32,\r\n        string memory,\r\n        string memory,\r\n        uint,\r\n        string memory,\r\n        uint\r\n        ){\r\n            return (\r\n                distributorIndex[i].emailCode,\r\n                distributorIndex[i].email,\r\n                distributorIndex[i].name,\r\n                distributorIndex[i].contactNumber,\r\n                distributorIndex[i].userAddress,\r\n                distributorIndex[i].userAccess\r\n                );\r\n    }\r\n    function getDistributorCount() public view returns(uint)\r\n    {\r\n        return distributorIndex.length;\r\n    }\r\n    \r\n    // function updateUserEmail(address userAddress, bytes32 userEmail) public returns(bool success)\r\n    // {\r\n    //     userStructs[userAddress].userEmail = userEmail;\r\n    //     emit LogUpdateUser(userAddress,  userStructs[userAddress].index, userEmail, userStructs[userAddress].userAge);\r\n    //     return true;\r\n    // }\r\n    function updateDistributorName (string memory _email,string memory _name) public returns(bool success){\r\n        bytes32 _emailCode = keccak256(abi.encodePacked((_email)));\r\n        require(isDistributor(_emailCode) == true,'user not in system');\r\n        distributorArray[_emailCode].name = _name;\r\n        distributorIndex[distributorArray[_emailCode].index].name = _name;\r\n        emit LogUpdateDistributor(\r\n            _emailCode,\r\n            distributorArray[_emailCode].index,\r\n            _email,\r\n            distributorArray[_emailCode].passwordCode,\r\n            distributorArray[_emailCode].passwordRestToken,\r\n            _name,\r\n            distributorArray[_emailCode].contactNumber,\r\n            distributorArray[_emailCode].userAddress,\r\n            distributorArray[_emailCode].userAccess\r\n            );\r\n        return true;\r\n    }\r\n    function updateDistributorAddress (string memory _email,string memory _userAddress) public returns(bool success){\r\n        bytes32 _emailCode = keccak256(abi.encodePacked((_email)));\r\n        require(isDistributor(_emailCode) == true,'user not in system');\r\n        distributorArray[_emailCode].userAddress = _userAddress;\r\n        distributorIndex[distributorArray[_emailCode].index].userAddress = _userAddress;\r\n        emit LogUpdateDistributor(\r\n            _emailCode,\r\n            distributorArray[_emailCode].index,\r\n            _email,\r\n            distributorArray[_emailCode].passwordCode,\r\n            distributorArray[_emailCode].passwordRestToken,\r\n            distributorArray[_emailCode].name,\r\n            distributorArray[_emailCode].contactNumber,\r\n            _userAddress,\r\n            distributorArray[_emailCode].userAccess\r\n            );\r\n        return true;\r\n    }\r\n    function updateDistributorContactNumber (string memory _email,uint _contactNumber) public returns(bool success){\r\n        bytes32 _emailCode = keccak256(abi.encodePacked((_email)));\r\n        require(isDistributor(_emailCode) == true,'user not in system');\r\n        distributorArray[_emailCode].contactNumber = _contactNumber;\r\n        distributorIndex[distributorArray[_emailCode].index].contactNumber = _contactNumber;\r\n        emit LogUpdateDistributor(\r\n            _emailCode,\r\n            distributorArray[_emailCode].index,\r\n            _email,\r\n            distributorArray[_emailCode].passwordCode,\r\n            distributorArray[_emailCode].passwordRestToken,\r\n            distributorArray[_emailCode].name,\r\n            _contactNumber,\r\n            distributorArray[_emailCode].userAddress,\r\n            distributorArray[_emailCode].userAccess\r\n            );\r\n        return true;\r\n    }\r\n    function updateDistributor(\r\n        string memory _email,\r\n        uint[] memory index,\r\n        string memory _name,\r\n        string memory _userAddress,\r\n        uint _contactNumber\r\n        ) public returns(bool success){\r\n        bytes32 _emailCode = keccak256(abi.encodePacked((_email)));\r\n        require(isDistributor(_emailCode) == true,'user not in system');\r\n        uint i;\r\n        uint num = distributorArray[_emailCode].index;\r\n\r\n        for (i = 0;i<index.length;i++){\r\n            if(index[i]==1){\r\n                distributorArray[_emailCode].name = _name;\r\n                distributorIndex[num].name = _name;\r\n                emit LogUpdateDistributor(\r\n                    _emailCode,\r\n                    distributorArray[_emailCode].index,\r\n                    _email,distributorArray[_emailCode].passwordCode,\r\n                    distributorArray[_emailCode].passwordRestToken,\r\n                    _name,\r\n                    distributorArray[_emailCode].contactNumber,\r\n                    distributorArray[_emailCode].userAddress,\r\n                    distributorArray[_emailCode].userAccess\r\n                    );\r\n\r\n            }\r\n            else if(index[i]==2){\r\n                distributorArray[_emailCode].userAddress = _userAddress;\r\n\r\n                distributorIndex[num].userAddress = _userAddress;\r\n\r\n                emit LogUpdateDistributor(\r\n                    _emailCode,\r\n                    distributorArray[_emailCode].index,\r\n                    _email,\r\n                    distributorArray[_emailCode].passwordCode,\r\n                    distributorArray[_emailCode].passwordRestToken,\r\n                    distributorArray[_emailCode].name,\r\n                    distributorArray[_emailCode].contactNumber,\r\n                    _userAddress,\r\n                    distributorArray[_emailCode].userAccess\r\n                    );\r\n\r\n            }\r\n            else if(index[i]==3){\r\n                distributorArray[_emailCode].contactNumber = _contactNumber;\r\n                distributorIndex[num].contactNumber = _contactNumber;\r\n                emit LogUpdateDistributor(\r\n                    _emailCode,\r\n                    distributorArray[_emailCode].index,\r\n                    _email,\r\n                    distributorArray[_emailCode].passwordCode,\r\n                    distributorArray[_emailCode].passwordRestToken,\r\n                    distributorArray[_emailCode].name,\r\n                    _contactNumber,\r\n                    distributorArray[_emailCode].userAddress,\r\n                    distributorArray[_emailCode].userAccess\r\n                    );\r\n\r\n            }\r\n        }\r\n        return true;\r\n    }\r\n    ///////\r\n    function updateDistributoriEmail (string memory _email) public returns(bool success)\r\n    {\r\n       // return true;\r\n    }\r\n    function checkDistributorUserAccess(bytes32 email)public view returns(uint userAccess){\r\n        \r\n        return distributorArray[email].userAccess;\r\n    }\r\n    function checkDistributorPasswordCode(bytes32 email) public view returns(bytes32 passwordCode ){\r\n        return distributorArray[email].passwordCode;\r\n    }\r\n}",
  "sourcePath": "C:\\project\\tea supply chain mangement system\\test2\\contracts\\Distributor.sol",
  "compiler": {
    "name": "solc",
    "version": "0.5.8+commit.23d335f2.Emscripten.clang"
  },
  "schemaVersion": "3.0.16",
  "updatedAt": "2019-11-29T00:00:45.293Z",
  "devdoc": {
    "methods": {}
  },
  "userdoc": {
    "methods": {
      "updateDistributoriEmail(string)": {
        "notice": "////"
      }
    }
  }
}