{
  "contractName": "EstateContract",
  "abi": [
    {
      "constant": true,
      "inputs": [
        {
          "name": "",
          "type": "bytes32"
        }
      ],
      "name": "EstateArray",
      "outputs": [
        {
          "name": "estateName",
          "type": "string"
        },
        {
          "name": "estateNameCode",
          "type": "bytes32"
        },
        {
          "name": "estateAddress",
          "type": "string"
        },
        {
          "name": "ownerName",
          "type": "string"
        },
        {
          "name": "contactnumberAndEmail",
          "type": "string"
        },
        {
          "name": "estateAccess",
          "type": "uint256"
        },
        {
          "name": "index",
          "type": "uint256"
        },
        {
          "name": "rate",
          "type": "uint256"
        },
        {
          "name": "unit",
          "type": "uint256"
        }
      ],
      "payable": false,
      "stateMutability": "view",
      "type": "function"
    },
    {
      "anonymous": false,
      "inputs": [
        {
          "indexed": true,
          "name": "estateNameCode",
          "type": "bytes32"
        },
        {
          "indexed": false,
          "name": "index",
          "type": "uint256"
        },
        {
          "indexed": false,
          "name": "estateName",
          "type": "string"
        },
        {
          "indexed": false,
          "name": "estateAddress",
          "type": "string"
        },
        {
          "indexed": false,
          "name": "ownerName",
          "type": "string"
        },
        {
          "indexed": false,
          "name": "contactnumberAndEmail",
          "type": "string"
        },
        {
          "indexed": false,
          "name": "estateAccess",
          "type": "uint256"
        },
        {
          "indexed": false,
          "name": "rate",
          "type": "uint256"
        },
        {
          "indexed": false,
          "name": "unit",
          "type": "uint256"
        }
      ],
      "name": "LogNewEstate",
      "type": "event"
    },
    {
      "anonymous": false,
      "inputs": [
        {
          "indexed": true,
          "name": "estateNameCode",
          "type": "bytes32"
        },
        {
          "indexed": false,
          "name": "index",
          "type": "uint256"
        },
        {
          "indexed": false,
          "name": "estateName",
          "type": "string"
        },
        {
          "indexed": false,
          "name": "estateAddress",
          "type": "string"
        },
        {
          "indexed": false,
          "name": "ownerName",
          "type": "string"
        },
        {
          "indexed": false,
          "name": "contactnumberAndEmail",
          "type": "string"
        },
        {
          "indexed": false,
          "name": "estateAccess",
          "type": "uint256"
        },
        {
          "indexed": false,
          "name": "rate",
          "type": "uint256"
        },
        {
          "indexed": false,
          "name": "unit",
          "type": "uint256"
        }
      ],
      "name": "LogUpdateEstate",
      "type": "event"
    },
    {
      "anonymous": false,
      "inputs": [
        {
          "indexed": true,
          "name": "estateNamecode",
          "type": "bytes32"
        },
        {
          "indexed": false,
          "name": "index",
          "type": "uint256"
        }
      ],
      "name": "LogDeleteEstate",
      "type": "event"
    },
    {
      "constant": true,
      "inputs": [
        {
          "name": "_estateNameCode",
          "type": "bytes32"
        }
      ],
      "name": "isEstate",
      "outputs": [
        {
          "name": "isIndeed",
          "type": "bool"
        }
      ],
      "payable": false,
      "stateMutability": "view",
      "type": "function"
    },
    {
      "constant": false,
      "inputs": [
        {
          "name": "_estateName",
          "type": "string"
        },
        {
          "name": "_estateAddress",
          "type": "string"
        },
        {
          "name": "_ownerName",
          "type": "string"
        },
        {
          "name": "_contactnumberAndEmail",
          "type": "string"
        }
      ],
      "name": "insertEstate",
      "outputs": [
        {
          "name": "",
          "type": "bool"
        }
      ],
      "payable": false,
      "stateMutability": "nonpayable",
      "type": "function"
    },
    {
      "constant": false,
      "inputs": [
        {
          "name": "_estateNameCode",
          "type": "bytes32"
        }
      ],
      "name": "deleteEstate",
      "outputs": [
        {
          "name": "",
          "type": "string"
        }
      ],
      "payable": false,
      "stateMutability": "nonpayable",
      "type": "function"
    },
    {
      "constant": true,
      "inputs": [
        {
          "name": "_estateName",
          "type": "string"
        }
      ],
      "name": "getEstate",
      "outputs": [
        {
          "name": "",
          "type": "bytes32"
        },
        {
          "name": "estateName",
          "type": "string"
        },
        {
          "name": "ownerName",
          "type": "string"
        },
        {
          "name": "contactnumberAndEmail",
          "type": "string"
        },
        {
          "name": "estateAddress",
          "type": "string"
        },
        {
          "name": "estateAccess",
          "type": "uint256"
        },
        {
          "name": "rate",
          "type": "uint256"
        }
      ],
      "payable": false,
      "stateMutability": "view",
      "type": "function"
    },
    {
      "constant": true,
      "inputs": [
        {
          "name": "i",
          "type": "uint256"
        }
      ],
      "name": "getEstatei",
      "outputs": [
        {
          "name": "",
          "type": "bytes32"
        },
        {
          "name": "",
          "type": "string"
        },
        {
          "name": "",
          "type": "string"
        },
        {
          "name": "",
          "type": "string"
        },
        {
          "name": "",
          "type": "string"
        },
        {
          "name": "",
          "type": "uint256"
        },
        {
          "name": "",
          "type": "uint256"
        }
      ],
      "payable": false,
      "stateMutability": "view",
      "type": "function"
    },
    {
      "constant": true,
      "inputs": [],
      "name": "getEstateCount",
      "outputs": [
        {
          "name": "",
          "type": "uint256"
        }
      ],
      "payable": false,
      "stateMutability": "view",
      "type": "function"
    },
    {
      "constant": false,
      "inputs": [
        {
          "name": "_estateName",
          "type": "string"
        },
        {
          "name": "_estateAddress",
          "type": "string"
        }
      ],
      "name": "updateEstateEstateAddress",
      "outputs": [
        {
          "name": "success",
          "type": "bool"
        }
      ],
      "payable": false,
      "stateMutability": "nonpayable",
      "type": "function"
    },
    {
      "constant": false,
      "inputs": [
        {
          "name": "_estateName",
          "type": "string"
        },
        {
          "name": "_ownerName",
          "type": "string"
        }
      ],
      "name": "updateEstateOwnerName",
      "outputs": [
        {
          "name": "success",
          "type": "bool"
        }
      ],
      "payable": false,
      "stateMutability": "nonpayable",
      "type": "function"
    },
    {
      "constant": false,
      "inputs": [
        {
          "name": "_estateName",
          "type": "string"
        },
        {
          "name": "_contactnumberAndEmail",
          "type": "string"
        }
      ],
      "name": "updateContactnumberAndEmail",
      "outputs": [
        {
          "name": "success",
          "type": "bool"
        }
      ],
      "payable": false,
      "stateMutability": "nonpayable",
      "type": "function"
    },
    {
      "constant": false,
      "inputs": [
        {
          "name": "_estateName",
          "type": "string"
        },
        {
          "name": "index",
          "type": "uint256[]"
        },
        {
          "name": "_estateAddress",
          "type": "string"
        },
        {
          "name": "_ownerName",
          "type": "string"
        },
        {
          "name": "_contactnumberAndEmail",
          "type": "string"
        }
      ],
      "name": "updateEstate",
      "outputs": [
        {
          "name": "success",
          "type": "bool"
        }
      ],
      "payable": false,
      "stateMutability": "nonpayable",
      "type": "function"
    },
    {
      "constant": false,
      "inputs": [
        {
          "name": "_estateName",
          "type": "string"
        },
        {
          "name": "estateAccess",
          "type": "uint256"
        }
      ],
      "name": "editUserAccess",
      "outputs": [
        {
          "name": "",
          "type": "bool"
        }
      ],
      "payable": false,
      "stateMutability": "nonpayable",
      "type": "function"
    },
    {
      "constant": false,
      "inputs": [
        {
          "name": "_estateName",
          "type": "string"
        }
      ],
      "name": "updateEstateiestateName",
      "outputs": [
        {
          "name": "success",
          "type": "bool"
        }
      ],
      "payable": false,
      "stateMutability": "nonpayable",
      "type": "function"
    },
    {
      "constant": false,
      "inputs": [
        {
          "name": "_estateName",
          "type": "string"
        },
        {
          "name": "_rate",
          "type": "uint256"
        }
      ],
      "name": "rateEstate",
      "outputs": [
        {
          "name": "success",
          "type": "bool"
        }
      ],
      "payable": false,
      "stateMutability": "nonpayable",
      "type": "function"
    }
  ],
  "bytecode": "0x608060405234801561001057600080fd5b50613a96806100206000396000f3fe608060405234801561001057600080fd5b50600436106100ea5760003560e01c806361eca6631161008c5780637cd650ba116100665780637cd650ba14610f08578063c199013b14610f25578063dadfd17314610fc9578063fb5c6c621461106f576100ea565b806361eca66314610b065780636609b7cc14610d395780636afd156714610ddf576100ea565b80633006c0f0116100c85780633006c0f01461049a5780633589e4cb1461074f5780634276a4fa146108785780634c79e03d14610a62576100ea565b806309a7540a146100ef5780632107b6fc146102cb57806323ec487d14610408575b600080fd5b61010c6004803603602081101561010557600080fd5b5035611089565b604051808881526020018060200180602001806020018060200187815260200186815260200185810385528b818151815260200191508051906020019080838360005b8381101561016757818101518382015260200161014f565b50505050905090810190601f1680156101945780820380516001836020036101000a031916815260200191505b5085810384528a5181528a516020918201918c019080838360005b838110156101c75781810151838201526020016101af565b50505050905090810190601f1680156101f45780820380516001836020036101000a031916815260200191505b5085810383528951815289516020918201918b019080838360005b8381101561022757818101518382015260200161020f565b50505050905090810190601f1680156102545780820380516001836020036101000a031916815260200191505b5085810382528851815288516020918201918a019080838360005b8381101561028757818101518382015260200161026f565b50505050905090810190601f1680156102b45780820380516001836020036101000a031916815260200191505b509b50505050505050505050505060405180910390f35b6103f4600480360360408110156102e157600080fd5b810190602081018135600160201b8111156102fb57600080fd5b82018360208201111561030d57600080fd5b803590602001918460018302840111600160201b8311171561032e57600080fd5b91908080601f0160208091040260200160405190810160405280939291908181526020018383808284376000920191909152509295949360208101935035915050600160201b81111561038057600080fd5b82018360208201111561039257600080fd5b803590602001918460018302840111600160201b831117156103b357600080fd5b91908080601f0160208091040260200160405190810160405280939291908181526020018383808284376000920191909152509295506113bc945050505050565b604080519115158252519081900360200190f35b6104256004803603602081101561041e57600080fd5b5035611774565b6040805160208082528351818301528351919283929083019185019080838360005b8381101561045f578181015183820152602001610447565b50505050905090810190601f16801561048c5780820380516001836020036101000a031916815260200191505b509250505060405180910390f35b6103f4600480360360a08110156104b057600080fd5b810190602081018135600160201b8111156104ca57600080fd5b8201836020820111156104dc57600080fd5b803590602001918460018302840111600160201b831117156104fd57600080fd5b91908080601f0160208091040260200160405190810160405280939291908181526020018383808284376000920191909152509295949360208101935035915050600160201b81111561054f57600080fd5b82018360208201111561056157600080fd5b803590602001918460208302840111600160201b8311171561058257600080fd5b9190808060200260200160405190810160405280939291908181526020018383602002808284376000920191909152509295949360208101935035915050600160201b8111156105d157600080fd5b8201836020820111156105e357600080fd5b803590602001918460018302840111600160201b8311171561060457600080fd5b91908080601f0160208091040260200160405190810160405280939291908181526020018383808284376000920191909152509295949360208101935035915050600160201b81111561065657600080fd5b82018360208201111561066857600080fd5b803590602001918460018302840111600160201b8311171561068957600080fd5b91908080601f0160208091040260200160405190810160405280939291908181526020018383808284376000920191909152509295949360208101935035915050600160201b8111156106db57600080fd5b8201836020820111156106ed57600080fd5b803590602001918460018302840111600160201b8311171561070e57600080fd5b91908080601f0160208091040260200160405190810160405280939291908181526020018383808284376000920191909152509295506118a2945050505050565b6103f46004803603604081101561076557600080fd5b810190602081018135600160201b81111561077f57600080fd5b82018360208201111561079157600080fd5b803590602001918460018302840111600160201b831117156107b257600080fd5b91908080601f0160208091040260200160405190810160405280939291908181526020018383808284376000920191909152509295949360208101935035915050600160201b81111561080457600080fd5b82018360208201111561081657600080fd5b803590602001918460018302840111600160201b8311171561083757600080fd5b91908080601f01602080910402602001604051908101604052809392919081815260200183838082843760009201919091525092955061223a945050505050565b6108956004803603602081101561088e57600080fd5b50356125f2565b60405180806020018a815260200180602001806020018060200189815260200188815260200187815260200186815260200185810385528e818151815260200191508051906020019080838360005b838110156108fc5781810151838201526020016108e4565b50505050905090810190601f1680156109295780820380516001836020036101000a031916815260200191505b5085810384528c5181528c516020918201918e019080838360005b8381101561095c578181015183820152602001610944565b50505050905090810190601f1680156109895780820380516001836020036101000a031916815260200191505b5085810383528b5181528b516020918201918d019080838360005b838110156109bc5781810151838201526020016109a4565b50505050905090810190601f1680156109e95780820380516001836020036101000a031916815260200191505b5085810382528a5181528a516020918201918c019080838360005b83811015610a1c578181015183820152602001610a04565b50505050905090810190601f168015610a495780820380516001836020036101000a031916815260200191505b509d505050505050505050505050505060405180910390f35b6103f460048036036020811015610a7857600080fd5b810190602081018135600160201b811115610a9257600080fd5b820183602082011115610aa457600080fd5b803590602001918460018302840111600160201b83111715610ac557600080fd5b91908080601f01602080910402602001604051908101604052809392919081815260200183838082843760009201919091525092955061286c945050505050565b6103f460048036036080811015610b1c57600080fd5b810190602081018135600160201b811115610b3657600080fd5b820183602082011115610b4857600080fd5b803590602001918460018302840111600160201b83111715610b6957600080fd5b91908080601f0160208091040260200160405190810160405280939291908181526020018383808284376000920191909152509295949360208101935035915050600160201b811115610bbb57600080fd5b820183602082011115610bcd57600080fd5b803590602001918460018302840111600160201b83111715610bee57600080fd5b91908080601f0160208091040260200160405190810160405280939291908181526020018383808284376000920191909152509295949360208101935035915050600160201b811115610c4057600080fd5b820183602082011115610c5257600080fd5b803590602001918460018302840111600160201b83111715610c7357600080fd5b91908080601f0160208091040260200160405190810160405280939291908181526020018383808284376000920191909152509295949360208101935035915050600160201b811115610cc557600080fd5b820183602082011115610cd757600080fd5b803590602001918460018302840111600160201b83111715610cf857600080fd5b91908080601f016020809104026020016040519081016040528093929190818152602001838380828437600092019190915250929550612872945050505050565b6103f460048036036040811015610d4f57600080fd5b810190602081018135600160201b811115610d6957600080fd5b820183602082011115610d7b57600080fd5b803590602001918460018302840111600160201b83111715610d9c57600080fd5b91908080601f0160208091040260200160405190810160405280939291908181526020018383808284376000920191909152509295505091359250612c76915050565b6103f460048036036040811015610df557600080fd5b810190602081018135600160201b811115610e0f57600080fd5b820183602082011115610e2157600080fd5b803590602001918460018302840111600160201b83111715610e4257600080fd5b91908080601f0160208091040260200160405190810160405280939291908181526020018383808284376000920191909152509295949360208101935035915050600160201b811115610e9457600080fd5b820183602082011115610ea657600080fd5b803590602001918460018302840111600160201b83111715610ec757600080fd5b91908080601f016020809104026020016040519081016040528093929190818152602001838380828437600092019190915250929550612d2e945050505050565b6103f460048036036020811015610f1e57600080fd5b5035613099565b61010c60048036036020811015610f3b57600080fd5b810190602081018135600160201b811115610f5557600080fd5b820183602082011115610f6757600080fd5b803590602001918460018302840111600160201b83111715610f8857600080fd5b91908080601f0160208091040260200160405190810160405280939291908181526020018383808284376000920191909152509295506130e6945050505050565b6103f460048036036040811015610fdf57600080fd5b810190602081018135600160201b811115610ff957600080fd5b82018360208201111561100b57600080fd5b803590602001918460018302840111600160201b8311171561102c57600080fd5b91908080601f016020809104026020016040519081016040528093929190818152602001838380828437600092019190915250929550509135925061342e915050565b61107761380a565b60408051918252519081900360200190f35b6000606080606080600080600188815481106110a157fe5b906000526020600020906008020160000154600189815481106110c057fe5b906000526020600020906008020160010160018a815481106110de57fe5b906000526020600020906008020160020160018b815481106110fc57fe5b906000526020600020906008020160030160018c8154811061111a57fe5b906000526020600020906008020160040160018d8154811061113857fe5b90600052602060002090600802016005015460018e8154811061115757fe5b600091825260209182902060066008909202010154865460408051601f6002600019610100600187161502019094169390930492830185900485028101850190915281815291928891908301828280156111f25780601f106111c7576101008083540402835291602001916111f2565b820191906000526020600020905b8154815290600101906020018083116111d557829003601f168201915b5050885460408051602060026001851615610100026000190190941693909304601f8101849004840282018401909252818152959b508a9450925084019050828280156112805780601f1061125557610100808354040283529160200191611280565b820191906000526020600020905b81548152906001019060200180831161126357829003601f168201915b5050875460408051602060026001851615610100026000190190941693909304601f8101849004840282018401909252818152959a508994509250840190508282801561130e5780601f106112e35761010080835404028352916020019161130e565b820191906000526020600020905b8154815290600101906020018083116112f157829003601f168201915b5050865460408051602060026001851615610100026000190190941693909304601f81018490048402820184019092528181529599508894509250840190508282801561139c5780601f106113715761010080835404028352916020019161139c565b820191906000526020600020905b81548152906001019060200180831161137f57829003601f168201915b505050505092509650965096509650965096509650919395979092949650565b600080836040516020018082805190602001908083835b602083106113f25780518252601f1990920191602091820191016113d3565b6001836020036101000a03801982511681845116808217855250505050505090500191505060405160208183030381529060405280519060200120905061143881613099565b151560011461147f5760408051600160e51b62461bcd0281526020600482015260146024820152600080516020613a2b833981519152604482015290519081900360640190fd5b60008181526020818152604090912084516114a29260039092019186019061394a565b506000818152602081905260409020600601546001805485929081106114c457fe5b906000526020600020906008020160030190805190602001906114e892919061394a565b5080600080516020613a4b833981519152600080848152602001908152602001600020600601548660008086815260200190815260200160002060020187600080888152602001908152602001600020600401600080898152602001908152602001600020600501546000808a8152602001908152602001600020600701546000808b815260200190815260200160002060080154604051808981526020018060200180602001806020018060200188815260200187815260200186815260200185810385528c818151815260200191508051906020019080838360005b838110156115de5781810151838201526020016115c6565b50505050905090810190601f16801561160b5780820380516001836020036101000a031916815260200191505b5085810384528b54600260001961010060018416150201909116048082526020909101908c90801561167e5780601f106116535761010080835404028352916020019161167e565b820191906000526020600020905b81548152906001019060200180831161166157829003601f168201915b505085810383528a5181528a516020918201918c019080838360005b838110156116b257818101518382015260200161169a565b50505050905090810190601f1680156116df5780820380516001836020036101000a031916815260200191505b5085810382528954600260001961010060018416150201909116048082526020909101908a9080156117525780601f1061172757610100808354040283529160200191611752565b820191906000526020600020905b81548152906001019060200180831161173557829003601f168201915b50509c5050505050505050505050505060405180910390a25060019392505050565b600081815260208190526040902060046005820181905560069091015460018054606093929081106117a257fe5b906000526020600020906008020160050181905550817fa6192d29121ec9abfc29b3ec78642ace4231657726c3de13315db4a4257eea7a600080858152602001908152602001600020600601546040518082815260200191505060405180910390a26000828152602081815260409182902080548351601f6002600019610100600186161502019093169290920491820184900484028101840190945280845290918301828280156118955780601f1061186a57610100808354040283529160200191611895565b820191906000526020600020905b81548152906001019060200180831161187857829003601f168201915b505050505090505b919050565b600080866040516020018082805190602001908083835b602083106118d85780518252601f1990920191602091820191016118b9565b6001836020036101000a03801982511681845116808217855250505050505090500191505060405160208183030381529060405280519060200120905061191e81613099565b15156001146119655760408051600160e51b62461bcd0281526020600482015260146024820152600080516020613a2b833981519152604482015290519081900360640190fd5b6000818152602081905260408120600601545b875182101561222b5787828151811061198d57fe5b602002602001015160011415611c7a5760008381526020818152604090912088516119c0926002909201918a019061394a565b5086600182815481106119cf57fe5b906000526020600020906008020160020190805190602001906119f392919061394a565b5082600080516020613a4b833981519152600080868152602001908152602001600020600601548b8a6000808981526020019081526020016000206003016000808a81526020019081526020016000206004016000808b8152602001908152602001600020600501546000808c8152602001908152602001600020600701546000808d815260200190815260200160002060080154604051808981526020018060200180602001806020018060200188815260200187815260200186815260200185810385528c818151815260200191508051906020019080838360005b83811015611ae9578181015183820152602001611ad1565b50505050905090810190601f168015611b165780820380516001836020036101000a031916815260200191505b5085810384528b5181528b516020918201918d019080838360005b83811015611b49578181015183820152602001611b31565b50505050905090810190601f168015611b765780820380516001836020036101000a031916815260200191505b5085810383528a54600260001961010060018416150201909116048082526020909101908b908015611be95780601f10611bbe57610100808354040283529160200191611be9565b820191906000526020600020905b815481529060010190602001808311611bcc57829003601f168201915b505085810382528954600260001961010060018416150201909116048082526020909101908a908015611c5d5780601f10611c3257610100808354040283529160200191611c5d565b820191906000526020600020905b815481529060010190602001808311611c4057829003601f168201915b50509c5050505050505050505050505060405180910390a2612220565b878281518110611c8657fe5b602002602001015160021415611f2b576000838152602081815260409091208751611cb99260039092019189019061394a565b508560018281548110611cc857fe5b90600052602060002090600802016003019080519060200190611cec92919061394a565b5082600080516020613a4b833981519152600080868152602001908152602001600020600601548b6000808881526020019081526020016000206002018a6000808a81526020019081526020016000206004016000808b8152602001908152602001600020600501546000808c8152602001908152602001600020600701546000808d815260200190815260200160002060080154604051808981526020018060200180602001806020018060200188815260200187815260200186815260200185810385528c818151815260200191508051906020019080838360005b83811015611de2578181015183820152602001611dca565b50505050905090810190601f168015611e0f5780820380516001836020036101000a031916815260200191505b5085810384528b54600260001961010060018416150201909116048082526020909101908c908015611e825780601f10611e5757610100808354040283529160200191611e82565b820191906000526020600020905b815481529060010190602001808311611e6557829003601f168201915b505085810383528a5181528a516020918201918c019080838360005b83811015611eb6578181015183820152602001611e9e565b50505050905090810190601f168015611ee35780820380516001836020036101000a031916815260200191505b5085810382528954600260001961010060018416150201909116048082526020909101908a908015611c5d5780601f10611c3257610100808354040283529160200191611c5d565b878281518110611f3757fe5b602002602001015160031415612220576000838152602081815260409091208651611f6a9260049092019188019061394a565b508460018281548110611f7957fe5b90600052602060002090600802016004019080519060200190611f9d92919061394a565b5082600080516020613a4b833981519152600080868152602001908152602001600020600601548b6000808881526020019081526020016000206002016000808981526020019081526020016000206003018a6000808b8152602001908152602001600020600501546000808c8152602001908152602001600020600701546000808d815260200190815260200160002060080154604051808981526020018060200180602001806020018060200188815260200187815260200186815260200185810385528c818151815260200191508051906020019080838360005b8381101561209357818101518382015260200161207b565b50505050905090810190601f1680156120c05780820380516001836020036101000a031916815260200191505b5085810384528b54600260001961010060018416150201909116048082526020909101908c9080156121335780601f1061210857610100808354040283529160200191612133565b820191906000526020600020905b81548152906001019060200180831161211657829003601f168201915b505085810383528a54600260001961010060018416150201909116048082526020909101908b9080156121a75780601f1061217c576101008083540402835291602001916121a7565b820191906000526020600020905b81548152906001019060200180831161218a57829003601f168201915b505085810382528951815289516020918201918b019080838360005b838110156121db5781810151838201526020016121c3565b50505050905090810190601f1680156122085780820380516001836020036101000a031916815260200191505b509c5050505050505050505050505060405180910390a25b600190910190611978565b50600198975050505050505050565b600080836040516020018082805190602001908083835b602083106122705780518252601f199092019160209182019101612251565b6001836020036101000a0380198251168184511680821785525050505050509050019150506040516020818303038152906040528051906020012090506122b681613099565b15156001146122fd5760408051600160e51b62461bcd0281526020600482015260146024820152600080516020613a2b833981519152604482015290519081900360640190fd5b60008181526020818152604090912084516123209260049092019186019061394a565b5060008181526020819052604090206006015460018054859290811061234257fe5b9060005260206000209060080201600401908051906020019061236692919061394a565b5080600080516020613a4b833981519152600080848152602001908152602001600020600601548660008086815260200190815260200160002060020160008087815260200190815260200160002060030188600080898152602001908152602001600020600501546000808a8152602001908152602001600020600701546000808b815260200190815260200160002060080154604051808981526020018060200180602001806020018060200188815260200187815260200186815260200185810385528c818151815260200191508051906020019080838360005b8381101561245c578181015183820152602001612444565b50505050905090810190601f1680156124895780820380516001836020036101000a031916815260200191505b5085810384528b54600260001961010060018416150201909116048082526020909101908c9080156124fc5780601f106124d1576101008083540402835291602001916124fc565b820191906000526020600020905b8154815290600101906020018083116124df57829003601f168201915b505085810383528a54600260001961010060018416150201909116048082526020909101908b9080156125705780601f1061254557610100808354040283529160200191612570565b820191906000526020600020905b81548152906001019060200180831161255357829003601f168201915b505085810382528951815289516020918201918b019080838360005b838110156125a457818101518382015260200161258c565b50505050905090810190601f1680156125d15780820380516001836020036101000a031916815260200191505b509c5050505050505050505050505060405180910390a25060019392505050565b6000602081815291815260409081902080548251601f6002600019610100600186161502019093169290920491820185900485028101850190935280835290928391908301828280156126865780601f1061265b57610100808354040283529160200191612686565b820191906000526020600020905b81548152906001019060200180831161266957829003601f168201915b505050505090806001015490806002018054600181600116156101000203166002900480601f01602080910402602001604051908101604052809291908181526020018280546001816001161561010002031660029004801561272a5780601f106126ff5761010080835404028352916020019161272a565b820191906000526020600020905b81548152906001019060200180831161270d57829003601f168201915b5050505060038301805460408051602060026001851615610100026000190190941693909304601f81018490048402820184019092528181529495949350908301828280156127ba5780601f1061278f576101008083540402835291602001916127ba565b820191906000526020600020905b81548152906001019060200180831161279d57829003601f168201915b5050505060048301805460408051602060026001851615610100026000190190941693909304601f810184900484028201840190925281815294959493509083018282801561284a5780601f1061281f5761010080835404028352916020019161284a565b820191906000526020600020905b81548152906001019060200180831161282d57829003601f168201915b5050505050908060050154908060060154908060070154908060080154905089565b50600090565b600080856040516020018082805190602001908083835b602083106128a85780518252601f199092019160209182019101612889565b6001836020036101000a0380198251168184511680821785525050505050509050019150506040516020818303038152906040528051906020012090506128ee81613099565b1515600114156129485760408051600160e51b62461bcd02815260206004820152601860248201527f65737461746520616c6c7265647920696e2073797374656d0000000000000000604482015290519081900360640190fd5b60008181526020818152604090912087516129659289019061394a565b506000818152602081815260409091206001808201849055600582015586516129969260029092019188019061394a565b5060008181526020818152604090912085516129ba9260039092019187019061394a565b5060008181526020818152604090912084516129de9260049092019186019061394a565b5060008181526020819052604081206007810182905560080155612a058187878787613811565b50600180805490500360008083815260200190815260200160002060060181905550807f246a4042974c4275523f2c4caeb7d6b6958677a3b6ce82df8ff1fdcbf73069ff6000808481526020019081526020016000206006015488888888600080898152602001908152602001600020600501546000808a8152602001908152602001600020600701546000808b815260200190815260200160002060080154604051808981526020018060200180602001806020018060200188815260200187815260200186815260200185810385528c818151815260200191508051906020019080838360005b83811015612b06578181015183820152602001612aee565b50505050905090810190601f168015612b335780820380516001836020036101000a031916815260200191505b5085810384528b5181528b516020918201918d019080838360005b83811015612b66578181015183820152602001612b4e565b50505050905090810190601f168015612b935780820380516001836020036101000a031916815260200191505b5085810383528a5181528a516020918201918c019080838360005b83811015612bc6578181015183820152602001612bae565b50505050905090810190601f168015612bf35780820380516001836020036101000a031916815260200191505b5085810382528951815289516020918201918b019080838360005b83811015612c26578181015183820152602001612c0e565b50505050905090810190601f168015612c535780820380516001836020036101000a031916815260200191505b509c5050505050505050505050505060405180910390a250600195945050505050565b600080836040516020018082805190602001908083835b60208310612cac5780518252601f199092019160209182019101612c8d565b51815160209384036101000a60001901801990921691161790526040805192909401828103601f19018352845281519181019190912060008181529182905292902060058101889055600601546001805493965088955093509182109050612d1057fe5b60009182526020909120600560089092020101555060019392505050565b600080836040516020018082805190602001908083835b60208310612d645780518252601f199092019160209182019101612d45565b6001836020036101000a038019825116818451168082178552505050505050905001915050604051602081830303815290604052805190602001209050612daa81613099565b1515600114612df15760408051600160e51b62461bcd0281526020600482015260146024820152600080516020613a2b833981519152604482015290519081900360640190fd5b6000818152602081815260409091208451612e149260029092019186019061394a565b50600081815260208190526040902060060154600180548592908110612e3657fe5b90600052602060002090600802016002019080519060200190612e5a92919061394a565b5080600080516020613a4b833981519152600080848152602001908152602001600020600601548686600080878152602001908152602001600020600301600080888152602001908152602001600020600401600080898152602001908152602001600020600501546000808a8152602001908152602001600020600701546000808b815260200190815260200160002060080154604051808981526020018060200180602001806020018060200188815260200187815260200186815260200185810385528c818151815260200191508051906020019080838360005b83811015612f50578181015183820152602001612f38565b50505050905090810190601f168015612f7d5780820380516001836020036101000a031916815260200191505b5085810384528b5181528b516020918201918d019080838360005b83811015612fb0578181015183820152602001612f98565b50505050905090810190601f168015612fdd5780820380516001836020036101000a031916815260200191505b5085810383528a54600260001961010060018416150201909116048082526020909101908b9080156130505780601f1061302557610100808354040283529160200191613050565b820191906000526020600020905b81548152906001019060200180831161303357829003601f168201915b505085810382528954600260001961010060018416150201909116048082526020909101908a9080156117525780601f1061172757610100808354040283529160200191611752565b6001546000906130ab5750600061189d565b6000828152602081905260409020600601546001805484929081106130cc57fe5b906000526020600020906008020160000154149050919050565b60006060806060806000806000886040516020018082805190602001908083835b602083106131265780518252601f199092019160209182019101613107565b6001836020036101000a03801982511681845116808217855250505050505090500191505060405160208183030381529060405280519060200120905061316c81613099565b15156001146131b35760408051600160e51b62461bcd0281526020600482015260146024820152600080516020613a2b833981519152604482015290519081900360640190fd5b600081815260208181526040918290206005810154600782015482548551600260018316156101000260001901909216829004601f8101879004870282018701909752868152879694959186019460038701946004880194909390929188918301828280156132635780601f1061323857610100808354040283529160200191613263565b820191906000526020600020905b81548152906001019060200180831161324657829003601f168201915b5050885460408051602060026001851615610100026000190190941693909304601f8101849004840282018401909252818152959b508a9450925084019050828280156132f15780601f106132c6576101008083540402835291602001916132f1565b820191906000526020600020905b8154815290600101906020018083116132d457829003601f168201915b5050875460408051602060026001851615610100026000190190941693909304601f8101849004840282018401909252818152959a508994509250840190508282801561337f5780601f106133545761010080835404028352916020019161337f565b820191906000526020600020905b81548152906001019060200180831161336257829003601f168201915b5050865460408051602060026001851615610100026000190190941693909304601f81018490048402820184019092528181529599508894509250840190508282801561340d5780601f106133e25761010080835404028352916020019161340d565b820191906000526020600020905b8154815290600101906020018083116133f057829003601f168201915b50505050509250975097509750975097509750975050919395979092949650565b600080836040516020018082805190602001908083835b602083106134645780518252601f199092019160209182019101613445565b6001836020036101000a0380198251168184511680821785525050505050509050019150506040516020818303038152906040528051906020012090506134aa81613099565b15156001146134f15760408051600160e51b62461bcd0281526020600482015260146024820152600080516020613a2b833981519152604482015290519081900360640190fd5b6000818152602081905260408120600881015460079091015460018201910285018161351957fe5b6000848152602081905260409020600881018054600190810190915592909104600782018190556006909101548254919350839291811061355657fe5b90600052602060002090600802016006018190555081600080516020613a4b83398151915260008085815260200190815260200160002060060154876000808781526020019081526020016000206002016000808881526020019081526020016000206003016000808981526020019081526020016000206004016000808a815260200190815260200160002060050154886000808c815260200190815260200160002060080154604051808981526020018060200180602001806020018060200188815260200187815260200186815260200185810385528c818151815260200191508051906020019080838360005b8381101561365f578181015183820152602001613647565b50505050905090810190601f16801561368c5780820380516001836020036101000a031916815260200191505b5085810384528b54600260001961010060018416150201909116048082526020909101908c9080156136ff5780601f106136d4576101008083540402835291602001916136ff565b820191906000526020600020905b8154815290600101906020018083116136e257829003601f168201915b505085810383528a54600260001961010060018416150201909116048082526020909101908b9080156137735780601f1061374857610100808354040283529160200191613773565b820191906000526020600020905b81548152906001019060200180831161375657829003601f168201915b505085810382528954600260001961010060018416150201909116048082526020909101908a9080156137e75780601f106137bc576101008083540402835291602001916137e7565b820191906000526020600020905b8154815290600101906020018083116137ca57829003601f168201915b50509c5050505050505050505050505060405180910390a2506001949350505050565b6001545b90565b600061381b6139c8565b8681526020808201878152604083018790526060830186905260808301859052600160a08401819052600060c0850181905260e08501819052815480830180845592909152845160089091027fb10e2d527612073b26eecdfd717e6a320cf44b4afac2b0732d9fcbe2b7fa0cf68101918255925180519294869492936138c7937fb10e2d527612073b26eecdfd717e6a320cf44b4afac2b0732d9fcbe2b7fa0cf701929091019061394a565b50604082015180516138e391600284019160209091019061394a565b50606082015180516138ff91600384019160209091019061394a565b506080820151805161391b91600484019160209091019061394a565b5060a0820151600582015560c0820151600682015560e090910151600790910155506001979650505050505050565b828054600181600116156101000203166002900490600052602060002090601f016020900481019282601f1061398b57805160ff19168380011785556139b8565b828001600101855582156139b8579182015b828111156139b857825182559160200191906001019061399d565b506139c4929150613a10565b5090565b60405180610100016040528060008019168152602001606081526020016060815260200160608152602001606081526020016000815260200160008152602001600081525090565b61380e91905b808211156139c45760008155600101613a1656fe657374617465206e6f7420696e2073797374656d00000000000000000000000058cebce272a835015f35982cbf4118b7786b73ba7d86fa0a0032928e2ea15ef2a165627a7a723058205592275d8c03604a70684f8a2619731e1e0ce276f2d6421744b235a9c22290180029",
  "source": "pragma solidity >=0.4.21 <0.6.0;\r\n\r\ncontract EstateContract {\r\n\r\n    struct Estate{\r\n        string estateName;\r\n        bytes32 estateNameCode;\r\n        string estateAddress;\r\n        string ownerName;\r\n        string contactnumberAndEmail;\r\n        uint estateAccess;\r\n        uint index;\r\n        uint rate;\r\n        uint unit;\r\n    }\r\n\r\n    struct DisplayEstate{\r\n        bytes32 estateNameCode;\r\n        string estateName;\r\n        string estateAddress;\r\n        string ownerName;\r\n        string contactnumberAndEmail;\r\n        uint estateAccess;\r\n        uint rate;\r\n        uint unit;\r\n    }\r\n\r\n    event LogNewEstate(\r\n        bytes32 indexed estateNameCode,\r\n        uint index,string estateName,\r\n        string estateAddress,\r\n        string ownerName,\r\n        string contactnumberAndEmail,\r\n        uint estateAccess,\r\n        uint rate,\r\n        uint unit\r\n        );\r\n    event LogUpdateEstate(\r\n        bytes32 indexed estateNameCode,\r\n        uint index,string estateName,\r\n        string estateAddress,\r\n        string ownerName,\r\n        string contactnumberAndEmail,\r\n        uint estateAccess,\r\n        uint rate,\r\n        uint unit\r\n        );\r\n    event LogDeleteEstate(\r\n        bytes32 indexed estateNamecode,\r\n        uint index\r\n        );\r\n\r\n    mapping(bytes32 => Estate) public EstateArray;\r\n    DisplayEstate[] private EstateIndex;\r\n\r\n    function isEstate(bytes32 _estateNameCode)public view returns(bool isIndeed) {\r\n        if(EstateIndex.length == 0) return false;\r\n        return (EstateIndex[EstateArray[_estateNameCode].index].estateNameCode == _estateNameCode);\r\n    }\r\n\r\n    function setDisplayEstate\r\n    (bytes32 _estateNameCode,string memory _estateName,string memory _estateAddress,string memory _ownerName,string memory _contactnumberAndEmail)\r\n     private returns(bool){\r\n\r\n        DisplayEstate memory displayEstate;\r\n        displayEstate.estateNameCode = _estateNameCode;\r\n        displayEstate.estateName = _estateName;\r\n        displayEstate.estateAddress = _estateAddress;\r\n        displayEstate.ownerName = _ownerName;\r\n        displayEstate.contactnumberAndEmail = _contactnumberAndEmail;\r\n        displayEstate.estateAccess = 1;\r\n        displayEstate.rate = 0;\r\n        displayEstate.unit = 0;\r\n        EstateIndex.push(displayEstate);\r\n        return true;\r\n\r\n    }\r\n    function insertEstate\r\n    (string memory _estateName,string memory _estateAddress,string memory _ownerName,string memory _contactnumberAndEmail) public returns(bool){\r\n        bytes32 _estateNameCode = keccak256(abi.encodePacked((_estateName)));\r\n        require(isEstate(_estateNameCode) != true,'estate allredy in system');\r\n\r\n        EstateArray[_estateNameCode].estateName = _estateName;\r\n        EstateArray[_estateNameCode].estateNameCode = _estateNameCode;\r\n        EstateArray[_estateNameCode].estateAccess = 1;\r\n        EstateArray[_estateNameCode].estateAddress = _estateAddress;\r\n        EstateArray[_estateNameCode].ownerName = _ownerName;\r\n        EstateArray[_estateNameCode].contactnumberAndEmail = _contactnumberAndEmail;\r\n        EstateArray[_estateNameCode].rate = 0;\r\n        EstateArray[_estateNameCode].unit = 0;\r\n        setDisplayEstate(_estateNameCode,_estateName,_estateAddress,_ownerName,_contactnumberAndEmail);\r\n        EstateArray[_estateNameCode].index = EstateIndex.length-1;\r\n\r\n        emit LogNewEstate (\r\n            _estateNameCode,\r\n            EstateArray[_estateNameCode].index,\r\n            _estateName,\r\n            _estateAddress,\r\n            _ownerName,\r\n            _contactnumberAndEmail,\r\n            EstateArray[_estateNameCode].estateAccess,\r\n            EstateArray[_estateNameCode].rate,\r\n            EstateArray[_estateNameCode].unit\r\n            );\r\n        return true;\r\n    }\r\n    function deleteEstate (bytes32 _estateNameCode) public returns(string memory){\r\n        EstateArray[_estateNameCode].estateAccess = 4;\r\n        EstateIndex[EstateArray[_estateNameCode].index].estateAccess = 4;\r\n        emit LogDeleteEstate(\r\n            _estateNameCode,\r\n            EstateArray[_estateNameCode].index\r\n        );\r\n        return  EstateArray[_estateNameCode].estateName;\r\n    }\r\n\r\n    function getEstate(string memory _estateName) public view returns\r\n    (bytes32,string memory estateName,string memory ownerName,string memory contactnumberAndEmail,\r\n    string memory estateAddress, uint estateAccess,uint rate){\r\n        bytes32 _estateNameCode = keccak256(abi.encodePacked((_estateName)));\r\n        require(isEstate(_estateNameCode) == true,'estate not in system');\r\n        return(\r\n            _estateNameCode,\r\n            EstateArray[_estateNameCode].estateName,\r\n            EstateArray[_estateNameCode].estateAddress,\r\n            EstateArray[_estateNameCode].ownerName,\r\n            EstateArray[_estateNameCode].contactnumberAndEmail,\r\n            EstateArray[_estateNameCode].estateAccess,\r\n            EstateArray[_estateNameCode].rate\r\n            );\r\n    }\r\n    function getEstatei(uint i) public view returns(\r\n        bytes32,\r\n        string memory,\r\n        string memory,\r\n        string memory,\r\n        string memory,\r\n        uint,\r\n        uint\r\n        ){\r\n            return (\r\n                EstateIndex[i].estateNameCode,\r\n                EstateIndex[i].estateName,\r\n                EstateIndex[i].estateAddress,\r\n                EstateIndex[i].ownerName,\r\n                EstateIndex[i].contactnumberAndEmail,\r\n                EstateIndex[i].estateAccess,\r\n                EstateIndex[i].rate\r\n                );\r\n    }\r\n    function getEstateCount() public view returns(uint)\r\n    {\r\n        return EstateIndex.length;\r\n    }\r\n\r\n    // function updateUserestateName(address weight, bytes32 estateestateName) public returns(bool success)\r\n    // {\r\n    //     estateStructs[weight].estateestateName = estateestateName;\r\n    //     emit LogUpdateUser(weight,  estateStructs[weight].index, estateestateName, estateStructs[weight].estateAge);\r\n    //     return true;\r\n    // }\r\n    function updateEstateEstateAddress (string memory _estateName,string memory _estateAddress) public returns(bool success){\r\n        bytes32 _estateNameCode = keccak256(abi.encodePacked((_estateName)));\r\n        require(isEstate(_estateNameCode) == true,'estate not in system');\r\n        EstateArray[_estateNameCode].estateAddress = _estateAddress;\r\n        EstateIndex[EstateArray[_estateNameCode].index].estateAddress = _estateAddress;\r\n        emit LogUpdateEstate(\r\n            _estateNameCode,\r\n            EstateArray[_estateNameCode].index,\r\n            _estateName,\r\n            _estateAddress,\r\n            EstateArray[_estateNameCode].ownerName,\r\n            EstateArray[_estateNameCode].contactnumberAndEmail,\r\n            EstateArray[_estateNameCode].estateAccess,\r\n            EstateArray[_estateNameCode].rate,\r\n            EstateArray[_estateNameCode].unit\r\n            );\r\n        return true;\r\n    }\r\n    function updateEstateOwnerName (string memory _estateName,string memory _ownerName) public returns(bool success){\r\n        bytes32 _estateNameCode = keccak256(abi.encodePacked((_estateName)));\r\n        require(isEstate(_estateNameCode) == true,'estate not in system');\r\n        EstateArray[_estateNameCode].ownerName = _ownerName;\r\n        EstateIndex[EstateArray[_estateNameCode].index].ownerName = _ownerName;\r\n        emit LogUpdateEstate(\r\n            _estateNameCode,\r\n            EstateArray[_estateNameCode].index,\r\n            _estateName,\r\n            EstateArray[_estateNameCode].estateAddress,\r\n            _ownerName,\r\n            EstateArray[_estateNameCode].contactnumberAndEmail,\r\n            EstateArray[_estateNameCode].estateAccess,\r\n            EstateArray[_estateNameCode].rate,\r\n            EstateArray[_estateNameCode].unit\r\n            );\r\n        return true;\r\n    }\r\n    function updateContactnumberAndEmail (string memory _estateName,string memory _contactnumberAndEmail) public returns(bool success){\r\n        bytes32 _estateNameCode = keccak256(abi.encodePacked((_estateName)));\r\n        require(isEstate(_estateNameCode) == true,'estate not in system');\r\n        EstateArray[_estateNameCode].contactnumberAndEmail = _contactnumberAndEmail;\r\n        EstateIndex[EstateArray[_estateNameCode].index].contactnumberAndEmail = _contactnumberAndEmail;\r\n        emit LogUpdateEstate(\r\n            _estateNameCode,\r\n            EstateArray[_estateNameCode].index,\r\n            _estateName,\r\n            EstateArray[_estateNameCode].estateAddress,\r\n            EstateArray[_estateNameCode].ownerName,\r\n            _contactnumberAndEmail,\r\n            EstateArray[_estateNameCode].estateAccess,\r\n            EstateArray[_estateNameCode].rate,\r\n            EstateArray[_estateNameCode].unit\r\n            );\r\n        return true;\r\n    }\r\n    function updateEstate(\r\n        string memory _estateName,\r\n        uint[] memory index,\r\n        string memory _estateAddress,\r\n        string memory _ownerName,\r\n        string memory _contactnumberAndEmail\r\n        ) public returns(bool success){\r\n        bytes32 _estateNameCode = keccak256(abi.encodePacked((_estateName)));\r\n        require(isEstate(_estateNameCode) == true,'estate not in system');\r\n        uint i;\r\n        uint num = EstateArray[_estateNameCode].index;\r\n\r\n        for (i = 0;i<index.length;i++){\r\n            if(index[i]==1){\r\n                EstateArray[_estateNameCode].estateAddress = _estateAddress;\r\n                EstateIndex[num].estateAddress = _estateAddress;\r\n                emit LogUpdateEstate(\r\n                    _estateNameCode,\r\n                    EstateArray[_estateNameCode].index,\r\n                    _estateName,\r\n                    _estateAddress,\r\n                    EstateArray[_estateNameCode].ownerName,\r\n                    EstateArray[_estateNameCode].contactnumberAndEmail,\r\n                    EstateArray[_estateNameCode].estateAccess,\r\n                    EstateArray[_estateNameCode].rate,\r\n                    EstateArray[_estateNameCode].unit\r\n                    );\r\n\r\n            }\r\n            else if(index[i]==2){\r\n                EstateArray[_estateNameCode].ownerName = _ownerName;\r\n                EstateIndex[num].ownerName = _ownerName;\r\n                emit LogUpdateEstate(\r\n                    _estateNameCode,\r\n                    EstateArray[_estateNameCode].index,\r\n                    _estateName,\r\n                    EstateArray[_estateNameCode].estateAddress,\r\n                    _ownerName,\r\n                    EstateArray[_estateNameCode].contactnumberAndEmail,\r\n                    EstateArray[_estateNameCode].estateAccess,\r\n                    EstateArray[_estateNameCode].rate,\r\n                    EstateArray[_estateNameCode].unit\r\n                    );\r\n\r\n            }\r\n            else if(index[i]==3){\r\n                EstateArray[_estateNameCode].contactnumberAndEmail = _contactnumberAndEmail;\r\n                EstateIndex[num].contactnumberAndEmail = _contactnumberAndEmail;\r\n                emit LogUpdateEstate(\r\n                    _estateNameCode,\r\n                    EstateArray[_estateNameCode].index,\r\n                    _estateName,\r\n                    EstateArray[_estateNameCode].estateAddress,\r\n                    EstateArray[_estateNameCode].ownerName,\r\n                    _contactnumberAndEmail,\r\n                    EstateArray[_estateNameCode].estateAccess,\r\n                    EstateArray[_estateNameCode].rate,\r\n                    EstateArray[_estateNameCode].unit\r\n                    );\r\n\r\n            }\r\n        }\r\n        return true;\r\n    }\r\n    function editUserAccess(string memory _estateName,uint estateAccess)public returns(bool){\r\n        bytes32 estateName = keccak256(abi.encodePacked((_estateName)));\r\n        EstateArray[estateName].estateAccess = estateAccess;\r\n        EstateIndex[EstateArray[estateName].index].estateAccess = estateAccess;\r\n        return true;\r\n\r\n    }\r\n    ///////\r\n    function updateEstateiestateName (string memory _estateName) public returns(bool success){\r\n       // return true;\r\n    }\r\n    function rateEstate (string memory _estateName,uint _rate) public returns(bool success){\r\n        bytes32 _estateNameCode = keccak256(abi.encodePacked((_estateName)));\r\n        require(isEstate(_estateNameCode) == true,'estate not in system');\r\n        uint nrate = (_rate+EstateArray[_estateNameCode].rate*EstateArray[_estateNameCode].unit)/(EstateArray[_estateNameCode].unit+1);\r\n        EstateArray[_estateNameCode].unit = EstateArray[_estateNameCode].unit + 1;\r\n        EstateArray[_estateNameCode].rate = nrate;\r\n        EstateIndex[EstateArray[_estateNameCode].index].rate = nrate;\r\n        emit LogUpdateEstate(\r\n            _estateNameCode,\r\n            EstateArray[_estateNameCode].index,\r\n            _estateName,\r\n            EstateArray[_estateNameCode].estateAddress,\r\n            EstateArray[_estateNameCode].ownerName,\r\n            EstateArray[_estateNameCode].contactnumberAndEmail,\r\n            EstateArray[_estateNameCode].estateAccess,\r\n            nrate,\r\n            EstateArray[_estateNameCode].unit\r\n            );\r\n        return true;\r\n    }\r\n    // function createEstatePacket (string memory _estateName,uint _unit) public returns(bool success){\r\n    //     bytes32 _estateNameCode = keccak256(abi.encodePacked((_estateName)));\r\n    //     require(isEstate(_estateNameCode) == true,'estate not in system');\r\n    //     EstateArray[_estateNameCode].rate = _rate;\r\n    //     EstateIndex[EstateArray[_estateNameCode].index].rate = _rate;\r\n    //     emit LogUpdateEstate(\r\n    //         _estateNameCode,\r\n    //         EstateArray[_estateNameCode].index,\r\n    //         _estateName,\r\n    //         EstateArray[_estateNameCode].estateAddress,\r\n    //         EstateArray[_estateNameCode].ownerName,\r\n    //         EstateArray[_estateNameCode].weight,\r\n    //         EstateArray[_estateNameCode].estateAccess,\r\n    //         _rate,\r\n    //         EstateArray[_estateNameCode].contactnumberAndEmail,\r\n    //         EstateArray[_estateNameCode].unit\r\n    //         );\r\n    //     return true;\r\n    // }\r\n}",
  "sourcePath": "C:/project/tea supply chain mangement system/test2/contracts/Estate.sol",
  "compiler": {
    "name": "solc",
    "version": "0.5.8+commit.23d335f2.Emscripten.clang"
  },
  "schemaVersion": "3.0.16",
  "updatedAt": "2020-01-13T03:30:36.593Z",
  "devdoc": {
    "methods": {}
  },
  "userdoc": {
    "methods": {
      "updateEstateiestateName(string)": {
        "notice": "////"
      }
    }
  }
}