{
  "contractName": "EstateContract",
  "abi": [
    {
      "anonymous": false,
      "inputs": [
        {
          "indexed": true,
          "internalType": "bytes32",
          "name": "estateNamecode",
          "type": "bytes32"
        },
        {
          "indexed": false,
          "internalType": "uint256",
          "name": "index",
          "type": "uint256"
        }
      ],
      "name": "LogDeleteEstate",
      "type": "event"
    },
    {
      "anonymous": false,
      "inputs": [
        {
          "indexed": true,
          "internalType": "bytes32",
          "name": "estateNameCode",
          "type": "bytes32"
        },
        {
          "indexed": false,
          "internalType": "uint256",
          "name": "index",
          "type": "uint256"
        },
        {
          "indexed": false,
          "internalType": "string",
          "name": "estateName",
          "type": "string"
        },
        {
          "indexed": false,
          "internalType": "string",
          "name": "estateAddress",
          "type": "string"
        },
        {
          "indexed": false,
          "internalType": "string",
          "name": "ownerName",
          "type": "string"
        },
        {
          "indexed": false,
          "internalType": "string",
          "name": "contactnumberAndEmail",
          "type": "string"
        },
        {
          "indexed": false,
          "internalType": "uint256",
          "name": "estateAccess",
          "type": "uint256"
        },
        {
          "indexed": false,
          "internalType": "uint256",
          "name": "rate",
          "type": "uint256"
        },
        {
          "indexed": false,
          "internalType": "uint256",
          "name": "unit",
          "type": "uint256"
        }
      ],
      "name": "LogNewEstate",
      "type": "event"
    },
    {
      "anonymous": false,
      "inputs": [
        {
          "indexed": true,
          "internalType": "bytes32",
          "name": "estateNameCode",
          "type": "bytes32"
        },
        {
          "indexed": false,
          "internalType": "uint256",
          "name": "index",
          "type": "uint256"
        },
        {
          "indexed": false,
          "internalType": "string",
          "name": "estateName",
          "type": "string"
        },
        {
          "indexed": false,
          "internalType": "string",
          "name": "estateAddress",
          "type": "string"
        },
        {
          "indexed": false,
          "internalType": "string",
          "name": "ownerName",
          "type": "string"
        },
        {
          "indexed": false,
          "internalType": "string",
          "name": "contactnumberAndEmail",
          "type": "string"
        },
        {
          "indexed": false,
          "internalType": "uint256",
          "name": "estateAccess",
          "type": "uint256"
        },
        {
          "indexed": false,
          "internalType": "uint256",
          "name": "rate",
          "type": "uint256"
        },
        {
          "indexed": false,
          "internalType": "uint256",
          "name": "unit",
          "type": "uint256"
        }
      ],
      "name": "LogUpdateEstate",
      "type": "event"
    },
    {
      "constant": true,
      "inputs": [
        {
          "internalType": "bytes32",
          "name": "",
          "type": "bytes32"
        }
      ],
      "name": "EstateArray",
      "outputs": [
        {
          "internalType": "string",
          "name": "estateName",
          "type": "string"
        },
        {
          "internalType": "bytes32",
          "name": "estateNameCode",
          "type": "bytes32"
        },
        {
          "internalType": "string",
          "name": "estateAddress",
          "type": "string"
        },
        {
          "internalType": "string",
          "name": "ownerName",
          "type": "string"
        },
        {
          "internalType": "string",
          "name": "contactnumberAndEmail",
          "type": "string"
        },
        {
          "internalType": "uint256",
          "name": "estateAccess",
          "type": "uint256"
        },
        {
          "internalType": "uint256",
          "name": "index",
          "type": "uint256"
        },
        {
          "internalType": "uint256",
          "name": "rate",
          "type": "uint256"
        },
        {
          "internalType": "uint256",
          "name": "unit",
          "type": "uint256"
        }
      ],
      "payable": false,
      "stateMutability": "view",
      "type": "function"
    },
    {
      "constant": true,
      "inputs": [
        {
          "internalType": "bytes32",
          "name": "_estateNameCode",
          "type": "bytes32"
        }
      ],
      "name": "isEstate",
      "outputs": [
        {
          "internalType": "bool",
          "name": "isIndeed",
          "type": "bool"
        }
      ],
      "payable": false,
      "stateMutability": "view",
      "type": "function"
    },
    {
      "constant": false,
      "inputs": [
        {
          "internalType": "string",
          "name": "_estateName",
          "type": "string"
        },
        {
          "internalType": "string",
          "name": "_estateAddress",
          "type": "string"
        },
        {
          "internalType": "string",
          "name": "_ownerName",
          "type": "string"
        },
        {
          "internalType": "string",
          "name": "_contactnumberAndEmail",
          "type": "string"
        }
      ],
      "name": "insertEstate",
      "outputs": [
        {
          "internalType": "bool",
          "name": "",
          "type": "bool"
        }
      ],
      "payable": false,
      "stateMutability": "nonpayable",
      "type": "function"
    },
    {
      "constant": false,
      "inputs": [
        {
          "internalType": "bytes32",
          "name": "_estateNameCode",
          "type": "bytes32"
        }
      ],
      "name": "deleteEstate",
      "outputs": [
        {
          "internalType": "string",
          "name": "",
          "type": "string"
        }
      ],
      "payable": false,
      "stateMutability": "nonpayable",
      "type": "function"
    },
    {
      "constant": true,
      "inputs": [
        {
          "internalType": "string",
          "name": "_estateName",
          "type": "string"
        }
      ],
      "name": "getEstate",
      "outputs": [
        {
          "internalType": "bytes32",
          "name": "",
          "type": "bytes32"
        },
        {
          "internalType": "string",
          "name": "estateName",
          "type": "string"
        },
        {
          "internalType": "string",
          "name": "ownerName",
          "type": "string"
        },
        {
          "internalType": "string",
          "name": "contactnumberAndEmail",
          "type": "string"
        },
        {
          "internalType": "string",
          "name": "estateAddress",
          "type": "string"
        },
        {
          "internalType": "uint256",
          "name": "estateAccess",
          "type": "uint256"
        },
        {
          "internalType": "uint256",
          "name": "rate",
          "type": "uint256"
        }
      ],
      "payable": false,
      "stateMutability": "view",
      "type": "function"
    },
    {
      "constant": true,
      "inputs": [
        {
          "internalType": "uint256",
          "name": "i",
          "type": "uint256"
        }
      ],
      "name": "getEstatei",
      "outputs": [
        {
          "internalType": "bytes32",
          "name": "",
          "type": "bytes32"
        },
        {
          "internalType": "string",
          "name": "",
          "type": "string"
        },
        {
          "internalType": "string",
          "name": "",
          "type": "string"
        },
        {
          "internalType": "string",
          "name": "",
          "type": "string"
        },
        {
          "internalType": "string",
          "name": "",
          "type": "string"
        },
        {
          "internalType": "uint256",
          "name": "",
          "type": "uint256"
        },
        {
          "internalType": "uint256",
          "name": "",
          "type": "uint256"
        }
      ],
      "payable": false,
      "stateMutability": "view",
      "type": "function"
    },
    {
      "constant": true,
      "inputs": [],
      "name": "getEstateCount",
      "outputs": [
        {
          "internalType": "uint256",
          "name": "",
          "type": "uint256"
        }
      ],
      "payable": false,
      "stateMutability": "view",
      "type": "function"
    },
    {
      "constant": false,
      "inputs": [
        {
          "internalType": "string",
          "name": "_estateName",
          "type": "string"
        },
        {
          "internalType": "string",
          "name": "_estateAddress",
          "type": "string"
        }
      ],
      "name": "updateEstateEstateAddress",
      "outputs": [
        {
          "internalType": "bool",
          "name": "success",
          "type": "bool"
        }
      ],
      "payable": false,
      "stateMutability": "nonpayable",
      "type": "function"
    },
    {
      "constant": false,
      "inputs": [
        {
          "internalType": "string",
          "name": "_estateName",
          "type": "string"
        },
        {
          "internalType": "string",
          "name": "_ownerName",
          "type": "string"
        }
      ],
      "name": "updateEstateOwnerName",
      "outputs": [
        {
          "internalType": "bool",
          "name": "success",
          "type": "bool"
        }
      ],
      "payable": false,
      "stateMutability": "nonpayable",
      "type": "function"
    },
    {
      "constant": false,
      "inputs": [
        {
          "internalType": "string",
          "name": "_estateName",
          "type": "string"
        },
        {
          "internalType": "string",
          "name": "_contactnumberAndEmail",
          "type": "string"
        }
      ],
      "name": "updateContactnumberAndEmail",
      "outputs": [
        {
          "internalType": "bool",
          "name": "success",
          "type": "bool"
        }
      ],
      "payable": false,
      "stateMutability": "nonpayable",
      "type": "function"
    },
    {
      "constant": false,
      "inputs": [
        {
          "internalType": "string",
          "name": "_estateName",
          "type": "string"
        },
        {
          "internalType": "uint256[]",
          "name": "index",
          "type": "uint256[]"
        },
        {
          "internalType": "string",
          "name": "_estateAddress",
          "type": "string"
        },
        {
          "internalType": "string",
          "name": "_ownerName",
          "type": "string"
        },
        {
          "internalType": "string",
          "name": "_contactnumberAndEmail",
          "type": "string"
        }
      ],
      "name": "updateEstate",
      "outputs": [
        {
          "internalType": "bool",
          "name": "success",
          "type": "bool"
        }
      ],
      "payable": false,
      "stateMutability": "nonpayable",
      "type": "function"
    },
    {
      "constant": false,
      "inputs": [
        {
          "internalType": "string",
          "name": "_estateName",
          "type": "string"
        },
        {
          "internalType": "uint256",
          "name": "estateAccess",
          "type": "uint256"
        }
      ],
      "name": "editUserAccess",
      "outputs": [
        {
          "internalType": "bool",
          "name": "",
          "type": "bool"
        }
      ],
      "payable": false,
      "stateMutability": "nonpayable",
      "type": "function"
    },
    {
      "constant": false,
      "inputs": [
        {
          "internalType": "string",
          "name": "_estateName",
          "type": "string"
        }
      ],
      "name": "updateEstateiestateName",
      "outputs": [
        {
          "internalType": "bool",
          "name": "success",
          "type": "bool"
        }
      ],
      "payable": false,
      "stateMutability": "nonpayable",
      "type": "function"
    },
    {
      "constant": false,
      "inputs": [
        {
          "internalType": "string",
          "name": "_estateName",
          "type": "string"
        },
        {
          "internalType": "uint256",
          "name": "_rate",
          "type": "uint256"
        }
      ],
      "name": "rateEstate",
      "outputs": [
        {
          "internalType": "bool",
          "name": "success",
          "type": "bool"
        }
      ],
      "payable": false,
      "stateMutability": "nonpayable",
      "type": "function"
    }
  ],
  "bytecode": "0x608060405234801561001057600080fd5b50613aa0806100206000396000f3fe608060405234801561001057600080fd5b50600436106100ea5760003560e01c806361eca6631161008c5780637cd650ba116100665780637cd650ba14610f08578063c199013b14610f25578063dadfd17314610fc9578063fb5c6c621461106f576100ea565b806361eca66314610b065780636609b7cc14610d395780636afd156714610ddf576100ea565b80633006c0f0116100c85780633006c0f01461049a5780633589e4cb1461074f5780634276a4fa146108785780634c79e03d14610a62576100ea565b806309a7540a146100ef5780632107b6fc146102cb57806323ec487d14610408575b600080fd5b61010c6004803603602081101561010557600080fd5b5035611089565b604051808881526020018060200180602001806020018060200187815260200186815260200185810385528b818151815260200191508051906020019080838360005b8381101561016757818101518382015260200161014f565b50505050905090810190601f1680156101945780820380516001836020036101000a031916815260200191505b5085810384528a5181528a516020918201918c019080838360005b838110156101c75781810151838201526020016101af565b50505050905090810190601f1680156101f45780820380516001836020036101000a031916815260200191505b5085810383528951815289516020918201918b019080838360005b8381101561022757818101518382015260200161020f565b50505050905090810190601f1680156102545780820380516001836020036101000a031916815260200191505b5085810382528851815288516020918201918a019080838360005b8381101561028757818101518382015260200161026f565b50505050905090810190601f1680156102b45780820380516001836020036101000a031916815260200191505b509b50505050505050505050505060405180910390f35b6103f4600480360360408110156102e157600080fd5b810190602081018135600160201b8111156102fb57600080fd5b82018360208201111561030d57600080fd5b803590602001918460018302840111600160201b8311171561032e57600080fd5b91908080601f0160208091040260200160405190810160405280939291908181526020018383808284376000920191909152509295949360208101935035915050600160201b81111561038057600080fd5b82018360208201111561039257600080fd5b803590602001918460018302840111600160201b831117156103b357600080fd5b91908080601f0160208091040260200160405190810160405280939291908181526020018383808284376000920191909152509295506113bc945050505050565b604080519115158252519081900360200190f35b6104256004803603602081101561041e57600080fd5b503561177a565b6040805160208082528351818301528351919283929083019185019080838360005b8381101561045f578181015183820152602001610447565b50505050905090810190601f16801561048c5780820380516001836020036101000a031916815260200191505b509250505060405180910390f35b6103f4600480360360a08110156104b057600080fd5b810190602081018135600160201b8111156104ca57600080fd5b8201836020820111156104dc57600080fd5b803590602001918460018302840111600160201b831117156104fd57600080fd5b91908080601f0160208091040260200160405190810160405280939291908181526020018383808284376000920191909152509295949360208101935035915050600160201b81111561054f57600080fd5b82018360208201111561056157600080fd5b803590602001918460208302840111600160201b8311171561058257600080fd5b9190808060200260200160405190810160405280939291908181526020018383602002808284376000920191909152509295949360208101935035915050600160201b8111156105d157600080fd5b8201836020820111156105e357600080fd5b803590602001918460018302840111600160201b8311171561060457600080fd5b91908080601f0160208091040260200160405190810160405280939291908181526020018383808284376000920191909152509295949360208101935035915050600160201b81111561065657600080fd5b82018360208201111561066857600080fd5b803590602001918460018302840111600160201b8311171561068957600080fd5b91908080601f0160208091040260200160405190810160405280939291908181526020018383808284376000920191909152509295949360208101935035915050600160201b8111156106db57600080fd5b8201836020820111156106ed57600080fd5b803590602001918460018302840111600160201b8311171561070e57600080fd5b91908080601f0160208091040260200160405190810160405280939291908181526020018383808284376000920191909152509295506118a8945050505050565b6103f46004803603604081101561076557600080fd5b810190602081018135600160201b81111561077f57600080fd5b82018360208201111561079157600080fd5b803590602001918460018302840111600160201b831117156107b257600080fd5b91908080601f0160208091040260200160405190810160405280939291908181526020018383808284376000920191909152509295949360208101935035915050600160201b81111561080457600080fd5b82018360208201111561081657600080fd5b803590602001918460018302840111600160201b8311171561083757600080fd5b91908080601f016020809104026020016040519081016040528093929190818152602001838380828437600092019190915250929550612246945050505050565b6108956004803603602081101561088e57600080fd5b5035612604565b60405180806020018a815260200180602001806020018060200189815260200188815260200187815260200186815260200185810385528e818151815260200191508051906020019080838360005b838110156108fc5781810151838201526020016108e4565b50505050905090810190601f1680156109295780820380516001836020036101000a031916815260200191505b5085810384528c5181528c516020918201918e019080838360005b8381101561095c578181015183820152602001610944565b50505050905090810190601f1680156109895780820380516001836020036101000a031916815260200191505b5085810383528b5181528b516020918201918d019080838360005b838110156109bc5781810151838201526020016109a4565b50505050905090810190601f1680156109e95780820380516001836020036101000a031916815260200191505b5085810382528a5181528a516020918201918c019080838360005b83811015610a1c578181015183820152602001610a04565b50505050905090810190601f168015610a495780820380516001836020036101000a031916815260200191505b509d505050505050505050505050505060405180910390f35b6103f460048036036020811015610a7857600080fd5b810190602081018135600160201b811115610a9257600080fd5b820183602082011115610aa457600080fd5b803590602001918460018302840111600160201b83111715610ac557600080fd5b91908080601f01602080910402602001604051908101604052809392919081815260200183838082843760009201919091525092955061287e945050505050565b6103f460048036036080811015610b1c57600080fd5b810190602081018135600160201b811115610b3657600080fd5b820183602082011115610b4857600080fd5b803590602001918460018302840111600160201b83111715610b6957600080fd5b91908080601f0160208091040260200160405190810160405280939291908181526020018383808284376000920191909152509295949360208101935035915050600160201b811115610bbb57600080fd5b820183602082011115610bcd57600080fd5b803590602001918460018302840111600160201b83111715610bee57600080fd5b91908080601f0160208091040260200160405190810160405280939291908181526020018383808284376000920191909152509295949360208101935035915050600160201b811115610c4057600080fd5b820183602082011115610c5257600080fd5b803590602001918460018302840111600160201b83111715610c7357600080fd5b91908080601f0160208091040260200160405190810160405280939291908181526020018383808284376000920191909152509295949360208101935035915050600160201b811115610cc557600080fd5b820183602082011115610cd757600080fd5b803590602001918460018302840111600160201b83111715610cf857600080fd5b91908080601f016020809104026020016040519081016040528093929190818152602001838380828437600092019190915250929550612884945050505050565b6103f460048036036040811015610d4f57600080fd5b810190602081018135600160201b811115610d6957600080fd5b820183602082011115610d7b57600080fd5b803590602001918460018302840111600160201b83111715610d9c57600080fd5b91908080601f0160208091040260200160405190810160405280939291908181526020018383808284376000920191909152509295505091359250612c85915050565b6103f460048036036040811015610df557600080fd5b810190602081018135600160201b811115610e0f57600080fd5b820183602082011115610e2157600080fd5b803590602001918460018302840111600160201b83111715610e4257600080fd5b91908080601f0160208091040260200160405190810160405280939291908181526020018383808284376000920191909152509295949360208101935035915050600160201b811115610e9457600080fd5b820183602082011115610ea657600080fd5b803590602001918460018302840111600160201b83111715610ec757600080fd5b91908080601f016020809104026020016040519081016040528093929190818152602001838380828437600092019190915250929550612d3d945050505050565b6103f460048036036020811015610f1e57600080fd5b50356130ae565b61010c60048036036020811015610f3b57600080fd5b810190602081018135600160201b811115610f5557600080fd5b820183602082011115610f6757600080fd5b803590602001918460018302840111600160201b83111715610f8857600080fd5b91908080601f0160208091040260200160405190810160405280939291908181526020018383808284376000920191909152509295506130fb945050505050565b6103f460048036036040811015610fdf57600080fd5b810190602081018135600160201b811115610ff957600080fd5b82018360208201111561100b57600080fd5b803590602001918460018302840111600160201b8311171561102c57600080fd5b91908080601f0160208091040260200160405190810160405280939291908181526020018383808284376000920191909152509295505091359250613449915050565b61107761382b565b60408051918252519081900360200190f35b6000606080606080600080600188815481106110a157fe5b906000526020600020906008020160000154600189815481106110c057fe5b906000526020600020906008020160010160018a815481106110de57fe5b906000526020600020906008020160020160018b815481106110fc57fe5b906000526020600020906008020160030160018c8154811061111a57fe5b906000526020600020906008020160040160018d8154811061113857fe5b90600052602060002090600802016005015460018e8154811061115757fe5b600091825260209182902060066008909202010154865460408051601f6002600019610100600187161502019094169390930492830185900485028101850190915281815291928891908301828280156111f25780601f106111c7576101008083540402835291602001916111f2565b820191906000526020600020905b8154815290600101906020018083116111d557829003601f168201915b5050885460408051602060026001851615610100026000190190941693909304601f8101849004840282018401909252818152959b508a9450925084019050828280156112805780601f1061125557610100808354040283529160200191611280565b820191906000526020600020905b81548152906001019060200180831161126357829003601f168201915b5050875460408051602060026001851615610100026000190190941693909304601f8101849004840282018401909252818152959a508994509250840190508282801561130e5780601f106112e35761010080835404028352916020019161130e565b820191906000526020600020905b8154815290600101906020018083116112f157829003601f168201915b5050865460408051602060026001851615610100026000190190941693909304601f81018490048402820184019092528181529599508894509250840190508282801561139c5780601f106113715761010080835404028352916020019161139c565b820191906000526020600020905b81548152906001019060200180831161137f57829003601f168201915b505050505092509650965096509650965096509650919395979092949650565b600080836040516020018082805190602001908083835b602083106113f25780518252601f1990920191602091820191016113d3565b6001836020036101000a038019825116818451168082178552505050505050905001915050604051602081830303815290604052805190602001209050611438816130ae565b1515600114611485576040805162461bcd60e51b8152602060048201526014602482015273657374617465206e6f7420696e2073797374656d60601b604482015290519081900360640190fd5b60008181526020818152604090912084516114a89260039092019186019061396b565b506000818152602081905260409020600601546001805485929081106114ca57fe5b906000526020600020906008020160030190805190602001906114ee92919061396b565b5080600080516020613a4c833981519152600080848152602001908152602001600020600601548660008086815260200190815260200160002060020187600080888152602001908152602001600020600401600080898152602001908152602001600020600501546000808a8152602001908152602001600020600701546000808b815260200190815260200160002060080154604051808981526020018060200180602001806020018060200188815260200187815260200186815260200185810385528c818151815260200191508051906020019080838360005b838110156115e45781810151838201526020016115cc565b50505050905090810190601f1680156116115780820380516001836020036101000a031916815260200191505b5085810384528b54600260001961010060018416150201909116048082526020909101908c9080156116845780601f1061165957610100808354040283529160200191611684565b820191906000526020600020905b81548152906001019060200180831161166757829003601f168201915b505085810383528a5181528a516020918201918c019080838360005b838110156116b85781810151838201526020016116a0565b50505050905090810190601f1680156116e55780820380516001836020036101000a031916815260200191505b5085810382528954600260001961010060018416150201909116048082526020909101908a9080156117585780601f1061172d57610100808354040283529160200191611758565b820191906000526020600020905b81548152906001019060200180831161173b57829003601f168201915b50509c5050505050505050505050505060405180910390a25060019392505050565b600081815260208190526040902060046005820181905560069091015460018054606093929081106117a857fe5b906000526020600020906008020160050181905550817fa6192d29121ec9abfc29b3ec78642ace4231657726c3de13315db4a4257eea7a600080858152602001908152602001600020600601546040518082815260200191505060405180910390a26000828152602081815260409182902080548351601f60026000196101006001861615020190931692909204918201849004840281018401909452808452909183018282801561189b5780601f106118705761010080835404028352916020019161189b565b820191906000526020600020905b81548152906001019060200180831161187e57829003601f168201915b505050505090505b919050565b600080866040516020018082805190602001908083835b602083106118de5780518252601f1990920191602091820191016118bf565b6001836020036101000a038019825116818451168082178552505050505050905001915050604051602081830303815290604052805190602001209050611924816130ae565b1515600114611971576040805162461bcd60e51b8152602060048201526014602482015273657374617465206e6f7420696e2073797374656d60601b604482015290519081900360640190fd5b6000818152602081905260408120600601545b87518210156122375787828151811061199957fe5b602002602001015160011415611c865760008381526020818152604090912088516119cc926002909201918a019061396b565b5086600182815481106119db57fe5b906000526020600020906008020160020190805190602001906119ff92919061396b565b5082600080516020613a4c833981519152600080868152602001908152602001600020600601548b8a6000808981526020019081526020016000206003016000808a81526020019081526020016000206004016000808b8152602001908152602001600020600501546000808c8152602001908152602001600020600701546000808d815260200190815260200160002060080154604051808981526020018060200180602001806020018060200188815260200187815260200186815260200185810385528c818151815260200191508051906020019080838360005b83811015611af5578181015183820152602001611add565b50505050905090810190601f168015611b225780820380516001836020036101000a031916815260200191505b5085810384528b5181528b516020918201918d019080838360005b83811015611b55578181015183820152602001611b3d565b50505050905090810190601f168015611b825780820380516001836020036101000a031916815260200191505b5085810383528a54600260001961010060018416150201909116048082526020909101908b908015611bf55780601f10611bca57610100808354040283529160200191611bf5565b820191906000526020600020905b815481529060010190602001808311611bd857829003601f168201915b505085810382528954600260001961010060018416150201909116048082526020909101908a908015611c695780601f10611c3e57610100808354040283529160200191611c69565b820191906000526020600020905b815481529060010190602001808311611c4c57829003601f168201915b50509c5050505050505050505050505060405180910390a261222c565b878281518110611c9257fe5b602002602001015160021415611f37576000838152602081815260409091208751611cc59260039092019189019061396b565b508560018281548110611cd457fe5b90600052602060002090600802016003019080519060200190611cf892919061396b565b5082600080516020613a4c833981519152600080868152602001908152602001600020600601548b6000808881526020019081526020016000206002018a6000808a81526020019081526020016000206004016000808b8152602001908152602001600020600501546000808c8152602001908152602001600020600701546000808d815260200190815260200160002060080154604051808981526020018060200180602001806020018060200188815260200187815260200186815260200185810385528c818151815260200191508051906020019080838360005b83811015611dee578181015183820152602001611dd6565b50505050905090810190601f168015611e1b5780820380516001836020036101000a031916815260200191505b5085810384528b54600260001961010060018416150201909116048082526020909101908c908015611e8e5780601f10611e6357610100808354040283529160200191611e8e565b820191906000526020600020905b815481529060010190602001808311611e7157829003601f168201915b505085810383528a5181528a516020918201918c019080838360005b83811015611ec2578181015183820152602001611eaa565b50505050905090810190601f168015611eef5780820380516001836020036101000a031916815260200191505b5085810382528954600260001961010060018416150201909116048082526020909101908a908015611c695780601f10611c3e57610100808354040283529160200191611c69565b878281518110611f4357fe5b60200260200101516003141561222c576000838152602081815260409091208651611f769260049092019188019061396b565b508460018281548110611f8557fe5b90600052602060002090600802016004019080519060200190611fa992919061396b565b5082600080516020613a4c833981519152600080868152602001908152602001600020600601548b6000808881526020019081526020016000206002016000808981526020019081526020016000206003018a6000808b8152602001908152602001600020600501546000808c8152602001908152602001600020600701546000808d815260200190815260200160002060080154604051808981526020018060200180602001806020018060200188815260200187815260200186815260200185810385528c818151815260200191508051906020019080838360005b8381101561209f578181015183820152602001612087565b50505050905090810190601f1680156120cc5780820380516001836020036101000a031916815260200191505b5085810384528b54600260001961010060018416150201909116048082526020909101908c90801561213f5780601f106121145761010080835404028352916020019161213f565b820191906000526020600020905b81548152906001019060200180831161212257829003601f168201915b505085810383528a54600260001961010060018416150201909116048082526020909101908b9080156121b35780601f10612188576101008083540402835291602001916121b3565b820191906000526020600020905b81548152906001019060200180831161219657829003601f168201915b505085810382528951815289516020918201918b019080838360005b838110156121e75781810151838201526020016121cf565b50505050905090810190601f1680156122145780820380516001836020036101000a031916815260200191505b509c5050505050505050505050505060405180910390a25b600190910190611984565b50600198975050505050505050565b600080836040516020018082805190602001908083835b6020831061227c5780518252601f19909201916020918201910161225d565b6001836020036101000a0380198251168184511680821785525050505050509050019150506040516020818303038152906040528051906020012090506122c2816130ae565b151560011461230f576040805162461bcd60e51b8152602060048201526014602482015273657374617465206e6f7420696e2073797374656d60601b604482015290519081900360640190fd5b60008181526020818152604090912084516123329260049092019186019061396b565b5060008181526020819052604090206006015460018054859290811061235457fe5b9060005260206000209060080201600401908051906020019061237892919061396b565b5080600080516020613a4c833981519152600080848152602001908152602001600020600601548660008086815260200190815260200160002060020160008087815260200190815260200160002060030188600080898152602001908152602001600020600501546000808a8152602001908152602001600020600701546000808b815260200190815260200160002060080154604051808981526020018060200180602001806020018060200188815260200187815260200186815260200185810385528c818151815260200191508051906020019080838360005b8381101561246e578181015183820152602001612456565b50505050905090810190601f16801561249b5780820380516001836020036101000a031916815260200191505b5085810384528b54600260001961010060018416150201909116048082526020909101908c90801561250e5780601f106124e35761010080835404028352916020019161250e565b820191906000526020600020905b8154815290600101906020018083116124f157829003601f168201915b505085810383528a54600260001961010060018416150201909116048082526020909101908b9080156125825780601f1061255757610100808354040283529160200191612582565b820191906000526020600020905b81548152906001019060200180831161256557829003601f168201915b505085810382528951815289516020918201918b019080838360005b838110156125b657818101518382015260200161259e565b50505050905090810190601f1680156125e35780820380516001836020036101000a031916815260200191505b509c5050505050505050505050505060405180910390a25060019392505050565b6000602081815291815260409081902080548251601f6002600019610100600186161502019093169290920491820185900485028101850190935280835290928391908301828280156126985780601f1061266d57610100808354040283529160200191612698565b820191906000526020600020905b81548152906001019060200180831161267b57829003601f168201915b505050505090806001015490806002018054600181600116156101000203166002900480601f01602080910402602001604051908101604052809291908181526020018280546001816001161561010002031660029004801561273c5780601f106127115761010080835404028352916020019161273c565b820191906000526020600020905b81548152906001019060200180831161271f57829003601f168201915b5050505060038301805460408051602060026001851615610100026000190190941693909304601f81018490048402820184019092528181529495949350908301828280156127cc5780601f106127a1576101008083540402835291602001916127cc565b820191906000526020600020905b8154815290600101906020018083116127af57829003601f168201915b5050505060048301805460408051602060026001851615610100026000190190941693909304601f810184900484028201840190925281815294959493509083018282801561285c5780601f106128315761010080835404028352916020019161285c565b820191906000526020600020905b81548152906001019060200180831161283f57829003601f168201915b5050505050908060050154908060060154908060070154908060080154905089565b50600090565b600080856040516020018082805190602001908083835b602083106128ba5780518252601f19909201916020918201910161289b565b6001836020036101000a038019825116818451168082178552505050505050905001915050604051602081830303815290604052805190602001209050612900816130ae565b151560011415612957576040805162461bcd60e51b815260206004820152601860248201527f65737461746520616c6c7265647920696e2073797374656d0000000000000000604482015290519081900360640190fd5b60008181526020818152604090912087516129749289019061396b565b506000818152602081815260409091206001808201849055600582015586516129a59260029092019188019061396b565b5060008181526020818152604090912085516129c99260039092019187019061396b565b5060008181526020818152604090912084516129ed9260049092019186019061396b565b5060008181526020819052604081206007810182905560080155612a148187878787613832565b50600180805490500360008083815260200190815260200160002060060181905550807f246a4042974c4275523f2c4caeb7d6b6958677a3b6ce82df8ff1fdcbf73069ff6000808481526020019081526020016000206006015488888888600080898152602001908152602001600020600501546000808a8152602001908152602001600020600701546000808b815260200190815260200160002060080154604051808981526020018060200180602001806020018060200188815260200187815260200186815260200185810385528c818151815260200191508051906020019080838360005b83811015612b15578181015183820152602001612afd565b50505050905090810190601f168015612b425780820380516001836020036101000a031916815260200191505b5085810384528b5181528b516020918201918d019080838360005b83811015612b75578181015183820152602001612b5d565b50505050905090810190601f168015612ba25780820380516001836020036101000a031916815260200191505b5085810383528a5181528a516020918201918c019080838360005b83811015612bd5578181015183820152602001612bbd565b50505050905090810190601f168015612c025780820380516001836020036101000a031916815260200191505b5085810382528951815289516020918201918b019080838360005b83811015612c35578181015183820152602001612c1d565b50505050905090810190601f168015612c625780820380516001836020036101000a031916815260200191505b509c5050505050505050505050505060405180910390a250600195945050505050565b600080836040516020018082805190602001908083835b60208310612cbb5780518252601f199092019160209182019101612c9c565b51815160209384036101000a60001901801990921691161790526040805192909401828103601f19018352845281519181019190912060008181529182905292902060058101889055600601546001805493965088955093509182109050612d1f57fe5b60009182526020909120600560089092020101555060019392505050565b600080836040516020018082805190602001908083835b60208310612d735780518252601f199092019160209182019101612d54565b6001836020036101000a038019825116818451168082178552505050505050905001915050604051602081830303815290604052805190602001209050612db9816130ae565b1515600114612e06576040805162461bcd60e51b8152602060048201526014602482015273657374617465206e6f7420696e2073797374656d60601b604482015290519081900360640190fd5b6000818152602081815260409091208451612e299260029092019186019061396b565b50600081815260208190526040902060060154600180548592908110612e4b57fe5b90600052602060002090600802016002019080519060200190612e6f92919061396b565b5080600080516020613a4c833981519152600080848152602001908152602001600020600601548686600080878152602001908152602001600020600301600080888152602001908152602001600020600401600080898152602001908152602001600020600501546000808a8152602001908152602001600020600701546000808b815260200190815260200160002060080154604051808981526020018060200180602001806020018060200188815260200187815260200186815260200185810385528c818151815260200191508051906020019080838360005b83811015612f65578181015183820152602001612f4d565b50505050905090810190601f168015612f925780820380516001836020036101000a031916815260200191505b5085810384528b5181528b516020918201918d019080838360005b83811015612fc5578181015183820152602001612fad565b50505050905090810190601f168015612ff25780820380516001836020036101000a031916815260200191505b5085810383528a54600260001961010060018416150201909116048082526020909101908b9080156130655780601f1061303a57610100808354040283529160200191613065565b820191906000526020600020905b81548152906001019060200180831161304857829003601f168201915b505085810382528954600260001961010060018416150201909116048082526020909101908a9080156117585780601f1061172d57610100808354040283529160200191611758565b6001546000906130c0575060006118a3565b6000828152602081905260409020600601546001805484929081106130e157fe5b906000526020600020906008020160000154149050919050565b60006060806060806000806000886040516020018082805190602001908083835b6020831061313b5780518252601f19909201916020918201910161311c565b6001836020036101000a038019825116818451168082178552505050505050905001915050604051602081830303815290604052805190602001209050613181816130ae565b15156001146131ce576040805162461bcd60e51b8152602060048201526014602482015273657374617465206e6f7420696e2073797374656d60601b604482015290519081900360640190fd5b600081815260208181526040918290206005810154600782015482548551600260018316156101000260001901909216829004601f81018790048702820187019097528681528796949591860194600387019460048801949093909291889183018282801561327e5780601f106132535761010080835404028352916020019161327e565b820191906000526020600020905b81548152906001019060200180831161326157829003601f168201915b5050885460408051602060026001851615610100026000190190941693909304601f8101849004840282018401909252818152959b508a94509250840190508282801561330c5780601f106132e15761010080835404028352916020019161330c565b820191906000526020600020905b8154815290600101906020018083116132ef57829003601f168201915b5050875460408051602060026001851615610100026000190190941693909304601f8101849004840282018401909252818152959a508994509250840190508282801561339a5780601f1061336f5761010080835404028352916020019161339a565b820191906000526020600020905b81548152906001019060200180831161337d57829003601f168201915b5050865460408051602060026001851615610100026000190190941693909304601f8101849004840282018401909252818152959950889450925084019050828280156134285780601f106133fd57610100808354040283529160200191613428565b820191906000526020600020905b81548152906001019060200180831161340b57829003601f168201915b50505050509250975097509750975097509750975050919395979092949650565b600080836040516020018082805190602001908083835b6020831061347f5780518252601f199092019160209182019101613460565b6001836020036101000a0380198251168184511680821785525050505050509050019150506040516020818303038152906040528051906020012090506134c5816130ae565b1515600114613512576040805162461bcd60e51b8152602060048201526014602482015273657374617465206e6f7420696e2073797374656d60601b604482015290519081900360640190fd5b6000818152602081905260408120600881015460079091015460018201910285018161353a57fe5b6000848152602081905260409020600881018054600190810190915592909104600782018190556006909101548254919350839291811061357757fe5b90600052602060002090600802016006018190555081600080516020613a4c83398151915260008085815260200190815260200160002060060154876000808781526020019081526020016000206002016000808881526020019081526020016000206003016000808981526020019081526020016000206004016000808a815260200190815260200160002060050154886000808c815260200190815260200160002060080154604051808981526020018060200180602001806020018060200188815260200187815260200186815260200185810385528c818151815260200191508051906020019080838360005b83811015613680578181015183820152602001613668565b50505050905090810190601f1680156136ad5780820380516001836020036101000a031916815260200191505b5085810384528b54600260001961010060018416150201909116048082526020909101908c9080156137205780601f106136f557610100808354040283529160200191613720565b820191906000526020600020905b81548152906001019060200180831161370357829003601f168201915b505085810383528a54600260001961010060018416150201909116048082526020909101908b9080156137945780601f1061376957610100808354040283529160200191613794565b820191906000526020600020905b81548152906001019060200180831161377757829003601f168201915b505085810382528954600260001961010060018416150201909116048082526020909101908a9080156138085780601f106137dd57610100808354040283529160200191613808565b820191906000526020600020905b8154815290600101906020018083116137eb57829003601f168201915b50509c5050505050505050505050505060405180910390a2506001949350505050565b6001545b90565b600061383c6139e9565b8681526020808201878152604083018790526060830186905260808301859052600160a08401819052600060c0850181905260e08501819052815480830180845592909152845160089091027fb10e2d527612073b26eecdfd717e6a320cf44b4afac2b0732d9fcbe2b7fa0cf68101918255925180519294869492936138e8937fb10e2d527612073b26eecdfd717e6a320cf44b4afac2b0732d9fcbe2b7fa0cf701929091019061396b565b506040820151805161390491600284019160209091019061396b565b506060820151805161392091600384019160209091019061396b565b506080820151805161393c91600484019160209091019061396b565b5060a0820151600582015560c0820151600682015560e090910151600790910155506001979650505050505050565b828054600181600116156101000203166002900490600052602060002090601f016020900481019282601f106139ac57805160ff19168380011785556139d9565b828001600101855582156139d9579182015b828111156139d95782518255916020019190600101906139be565b506139e5929150613a31565b5090565b60405180610100016040528060008019168152602001606081526020016060815260200160608152602001606081526020016000815260200160008152602001600081525090565b61382f91905b808211156139e55760008155600101613a3756fe58cebce272a835015f35982cbf4118b7786b73ba7d86fa0a0032928e2ea15ef2a265627a7a723158201e626440c71efc5996260e78e7472143ca7aa7f0f6cf35b5f9488b760298afcb64736f6c63430005100032",
  "source": "pragma solidity >=0.4.21 <0.6.0;\n\ncontract EstateContract {\n\n    struct Estate{\n        string estateName;\n        bytes32 estateNameCode;\n        string estateAddress;\n        string ownerName;\n        string contactnumberAndEmail;\n        uint estateAccess;\n        uint index;\n        uint rate;\n        uint unit;\n    }\n\n    struct DisplayEstate{\n        bytes32 estateNameCode;\n        string estateName;\n        string estateAddress;\n        string ownerName;\n        string contactnumberAndEmail;\n        uint estateAccess;\n        uint rate;\n        uint unit;\n    }\n\n    event LogNewEstate(\n        bytes32 indexed estateNameCode,\n        uint index,string estateName,\n        string estateAddress,\n        string ownerName,\n        string contactnumberAndEmail,\n        uint estateAccess,\n        uint rate,\n        uint unit\n        );\n    event LogUpdateEstate(\n        bytes32 indexed estateNameCode,\n        uint index,string estateName,\n        string estateAddress,\n        string ownerName,\n        string contactnumberAndEmail,\n        uint estateAccess,\n        uint rate,\n        uint unit\n        );\n    event LogDeleteEstate(\n        bytes32 indexed estateNamecode,\n        uint index\n        );\n\n    mapping(bytes32 => Estate) public EstateArray;\n    DisplayEstate[] private EstateIndex;\n\n    function isEstate(bytes32 _estateNameCode)public view returns(bool isIndeed) {\n        if(EstateIndex.length == 0) return false;\n        return (EstateIndex[EstateArray[_estateNameCode].index].estateNameCode == _estateNameCode);\n    }\n\n    function setDisplayEstate\n    (bytes32 _estateNameCode,string memory _estateName,string memory _estateAddress,string memory _ownerName,string memory _contactnumberAndEmail)\n     private returns(bool){\n\n        DisplayEstate memory displayEstate;\n        displayEstate.estateNameCode = _estateNameCode;\n        displayEstate.estateName = _estateName;\n        displayEstate.estateAddress = _estateAddress;\n        displayEstate.ownerName = _ownerName;\n        displayEstate.contactnumberAndEmail = _contactnumberAndEmail;\n        displayEstate.estateAccess = 1;\n        displayEstate.rate = 0;\n        displayEstate.unit = 0;\n        EstateIndex.push(displayEstate);\n        return true;\n\n    }\n    function insertEstate\n    (string memory _estateName,string memory _estateAddress,string memory _ownerName,string memory _contactnumberAndEmail) public returns(bool){\n        bytes32 _estateNameCode = keccak256(abi.encodePacked((_estateName)));\n        require(isEstate(_estateNameCode) != true,'estate allredy in system');\n\n        EstateArray[_estateNameCode].estateName = _estateName;\n        EstateArray[_estateNameCode].estateNameCode = _estateNameCode;\n        EstateArray[_estateNameCode].estateAccess = 1;\n        EstateArray[_estateNameCode].estateAddress = _estateAddress;\n        EstateArray[_estateNameCode].ownerName = _ownerName;\n        EstateArray[_estateNameCode].contactnumberAndEmail = _contactnumberAndEmail;\n        EstateArray[_estateNameCode].rate = 0;\n        EstateArray[_estateNameCode].unit = 0;\n        setDisplayEstate(_estateNameCode,_estateName,_estateAddress,_ownerName,_contactnumberAndEmail);\n        EstateArray[_estateNameCode].index = EstateIndex.length-1;\n\n        emit LogNewEstate (\n            _estateNameCode,\n            EstateArray[_estateNameCode].index,\n            _estateName,\n            _estateAddress,\n            _ownerName,\n            _contactnumberAndEmail,\n            EstateArray[_estateNameCode].estateAccess,\n            EstateArray[_estateNameCode].rate,\n            EstateArray[_estateNameCode].unit\n            );\n        return true;\n    }\n    function deleteEstate (bytes32 _estateNameCode) public returns(string memory){\n        EstateArray[_estateNameCode].estateAccess = 4;\n        EstateIndex[EstateArray[_estateNameCode].index].estateAccess = 4;\n        emit LogDeleteEstate(\n            _estateNameCode,\n            EstateArray[_estateNameCode].index\n        );\n        return  EstateArray[_estateNameCode].estateName;\n    }\n\n    function getEstate(string memory _estateName) public view returns\n    (bytes32,string memory estateName,string memory ownerName,string memory contactnumberAndEmail,\n    string memory estateAddress, uint estateAccess,uint rate){\n        bytes32 _estateNameCode = keccak256(abi.encodePacked((_estateName)));\n        require(isEstate(_estateNameCode) == true,'estate not in system');\n        return(\n            _estateNameCode,\n            EstateArray[_estateNameCode].estateName,\n            EstateArray[_estateNameCode].estateAddress,\n            EstateArray[_estateNameCode].ownerName,\n            EstateArray[_estateNameCode].contactnumberAndEmail,\n            EstateArray[_estateNameCode].estateAccess,\n            EstateArray[_estateNameCode].rate\n            );\n    }\n    function getEstatei(uint i) public view returns(\n        bytes32,\n        string memory,\n        string memory,\n        string memory,\n        string memory,\n        uint,\n        uint\n        ){\n            return (\n                EstateIndex[i].estateNameCode,\n                EstateIndex[i].estateName,\n                EstateIndex[i].estateAddress,\n                EstateIndex[i].ownerName,\n                EstateIndex[i].contactnumberAndEmail,\n                EstateIndex[i].estateAccess,\n                EstateIndex[i].rate\n                );\n    }\n    function getEstateCount() public view returns(uint)\n    {\n        return EstateIndex.length;\n    }\n\n    // function updateUserestateName(address weight, bytes32 estateestateName) public returns(bool success)\n    // {\n    //     estateStructs[weight].estateestateName = estateestateName;\n    //     emit LogUpdateUser(weight,  estateStructs[weight].index, estateestateName, estateStructs[weight].estateAge);\n    //     return true;\n    // }\n    function updateEstateEstateAddress (string memory _estateName,string memory _estateAddress) public returns(bool success){\n        bytes32 _estateNameCode = keccak256(abi.encodePacked((_estateName)));\n        require(isEstate(_estateNameCode) == true,'estate not in system');\n        EstateArray[_estateNameCode].estateAddress = _estateAddress;\n        EstateIndex[EstateArray[_estateNameCode].index].estateAddress = _estateAddress;\n        emit LogUpdateEstate(\n            _estateNameCode,\n            EstateArray[_estateNameCode].index,\n            _estateName,\n            _estateAddress,\n            EstateArray[_estateNameCode].ownerName,\n            EstateArray[_estateNameCode].contactnumberAndEmail,\n            EstateArray[_estateNameCode].estateAccess,\n            EstateArray[_estateNameCode].rate,\n            EstateArray[_estateNameCode].unit\n            );\n        return true;\n    }\n    function updateEstateOwnerName (string memory _estateName,string memory _ownerName) public returns(bool success){\n        bytes32 _estateNameCode = keccak256(abi.encodePacked((_estateName)));\n        require(isEstate(_estateNameCode) == true,'estate not in system');\n        EstateArray[_estateNameCode].ownerName = _ownerName;\n        EstateIndex[EstateArray[_estateNameCode].index].ownerName = _ownerName;\n        emit LogUpdateEstate(\n            _estateNameCode,\n            EstateArray[_estateNameCode].index,\n            _estateName,\n            EstateArray[_estateNameCode].estateAddress,\n            _ownerName,\n            EstateArray[_estateNameCode].contactnumberAndEmail,\n            EstateArray[_estateNameCode].estateAccess,\n            EstateArray[_estateNameCode].rate,\n            EstateArray[_estateNameCode].unit\n            );\n        return true;\n    }\n    function updateContactnumberAndEmail (string memory _estateName,string memory _contactnumberAndEmail) public returns(bool success){\n        bytes32 _estateNameCode = keccak256(abi.encodePacked((_estateName)));\n        require(isEstate(_estateNameCode) == true,'estate not in system');\n        EstateArray[_estateNameCode].contactnumberAndEmail = _contactnumberAndEmail;\n        EstateIndex[EstateArray[_estateNameCode].index].contactnumberAndEmail = _contactnumberAndEmail;\n        emit LogUpdateEstate(\n            _estateNameCode,\n            EstateArray[_estateNameCode].index,\n            _estateName,\n            EstateArray[_estateNameCode].estateAddress,\n            EstateArray[_estateNameCode].ownerName,\n            _contactnumberAndEmail,\n            EstateArray[_estateNameCode].estateAccess,\n            EstateArray[_estateNameCode].rate,\n            EstateArray[_estateNameCode].unit\n            );\n        return true;\n    }\n    function updateEstate(\n        string memory _estateName,\n        uint[] memory index,\n        string memory _estateAddress,\n        string memory _ownerName,\n        string memory _contactnumberAndEmail\n        ) public returns(bool success){\n        bytes32 _estateNameCode = keccak256(abi.encodePacked((_estateName)));\n        require(isEstate(_estateNameCode) == true,'estate not in system');\n        uint i;\n        uint num = EstateArray[_estateNameCode].index;\n\n        for (i = 0;i<index.length;i++){\n            if(index[i]==1){\n                EstateArray[_estateNameCode].estateAddress = _estateAddress;\n                EstateIndex[num].estateAddress = _estateAddress;\n                emit LogUpdateEstate(\n                    _estateNameCode,\n                    EstateArray[_estateNameCode].index,\n                    _estateName,\n                    _estateAddress,\n                    EstateArray[_estateNameCode].ownerName,\n                    EstateArray[_estateNameCode].contactnumberAndEmail,\n                    EstateArray[_estateNameCode].estateAccess,\n                    EstateArray[_estateNameCode].rate,\n                    EstateArray[_estateNameCode].unit\n                    );\n\n            }\n            else if(index[i]==2){\n                EstateArray[_estateNameCode].ownerName = _ownerName;\n                EstateIndex[num].ownerName = _ownerName;\n                emit LogUpdateEstate(\n                    _estateNameCode,\n                    EstateArray[_estateNameCode].index,\n                    _estateName,\n                    EstateArray[_estateNameCode].estateAddress,\n                    _ownerName,\n                    EstateArray[_estateNameCode].contactnumberAndEmail,\n                    EstateArray[_estateNameCode].estateAccess,\n                    EstateArray[_estateNameCode].rate,\n                    EstateArray[_estateNameCode].unit\n                    );\n\n            }\n            else if(index[i]==3){\n                EstateArray[_estateNameCode].contactnumberAndEmail = _contactnumberAndEmail;\n                EstateIndex[num].contactnumberAndEmail = _contactnumberAndEmail;\n                emit LogUpdateEstate(\n                    _estateNameCode,\n                    EstateArray[_estateNameCode].index,\n                    _estateName,\n                    EstateArray[_estateNameCode].estateAddress,\n                    EstateArray[_estateNameCode].ownerName,\n                    _contactnumberAndEmail,\n                    EstateArray[_estateNameCode].estateAccess,\n                    EstateArray[_estateNameCode].rate,\n                    EstateArray[_estateNameCode].unit\n                    );\n\n            }\n        }\n        return true;\n    }\n    function editUserAccess(string memory _estateName,uint estateAccess)public returns(bool){\n        bytes32 estateName = keccak256(abi.encodePacked((_estateName)));\n        EstateArray[estateName].estateAccess = estateAccess;\n        EstateIndex[EstateArray[estateName].index].estateAccess = estateAccess;\n        return true;\n\n    }\n    ///////\n    function updateEstateiestateName (string memory _estateName) public returns(bool success){\n       // return true;\n    }\n    function rateEstate (string memory _estateName,uint _rate) public returns(bool success){\n        bytes32 _estateNameCode = keccak256(abi.encodePacked((_estateName)));\n        require(isEstate(_estateNameCode) == true,'estate not in system');\n        uint nrate = (_rate+EstateArray[_estateNameCode].rate*EstateArray[_estateNameCode].unit)/(EstateArray[_estateNameCode].unit+1);\n        EstateArray[_estateNameCode].unit = EstateArray[_estateNameCode].unit + 1;\n        EstateArray[_estateNameCode].rate = nrate;\n        EstateIndex[EstateArray[_estateNameCode].index].rate = nrate;\n        emit LogUpdateEstate(\n            _estateNameCode,\n            EstateArray[_estateNameCode].index,\n            _estateName,\n            EstateArray[_estateNameCode].estateAddress,\n            EstateArray[_estateNameCode].ownerName,\n            EstateArray[_estateNameCode].contactnumberAndEmail,\n            EstateArray[_estateNameCode].estateAccess,\n            nrate,\n            EstateArray[_estateNameCode].unit\n            );\n        return true;\n    }\n    // function createEstatePacket (string memory _estateName,uint _unit) public returns(bool success){\n    //     bytes32 _estateNameCode = keccak256(abi.encodePacked((_estateName)));\n    //     require(isEstate(_estateNameCode) == true,'estate not in system');\n    //     EstateArray[_estateNameCode].rate = _rate;\n    //     EstateIndex[EstateArray[_estateNameCode].index].rate = _rate;\n    //     emit LogUpdateEstate(\n    //         _estateNameCode,\n    //         EstateArray[_estateNameCode].index,\n    //         _estateName,\n    //         EstateArray[_estateNameCode].estateAddress,\n    //         EstateArray[_estateNameCode].ownerName,\n    //         EstateArray[_estateNameCode].weight,\n    //         EstateArray[_estateNameCode].estateAccess,\n    //         _rate,\n    //         EstateArray[_estateNameCode].contactnumberAndEmail,\n    //         EstateArray[_estateNameCode].unit\n    //         );\n    //     return true;\n    // }\n}",
  "sourcePath": "/home/ubuntu/tea-supplychain-manege-system/test2/contracts/Estate.sol",
  "compiler": {
    "name": "solc",
    "version": "0.5.16+commit.9c3226ce.Emscripten.clang"
  },
  "schemaVersion": "3.0.23",
  "updatedAt": "2020-02-14T13:53:54.578Z",
  "networkType": "ethereum",
  "devdoc": {
    "methods": {}
  },
  "userdoc": {
    "methods": {
      "updateEstateiestateName(string)": {
        "notice": "////"
      }
    }
  }
}