{
  "contractName": "LoaderContract",
  "abi": [
    {
      "anonymous": false,
      "inputs": [
        {
          "indexed": true,
          "internalType": "bytes32",
          "name": "emailcode",
          "type": "bytes32"
        },
        {
          "indexed": false,
          "internalType": "uint256",
          "name": "index",
          "type": "uint256"
        }
      ],
      "name": "LogDeleteLoader",
      "type": "event"
    },
    {
      "anonymous": false,
      "inputs": [
        {
          "indexed": true,
          "internalType": "bytes32",
          "name": "emailCode",
          "type": "bytes32"
        },
        {
          "indexed": false,
          "internalType": "uint256",
          "name": "index",
          "type": "uint256"
        },
        {
          "indexed": false,
          "internalType": "string",
          "name": "email",
          "type": "string"
        },
        {
          "indexed": false,
          "internalType": "bytes32",
          "name": "passwordCode",
          "type": "bytes32"
        },
        {
          "indexed": false,
          "internalType": "string",
          "name": "name",
          "type": "string"
        },
        {
          "indexed": false,
          "internalType": "uint256",
          "name": "contactNumber",
          "type": "uint256"
        },
        {
          "indexed": false,
          "internalType": "string",
          "name": "userAddress",
          "type": "string"
        },
        {
          "indexed": false,
          "internalType": "uint256",
          "name": "userAccess",
          "type": "uint256"
        }
      ],
      "name": "LogNewLoader",
      "type": "event"
    },
    {
      "anonymous": false,
      "inputs": [
        {
          "indexed": true,
          "internalType": "bytes32",
          "name": "emailCode",
          "type": "bytes32"
        },
        {
          "indexed": false,
          "internalType": "uint256",
          "name": "index",
          "type": "uint256"
        },
        {
          "indexed": false,
          "internalType": "string",
          "name": "email",
          "type": "string"
        },
        {
          "indexed": false,
          "internalType": "bytes32",
          "name": "passwordCode",
          "type": "bytes32"
        },
        {
          "indexed": false,
          "internalType": "string",
          "name": "name",
          "type": "string"
        },
        {
          "indexed": false,
          "internalType": "uint256",
          "name": "contactNumber",
          "type": "uint256"
        },
        {
          "indexed": false,
          "internalType": "string",
          "name": "userAddress",
          "type": "string"
        },
        {
          "indexed": false,
          "internalType": "uint256",
          "name": "userAccess",
          "type": "uint256"
        }
      ],
      "name": "LogUpdateLoader",
      "type": "event"
    },
    {
      "constant": true,
      "inputs": [
        {
          "internalType": "bytes32",
          "name": "",
          "type": "bytes32"
        }
      ],
      "name": "loaderArray",
      "outputs": [
        {
          "internalType": "string",
          "name": "email",
          "type": "string"
        },
        {
          "internalType": "bytes32",
          "name": "emailCode",
          "type": "bytes32"
        },
        {
          "internalType": "bytes32",
          "name": "passwordCode",
          "type": "bytes32"
        },
        {
          "internalType": "string",
          "name": "name",
          "type": "string"
        },
        {
          "internalType": "uint256",
          "name": "contactNumber",
          "type": "uint256"
        },
        {
          "internalType": "string",
          "name": "userAddress",
          "type": "string"
        },
        {
          "internalType": "uint256",
          "name": "userAccess",
          "type": "uint256"
        },
        {
          "internalType": "uint256",
          "name": "index",
          "type": "uint256"
        }
      ],
      "payable": false,
      "stateMutability": "view",
      "type": "function"
    },
    {
      "constant": true,
      "inputs": [
        {
          "internalType": "bytes32",
          "name": "_emailCode",
          "type": "bytes32"
        }
      ],
      "name": "isLoader",
      "outputs": [
        {
          "internalType": "bool",
          "name": "isIndeed",
          "type": "bool"
        }
      ],
      "payable": false,
      "stateMutability": "view",
      "type": "function"
    },
    {
      "constant": false,
      "inputs": [
        {
          "internalType": "string",
          "name": "_email",
          "type": "string"
        }
      ],
      "name": "createLoaderToken",
      "outputs": [
        {
          "internalType": "bytes32",
          "name": "",
          "type": "bytes32"
        }
      ],
      "payable": false,
      "stateMutability": "nonpayable",
      "type": "function"
    },
    {
      "constant": true,
      "inputs": [
        {
          "internalType": "string",
          "name": "_email",
          "type": "string"
        }
      ],
      "name": "getLoaderToken",
      "outputs": [
        {
          "internalType": "bytes32",
          "name": "",
          "type": "bytes32"
        }
      ],
      "payable": false,
      "stateMutability": "view",
      "type": "function"
    },
    {
      "constant": true,
      "inputs": [
        {
          "internalType": "string",
          "name": "_email",
          "type": "string"
        },
        {
          "internalType": "bytes32",
          "name": "_token",
          "type": "bytes32"
        }
      ],
      "name": "checkLoaderToken",
      "outputs": [
        {
          "internalType": "bool",
          "name": "",
          "type": "bool"
        }
      ],
      "payable": false,
      "stateMutability": "view",
      "type": "function"
    },
    {
      "constant": false,
      "inputs": [
        {
          "internalType": "string",
          "name": "_email",
          "type": "string"
        },
        {
          "internalType": "string",
          "name": "_password",
          "type": "string"
        }
      ],
      "name": "setPassword",
      "outputs": [
        {
          "internalType": "bool",
          "name": "",
          "type": "bool"
        }
      ],
      "payable": false,
      "stateMutability": "nonpayable",
      "type": "function"
    },
    {
      "constant": false,
      "inputs": [
        {
          "internalType": "string",
          "name": "_email",
          "type": "string"
        },
        {
          "internalType": "string",
          "name": "_name",
          "type": "string"
        },
        {
          "internalType": "string",
          "name": "_address",
          "type": "string"
        },
        {
          "internalType": "uint256",
          "name": "_telephone",
          "type": "uint256"
        }
      ],
      "name": "insertLoader",
      "outputs": [
        {
          "internalType": "bool",
          "name": "",
          "type": "bool"
        }
      ],
      "payable": false,
      "stateMutability": "nonpayable",
      "type": "function"
    },
    {
      "constant": false,
      "inputs": [
        {
          "internalType": "bytes32",
          "name": "email",
          "type": "bytes32"
        }
      ],
      "name": "deleteLoader",
      "outputs": [
        {
          "internalType": "string",
          "name": "",
          "type": "string"
        }
      ],
      "payable": false,
      "stateMutability": "nonpayable",
      "type": "function"
    },
    {
      "constant": false,
      "inputs": [
        {
          "internalType": "bytes32",
          "name": "email",
          "type": "bytes32"
        }
      ],
      "name": "blockLoader",
      "outputs": [
        {
          "internalType": "string",
          "name": "",
          "type": "string"
        }
      ],
      "payable": false,
      "stateMutability": "nonpayable",
      "type": "function"
    },
    {
      "constant": false,
      "inputs": [
        {
          "internalType": "string",
          "name": "_email",
          "type": "string"
        },
        {
          "internalType": "uint256",
          "name": "usreAccess",
          "type": "uint256"
        }
      ],
      "name": "editUserAccess",
      "outputs": [
        {
          "internalType": "bool",
          "name": "",
          "type": "bool"
        }
      ],
      "payable": false,
      "stateMutability": "nonpayable",
      "type": "function"
    },
    {
      "constant": true,
      "inputs": [
        {
          "internalType": "string",
          "name": "_email",
          "type": "string"
        }
      ],
      "name": "getLoader",
      "outputs": [
        {
          "internalType": "bytes32",
          "name": "",
          "type": "bytes32"
        },
        {
          "internalType": "string",
          "name": "email",
          "type": "string"
        },
        {
          "internalType": "string",
          "name": "name",
          "type": "string"
        },
        {
          "internalType": "uint256",
          "name": "contactNumber",
          "type": "uint256"
        },
        {
          "internalType": "string",
          "name": "userAddress",
          "type": "string"
        },
        {
          "internalType": "uint256",
          "name": "userAccess",
          "type": "uint256"
        }
      ],
      "payable": false,
      "stateMutability": "view",
      "type": "function"
    },
    {
      "constant": true,
      "inputs": [
        {
          "internalType": "uint256",
          "name": "i",
          "type": "uint256"
        }
      ],
      "name": "getLoaderi",
      "outputs": [
        {
          "internalType": "bytes32",
          "name": "",
          "type": "bytes32"
        },
        {
          "internalType": "string",
          "name": "",
          "type": "string"
        },
        {
          "internalType": "string",
          "name": "",
          "type": "string"
        },
        {
          "internalType": "uint256",
          "name": "",
          "type": "uint256"
        },
        {
          "internalType": "string",
          "name": "",
          "type": "string"
        },
        {
          "internalType": "uint256",
          "name": "",
          "type": "uint256"
        }
      ],
      "payable": false,
      "stateMutability": "view",
      "type": "function"
    },
    {
      "constant": true,
      "inputs": [],
      "name": "getLoaderCount",
      "outputs": [
        {
          "internalType": "uint256",
          "name": "",
          "type": "uint256"
        }
      ],
      "payable": false,
      "stateMutability": "view",
      "type": "function"
    },
    {
      "constant": false,
      "inputs": [
        {
          "internalType": "string",
          "name": "_email",
          "type": "string"
        },
        {
          "internalType": "string",
          "name": "_name",
          "type": "string"
        }
      ],
      "name": "updateLoaderName",
      "outputs": [
        {
          "internalType": "bool",
          "name": "success",
          "type": "bool"
        }
      ],
      "payable": false,
      "stateMutability": "nonpayable",
      "type": "function"
    },
    {
      "constant": false,
      "inputs": [
        {
          "internalType": "string",
          "name": "_email",
          "type": "string"
        },
        {
          "internalType": "string",
          "name": "_userAddress",
          "type": "string"
        }
      ],
      "name": "updateLoaderAddress",
      "outputs": [
        {
          "internalType": "bool",
          "name": "success",
          "type": "bool"
        }
      ],
      "payable": false,
      "stateMutability": "nonpayable",
      "type": "function"
    },
    {
      "constant": false,
      "inputs": [
        {
          "internalType": "string",
          "name": "_email",
          "type": "string"
        },
        {
          "internalType": "uint256",
          "name": "_contactNumber",
          "type": "uint256"
        }
      ],
      "name": "updateLoaderContactNumber",
      "outputs": [
        {
          "internalType": "bool",
          "name": "success",
          "type": "bool"
        }
      ],
      "payable": false,
      "stateMutability": "nonpayable",
      "type": "function"
    },
    {
      "constant": false,
      "inputs": [
        {
          "internalType": "string",
          "name": "_email",
          "type": "string"
        },
        {
          "internalType": "uint256[]",
          "name": "index",
          "type": "uint256[]"
        },
        {
          "internalType": "string",
          "name": "_name",
          "type": "string"
        },
        {
          "internalType": "string",
          "name": "_userAddress",
          "type": "string"
        },
        {
          "internalType": "uint256",
          "name": "_contactNumber",
          "type": "uint256"
        }
      ],
      "name": "updateLoader",
      "outputs": [
        {
          "internalType": "bool",
          "name": "success",
          "type": "bool"
        }
      ],
      "payable": false,
      "stateMutability": "nonpayable",
      "type": "function"
    },
    {
      "constant": false,
      "inputs": [
        {
          "internalType": "string",
          "name": "_email",
          "type": "string"
        }
      ],
      "name": "updateLoaderiEmail",
      "outputs": [
        {
          "internalType": "bool",
          "name": "success",
          "type": "bool"
        }
      ],
      "payable": false,
      "stateMutability": "nonpayable",
      "type": "function"
    },
    {
      "constant": true,
      "inputs": [
        {
          "internalType": "bytes32",
          "name": "email",
          "type": "bytes32"
        }
      ],
      "name": "checkLoaderUserAccess",
      "outputs": [
        {
          "internalType": "uint256",
          "name": "userAccess",
          "type": "uint256"
        }
      ],
      "payable": false,
      "stateMutability": "view",
      "type": "function"
    },
    {
      "constant": true,
      "inputs": [
        {
          "internalType": "bytes32",
          "name": "email",
          "type": "bytes32"
        }
      ],
      "name": "checkLoaderPasswordCode",
      "outputs": [
        {
          "internalType": "bytes32",
          "name": "passwordCode",
          "type": "bytes32"
        }
      ],
      "payable": false,
      "stateMutability": "view",
      "type": "function"
    }
  ],
  "bytecode": "0x608060405234801561001057600080fd5b506138d3806100206000396000f3fe608060405234801561001057600080fd5b506004361061012c5760003560e01c806381283fe2116100ad578063ca16496f11610071578063ca16496f14610e0e578063ca38649614610f37578063d8264a0514611060578063ec440dbd1461107d578063f82e70f11461109a5761012c565b806381283fe214610a53578063849f4b0014610c03578063867fd12b14610ca9578063887d77ee14610cc657806394aae85614610d6a5761012c565b80633667afe1116100f45780633667afe11461062657806346dbbb12146108585780636609b7cc146108fe57806376b65fb2146109a4578063770079ee146109c15761012c565b80630bfab7e914610131578063118d1e9914610162578063159d26041461017c5780631f5b9540146103005780631f7d9c3414610429575b600080fd5b61014e6004803603602081101561014757600080fd5b503561113e565b604080519115158252519081900360200190f35b61016a61118c565b60408051918252519081900360200190f35b6101996004803603602081101561019257600080fd5b5035611193565b6040518080602001898152602001888152602001806020018781526020018060200186815260200185815260200184810384528c818151815260200191508051906020019080838360005b838110156101fc5781810151838201526020016101e4565b50505050905090810190601f1680156102295780820380516001836020036101000a031916815260200191505b5084810383528951815289516020918201918b019080838360005b8381101561025c578181015183820152602001610244565b50505050905090810190601f1680156102895780820380516001836020036101000a031916815260200191505b50848103825287518152875160209182019189019080838360005b838110156102bc5781810151838201526020016102a4565b50505050905090810190601f1680156102e95780820380516001836020036101000a031916815260200191505b509b50505050505050505050505060405180910390f35b61014e6004803603604081101561031657600080fd5b810190602081018135600160201b81111561033057600080fd5b82018360208201111561034257600080fd5b803590602001918460018302840111600160201b8311171561036357600080fd5b91908080601f0160208091040260200160405190810160405280939291908181526020018383808284376000920191909152509295949360208101935035915050600160201b8111156103b557600080fd5b8201836020820111156103c757600080fd5b803590602001918460018302840111600160201b831117156103e857600080fd5b91908080601f01602080910402602001604051908101604052809392919081815260200183838082843760009201919091525092955061137e945050505050565b6104cd6004803603602081101561043f57600080fd5b810190602081018135600160201b81111561045957600080fd5b82018360208201111561046b57600080fd5b803590602001918460018302840111600160201b8311171561048c57600080fd5b91908080601f016020809104026020016040519081016040528093929190818152602001838380828437600092019190915250929550611677945050505050565b60405180878152602001806020018060200186815260200180602001858152602001848103845289818151815260200191508051906020019080838360005b8381101561052457818101518382015260200161050c565b50505050905090810190601f1680156105515780820380516001836020036101000a031916815260200191505b5084810383528851815288516020918201918a019080838360005b8381101561058457818101518382015260200161056c565b50505050905090810190601f1680156105b15780820380516001836020036101000a031916815260200191505b50848103825286518152865160209182019188019080838360005b838110156105e45781810151838201526020016105cc565b50505050905090810190601f1680156106115780820380516001836020036101000a031916815260200191505b50995050505050505050505060405180910390f35b61014e600480360360a081101561063c57600080fd5b810190602081018135600160201b81111561065657600080fd5b82018360208201111561066857600080fd5b803590602001918460018302840111600160201b8311171561068957600080fd5b91908080601f0160208091040260200160405190810160405280939291908181526020018383808284376000920191909152509295949360208101935035915050600160201b8111156106db57600080fd5b8201836020820111156106ed57600080fd5b803590602001918460208302840111600160201b8311171561070e57600080fd5b9190808060200260200160405190810160405280939291908181526020018383602002808284376000920191909152509295949360208101935035915050600160201b81111561075d57600080fd5b82018360208201111561076f57600080fd5b803590602001918460018302840111600160201b8311171561079057600080fd5b91908080601f0160208091040260200160405190810160405280939291908181526020018383808284376000920191909152509295949360208101935035915050600160201b8111156107e257600080fd5b8201836020820111156107f457600080fd5b803590602001918460018302840111600160201b8311171561081557600080fd5b91908080601f016020809104026020016040519081016040528093929190818152602001838380828437600092019190915250929550509135925061192b915050565b61014e6004803603604081101561086e57600080fd5b810190602081018135600160201b81111561088857600080fd5b82018360208201111561089a57600080fd5b803590602001918460018302840111600160201b831117156108bb57600080fd5b91908080601f0160208091040260200160405190810160405280939291908181526020018383808284376000920191909152509295505091359250612158915050565b61014e6004803603604081101561091457600080fd5b810190602081018135600160201b81111561092e57600080fd5b82018360208201111561094057600080fd5b803590602001918460018302840111600160201b8311171561096157600080fd5b91908080601f01602080910402602001604051908101604052809392919081815260200183838082843760009201919091525092955050913592506121e4915050565b6104cd600480360360208110156109ba57600080fd5b503561229c565b6109de600480360360208110156109d757600080fd5b503561251f565b6040805160208082528351818301528351919283929083019185019080838360005b83811015610a18578181015183820152602001610a00565b50505050905090810190601f168015610a455780820380516001836020036101000a031916815260200191505b509250505060405180910390f35b61014e60048036036080811015610a6957600080fd5b810190602081018135600160201b811115610a8357600080fd5b820183602082011115610a9557600080fd5b803590602001918460018302840111600160201b83111715610ab657600080fd5b91908080601f0160208091040260200160405190810160405280939291908181526020018383808284376000920191909152509295949360208101935035915050600160201b811115610b0857600080fd5b820183602082011115610b1a57600080fd5b803590602001918460018302840111600160201b83111715610b3b57600080fd5b91908080601f0160208091040260200160405190810160405280939291908181526020018383808284376000920191909152509295949360208101935035915050600160201b811115610b8d57600080fd5b820183602082011115610b9f57600080fd5b803590602001918460018302840111600160201b83111715610bc057600080fd5b91908080601f0160208091040260200160405190810160405280939291908181526020018383808284376000920191909152509295505091359250612687915050565b61014e60048036036040811015610c1957600080fd5b810190602081018135600160201b811115610c3357600080fd5b820183602082011115610c4557600080fd5b803590602001918460018302840111600160201b83111715610c6657600080fd5b91908080601f0160208091040260200160405190810160405280939291908181526020018383808284376000920191909152509295505091359250612a1c915050565b6109de60048036036020811015610cbf57600080fd5b5035612cf8565b61016a60048036036020811015610cdc57600080fd5b810190602081018135600160201b811115610cf657600080fd5b820183602082011115610d0857600080fd5b803590602001918460018302840111600160201b83111715610d2957600080fd5b91908080601f016020809104026020016040519081016040528093929190818152602001838380828437600092019190915250929550612f3d945050505050565b61014e60048036036020811015610d8057600080fd5b810190602081018135600160201b811115610d9a57600080fd5b820183602082011115610dac57600080fd5b803590602001918460018302840111600160201b83111715610dcd57600080fd5b91908080601f016020809104026020016040519081016040528093929190818152602001838380828437600092019190915250929550612fff945050505050565b61014e60048036036040811015610e2457600080fd5b810190602081018135600160201b811115610e3e57600080fd5b820183602082011115610e5057600080fd5b803590602001918460018302840111600160201b83111715610e7157600080fd5b91908080601f0160208091040260200160405190810160405280939291908181526020018383808284376000920191909152509295949360208101935035915050600160201b811115610ec357600080fd5b820183602082011115610ed557600080fd5b803590602001918460018302840111600160201b83111715610ef657600080fd5b91908080601f016020809104026020016040519081016040528093929190818152602001838380828437600092019190915250929550613005945050505050565b61014e60048036036040811015610f4d57600080fd5b810190602081018135600160201b811115610f6757600080fd5b820183602082011115610f7957600080fd5b803590602001918460018302840111600160201b83111715610f9a57600080fd5b91908080601f0160208091040260200160405190810160405280939291908181526020018383808284376000920191909152509295949360208101935035915050600160201b811115610fec57600080fd5b820183602082011115610ffe57600080fd5b803590602001918460018302840111600160201b8311171561101f57600080fd5b91908080601f0160208091040260200160405190810160405280939291908181526020018383808284376000920191909152509295506132b1945050505050565b61016a6004803603602081101561107657600080fd5b50356135be565b61016a6004803603602081101561109357600080fd5b50356135d3565b61016a600480360360208110156110b057600080fd5b810190602081018135600160201b8111156110ca57600080fd5b8201836020820111156110dc57600080fd5b803590602001918460018302840111600160201b831117156110fd57600080fd5b91908080601f0160208091040260200160405190810160405280939291908181526020018383808284376000920191909152509295506135e8945050505050565b60015460009061115057506000611187565b60008281526020819052604090206007015460018054849290811061117157fe5b9060005260206000209060060201600001541490505b919050565b6001545b90565b6000602081815291815260409081902080548251601f6002600019610100600186161502019093169290920491820185900485028101850190935280835290928391908301828280156112275780601f106111fc57610100808354040283529160200191611227565b820191906000526020600020905b81548152906001019060200180831161120a57829003601f168201915b505050505090806001015490806002015490806003018054600181600116156101000203166002900480601f0160208091040260200160405190810160405280929190818152602001828054600181600116156101000203166002900480156112d15780601f106112a6576101008083540402835291602001916112d1565b820191906000526020600020905b8154815290600101906020018083116112b457829003601f168201915b50505050600483015460058401805460408051602060026001851615610100026000190190941693909304601f810184900484028201840190925281815295969395939450908301828280156113685780601f1061133d57610100808354040283529160200191611368565b820191906000526020600020905b81548152906001019060200180831161134b57829003601f168201915b5050505050908060060154908060070154905088565b600080836040516020018082805190602001908083835b602083106113b45780518252601f199092019160209182019101611395565b6001836020036101000a0380198251168184511680821785525050505050509050019150506040516020818303038152906040528051906020012090506113fa8161113e565b1515600114611445576040805162461bcd60e51b815260206004820152601260248201527175736572206e6f7420696e2073797374656d60701b604482015290519081900360640190fd5b6000818152602081815260409091208451611468926005909201918601906137ad565b5060008181526020819052604090206007015460018054859290811061148a57fe5b906000526020600020906006020160040190805190602001906114ae9291906137ad565b50600081815260208181526040808320600781015460028201546004830154600684015485518481529586018390526080860182905260c0860181905260e08688018181528d51918801919091528c518a9960008051602061387f8339815191529996988f9896976003909701968f959491939192606085019260a0860192610100870192908d0191908190849084905b8381101561155757818101518382015260200161153f565b50505050905090810190601f1680156115845780820380516001836020036101000a031916815260200191505b508481038352885460026000196101006001841615020190911604808252602090910190899080156115f75780601f106115cc576101008083540402835291602001916115f7565b820191906000526020600020905b8154815290600101906020018083116115da57829003601f168201915b5050848103825286518152865160209182019188019080838360005b8381101561162b578181015183820152602001611613565b50505050905090810190601f1680156116585780820380516001836020036101000a031916815260200191505b509a505050505050505050505060405180910390a25060019392505050565b600060608060006060600080876040516020018082805190602001908083835b602083106116b65780518252601f199092019160209182019101611697565b6001836020036101000a0380198251168184511680821785525050505050509050019150506040516020818303038152906040528051906020012090506116fc8161113e565b1515600114611747576040805162461bcd60e51b815260206004820152601260248201527175736572206e6f7420696e2073797374656d60701b604482015290519081900360640190fd5b60008181526020818152604091829020600481015460068201548254855160026001831615610100026000190190921691909104601f8101869004860282018601909652858152869593946003860194600587019392918791908301828280156117f25780601f106117c7576101008083540402835291602001916117f2565b820191906000526020600020905b8154815290600101906020018083116117d557829003601f168201915b5050875460408051602060026001851615610100026000190190941693909304601f8101849004840282018401909252818152959a50899450925084019050828280156118805780601f1061185557610100808354040283529160200191611880565b820191906000526020600020905b81548152906001019060200180831161186357829003601f168201915b5050855460408051602060026001851615610100026000190190941693909304601f81018490048402820184019092528181529599508794509250840190508282801561190e5780601f106118e35761010080835404028352916020019161190e565b820191906000526020600020905b8154815290600101906020018083116118f157829003601f168201915b505050505091509650965096509650965096505091939550919395565b600080866040516020018082805190602001908083835b602083106119615780518252601f199092019160209182019101611942565b6001836020036101000a0380198251168184511680821785525050505050509050019150506040516020818303038152906040528051906020012090506119a78161113e565b15156001146119f2576040805162461bcd60e51b815260206004820152601260248201527175736572206e6f7420696e2073797374656d60701b604482015290519081900360640190fd5b6000818152602081905260408120600701545b875182101561214957878281518110611a1a57fe5b602002602001015160011415611c78576000838152602081815260409091208851611a4d926003909201918a01906137ad565b508660018281548110611a5c57fe5b90600052602060002090600602016002019080519060200190611a809291906137ad565b508260008051602061387f833981519152600080868152602001908152602001600020600701548b600080888152602001908152602001600020600201548b6000808a8152602001908152602001600020600401546000808b81526020019081526020016000206005016000808c8152602001908152602001600020600601546040518088815260200180602001878152602001806020018681526020018060200185815260200184810384528a818151815260200191508051906020019080838360005b83811015611b5d578181015183820152602001611b45565b50505050905090810190601f168015611b8a5780820380516001836020036101000a031916815260200191505b5084810383528851815288516020918201918a019080838360005b83811015611bbd578181015183820152602001611ba5565b50505050905090810190601f168015611bea5780820380516001836020036101000a031916815260200191505b50848103825286546002600019610100600184161502019091160480825260209091019087908015611c5d5780601f10611c3257610100808354040283529160200191611c5d565b820191906000526020600020905b815481529060010190602001808311611c4057829003601f168201915b50509a505050505050505050505060405180910390a261213e565b878281518110611c8457fe5b602002602001015160021415611ee2576000838152602081815260409091208751611cb7926005909201918901906137ad565b508560018281548110611cc657fe5b90600052602060002090600602016004019080519060200190611cea9291906137ad565b508260008051602061387f833981519152600080868152602001908152602001600020600701548b600080888152602001908152602001600020600201546000808981526020019081526020016000206003016000808a8152602001908152602001600020600401548c6000808c8152602001908152602001600020600601546040518088815260200180602001878152602001806020018681526020018060200185815260200184810384528a818151815260200191508051906020019080838360005b83811015611dc7578181015183820152602001611daf565b50505050905090810190601f168015611df45780820380516001836020036101000a031916815260200191505b50848103835288546002600019610100600184161502019091160480825260209091019089908015611e675780601f10611e3c57610100808354040283529160200191611e67565b820191906000526020600020905b815481529060010190602001808311611e4a57829003601f168201915b5050848103825286518152865160209182019188019080838360005b83811015611e9b578181015183820152602001611e83565b50505050905090810190601f168015611ec85780820380516001836020036101000a031916815260200191505b509a505050505050505050505060405180910390a261213e565b878281518110611eee57fe5b60200260200101516003141561213e5760008381526020819052604090206004018590556001805486919083908110611f2357fe5b9060005260206000209060060201600301819055508260008051602061387f833981519152600080868152602001908152602001600020600701548b600080888152602001908152602001600020600201546000808981526020019081526020016000206003018a6000808b81526020019081526020016000206005016000808c8152602001908152602001600020600601546040518088815260200180602001878152602001806020018681526020018060200185815260200184810384528a818151815260200191508051906020019080838360005b83811015612013578181015183820152602001611ffb565b50505050905090810190601f1680156120405780820380516001836020036101000a031916815260200191505b508481038352885460026000196101006001841615020190911604808252602090910190899080156120b35780601f10612088576101008083540402835291602001916120b3565b820191906000526020600020905b81548152906001019060200180831161209657829003601f168201915b50508481038252865460026000196101006001841615020190911604808252602090910190879080156121275780601f106120fc57610100808354040283529160200191612127565b820191906000526020600020905b81548152906001019060200180831161210a57829003601f168201915b50509a505050505050505050505060405180910390a25b600190910190611a05565b50600198975050505050505050565b600080836040516020018082805190602001908083835b6020831061218e5780518252601f19909201916020918201910161216f565b51815160209384036101000a60001901801990921691161790526040805192909401828103601f190183528452815191810191909120600090815260029091529190912060010154959095149695505050505050565b600080836040516020018082805190602001908083835b6020831061221a5780518252601f1990920191602091820191016121fb565b51815160209384036101000a60001901801990921691161790526040805192909401828103601f1901835284528151918101919091206000818152918290529290206006810188905560070154600180549396508895509350918210905061227e57fe5b60009182526020909120600560069092020101555060019392505050565b6000606080600060606000600187815481106122b457fe5b906000526020600020906006020160000154600188815481106122d357fe5b9060005260206000209060060201600101600189815481106122f157fe5b906000526020600020906006020160020160018a8154811061230f57fe5b90600052602060002090600602016003015460018b8154811061232e57fe5b906000526020600020906006020160040160018c8154811061234c57fe5b600091825260209182902060056006909202010154855460408051601f6002600019610100600187161502019094169390930492830185900485028101850190915281815291928791908301828280156123e75780601f106123bc576101008083540402835291602001916123e7565b820191906000526020600020905b8154815290600101906020018083116123ca57829003601f168201915b5050875460408051602060026001851615610100026000190190941693909304601f8101849004840282018401909252818152959a50899450925084019050828280156124755780601f1061244a57610100808354040283529160200191612475565b820191906000526020600020905b81548152906001019060200180831161245857829003601f168201915b5050855460408051602060026001851615610100026000190190941693909304601f8101849004840282018401909252818152959950879450925084019050828280156125035780601f106124d857610100808354040283529160200191612503565b820191906000526020600020905b8154815290600101906020018083116124e657829003601f168201915b5050505050915095509550955095509550955091939550919395565b600081815260026020908152604080832083815560019081018490559183905282206004600682018190556007909101548254606094938593929091811061256357fe5b9060005260206000209060060201600501819055506001600080868152602001908152602001600020600701548154811061259a57fe5b600091825260209182902060026006909202018101805460408051601f6000196101006001861615020190931694909404918201859004850284018501905280835291929091908301828280156126325780601f1061260757610100808354040283529160200191612632565b820191906000526020600020905b81548152906001019060200180831161261557829003601f168201915b50505060008781526020818152604091829020600701548251908152915194955088947ff5a60d164d2167f821f6e0a319726c4f553b0d3a2dad9c7f5b0fce6c59484b04945091829003019150a29392505050565b600080856040516020018082805190602001908083835b602083106126bd5780518252601f19909201916020918201910161269e565b6001836020036101000a03801982511681845116808217855250505050505090500191505060405160208183030381529060405280519060200120905060006040516020018080606160f81b81525060010190506040516020818303038152906040528051906020012090506127328261113e565b151560011415612782576040805162461bcd60e51b81526020600482015260166024820152757573657220616c6c7265647920696e2073797374656d60501b604482015290519081900360640190fd5b600082815260208181526040909120885161279f928a01906137ad565b50600082815260208181526040909120600181018490556002810183905587516127d1926003909201918901906137ad565b506000828152602081815260409091206004810186905586516127fc926005909201918801906137ad565b50600082815260208190526040902060016006909101556128208288888789613670565b50600154600083815260208190526040902060001990910160079091015561284787612f3d565b50817f4ac176af59d0626d12f087b4249dac8642d385f96046952eb30dab1e0e90374f6000808581526020019081526020016000206007015489600080878152602001908152602001600020600201548a898b6000808b8152602001908152602001600020600601546040518088815260200180602001878152602001806020018681526020018060200185815260200184810384528a818151815260200191508051906020019080838360005b8381101561290d5781810151838201526020016128f5565b50505050905090810190601f16801561293a5780820380516001836020036101000a031916815260200191505b5084810383528851815288516020918201918a019080838360005b8381101561296d578181015183820152602001612955565b50505050905090810190601f16801561299a5780820380516001836020036101000a031916815260200191505b50848103825286518152865160209182019188019080838360005b838110156129cd5781810151838201526020016129b5565b50505050905090810190601f1680156129fa5780820380516001836020036101000a031916815260200191505b509a505050505050505050505060405180910390a25060019695505050505050565b600080836040516020018082805190602001908083835b60208310612a525780518252601f199092019160209182019101612a33565b6001836020036101000a038019825116818451168082178552505050505050905001915050604051602081830303815290604052805190602001209050612a988161113e565b1515600114612ae3576040805162461bcd60e51b815260206004820152601260248201527175736572206e6f7420696e2073797374656d60701b604482015290519081900360640190fd5b60008181526020819052604090206004810184905560070154600180548592908110612b0b57fe5b60009182526020808320600692830201600390810194909455848352828152604080842060078101546002820154948201548351828152938401869052608084018b905260c0840181905260e08486018181528d51918601919091528c518a9960008051602061387f8339815191529994988f989097918701968f96600590910195949293606085019260a0860192610100870192918d0191908190849084905b83811015612bc4578181015183820152602001612bac565b50505050905090810190601f168015612bf15780820380516001836020036101000a031916815260200191505b50848103835288546002600019610100600184161502019091160480825260209091019089908015612c645780601f10612c3957610100808354040283529160200191612c64565b820191906000526020600020905b815481529060010190602001808311612c4757829003601f168201915b5050848103825286546002600019610100600184161502019091160480825260209091019087908015612cd85780601f10612cad57610100808354040283529160200191612cd8565b820191906000526020600020905b815481529060010190602001808311612cbb57829003601f168201915b50509a505050505050505050505060405180910390a25060019392505050565b600081815260208190526040902060060154606090819060051415612e1a576000838152602081905260409020600360068201819055600790910154600180549091908110612d4357fe5b90600052602060002090600602016005018190555060016000808581526020019081526020016000206007015481548110612d7a57fe5b600091825260209182902060026006909202018101805460408051601f600019610100600186161502019093169490940491820185900485028401850190528083529192909190830182828015612e125780601f10612de757610100808354040283529160200191612e12565b820191906000526020600020905b815481529060010190602001808311612df557829003601f168201915b505050505090505b60008381526020819052604090206006015460031415612f37576000838152602081905260409020600560068201819055600790910154600180549091908110612e6057fe5b90600052602060002090600602016005018190555060016000808581526020019081526020016000206007015481548110612e9757fe5b600091825260209182902060026006909202018101805460408051601f600019610100600186161502019093169490940491820185900485028401850190528083529192909190830182828015612f2f5780601f10612f0457610100808354040283529160200191612f2f565b820191906000526020600020905b815481529060010190602001808311612f1257829003601f168201915b505050505090505b92915050565b600080826040516020018082805190602001908083835b60208310612f735780518252601f199092019160209182019101612f54565b6001836020036101000a0380198251168184511680821785525050505050509050019150506040516020818303038152906040528051906020012090506000612fba613776565b6000838152600260205260409020549091508214612fe45760008281526002602052604090208290555b60009182526002602052604090912060010181905592915050565b50600090565b600080836040516020018082805190602001908083835b6020831061303b5780518252601f19909201916020918201910161301c565b6001836020036101000a0380198251168184511680821785525050505050509050019150506040516020818303038152906040528051906020012090506130818161113e565b15156001146130cc576040805162461bcd60e51b815260206004820152601260248201527175736572206e6f7420696e2073797374656d60701b604482015290519081900360640190fd5b60008181526020818152604090912084516130ef926003909201918601906137ad565b5060008181526020819052604090206007015460018054859290811061311157fe5b906000526020600020906006020160020190805190602001906131359291906137ad565b50600081815260208181526040808320600781015460028201546004830154600684015485518481529586018390526080860182905260c0860181905260e08688018181528d51918801919091528c518a9960008051602061387f8339815191529996988f9896978f97600501959491939192606085019260a0860192610100870192908d0191908190849084905b838110156131dc5781810151838201526020016131c4565b50505050905090810190601f1680156132095780820380516001836020036101000a031916815260200191505b5084810383528851815288516020918201918a019080838360005b8381101561323c578181015183820152602001613224565b50505050905090810190601f1680156132695780820380516001836020036101000a031916815260200191505b50848103825286546002600019610100600184161502019091160480825260209091019087908015612cd85780601f10612cad57610100808354040283529160200191612cd8565b600080836040516020018082805190602001908083835b602083106132e75780518252601f1990920191602091820191016132c8565b6001836020036101000a0380198251168184511680821785525050505050509050019150506040516020818303038152906040528051906020012090506000836040516020018082805190602001908083835b602083106133595780518252601f19909201916020918201910161333a565b51815160209384036101000a60001901801990921691161790526040805192909401828103601f190183528452815191810191909120600088815280835284812060028082018490558452948120818155600190810182905592526005600685018190556007909401548254919750939550909350821090506133d857fe5b60009182526020808320600560069093020182019390935584825281835260408083206007810154600482015483518281529384018890526080840181905260c0840185905260e08488018181528d51918601919091528c518a9860008051602061387f8339815191529894978f978c9760038101979083019592949193606085019260a08601926101008701928d0191908190849084905b83811015613489578181015183820152602001613471565b50505050905090810190601f1680156134b65780820380516001836020036101000a031916815260200191505b508481038352885460026000196101006001841615020190911604808252602090910190899080156135295780601f106134fe57610100808354040283529160200191613529565b820191906000526020600020905b81548152906001019060200180831161350c57829003601f168201915b505084810382528654600260001961010060018416150201909116048082526020909101908790801561359d5780601f106135725761010080835404028352916020019161359d565b820191906000526020600020905b81548152906001019060200180831161358057829003601f168201915b50509a505050505050505050505060405180910390a2506001949350505050565b60009081526020819052604090206002015490565b60009081526020819052604090206006015490565b600080826040516020018082805190602001908083835b6020831061361e5780518252601f1990920191602091820191016135ff565b51815160209384036101000a60001901801990921691161790526040805192909401828103601f1901835284528151918101919091206000908152600290915291909120600101549695505050505050565b600061367a61382b565b8681526020808201878152604083018790526060830186905260808301859052600160a084018190528054808201808355600092909252845160069091027fb10e2d527612073b26eecdfd717e6a320cf44b4afac2b0732d9fcbe2b7fa0cf6810191825592518051929486949293613718937fb10e2d527612073b26eecdfd717e6a320cf44b4afac2b0732d9fcbe2b7fa0cf70192909101906137ad565b50604082015180516137349160028401916020909101906137ad565b50606082015160038201556080820151805161375a9160048401916020909101906137ad565b5060a08201518160050155505050600191505095945050505050565b6040805142602080830191909152448284015243606080840191909152835180840390910181526080909201909252805191012090565b828054600181600116156101000203166002900490600052602060002090601f016020900481019282601f106137ee57805160ff191683800117855561381b565b8280016001018555821561381b579182015b8281111561381b578251825591602001919060010190613800565b50613827929150613864565b5090565b6040518060c001604052806000801916815260200160608152602001606081526020016000815260200160608152602001600081525090565b61119091905b80821115613827576000815560010161386a56fe5463bb5972ae46488e2ce62ba8837ec6622bbd9af3952ef4fc866971d3b3ab2aa265627a7a723158207ad565c3f168bd64cbe5282532e62421211aa74e5cd907b5b62f43d2512645e964736f6c634300050c0032",
  "source": "pragma solidity >=0.4.21 <0.6.0;\r\n\r\ncontract LoaderContract {\r\n    \r\n    struct Loader{\r\n        string email;\r\n        bytes32 emailCode;\r\n        bytes32 passwordCode;\r\n        string name;\r\n        uint contactNumber;\r\n        string userAddress;\r\n        uint userAccess;\r\n        uint index;\r\n    }\r\n\r\n    struct DisplayLoader{\r\n        bytes32 emailCode;\r\n        string email;\r\n        string name;\r\n        uint contactNumber;\r\n        string userAddress;\r\n        uint userAccess;\r\n    }\r\n    \r\n    event LogNewLoader(\r\n        bytes32 indexed emailCode,\r\n        uint index,string email,\r\n        bytes32 passwordCode,\r\n        string name,\r\n        uint contactNumber,\r\n        string userAddress,\r\n        uint userAccess\r\n        );\r\n    event LogUpdateLoader(\r\n        bytes32 indexed emailCode,\r\n        uint index,string email,\r\n        bytes32 passwordCode,\r\n        string name,\r\n        uint contactNumber,\r\n        string userAddress,\r\n        uint userAccess\r\n        );\r\n    event LogDeleteLoader(\r\n        bytes32 indexed emailcode,\r\n        uint index\r\n        );\r\n        \r\n    struct RegistationToken{\r\n        bytes32 emailCode;\r\n        bytes32 token;\r\n    }\r\n        \r\n    mapping(bytes32 => Loader) public loaderArray;\r\n    DisplayLoader[] private loaderIndex;\r\n    mapping(bytes32 => RegistationToken) private loaderRegistationToken;\r\n    \r\n    function isLoader(bytes32 _emailCode)public view returns(bool isIndeed) {\r\n        if(loaderIndex.length == 0) return false;\r\n        return (loaderIndex[loaderArray[_emailCode].index].emailCode == _emailCode);\r\n    }\r\n    function createLoaderToken(string memory _email)public returns(bytes32){\r\n        bytes32 _emailCode = keccak256(abi.encodePacked((_email)));\r\n        bytes32 token = randomtoken();\r\n        if(loaderRegistationToken[_emailCode].emailCode != _emailCode){\r\n            loaderRegistationToken[_emailCode].emailCode = _emailCode;\r\n        }\r\n        loaderRegistationToken[_emailCode].token = token;\r\n        return token;\r\n    }\r\n    function getLoaderToken(string memory _email)public view returns(bytes32){\r\n        bytes32 _emailCode = keccak256(abi.encodePacked((_email)));\r\n        return  loaderRegistationToken[_emailCode].token;\r\n    }\r\n    function checkLoaderToken(string memory _email,bytes32 _token)public view returns(bool){\r\n        bytes32 _emailCode = keccak256(abi.encodePacked((_email)));\r\n        return  (loaderRegistationToken[_emailCode].token == _token);\r\n    }\r\n    function randomtoken() private view returns (bytes32) {\r\n       return keccak256(abi.encodePacked(block.timestamp,block.difficulty,block.number));\r\n    }\r\n    function setPassword(string memory _email,string memory _password)public returns (bool) {\r\n        bytes32 _emailCode = keccak256(abi.encodePacked((_email)));\r\n        bytes32 _passwordCode = keccak256(abi.encodePacked((_password)));\r\n\r\n        loaderArray[_emailCode].passwordCode = _passwordCode;\r\n        delete loaderRegistationToken[_emailCode];\r\n        loaderArray[_emailCode].userAccess = 5;\r\n        loaderIndex[loaderArray[_emailCode].index].userAccess = 5;\r\n        emit LogUpdateLoader(\r\n            _emailCode,\r\n            loaderArray[_emailCode].index,\r\n            _email,\r\n            _passwordCode,\r\n            loaderArray[_emailCode].name,\r\n            loaderArray[_emailCode].contactNumber,\r\n            loaderArray[_emailCode].userAddress,\r\n            5\r\n            );\r\n        return true;\r\n\r\n    }\r\n    function setDisplayLoader(bytes32 _emailCode,string memory _email,string memory _name,uint _telephone,string memory _address)\r\n     private returns(bool){\r\n\r\n        DisplayLoader memory displayLoader;\r\n        displayLoader.emailCode = _emailCode;\r\n        displayLoader.email = _email;\r\n        displayLoader.name = _name;\r\n        displayLoader.contactNumber = _telephone;\r\n        displayLoader.userAddress = _address;\r\n        displayLoader.userAccess = 1;\r\n        loaderIndex.push(displayLoader);\r\n        return true;\r\n\r\n    }\r\n    function insertLoader(string memory _email,string memory _name,string memory _address,uint _telephone) public returns(bool){\r\n        bytes32 _emailCode = keccak256(abi.encodePacked((_email)));\r\n        bytes32 _passwordCode = keccak256(abi.encodePacked((\"a\")));\r\n        require(isLoader(_emailCode) != true,'user allredy in system');\r\n\r\n        loaderArray[_emailCode].email = _email;\r\n        loaderArray[_emailCode].emailCode = _emailCode;\r\n        loaderArray[_emailCode].passwordCode = _passwordCode;\r\n        loaderArray[_emailCode].name = _name;\r\n        loaderArray[_emailCode].contactNumber = _telephone;\r\n        loaderArray[_emailCode].userAddress = _address;\r\n        loaderArray[_emailCode].userAccess = 1;\r\n        setDisplayLoader(_emailCode,_email,_name,_telephone,_address);\r\n        loaderArray[_emailCode].index = loaderIndex.length-1;\r\n        createLoaderToken(_email);\r\n\r\n        emit LogNewLoader (\r\n            _emailCode,\r\n            loaderArray[_emailCode].index,\r\n            _email,\r\n            loaderArray[_emailCode].passwordCode,\r\n            _name,\r\n            _telephone,\r\n            _address,\r\n            loaderArray[_emailCode].userAccess\r\n            );\r\n        return true;\r\n    }\r\n    function deleteLoader (bytes32 email) public returns(string memory){\r\n        uint i;\r\n        string memory name;\r\n        delete loaderRegistationToken[email];\r\n        loaderArray[email].userAccess = 4;\r\n        loaderIndex[loaderArray[email].index].userAccess = 4;\r\n        name = loaderIndex[loaderArray[email].index].name;\r\n        emit LogDeleteLoader(\r\n            email,\r\n            loaderArray[email].index\r\n        );\r\n        return name;\r\n    }\r\n    function blockLoader(bytes32 email) public returns(string memory)\r\n    {\r\n        string memory name;\r\n        if(loaderArray[email].userAccess == 5){\r\n        loaderArray[email].userAccess = 3;\r\n        loaderIndex[loaderArray[email].index].userAccess = 3;\r\n        name = loaderIndex[loaderArray[email].index].name;\r\n        }\r\n        if(loaderArray[email].userAccess == 3){\r\n        loaderArray[email].userAccess = 5;\r\n        loaderIndex[loaderArray[email].index].userAccess = 5;\r\n        name = loaderIndex[loaderArray[email].index].name;\r\n        }\r\n        return name;\r\n    }\r\n    function editUserAccess(string memory _email,uint usreAccess)public returns(bool){\r\n        bytes32 email = keccak256(abi.encodePacked((_email)));\r\n        loaderArray[email].userAccess = usreAccess;\r\n        loaderIndex[loaderArray[email].index].userAccess = usreAccess;\r\n        return true;\r\n\r\n    }\r\n    function getLoader(string memory _email) public view returns(bytes32,string memory email,string memory name,\r\n    uint contactNumber,string memory userAddress, uint userAccess){\r\n        bytes32 _emailCode = keccak256(abi.encodePacked((_email)));\r\n        require(isLoader(_emailCode) == true,'user not in system');\r\n        return(\r\n            _emailCode,\r\n            loaderArray[_emailCode].email,\r\n            loaderArray[_emailCode].name,\r\n            loaderArray[_emailCode].contactNumber,\r\n            loaderArray[_emailCode].userAddress,\r\n            loaderArray[_emailCode].userAccess\r\n            );\r\n    }\r\n    function getLoaderi(uint i) public view returns(\r\n        bytes32,\r\n        string memory,\r\n        string memory,\r\n        uint,\r\n        string memory,\r\n        uint\r\n        ){\r\n            return (\r\n                loaderIndex[i].emailCode,\r\n                loaderIndex[i].email,\r\n                loaderIndex[i].name,\r\n                loaderIndex[i].contactNumber,\r\n                loaderIndex[i].userAddress,\r\n                loaderIndex[i].userAccess\r\n                );\r\n    }\r\n    function getLoaderCount() public view returns(uint)\r\n    {\r\n        return loaderIndex.length;\r\n    }\r\n    \r\n    // function updateUserEmail(address userAddress, bytes32 userEmail) public returns(bool success)\r\n    // {\r\n    //     userStructs[userAddress].userEmail = userEmail;\r\n    //     emit LogUpdateUser(userAddress,  userStructs[userAddress].index, userEmail, userStructs[userAddress].userAge);\r\n    //     return true;\r\n    // }\r\n    function updateLoaderName (string memory _email,string memory _name) public returns(bool success){\r\n        bytes32 _emailCode = keccak256(abi.encodePacked((_email)));\r\n        require(isLoader(_emailCode) == true,'user not in system');\r\n        loaderArray[_emailCode].name = _name;\r\n        loaderIndex[loaderArray[_emailCode].index].name = _name;\r\n        emit LogUpdateLoader(\r\n            _emailCode,\r\n            loaderArray[_emailCode].index,\r\n            _email,\r\n            loaderArray[_emailCode].passwordCode,\r\n            _name,\r\n            loaderArray[_emailCode].contactNumber,\r\n            loaderArray[_emailCode].userAddress,\r\n            loaderArray[_emailCode].userAccess\r\n            );\r\n        return true;\r\n    }\r\n    function updateLoaderAddress (string memory _email,string memory _userAddress) public returns(bool success){\r\n        bytes32 _emailCode = keccak256(abi.encodePacked((_email)));\r\n        require(isLoader(_emailCode) == true,'user not in system');\r\n        loaderArray[_emailCode].userAddress = _userAddress;\r\n        loaderIndex[loaderArray[_emailCode].index].userAddress = _userAddress;\r\n        emit LogUpdateLoader(\r\n            _emailCode,\r\n            loaderArray[_emailCode].index,\r\n            _email,\r\n            loaderArray[_emailCode].passwordCode,\r\n            loaderArray[_emailCode].name,\r\n            loaderArray[_emailCode].contactNumber,\r\n            _userAddress,\r\n            loaderArray[_emailCode].userAccess\r\n            );\r\n        return true;\r\n    }\r\n    function updateLoaderContactNumber (string memory _email,uint _contactNumber) public returns(bool success){\r\n        bytes32 _emailCode = keccak256(abi.encodePacked((_email)));\r\n        require(isLoader(_emailCode) == true,'user not in system');\r\n        loaderArray[_emailCode].contactNumber = _contactNumber;\r\n        loaderIndex[loaderArray[_emailCode].index].contactNumber = _contactNumber;\r\n        emit LogUpdateLoader(\r\n            _emailCode,\r\n            loaderArray[_emailCode].index,\r\n            _email,\r\n            loaderArray[_emailCode].passwordCode,\r\n            loaderArray[_emailCode].name,\r\n            _contactNumber,\r\n            loaderArray[_emailCode].userAddress,\r\n            loaderArray[_emailCode].userAccess\r\n            );\r\n        return true;\r\n    }\r\n    function updateLoader(\r\n        string memory _email,\r\n        uint[] memory index,\r\n        string memory _name,\r\n        string memory _userAddress,\r\n        uint _contactNumber\r\n        ) public returns(bool success){\r\n        bytes32 _emailCode = keccak256(abi.encodePacked((_email)));\r\n        require(isLoader(_emailCode) == true,'user not in system');\r\n        uint i;\r\n        uint num = loaderArray[_emailCode].index;\r\n\r\n        for (i = 0;i<index.length;i++){\r\n            if(index[i]==1){\r\n                loaderArray[_emailCode].name = _name;\r\n                loaderIndex[num].name = _name;\r\n                emit LogUpdateLoader(\r\n                    _emailCode,\r\n                    loaderArray[_emailCode].index,\r\n                    _email,loaderArray[_emailCode].passwordCode,\r\n                    _name,\r\n                    loaderArray[_emailCode].contactNumber,\r\n                    loaderArray[_emailCode].userAddress,\r\n                    loaderArray[_emailCode].userAccess\r\n                    );\r\n\r\n            }\r\n            else if(index[i]==2){\r\n                loaderArray[_emailCode].userAddress = _userAddress;\r\n\r\n                loaderIndex[num].userAddress = _userAddress;\r\n\r\n                emit LogUpdateLoader(\r\n                    _emailCode,\r\n                    loaderArray[_emailCode].index,\r\n                    _email,\r\n                    loaderArray[_emailCode].passwordCode,\r\n                    loaderArray[_emailCode].name,\r\n                    loaderArray[_emailCode].contactNumber,\r\n                    _userAddress,\r\n                    loaderArray[_emailCode].userAccess\r\n                    );\r\n\r\n            }\r\n            else if(index[i]==3){\r\n                loaderArray[_emailCode].contactNumber = _contactNumber;\r\n                loaderIndex[num].contactNumber = _contactNumber;\r\n                emit LogUpdateLoader(\r\n                    _emailCode,\r\n                    loaderArray[_emailCode].index,\r\n                    _email,\r\n                    loaderArray[_emailCode].passwordCode,\r\n                    loaderArray[_emailCode].name,\r\n                    _contactNumber,\r\n                    loaderArray[_emailCode].userAddress,\r\n                    loaderArray[_emailCode].userAccess\r\n                    );\r\n\r\n            }\r\n        }\r\n        return true;\r\n    }\r\n    ///////\r\n    function updateLoaderiEmail (string memory _email) public returns(bool success)\r\n    {\r\n       // return true;\r\n    }\r\n    function checkLoaderUserAccess(bytes32 email)public view returns(uint userAccess){\r\n        \r\n        return loaderArray[email].userAccess;\r\n    }\r\n    function checkLoaderPasswordCode(bytes32 email) public view returns(bytes32 passwordCode ){\r\n        return loaderArray[email].passwordCode;\r\n    }\r\n}",
  "sourcePath": "C:\\project\\tea supply chain mangement system\\test2\\contracts\\Loader.sol",
  "compiler": {
    "name": "solc",
    "version": "0.5.12+commit.7709ece9.Emscripten.clang"
  },
  "schemaVersion": "3.0.20",
  "updatedAt": "2020-02-13T05:40:10.173Z",
  "networkType": "ethereum",
  "devdoc": {
    "methods": {}
  },
  "userdoc": {
    "methods": {
      "updateLoaderiEmail(string)": {
        "notice": "////"
      }
    }
  }
}