{
  "contractName": "LoaderContract",
  "abi": [
    {
      "constant": true,
      "inputs": [
        {
          "name": "",
          "type": "bytes32"
        }
      ],
      "name": "loaderArray",
      "outputs": [
        {
          "name": "email",
          "type": "string"
        },
        {
          "name": "emailCode",
          "type": "bytes32"
        },
        {
          "name": "passwordCode",
          "type": "bytes32"
        },
        {
          "name": "passwordRestToken",
          "type": "bytes32"
        },
        {
          "name": "name",
          "type": "string"
        },
        {
          "name": "contactNumber",
          "type": "uint256"
        },
        {
          "name": "userAddress",
          "type": "string"
        },
        {
          "name": "userAccess",
          "type": "uint256"
        },
        {
          "name": "index",
          "type": "uint256"
        }
      ],
      "payable": false,
      "stateMutability": "view",
      "type": "function"
    },
    {
      "anonymous": false,
      "inputs": [
        {
          "indexed": true,
          "name": "emailCode",
          "type": "bytes32"
        },
        {
          "indexed": false,
          "name": "index",
          "type": "uint256"
        },
        {
          "indexed": false,
          "name": "email",
          "type": "string"
        },
        {
          "indexed": false,
          "name": "passwordCode",
          "type": "bytes32"
        },
        {
          "indexed": false,
          "name": "passwordRestToken",
          "type": "bytes32"
        },
        {
          "indexed": false,
          "name": "name",
          "type": "string"
        },
        {
          "indexed": false,
          "name": "contactNumber",
          "type": "uint256"
        },
        {
          "indexed": false,
          "name": "userAddress",
          "type": "string"
        },
        {
          "indexed": false,
          "name": "userAccess",
          "type": "uint256"
        }
      ],
      "name": "LogNewLoader",
      "type": "event"
    },
    {
      "anonymous": false,
      "inputs": [
        {
          "indexed": true,
          "name": "emailCode",
          "type": "bytes32"
        },
        {
          "indexed": false,
          "name": "index",
          "type": "uint256"
        },
        {
          "indexed": false,
          "name": "email",
          "type": "string"
        },
        {
          "indexed": false,
          "name": "passwordCode",
          "type": "bytes32"
        },
        {
          "indexed": false,
          "name": "passwordRestToken",
          "type": "bytes32"
        },
        {
          "indexed": false,
          "name": "name",
          "type": "string"
        },
        {
          "indexed": false,
          "name": "contactNumber",
          "type": "uint256"
        },
        {
          "indexed": false,
          "name": "userAddress",
          "type": "string"
        },
        {
          "indexed": false,
          "name": "userAccess",
          "type": "uint256"
        }
      ],
      "name": "LogUpdateLoader",
      "type": "event"
    },
    {
      "anonymous": false,
      "inputs": [
        {
          "indexed": true,
          "name": "emailcode",
          "type": "bytes32"
        },
        {
          "indexed": false,
          "name": "index",
          "type": "uint256"
        }
      ],
      "name": "LogDeleteLoader",
      "type": "event"
    },
    {
      "constant": false,
      "inputs": [
        {
          "name": "_email",
          "type": "string"
        },
        {
          "name": "_name",
          "type": "string"
        }
      ],
      "name": "insertLoader",
      "outputs": [
        {
          "name": "",
          "type": "bytes32"
        }
      ],
      "payable": false,
      "stateMutability": "nonpayable",
      "type": "function"
    },
    {
      "constant": false,
      "inputs": [
        {
          "name": "email",
          "type": "bytes32"
        }
      ],
      "name": "deleteLoader",
      "outputs": [
        {
          "name": "",
          "type": "string"
        }
      ],
      "payable": false,
      "stateMutability": "nonpayable",
      "type": "function"
    },
    {
      "constant": false,
      "inputs": [
        {
          "name": "email",
          "type": "bytes32"
        }
      ],
      "name": "blockLoader",
      "outputs": [
        {
          "name": "",
          "type": "string"
        }
      ],
      "payable": false,
      "stateMutability": "nonpayable",
      "type": "function"
    },
    {
      "constant": true,
      "inputs": [
        {
          "name": "_email",
          "type": "string"
        }
      ],
      "name": "getLoader",
      "outputs": [
        {
          "name": "email",
          "type": "string"
        },
        {
          "name": "name",
          "type": "string"
        },
        {
          "name": "contactNumber",
          "type": "uint256"
        },
        {
          "name": "userAddress",
          "type": "string"
        },
        {
          "name": "userAccess",
          "type": "uint256"
        }
      ],
      "payable": false,
      "stateMutability": "view",
      "type": "function"
    },
    {
      "constant": true,
      "inputs": [
        {
          "name": "i",
          "type": "uint256"
        }
      ],
      "name": "getLoaderi",
      "outputs": [
        {
          "name": "",
          "type": "bytes32"
        },
        {
          "name": "",
          "type": "string"
        },
        {
          "name": "",
          "type": "string"
        },
        {
          "name": "",
          "type": "uint256"
        },
        {
          "name": "",
          "type": "string"
        },
        {
          "name": "",
          "type": "uint256"
        }
      ],
      "payable": false,
      "stateMutability": "view",
      "type": "function"
    },
    {
      "constant": true,
      "inputs": [],
      "name": "getLoaderCount",
      "outputs": [
        {
          "name": "",
          "type": "uint256"
        }
      ],
      "payable": false,
      "stateMutability": "view",
      "type": "function"
    },
    {
      "constant": false,
      "inputs": [
        {
          "name": "_email",
          "type": "string"
        },
        {
          "name": "_name",
          "type": "string"
        }
      ],
      "name": "updateDistributorName",
      "outputs": [
        {
          "name": "success",
          "type": "bool"
        }
      ],
      "payable": false,
      "stateMutability": "nonpayable",
      "type": "function"
    },
    {
      "constant": false,
      "inputs": [
        {
          "name": "_email",
          "type": "string"
        },
        {
          "name": "_userAddress",
          "type": "string"
        }
      ],
      "name": "updateLoaderAddress",
      "outputs": [
        {
          "name": "success",
          "type": "bool"
        }
      ],
      "payable": false,
      "stateMutability": "nonpayable",
      "type": "function"
    },
    {
      "constant": false,
      "inputs": [
        {
          "name": "_email",
          "type": "string"
        },
        {
          "name": "_contactNumber",
          "type": "uint256"
        }
      ],
      "name": "updateLoaderContactNumber",
      "outputs": [
        {
          "name": "success",
          "type": "bool"
        }
      ],
      "payable": false,
      "stateMutability": "nonpayable",
      "type": "function"
    },
    {
      "constant": false,
      "inputs": [
        {
          "name": "_email",
          "type": "string"
        },
        {
          "name": "index",
          "type": "uint256[]"
        },
        {
          "name": "_name",
          "type": "string"
        },
        {
          "name": "_userAddress",
          "type": "string"
        },
        {
          "name": "_contactNumber",
          "type": "uint256"
        }
      ],
      "name": "updateLoader",
      "outputs": [
        {
          "name": "success",
          "type": "bool"
        }
      ],
      "payable": false,
      "stateMutability": "nonpayable",
      "type": "function"
    },
    {
      "constant": false,
      "inputs": [
        {
          "name": "_email",
          "type": "string"
        }
      ],
      "name": "updateLoaderEmail",
      "outputs": [
        {
          "name": "success",
          "type": "bool"
        }
      ],
      "payable": false,
      "stateMutability": "nonpayable",
      "type": "function"
    },
    {
      "constant": true,
      "inputs": [
        {
          "name": "email",
          "type": "bytes32"
        }
      ],
      "name": "checkLoaderUserAccess",
      "outputs": [
        {
          "name": "userAccess",
          "type": "uint256"
        }
      ],
      "payable": false,
      "stateMutability": "view",
      "type": "function"
    },
    {
      "constant": true,
      "inputs": [
        {
          "name": "email",
          "type": "bytes32"
        }
      ],
      "name": "checkLoaderPasswordCode",
      "outputs": [
        {
          "name": "passwordCode",
          "type": "bytes32"
        }
      ],
      "payable": false,
      "stateMutability": "view",
      "type": "function"
    }
  ],
  "bytecode": "0x608060405234801561001057600080fd5b50613297806100206000396000f3fe608060405234801561001057600080fd5b50600436106100ea5760003560e01c806376b65fb21161008c578063867fd12b11610066578063867fd12b14610cf9578063d8264a0514610d16578063df34481714610d33578063ec440dbd14610dd7576100ea565b806376b65fb214610a4b578063770079ee14610bc1578063849f4b0014610c53576100ea565b80631f7d9c34116100c85780631f7d9c34146103d15780633667afe1146105c75780634dc242c8146107f95780637383629e14610922576100ea565b8063118d1e99146100ef578063159d2604146101095780631f5b954014610294575b600080fd5b6100f7610df4565b60408051918252519081900360200190f35b6101266004803603602081101561011f57600080fd5b5035610dfb565b60405180806020018a8152602001898152602001888152602001806020018781526020018060200186815260200185815260200184810384528d818151815260200191508051906020019080838360005b8381101561018f578181015183820152602001610177565b50505050905090810190601f1680156101bc5780820380516001836020036101000a031916815260200191505b5084810383528951815289516020918201918b019080838360005b838110156101ef5781810151838201526020016101d7565b50505050905090810190601f16801561021c5780820380516001836020036101000a031916815260200191505b50848103825287518152875160209182019189019080838360005b8381101561024f578181015183820152602001610237565b50505050905090810190601f16801561027c5780820380516001836020036101000a031916815260200191505b509c5050505050505050505050505060405180910390f35b6103bd600480360360408110156102aa57600080fd5b810190602081018135600160201b8111156102c457600080fd5b8201836020820111156102d657600080fd5b803590602001918460018302840111600160201b831117156102f757600080fd5b91908080601f0160208091040260200160405190810160405280939291908181526020018383808284376000920191909152509295949360208101935035915050600160201b81111561034957600080fd5b82018360208201111561035b57600080fd5b803590602001918460018302840111600160201b8311171561037c57600080fd5b91908080601f016020809104026020016040519081016040528093929190818152602001838380828437600092019190915250929550610fec945050505050565b604080519115158252519081900360200190f35b610475600480360360208110156103e757600080fd5b810190602081018135600160201b81111561040157600080fd5b82018360208201111561041357600080fd5b803590602001918460018302840111600160201b8311171561043457600080fd5b91908080601f01602080910402602001604051908101604052809392919081815260200183838082843760009201919091525092955061133c945050505050565b60405180806020018060200186815260200180602001858152602001848103845289818151815260200191508051906020019080838360005b838110156104c65781810151838201526020016104ae565b50505050905090810190601f1680156104f35780820380516001836020036101000a031916815260200191505b5084810383528851815288516020918201918a019080838360005b8381101561052657818101518382015260200161050e565b50505050905090810190601f1680156105535780820380516001836020036101000a031916815260200191505b50848103825286518152865160209182019188019080838360005b8381101561058657818101518382015260200161056e565b50505050905090810190601f1680156105b35780820380516001836020036101000a031916815260200191505b509850505050505050505060405180910390f35b6103bd600480360360a08110156105dd57600080fd5b810190602081018135600160201b8111156105f757600080fd5b82018360208201111561060957600080fd5b803590602001918460018302840111600160201b8311171561062a57600080fd5b91908080601f0160208091040260200160405190810160405280939291908181526020018383808284376000920191909152509295949360208101935035915050600160201b81111561067c57600080fd5b82018360208201111561068e57600080fd5b803590602001918460208302840111600160201b831117156106af57600080fd5b9190808060200260200160405190810160405280939291908181526020018383602002808284376000920191909152509295949360208101935035915050600160201b8111156106fe57600080fd5b82018360208201111561071057600080fd5b803590602001918460018302840111600160201b8311171561073157600080fd5b91908080601f0160208091040260200160405190810160405280939291908181526020018383808284376000920191909152509295949360208101935035915050600160201b81111561078357600080fd5b82018360208201111561079557600080fd5b803590602001918460018302840111600160201b831117156107b657600080fd5b91908080601f01602080910402602001604051908101604052809392919081815260200183838082843760009201919091525092955050913592506115f1915050565b6103bd6004803603604081101561080f57600080fd5b810190602081018135600160201b81111561082957600080fd5b82018360208201111561083b57600080fd5b803590602001918460018302840111600160201b8311171561085c57600080fd5b91908080601f0160208091040260200160405190810160405280939291908181526020018383808284376000920191909152509295949360208101935035915050600160201b8111156108ae57600080fd5b8201836020820111156108c057600080fd5b803590602001918460018302840111600160201b831117156108e157600080fd5b91908080601f016020809104026020016040519081016040528093929190818152602001838380828437600092019190915250929550611e7b945050505050565b6100f76004803603604081101561093857600080fd5b810190602081018135600160201b81111561095257600080fd5b82018360208201111561096457600080fd5b803590602001918460018302840111600160201b8311171561098557600080fd5b91908080601f0160208091040260200160405190810160405280939291908181526020018383808284376000920191909152509295949360208101935035915050600160201b8111156109d757600080fd5b8201836020820111156109e957600080fd5b803590602001918460018302840111600160201b83111715610a0a57600080fd5b91908080601f0160208091040260200160405190810160405280939291908181526020018383808284376000920191909152509295506121cb945050505050565b610a6860048036036020811015610a6157600080fd5b50356125da565b60405180878152602001806020018060200186815260200180602001858152602001848103845289818151815260200191508051906020019080838360005b83811015610abf578181015183820152602001610aa7565b50505050905090810190601f168015610aec5780820380516001836020036101000a031916815260200191505b5084810383528851815288516020918201918a019080838360005b83811015610b1f578181015183820152602001610b07565b50505050905090810190601f168015610b4c5780820380516001836020036101000a031916815260200191505b50848103825286518152865160209182019188019080838360005b83811015610b7f578181015183820152602001610b67565b50505050905090810190601f168015610bac5780820380516001836020036101000a031916815260200191505b50995050505050505050505060405180910390f35b610bde60048036036020811015610bd757600080fd5b503561285d565b6040805160208082528351818301528351919283929083019185019080838360005b83811015610c18578181015183820152602001610c00565b50505050905090810190601f168015610c455780820380516001836020036101000a031916815260200191505b509250505060405180910390f35b6103bd60048036036040811015610c6957600080fd5b810190602081018135600160201b811115610c8357600080fd5b820183602082011115610c9557600080fd5b803590602001918460018302840111600160201b83111715610cb657600080fd5b91908080601f0160208091040260200160405190810160405280939291908181526020018383808284376000920191909152509295505091359250612a90915050565b610bde60048036036020811015610d0f57600080fd5b5035612d7a565b6100f760048036036020811015610d2c57600080fd5b5035612e87565b6103bd60048036036020811015610d4957600080fd5b810190602081018135600160201b811115610d6357600080fd5b820183602082011115610d7557600080fd5b803590602001918460018302840111600160201b83111715610d9657600080fd5b91908080601f016020809104026020016040519081016040528093929190818152602001838380828437600092019190915250929550612e9c945050505050565b6100f760048036036020811015610ded57600080fd5b5035612ea2565b6001545b90565b6000602081815291815260409081902080548251601f600260001961010060018616150201909316929092049182018590048502810185019093528083529092839190830182828015610e8f5780601f10610e6457610100808354040283529160200191610e8f565b820191906000526020600020905b815481529060010190602001808311610e7257829003601f168201915b505050505090806001015490806002015490806003015490806004018054600181600116156101000203166002900480601f016020809104026020016040519081016040528092919081815260200182805460018160011615610100020316600290048015610f3f5780601f10610f1457610100808354040283529160200191610f3f565b820191906000526020600020905b815481529060010190602001808311610f2257829003601f168201915b50505050600583015460068401805460408051602060026001851615610100026000190190941693909304601f81018490048402820184019092528181529596939593945090830182828015610fd65780601f10610fab57610100808354040283529160200191610fd6565b820191906000526020600020905b815481529060010190602001808311610fb957829003601f168201915b5050505050908060070154908060080154905089565b600080836040516020018082805190602001908083835b602083106110225780518252601f199092019160209182019101611003565b6001836020036101000a03801982511681845116808217855250505050505090500191505060405160208183030381529060405280519060200120905061106881612eb7565b15156001146110b95760408051600160e51b62461bcd0281526020600482015260126024820152600160701b7175736572206e6f7420696e2073797374656d02604482015290519081900360640190fd5b60008181526020818152604090912084516110dc926006909201918601906130d7565b506000818152602081905260409020600801546001805485929081106110fe57fe5b906000526020600020906006020160040190805190602001906111229291906130d7565b508060008051602061324c83398151915260008084815260200190815260200160002060080154866000808681526020019081526020016000206002015460008087815260200190815260200160002060030154600080888152602001908152602001600020600401600080898152602001908152602001600020600501548a6000808b8152602001908152602001600020600701546040518089815260200180602001888152602001878152602001806020018681526020018060200185815260200184810384528b818151815260200191508051906020019080838360005b8381101561121b578181015183820152602001611203565b50505050905090810190601f1680156112485780820380516001836020036101000a031916815260200191505b508481038352885460026000196101006001841615020190911604808252602090910190899080156112bb5780601f10611290576101008083540402835291602001916112bb565b820191906000526020600020905b81548152906001019060200180831161129e57829003601f168201915b5050848103825286518152865160209182019188019080838360005b838110156112ef5781810151838201526020016112d7565b50505050905090810190601f16801561131c5780820380516001836020036101000a031916815260200191505b509b50505050505050505050505060405180910390a25060019392505050565b60608060006060600080866040516020018082805190602001908083835b602083106113795780518252601f19909201916020918201910161135a565b6001836020036101000a0380198251168184511680821785525050505050509050019150506040516020818303038152906040528051906020012090506113bf81612eb7565b15156001146114105760408051600160e51b62461bcd0281526020600482015260126024820152600160701b7175736572206e6f7420696e2073797374656d02604482015290519081900360640190fd5b600081815260208181526040918290206005810154600782015482548551601f6002600019610100600186161502019093169290920491820186900486028101860190965280865292946004860194929360068701938791908301828280156114ba5780601f1061148f576101008083540402835291602001916114ba565b820191906000526020600020905b81548152906001019060200180831161149d57829003601f168201915b5050875460408051602060026001851615610100026000190190941693909304601f8101849004840282018401909252818152959a50899450925084019050828280156115485780601f1061151d57610100808354040283529160200191611548565b820191906000526020600020905b81548152906001019060200180831161152b57829003601f168201915b5050855460408051602060026001851615610100026000190190941693909304601f8101849004840282018401909252818152959950879450925084019050828280156115d65780601f106115ab576101008083540402835291602001916115d6565b820191906000526020600020905b8154815290600101906020018083116115b957829003601f168201915b50505050509150955095509550955095505091939590929450565b600080866040516020018082805190602001908083835b602083106116275780518252601f199092019160209182019101611608565b6001836020036101000a03801982511681845116808217855250505050505090500191505060405160208183030381529060405280519060200120905061166d81612eb7565b15156001146116be5760408051600160e51b62461bcd0281526020600482015260126024820152600160701b7175736572206e6f7420696e2073797374656d02604482015290519081900360640190fd5b6000818152602081905260408120600801545b8751821015611e6c578782815181106116e657fe5b602002602001015160011415611961576000838152602081815260409091208851611719926004909201918a01906130d7565b50866001828154811061172857fe5b9060005260206000209060060201600201908051906020019061174c9291906130d7565b508260008051602061324c833981519152600080868152602001908152602001600020600801548b60008088815260200190815260200160002060020154600080898152602001908152602001600020600301548c6000808b8152602001908152602001600020600501546000808c81526020019081526020016000206006016000808d8152602001908152602001600020600701546040518089815260200180602001888152602001878152602001806020018681526020018060200185815260200184810384528b818151815260200191508051906020019080838360005b8381101561184557818101518382015260200161182d565b50505050905090810190601f1680156118725780820380516001836020036101000a031916815260200191505b5084810383528851815288516020918201918a019080838360005b838110156118a557818101518382015260200161188d565b50505050905090810190601f1680156118d25780820380516001836020036101000a031916815260200191505b508481038252865460026000196101006001841615020190911604808252602090910190879080156119455780601f1061191a57610100808354040283529160200191611945565b820191906000526020600020905b81548152906001019060200180831161192857829003601f168201915b50509b50505050505050505050505060405180910390a2611e61565b87828151811061196d57fe5b602002602001015160021415611be85760008381526020818152604090912087516119a0926006909201918901906130d7565b5085600182815481106119af57fe5b906000526020600020906006020160040190805190602001906119d39291906130d7565b508260008051602061324c833981519152600080868152602001908152602001600020600801548b60008088815260200190815260200160002060020154600080898152602001908152602001600020600301546000808a81526020019081526020016000206004016000808b8152602001908152602001600020600501548d6000808d8152602001908152602001600020600701546040518089815260200180602001888152602001878152602001806020018681526020018060200185815260200184810384528b818151815260200191508051906020019080838360005b83811015611acc578181015183820152602001611ab4565b50505050905090810190601f168015611af95780820380516001836020036101000a031916815260200191505b50848103835288546002600019610100600184161502019091160480825260209091019089908015611b6c5780601f10611b4157610100808354040283529160200191611b6c565b820191906000526020600020905b815481529060010190602001808311611b4f57829003601f168201915b5050848103825286518152865160209182019188019080838360005b83811015611ba0578181015183820152602001611b88565b50505050905090810190601f168015611bcd5780820380516001836020036101000a031916815260200191505b509b50505050505050505050505060405180910390a2611e61565b878281518110611bf457fe5b602002602001015160031415611e615760008381526020819052604090206005018590556001805486919083908110611c2957fe5b9060005260206000209060060201600301819055508260008051602061324c833981519152600080868152602001908152602001600020600801548b60008088815260200190815260200160002060020154600080898152602001908152602001600020600301546000808a81526020019081526020016000206004018b6000808c81526020019081526020016000206006016000808d8152602001908152602001600020600701546040518089815260200180602001888152602001878152602001806020018681526020018060200185815260200184810384528b818151815260200191508051906020019080838360005b83811015611d35578181015183820152602001611d1d565b50505050905090810190601f168015611d625780820380516001836020036101000a031916815260200191505b50848103835288546002600019610100600184161502019091160480825260209091019089908015611dd55780601f10611daa57610100808354040283529160200191611dd5565b820191906000526020600020905b815481529060010190602001808311611db857829003601f168201915b5050848103825286546002600019610100600184161502019091160480825260209091019087908015611e495780601f10611e1e57610100808354040283529160200191611e49565b820191906000526020600020905b815481529060010190602001808311611e2c57829003601f168201915b50509b50505050505050505050505060405180910390a25b6001909101906116d1565b50600198975050505050505050565b600080836040516020018082805190602001908083835b60208310611eb15780518252601f199092019160209182019101611e92565b6001836020036101000a038019825116818451168082178552505050505050905001915050604051602081830303815290604052805190602001209050611ef781612eb7565b1515600114611f485760408051600160e51b62461bcd0281526020600482015260126024820152600160701b7175736572206e6f7420696e2073797374656d02604482015290519081900360640190fd5b6000818152602081815260409091208451611f6b926004909201918601906130d7565b50600081815260208190526040902060080154600180548592908110611f8d57fe5b90600052602060002090600602016002019080519060200190611fb19291906130d7565b508060008051602061324c8339815191526000808481526020019081526020016000206008015486600080868152602001908152602001600020600201546000808781526020019081526020016000206003015488600080898152602001908152602001600020600501546000808a81526020019081526020016000206006016000808b8152602001908152602001600020600701546040518089815260200180602001888152602001878152602001806020018681526020018060200185815260200184810384528b818151815260200191508051906020019080838360005b838110156120aa578181015183820152602001612092565b50505050905090810190601f1680156120d75780820380516001836020036101000a031916815260200191505b5084810383528851815288516020918201918a019080838360005b8381101561210a5781810151838201526020016120f2565b50505050905090810190601f1680156121375780820380516001836020036101000a031916815260200191505b508481038252865460026000196101006001841615020190911604808252602090910190879080156121aa5780601f1061217f576101008083540402835291602001916121aa565b820191906000526020600020905b81548152906001019060200180831161218d57829003601f168201915b50509b50505050505050505050505060405180910390a25060019392505050565b600080836040516020018082805190602001908083835b602083106122015780518252601f1990920191602091820191016121e2565b6001836020036101000a03801982511681845116808217855250505050505090500191505060405160208183030381529060405280519060200120905060006040516020018080600160f81b606102815250600101905060405160208183030381529060405280519060200120905061227982612eb7565b1515600114156122d35760408051600160e51b62461bcd02815260206004820152601660248201527f7573657220616c6c7265647920696e2073797374656d00000000000000000000604482015290519081900360640190fd5b60008281526020818152604090912086516122f0928801906130d7565b50600082815260208181526040822060018101859055600281018490556003810192909255855161232792600401918701906130d7565b506000828152602081815260408083206005810184905581518084019283905284815286855293909252915161236392600690920191906130d7565b5060008281526020819052604090206001600790910155612385828686612f04565b50600180805490500360008084815260200190815260200160002060080181905550817ffd8558450cfe0ac4f77d6dfc38061cb83167acf9063a8e98f53e7a13c9b68f0560008085815260200190815260200160002060080154876000808781526020019081526020016000206002015460008088815260200190815260200160002060030154896000808a8152602001908152602001600020600501546000808b81526020019081526020016000206006016000808c8152602001908152602001600020600701546040518089815260200180602001888152602001878152602001806020018681526020018060200185815260200184810384528b818151815260200191508051906020019080838360005b838110156124b1578181015183820152602001612499565b50505050905090810190601f1680156124de5780820380516001836020036101000a031916815260200191505b5084810383528851815288516020918201918a019080838360005b838110156125115781810151838201526020016124f9565b50505050905090810190601f16801561253e5780820380516001836020036101000a031916815260200191505b508481038252865460026000196101006001841615020190911604808252602090910190879080156125b15780601f10612586576101008083540402835291602001916125b1565b820191906000526020600020905b81548152906001019060200180831161259457829003601f168201915b50509b50505050505050505050505060405180910390a26125d182613025565b95945050505050565b6000606080600060606000600187815481106125f257fe5b9060005260206000209060060201600001546001888154811061261157fe5b90600052602060002090600602016001016001898154811061262f57fe5b906000526020600020906006020160020160018a8154811061264d57fe5b90600052602060002090600602016003015460018b8154811061266c57fe5b906000526020600020906006020160040160018c8154811061268a57fe5b600091825260209182902060056006909202010154855460408051601f6002600019610100600187161502019094169390930492830185900485028101850190915281815291928791908301828280156127255780601f106126fa57610100808354040283529160200191612725565b820191906000526020600020905b81548152906001019060200180831161270857829003601f168201915b5050875460408051602060026001851615610100026000190190941693909304601f8101849004840282018401909252818152959a50899450925084019050828280156127b35780601f10612788576101008083540402835291602001916127b3565b820191906000526020600020905b81548152906001019060200180831161279657829003601f168201915b5050855460408051602060026001851615610100026000190190941693909304601f8101849004840282018401909252818152959950879450925084019050828280156128415780601f1061281657610100808354040283529160200191612841565b820191906000526020600020905b81548152906001019060200180831161282457829003601f168201915b5050505050915095509550955095509550955091939550919395565b60606000815b60025482101561293e57836002838154811061287b57fe5b9060005260206000209060020201600001541415612933576002805460001981019081106128a557fe5b906000526020600020906002020160000154600283815481106128c457fe5b6000918252602090912060029182020191909155805460001981019081106128e857fe5b9060005260206000209060020201600101546002838154811061290757fe5b90600052602060002090600202016001018190555060028054809190600190036129319190613155565b505b600190910190612863565b600084815260208190526040902060046007820181905560089091015460018054909190811061296a57fe5b906000526020600020906006020160050181905550600160008086815260200190815260200160002060080154815481106129a157fe5b600091825260209182902060026006909202018101805460408051601f600019610100600186161502019093169490940491820185900485028401850190528083529192909190830182828015612a395780601f10612a0e57610100808354040283529160200191612a39565b820191906000526020600020905b815481529060010190602001808311612a1c57829003601f168201915b50505060008781526020818152604091829020600801548251908152915194955088947ff5a60d164d2167f821f6e0a319726c4f553b0d3a2dad9c7f5b0fce6c59484b04945091829003019150a29150505b919050565b600080836040516020018082805190602001908083835b60208310612ac65780518252601f199092019160209182019101612aa7565b6001836020036101000a038019825116818451168082178552505050505050905001915050604051602081830303815290604052805190602001209050612b0c81612eb7565b1515600114612b5d5760408051600160e51b62461bcd0281526020600482015260126024820152600160701b7175736572206e6f7420696e2073797374656d02604482015290519081900360640190fd5b60008181526020819052604090206005810184905560080154600180548592908110612b8557fe5b9060005260206000209060060201600301819055508060008051602061324c83398151915260008084815260200190815260200160002060080154866000808681526020019081526020016000206002015460008087815260200190815260200160002060030154600080888152602001908152602001600020600401896000808a81526020019081526020016000206006016000808b8152602001908152602001600020600701546040518089815260200180602001888152602001878152602001806020018681526020018060200185815260200184810384528b818151815260200191508051906020019080838360005b83811015612c91578181015183820152602001612c79565b50505050905090810190601f168015612cbe5780820380516001836020036101000a031916815260200191505b50848103835288546002600019610100600184161502019091160480825260209091019089908015612d315780601f10612d0657610100808354040283529160200191612d31565b820191906000526020600020905b815481529060010190602001808311612d1457829003601f168201915b50508481038252865460026000196101006001841615020190911604808252602090910190879080156121aa5780601f1061217f576101008083540402835291602001916121aa565b60008181526020819052604090206003600782018190556008909101546001805460609384939092918110612dab57fe5b90600052602060002090600602016005018190555060016000808581526020019081526020016000206008015481548110612de257fe5b600091825260209182902060026006909202018101805460408051601f600019610100600186161502019093169490940491820185900485028401850190528083529192909190830182828015612e7a5780601f10612e4f57610100808354040283529160200191612e7a565b820191906000526020600020905b815481529060010190602001808311612e5d57829003601f168201915b5093979650505050505050565b60009081526020819052604090206002015490565b50600090565b60009081526020819052604090206007015490565b600154600090612ec957506000612a8b565b600082815260208190526040902060080154600180548492908110612eea57fe5b906000526020600020906006020160000154149050919050565b6000612f0e613186565b84815260208082018590526040808301859052632ac5f23e6060808501919091528151908101909152603b8082529091613211908301396080820152600160a082018190528054808201808355600092909252825160069091027fb10e2d527612073b26eecdfd717e6a320cf44b4afac2b0732d9fcbe2b7fa0cf681019182556020808501518051869493612fc9937fb10e2d527612073b26eecdfd717e6a320cf44b4afac2b0732d9fcbe2b7fa0cf79091019201906130d7565b5060408201518051612fe59160028401916020909101906130d7565b50606082015160038201556080820151805161300b9160048401916020909101906130d7565b5060a0820151816005015550505060019150509392505050565b6000806130306130ab565b905061303a6131bf565b83815260208101828152600280546001810182556000829052925192027f405787fa12a823e0f2b7631cc41b3ba8828b3321ca811111fa75cd3aa3bb5ace810192909255517f405787fa12a823e0f2b7631cc41b3ba8828b3321ca811111fa75cd3aa3bb5acf909101559050919050565b604080514260208083019190915244828401528251808303840181526060909201909252805191012090565b828054600181600116156101000203166002900490600052602060002090601f016020900481019282601f1061311857805160ff1916838001178555613145565b82800160010185558215613145579182015b8281111561314557825182559160200191906001019061312a565b506131519291506131d6565b5090565b8154818355818111156131815760020281600202836000526020600020918201910161318191906131f0565b505050565b6040518060c001604052806000801916815260200160608152602001606081526020016000815260200160608152602001600081525090565b604080518082019091526000808252602082015290565b610df891905b8082111561315157600081556001016131dc565b610df891905b8082111561315157600080825560018201556002016131f656fe313333352c626f676168617761746874686120526f61642c70616e6e697069746979612c636f6c6f6d626f2c737269206c616e6b612c31303233302188045651757e59cf59ddd1cbd2c939ecc7f4b3c5b5a5747fb5d4ee8167d523a165627a7a7230582085215638729c3d61a3f6fa21625e40f314b5ebdf2e8618ee005923a77c5dde910029",
  "source": "pragma solidity >=0.4.21 <0.6.0;\r\n\r\ncontract LoaderContract {\r\n    \r\n    struct Loader{\r\n        string email;\r\n        bytes32 emailCode;\r\n        bytes32 passwordCode;\r\n        bytes32 passwordRestToken;\r\n        string name;\r\n        uint contactNumber;\r\n        string userAddress;\r\n        uint userAccess;\r\n        uint index;\r\n    }\r\n\r\n    struct DisplayLoader{\r\n        bytes32 emailCode;\r\n        string email;\r\n        string name;\r\n        uint contactNumber;\r\n        string userAddress;\r\n        uint userAccess;\r\n    }\r\n    \r\n    event LogNewLoader(\r\n        bytes32 indexed emailCode,\r\n        uint index,string email,\r\n        bytes32 passwordCode,\r\n        bytes32 passwordRestToken,\r\n        string name,\r\n        uint contactNumber,\r\n        string userAddress,\r\n        uint userAccess\r\n        );\r\n    event LogUpdateLoader(\r\n        bytes32 indexed emailCode,\r\n        uint index,string email,\r\n        bytes32 passwordCode,\r\n        bytes32 passwordRestToken,\r\n        string name,\r\n        uint contactNumber,\r\n        string userAddress,\r\n        uint userAccess\r\n        );\r\n    event LogDeleteLoader(\r\n        bytes32 indexed emailcode,\r\n        uint index\r\n        );\r\n        \r\n    struct RegistationToken{\r\n        bytes32 emailCode;\r\n        bytes32 token;\r\n    }\r\n        \r\n    mapping(bytes32 => Loader) public loaderArray;\r\n    DisplayLoader[] private loaderIndex;\r\n    RegistationToken[] private loaderRegistationToken;\r\n    \r\n    function isLoader(bytes32 _emailCode)private view returns(bool isIndeed) {\r\n        if(loaderIndex.length == 0) return false;\r\n        return (loaderIndex[loaderArray[_emailCode].index].emailCode == _emailCode);\r\n    }\r\n    function createLoaderToken(bytes32 _emailCode)private returns(bytes32){\r\n        bytes32 token = randomtoken();\r\n        RegistationToken memory registationToken;\r\n        registationToken.emailCode = _emailCode;\r\n        registationToken.token = token;\r\n        loaderRegistationToken.push(registationToken);\r\n        return token;\r\n    }\r\n    function randomtoken() private view returns (bytes32) {\r\n       return keccak256(abi.encodePacked( block.timestamp, block.difficulty));\r\n    }\r\n    function setDisplayLoader(bytes32 _emailCode,string memory _email,string memory _name) private returns(bool){\r\n\r\n        DisplayLoader memory displayLoader;\r\n        displayLoader.emailCode = _emailCode;\r\n        displayLoader.email = _email;\r\n        displayLoader.name = _name;\r\n        displayLoader.contactNumber = 717615678;\r\n        displayLoader.userAddress = \"1335,bogahawaththa Road,pannipitiya,colombo,sri lanka,10230\";\r\n        displayLoader.userAccess = 1;\r\n        loaderIndex.push(displayLoader);\r\n        return true;\r\n\r\n    }\r\n    function insertLoader(string memory _email,string memory _name) public returns(bytes32){\r\n        bytes32 _emailCode = keccak256(abi.encodePacked((_email)));\r\n        bytes32 _passwordCode = keccak256(abi.encodePacked((\"a\")));\r\n        require(isLoader(_emailCode) != true,'user allredy in system');\r\n\r\n        loaderArray[_emailCode].email = _email;\r\n        loaderArray[_emailCode].emailCode = _emailCode;\r\n        loaderArray[_emailCode].passwordCode = _passwordCode;\r\n        loaderArray[_emailCode].passwordRestToken = \"\";\r\n        loaderArray[_emailCode].name = _name;\r\n        loaderArray[_emailCode].contactNumber = 0;\r\n        loaderArray[_emailCode].userAddress = \"\";\r\n        loaderArray[_emailCode].userAccess = 1;\r\n        setDisplayLoader(_emailCode,_email,_name);\r\n        loaderArray[_emailCode].index = loaderIndex.length-1;\r\n\r\n        emit LogNewLoader (\r\n            _emailCode,\r\n            loaderArray[_emailCode].index,\r\n            _email,\r\n            loaderArray[_emailCode].passwordCode,\r\n            loaderArray[_emailCode].passwordRestToken,\r\n            _name,\r\n            loaderArray[_emailCode].contactNumber,\r\n            loaderArray[_emailCode].userAddress,\r\n            loaderArray[_emailCode].userAccess\r\n            );\r\n        return createLoaderToken(_emailCode);\r\n    }\r\n    function deleteLoader (bytes32 email) public returns(string memory){\r\n        uint i;\r\n        string memory name;\r\n        for( i = 0; i < loaderRegistationToken.length; i++) {\r\n            if(loaderRegistationToken[i].emailCode == email){\r\n                loaderRegistationToken[i].emailCode = loaderRegistationToken[loaderRegistationToken.length-1].emailCode;\r\n                loaderRegistationToken[i].token = loaderRegistationToken[loaderRegistationToken.length-1].token;\r\n                loaderRegistationToken.length--;\r\n            }\r\n        }\r\n        loaderArray[email].userAccess = 4;\r\n        loaderIndex[loaderArray[email].index].userAccess = 4;\r\n        name = loaderIndex[loaderArray[email].index].name;\r\n        emit LogDeleteLoader(\r\n            email,\r\n            loaderArray[email].index\r\n        );\r\n        return name;\r\n    }\r\n    function blockLoader(bytes32 email) public returns(string memory)\r\n    {\r\n        string memory name;\r\n        loaderArray[email].userAccess = 3;\r\n        loaderIndex[loaderArray[email].index].userAccess = 3;\r\n        name = loaderIndex[loaderArray[email].index].name;\r\n        return name;\r\n    }\r\n    function getLoader(string memory _email) public view returns(string memory email,string memory name,\r\n    uint contactNumber,string memory userAddress, uint userAccess){\r\n        bytes32 _emailCode = keccak256(abi.encodePacked((_email)));\r\n        require(isLoader(_emailCode) == true,'user not in system');\r\n        return(\r\n            loaderArray[_emailCode].email,\r\n            loaderArray[_emailCode].name,\r\n            loaderArray[_emailCode].contactNumber,\r\n            loaderArray[_emailCode].userAddress,\r\n            loaderArray[_emailCode].userAccess\r\n            );\r\n    }\r\n    function getLoaderi(uint i) public view returns(\r\n        bytes32,\r\n        string memory,\r\n        string memory,\r\n        uint,\r\n        string memory,\r\n        uint\r\n        ){\r\n            return (\r\n                loaderIndex[i].emailCode,\r\n                loaderIndex[i].email,\r\n                loaderIndex[i].name,\r\n                loaderIndex[i].contactNumber,\r\n                loaderIndex[i].userAddress,\r\n                loaderIndex[i].userAccess\r\n                );\r\n    }\r\n    function getLoaderCount() public view returns(uint)\r\n    {\r\n        return loaderIndex.length;\r\n    }\r\n    \r\n    // function updateUserEmail(address userAddress, bytes32 userEmail) public returns(bool success)\r\n    // {\r\n    //     userStructs[userAddress].userEmail = userEmail;\r\n    //     emit LogUpdateUser(userAddress,  userStructs[userAddress].index, userEmail, userStructs[userAddress].userAge);\r\n    //     return true;\r\n    // }\r\n    function updateDistributorName (string memory _email,string memory _name) public returns(bool success){\r\n        bytes32 _emailCode = keccak256(abi.encodePacked((_email)));\r\n        require(isLoader(_emailCode) == true,'user not in system');\r\n        loaderArray[_emailCode].name = _name;\r\n        loaderIndex[loaderArray[_emailCode].index].name = _name;\r\n        emit LogUpdateLoader(\r\n            _emailCode,\r\n            loaderArray[_emailCode].index,\r\n            _email,\r\n            loaderArray[_emailCode].passwordCode,\r\n            loaderArray[_emailCode].passwordRestToken,\r\n            _name,\r\n            loaderArray[_emailCode].contactNumber,\r\n            loaderArray[_emailCode].userAddress,\r\n            loaderArray[_emailCode].userAccess\r\n            );\r\n        return true;\r\n    }\r\n    function updateLoaderAddress (string memory _email,string memory _userAddress) public returns(bool success){\r\n        bytes32 _emailCode = keccak256(abi.encodePacked((_email)));\r\n        require(isLoader(_emailCode) == true,'user not in system');\r\n        loaderArray[_emailCode].userAddress = _userAddress;\r\n        loaderIndex[loaderArray[_emailCode].index].userAddress = _userAddress;\r\n        emit LogUpdateLoader(\r\n            _emailCode,\r\n            loaderArray[_emailCode].index,\r\n            _email,\r\n            loaderArray[_emailCode].passwordCode,\r\n            loaderArray[_emailCode].passwordRestToken,\r\n            loaderArray[_emailCode].name,\r\n            loaderArray[_emailCode].contactNumber,\r\n            _userAddress,\r\n            loaderArray[_emailCode].userAccess\r\n            );\r\n        return true;\r\n    }\r\n    function updateLoaderContactNumber (string memory _email,uint _contactNumber) public returns(bool success){\r\n        bytes32 _emailCode = keccak256(abi.encodePacked((_email)));\r\n        require(isLoader(_emailCode) == true,'user not in system');\r\n        loaderArray[_emailCode].contactNumber = _contactNumber;\r\n        loaderIndex[loaderArray[_emailCode].index].contactNumber = _contactNumber;\r\n        emit LogUpdateLoader(\r\n            _emailCode,\r\n            loaderArray[_emailCode].index,\r\n            _email,\r\n            loaderArray[_emailCode].passwordCode,\r\n            loaderArray[_emailCode].passwordRestToken,\r\n            loaderArray[_emailCode].name,\r\n            _contactNumber,\r\n            loaderArray[_emailCode].userAddress,\r\n            loaderArray[_emailCode].userAccess\r\n            );\r\n        return true;\r\n    }\r\n    function updateLoader(\r\n        string memory _email,\r\n        uint[] memory index,\r\n        string memory _name,\r\n        string memory _userAddress,\r\n        uint _contactNumber\r\n        ) public returns(bool success){\r\n        bytes32 _emailCode = keccak256(abi.encodePacked((_email)));\r\n        require(isLoader(_emailCode) == true,'user not in system');\r\n        uint i;\r\n        uint num = loaderArray[_emailCode].index;\r\n\r\n        for (i = 0;i<index.length;i++){\r\n            if(index[i]==1){\r\n                loaderArray[_emailCode].name = _name;\r\n                loaderIndex[num].name = _name;\r\n                emit LogUpdateLoader(\r\n                    _emailCode,\r\n                    loaderArray[_emailCode].index,\r\n                    _email,loaderArray[_emailCode].passwordCode,\r\n                    loaderArray[_emailCode].passwordRestToken,\r\n                    _name,\r\n                    loaderArray[_emailCode].contactNumber,\r\n                    loaderArray[_emailCode].userAddress,\r\n                    loaderArray[_emailCode].userAccess\r\n                    );\r\n\r\n            }\r\n            else if(index[i]==2){\r\n                loaderArray[_emailCode].userAddress = _userAddress;\r\n\r\n                loaderIndex[num].userAddress = _userAddress;\r\n\r\n                emit LogUpdateLoader(\r\n                    _emailCode,\r\n                    loaderArray[_emailCode].index,\r\n                    _email,\r\n                    loaderArray[_emailCode].passwordCode,\r\n                    loaderArray[_emailCode].passwordRestToken,\r\n                    loaderArray[_emailCode].name,\r\n                    loaderArray[_emailCode].contactNumber,\r\n                    _userAddress,\r\n                    loaderArray[_emailCode].userAccess\r\n                    );\r\n\r\n            }\r\n            else if(index[i]==3){\r\n                loaderArray[_emailCode].contactNumber = _contactNumber;\r\n                loaderIndex[num].contactNumber = _contactNumber;\r\n                emit LogUpdateLoader(\r\n                    _emailCode,\r\n                    loaderArray[_emailCode].index,\r\n                    _email,\r\n                    loaderArray[_emailCode].passwordCode,\r\n                    loaderArray[_emailCode].passwordRestToken,\r\n                    loaderArray[_emailCode].name,\r\n                    _contactNumber,\r\n                    loaderArray[_emailCode].userAddress,\r\n                    loaderArray[_emailCode].userAccess\r\n                    );\r\n\r\n            }\r\n        }\r\n        return true;\r\n    }\r\n    ///////\r\n    function updateLoaderEmail (string memory _email) public returns(bool success)\r\n    {\r\n       // return true;\r\n    }\r\n    \r\n    function checkLoaderUserAccess(bytes32 email)public view returns(uint userAccess){\r\n        \r\n        return loaderArray[email].userAccess;\r\n    }\r\n    function checkLoaderPasswordCode(bytes32 email) public view returns(bytes32 passwordCode ){\r\n        return loaderArray[email].passwordCode;\r\n    }\r\n}",
  "sourcePath": "C:\\project\\tea supply chain mangement system\\test2\\contracts\\Loader.sol",
  "compiler": {
    "name": "solc",
    "version": "0.5.8+commit.23d335f2.Emscripten.clang"
  },
  "schemaVersion": "3.0.16",
  "updatedAt": "2019-11-16T02:02:57.284Z",
  "devdoc": {
    "methods": {}
  },
  "userdoc": {
    "methods": {
      "updateLoaderEmail(string)": {
        "notice": "////"
      }
    }
  }
}