{
  "contractName": "LoaderContract",
  "abi": [
    {
      "constant": true,
      "inputs": [
        {
          "name": "",
          "type": "bytes32"
        }
      ],
      "name": "loaderArray",
      "outputs": [
        {
          "name": "email",
          "type": "string"
        },
        {
          "name": "emailCode",
          "type": "bytes32"
        },
        {
          "name": "passwordCode",
          "type": "bytes32"
        },
        {
          "name": "passwordRestToken",
          "type": "bytes32"
        },
        {
          "name": "name",
          "type": "string"
        },
        {
          "name": "contactNumber",
          "type": "uint256"
        },
        {
          "name": "userAddress",
          "type": "string"
        },
        {
          "name": "userAccess",
          "type": "uint256"
        },
        {
          "name": "index",
          "type": "uint256"
        }
      ],
      "payable": false,
      "stateMutability": "view",
      "type": "function"
    },
    {
      "anonymous": false,
      "inputs": [
        {
          "indexed": true,
          "name": "emailCode",
          "type": "bytes32"
        },
        {
          "indexed": false,
          "name": "index",
          "type": "uint256"
        },
        {
          "indexed": false,
          "name": "email",
          "type": "string"
        },
        {
          "indexed": false,
          "name": "passwordCode",
          "type": "bytes32"
        },
        {
          "indexed": false,
          "name": "passwordRestToken",
          "type": "bytes32"
        },
        {
          "indexed": false,
          "name": "name",
          "type": "string"
        },
        {
          "indexed": false,
          "name": "contactNumber",
          "type": "uint256"
        },
        {
          "indexed": false,
          "name": "userAddress",
          "type": "string"
        },
        {
          "indexed": false,
          "name": "userAccess",
          "type": "uint256"
        }
      ],
      "name": "LogNewLoader",
      "type": "event"
    },
    {
      "anonymous": false,
      "inputs": [
        {
          "indexed": true,
          "name": "emailCode",
          "type": "bytes32"
        },
        {
          "indexed": false,
          "name": "index",
          "type": "uint256"
        },
        {
          "indexed": false,
          "name": "email",
          "type": "string"
        },
        {
          "indexed": false,
          "name": "passwordCode",
          "type": "bytes32"
        },
        {
          "indexed": false,
          "name": "passwordRestToken",
          "type": "bytes32"
        },
        {
          "indexed": false,
          "name": "name",
          "type": "string"
        },
        {
          "indexed": false,
          "name": "contactNumber",
          "type": "uint256"
        },
        {
          "indexed": false,
          "name": "userAddress",
          "type": "string"
        },
        {
          "indexed": false,
          "name": "userAccess",
          "type": "uint256"
        }
      ],
      "name": "LogUpdateLoader",
      "type": "event"
    },
    {
      "anonymous": false,
      "inputs": [
        {
          "indexed": true,
          "name": "emailcode",
          "type": "bytes32"
        },
        {
          "indexed": false,
          "name": "index",
          "type": "uint256"
        }
      ],
      "name": "LogDeleteLoader",
      "type": "event"
    },
    {
      "constant": true,
      "inputs": [
        {
          "name": "_emailCode",
          "type": "bytes32"
        }
      ],
      "name": "isLoader",
      "outputs": [
        {
          "name": "isIndeed",
          "type": "bool"
        }
      ],
      "payable": false,
      "stateMutability": "view",
      "type": "function"
    },
    {
      "constant": false,
      "inputs": [
        {
          "name": "_email",
          "type": "string"
        },
        {
          "name": "_name",
          "type": "string"
        },
        {
          "name": "_address",
          "type": "string"
        },
        {
          "name": "_telephone",
          "type": "uint256"
        }
      ],
      "name": "insertLoader",
      "outputs": [
        {
          "name": "",
          "type": "bool"
        }
      ],
      "payable": false,
      "stateMutability": "nonpayable",
      "type": "function"
    },
    {
      "constant": false,
      "inputs": [
        {
          "name": "email",
          "type": "bytes32"
        }
      ],
      "name": "deleteLoader",
      "outputs": [
        {
          "name": "",
          "type": "string"
        }
      ],
      "payable": false,
      "stateMutability": "nonpayable",
      "type": "function"
    },
    {
      "constant": false,
      "inputs": [
        {
          "name": "email",
          "type": "bytes32"
        }
      ],
      "name": "blockLoader",
      "outputs": [
        {
          "name": "",
          "type": "string"
        }
      ],
      "payable": false,
      "stateMutability": "nonpayable",
      "type": "function"
    },
    {
      "constant": false,
      "inputs": [
        {
          "name": "_email",
          "type": "string"
        },
        {
          "name": "usreAccess",
          "type": "uint256"
        }
      ],
      "name": "editUserAccess",
      "outputs": [
        {
          "name": "",
          "type": "bool"
        }
      ],
      "payable": false,
      "stateMutability": "nonpayable",
      "type": "function"
    },
    {
      "constant": true,
      "inputs": [
        {
          "name": "_email",
          "type": "string"
        }
      ],
      "name": "getLoader",
      "outputs": [
        {
          "name": "",
          "type": "bytes32"
        },
        {
          "name": "email",
          "type": "string"
        },
        {
          "name": "name",
          "type": "string"
        },
        {
          "name": "contactNumber",
          "type": "uint256"
        },
        {
          "name": "userAddress",
          "type": "string"
        },
        {
          "name": "userAccess",
          "type": "uint256"
        }
      ],
      "payable": false,
      "stateMutability": "view",
      "type": "function"
    },
    {
      "constant": true,
      "inputs": [
        {
          "name": "i",
          "type": "uint256"
        }
      ],
      "name": "getLoaderi",
      "outputs": [
        {
          "name": "",
          "type": "bytes32"
        },
        {
          "name": "",
          "type": "string"
        },
        {
          "name": "",
          "type": "string"
        },
        {
          "name": "",
          "type": "uint256"
        },
        {
          "name": "",
          "type": "string"
        },
        {
          "name": "",
          "type": "uint256"
        }
      ],
      "payable": false,
      "stateMutability": "view",
      "type": "function"
    },
    {
      "constant": true,
      "inputs": [],
      "name": "getLoaderCount",
      "outputs": [
        {
          "name": "",
          "type": "uint256"
        }
      ],
      "payable": false,
      "stateMutability": "view",
      "type": "function"
    },
    {
      "constant": false,
      "inputs": [
        {
          "name": "_email",
          "type": "string"
        },
        {
          "name": "_name",
          "type": "string"
        }
      ],
      "name": "updateLoaderName",
      "outputs": [
        {
          "name": "success",
          "type": "bool"
        }
      ],
      "payable": false,
      "stateMutability": "nonpayable",
      "type": "function"
    },
    {
      "constant": false,
      "inputs": [
        {
          "name": "_email",
          "type": "string"
        },
        {
          "name": "_userAddress",
          "type": "string"
        }
      ],
      "name": "updateLoaderAddress",
      "outputs": [
        {
          "name": "success",
          "type": "bool"
        }
      ],
      "payable": false,
      "stateMutability": "nonpayable",
      "type": "function"
    },
    {
      "constant": false,
      "inputs": [
        {
          "name": "_email",
          "type": "string"
        },
        {
          "name": "_contactNumber",
          "type": "uint256"
        }
      ],
      "name": "updateLoaderContactNumber",
      "outputs": [
        {
          "name": "success",
          "type": "bool"
        }
      ],
      "payable": false,
      "stateMutability": "nonpayable",
      "type": "function"
    },
    {
      "constant": false,
      "inputs": [
        {
          "name": "_email",
          "type": "string"
        },
        {
          "name": "index",
          "type": "uint256[]"
        },
        {
          "name": "_name",
          "type": "string"
        },
        {
          "name": "_userAddress",
          "type": "string"
        },
        {
          "name": "_contactNumber",
          "type": "uint256"
        }
      ],
      "name": "updateLoader",
      "outputs": [
        {
          "name": "success",
          "type": "bool"
        }
      ],
      "payable": false,
      "stateMutability": "nonpayable",
      "type": "function"
    },
    {
      "constant": false,
      "inputs": [
        {
          "name": "_email",
          "type": "string"
        }
      ],
      "name": "updateLoaderiEmail",
      "outputs": [
        {
          "name": "success",
          "type": "bool"
        }
      ],
      "payable": false,
      "stateMutability": "nonpayable",
      "type": "function"
    },
    {
      "constant": true,
      "inputs": [
        {
          "name": "email",
          "type": "bytes32"
        }
      ],
      "name": "checkLoaderUserAccess",
      "outputs": [
        {
          "name": "userAccess",
          "type": "uint256"
        }
      ],
      "payable": false,
      "stateMutability": "view",
      "type": "function"
    },
    {
      "constant": true,
      "inputs": [
        {
          "name": "email",
          "type": "bytes32"
        }
      ],
      "name": "checkLoaderPasswordCode",
      "outputs": [
        {
          "name": "passwordCode",
          "type": "bytes32"
        }
      ],
      "payable": false,
      "stateMutability": "view",
      "type": "function"
    }
  ],
  "bytecode": "0x608060405234801561001057600080fd5b50613409806100206000396000f3fe608060405234801561001057600080fd5b50600436106101005760003560e01c8063770079ee1161009757806394aae8561161006657806394aae85614610bfb578063ca16496f14610c9f578063d8264a0514610dc8578063ec440dbd14610de557610100565b8063770079ee146108f657806381283fe214610988578063849f4b0014610b38578063867fd12b14610bde57610100565b80631f7d9c34116100d35780631f7d9c34146104045780633667afe1146106015780636609b7cc1461083357806376b65fb2146108d957610100565b80630bfab7e914610105578063118d1e9914610136578063159d2604146101505780631f5b9540146102db575b600080fd5b6101226004803603602081101561011b57600080fd5b5035610e02565b604080519115158252519081900360200190f35b61013e610e50565b60408051918252519081900360200190f35b61016d6004803603602081101561016657600080fd5b5035610e57565b60405180806020018a8152602001898152602001888152602001806020018781526020018060200186815260200185815260200184810384528d818151815260200191508051906020019080838360005b838110156101d65781810151838201526020016101be565b50505050905090810190601f1680156102035780820380516001836020036101000a031916815260200191505b5084810383528951815289516020918201918b019080838360005b8381101561023657818101518382015260200161021e565b50505050905090810190601f1680156102635780820380516001836020036101000a031916815260200191505b50848103825287518152875160209182019189019080838360005b8381101561029657818101518382015260200161027e565b50505050905090810190601f1680156102c35780820380516001836020036101000a031916815260200191505b509c5050505050505050505050505060405180910390f35b610122600480360360408110156102f157600080fd5b810190602081018135600160201b81111561030b57600080fd5b82018360208201111561031d57600080fd5b803590602001918460018302840111600160201b8311171561033e57600080fd5b91908080601f0160208091040260200160405190810160405280939291908181526020018383808284376000920191909152509295949360208101935035915050600160201b81111561039057600080fd5b8201836020820111156103a257600080fd5b803590602001918460018302840111600160201b831117156103c357600080fd5b91908080601f016020809104026020016040519081016040528093929190818152602001838380828437600092019190915250929550611048945050505050565b6104a86004803603602081101561041a57600080fd5b810190602081018135600160201b81111561043457600080fd5b82018360208201111561044657600080fd5b803590602001918460018302840111600160201b8311171561046757600080fd5b91908080601f016020809104026020016040519081016040528093929190818152602001838380828437600092019190915250929550611398945050505050565b60405180878152602001806020018060200186815260200180602001858152602001848103845289818151815260200191508051906020019080838360005b838110156104ff5781810151838201526020016104e7565b50505050905090810190601f16801561052c5780820380516001836020036101000a031916815260200191505b5084810383528851815288516020918201918a019080838360005b8381101561055f578181015183820152602001610547565b50505050905090810190601f16801561058c5780820380516001836020036101000a031916815260200191505b50848103825286518152865160209182019188019080838360005b838110156105bf5781810151838201526020016105a7565b50505050905090810190601f1680156105ec5780820380516001836020036101000a031916815260200191505b50995050505050505050505060405180910390f35b610122600480360360a081101561061757600080fd5b810190602081018135600160201b81111561063157600080fd5b82018360208201111561064357600080fd5b803590602001918460018302840111600160201b8311171561066457600080fd5b91908080601f0160208091040260200160405190810160405280939291908181526020018383808284376000920191909152509295949360208101935035915050600160201b8111156106b657600080fd5b8201836020820111156106c857600080fd5b803590602001918460208302840111600160201b831117156106e957600080fd5b9190808060200260200160405190810160405280939291908181526020018383602002808284376000920191909152509295949360208101935035915050600160201b81111561073857600080fd5b82018360208201111561074a57600080fd5b803590602001918460018302840111600160201b8311171561076b57600080fd5b91908080601f0160208091040260200160405190810160405280939291908181526020018383808284376000920191909152509295949360208101935035915050600160201b8111156107bd57600080fd5b8201836020820111156107cf57600080fd5b803590602001918460018302840111600160201b831117156107f057600080fd5b91908080601f0160208091040260200160405190810160405280939291908181526020018383808284376000920191909152509295505091359250611652915050565b6101226004803603604081101561084957600080fd5b810190602081018135600160201b81111561086357600080fd5b82018360208201111561087557600080fd5b803590602001918460018302840111600160201b8311171561089657600080fd5b91908080601f0160208091040260200160405190810160405280939291908181526020018383808284376000920191909152509295505091359250611edc915050565b6104a8600480360360208110156108ef57600080fd5b5035611f94565b6109136004803603602081101561090c57600080fd5b5035612217565b6040805160208082528351818301528351919283929083019185019080838360005b8381101561094d578181015183820152602001610935565b50505050905090810190601f16801561097a5780820380516001836020036101000a031916815260200191505b509250505060405180910390f35b6101226004803603608081101561099e57600080fd5b810190602081018135600160201b8111156109b857600080fd5b8201836020820111156109ca57600080fd5b803590602001918460018302840111600160201b831117156109eb57600080fd5b91908080601f0160208091040260200160405190810160405280939291908181526020018383808284376000920191909152509295949360208101935035915050600160201b811115610a3d57600080fd5b820183602082011115610a4f57600080fd5b803590602001918460018302840111600160201b83111715610a7057600080fd5b91908080601f0160208091040260200160405190810160405280939291908181526020018383808284376000920191909152509295949360208101935035915050600160201b811115610ac257600080fd5b820183602082011115610ad457600080fd5b803590602001918460018302840111600160201b83111715610af557600080fd5b91908080601f0160208091040260200160405190810160405280939291908181526020018383808284376000920191909152509295505091359250612448915050565b61012260048036036040811015610b4e57600080fd5b810190602081018135600160201b811115610b6857600080fd5b820183602082011115610b7a57600080fd5b803590602001918460018302840111600160201b83111715610b9b57600080fd5b91908080601f016020809104026020016040519081016040528093929190818152602001838380828437600092019190915250929550509135925061281d915050565b61091360048036036020811015610bf457600080fd5b5035612b53565b61012260048036036020811015610c1157600080fd5b810190602081018135600160201b811115610c2b57600080fd5b820183602082011115610c3d57600080fd5b803590602001918460018302840111600160201b83111715610c5e57600080fd5b91908080601f016020809104026020016040519081016040528093929190818152602001838380828437600092019190915250929550612d98945050505050565b61012260048036036040811015610cb557600080fd5b810190602081018135600160201b811115610ccf57600080fd5b820183602082011115610ce157600080fd5b803590602001918460018302840111600160201b83111715610d0257600080fd5b91908080601f0160208091040260200160405190810160405280939291908181526020018383808284376000920191909152509295949360208101935035915050600160201b811115610d5457600080fd5b820183602082011115610d6657600080fd5b803590602001918460018302840111600160201b83111715610d8757600080fd5b91908080601f016020809104026020016040519081016040528093929190818152602001838380828437600092019190915250929550612d9e945050505050565b61013e60048036036020811015610dde57600080fd5b50356130a2565b61013e60048036036020811015610dfb57600080fd5b50356130b7565b600154600090610e1457506000610e4b565b600082815260208190526040902060080154600180548492908110610e3557fe5b9060005260206000209060060201600001541490505b919050565b6001545b90565b6000602081815291815260409081902080548251601f600260001961010060018616150201909316929092049182018590048502810185019093528083529092839190830182828015610eeb5780601f10610ec057610100808354040283529160200191610eeb565b820191906000526020600020905b815481529060010190602001808311610ece57829003601f168201915b505050505090806001015490806002015490806003015490806004018054600181600116156101000203166002900480601f016020809104026020016040519081016040528092919081815260200182805460018160011615610100020316600290048015610f9b5780601f10610f7057610100808354040283529160200191610f9b565b820191906000526020600020905b815481529060010190602001808311610f7e57829003601f168201915b50505050600583015460068401805460408051602060026001851615610100026000190190941693909304601f810184900484028201840190925281815295969395939450908301828280156110325780601f1061100757610100808354040283529160200191611032565b820191906000526020600020905b81548152906001019060200180831161101557829003601f168201915b5050505050908060070154908060080154905089565b600080836040516020018082805190602001908083835b6020831061107e5780518252601f19909201916020918201910161105f565b6001836020036101000a0380198251168184511680821785525050505050509050019150506040516020818303038152906040528051906020012090506110c481610e02565b15156001146111155760408051600160e51b62461bcd0281526020600482015260126024820152600160701b7175736572206e6f7420696e2073797374656d02604482015290519081900360640190fd5b600081815260208181526040909120845161113892600690920191860190613284565b5060008181526020819052604090206008015460018054859290811061115a57fe5b9060005260206000209060060201600401908051906020019061117e929190613284565b50806000805160206133be83398151915260008084815260200190815260200160002060080154866000808681526020019081526020016000206002015460008087815260200190815260200160002060030154600080888152602001908152602001600020600401600080898152602001908152602001600020600501548a6000808b8152602001908152602001600020600701546040518089815260200180602001888152602001878152602001806020018681526020018060200185815260200184810384528b818151815260200191508051906020019080838360005b8381101561127757818101518382015260200161125f565b50505050905090810190601f1680156112a45780820380516001836020036101000a031916815260200191505b508481038352885460026000196101006001841615020190911604808252602090910190899080156113175780601f106112ec57610100808354040283529160200191611317565b820191906000526020600020905b8154815290600101906020018083116112fa57829003601f168201915b5050848103825286518152865160209182019188019080838360005b8381101561134b578181015183820152602001611333565b50505050905090810190601f1680156113785780820380516001836020036101000a031916815260200191505b509b50505050505050505050505060405180910390a25060019392505050565b600060608060006060600080876040516020018082805190602001908083835b602083106113d75780518252601f1990920191602091820191016113b8565b6001836020036101000a03801982511681845116808217855250505050505090500191505060405160208183030381529060405280519060200120905061141d81610e02565b151560011461146e5760408051600160e51b62461bcd0281526020600482015260126024820152600160701b7175736572206e6f7420696e2073797374656d02604482015290519081900360640190fd5b60008181526020818152604091829020600581015460078201548254855160026001831615610100026000190190921691909104601f8101869004860282018601909652858152869593946004860194600687019392918791908301828280156115195780601f106114ee57610100808354040283529160200191611519565b820191906000526020600020905b8154815290600101906020018083116114fc57829003601f168201915b5050875460408051602060026001851615610100026000190190941693909304601f8101849004840282018401909252818152959a50899450925084019050828280156115a75780601f1061157c576101008083540402835291602001916115a7565b820191906000526020600020905b81548152906001019060200180831161158a57829003601f168201915b5050855460408051602060026001851615610100026000190190941693909304601f8101849004840282018401909252818152959950879450925084019050828280156116355780601f1061160a57610100808354040283529160200191611635565b820191906000526020600020905b81548152906001019060200180831161161857829003601f168201915b505050505091509650965096509650965096505091939550919395565b600080866040516020018082805190602001908083835b602083106116885780518252601f199092019160209182019101611669565b6001836020036101000a0380198251168184511680821785525050505050509050019150506040516020818303038152906040528051906020012090506116ce81610e02565b151560011461171f5760408051600160e51b62461bcd0281526020600482015260126024820152600160701b7175736572206e6f7420696e2073797374656d02604482015290519081900360640190fd5b6000818152602081905260408120600801545b8751821015611ecd5787828151811061174757fe5b6020026020010151600114156119c257600083815260208181526040909120885161177a926004909201918a0190613284565b50866001828154811061178957fe5b906000526020600020906006020160020190805190602001906117ad929190613284565b50826000805160206133be833981519152600080868152602001908152602001600020600801548b60008088815260200190815260200160002060020154600080898152602001908152602001600020600301548c6000808b8152602001908152602001600020600501546000808c81526020019081526020016000206006016000808d8152602001908152602001600020600701546040518089815260200180602001888152602001878152602001806020018681526020018060200185815260200184810384528b818151815260200191508051906020019080838360005b838110156118a657818101518382015260200161188e565b50505050905090810190601f1680156118d35780820380516001836020036101000a031916815260200191505b5084810383528851815288516020918201918a019080838360005b838110156119065781810151838201526020016118ee565b50505050905090810190601f1680156119335780820380516001836020036101000a031916815260200191505b508481038252865460026000196101006001841615020190911604808252602090910190879080156119a65780601f1061197b576101008083540402835291602001916119a6565b820191906000526020600020905b81548152906001019060200180831161198957829003601f168201915b50509b50505050505050505050505060405180910390a2611ec2565b8782815181106119ce57fe5b602002602001015160021415611c49576000838152602081815260409091208751611a0192600690920191890190613284565b508560018281548110611a1057fe5b90600052602060002090600602016004019080519060200190611a34929190613284565b50826000805160206133be833981519152600080868152602001908152602001600020600801548b60008088815260200190815260200160002060020154600080898152602001908152602001600020600301546000808a81526020019081526020016000206004016000808b8152602001908152602001600020600501548d6000808d8152602001908152602001600020600701546040518089815260200180602001888152602001878152602001806020018681526020018060200185815260200184810384528b818151815260200191508051906020019080838360005b83811015611b2d578181015183820152602001611b15565b50505050905090810190601f168015611b5a5780820380516001836020036101000a031916815260200191505b50848103835288546002600019610100600184161502019091160480825260209091019089908015611bcd5780601f10611ba257610100808354040283529160200191611bcd565b820191906000526020600020905b815481529060010190602001808311611bb057829003601f168201915b5050848103825286518152865160209182019188019080838360005b83811015611c01578181015183820152602001611be9565b50505050905090810190601f168015611c2e5780820380516001836020036101000a031916815260200191505b509b50505050505050505050505060405180910390a2611ec2565b878281518110611c5557fe5b602002602001015160031415611ec25760008381526020819052604090206005018590556001805486919083908110611c8a57fe5b906000526020600020906006020160030181905550826000805160206133be833981519152600080868152602001908152602001600020600801548b60008088815260200190815260200160002060020154600080898152602001908152602001600020600301546000808a81526020019081526020016000206004018b6000808c81526020019081526020016000206006016000808d8152602001908152602001600020600701546040518089815260200180602001888152602001878152602001806020018681526020018060200185815260200184810384528b818151815260200191508051906020019080838360005b83811015611d96578181015183820152602001611d7e565b50505050905090810190601f168015611dc35780820380516001836020036101000a031916815260200191505b50848103835288546002600019610100600184161502019091160480825260209091019089908015611e365780601f10611e0b57610100808354040283529160200191611e36565b820191906000526020600020905b815481529060010190602001808311611e1957829003601f168201915b5050848103825286546002600019610100600184161502019091160480825260209091019087908015611eaa5780601f10611e7f57610100808354040283529160200191611eaa565b820191906000526020600020905b815481529060010190602001808311611e8d57829003601f168201915b50509b50505050505050505050505060405180910390a25b600190910190611732565b50600198975050505050505050565b600080836040516020018082805190602001908083835b60208310611f125780518252601f199092019160209182019101611ef3565b51815160209384036101000a60001901801990921691161790526040805192909401828103601f19018352845281519181019190912060008181529182905292902060078101889055600801546001805493965088955093509182109050611f7657fe5b60009182526020909120600560069092020101555060019392505050565b600060608060006060600060018781548110611fac57fe5b90600052602060002090600602016000015460018881548110611fcb57fe5b906000526020600020906006020160010160018981548110611fe957fe5b906000526020600020906006020160020160018a8154811061200757fe5b90600052602060002090600602016003015460018b8154811061202657fe5b906000526020600020906006020160040160018c8154811061204457fe5b600091825260209182902060056006909202010154855460408051601f6002600019610100600187161502019094169390930492830185900485028101850190915281815291928791908301828280156120df5780601f106120b4576101008083540402835291602001916120df565b820191906000526020600020905b8154815290600101906020018083116120c257829003601f168201915b5050875460408051602060026001851615610100026000190190941693909304601f8101849004840282018401909252818152959a508994509250840190508282801561216d5780601f106121425761010080835404028352916020019161216d565b820191906000526020600020905b81548152906001019060200180831161215057829003601f168201915b5050855460408051602060026001851615610100026000190190941693909304601f8101849004840282018401909252818152959950879450925084019050828280156121fb5780601f106121d0576101008083540402835291602001916121fb565b820191906000526020600020905b8154815290600101906020018083116121de57829003601f168201915b5050505050915095509550955095509550955091939550919395565b60606000815b6002548210156122f857836002838154811061223557fe5b90600052602060002090600202016000015414156122ed5760028054600019810190811061225f57fe5b9060005260206000209060020201600001546002838154811061227e57fe5b6000918252602090912060029182020191909155805460001981019081106122a257fe5b906000526020600020906002020160010154600283815481106122c157fe5b90600052602060002090600202016001018190555060028054809190600190036122eb9190613302565b505b60019091019061221d565b600084815260208190526040902060046007820181905560089091015460018054909190811061232457fe5b9060005260206000209060060201600501819055506001600080868152602001908152602001600020600801548154811061235b57fe5b600091825260209182902060026006909202018101805460408051601f6000196101006001861615020190931694909404918201859004850284018501905280835291929091908301828280156123f35780601f106123c8576101008083540402835291602001916123f3565b820191906000526020600020905b8154815290600101906020018083116123d657829003601f168201915b50505060008781526020818152604091829020600801548251908152915194955088947ff5a60d164d2167f821f6e0a319726c4f553b0d3a2dad9c7f5b0fce6c59484b04945091829003019150a29392505050565b600080856040516020018082805190602001908083835b6020831061247e5780518252601f19909201916020918201910161245f565b6001836020036101000a03801982511681845116808217855250505050505090500191505060405160208183030381529060405280519060200120905060006040516020018080600160f81b60610281525060010190506040516020818303038152906040528051906020012090506124f682610e02565b1515600114156125505760408051600160e51b62461bcd02815260206004820152601660248201527f7573657220616c6c7265647920696e2073797374656d00000000000000000000604482015290519081900360640190fd5b600082815260208181526040909120885161256d928a0190613284565b50600082815260208190526040902060018101839055600201819055612592826130cc565b600083815260208181526040909120600381019290925587516125bb9260040191890190613284565b506000828152602081815260409091206005810186905586516125e692600690920191880190613284565b506000828152602081905260409020600160079091015561260a8288888789613152565b50600180805490500360008084815260200190815260200160002060080181905550817ffd8558450cfe0ac4f77d6dfc38061cb83167acf9063a8e98f53e7a13c9b68f05600080858152602001908152602001600020600801548960008087815260200190815260200160002060020154600080888152602001908152602001600020600301548b8a8c6000808c8152602001908152602001600020600701546040518089815260200180602001888152602001878152602001806020018681526020018060200185815260200184810384528b818151815260200191508051906020019080838360005b8381101561270d5781810151838201526020016126f5565b50505050905090810190601f16801561273a5780820380516001836020036101000a031916815260200191505b5084810383528851815288516020918201918a019080838360005b8381101561276d578181015183820152602001612755565b50505050905090810190601f16801561279a5780820380516001836020036101000a031916815260200191505b50848103825286518152865160209182019188019080838360005b838110156127cd5781810151838201526020016127b5565b50505050905090810190601f1680156127fa5780820380516001836020036101000a031916815260200191505b509b50505050505050505050505060405180910390a25060019695505050505050565b600080836040516020018082805190602001908083835b602083106128535780518252601f199092019160209182019101612834565b6001836020036101000a03801982511681845116808217855250505050505090500191505060405160208183030381529060405280519060200120905061289981610e02565b15156001146128ea5760408051600160e51b62461bcd0281526020600482015260126024820152600160701b7175736572206e6f7420696e2073797374656d02604482015290519081900360640190fd5b6000818152602081905260409020600581018490556008015460018054859290811061291257fe5b906000526020600020906006020160030181905550806000805160206133be83398151915260008084815260200190815260200160002060080154866000808681526020019081526020016000206002015460008087815260200190815260200160002060030154600080888152602001908152602001600020600401896000808a81526020019081526020016000206006016000808b8152602001908152602001600020600701546040518089815260200180602001888152602001878152602001806020018681526020018060200185815260200184810384528b818151815260200191508051906020019080838360005b83811015612a1e578181015183820152602001612a06565b50505050905090810190601f168015612a4b5780820380516001836020036101000a031916815260200191505b50848103835288546002600019610100600184161502019091160480825260209091019089908015612abe5780601f10612a9357610100808354040283529160200191612abe565b820191906000526020600020905b815481529060010190602001808311612aa157829003601f168201915b5050848103825286546002600019610100600184161502019091160480825260209091019087908015612b325780601f10612b0757610100808354040283529160200191612b32565b820191906000526020600020905b815481529060010190602001808311612b1557829003601f168201915b50509b50505050505050505050505060405180910390a25060019392505050565b600081815260208190526040902060070154606090819060051415612c75576000838152602081905260409020600360078201819055600890910154600180549091908110612b9e57fe5b90600052602060002090600602016005018190555060016000808581526020019081526020016000206008015481548110612bd557fe5b600091825260209182902060026006909202018101805460408051601f600019610100600186161502019093169490940491820185900485028401850190528083529192909190830182828015612c6d5780601f10612c4257610100808354040283529160200191612c6d565b820191906000526020600020905b815481529060010190602001808311612c5057829003601f168201915b505050505090505b60008381526020819052604090206007015460031415612d92576000838152602081905260409020600560078201819055600890910154600180549091908110612cbb57fe5b90600052602060002090600602016005018190555060016000808581526020019081526020016000206008015481548110612cf257fe5b600091825260209182902060026006909202018101805460408051601f600019610100600186161502019093169490940491820185900485028401850190528083529192909190830182828015612d8a5780601f10612d5f57610100808354040283529160200191612d8a565b820191906000526020600020905b815481529060010190602001808311612d6d57829003601f168201915b505050505090505b92915050565b50600090565b600080836040516020018082805190602001908083835b60208310612dd45780518252601f199092019160209182019101612db5565b6001836020036101000a038019825116818451168082178552505050505050905001915050604051602081830303815290604052805190602001209050612e1a81610e02565b1515600114612e6b5760408051600160e51b62461bcd0281526020600482015260126024820152600160701b7175736572206e6f7420696e2073797374656d02604482015290519081900360640190fd5b6000818152602081815260409091208451612e8e92600490920191860190613284565b50600081815260208190526040902060080154600180548592908110612eb057fe5b90600052602060002090600602016002019080519060200190612ed4929190613284565b50806000805160206133be8339815191526000808481526020019081526020016000206008015486600080868152602001908152602001600020600201546000808781526020019081526020016000206003015488600080898152602001908152602001600020600501546000808a81526020019081526020016000206006016000808b8152602001908152602001600020600701546040518089815260200180602001888152602001878152602001806020018681526020018060200185815260200184810384528b818151815260200191508051906020019080838360005b83811015612fcd578181015183820152602001612fb5565b50505050905090810190601f168015612ffa5780820380516001836020036101000a031916815260200191505b5084810383528851815288516020918201918a019080838360005b8381101561302d578181015183820152602001613015565b50505050905090810190601f16801561305a5780820380516001836020036101000a031916815260200191505b50848103825286546002600019610100600184161502019091160480825260209091019087908015612b325780601f10612b0757610100808354040283529160200191612b32565b60009081526020819052604090206002015490565b60009081526020819052604090206007015490565b6000806130d7613258565b90506130e1613333565b83815260208101828152600280546001810182556000829052925192027f405787fa12a823e0f2b7631cc41b3ba8828b3321ca811111fa75cd3aa3bb5ace810192909255517f405787fa12a823e0f2b7631cc41b3ba8828b3321ca811111fa75cd3aa3bb5acf909101559050919050565b600061315c61334a565b8681526020808201878152604083018790526060830186905260808301859052600160a084018190528054808201808355600092909252845160069091027fb10e2d527612073b26eecdfd717e6a320cf44b4afac2b0732d9fcbe2b7fa0cf68101918255925180519294869492936131fa937fb10e2d527612073b26eecdfd717e6a320cf44b4afac2b0732d9fcbe2b7fa0cf7019290910190613284565b5060408201518051613216916002840191602090910190613284565b50606082015160038201556080820151805161323c916004840191602090910190613284565b5060a08201518160050155505050600191505095945050505050565b604080514260208083019190915244828401528251808303840181526060909201909252805191012090565b828054600181600116156101000203166002900490600052602060002090601f016020900481019282601f106132c557805160ff19168380011785556132f2565b828001600101855582156132f2579182015b828111156132f25782518255916020019190600101906132d7565b506132fe929150613383565b5090565b81548183558181111561332e5760020281600202836000526020600020918201910161332e919061339d565b505050565b604080518082019091526000808252602082015290565b6040518060c001604052806000801916815260200160608152602001606081526020016000815260200160608152602001600081525090565b610e5491905b808211156132fe5760008155600101613389565b610e5491905b808211156132fe57600080825560018201556002016133a356fe2188045651757e59cf59ddd1cbd2c939ecc7f4b3c5b5a5747fb5d4ee8167d523a165627a7a723058203326c108ecc18243da13f153fb32f6374760d1af6d1428db3dfd9f6585fa8b8e0029",
  "source": "pragma solidity >=0.4.21 <0.6.0;\r\n\r\ncontract LoaderContract {\r\n    \r\n    struct Loader{\r\n        string email;\r\n        bytes32 emailCode;\r\n        bytes32 passwordCode;\r\n        bytes32 passwordRestToken;\r\n        string name;\r\n        uint contactNumber;\r\n        string userAddress;\r\n        uint userAccess;\r\n        uint index;\r\n    }\r\n\r\n    struct DisplayLoader{\r\n        bytes32 emailCode;\r\n        string email;\r\n        string name;\r\n        uint contactNumber;\r\n        string userAddress;\r\n        uint userAccess;\r\n    }\r\n    \r\n    event LogNewLoader(\r\n        bytes32 indexed emailCode,\r\n        uint index,string email,\r\n        bytes32 passwordCode,\r\n        bytes32 passwordRestToken,\r\n        string name,\r\n        uint contactNumber,\r\n        string userAddress,\r\n        uint userAccess\r\n        );\r\n    event LogUpdateLoader(\r\n        bytes32 indexed emailCode,\r\n        uint index,string email,\r\n        bytes32 passwordCode,\r\n        bytes32 passwordRestToken,\r\n        string name,\r\n        uint contactNumber,\r\n        string userAddress,\r\n        uint userAccess\r\n        );\r\n    event LogDeleteLoader(\r\n        bytes32 indexed emailcode,\r\n        uint index\r\n        );\r\n        \r\n    struct RegistationToken{\r\n        bytes32 emailCode;\r\n        bytes32 token;\r\n    }\r\n        \r\n    mapping(bytes32 => Loader) public loaderArray;\r\n    DisplayLoader[] private loaderIndex;\r\n    RegistationToken[] private loaderRegistationToken;\r\n    \r\n    function isLoader(bytes32 _emailCode)public view returns(bool isIndeed) {\r\n        if(loaderIndex.length == 0) return false;\r\n        return (loaderIndex[loaderArray[_emailCode].index].emailCode == _emailCode);\r\n    }\r\n    function createLoaderToken(bytes32 _emailCode)private returns(bytes32){\r\n        bytes32 token = randomtoken();\r\n        RegistationToken memory registationToken;\r\n        registationToken.emailCode = _emailCode;\r\n        registationToken.token = token;\r\n        loaderRegistationToken.push(registationToken);\r\n        return token;\r\n    }\r\n    function randomtoken() private view returns (bytes32) {\r\n       return keccak256(abi.encodePacked( block.timestamp, block.difficulty));\r\n    }\r\n    function setDisplayLoader(bytes32 _emailCode,string memory _email,string memory _name,uint _telephone,string memory _address)\r\n     private returns(bool){\r\n\r\n        DisplayLoader memory displayLoader;\r\n        displayLoader.emailCode = _emailCode;\r\n        displayLoader.email = _email;\r\n        displayLoader.name = _name;\r\n        displayLoader.contactNumber = _telephone;\r\n        displayLoader.userAddress = _address;\r\n        displayLoader.userAccess = 1;\r\n        loaderIndex.push(displayLoader);\r\n        return true;\r\n\r\n    }\r\n    function insertLoader(string memory _email,string memory _name,string memory _address,uint _telephone) public returns(bool){\r\n        bytes32 _emailCode = keccak256(abi.encodePacked((_email)));\r\n        bytes32 _passwordCode = keccak256(abi.encodePacked((\"a\")));\r\n        require(isLoader(_emailCode) != true,'user allredy in system');\r\n\r\n        loaderArray[_emailCode].email = _email;\r\n        loaderArray[_emailCode].emailCode = _emailCode;\r\n        loaderArray[_emailCode].passwordCode = _passwordCode;\r\n        loaderArray[_emailCode].passwordRestToken = createLoaderToken(_emailCode);\r\n        loaderArray[_emailCode].name = _name;\r\n        loaderArray[_emailCode].contactNumber = _telephone;\r\n        loaderArray[_emailCode].userAddress = _address;\r\n        loaderArray[_emailCode].userAccess = 1;\r\n        setDisplayLoader(_emailCode,_email,_name,_telephone,_address);\r\n        loaderArray[_emailCode].index = loaderIndex.length-1;\r\n\r\n        emit LogNewLoader (\r\n            _emailCode,\r\n            loaderArray[_emailCode].index,\r\n            _email,\r\n            loaderArray[_emailCode].passwordCode,\r\n            loaderArray[_emailCode].passwordRestToken,\r\n            _name,\r\n            _telephone,\r\n            _address,\r\n            loaderArray[_emailCode].userAccess\r\n            );\r\n        return true;\r\n    }\r\n    function deleteLoader (bytes32 email) public returns(string memory){\r\n        uint i;\r\n        string memory name;\r\n        for( i = 0; i < loaderRegistationToken.length; i++) {\r\n            if(loaderRegistationToken[i].emailCode == email){\r\n                loaderRegistationToken[i].emailCode = loaderRegistationToken[loaderRegistationToken.length-1].emailCode;\r\n                loaderRegistationToken[i].token = loaderRegistationToken[loaderRegistationToken.length-1].token;\r\n                loaderRegistationToken.length--;\r\n            }\r\n        }\r\n        loaderArray[email].userAccess = 4;\r\n        loaderIndex[loaderArray[email].index].userAccess = 4;\r\n        name = loaderIndex[loaderArray[email].index].name;\r\n        emit LogDeleteLoader(\r\n            email,\r\n            loaderArray[email].index\r\n        );\r\n        return name;\r\n    }\r\n    function blockLoader(bytes32 email) public returns(string memory)\r\n    {\r\n        string memory name;\r\n        if(loaderArray[email].userAccess == 5){\r\n        loaderArray[email].userAccess = 3;\r\n        loaderIndex[loaderArray[email].index].userAccess = 3;\r\n        name = loaderIndex[loaderArray[email].index].name;\r\n        }\r\n        if(loaderArray[email].userAccess == 3){\r\n        loaderArray[email].userAccess = 5;\r\n        loaderIndex[loaderArray[email].index].userAccess = 5;\r\n        name = loaderIndex[loaderArray[email].index].name;\r\n        }\r\n        return name;\r\n    }\r\n    function editUserAccess(string memory _email,uint usreAccess)public returns(bool){\r\n        bytes32 email = keccak256(abi.encodePacked((_email)));\r\n        loaderArray[email].userAccess = usreAccess;\r\n        loaderIndex[loaderArray[email].index].userAccess = usreAccess;\r\n        return true;\r\n\r\n    }\r\n    function getLoader(string memory _email) public view returns(bytes32,string memory email,string memory name,\r\n    uint contactNumber,string memory userAddress, uint userAccess){\r\n        bytes32 _emailCode = keccak256(abi.encodePacked((_email)));\r\n        require(isLoader(_emailCode) == true,'user not in system');\r\n        return(\r\n            _emailCode,\r\n            loaderArray[_emailCode].email,\r\n            loaderArray[_emailCode].name,\r\n            loaderArray[_emailCode].contactNumber,\r\n            loaderArray[_emailCode].userAddress,\r\n            loaderArray[_emailCode].userAccess\r\n            );\r\n    }\r\n    function getLoaderi(uint i) public view returns(\r\n        bytes32,\r\n        string memory,\r\n        string memory,\r\n        uint,\r\n        string memory,\r\n        uint\r\n        ){\r\n            return (\r\n                loaderIndex[i].emailCode,\r\n                loaderIndex[i].email,\r\n                loaderIndex[i].name,\r\n                loaderIndex[i].contactNumber,\r\n                loaderIndex[i].userAddress,\r\n                loaderIndex[i].userAccess\r\n                );\r\n    }\r\n    function getLoaderCount() public view returns(uint)\r\n    {\r\n        return loaderIndex.length;\r\n    }\r\n    \r\n    // function updateUserEmail(address userAddress, bytes32 userEmail) public returns(bool success)\r\n    // {\r\n    //     userStructs[userAddress].userEmail = userEmail;\r\n    //     emit LogUpdateUser(userAddress,  userStructs[userAddress].index, userEmail, userStructs[userAddress].userAge);\r\n    //     return true;\r\n    // }\r\n    function updateLoaderName (string memory _email,string memory _name) public returns(bool success){\r\n        bytes32 _emailCode = keccak256(abi.encodePacked((_email)));\r\n        require(isLoader(_emailCode) == true,'user not in system');\r\n        loaderArray[_emailCode].name = _name;\r\n        loaderIndex[loaderArray[_emailCode].index].name = _name;\r\n        emit LogUpdateLoader(\r\n            _emailCode,\r\n            loaderArray[_emailCode].index,\r\n            _email,\r\n            loaderArray[_emailCode].passwordCode,\r\n            loaderArray[_emailCode].passwordRestToken,\r\n            _name,\r\n            loaderArray[_emailCode].contactNumber,\r\n            loaderArray[_emailCode].userAddress,\r\n            loaderArray[_emailCode].userAccess\r\n            );\r\n        return true;\r\n    }\r\n    function updateLoaderAddress (string memory _email,string memory _userAddress) public returns(bool success){\r\n        bytes32 _emailCode = keccak256(abi.encodePacked((_email)));\r\n        require(isLoader(_emailCode) == true,'user not in system');\r\n        loaderArray[_emailCode].userAddress = _userAddress;\r\n        loaderIndex[loaderArray[_emailCode].index].userAddress = _userAddress;\r\n        emit LogUpdateLoader(\r\n            _emailCode,\r\n            loaderArray[_emailCode].index,\r\n            _email,\r\n            loaderArray[_emailCode].passwordCode,\r\n            loaderArray[_emailCode].passwordRestToken,\r\n            loaderArray[_emailCode].name,\r\n            loaderArray[_emailCode].contactNumber,\r\n            _userAddress,\r\n            loaderArray[_emailCode].userAccess\r\n            );\r\n        return true;\r\n    }\r\n    function updateLoaderContactNumber (string memory _email,uint _contactNumber) public returns(bool success){\r\n        bytes32 _emailCode = keccak256(abi.encodePacked((_email)));\r\n        require(isLoader(_emailCode) == true,'user not in system');\r\n        loaderArray[_emailCode].contactNumber = _contactNumber;\r\n        loaderIndex[loaderArray[_emailCode].index].contactNumber = _contactNumber;\r\n        emit LogUpdateLoader(\r\n            _emailCode,\r\n            loaderArray[_emailCode].index,\r\n            _email,\r\n            loaderArray[_emailCode].passwordCode,\r\n            loaderArray[_emailCode].passwordRestToken,\r\n            loaderArray[_emailCode].name,\r\n            _contactNumber,\r\n            loaderArray[_emailCode].userAddress,\r\n            loaderArray[_emailCode].userAccess\r\n            );\r\n        return true;\r\n    }\r\n    function updateLoader(\r\n        string memory _email,\r\n        uint[] memory index,\r\n        string memory _name,\r\n        string memory _userAddress,\r\n        uint _contactNumber\r\n        ) public returns(bool success){\r\n        bytes32 _emailCode = keccak256(abi.encodePacked((_email)));\r\n        require(isLoader(_emailCode) == true,'user not in system');\r\n        uint i;\r\n        uint num = loaderArray[_emailCode].index;\r\n\r\n        for (i = 0;i<index.length;i++){\r\n            if(index[i]==1){\r\n                loaderArray[_emailCode].name = _name;\r\n                loaderIndex[num].name = _name;\r\n                emit LogUpdateLoader(\r\n                    _emailCode,\r\n                    loaderArray[_emailCode].index,\r\n                    _email,loaderArray[_emailCode].passwordCode,\r\n                    loaderArray[_emailCode].passwordRestToken,\r\n                    _name,\r\n                    loaderArray[_emailCode].contactNumber,\r\n                    loaderArray[_emailCode].userAddress,\r\n                    loaderArray[_emailCode].userAccess\r\n                    );\r\n\r\n            }\r\n            else if(index[i]==2){\r\n                loaderArray[_emailCode].userAddress = _userAddress;\r\n\r\n                loaderIndex[num].userAddress = _userAddress;\r\n\r\n                emit LogUpdateLoader(\r\n                    _emailCode,\r\n                    loaderArray[_emailCode].index,\r\n                    _email,\r\n                    loaderArray[_emailCode].passwordCode,\r\n                    loaderArray[_emailCode].passwordRestToken,\r\n                    loaderArray[_emailCode].name,\r\n                    loaderArray[_emailCode].contactNumber,\r\n                    _userAddress,\r\n                    loaderArray[_emailCode].userAccess\r\n                    );\r\n\r\n            }\r\n            else if(index[i]==3){\r\n                loaderArray[_emailCode].contactNumber = _contactNumber;\r\n                loaderIndex[num].contactNumber = _contactNumber;\r\n                emit LogUpdateLoader(\r\n                    _emailCode,\r\n                    loaderArray[_emailCode].index,\r\n                    _email,\r\n                    loaderArray[_emailCode].passwordCode,\r\n                    loaderArray[_emailCode].passwordRestToken,\r\n                    loaderArray[_emailCode].name,\r\n                    _contactNumber,\r\n                    loaderArray[_emailCode].userAddress,\r\n                    loaderArray[_emailCode].userAccess\r\n                    );\r\n\r\n            }\r\n        }\r\n        return true;\r\n    }\r\n    ///////\r\n    function updateLoaderiEmail (string memory _email) public returns(bool success)\r\n    {\r\n       // return true;\r\n    }\r\n    function checkLoaderUserAccess(bytes32 email)public view returns(uint userAccess){\r\n        \r\n        return loaderArray[email].userAccess;\r\n    }\r\n    function checkLoaderPasswordCode(bytes32 email) public view returns(bytes32 passwordCode ){\r\n        return loaderArray[email].passwordCode;\r\n    }\r\n}",
  "sourcePath": "C:\\project\\tea supply chain mangement system\\test2\\contracts\\Loader.sol",
  "compiler": {
    "name": "solc",
    "version": "0.5.8+commit.23d335f2.Emscripten.clang"
  },
  "schemaVersion": "3.0.16",
  "updatedAt": "2019-11-29T00:00:45.339Z",
  "devdoc": {
    "methods": {}
  },
  "userdoc": {
    "methods": {
      "updateLoaderiEmail(string)": {
        "notice": "////"
      }
    }
  }
}