{
  "contractName": "LoaderContract",
  "abi": [
    {
      "constant": true,
      "inputs": [
        {
          "name": "",
          "type": "bytes32"
        }
      ],
      "name": "loaderArray",
      "outputs": [
        {
          "name": "email",
          "type": "string"
        },
        {
          "name": "emailCode",
          "type": "bytes32"
        },
        {
          "name": "passwordCode",
          "type": "bytes32"
        },
        {
          "name": "passwordRestToken",
          "type": "bytes32"
        },
        {
          "name": "name",
          "type": "string"
        },
        {
          "name": "contactNumber",
          "type": "uint256"
        },
        {
          "name": "userAddress",
          "type": "string"
        },
        {
          "name": "userAccess",
          "type": "uint256"
        },
        {
          "name": "index",
          "type": "uint256"
        }
      ],
      "payable": false,
      "stateMutability": "view",
      "type": "function"
    },
    {
      "anonymous": false,
      "inputs": [
        {
          "indexed": true,
          "name": "emailCode",
          "type": "bytes32"
        },
        {
          "indexed": false,
          "name": "index",
          "type": "uint256"
        },
        {
          "indexed": false,
          "name": "email",
          "type": "string"
        },
        {
          "indexed": false,
          "name": "passwordCode",
          "type": "bytes32"
        },
        {
          "indexed": false,
          "name": "passwordRestToken",
          "type": "bytes32"
        },
        {
          "indexed": false,
          "name": "name",
          "type": "string"
        },
        {
          "indexed": false,
          "name": "contactNumber",
          "type": "uint256"
        },
        {
          "indexed": false,
          "name": "userAddress",
          "type": "string"
        },
        {
          "indexed": false,
          "name": "userAccess",
          "type": "uint256"
        }
      ],
      "name": "LogNewLoader",
      "type": "event"
    },
    {
      "anonymous": false,
      "inputs": [
        {
          "indexed": true,
          "name": "emailCode",
          "type": "bytes32"
        },
        {
          "indexed": false,
          "name": "index",
          "type": "uint256"
        },
        {
          "indexed": false,
          "name": "email",
          "type": "string"
        },
        {
          "indexed": false,
          "name": "passwordCode",
          "type": "bytes32"
        },
        {
          "indexed": false,
          "name": "passwordRestToken",
          "type": "bytes32"
        },
        {
          "indexed": false,
          "name": "name",
          "type": "string"
        },
        {
          "indexed": false,
          "name": "contactNumber",
          "type": "uint256"
        },
        {
          "indexed": false,
          "name": "userAddress",
          "type": "string"
        },
        {
          "indexed": false,
          "name": "userAccess",
          "type": "uint256"
        }
      ],
      "name": "LogUpdateLoader",
      "type": "event"
    },
    {
      "anonymous": false,
      "inputs": [
        {
          "indexed": true,
          "name": "emailcode",
          "type": "bytes32"
        },
        {
          "indexed": false,
          "name": "index",
          "type": "uint256"
        }
      ],
      "name": "LogDeleteLoader",
      "type": "event"
    },
    {
      "constant": true,
      "inputs": [
        {
          "name": "_emailCode",
          "type": "bytes32"
        }
      ],
      "name": "isLoader",
      "outputs": [
        {
          "name": "isIndeed",
          "type": "bool"
        }
      ],
      "payable": false,
      "stateMutability": "view",
      "type": "function"
    },
    {
      "constant": false,
      "inputs": [
        {
          "name": "_emailCode",
          "type": "bytes32"
        }
      ],
      "name": "createLoaderToken",
      "outputs": [
        {
          "name": "",
          "type": "bytes32"
        }
      ],
      "payable": false,
      "stateMutability": "nonpayable",
      "type": "function"
    },
    {
      "constant": false,
      "inputs": [
        {
          "name": "_email",
          "type": "string"
        },
        {
          "name": "_name",
          "type": "string"
        },
        {
          "name": "_address",
          "type": "string"
        },
        {
          "name": "_telephone",
          "type": "uint256"
        }
      ],
      "name": "insertLoader",
      "outputs": [
        {
          "name": "",
          "type": "bool"
        }
      ],
      "payable": false,
      "stateMutability": "nonpayable",
      "type": "function"
    },
    {
      "constant": false,
      "inputs": [
        {
          "name": "email",
          "type": "bytes32"
        }
      ],
      "name": "deleteLoader",
      "outputs": [
        {
          "name": "",
          "type": "string"
        }
      ],
      "payable": false,
      "stateMutability": "nonpayable",
      "type": "function"
    },
    {
      "constant": false,
      "inputs": [
        {
          "name": "email",
          "type": "bytes32"
        }
      ],
      "name": "blockLoader",
      "outputs": [
        {
          "name": "",
          "type": "string"
        }
      ],
      "payable": false,
      "stateMutability": "nonpayable",
      "type": "function"
    },
    {
      "constant": false,
      "inputs": [
        {
          "name": "_email",
          "type": "string"
        },
        {
          "name": "usreAccess",
          "type": "uint256"
        }
      ],
      "name": "editUserAccess",
      "outputs": [
        {
          "name": "",
          "type": "bool"
        }
      ],
      "payable": false,
      "stateMutability": "nonpayable",
      "type": "function"
    },
    {
      "constant": true,
      "inputs": [
        {
          "name": "_email",
          "type": "string"
        }
      ],
      "name": "getLoader",
      "outputs": [
        {
          "name": "",
          "type": "bytes32"
        },
        {
          "name": "email",
          "type": "string"
        },
        {
          "name": "name",
          "type": "string"
        },
        {
          "name": "contactNumber",
          "type": "uint256"
        },
        {
          "name": "userAddress",
          "type": "string"
        },
        {
          "name": "userAccess",
          "type": "uint256"
        }
      ],
      "payable": false,
      "stateMutability": "view",
      "type": "function"
    },
    {
      "constant": true,
      "inputs": [
        {
          "name": "i",
          "type": "uint256"
        }
      ],
      "name": "getLoaderi",
      "outputs": [
        {
          "name": "",
          "type": "bytes32"
        },
        {
          "name": "",
          "type": "string"
        },
        {
          "name": "",
          "type": "string"
        },
        {
          "name": "",
          "type": "uint256"
        },
        {
          "name": "",
          "type": "string"
        },
        {
          "name": "",
          "type": "uint256"
        }
      ],
      "payable": false,
      "stateMutability": "view",
      "type": "function"
    },
    {
      "constant": true,
      "inputs": [],
      "name": "getLoaderCount",
      "outputs": [
        {
          "name": "",
          "type": "uint256"
        }
      ],
      "payable": false,
      "stateMutability": "view",
      "type": "function"
    },
    {
      "constant": false,
      "inputs": [
        {
          "name": "_email",
          "type": "string"
        },
        {
          "name": "_name",
          "type": "string"
        }
      ],
      "name": "updateLoaderName",
      "outputs": [
        {
          "name": "success",
          "type": "bool"
        }
      ],
      "payable": false,
      "stateMutability": "nonpayable",
      "type": "function"
    },
    {
      "constant": false,
      "inputs": [
        {
          "name": "_email",
          "type": "string"
        },
        {
          "name": "_userAddress",
          "type": "string"
        }
      ],
      "name": "updateLoaderAddress",
      "outputs": [
        {
          "name": "success",
          "type": "bool"
        }
      ],
      "payable": false,
      "stateMutability": "nonpayable",
      "type": "function"
    },
    {
      "constant": false,
      "inputs": [
        {
          "name": "_email",
          "type": "string"
        },
        {
          "name": "_contactNumber",
          "type": "uint256"
        }
      ],
      "name": "updateLoaderContactNumber",
      "outputs": [
        {
          "name": "success",
          "type": "bool"
        }
      ],
      "payable": false,
      "stateMutability": "nonpayable",
      "type": "function"
    },
    {
      "constant": false,
      "inputs": [
        {
          "name": "_email",
          "type": "string"
        },
        {
          "name": "index",
          "type": "uint256[]"
        },
        {
          "name": "_name",
          "type": "string"
        },
        {
          "name": "_userAddress",
          "type": "string"
        },
        {
          "name": "_contactNumber",
          "type": "uint256"
        }
      ],
      "name": "updateLoader",
      "outputs": [
        {
          "name": "success",
          "type": "bool"
        }
      ],
      "payable": false,
      "stateMutability": "nonpayable",
      "type": "function"
    },
    {
      "constant": false,
      "inputs": [
        {
          "name": "_email",
          "type": "string"
        }
      ],
      "name": "updateLoaderiEmail",
      "outputs": [
        {
          "name": "success",
          "type": "bool"
        }
      ],
      "payable": false,
      "stateMutability": "nonpayable",
      "type": "function"
    },
    {
      "constant": true,
      "inputs": [
        {
          "name": "email",
          "type": "bytes32"
        }
      ],
      "name": "checkLoaderUserAccess",
      "outputs": [
        {
          "name": "userAccess",
          "type": "uint256"
        }
      ],
      "payable": false,
      "stateMutability": "view",
      "type": "function"
    },
    {
      "constant": true,
      "inputs": [
        {
          "name": "email",
          "type": "bytes32"
        }
      ],
      "name": "checkLoaderPasswordCode",
      "outputs": [
        {
          "name": "passwordCode",
          "type": "bytes32"
        }
      ],
      "payable": false,
      "stateMutability": "view",
      "type": "function"
    }
  ],
  "bytecode": "0x608060405234801561001057600080fd5b506132c8806100206000396000f3fe608060405234801561001057600080fd5b506004361061010b5760003560e01c806376b65fb2116100a2578063867fd12b11610071578063867fd12b14610c0657806394aae85614610c23578063ca16496f14610cc7578063d8264a0514610df0578063ec440dbd14610e0d5761010b565b806376b65fb214610901578063770079ee1461091e57806381283fe2146109b0578063849f4b0014610b605761010b565b80631f7d9c34116100de5780631f7d9c341461040f5780633667afe11461060c57806358ae34b61461083e5780636609b7cc1461085b5761010b565b80630bfab7e914610110578063118d1e9914610141578063159d26041461015b5780631f5b9540146102e6575b600080fd5b61012d6004803603602081101561012657600080fd5b5035610e2a565b604080519115158252519081900360200190f35b610149610e78565b60408051918252519081900360200190f35b6101786004803603602081101561017157600080fd5b5035610e7f565b60405180806020018a8152602001898152602001888152602001806020018781526020018060200186815260200185815260200184810384528d818151815260200191508051906020019080838360005b838110156101e15781810151838201526020016101c9565b50505050905090810190601f16801561020e5780820380516001836020036101000a031916815260200191505b5084810383528951815289516020918201918b019080838360005b83811015610241578181015183820152602001610229565b50505050905090810190601f16801561026e5780820380516001836020036101000a031916815260200191505b50848103825287518152875160209182019189019080838360005b838110156102a1578181015183820152602001610289565b50505050905090810190601f1680156102ce5780820380516001836020036101000a031916815260200191505b509c5050505050505050505050505060405180910390f35b61012d600480360360408110156102fc57600080fd5b810190602081018135600160201b81111561031657600080fd5b82018360208201111561032857600080fd5b803590602001918460018302840111600160201b8311171561034957600080fd5b91908080601f0160208091040260200160405190810160405280939291908181526020018383808284376000920191909152509295949360208101935035915050600160201b81111561039b57600080fd5b8201836020820111156103ad57600080fd5b803590602001918460018302840111600160201b831117156103ce57600080fd5b91908080601f016020809104026020016040519081016040528093929190818152602001838380828437600092019190915250929550611070945050505050565b6104b36004803603602081101561042557600080fd5b810190602081018135600160201b81111561043f57600080fd5b82018360208201111561045157600080fd5b803590602001918460018302840111600160201b8311171561047257600080fd5b91908080601f0160208091040260200160405190810160405280939291908181526020018383808284376000920191909152509295506113c0945050505050565b60405180878152602001806020018060200186815260200180602001858152602001848103845289818151815260200191508051906020019080838360005b8381101561050a5781810151838201526020016104f2565b50505050905090810190601f1680156105375780820380516001836020036101000a031916815260200191505b5084810383528851815288516020918201918a019080838360005b8381101561056a578181015183820152602001610552565b50505050905090810190601f1680156105975780820380516001836020036101000a031916815260200191505b50848103825286518152865160209182019188019080838360005b838110156105ca5781810151838201526020016105b2565b50505050905090810190601f1680156105f75780820380516001836020036101000a031916815260200191505b50995050505050505050505060405180910390f35b61012d600480360360a081101561062257600080fd5b810190602081018135600160201b81111561063c57600080fd5b82018360208201111561064e57600080fd5b803590602001918460018302840111600160201b8311171561066f57600080fd5b91908080601f0160208091040260200160405190810160405280939291908181526020018383808284376000920191909152509295949360208101935035915050600160201b8111156106c157600080fd5b8201836020820111156106d357600080fd5b803590602001918460208302840111600160201b831117156106f457600080fd5b9190808060200260200160405190810160405280939291908181526020018383602002808284376000920191909152509295949360208101935035915050600160201b81111561074357600080fd5b82018360208201111561075557600080fd5b803590602001918460018302840111600160201b8311171561077657600080fd5b91908080601f0160208091040260200160405190810160405280939291908181526020018383808284376000920191909152509295949360208101935035915050600160201b8111156107c857600080fd5b8201836020820111156107da57600080fd5b803590602001918460018302840111600160201b831117156107fb57600080fd5b91908080601f016020809104026020016040519081016040528093929190818152602001838380828437600092019190915250929550509135925061167a915050565b6101496004803603602081101561085457600080fd5b5035611f04565b61012d6004803603604081101561087157600080fd5b810190602081018135600160201b81111561088b57600080fd5b82018360208201111561089d57600080fd5b803590602001918460018302840111600160201b831117156108be57600080fd5b91908080601f0160208091040260200160405190810160405280939291908181526020018383808284376000920191909152509295505091359250611f52915050565b6104b36004803603602081101561091757600080fd5b503561200a565b61093b6004803603602081101561093457600080fd5b503561228d565b6040805160208082528351818301528351919283929083019185019080838360005b8381101561097557818101518382015260200161095d565b50505050905090810190601f1680156109a25780820380516001836020036101000a031916815260200191505b509250505060405180910390f35b61012d600480360360808110156109c657600080fd5b810190602081018135600160201b8111156109e057600080fd5b8201836020820111156109f257600080fd5b803590602001918460018302840111600160201b83111715610a1357600080fd5b91908080601f0160208091040260200160405190810160405280939291908181526020018383808284376000920191909152509295949360208101935035915050600160201b811115610a6557600080fd5b820183602082011115610a7757600080fd5b803590602001918460018302840111600160201b83111715610a9857600080fd5b91908080601f0160208091040260200160405190810160405280939291908181526020018383808284376000920191909152509295949360208101935035915050600160201b811115610aea57600080fd5b820183602082011115610afc57600080fd5b803590602001918460018302840111600160201b83111715610b1d57600080fd5b91908080601f01602080910402602001604051908101604052809392919081815260200183838082843760009201919091525092955050913592506123f5915050565b61012d60048036036040811015610b7657600080fd5b810190602081018135600160201b811115610b9057600080fd5b820183602082011115610ba257600080fd5b803590602001918460018302840111600160201b83111715610bc357600080fd5b91908080601f01602080910402602001604051908101604052809392919081815260200183838082843760009201919091525092955050913592506127ca915050565b61093b60048036036020811015610c1c57600080fd5b5035612b00565b61012d60048036036020811015610c3957600080fd5b810190602081018135600160201b811115610c5357600080fd5b820183602082011115610c6557600080fd5b803590602001918460018302840111600160201b83111715610c8657600080fd5b91908080601f016020809104026020016040519081016040528093929190818152602001838380828437600092019190915250929550612d45945050505050565b61012d60048036036040811015610cdd57600080fd5b810190602081018135600160201b811115610cf757600080fd5b820183602082011115610d0957600080fd5b803590602001918460018302840111600160201b83111715610d2a57600080fd5b91908080601f0160208091040260200160405190810160405280939291908181526020018383808284376000920191909152509295949360208101935035915050600160201b811115610d7c57600080fd5b820183602082011115610d8e57600080fd5b803590602001918460018302840111600160201b83111715610daf57600080fd5b91908080601f016020809104026020016040519081016040528093929190818152602001838380828437600092019190915250929550612d4b945050505050565b61014960048036036020811015610e0657600080fd5b503561304f565b61014960048036036020811015610e2357600080fd5b5035613064565b600154600090610e3c57506000610e73565b600082815260208190526040902060080154600180548492908110610e5d57fe5b9060005260206000209060060201600001541490505b919050565b6001545b90565b6000602081815291815260409081902080548251601f600260001961010060018616150201909316929092049182018590048502810185019093528083529092839190830182828015610f135780601f10610ee857610100808354040283529160200191610f13565b820191906000526020600020905b815481529060010190602001808311610ef657829003601f168201915b505050505090806001015490806002015490806003015490806004018054600181600116156101000203166002900480601f016020809104026020016040519081016040528092919081815260200182805460018160011615610100020316600290048015610fc35780601f10610f9857610100808354040283529160200191610fc3565b820191906000526020600020905b815481529060010190602001808311610fa657829003601f168201915b50505050600583015460068401805460408051602060026001851615610100026000190190941693909304601f8101849004840282018401909252818152959693959394509083018282801561105a5780601f1061102f5761010080835404028352916020019161105a565b820191906000526020600020905b81548152906001019060200180831161103d57829003601f168201915b5050505050908060070154908060080154905089565b600080836040516020018082805190602001908083835b602083106110a65780518252601f199092019160209182019101611087565b6001836020036101000a0380198251168184511680821785525050505050509050019150506040516020818303038152906040528051906020012090506110ec81610e2a565b151560011461113d5760408051600160e51b62461bcd0281526020600482015260126024820152600160701b7175736572206e6f7420696e2073797374656d02604482015290519081900360640190fd5b6000818152602081815260409091208451611160926006909201918601906131ab565b5060008181526020819052604090206008015460018054859290811061118257fe5b906000526020600020906006020160040190805190602001906111a69291906131ab565b508060008051602061327d83398151915260008084815260200190815260200160002060080154866000808681526020019081526020016000206002015460008087815260200190815260200160002060030154600080888152602001908152602001600020600401600080898152602001908152602001600020600501548a6000808b8152602001908152602001600020600701546040518089815260200180602001888152602001878152602001806020018681526020018060200185815260200184810384528b818151815260200191508051906020019080838360005b8381101561129f578181015183820152602001611287565b50505050905090810190601f1680156112cc5780820380516001836020036101000a031916815260200191505b5084810383528854600260001961010060018416150201909116048082526020909101908990801561133f5780601f106113145761010080835404028352916020019161133f565b820191906000526020600020905b81548152906001019060200180831161132257829003601f168201915b5050848103825286518152865160209182019188019080838360005b8381101561137357818101518382015260200161135b565b50505050905090810190601f1680156113a05780820380516001836020036101000a031916815260200191505b509b50505050505050505050505060405180910390a25060019392505050565b600060608060006060600080876040516020018082805190602001908083835b602083106113ff5780518252601f1990920191602091820191016113e0565b6001836020036101000a03801982511681845116808217855250505050505090500191505060405160208183030381529060405280519060200120905061144581610e2a565b15156001146114965760408051600160e51b62461bcd0281526020600482015260126024820152600160701b7175736572206e6f7420696e2073797374656d02604482015290519081900360640190fd5b60008181526020818152604091829020600581015460078201548254855160026001831615610100026000190190921691909104601f8101869004860282018601909652858152869593946004860194600687019392918791908301828280156115415780601f1061151657610100808354040283529160200191611541565b820191906000526020600020905b81548152906001019060200180831161152457829003601f168201915b5050875460408051602060026001851615610100026000190190941693909304601f8101849004840282018401909252818152959a50899450925084019050828280156115cf5780601f106115a4576101008083540402835291602001916115cf565b820191906000526020600020905b8154815290600101906020018083116115b257829003601f168201915b5050855460408051602060026001851615610100026000190190941693909304601f81018490048402820184019092528181529599508794509250840190508282801561165d5780601f106116325761010080835404028352916020019161165d565b820191906000526020600020905b81548152906001019060200180831161164057829003601f168201915b505050505091509650965096509650965096505091939550919395565b600080866040516020018082805190602001908083835b602083106116b05780518252601f199092019160209182019101611691565b6001836020036101000a0380198251168184511680821785525050505050509050019150506040516020818303038152906040528051906020012090506116f681610e2a565b15156001146117475760408051600160e51b62461bcd0281526020600482015260126024820152600160701b7175736572206e6f7420696e2073797374656d02604482015290519081900360640190fd5b6000818152602081905260408120600801545b8751821015611ef55787828151811061176f57fe5b6020026020010151600114156119ea5760008381526020818152604090912088516117a2926004909201918a01906131ab565b5086600182815481106117b157fe5b906000526020600020906006020160020190805190602001906117d59291906131ab565b508260008051602061327d833981519152600080868152602001908152602001600020600801548b60008088815260200190815260200160002060020154600080898152602001908152602001600020600301548c6000808b8152602001908152602001600020600501546000808c81526020019081526020016000206006016000808d8152602001908152602001600020600701546040518089815260200180602001888152602001878152602001806020018681526020018060200185815260200184810384528b818151815260200191508051906020019080838360005b838110156118ce5781810151838201526020016118b6565b50505050905090810190601f1680156118fb5780820380516001836020036101000a031916815260200191505b5084810383528851815288516020918201918a019080838360005b8381101561192e578181015183820152602001611916565b50505050905090810190601f16801561195b5780820380516001836020036101000a031916815260200191505b508481038252865460026000196101006001841615020190911604808252602090910190879080156119ce5780601f106119a3576101008083540402835291602001916119ce565b820191906000526020600020905b8154815290600101906020018083116119b157829003601f168201915b50509b50505050505050505050505060405180910390a2611eea565b8782815181106119f657fe5b602002602001015160021415611c71576000838152602081815260409091208751611a29926006909201918901906131ab565b508560018281548110611a3857fe5b90600052602060002090600602016004019080519060200190611a5c9291906131ab565b508260008051602061327d833981519152600080868152602001908152602001600020600801548b60008088815260200190815260200160002060020154600080898152602001908152602001600020600301546000808a81526020019081526020016000206004016000808b8152602001908152602001600020600501548d6000808d8152602001908152602001600020600701546040518089815260200180602001888152602001878152602001806020018681526020018060200185815260200184810384528b818151815260200191508051906020019080838360005b83811015611b55578181015183820152602001611b3d565b50505050905090810190601f168015611b825780820380516001836020036101000a031916815260200191505b50848103835288546002600019610100600184161502019091160480825260209091019089908015611bf55780601f10611bca57610100808354040283529160200191611bf5565b820191906000526020600020905b815481529060010190602001808311611bd857829003601f168201915b5050848103825286518152865160209182019188019080838360005b83811015611c29578181015183820152602001611c11565b50505050905090810190601f168015611c565780820380516001836020036101000a031916815260200191505b509b50505050505050505050505060405180910390a2611eea565b878281518110611c7d57fe5b602002602001015160031415611eea5760008381526020819052604090206005018590556001805486919083908110611cb257fe5b9060005260206000209060060201600301819055508260008051602061327d833981519152600080868152602001908152602001600020600801548b60008088815260200190815260200160002060020154600080898152602001908152602001600020600301546000808a81526020019081526020016000206004018b6000808c81526020019081526020016000206006016000808d8152602001908152602001600020600701546040518089815260200180602001888152602001878152602001806020018681526020018060200185815260200184810384528b818151815260200191508051906020019080838360005b83811015611dbe578181015183820152602001611da6565b50505050905090810190601f168015611deb5780820380516001836020036101000a031916815260200191505b50848103835288546002600019610100600184161502019091160480825260209091019089908015611e5e5780601f10611e3357610100808354040283529160200191611e5e565b820191906000526020600020905b815481529060010190602001808311611e4157829003601f168201915b5050848103825286546002600019610100600184161502019091160480825260209091019087908015611ed25780601f10611ea757610100808354040283529160200191611ed2565b820191906000526020600020905b815481529060010190602001808311611eb557829003601f168201915b50509b50505050505050505050505060405180910390a25b60019091019061175a565b50600198975050505050505050565b600080611f0f613079565b6000848152600260205260409020549091508314611f395760008381526002602052604090208390555b6000928352600260205260409092206001018290555090565b600080836040516020018082805190602001908083835b60208310611f885780518252601f199092019160209182019101611f69565b51815160209384036101000a60001901801990921691161790526040805192909401828103601f19018352845281519181019190912060008181529182905292902060078101889055600801546001805493965088955093509182109050611fec57fe5b60009182526020909120600560069092020101555060019392505050565b60006060806000606060006001878154811061202257fe5b9060005260206000209060060201600001546001888154811061204157fe5b90600052602060002090600602016001016001898154811061205f57fe5b906000526020600020906006020160020160018a8154811061207d57fe5b90600052602060002090600602016003015460018b8154811061209c57fe5b906000526020600020906006020160040160018c815481106120ba57fe5b600091825260209182902060056006909202010154855460408051601f6002600019610100600187161502019094169390930492830185900485028101850190915281815291928791908301828280156121555780601f1061212a57610100808354040283529160200191612155565b820191906000526020600020905b81548152906001019060200180831161213857829003601f168201915b5050875460408051602060026001851615610100026000190190941693909304601f8101849004840282018401909252818152959a50899450925084019050828280156121e35780601f106121b8576101008083540402835291602001916121e3565b820191906000526020600020905b8154815290600101906020018083116121c657829003601f168201915b5050855460408051602060026001851615610100026000190190941693909304601f8101849004840282018401909252818152959950879450925084019050828280156122715780601f1061224657610100808354040283529160200191612271565b820191906000526020600020905b81548152906001019060200180831161225457829003601f168201915b5050505050915095509550955095509550955091939550919395565b60008181526002602090815260408083208381556001908101849055918390528220600460078201819055600890910154825460609493859392909181106122d157fe5b9060005260206000209060060201600501819055506001600080868152602001908152602001600020600801548154811061230857fe5b600091825260209182902060026006909202018101805460408051601f6000196101006001861615020190931694909404918201859004850284018501905280835291929091908301828280156123a05780601f10612375576101008083540402835291602001916123a0565b820191906000526020600020905b81548152906001019060200180831161238357829003601f168201915b50505060008781526020818152604091829020600801548251908152915194955088947ff5a60d164d2167f821f6e0a319726c4f553b0d3a2dad9c7f5b0fce6c59484b04945091829003019150a29392505050565b600080856040516020018082805190602001908083835b6020831061242b5780518252601f19909201916020918201910161240c565b6001836020036101000a03801982511681845116808217855250505050505090500191505060405160208183030381529060405280519060200120905060006040516020018080600160f81b60610281525060010190506040516020818303038152906040528051906020012090506124a382610e2a565b1515600114156124fd5760408051600160e51b62461bcd02815260206004820152601660248201527f7573657220616c6c7265647920696e2073797374656d00000000000000000000604482015290519081900360640190fd5b600082815260208181526040909120885161251a928a01906131ab565b5060008281526020819052604090206001810183905560020181905561253f82611f04565b6000838152602081815260409091206003810192909255875161256892600401918901906131ab565b50600082815260208181526040909120600581018690558651612593926006909201918801906131ab565b50600082815260208190526040902060016007909101556125b782888887896130a5565b50600180805490500360008084815260200190815260200160002060080181905550817ffd8558450cfe0ac4f77d6dfc38061cb83167acf9063a8e98f53e7a13c9b68f05600080858152602001908152602001600020600801548960008087815260200190815260200160002060020154600080888152602001908152602001600020600301548b8a8c6000808c8152602001908152602001600020600701546040518089815260200180602001888152602001878152602001806020018681526020018060200185815260200184810384528b818151815260200191508051906020019080838360005b838110156126ba5781810151838201526020016126a2565b50505050905090810190601f1680156126e75780820380516001836020036101000a031916815260200191505b5084810383528851815288516020918201918a019080838360005b8381101561271a578181015183820152602001612702565b50505050905090810190601f1680156127475780820380516001836020036101000a031916815260200191505b50848103825286518152865160209182019188019080838360005b8381101561277a578181015183820152602001612762565b50505050905090810190601f1680156127a75780820380516001836020036101000a031916815260200191505b509b50505050505050505050505060405180910390a25060019695505050505050565b600080836040516020018082805190602001908083835b602083106128005780518252601f1990920191602091820191016127e1565b6001836020036101000a03801982511681845116808217855250505050505090500191505060405160208183030381529060405280519060200120905061284681610e2a565b15156001146128975760408051600160e51b62461bcd0281526020600482015260126024820152600160701b7175736572206e6f7420696e2073797374656d02604482015290519081900360640190fd5b600081815260208190526040902060058101849055600801546001805485929081106128bf57fe5b9060005260206000209060060201600301819055508060008051602061327d83398151915260008084815260200190815260200160002060080154866000808681526020019081526020016000206002015460008087815260200190815260200160002060030154600080888152602001908152602001600020600401896000808a81526020019081526020016000206006016000808b8152602001908152602001600020600701546040518089815260200180602001888152602001878152602001806020018681526020018060200185815260200184810384528b818151815260200191508051906020019080838360005b838110156129cb5781810151838201526020016129b3565b50505050905090810190601f1680156129f85780820380516001836020036101000a031916815260200191505b50848103835288546002600019610100600184161502019091160480825260209091019089908015612a6b5780601f10612a4057610100808354040283529160200191612a6b565b820191906000526020600020905b815481529060010190602001808311612a4e57829003601f168201915b5050848103825286546002600019610100600184161502019091160480825260209091019087908015612adf5780601f10612ab457610100808354040283529160200191612adf565b820191906000526020600020905b815481529060010190602001808311612ac257829003601f168201915b50509b50505050505050505050505060405180910390a25060019392505050565b600081815260208190526040902060070154606090819060051415612c22576000838152602081905260409020600360078201819055600890910154600180549091908110612b4b57fe5b90600052602060002090600602016005018190555060016000808581526020019081526020016000206008015481548110612b8257fe5b600091825260209182902060026006909202018101805460408051601f600019610100600186161502019093169490940491820185900485028401850190528083529192909190830182828015612c1a5780601f10612bef57610100808354040283529160200191612c1a565b820191906000526020600020905b815481529060010190602001808311612bfd57829003601f168201915b505050505090505b60008381526020819052604090206007015460031415612d3f576000838152602081905260409020600560078201819055600890910154600180549091908110612c6857fe5b90600052602060002090600602016005018190555060016000808581526020019081526020016000206008015481548110612c9f57fe5b600091825260209182902060026006909202018101805460408051601f600019610100600186161502019093169490940491820185900485028401850190528083529192909190830182828015612d375780601f10612d0c57610100808354040283529160200191612d37565b820191906000526020600020905b815481529060010190602001808311612d1a57829003601f168201915b505050505090505b92915050565b50600090565b600080836040516020018082805190602001908083835b60208310612d815780518252601f199092019160209182019101612d62565b6001836020036101000a038019825116818451168082178552505050505050905001915050604051602081830303815290604052805190602001209050612dc781610e2a565b1515600114612e185760408051600160e51b62461bcd0281526020600482015260126024820152600160701b7175736572206e6f7420696e2073797374656d02604482015290519081900360640190fd5b6000818152602081815260409091208451612e3b926004909201918601906131ab565b50600081815260208190526040902060080154600180548592908110612e5d57fe5b90600052602060002090600602016002019080519060200190612e819291906131ab565b508060008051602061327d8339815191526000808481526020019081526020016000206008015486600080868152602001908152602001600020600201546000808781526020019081526020016000206003015488600080898152602001908152602001600020600501546000808a81526020019081526020016000206006016000808b8152602001908152602001600020600701546040518089815260200180602001888152602001878152602001806020018681526020018060200185815260200184810384528b818151815260200191508051906020019080838360005b83811015612f7a578181015183820152602001612f62565b50505050905090810190601f168015612fa75780820380516001836020036101000a031916815260200191505b5084810383528851815288516020918201918a019080838360005b83811015612fda578181015183820152602001612fc2565b50505050905090810190601f1680156130075780820380516001836020036101000a031916815260200191505b50848103825286546002600019610100600184161502019091160480825260209091019087908015612adf5780601f10612ab457610100808354040283529160200191612adf565b60009081526020819052604090206002015490565b60009081526020819052604090206007015490565b604080514260208083019190915244828401528251808303840181526060909201909252805191012090565b60006130af613229565b8681526020808201878152604083018790526060830186905260808301859052600160a084018190528054808201808355600092909252845160069091027fb10e2d527612073b26eecdfd717e6a320cf44b4afac2b0732d9fcbe2b7fa0cf681019182559251805192948694929361314d937fb10e2d527612073b26eecdfd717e6a320cf44b4afac2b0732d9fcbe2b7fa0cf70192909101906131ab565b50604082015180516131699160028401916020909101906131ab565b50606082015160038201556080820151805161318f9160048401916020909101906131ab565b5060a08201518160050155505050600191505095945050505050565b828054600181600116156101000203166002900490600052602060002090601f016020900481019282601f106131ec57805160ff1916838001178555613219565b82800160010185558215613219579182015b828111156132195782518255916020019190600101906131fe565b50613225929150613262565b5090565b6040518060c001604052806000801916815260200160608152602001606081526020016000815260200160608152602001600081525090565b610e7c91905b80821115613225576000815560010161326856fe2188045651757e59cf59ddd1cbd2c939ecc7f4b3c5b5a5747fb5d4ee8167d523a165627a7a7230582024e13ec57bb4f6120153dc8f393f7adbb3f1af6bf4781f599099553a779d37930029",
  "source": "pragma solidity >=0.4.21 <0.6.0;\r\n\r\ncontract LoaderContract {\r\n    \r\n    struct Loader{\r\n        string email;\r\n        bytes32 emailCode;\r\n        bytes32 passwordCode;\r\n        bytes32 passwordRestToken;\r\n        string name;\r\n        uint contactNumber;\r\n        string userAddress;\r\n        uint userAccess;\r\n        uint index;\r\n    }\r\n\r\n    struct DisplayLoader{\r\n        bytes32 emailCode;\r\n        string email;\r\n        string name;\r\n        uint contactNumber;\r\n        string userAddress;\r\n        uint userAccess;\r\n    }\r\n    \r\n    event LogNewLoader(\r\n        bytes32 indexed emailCode,\r\n        uint index,string email,\r\n        bytes32 passwordCode,\r\n        bytes32 passwordRestToken,\r\n        string name,\r\n        uint contactNumber,\r\n        string userAddress,\r\n        uint userAccess\r\n        );\r\n    event LogUpdateLoader(\r\n        bytes32 indexed emailCode,\r\n        uint index,string email,\r\n        bytes32 passwordCode,\r\n        bytes32 passwordRestToken,\r\n        string name,\r\n        uint contactNumber,\r\n        string userAddress,\r\n        uint userAccess\r\n        );\r\n    event LogDeleteLoader(\r\n        bytes32 indexed emailcode,\r\n        uint index\r\n        );\r\n        \r\n    struct RegistationToken{\r\n        bytes32 emailCode;\r\n        bytes32 token;\r\n    }\r\n        \r\n    mapping(bytes32 => Loader) public loaderArray;\r\n    DisplayLoader[] private loaderIndex;\r\n    mapping(bytes32 => RegistationToken) private loaderRegistationToken;\r\n    \r\n    function isLoader(bytes32 _emailCode)public view returns(bool isIndeed) {\r\n        if(loaderIndex.length == 0) return false;\r\n        return (loaderIndex[loaderArray[_emailCode].index].emailCode == _emailCode);\r\n    }\r\n    function createLoaderToken(bytes32 _emailCode)public returns(bytes32){\r\n        bytes32 token = randomtoken();\r\n        if(loaderRegistationToken[_emailCode].emailCode != _emailCode){\r\n            loaderRegistationToken[_emailCode].emailCode = _emailCode;\r\n        }\r\n        loaderRegistationToken[_emailCode].token = token;\r\n        return token;\r\n    }\r\n    function randomtoken() private view returns (bytes32) {\r\n       return keccak256(abi.encodePacked( block.timestamp, block.difficulty));\r\n    }\r\n    function setDisplayLoader(bytes32 _emailCode,string memory _email,string memory _name,uint _telephone,string memory _address)\r\n     private returns(bool){\r\n\r\n        DisplayLoader memory displayLoader;\r\n        displayLoader.emailCode = _emailCode;\r\n        displayLoader.email = _email;\r\n        displayLoader.name = _name;\r\n        displayLoader.contactNumber = _telephone;\r\n        displayLoader.userAddress = _address;\r\n        displayLoader.userAccess = 1;\r\n        loaderIndex.push(displayLoader);\r\n        return true;\r\n\r\n    }\r\n    function insertLoader(string memory _email,string memory _name,string memory _address,uint _telephone) public returns(bool){\r\n        bytes32 _emailCode = keccak256(abi.encodePacked((_email)));\r\n        bytes32 _passwordCode = keccak256(abi.encodePacked((\"a\")));\r\n        require(isLoader(_emailCode) != true,'user allredy in system');\r\n\r\n        loaderArray[_emailCode].email = _email;\r\n        loaderArray[_emailCode].emailCode = _emailCode;\r\n        loaderArray[_emailCode].passwordCode = _passwordCode;\r\n        loaderArray[_emailCode].passwordRestToken = createLoaderToken(_emailCode);\r\n        loaderArray[_emailCode].name = _name;\r\n        loaderArray[_emailCode].contactNumber = _telephone;\r\n        loaderArray[_emailCode].userAddress = _address;\r\n        loaderArray[_emailCode].userAccess = 1;\r\n        setDisplayLoader(_emailCode,_email,_name,_telephone,_address);\r\n        loaderArray[_emailCode].index = loaderIndex.length-1;\r\n\r\n        emit LogNewLoader (\r\n            _emailCode,\r\n            loaderArray[_emailCode].index,\r\n            _email,\r\n            loaderArray[_emailCode].passwordCode,\r\n            loaderArray[_emailCode].passwordRestToken,\r\n            _name,\r\n            _telephone,\r\n            _address,\r\n            loaderArray[_emailCode].userAccess\r\n            );\r\n        return true;\r\n    }\r\n    function deleteLoader (bytes32 email) public returns(string memory){\r\n        uint i;\r\n        string memory name;\r\n        delete loaderRegistationToken[email];\r\n        loaderArray[email].userAccess = 4;\r\n        loaderIndex[loaderArray[email].index].userAccess = 4;\r\n        name = loaderIndex[loaderArray[email].index].name;\r\n        emit LogDeleteLoader(\r\n            email,\r\n            loaderArray[email].index\r\n        );\r\n        return name;\r\n    }\r\n    function blockLoader(bytes32 email) public returns(string memory)\r\n    {\r\n        string memory name;\r\n        if(loaderArray[email].userAccess == 5){\r\n        loaderArray[email].userAccess = 3;\r\n        loaderIndex[loaderArray[email].index].userAccess = 3;\r\n        name = loaderIndex[loaderArray[email].index].name;\r\n        }\r\n        if(loaderArray[email].userAccess == 3){\r\n        loaderArray[email].userAccess = 5;\r\n        loaderIndex[loaderArray[email].index].userAccess = 5;\r\n        name = loaderIndex[loaderArray[email].index].name;\r\n        }\r\n        return name;\r\n    }\r\n    function editUserAccess(string memory _email,uint usreAccess)public returns(bool){\r\n        bytes32 email = keccak256(abi.encodePacked((_email)));\r\n        loaderArray[email].userAccess = usreAccess;\r\n        loaderIndex[loaderArray[email].index].userAccess = usreAccess;\r\n        return true;\r\n\r\n    }\r\n    function getLoader(string memory _email) public view returns(bytes32,string memory email,string memory name,\r\n    uint contactNumber,string memory userAddress, uint userAccess){\r\n        bytes32 _emailCode = keccak256(abi.encodePacked((_email)));\r\n        require(isLoader(_emailCode) == true,'user not in system');\r\n        return(\r\n            _emailCode,\r\n            loaderArray[_emailCode].email,\r\n            loaderArray[_emailCode].name,\r\n            loaderArray[_emailCode].contactNumber,\r\n            loaderArray[_emailCode].userAddress,\r\n            loaderArray[_emailCode].userAccess\r\n            );\r\n    }\r\n    function getLoaderi(uint i) public view returns(\r\n        bytes32,\r\n        string memory,\r\n        string memory,\r\n        uint,\r\n        string memory,\r\n        uint\r\n        ){\r\n            return (\r\n                loaderIndex[i].emailCode,\r\n                loaderIndex[i].email,\r\n                loaderIndex[i].name,\r\n                loaderIndex[i].contactNumber,\r\n                loaderIndex[i].userAddress,\r\n                loaderIndex[i].userAccess\r\n                );\r\n    }\r\n    function getLoaderCount() public view returns(uint)\r\n    {\r\n        return loaderIndex.length;\r\n    }\r\n    \r\n    // function updateUserEmail(address userAddress, bytes32 userEmail) public returns(bool success)\r\n    // {\r\n    //     userStructs[userAddress].userEmail = userEmail;\r\n    //     emit LogUpdateUser(userAddress,  userStructs[userAddress].index, userEmail, userStructs[userAddress].userAge);\r\n    //     return true;\r\n    // }\r\n    function updateLoaderName (string memory _email,string memory _name) public returns(bool success){\r\n        bytes32 _emailCode = keccak256(abi.encodePacked((_email)));\r\n        require(isLoader(_emailCode) == true,'user not in system');\r\n        loaderArray[_emailCode].name = _name;\r\n        loaderIndex[loaderArray[_emailCode].index].name = _name;\r\n        emit LogUpdateLoader(\r\n            _emailCode,\r\n            loaderArray[_emailCode].index,\r\n            _email,\r\n            loaderArray[_emailCode].passwordCode,\r\n            loaderArray[_emailCode].passwordRestToken,\r\n            _name,\r\n            loaderArray[_emailCode].contactNumber,\r\n            loaderArray[_emailCode].userAddress,\r\n            loaderArray[_emailCode].userAccess\r\n            );\r\n        return true;\r\n    }\r\n    function updateLoaderAddress (string memory _email,string memory _userAddress) public returns(bool success){\r\n        bytes32 _emailCode = keccak256(abi.encodePacked((_email)));\r\n        require(isLoader(_emailCode) == true,'user not in system');\r\n        loaderArray[_emailCode].userAddress = _userAddress;\r\n        loaderIndex[loaderArray[_emailCode].index].userAddress = _userAddress;\r\n        emit LogUpdateLoader(\r\n            _emailCode,\r\n            loaderArray[_emailCode].index,\r\n            _email,\r\n            loaderArray[_emailCode].passwordCode,\r\n            loaderArray[_emailCode].passwordRestToken,\r\n            loaderArray[_emailCode].name,\r\n            loaderArray[_emailCode].contactNumber,\r\n            _userAddress,\r\n            loaderArray[_emailCode].userAccess\r\n            );\r\n        return true;\r\n    }\r\n    function updateLoaderContactNumber (string memory _email,uint _contactNumber) public returns(bool success){\r\n        bytes32 _emailCode = keccak256(abi.encodePacked((_email)));\r\n        require(isLoader(_emailCode) == true,'user not in system');\r\n        loaderArray[_emailCode].contactNumber = _contactNumber;\r\n        loaderIndex[loaderArray[_emailCode].index].contactNumber = _contactNumber;\r\n        emit LogUpdateLoader(\r\n            _emailCode,\r\n            loaderArray[_emailCode].index,\r\n            _email,\r\n            loaderArray[_emailCode].passwordCode,\r\n            loaderArray[_emailCode].passwordRestToken,\r\n            loaderArray[_emailCode].name,\r\n            _contactNumber,\r\n            loaderArray[_emailCode].userAddress,\r\n            loaderArray[_emailCode].userAccess\r\n            );\r\n        return true;\r\n    }\r\n    function updateLoader(\r\n        string memory _email,\r\n        uint[] memory index,\r\n        string memory _name,\r\n        string memory _userAddress,\r\n        uint _contactNumber\r\n        ) public returns(bool success){\r\n        bytes32 _emailCode = keccak256(abi.encodePacked((_email)));\r\n        require(isLoader(_emailCode) == true,'user not in system');\r\n        uint i;\r\n        uint num = loaderArray[_emailCode].index;\r\n\r\n        for (i = 0;i<index.length;i++){\r\n            if(index[i]==1){\r\n                loaderArray[_emailCode].name = _name;\r\n                loaderIndex[num].name = _name;\r\n                emit LogUpdateLoader(\r\n                    _emailCode,\r\n                    loaderArray[_emailCode].index,\r\n                    _email,loaderArray[_emailCode].passwordCode,\r\n                    loaderArray[_emailCode].passwordRestToken,\r\n                    _name,\r\n                    loaderArray[_emailCode].contactNumber,\r\n                    loaderArray[_emailCode].userAddress,\r\n                    loaderArray[_emailCode].userAccess\r\n                    );\r\n\r\n            }\r\n            else if(index[i]==2){\r\n                loaderArray[_emailCode].userAddress = _userAddress;\r\n\r\n                loaderIndex[num].userAddress = _userAddress;\r\n\r\n                emit LogUpdateLoader(\r\n                    _emailCode,\r\n                    loaderArray[_emailCode].index,\r\n                    _email,\r\n                    loaderArray[_emailCode].passwordCode,\r\n                    loaderArray[_emailCode].passwordRestToken,\r\n                    loaderArray[_emailCode].name,\r\n                    loaderArray[_emailCode].contactNumber,\r\n                    _userAddress,\r\n                    loaderArray[_emailCode].userAccess\r\n                    );\r\n\r\n            }\r\n            else if(index[i]==3){\r\n                loaderArray[_emailCode].contactNumber = _contactNumber;\r\n                loaderIndex[num].contactNumber = _contactNumber;\r\n                emit LogUpdateLoader(\r\n                    _emailCode,\r\n                    loaderArray[_emailCode].index,\r\n                    _email,\r\n                    loaderArray[_emailCode].passwordCode,\r\n                    loaderArray[_emailCode].passwordRestToken,\r\n                    loaderArray[_emailCode].name,\r\n                    _contactNumber,\r\n                    loaderArray[_emailCode].userAddress,\r\n                    loaderArray[_emailCode].userAccess\r\n                    );\r\n\r\n            }\r\n        }\r\n        return true;\r\n    }\r\n    ///////\r\n    function updateLoaderiEmail (string memory _email) public returns(bool success)\r\n    {\r\n       // return true;\r\n    }\r\n    function checkLoaderUserAccess(bytes32 email)public view returns(uint userAccess){\r\n        \r\n        return loaderArray[email].userAccess;\r\n    }\r\n    function checkLoaderPasswordCode(bytes32 email) public view returns(bytes32 passwordCode ){\r\n        return loaderArray[email].passwordCode;\r\n    }\r\n}",
  "sourcePath": "C:\\project\\tea supply chain mangement system\\test2\\contracts\\Loader.sol",
  "compiler": {
    "name": "solc",
    "version": "0.5.8+commit.23d335f2.Emscripten.clang"
  },
  "schemaVersion": "3.0.16",
  "updatedAt": "2020-01-11T01:40:50.415Z",
  "devdoc": {
    "methods": {}
  },
  "userdoc": {
    "methods": {
      "updateLoaderiEmail(string)": {
        "notice": "////"
      }
    }
  }
}