{
  "contractName": "LoaderContract",
  "abi": [
    {
      "constant": true,
      "inputs": [
        {
          "name": "",
          "type": "bytes32"
        }
      ],
      "name": "loaderArray",
      "outputs": [
        {
          "name": "email",
          "type": "string"
        },
        {
          "name": "emailCode",
          "type": "bytes32"
        },
        {
          "name": "passwordCode",
          "type": "bytes32"
        },
        {
          "name": "name",
          "type": "string"
        },
        {
          "name": "contactNumber",
          "type": "uint256"
        },
        {
          "name": "userAddress",
          "type": "string"
        },
        {
          "name": "userAccess",
          "type": "uint256"
        },
        {
          "name": "index",
          "type": "uint256"
        }
      ],
      "payable": false,
      "stateMutability": "view",
      "type": "function"
    },
    {
      "anonymous": false,
      "inputs": [
        {
          "indexed": true,
          "name": "emailCode",
          "type": "bytes32"
        },
        {
          "indexed": false,
          "name": "index",
          "type": "uint256"
        },
        {
          "indexed": false,
          "name": "email",
          "type": "string"
        },
        {
          "indexed": false,
          "name": "passwordCode",
          "type": "bytes32"
        },
        {
          "indexed": false,
          "name": "name",
          "type": "string"
        },
        {
          "indexed": false,
          "name": "contactNumber",
          "type": "uint256"
        },
        {
          "indexed": false,
          "name": "userAddress",
          "type": "string"
        },
        {
          "indexed": false,
          "name": "userAccess",
          "type": "uint256"
        }
      ],
      "name": "LogNewLoader",
      "type": "event"
    },
    {
      "anonymous": false,
      "inputs": [
        {
          "indexed": true,
          "name": "emailCode",
          "type": "bytes32"
        },
        {
          "indexed": false,
          "name": "index",
          "type": "uint256"
        },
        {
          "indexed": false,
          "name": "email",
          "type": "string"
        },
        {
          "indexed": false,
          "name": "passwordCode",
          "type": "bytes32"
        },
        {
          "indexed": false,
          "name": "name",
          "type": "string"
        },
        {
          "indexed": false,
          "name": "contactNumber",
          "type": "uint256"
        },
        {
          "indexed": false,
          "name": "userAddress",
          "type": "string"
        },
        {
          "indexed": false,
          "name": "userAccess",
          "type": "uint256"
        }
      ],
      "name": "LogUpdateLoader",
      "type": "event"
    },
    {
      "anonymous": false,
      "inputs": [
        {
          "indexed": true,
          "name": "emailcode",
          "type": "bytes32"
        },
        {
          "indexed": false,
          "name": "index",
          "type": "uint256"
        }
      ],
      "name": "LogDeleteLoader",
      "type": "event"
    },
    {
      "constant": true,
      "inputs": [
        {
          "name": "_emailCode",
          "type": "bytes32"
        }
      ],
      "name": "isLoader",
      "outputs": [
        {
          "name": "isIndeed",
          "type": "bool"
        }
      ],
      "payable": false,
      "stateMutability": "view",
      "type": "function"
    },
    {
      "constant": false,
      "inputs": [
        {
          "name": "_email",
          "type": "string"
        }
      ],
      "name": "createLoaderToken",
      "outputs": [
        {
          "name": "",
          "type": "bytes32"
        }
      ],
      "payable": false,
      "stateMutability": "nonpayable",
      "type": "function"
    },
    {
      "constant": true,
      "inputs": [
        {
          "name": "_email",
          "type": "string"
        }
      ],
      "name": "getLoaderToken",
      "outputs": [
        {
          "name": "",
          "type": "bytes32"
        }
      ],
      "payable": false,
      "stateMutability": "view",
      "type": "function"
    },
    {
      "constant": true,
      "inputs": [
        {
          "name": "_email",
          "type": "string"
        },
        {
          "name": "_token",
          "type": "bytes32"
        }
      ],
      "name": "checkLoaderToken",
      "outputs": [
        {
          "name": "",
          "type": "bool"
        }
      ],
      "payable": false,
      "stateMutability": "view",
      "type": "function"
    },
    {
      "constant": false,
      "inputs": [
        {
          "name": "_email",
          "type": "string"
        },
        {
          "name": "_password",
          "type": "string"
        }
      ],
      "name": "setPassword",
      "outputs": [
        {
          "name": "",
          "type": "bool"
        }
      ],
      "payable": false,
      "stateMutability": "nonpayable",
      "type": "function"
    },
    {
      "constant": false,
      "inputs": [
        {
          "name": "_email",
          "type": "string"
        },
        {
          "name": "_name",
          "type": "string"
        },
        {
          "name": "_address",
          "type": "string"
        },
        {
          "name": "_telephone",
          "type": "uint256"
        }
      ],
      "name": "insertLoader",
      "outputs": [
        {
          "name": "",
          "type": "bool"
        }
      ],
      "payable": false,
      "stateMutability": "nonpayable",
      "type": "function"
    },
    {
      "constant": false,
      "inputs": [
        {
          "name": "email",
          "type": "bytes32"
        }
      ],
      "name": "deleteLoader",
      "outputs": [
        {
          "name": "",
          "type": "string"
        }
      ],
      "payable": false,
      "stateMutability": "nonpayable",
      "type": "function"
    },
    {
      "constant": false,
      "inputs": [
        {
          "name": "email",
          "type": "bytes32"
        }
      ],
      "name": "blockLoader",
      "outputs": [
        {
          "name": "",
          "type": "string"
        }
      ],
      "payable": false,
      "stateMutability": "nonpayable",
      "type": "function"
    },
    {
      "constant": false,
      "inputs": [
        {
          "name": "_email",
          "type": "string"
        },
        {
          "name": "usreAccess",
          "type": "uint256"
        }
      ],
      "name": "editUserAccess",
      "outputs": [
        {
          "name": "",
          "type": "bool"
        }
      ],
      "payable": false,
      "stateMutability": "nonpayable",
      "type": "function"
    },
    {
      "constant": true,
      "inputs": [
        {
          "name": "_email",
          "type": "string"
        }
      ],
      "name": "getLoader",
      "outputs": [
        {
          "name": "",
          "type": "bytes32"
        },
        {
          "name": "email",
          "type": "string"
        },
        {
          "name": "name",
          "type": "string"
        },
        {
          "name": "contactNumber",
          "type": "uint256"
        },
        {
          "name": "userAddress",
          "type": "string"
        },
        {
          "name": "userAccess",
          "type": "uint256"
        }
      ],
      "payable": false,
      "stateMutability": "view",
      "type": "function"
    },
    {
      "constant": true,
      "inputs": [
        {
          "name": "i",
          "type": "uint256"
        }
      ],
      "name": "getLoaderi",
      "outputs": [
        {
          "name": "",
          "type": "bytes32"
        },
        {
          "name": "",
          "type": "string"
        },
        {
          "name": "",
          "type": "string"
        },
        {
          "name": "",
          "type": "uint256"
        },
        {
          "name": "",
          "type": "string"
        },
        {
          "name": "",
          "type": "uint256"
        }
      ],
      "payable": false,
      "stateMutability": "view",
      "type": "function"
    },
    {
      "constant": true,
      "inputs": [],
      "name": "getLoaderCount",
      "outputs": [
        {
          "name": "",
          "type": "uint256"
        }
      ],
      "payable": false,
      "stateMutability": "view",
      "type": "function"
    },
    {
      "constant": false,
      "inputs": [
        {
          "name": "_email",
          "type": "string"
        },
        {
          "name": "_name",
          "type": "string"
        }
      ],
      "name": "updateLoaderName",
      "outputs": [
        {
          "name": "success",
          "type": "bool"
        }
      ],
      "payable": false,
      "stateMutability": "nonpayable",
      "type": "function"
    },
    {
      "constant": false,
      "inputs": [
        {
          "name": "_email",
          "type": "string"
        },
        {
          "name": "_userAddress",
          "type": "string"
        }
      ],
      "name": "updateLoaderAddress",
      "outputs": [
        {
          "name": "success",
          "type": "bool"
        }
      ],
      "payable": false,
      "stateMutability": "nonpayable",
      "type": "function"
    },
    {
      "constant": false,
      "inputs": [
        {
          "name": "_email",
          "type": "string"
        },
        {
          "name": "_contactNumber",
          "type": "uint256"
        }
      ],
      "name": "updateLoaderContactNumber",
      "outputs": [
        {
          "name": "success",
          "type": "bool"
        }
      ],
      "payable": false,
      "stateMutability": "nonpayable",
      "type": "function"
    },
    {
      "constant": false,
      "inputs": [
        {
          "name": "_email",
          "type": "string"
        },
        {
          "name": "index",
          "type": "uint256[]"
        },
        {
          "name": "_name",
          "type": "string"
        },
        {
          "name": "_userAddress",
          "type": "string"
        },
        {
          "name": "_contactNumber",
          "type": "uint256"
        }
      ],
      "name": "updateLoader",
      "outputs": [
        {
          "name": "success",
          "type": "bool"
        }
      ],
      "payable": false,
      "stateMutability": "nonpayable",
      "type": "function"
    },
    {
      "constant": false,
      "inputs": [
        {
          "name": "_email",
          "type": "string"
        }
      ],
      "name": "updateLoaderiEmail",
      "outputs": [
        {
          "name": "success",
          "type": "bool"
        }
      ],
      "payable": false,
      "stateMutability": "nonpayable",
      "type": "function"
    },
    {
      "constant": true,
      "inputs": [
        {
          "name": "email",
          "type": "bytes32"
        }
      ],
      "name": "checkLoaderUserAccess",
      "outputs": [
        {
          "name": "userAccess",
          "type": "uint256"
        }
      ],
      "payable": false,
      "stateMutability": "view",
      "type": "function"
    },
    {
      "constant": true,
      "inputs": [
        {
          "name": "email",
          "type": "bytes32"
        }
      ],
      "name": "checkLoaderPasswordCode",
      "outputs": [
        {
          "name": "passwordCode",
          "type": "bytes32"
        }
      ],
      "payable": false,
      "stateMutability": "view",
      "type": "function"
    }
  ],
  "bytecode": "0x608060405234801561001057600080fd5b506138f5806100206000396000f3fe608060405234801561001057600080fd5b506004361061012c5760003560e01c806381283fe2116100ad578063ca16496f11610071578063ca16496f14610e0e578063ca38649614610f37578063d8264a0514611060578063ec440dbd1461107d578063f82e70f11461109a5761012c565b806381283fe214610a53578063849f4b0014610c03578063867fd12b14610ca9578063887d77ee14610cc657806394aae85614610d6a5761012c565b80633667afe1116100f45780633667afe11461062657806346dbbb12146108585780636609b7cc146108fe57806376b65fb2146109a4578063770079ee146109c15761012c565b80630bfab7e914610131578063118d1e9914610162578063159d26041461017c5780631f5b9540146103005780631f7d9c3414610429575b600080fd5b61014e6004803603602081101561014757600080fd5b503561113e565b604080519115158252519081900360200190f35b61016a61118c565b60408051918252519081900360200190f35b6101996004803603602081101561019257600080fd5b5035611193565b6040518080602001898152602001888152602001806020018781526020018060200186815260200185815260200184810384528c818151815260200191508051906020019080838360005b838110156101fc5781810151838201526020016101e4565b50505050905090810190601f1680156102295780820380516001836020036101000a031916815260200191505b5084810383528951815289516020918201918b019080838360005b8381101561025c578181015183820152602001610244565b50505050905090810190601f1680156102895780820380516001836020036101000a031916815260200191505b50848103825287518152875160209182019189019080838360005b838110156102bc5781810151838201526020016102a4565b50505050905090810190601f1680156102e95780820380516001836020036101000a031916815260200191505b509b50505050505050505050505060405180910390f35b61014e6004803603604081101561031657600080fd5b810190602081018135600160201b81111561033057600080fd5b82018360208201111561034257600080fd5b803590602001918460018302840111600160201b8311171561036357600080fd5b91908080601f0160208091040260200160405190810160405280939291908181526020018383808284376000920191909152509295949360208101935035915050600160201b8111156103b557600080fd5b8201836020820111156103c757600080fd5b803590602001918460018302840111600160201b831117156103e857600080fd5b91908080601f01602080910402602001604051908101604052809392919081815260200183838082843760009201919091525092955061137e945050505050565b6104cd6004803603602081101561043f57600080fd5b810190602081018135600160201b81111561045957600080fd5b82018360208201111561046b57600080fd5b803590602001918460018302840111600160201b8311171561048c57600080fd5b91908080601f01602080910402602001604051908101604052809392919081815260200183838082843760009201919091525092955061167d945050505050565b60405180878152602001806020018060200186815260200180602001858152602001848103845289818151815260200191508051906020019080838360005b8381101561052457818101518382015260200161050c565b50505050905090810190601f1680156105515780820380516001836020036101000a031916815260200191505b5084810383528851815288516020918201918a019080838360005b8381101561058457818101518382015260200161056c565b50505050905090810190601f1680156105b15780820380516001836020036101000a031916815260200191505b50848103825286518152865160209182019188019080838360005b838110156105e45781810151838201526020016105cc565b50505050905090810190601f1680156106115780820380516001836020036101000a031916815260200191505b50995050505050505050505060405180910390f35b61014e600480360360a081101561063c57600080fd5b810190602081018135600160201b81111561065657600080fd5b82018360208201111561066857600080fd5b803590602001918460018302840111600160201b8311171561068957600080fd5b91908080601f0160208091040260200160405190810160405280939291908181526020018383808284376000920191909152509295949360208101935035915050600160201b8111156106db57600080fd5b8201836020820111156106ed57600080fd5b803590602001918460208302840111600160201b8311171561070e57600080fd5b9190808060200260200160405190810160405280939291908181526020018383602002808284376000920191909152509295949360208101935035915050600160201b81111561075d57600080fd5b82018360208201111561076f57600080fd5b803590602001918460018302840111600160201b8311171561079057600080fd5b91908080601f0160208091040260200160405190810160405280939291908181526020018383808284376000920191909152509295949360208101935035915050600160201b8111156107e257600080fd5b8201836020820111156107f457600080fd5b803590602001918460018302840111600160201b8311171561081557600080fd5b91908080601f0160208091040260200160405190810160405280939291908181526020018383808284376000920191909152509295505091359250611937915050565b61014e6004803603604081101561086e57600080fd5b810190602081018135600160201b81111561088857600080fd5b82018360208201111561089a57600080fd5b803590602001918460018302840111600160201b831117156108bb57600080fd5b91908080601f016020809104026020016040519081016040528093929190818152602001838380828437600092019190915250929550509135925061216a915050565b61014e6004803603604081101561091457600080fd5b810190602081018135600160201b81111561092e57600080fd5b82018360208201111561094057600080fd5b803590602001918460018302840111600160201b8311171561096157600080fd5b91908080601f01602080910402602001604051908101604052809392919081815260200183838082843760009201919091525092955050913592506121f6915050565b6104cd600480360360208110156109ba57600080fd5b50356122ae565b6109de600480360360208110156109d757600080fd5b5035612531565b6040805160208082528351818301528351919283929083019185019080838360005b83811015610a18578181015183820152602001610a00565b50505050905090810190601f168015610a455780820380516001836020036101000a031916815260200191505b509250505060405180910390f35b61014e60048036036080811015610a6957600080fd5b810190602081018135600160201b811115610a8357600080fd5b820183602082011115610a9557600080fd5b803590602001918460018302840111600160201b83111715610ab657600080fd5b91908080601f0160208091040260200160405190810160405280939291908181526020018383808284376000920191909152509295949360208101935035915050600160201b811115610b0857600080fd5b820183602082011115610b1a57600080fd5b803590602001918460018302840111600160201b83111715610b3b57600080fd5b91908080601f0160208091040260200160405190810160405280939291908181526020018383808284376000920191909152509295949360208101935035915050600160201b811115610b8d57600080fd5b820183602082011115610b9f57600080fd5b803590602001918460018302840111600160201b83111715610bc057600080fd5b91908080601f0160208091040260200160405190810160405280939291908181526020018383808284376000920191909152509295505091359250612699915050565b61014e60048036036040811015610c1957600080fd5b810190602081018135600160201b811115610c3357600080fd5b820183602082011115610c4557600080fd5b803590602001918460018302840111600160201b83111715610c6657600080fd5b91908080601f0160208091040260200160405190810160405280939291908181526020018383808284376000920191909152509295505091359250612a3b915050565b6109de60048036036020811015610cbf57600080fd5b5035612d1d565b61016a60048036036020811015610cdc57600080fd5b810190602081018135600160201b811115610cf657600080fd5b820183602082011115610d0857600080fd5b803590602001918460018302840111600160201b83111715610d2957600080fd5b91908080601f016020809104026020016040519081016040528093929190818152602001838380828437600092019190915250929550612f62945050505050565b61014e60048036036020811015610d8057600080fd5b810190602081018135600160201b811115610d9a57600080fd5b820183602082011115610dac57600080fd5b803590602001918460018302840111600160201b83111715610dcd57600080fd5b91908080601f016020809104026020016040519081016040528093929190818152602001838380828437600092019190915250929550613024945050505050565b61014e60048036036040811015610e2457600080fd5b810190602081018135600160201b811115610e3e57600080fd5b820183602082011115610e5057600080fd5b803590602001918460018302840111600160201b83111715610e7157600080fd5b91908080601f0160208091040260200160405190810160405280939291908181526020018383808284376000920191909152509295949360208101935035915050600160201b811115610ec357600080fd5b820183602082011115610ed557600080fd5b803590602001918460018302840111600160201b83111715610ef657600080fd5b91908080601f01602080910402602001604051908101604052809392919081815260200183838082843760009201919091525092955061302a945050505050565b61014e60048036036040811015610f4d57600080fd5b810190602081018135600160201b811115610f6757600080fd5b820183602082011115610f7957600080fd5b803590602001918460018302840111600160201b83111715610f9a57600080fd5b91908080601f0160208091040260200160405190810160405280939291908181526020018383808284376000920191909152509295949360208101935035915050600160201b811115610fec57600080fd5b820183602082011115610ffe57600080fd5b803590602001918460018302840111600160201b8311171561101f57600080fd5b91908080601f0160208091040260200160405190810160405280939291908181526020018383808284376000920191909152509295506132dc945050505050565b61016a6004803603602081101561107657600080fd5b50356135e9565b61016a6004803603602081101561109357600080fd5b50356135fe565b61016a600480360360208110156110b057600080fd5b810190602081018135600160201b8111156110ca57600080fd5b8201836020820111156110dc57600080fd5b803590602001918460018302840111600160201b831117156110fd57600080fd5b91908080601f016020809104026020016040519081016040528093929190818152602001838380828437600092019190915250929550613613945050505050565b60015460009061115057506000611187565b60008281526020819052604090206007015460018054849290811061117157fe5b9060005260206000209060060201600001541490505b919050565b6001545b90565b6000602081815291815260409081902080548251601f6002600019610100600186161502019093169290920491820185900485028101850190935280835290928391908301828280156112275780601f106111fc57610100808354040283529160200191611227565b820191906000526020600020905b81548152906001019060200180831161120a57829003601f168201915b505050505090806001015490806002015490806003018054600181600116156101000203166002900480601f0160208091040260200160405190810160405280929190818152602001828054600181600116156101000203166002900480156112d15780601f106112a6576101008083540402835291602001916112d1565b820191906000526020600020905b8154815290600101906020018083116112b457829003601f168201915b50505050600483015460058401805460408051602060026001851615610100026000190190941693909304601f810184900484028201840190925281815295969395939450908301828280156113685780601f1061133d57610100808354040283529160200191611368565b820191906000526020600020905b81548152906001019060200180831161134b57829003601f168201915b5050505050908060060154908060070154905088565b600080836040516020018082805190602001908083835b602083106113b45780518252601f199092019160209182019101611395565b6001836020036101000a0380198251168184511680821785525050505050509050019150506040516020818303038152906040528051906020012090506113fa8161113e565b151560011461144b5760408051600160e51b62461bcd0281526020600482015260126024820152600160701b7175736572206e6f7420696e2073797374656d02604482015290519081900360640190fd5b600081815260208181526040909120845161146e926005909201918601906137d8565b5060008181526020819052604090206007015460018054859290811061149057fe5b906000526020600020906006020160040190805190602001906114b49291906137d8565b50600081815260208181526040808320600781015460028201546004830154600684015485518481529586018390526080860182905260c0860181905260e08688018181528d51918801919091528c518a996000805160206138aa8339815191529996988f9896976003909701968f959491939192606085019260a0860192610100870192908d0191908190849084905b8381101561155d578181015183820152602001611545565b50505050905090810190601f16801561158a5780820380516001836020036101000a031916815260200191505b508481038352885460026000196101006001841615020190911604808252602090910190899080156115fd5780601f106115d2576101008083540402835291602001916115fd565b820191906000526020600020905b8154815290600101906020018083116115e057829003601f168201915b5050848103825286518152865160209182019188019080838360005b83811015611631578181015183820152602001611619565b50505050905090810190601f16801561165e5780820380516001836020036101000a031916815260200191505b509a505050505050505050505060405180910390a25060019392505050565b600060608060006060600080876040516020018082805190602001908083835b602083106116bc5780518252601f19909201916020918201910161169d565b6001836020036101000a0380198251168184511680821785525050505050509050019150506040516020818303038152906040528051906020012090506117028161113e565b15156001146117535760408051600160e51b62461bcd0281526020600482015260126024820152600160701b7175736572206e6f7420696e2073797374656d02604482015290519081900360640190fd5b60008181526020818152604091829020600481015460068201548254855160026001831615610100026000190190921691909104601f8101869004860282018601909652858152869593946003860194600587019392918791908301828280156117fe5780601f106117d3576101008083540402835291602001916117fe565b820191906000526020600020905b8154815290600101906020018083116117e157829003601f168201915b5050875460408051602060026001851615610100026000190190941693909304601f8101849004840282018401909252818152959a508994509250840190508282801561188c5780601f106118615761010080835404028352916020019161188c565b820191906000526020600020905b81548152906001019060200180831161186f57829003601f168201915b5050855460408051602060026001851615610100026000190190941693909304601f81018490048402820184019092528181529599508794509250840190508282801561191a5780601f106118ef5761010080835404028352916020019161191a565b820191906000526020600020905b8154815290600101906020018083116118fd57829003601f168201915b505050505091509650965096509650965096505091939550919395565b600080866040516020018082805190602001908083835b6020831061196d5780518252601f19909201916020918201910161194e565b6001836020036101000a0380198251168184511680821785525050505050509050019150506040516020818303038152906040528051906020012090506119b38161113e565b1515600114611a045760408051600160e51b62461bcd0281526020600482015260126024820152600160701b7175736572206e6f7420696e2073797374656d02604482015290519081900360640190fd5b6000818152602081905260408120600701545b875182101561215b57878281518110611a2c57fe5b602002602001015160011415611c8a576000838152602081815260409091208851611a5f926003909201918a01906137d8565b508660018281548110611a6e57fe5b90600052602060002090600602016002019080519060200190611a929291906137d8565b50826000805160206138aa833981519152600080868152602001908152602001600020600701548b600080888152602001908152602001600020600201548b6000808a8152602001908152602001600020600401546000808b81526020019081526020016000206005016000808c8152602001908152602001600020600601546040518088815260200180602001878152602001806020018681526020018060200185815260200184810384528a818151815260200191508051906020019080838360005b83811015611b6f578181015183820152602001611b57565b50505050905090810190601f168015611b9c5780820380516001836020036101000a031916815260200191505b5084810383528851815288516020918201918a019080838360005b83811015611bcf578181015183820152602001611bb7565b50505050905090810190601f168015611bfc5780820380516001836020036101000a031916815260200191505b50848103825286546002600019610100600184161502019091160480825260209091019087908015611c6f5780601f10611c4457610100808354040283529160200191611c6f565b820191906000526020600020905b815481529060010190602001808311611c5257829003601f168201915b50509a505050505050505050505060405180910390a2612150565b878281518110611c9657fe5b602002602001015160021415611ef4576000838152602081815260409091208751611cc9926005909201918901906137d8565b508560018281548110611cd857fe5b90600052602060002090600602016004019080519060200190611cfc9291906137d8565b50826000805160206138aa833981519152600080868152602001908152602001600020600701548b600080888152602001908152602001600020600201546000808981526020019081526020016000206003016000808a8152602001908152602001600020600401548c6000808c8152602001908152602001600020600601546040518088815260200180602001878152602001806020018681526020018060200185815260200184810384528a818151815260200191508051906020019080838360005b83811015611dd9578181015183820152602001611dc1565b50505050905090810190601f168015611e065780820380516001836020036101000a031916815260200191505b50848103835288546002600019610100600184161502019091160480825260209091019089908015611e795780601f10611e4e57610100808354040283529160200191611e79565b820191906000526020600020905b815481529060010190602001808311611e5c57829003601f168201915b5050848103825286518152865160209182019188019080838360005b83811015611ead578181015183820152602001611e95565b50505050905090810190601f168015611eda5780820380516001836020036101000a031916815260200191505b509a505050505050505050505060405180910390a2612150565b878281518110611f0057fe5b6020026020010151600314156121505760008381526020819052604090206004018590556001805486919083908110611f3557fe5b906000526020600020906006020160030181905550826000805160206138aa833981519152600080868152602001908152602001600020600701548b600080888152602001908152602001600020600201546000808981526020019081526020016000206003018a6000808b81526020019081526020016000206005016000808c8152602001908152602001600020600601546040518088815260200180602001878152602001806020018681526020018060200185815260200184810384528a818151815260200191508051906020019080838360005b8381101561202557818101518382015260200161200d565b50505050905090810190601f1680156120525780820380516001836020036101000a031916815260200191505b508481038352885460026000196101006001841615020190911604808252602090910190899080156120c55780601f1061209a576101008083540402835291602001916120c5565b820191906000526020600020905b8154815290600101906020018083116120a857829003601f168201915b50508481038252865460026000196101006001841615020190911604808252602090910190879080156121395780601f1061210e57610100808354040283529160200191612139565b820191906000526020600020905b81548152906001019060200180831161211c57829003601f168201915b50509a505050505050505050505060405180910390a25b600190910190611a17565b50600198975050505050505050565b600080836040516020018082805190602001908083835b602083106121a05780518252601f199092019160209182019101612181565b51815160209384036101000a60001901801990921691161790526040805192909401828103601f190183528452815191810191909120600090815260029091529190912060010154959095149695505050505050565b600080836040516020018082805190602001908083835b6020831061222c5780518252601f19909201916020918201910161220d565b51815160209384036101000a60001901801990921691161790526040805192909401828103601f1901835284528151918101919091206000818152918290529290206006810188905560070154600180549396508895509350918210905061229057fe5b60009182526020909120600560069092020101555060019392505050565b6000606080600060606000600187815481106122c657fe5b906000526020600020906006020160000154600188815481106122e557fe5b90600052602060002090600602016001016001898154811061230357fe5b906000526020600020906006020160020160018a8154811061232157fe5b90600052602060002090600602016003015460018b8154811061234057fe5b906000526020600020906006020160040160018c8154811061235e57fe5b600091825260209182902060056006909202010154855460408051601f6002600019610100600187161502019094169390930492830185900485028101850190915281815291928791908301828280156123f95780601f106123ce576101008083540402835291602001916123f9565b820191906000526020600020905b8154815290600101906020018083116123dc57829003601f168201915b5050875460408051602060026001851615610100026000190190941693909304601f8101849004840282018401909252818152959a50899450925084019050828280156124875780601f1061245c57610100808354040283529160200191612487565b820191906000526020600020905b81548152906001019060200180831161246a57829003601f168201915b5050855460408051602060026001851615610100026000190190941693909304601f8101849004840282018401909252818152959950879450925084019050828280156125155780601f106124ea57610100808354040283529160200191612515565b820191906000526020600020905b8154815290600101906020018083116124f857829003601f168201915b5050505050915095509550955095509550955091939550919395565b600081815260026020908152604080832083815560019081018490559183905282206004600682018190556007909101548254606094938593929091811061257557fe5b906000526020600020906006020160050181905550600160008086815260200190815260200160002060070154815481106125ac57fe5b600091825260209182902060026006909202018101805460408051601f6000196101006001861615020190931694909404918201859004850284018501905280835291929091908301828280156126445780601f1061261957610100808354040283529160200191612644565b820191906000526020600020905b81548152906001019060200180831161262757829003601f168201915b50505060008781526020818152604091829020600701548251908152915194955088947ff5a60d164d2167f821f6e0a319726c4f553b0d3a2dad9c7f5b0fce6c59484b04945091829003019150a29392505050565b600080856040516020018082805190602001908083835b602083106126cf5780518252601f1990920191602091820191016126b0565b6001836020036101000a03801982511681845116808217855250505050505090500191505060405160208183030381529060405280519060200120905060006040516020018080600160f81b60610281525060010190506040516020818303038152906040528051906020012090506127478261113e565b1515600114156127a15760408051600160e51b62461bcd02815260206004820152601660248201527f7573657220616c6c7265647920696e2073797374656d00000000000000000000604482015290519081900360640190fd5b60008281526020818152604090912088516127be928a01906137d8565b50600082815260208181526040909120600181018490556002810183905587516127f0926003909201918901906137d8565b5060008281526020818152604090912060048101869055865161281b926005909201918801906137d8565b506000828152602081905260409020600160069091015561283f828888878961369b565b50600154600083815260208190526040902060001990910160079091015561286687612f62565b50817f4ac176af59d0626d12f087b4249dac8642d385f96046952eb30dab1e0e90374f6000808581526020019081526020016000206007015489600080878152602001908152602001600020600201548a898b6000808b8152602001908152602001600020600601546040518088815260200180602001878152602001806020018681526020018060200185815260200184810384528a818151815260200191508051906020019080838360005b8381101561292c578181015183820152602001612914565b50505050905090810190601f1680156129595780820380516001836020036101000a031916815260200191505b5084810383528851815288516020918201918a019080838360005b8381101561298c578181015183820152602001612974565b50505050905090810190601f1680156129b95780820380516001836020036101000a031916815260200191505b50848103825286518152865160209182019188019080838360005b838110156129ec5781810151838201526020016129d4565b50505050905090810190601f168015612a195780820380516001836020036101000a031916815260200191505b509a505050505050505050505060405180910390a25060019695505050505050565b600080836040516020018082805190602001908083835b60208310612a715780518252601f199092019160209182019101612a52565b6001836020036101000a038019825116818451168082178552505050505050905001915050604051602081830303815290604052805190602001209050612ab78161113e565b1515600114612b085760408051600160e51b62461bcd0281526020600482015260126024820152600160701b7175736572206e6f7420696e2073797374656d02604482015290519081900360640190fd5b60008181526020819052604090206004810184905560070154600180548592908110612b3057fe5b60009182526020808320600692830201600390810194909455848352828152604080842060078101546002820154948201548351828152938401869052608084018b905260c0840181905260e08486018181528d51918601919091528c518a996000805160206138aa8339815191529994988f989097918701968f96600590910195949293606085019260a0860192610100870192918d0191908190849084905b83811015612be9578181015183820152602001612bd1565b50505050905090810190601f168015612c165780820380516001836020036101000a031916815260200191505b50848103835288546002600019610100600184161502019091160480825260209091019089908015612c895780601f10612c5e57610100808354040283529160200191612c89565b820191906000526020600020905b815481529060010190602001808311612c6c57829003601f168201915b5050848103825286546002600019610100600184161502019091160480825260209091019087908015612cfd5780601f10612cd257610100808354040283529160200191612cfd565b820191906000526020600020905b815481529060010190602001808311612ce057829003601f168201915b50509a505050505050505050505060405180910390a25060019392505050565b600081815260208190526040902060060154606090819060051415612e3f576000838152602081905260409020600360068201819055600790910154600180549091908110612d6857fe5b90600052602060002090600602016005018190555060016000808581526020019081526020016000206007015481548110612d9f57fe5b600091825260209182902060026006909202018101805460408051601f600019610100600186161502019093169490940491820185900485028401850190528083529192909190830182828015612e375780601f10612e0c57610100808354040283529160200191612e37565b820191906000526020600020905b815481529060010190602001808311612e1a57829003601f168201915b505050505090505b60008381526020819052604090206006015460031415612f5c576000838152602081905260409020600560068201819055600790910154600180549091908110612e8557fe5b90600052602060002090600602016005018190555060016000808581526020019081526020016000206007015481548110612ebc57fe5b600091825260209182902060026006909202018101805460408051601f600019610100600186161502019093169490940491820185900485028401850190528083529192909190830182828015612f545780601f10612f2957610100808354040283529160200191612f54565b820191906000526020600020905b815481529060010190602001808311612f3757829003601f168201915b505050505090505b92915050565b600080826040516020018082805190602001908083835b60208310612f985780518252601f199092019160209182019101612f79565b6001836020036101000a0380198251168184511680821785525050505050509050019150506040516020818303038152906040528051906020012090506000612fdf6137a1565b60008381526002602052604090205490915082146130095760008281526002602052604090208290555b60009182526002602052604090912060010181905592915050565b50600090565b600080836040516020018082805190602001908083835b602083106130605780518252601f199092019160209182019101613041565b6001836020036101000a0380198251168184511680821785525050505050509050019150506040516020818303038152906040528051906020012090506130a68161113e565b15156001146130f75760408051600160e51b62461bcd0281526020600482015260126024820152600160701b7175736572206e6f7420696e2073797374656d02604482015290519081900360640190fd5b600081815260208181526040909120845161311a926003909201918601906137d8565b5060008181526020819052604090206007015460018054859290811061313c57fe5b906000526020600020906006020160020190805190602001906131609291906137d8565b50600081815260208181526040808320600781015460028201546004830154600684015485518481529586018390526080860182905260c0860181905260e08688018181528d51918801919091528c518a996000805160206138aa8339815191529996988f9896978f97600501959491939192606085019260a0860192610100870192908d0191908190849084905b838110156132075781810151838201526020016131ef565b50505050905090810190601f1680156132345780820380516001836020036101000a031916815260200191505b5084810383528851815288516020918201918a019080838360005b8381101561326757818101518382015260200161324f565b50505050905090810190601f1680156132945780820380516001836020036101000a031916815260200191505b50848103825286546002600019610100600184161502019091160480825260209091019087908015612cfd5780601f10612cd257610100808354040283529160200191612cfd565b600080836040516020018082805190602001908083835b602083106133125780518252601f1990920191602091820191016132f3565b6001836020036101000a0380198251168184511680821785525050505050509050019150506040516020818303038152906040528051906020012090506000836040516020018082805190602001908083835b602083106133845780518252601f199092019160209182019101613365565b51815160209384036101000a60001901801990921691161790526040805192909401828103601f1901835284528151918101919091206000888152808352848120600280820184905584529481208181556001908101829055925260056006850181905560079094015482549197509395509093508210905061340357fe5b60009182526020808320600560069093020182019390935584825281835260408083206007810154600482015483518281529384018890526080840181905260c0840185905260e08488018181528d51918601919091528c518a986000805160206138aa8339815191529894978f978c9760038101979083019592949193606085019260a08601926101008701928d0191908190849084905b838110156134b457818101518382015260200161349c565b50505050905090810190601f1680156134e15780820380516001836020036101000a031916815260200191505b508481038352885460026000196101006001841615020190911604808252602090910190899080156135545780601f1061352957610100808354040283529160200191613554565b820191906000526020600020905b81548152906001019060200180831161353757829003601f168201915b50508481038252865460026000196101006001841615020190911604808252602090910190879080156135c85780601f1061359d576101008083540402835291602001916135c8565b820191906000526020600020905b8154815290600101906020018083116135ab57829003601f168201915b50509a505050505050505050505060405180910390a2506001949350505050565b60009081526020819052604090206002015490565b60009081526020819052604090206006015490565b600080826040516020018082805190602001908083835b602083106136495780518252601f19909201916020918201910161362a565b51815160209384036101000a60001901801990921691161790526040805192909401828103601f1901835284528151918101919091206000908152600290915291909120600101549695505050505050565b60006136a5613856565b8681526020808201878152604083018790526060830186905260808301859052600160a084018190528054808201808355600092909252845160069091027fb10e2d527612073b26eecdfd717e6a320cf44b4afac2b0732d9fcbe2b7fa0cf6810191825592518051929486949293613743937fb10e2d527612073b26eecdfd717e6a320cf44b4afac2b0732d9fcbe2b7fa0cf70192909101906137d8565b506040820151805161375f9160028401916020909101906137d8565b5060608201516003820155608082015180516137859160048401916020909101906137d8565b5060a08201518160050155505050600191505095945050505050565b6040805142602080830191909152448284015243606080840191909152835180840390910181526080909201909252805191012090565b828054600181600116156101000203166002900490600052602060002090601f016020900481019282601f1061381957805160ff1916838001178555613846565b82800160010185558215613846579182015b8281111561384657825182559160200191906001019061382b565b5061385292915061388f565b5090565b6040518060c001604052806000801916815260200160608152602001606081526020016000815260200160608152602001600081525090565b61119091905b80821115613852576000815560010161389556fe5463bb5972ae46488e2ce62ba8837ec6622bbd9af3952ef4fc866971d3b3ab2aa165627a7a72305820524905f3ab09ac168e90759c4cf0e52b322213177fc5ac7e2e2f0943708244e40029",
  "source": "pragma solidity >=0.4.21 <0.6.0;\r\n\r\ncontract LoaderContract {\r\n    \r\n    struct Loader{\r\n        string email;\r\n        bytes32 emailCode;\r\n        bytes32 passwordCode;\r\n        string name;\r\n        uint contactNumber;\r\n        string userAddress;\r\n        uint userAccess;\r\n        uint index;\r\n    }\r\n\r\n    struct DisplayLoader{\r\n        bytes32 emailCode;\r\n        string email;\r\n        string name;\r\n        uint contactNumber;\r\n        string userAddress;\r\n        uint userAccess;\r\n    }\r\n    \r\n    event LogNewLoader(\r\n        bytes32 indexed emailCode,\r\n        uint index,string email,\r\n        bytes32 passwordCode,\r\n        string name,\r\n        uint contactNumber,\r\n        string userAddress,\r\n        uint userAccess\r\n        );\r\n    event LogUpdateLoader(\r\n        bytes32 indexed emailCode,\r\n        uint index,string email,\r\n        bytes32 passwordCode,\r\n        string name,\r\n        uint contactNumber,\r\n        string userAddress,\r\n        uint userAccess\r\n        );\r\n    event LogDeleteLoader(\r\n        bytes32 indexed emailcode,\r\n        uint index\r\n        );\r\n        \r\n    struct RegistationToken{\r\n        bytes32 emailCode;\r\n        bytes32 token;\r\n    }\r\n        \r\n    mapping(bytes32 => Loader) public loaderArray;\r\n    DisplayLoader[] private loaderIndex;\r\n    mapping(bytes32 => RegistationToken) private loaderRegistationToken;\r\n    \r\n    function isLoader(bytes32 _emailCode)public view returns(bool isIndeed) {\r\n        if(loaderIndex.length == 0) return false;\r\n        return (loaderIndex[loaderArray[_emailCode].index].emailCode == _emailCode);\r\n    }\r\n    function createLoaderToken(string memory _email)public returns(bytes32){\r\n        bytes32 _emailCode = keccak256(abi.encodePacked((_email)));\r\n        bytes32 token = randomtoken();\r\n        if(loaderRegistationToken[_emailCode].emailCode != _emailCode){\r\n            loaderRegistationToken[_emailCode].emailCode = _emailCode;\r\n        }\r\n        loaderRegistationToken[_emailCode].token = token;\r\n        return token;\r\n    }\r\n    function getLoaderToken(string memory _email)public view returns(bytes32){\r\n        bytes32 _emailCode = keccak256(abi.encodePacked((_email)));\r\n        return  loaderRegistationToken[_emailCode].token;\r\n    }\r\n    function checkLoaderToken(string memory _email,bytes32 _token)public view returns(bool){\r\n        bytes32 _emailCode = keccak256(abi.encodePacked((_email)));\r\n        return  (loaderRegistationToken[_emailCode].token == _token);\r\n    }\r\n    function randomtoken() private view returns (bytes32) {\r\n       return keccak256(abi.encodePacked(block.timestamp,block.difficulty,block.number));\r\n    }\r\n    function setPassword(string memory _email,string memory _password)public returns (bool) {\r\n        bytes32 _emailCode = keccak256(abi.encodePacked((_email)));\r\n        bytes32 _passwordCode = keccak256(abi.encodePacked((_password)));\r\n\r\n        loaderArray[_emailCode].passwordCode = _passwordCode;\r\n        delete loaderRegistationToken[_emailCode];\r\n        loaderArray[_emailCode].userAccess = 5;\r\n        loaderIndex[loaderArray[_emailCode].index].userAccess = 5;\r\n        emit LogUpdateLoader(\r\n            _emailCode,\r\n            loaderArray[_emailCode].index,\r\n            _email,\r\n            _passwordCode,\r\n            loaderArray[_emailCode].name,\r\n            loaderArray[_emailCode].contactNumber,\r\n            loaderArray[_emailCode].userAddress,\r\n            5\r\n            );\r\n        return true;\r\n\r\n    }\r\n    function setDisplayLoader(bytes32 _emailCode,string memory _email,string memory _name,uint _telephone,string memory _address)\r\n     private returns(bool){\r\n\r\n        DisplayLoader memory displayLoader;\r\n        displayLoader.emailCode = _emailCode;\r\n        displayLoader.email = _email;\r\n        displayLoader.name = _name;\r\n        displayLoader.contactNumber = _telephone;\r\n        displayLoader.userAddress = _address;\r\n        displayLoader.userAccess = 1;\r\n        loaderIndex.push(displayLoader);\r\n        return true;\r\n\r\n    }\r\n    function insertLoader(string memory _email,string memory _name,string memory _address,uint _telephone) public returns(bool){\r\n        bytes32 _emailCode = keccak256(abi.encodePacked((_email)));\r\n        bytes32 _passwordCode = keccak256(abi.encodePacked((\"a\")));\r\n        require(isLoader(_emailCode) != true,'user allredy in system');\r\n\r\n        loaderArray[_emailCode].email = _email;\r\n        loaderArray[_emailCode].emailCode = _emailCode;\r\n        loaderArray[_emailCode].passwordCode = _passwordCode;\r\n        loaderArray[_emailCode].name = _name;\r\n        loaderArray[_emailCode].contactNumber = _telephone;\r\n        loaderArray[_emailCode].userAddress = _address;\r\n        loaderArray[_emailCode].userAccess = 1;\r\n        setDisplayLoader(_emailCode,_email,_name,_telephone,_address);\r\n        loaderArray[_emailCode].index = loaderIndex.length-1;\r\n        createLoaderToken(_email);\r\n\r\n        emit LogNewLoader (\r\n            _emailCode,\r\n            loaderArray[_emailCode].index,\r\n            _email,\r\n            loaderArray[_emailCode].passwordCode,\r\n            _name,\r\n            _telephone,\r\n            _address,\r\n            loaderArray[_emailCode].userAccess\r\n            );\r\n        return true;\r\n    }\r\n    function deleteLoader (bytes32 email) public returns(string memory){\r\n        uint i;\r\n        string memory name;\r\n        delete loaderRegistationToken[email];\r\n        loaderArray[email].userAccess = 4;\r\n        loaderIndex[loaderArray[email].index].userAccess = 4;\r\n        name = loaderIndex[loaderArray[email].index].name;\r\n        emit LogDeleteLoader(\r\n            email,\r\n            loaderArray[email].index\r\n        );\r\n        return name;\r\n    }\r\n    function blockLoader(bytes32 email) public returns(string memory)\r\n    {\r\n        string memory name;\r\n        if(loaderArray[email].userAccess == 5){\r\n        loaderArray[email].userAccess = 3;\r\n        loaderIndex[loaderArray[email].index].userAccess = 3;\r\n        name = loaderIndex[loaderArray[email].index].name;\r\n        }\r\n        if(loaderArray[email].userAccess == 3){\r\n        loaderArray[email].userAccess = 5;\r\n        loaderIndex[loaderArray[email].index].userAccess = 5;\r\n        name = loaderIndex[loaderArray[email].index].name;\r\n        }\r\n        return name;\r\n    }\r\n    function editUserAccess(string memory _email,uint usreAccess)public returns(bool){\r\n        bytes32 email = keccak256(abi.encodePacked((_email)));\r\n        loaderArray[email].userAccess = usreAccess;\r\n        loaderIndex[loaderArray[email].index].userAccess = usreAccess;\r\n        return true;\r\n\r\n    }\r\n    function getLoader(string memory _email) public view returns(bytes32,string memory email,string memory name,\r\n    uint contactNumber,string memory userAddress, uint userAccess){\r\n        bytes32 _emailCode = keccak256(abi.encodePacked((_email)));\r\n        require(isLoader(_emailCode) == true,'user not in system');\r\n        return(\r\n            _emailCode,\r\n            loaderArray[_emailCode].email,\r\n            loaderArray[_emailCode].name,\r\n            loaderArray[_emailCode].contactNumber,\r\n            loaderArray[_emailCode].userAddress,\r\n            loaderArray[_emailCode].userAccess\r\n            );\r\n    }\r\n    function getLoaderi(uint i) public view returns(\r\n        bytes32,\r\n        string memory,\r\n        string memory,\r\n        uint,\r\n        string memory,\r\n        uint\r\n        ){\r\n            return (\r\n                loaderIndex[i].emailCode,\r\n                loaderIndex[i].email,\r\n                loaderIndex[i].name,\r\n                loaderIndex[i].contactNumber,\r\n                loaderIndex[i].userAddress,\r\n                loaderIndex[i].userAccess\r\n                );\r\n    }\r\n    function getLoaderCount() public view returns(uint)\r\n    {\r\n        return loaderIndex.length;\r\n    }\r\n    \r\n    // function updateUserEmail(address userAddress, bytes32 userEmail) public returns(bool success)\r\n    // {\r\n    //     userStructs[userAddress].userEmail = userEmail;\r\n    //     emit LogUpdateUser(userAddress,  userStructs[userAddress].index, userEmail, userStructs[userAddress].userAge);\r\n    //     return true;\r\n    // }\r\n    function updateLoaderName (string memory _email,string memory _name) public returns(bool success){\r\n        bytes32 _emailCode = keccak256(abi.encodePacked((_email)));\r\n        require(isLoader(_emailCode) == true,'user not in system');\r\n        loaderArray[_emailCode].name = _name;\r\n        loaderIndex[loaderArray[_emailCode].index].name = _name;\r\n        emit LogUpdateLoader(\r\n            _emailCode,\r\n            loaderArray[_emailCode].index,\r\n            _email,\r\n            loaderArray[_emailCode].passwordCode,\r\n            _name,\r\n            loaderArray[_emailCode].contactNumber,\r\n            loaderArray[_emailCode].userAddress,\r\n            loaderArray[_emailCode].userAccess\r\n            );\r\n        return true;\r\n    }\r\n    function updateLoaderAddress (string memory _email,string memory _userAddress) public returns(bool success){\r\n        bytes32 _emailCode = keccak256(abi.encodePacked((_email)));\r\n        require(isLoader(_emailCode) == true,'user not in system');\r\n        loaderArray[_emailCode].userAddress = _userAddress;\r\n        loaderIndex[loaderArray[_emailCode].index].userAddress = _userAddress;\r\n        emit LogUpdateLoader(\r\n            _emailCode,\r\n            loaderArray[_emailCode].index,\r\n            _email,\r\n            loaderArray[_emailCode].passwordCode,\r\n            loaderArray[_emailCode].name,\r\n            loaderArray[_emailCode].contactNumber,\r\n            _userAddress,\r\n            loaderArray[_emailCode].userAccess\r\n            );\r\n        return true;\r\n    }\r\n    function updateLoaderContactNumber (string memory _email,uint _contactNumber) public returns(bool success){\r\n        bytes32 _emailCode = keccak256(abi.encodePacked((_email)));\r\n        require(isLoader(_emailCode) == true,'user not in system');\r\n        loaderArray[_emailCode].contactNumber = _contactNumber;\r\n        loaderIndex[loaderArray[_emailCode].index].contactNumber = _contactNumber;\r\n        emit LogUpdateLoader(\r\n            _emailCode,\r\n            loaderArray[_emailCode].index,\r\n            _email,\r\n            loaderArray[_emailCode].passwordCode,\r\n            loaderArray[_emailCode].name,\r\n            _contactNumber,\r\n            loaderArray[_emailCode].userAddress,\r\n            loaderArray[_emailCode].userAccess\r\n            );\r\n        return true;\r\n    }\r\n    function updateLoader(\r\n        string memory _email,\r\n        uint[] memory index,\r\n        string memory _name,\r\n        string memory _userAddress,\r\n        uint _contactNumber\r\n        ) public returns(bool success){\r\n        bytes32 _emailCode = keccak256(abi.encodePacked((_email)));\r\n        require(isLoader(_emailCode) == true,'user not in system');\r\n        uint i;\r\n        uint num = loaderArray[_emailCode].index;\r\n\r\n        for (i = 0;i<index.length;i++){\r\n            if(index[i]==1){\r\n                loaderArray[_emailCode].name = _name;\r\n                loaderIndex[num].name = _name;\r\n                emit LogUpdateLoader(\r\n                    _emailCode,\r\n                    loaderArray[_emailCode].index,\r\n                    _email,loaderArray[_emailCode].passwordCode,\r\n                    _name,\r\n                    loaderArray[_emailCode].contactNumber,\r\n                    loaderArray[_emailCode].userAddress,\r\n                    loaderArray[_emailCode].userAccess\r\n                    );\r\n\r\n            }\r\n            else if(index[i]==2){\r\n                loaderArray[_emailCode].userAddress = _userAddress;\r\n\r\n                loaderIndex[num].userAddress = _userAddress;\r\n\r\n                emit LogUpdateLoader(\r\n                    _emailCode,\r\n                    loaderArray[_emailCode].index,\r\n                    _email,\r\n                    loaderArray[_emailCode].passwordCode,\r\n                    loaderArray[_emailCode].name,\r\n                    loaderArray[_emailCode].contactNumber,\r\n                    _userAddress,\r\n                    loaderArray[_emailCode].userAccess\r\n                    );\r\n\r\n            }\r\n            else if(index[i]==3){\r\n                loaderArray[_emailCode].contactNumber = _contactNumber;\r\n                loaderIndex[num].contactNumber = _contactNumber;\r\n                emit LogUpdateLoader(\r\n                    _emailCode,\r\n                    loaderArray[_emailCode].index,\r\n                    _email,\r\n                    loaderArray[_emailCode].passwordCode,\r\n                    loaderArray[_emailCode].name,\r\n                    _contactNumber,\r\n                    loaderArray[_emailCode].userAddress,\r\n                    loaderArray[_emailCode].userAccess\r\n                    );\r\n\r\n            }\r\n        }\r\n        return true;\r\n    }\r\n    ///////\r\n    function updateLoaderiEmail (string memory _email) public returns(bool success)\r\n    {\r\n       // return true;\r\n    }\r\n    function checkLoaderUserAccess(bytes32 email)public view returns(uint userAccess){\r\n        \r\n        return loaderArray[email].userAccess;\r\n    }\r\n    function checkLoaderPasswordCode(bytes32 email) public view returns(bytes32 passwordCode ){\r\n        return loaderArray[email].passwordCode;\r\n    }\r\n}",
  "sourcePath": "C:\\project\\tea supply chain mangement system\\test2\\contracts\\Loader.sol",
  "compiler": {
    "name": "solc",
    "version": "0.5.8+commit.23d335f2.Emscripten.clang"
  },
  "schemaVersion": "3.0.16",
  "updatedAt": "2020-01-13T03:30:36.552Z",
  "devdoc": {
    "methods": {}
  },
  "userdoc": {
    "methods": {
      "updateLoaderiEmail(string)": {
        "notice": "////"
      }
    }
  }
}