{
  "contractName": "Login",
  "abi": [
    {
      "constant": true,
      "inputs": [],
      "name": "adminc",
      "outputs": [
        {
          "name": "",
          "type": "address"
        }
      ],
      "payable": false,
      "stateMutability": "view",
      "type": "function"
    },
    {
      "constant": true,
      "inputs": [],
      "name": "distributorc",
      "outputs": [
        {
          "name": "",
          "type": "address"
        }
      ],
      "payable": false,
      "stateMutability": "view",
      "type": "function"
    },
    {
      "constant": true,
      "inputs": [],
      "name": "managerc",
      "outputs": [
        {
          "name": "",
          "type": "address"
        }
      ],
      "payable": false,
      "stateMutability": "view",
      "type": "function"
    },
    {
      "constant": true,
      "inputs": [],
      "name": "supervisorc",
      "outputs": [
        {
          "name": "",
          "type": "address"
        }
      ],
      "payable": false,
      "stateMutability": "view",
      "type": "function"
    },
    {
      "constant": true,
      "inputs": [],
      "name": "loaderc",
      "outputs": [
        {
          "name": "",
          "type": "address"
        }
      ],
      "payable": false,
      "stateMutability": "view",
      "type": "function"
    },
    {
      "inputs": [
        {
          "name": "ad",
          "type": "address"
        },
        {
          "name": "ma",
          "type": "address"
        },
        {
          "name": "dis",
          "type": "address"
        },
        {
          "name": "lo",
          "type": "address"
        },
        {
          "name": "su",
          "type": "address"
        }
      ],
      "payable": false,
      "stateMutability": "nonpayable",
      "type": "constructor"
    },
    {
      "constant": true,
      "inputs": [
        {
          "name": "_email",
          "type": "string"
        },
        {
          "name": "_password",
          "type": "string"
        },
        {
          "name": "_appId",
          "type": "uint256"
        }
      ],
      "name": "login",
      "outputs": [
        {
          "name": "",
          "type": "bool"
        }
      ],
      "payable": false,
      "stateMutability": "view",
      "type": "function"
    },
    {
      "constant": true,
      "inputs": [
        {
          "name": "_email",
          "type": "string"
        },
        {
          "name": "token",
          "type": "bytes32"
        },
        {
          "name": "_appId",
          "type": "uint256"
        }
      ],
      "name": "registation",
      "outputs": [
        {
          "name": "",
          "type": "bool"
        },
        {
          "name": "",
          "type": "uint256"
        }
      ],
      "payable": false,
      "stateMutability": "view",
      "type": "function"
    },
    {
      "constant": true,
      "inputs": [
        {
          "name": "_email",
          "type": "string"
        },
        {
          "name": "_appId",
          "type": "uint256"
        }
      ],
      "name": "frogetPassword",
      "outputs": [
        {
          "name": "",
          "type": "bool"
        },
        {
          "name": "",
          "type": "uint256"
        }
      ],
      "payable": false,
      "stateMutability": "view",
      "type": "function"
    },
    {
      "constant": true,
      "inputs": [
        {
          "name": "_email",
          "type": "string"
        },
        {
          "name": "token",
          "type": "bytes32"
        },
        {
          "name": "_appId",
          "type": "uint256"
        }
      ],
      "name": "resetPassword",
      "outputs": [
        {
          "name": "",
          "type": "bool"
        },
        {
          "name": "",
          "type": "uint256"
        }
      ],
      "payable": false,
      "stateMutability": "view",
      "type": "function"
    }
  ],
  "bytecode": "0x608060405234801561001057600080fd5b5060405160a080613094833981018060405260a081101561003057600080fd5b508051602082015160408301516060840151608090940151600280546001600160a01b039586166001600160a01b03199182168117909255600180549587169582168617905560008054948716948216851790556003805497871697821688179055600480549690931695811686179092556005805483169091179055600680548216909317909255600780548316909117905560088054821690931790925560098054909216179055612fab806100e96000396000f3fe608060405234801561001057600080fd5b50600436106100935760003560e01c8063861ebb9111610066578063861ebb911461036557806386a14c2f1461040e578063c4b4051a14610416578063dd128d591461041e578063f2252f981461042657610093565b806302d256ca1461009857806325260174146101595780635244df2c14610202578063651cbbc714610226575b600080fd5b61013e600480360360408110156100ae57600080fd5b810190602081018135600160201b8111156100c857600080fd5b8201836020820111156100da57600080fd5b803590602001918460018302840111600160201b831117156100fb57600080fd5b91908080601f016020809104026020016040519081016040528093929190818152602001838380828437600092019190915250929550509135925061042e915050565b60408051921515835260208301919091528051918290030190f35b61013e6004803603606081101561016f57600080fd5b810190602081018135600160201b81111561018957600080fd5b82018360208201111561019b57600080fd5b803590602001918460018302840111600160201b831117156101bc57600080fd5b91908080601f0160208091040260200160405190810160405280939291908181526020018383808284376000920191909152509295505082359350505060200135610d19565b61020a611af5565b604080516001600160a01b039092168252519081900360200190f35b6103516004803603606081101561023c57600080fd5b810190602081018135600160201b81111561025657600080fd5b82018360208201111561026857600080fd5b803590602001918460018302840111600160201b8311171561028957600080fd5b91908080601f0160208091040260200160405190810160405280939291908181526020018383808284376000920191909152509295949360208101935035915050600160201b8111156102db57600080fd5b8201836020820111156102ed57600080fd5b803590602001918460018302840111600160201b8311171561030e57600080fd5b91908080601f0160208091040260200160405190810160405280939291908181526020018383808284376000920191909152509295505091359250611b04915050565b604080519115158252519081900360200190f35b61013e6004803603606081101561037b57600080fd5b810190602081018135600160201b81111561039557600080fd5b8201836020820111156103a757600080fd5b803590602001918460018302840111600160201b831117156103c857600080fd5b91908080601f01602080910402602001604051908101604052809392919081815260200183838082843760009201919091525092955050823593505050602001356126bb565b61020a612ec1565b61020a612ed0565b61020a612edf565b61020a612eee565b6000806000846040516020018082805190602001908083835b602083106104665780518252601f199092019160209182019101610447565b6001836020036101000a038019825116818451168082178552505050505050905001915050604051602081830303815290604052805190602001209050600084600114156108335760025460408051600160e71b62e5a2890281526004810185905290516001600160a01b03909216916372d1448091602480820192602092909190829003018186803b1580156104fc57600080fd5b505afa158015610510573d6000803e3d6000fd5b505050506040513d602081101561052657600080fd5b5051156106485760025460408051600160e51b63044d21090281526004810185905290516001600160a01b03909216916389a4212091602480820192602092909190829003018186803b15801561057c57600080fd5b505afa158015610590573d6000803e3d6000fd5b505050506040513d60208110156105a657600080fd5b5051905060018114156105f15760408051600160e51b62461bcd02815260206004820152601f6024820152600080516020612f1e833981519152604482015290519081900360640190fd5b80600214156106385760408051600160e51b62461bcd02815260206004820152601c6024820152600080516020612efe833981519152604482015290519081900360640190fd5b5060019250600b9150610d129050565b60015460408051600160e01b63a952fab30281526004810185905290516001600160a01b039092169163a952fab391602480820192602092909190829003018186803b15801561069757600080fd5b505afa1580156106ab573d6000803e3d6000fd5b505050506040513d60208110156106c157600080fd5b5051156107e35760015460408051600160e21b6308f510990281526004810185905290516001600160a01b03909216916323d4426491602480820192602092909190829003018186803b15801561071757600080fd5b505afa15801561072b573d6000803e3d6000fd5b505050506040513d602081101561074157600080fd5b50519050600181141561078c5760408051600160e51b62461bcd02815260206004820152601f6024820152600080516020612f1e833981519152604482015290519081900360640190fd5b80600214156107d35760408051600160e51b62461bcd02815260206004820152601c6024820152600080516020612efe833981519152604482015290519081900360640190fd5b5060019250600c9150610d129050565b60408051600160e51b62461bcd02815260206004820152601860248201527f646f73656e2774206d61637468207468697320656d61696c0000000000000000604482015290519081900360640190fd5b8460021415610b6e5760035460408051600160e01b630bfab7e90281526004810185905290516001600160a01b0390921691630bfab7e991602480820192602092909190829003018186803b15801561088b57600080fd5b505afa15801561089f573d6000803e3d6000fd5b505050506040513d60208110156108b557600080fd5b5051156109d75760035460408051600160e01b63ec440dbd0281526004810185905290516001600160a01b039092169163ec440dbd91602480820192602092909190829003018186803b15801561090b57600080fd5b505afa15801561091f573d6000803e3d6000fd5b505050506040513d602081101561093557600080fd5b5051905060018114156109805760408051600160e51b62461bcd02815260206004820152601f6024820152600080516020612f1e833981519152604482015290519081900360640190fd5b80600214156109c75760408051600160e51b62461bcd02815260206004820152601c6024820152600080516020612efe833981519152604482015290519081900360640190fd5b506001925060159150610d129050565b6004805460408051600160e41b630a0e1629028152928301859052516001600160a01b039091169163a0e16290916024808301926020929190829003018186803b158015610a2457600080fd5b505afa158015610a38573d6000803e3d6000fd5b505050506040513d6020811015610a4e57600080fd5b5051156107e3576004805460408051600160e11b6361e6992d028152928301859052516001600160a01b039091169163c3cd325a916024808301926020929190829003018186803b158015610aa257600080fd5b505afa158015610ab6573d6000803e3d6000fd5b505050506040513d6020811015610acc57600080fd5b505190506001811415610b175760408051600160e51b62461bcd02815260206004820152601f6024820152600080516020612f1e833981519152604482015290519081900360640190fd5b8060021415610b5e5760408051600160e51b62461bcd02815260206004820152601c6024820152600080516020612efe833981519152604482015290519081900360640190fd5b506001925060169150610d129050565b84600314156107e35760005460408051600160e01b63ea0fd49b0281526004810185905290516001600160a01b039092169163ea0fd49b91602480820192602092909190829003018186803b158015610bc657600080fd5b505afa158015610bda573d6000803e3d6000fd5b505050506040513d6020811015610bf057600080fd5b5051156107e35760005460408051600160e11b63123fd8a10281526004810185905290516001600160a01b039092169163247fb14291602480820192602092909190829003018186803b158015610c4657600080fd5b505afa158015610c5a573d6000803e3d6000fd5b505050506040513d6020811015610c7057600080fd5b505190506001811415610cbb5760408051600160e51b62461bcd02815260206004820152601f6024820152600080516020612f1e833981519152604482015290519081900360640190fd5b8060021415610d025760408051600160e51b62461bcd02815260206004820152601c6024820152600080516020612efe833981519152604482015290519081900360640190fd5b5060019250601f9150610d129050565b9250929050565b6000806000856040516020018082805190602001908083835b60208310610d515780518252601f199092019160209182019101610d32565b6001836020036101000a038019825116818451168082178552505050505050905001915050604051602081830303815290604052805190602001209050600084600114156113605760025460408051600160e71b62e5a2890281526004810185905290516001600160a01b03909216916372d1448091602480820192602092909190829003018186803b158015610de757600080fd5b505afa158015610dfb573d6000803e3d6000fd5b505050506040513d6020811015610e1157600080fd5b5051156110655760025460408051600160e51b63044d21090281526004810185905290516001600160a01b03909216916389a4212091602480820192602092909190829003018186803b158015610e6757600080fd5b505afa158015610e7b573d6000803e3d6000fd5b505050506040513d6020811015610e9157600080fd5b505190506004811415610edc5760408051600160e51b62461bcd02815260206004820152601b6024820152600080516020612f60833981519152604482015290519081900360640190fd5b8060031415610f1f57604051600160e51b62461bcd028152600401808060200182810382526022815260200180612f3e6022913960400191505060405180910390fd5b60025460408051600160e21b6317141dc702815260248101899052600481019182528951604482015289516001600160a01b0390931692635c50771c928b928b92829160640190602086019080838360005b83811015610f89578181015183820152602001610f71565b50505050905090810190601f168015610fb65780820380516001836020036101000a031916815260200191505b50935050505060206040518083038186803b158015610fd457600080fd5b505afa158015610fe8573d6000803e3d6000fd5b505050506040513d6020811015610ffe57600080fd5b505115611015575060019250600b9150611aed9050565b60408051600160e51b62461bcd02815260206004820152601060248201527f746f6b656e20697320696e76616c696400000000000000000000000000000000604482015290519081900360640190fd5b60015460408051600160e01b63a952fab30281526004810185905290516001600160a01b039092169163a952fab391602480820192602092909190829003018186803b1580156110b457600080fd5b505afa1580156110c8573d6000803e3d6000fd5b505050506040513d60208110156110de57600080fd5b5051156107e35760015460408051600160e21b6308f510990281526004810185905290516001600160a01b03909216916323d4426491602480820192602092909190829003018186803b15801561113457600080fd5b505afa158015611148573d6000803e3d6000fd5b505050506040513d602081101561115e57600080fd5b505160015460408051600160e21b6308f510990281526004810186905290519293506001600160a01b03909116916323d4426491602480820192602092909190829003018186803b1580156111b257600080fd5b505afa1580156111c6573d6000803e3d6000fd5b505050506040513d60208110156111dc57600080fd5b5051905060048114156112275760408051600160e51b62461bcd02815260206004820152601b6024820152600080516020612f60833981519152604482015290519081900360640190fd5b806003141561126a57604051600160e51b62461bcd028152600401808060200182810382526022815260200180612f3e6022913960400191505060405180910390fd5b60015460408051600160e11b637b9f7ee902815260248101899052600481019182528951604482015289516001600160a01b039093169263f73efdd2928b928b92829160640190602086019080838360005b838110156112d45781810151838201526020016112bc565b50505050905090810190601f1680156113015780820380516001836020036101000a031916815260200191505b50935050505060206040518083038186803b15801561131f57600080fd5b505afa158015611333573d6000803e3d6000fd5b505050506040513d602081101561134957600080fd5b505115611015575060019250600c9150611aed9050565b84600214156118615760035460408051600160e01b630bfab7e90281526004810185905290516001600160a01b0390921691630bfab7e991602480820192602092909190829003018186803b1580156113b857600080fd5b505afa1580156113cc573d6000803e3d6000fd5b505050506040513d60208110156113e257600080fd5b5051156115e65760035460408051600160e01b63ec440dbd0281526004810185905290516001600160a01b039092169163ec440dbd91602480820192602092909190829003018186803b15801561143857600080fd5b505afa15801561144c573d6000803e3d6000fd5b505050506040513d602081101561146257600080fd5b5051905060048114156114ad5760408051600160e51b62461bcd02815260206004820152601b6024820152600080516020612f60833981519152604482015290519081900360640190fd5b80600314156114f057604051600160e51b62461bcd028152600401808060200182810382526022815260200180612f3e6022913960400191505060405180910390fd5b60035460408051600160e11b63236ddd8902815260248101899052600481019182528951604482015289516001600160a01b03909316926346dbbb12928b928b92829160640190602086019080838360005b8381101561155a578181015183820152602001611542565b50505050905090810190601f1680156115875780820380516001836020036101000a031916815260200191505b50935050505060206040518083038186803b1580156115a557600080fd5b505afa1580156115b9573d6000803e3d6000fd5b505050506040513d60208110156115cf57600080fd5b50511561101557506001925060159150611aed9050565b6004805460408051600160e41b630a0e1629028152928301859052516001600160a01b039091169163a0e16290916024808301926020929190829003018186803b15801561163357600080fd5b505afa158015611647573d6000803e3d6000fd5b505050506040513d602081101561165d57600080fd5b5051156107e3576004805460408051600160e11b6361e6992d028152928301859052516001600160a01b039091169163c3cd325a916024808301926020929190829003018186803b1580156116b157600080fd5b505afa1580156116c5573d6000803e3d6000fd5b505050506040513d60208110156116db57600080fd5b5051905060048114156117265760408051600160e51b62461bcd02815260206004820152601b6024820152600080516020612f60833981519152604482015290519081900360640190fd5b806003141561176957604051600160e51b62461bcd028152600401808060200182810382526022815260200180612f3e6022913960400191505060405180910390fd5b6004805460408051600160e01b63b247bb2f028152602481018a90529283019081528951604484015289516001600160a01b039092169263b247bb2f928b928b929091829160640190602086019080838360005b838110156117d55781810151838201526020016117bd565b50505050905090810190601f1680156118025780820380516001836020036101000a031916815260200191505b50935050505060206040518083038186803b15801561182057600080fd5b505afa158015611834573d6000803e3d6000fd5b505050506040513d602081101561184a57600080fd5b50511561101557506001925060169150611aed9050565b84600314156107e35760005460408051600160e01b63ea0fd49b0281526004810185905290516001600160a01b039092169163ea0fd49b91602480820192602092909190829003018186803b1580156118b957600080fd5b505afa1580156118cd573d6000803e3d6000fd5b505050506040513d60208110156118e357600080fd5b5051156107e35760005460408051600160e11b63123fd8a10281526004810185905290516001600160a01b039092169163247fb14291602480820192602092909190829003018186803b15801561193957600080fd5b505afa15801561194d573d6000803e3d6000fd5b505050506040513d602081101561196357600080fd5b5051905060048114156119ae5760408051600160e51b62461bcd02815260206004820152601b6024820152600080516020612f60833981519152604482015290519081900360640190fd5b80600314156119f157604051600160e51b62461bcd028152600401808060200182810382526022815260200180612f3e6022913960400191505060405180910390fd5b6000805460408051600160e01b63c7f970ff028152602481018a9052600481019182528a5160448201528a516001600160a01b039093169363c7f970ff938c938c939092839260649092019160208701918190849084905b83811015611a61578181015183820152602001611a49565b50505050905090810190601f168015611a8e5780820380516001836020036101000a031916815260200191505b50935050505060206040518083038186803b158015611aac57600080fd5b505afa158015611ac0573d6000803e3d6000fd5b505050506040513d6020811015611ad657600080fd5b505115611015575060019250601f9150611aed9050565b935093915050565b6002546001600160a01b031681565b600080846040516020018082805190602001908083835b60208310611b3a5780518252601f199092019160209182019101611b1b565b6001836020036101000a0380198251168184511680821785525050505050509050019150506040516020818303038152906040528051906020012090506000846040516020018082805190602001908083835b60208310611bac5780518252601f199092019160209182019101611b8d565b6001836020036101000a038019825116818451168082178552505050505050905001915050604051602081830303815290604052805190602001209050600081831415611bff57600193505050506126b4565b84600114156121165760025460408051600160e71b62e5a2890281526004810186905290516001600160a01b03909216916372d1448091602480820192602092909190829003018186803b158015611c5657600080fd5b505afa158015611c6a573d6000803e3d6000fd5b505050506040513d6020811015611c8057600080fd5b505115611f3c5760025460408051600160e51b63044d21090281526004810186905290516001600160a01b03909216916389a4212091602480820192602092909190829003018186803b158015611cd657600080fd5b505afa158015611cea573d6000803e3d6000fd5b505050506040513d6020811015611d0057600080fd5b505190506001811415611d4b5760408051600160e51b62461bcd02815260206004820152601f6024820152600080516020612f1e833981519152604482015290519081900360640190fd5b8060021415611d925760408051600160e51b62461bcd02815260206004820152601c6024820152600080516020612efe833981519152604482015290519081900360640190fd5b60025460408051600160e01b63e4fa3a930281526004810186905290516000926001600160a01b03169163e4fa3a93916024808301926020929190829003018186803b158015611de157600080fd5b505afa158015611df5573d6000803e3d6000fd5b505050506040513d6020811015611e0b57600080fd5b5051905082811415611eec578160051415611e2d5760019450505050506126b4565b8160031415611e865760408051600160e51b62461bcd02815260206004820181905260248201527f757365722074656d706f727920626c6f636b20696e207468652073797374656d604482015290519081900360640190fd5b8160041415611edf5760408051600160e51b62461bcd02815260206004820152601860248201527f757365722064656c657465642066726f6d2073797374656d0000000000000000604482015290519081900360640190fd5b60009450505050506126b4565b60408051600160e51b62461bcd02815260206004820152601b60248201527f646f73656e2774206d6163746820746869732070617373776f72640000000000604482015290519081900360640190fd5b60015460408051600160e01b63a952fab30281526004810186905290516001600160a01b039092169163a952fab391602480820192602092909190829003018186803b158015611f8b57600080fd5b505afa158015611f9f573d6000803e3d6000fd5b505050506040513d6020811015611fb557600080fd5b5051156107e35760015460408051600160e21b6308f510990281526004810186905290516001600160a01b03909216916323d4426491602480820192602092909190829003018186803b15801561200b57600080fd5b505afa15801561201f573d6000803e3d6000fd5b505050506040513d602081101561203557600080fd5b5051905060018114156120805760408051600160e51b62461bcd02815260206004820152601f6024820152600080516020612f1e833981519152604482015290519081900360640190fd5b80600214156120c75760408051600160e51b62461bcd02815260206004820152601c6024820152600080516020612efe833981519152604482015290519081900360640190fd5b60015460408051600160e11b63570207f50281526004810186905290516000926001600160a01b03169163ae040fea916024808301926020929190829003018186803b158015611de157600080fd5b84600214156124d05760035460408051600160e01b630bfab7e90281526004810186905290516001600160a01b0390921691630bfab7e991602480820192602092909190829003018186803b15801561216e57600080fd5b505afa158015612182573d6000803e3d6000fd5b505050506040513d602081101561219857600080fd5b5051156122f95760035460408051600160e01b63ec440dbd0281526004810186905290516001600160a01b039092169163ec440dbd91602480820192602092909190829003018186803b1580156121ee57600080fd5b505afa158015612202573d6000803e3d6000fd5b505050506040513d602081101561221857600080fd5b5051905060018114156122635760408051600160e51b62461bcd02815260206004820152601f6024820152600080516020612f1e833981519152604482015290519081900360640190fd5b80600214156122aa5760408051600160e51b62461bcd02815260206004820152601c6024820152600080516020612efe833981519152604482015290519081900360640190fd5b60035460408051600160e01b63d8264a050281526004810186905290516000926001600160a01b03169163d8264a05916024808301926020929190829003018186803b158015611de157600080fd5b6004805460408051600160e41b630a0e1629028152928301869052516001600160a01b039091169163a0e16290916024808301926020929190829003018186803b15801561234657600080fd5b505afa15801561235a573d6000803e3d6000fd5b505050506040513d602081101561237057600080fd5b5051156107e3576004805460408051600160e11b6361e6992d028152928301869052516001600160a01b039091169163c3cd325a916024808301926020929190829003018186803b1580156123c457600080fd5b505afa1580156123d8573d6000803e3d6000fd5b505050506040513d60208110156123ee57600080fd5b5051905060018114156124395760408051600160e51b62461bcd02815260206004820152601f6024820152600080516020612f1e833981519152604482015290519081900360640190fd5b80600214156124805760408051600160e51b62461bcd02815260206004820152601c6024820152600080516020612efe833981519152604482015290519081900360640190fd5b6004805460408051600160e01b6389cda3dd028152928301869052516000926001600160a01b03909216916389cda3dd916024808301926020929190829003018186803b158015611de157600080fd5b8460031415611eec5760005460408051600160e01b63ea0fd49b0281526004810186905290516001600160a01b039092169163ea0fd49b91602480820192602092909190829003018186803b15801561252857600080fd5b505afa15801561253c573d6000803e3d6000fd5b505050506040513d602081101561255257600080fd5b5051156107e35760005460408051600160e11b63123fd8a10281526004810186905290516001600160a01b039092169163247fb14291602480820192602092909190829003018186803b1580156125a857600080fd5b505afa1580156125bc573d6000803e3d6000fd5b505050506040513d60208110156125d257600080fd5b50519050600181141561261d5760408051600160e51b62461bcd02815260206004820152601f6024820152600080516020612f1e833981519152604482015290519081900360640190fd5b80600214156126645760408051600160e51b62461bcd02815260206004820152601c6024820152600080516020612efe833981519152604482015290519081900360640190fd5b6000805460408051600160e01b635d4b3b7f0281526004810187905290516001600160a01b0390921691635d4b3b7f91602480820192602092909190829003018186803b158015611de157600080fd5b9392505050565b6000806000856040516020018082805190602001908083835b602083106126f35780518252601f1990920191602091820191016126d4565b6001836020036101000a03801982511681845116808217855250505050505090500191505060405160208183030381529060405280519060200120905060008460011415612a645760025460408051600160e71b62e5a2890281526004810185905290516001600160a01b03909216916372d1448091602480820192602092909190829003018186803b15801561278957600080fd5b505afa15801561279d573d6000803e3d6000fd5b505050506040513d60208110156127b357600080fd5b5051156128f75760025460408051600160e51b63044d21090281526004810185905290516001600160a01b03909216916389a4212091602480820192602092909190829003018186803b15801561280957600080fd5b505afa15801561281d573d6000803e3d6000fd5b505050506040513d602081101561283357600080fd5b5051905060018114156128a75760025460408051600160e21b6317141dc702815260248101899052600481019182528951604482015289516001600160a01b0390931692635c50771c928b928b92829160640190602086019080838360008315610f89578181015183820152602001610f71565b60408051600160e51b62461bcd02815260206004820152601360248201527f7573657220416c6c72656479207369676e757000000000000000000000000000604482015290519081900360640190fd5b60015460408051600160e01b63a952fab30281526004810185905290516001600160a01b039092169163a952fab391602480820192602092909190829003018186803b15801561294657600080fd5b505afa15801561295a573d6000803e3d6000fd5b505050506040513d602081101561297057600080fd5b5051156107e35760015460408051600160e21b6308f510990281526004810185905290516001600160a01b03909216916323d4426491602480820192602092909190829003018186803b1580156129c657600080fd5b505afa1580156129da573d6000803e3d6000fd5b505050506040513d60208110156129f057600080fd5b5051905060018114156128a75760015460408051600160e11b637b9f7ee902815260248101899052600481019182528951604482015289516001600160a01b039093169263f73efdd2928b928b928291606401906020860190808383600083156112d45781810151838201526020016112bc565b8460021415612d455760035460408051600160e01b630bfab7e90281526004810185905290516001600160a01b0390921691630bfab7e991602480820192602092909190829003018186803b158015612abc57600080fd5b505afa158015612ad0573d6000803e3d6000fd5b505050506040513d6020811015612ae657600080fd5b505115612bda5760035460408051600160e01b63ec440dbd0281526004810185905290516001600160a01b039092169163ec440dbd91602480820192602092909190829003018186803b158015612b3c57600080fd5b505afa158015612b50573d6000803e3d6000fd5b505050506040513d6020811015612b6657600080fd5b5051905060018114156128a75760035460408051600160e11b63236ddd8902815260248101899052600481019182528951604482015289516001600160a01b03909316926346dbbb12928b928b9282916064019060208601908083836000831561155a578181015183820152602001611542565b6004805460408051600160e41b630a0e1629028152928301859052516001600160a01b039091169163a0e16290916024808301926020929190829003018186803b158015612c2757600080fd5b505afa158015612c3b573d6000803e3d6000fd5b505050506040513d6020811015612c5157600080fd5b5051156107e3576004805460408051600160e11b6361e6992d028152928301859052516001600160a01b039091169163c3cd325a916024808301926020929190829003018186803b158015612ca557600080fd5b505afa158015612cb9573d6000803e3d6000fd5b505050506040513d6020811015612ccf57600080fd5b5051905060018114156128a7576004805460408051600160e01b63b247bb2f028152602481018a90529283019081528951604484015289516001600160a01b039092169263b247bb2f928b928b9290918291606401906020860190808383600083156117d55781810151838201526020016117bd565b84600314156107e35760005460408051600160e01b63ea0fd49b0281526004810185905290516001600160a01b039092169163ea0fd49b91602480820192602092909190829003018186803b158015612d9d57600080fd5b505afa158015612db1573d6000803e3d6000fd5b505050506040513d6020811015612dc757600080fd5b5051156107e35760005460408051600160e11b63123fd8a10281526004810185905290516001600160a01b039092169163247fb14291602480820192602092909190829003018186803b158015612e1d57600080fd5b505afa158015612e31573d6000803e3d6000fd5b505050506040513d6020811015612e4757600080fd5b5051905060018114156128a7576000805460408051600160e01b63c7f970ff028152602481018a9052600481019182528a5160448201528a516001600160a01b039093169363c7f970ff938c938c939092839260649092019160208701918190849084908315611a61578181015183820152602001611a49565b6000546001600160a01b031681565b6001546001600160a01b031681565b6004546001600160a01b031681565b6003546001600160a01b03168156fe75736572206e6f7420636f6e6669726d20746869657220656d61696c0000000075736572206e6f7420726567697374657220696e207468652073797374656d00757365722074656d706f727920626c6f636b2066726f6d207468652073797374656d757365722072656d6f76652066726f6d207468652073797374656d0000000000a165627a7a72305820b3697e18607232c58aa39a419aaf15ca161a4d7816ca881f3598925e385931f20029",
  "source": "pragma solidity >=0.4.21 <0.6.0;\r\n\r\nimport \"./Admin.sol\";\r\nimport \"./Manager.sol\";\r\nimport \"./Distributor.sol\";\r\nimport \"./Loader.sol\";\r\nimport \"./Supervisor.sol\";\r\n\r\ncontract Login {\r\n    DistributorContract public distributorc;\r\n    ManagerContract public managerc;\r\n    AdminContract public adminc;\r\n    LoaderContract public loaderc;\r\n    SupervisorContract public supervisorc;\r\n    address ada;\r\n    address maa;\r\n    address disa;\r\n    address loa;\r\n    address sua;\r\n    constructor(address ad,address ma,address dis,address lo,address su) public {\r\n        adminc = AdminContract(ad);\r\n        managerc = ManagerContract(ma);\r\n        distributorc = DistributorContract(dis);\r\n        loaderc = LoaderContract(lo);\r\n        supervisorc = SupervisorContract(su);\r\n        ada = ad;\r\n        maa = ma;\r\n        disa = dis;\r\n        loa = lo;\r\n        sua = su;\r\n    }\r\n    // struct Packet{\r\n    //     uint packetId;\r\n    //     uint boxId;\r\n    //     uint productId;\r\n    //     uint rate;\r\n    // }\r\n    // struct Box{\r\n    //     uint boxtId;\r\n    //     uint containerId;\r\n    //     uint orderId;\r\n    //     uint[] distributorIndex;\r\n    //     uint256[]  time;\r\n    // }\r\n    // struct Container{\r\n    //     uint containerId;\r\n    //     uint orderId;\r\n    //     uint rate;\r\n    //     uint[] distributorIndex;\r\n    //     uint256[]  time;\r\n    // }\r\n    // struct Order{\r\n    //     uint packetId;\r\n    //     uint orderId;\r\n    // }\r\n    // struct Product{\r\n    //     uint packetId;\r\n    //     uint orderId;\r\n    //     uint rate;\r\n\r\n    // }\r\n    // struct Estate{\r\n    //     uint packetId;\r\n    //     uint orderId;\r\n    //     uint rate;\r\n\r\n    // }\r\n\r\n    // struct Manager{\r\n    //     string email;\r\n    //     string firstName;\r\n    //     string lastName;\r\n    //     uint userType;\r\n    //     bool userAccess;\r\n    // }\r\n    // struct Worker{\r\n    //     string email;\r\n    //     string firstName;\r\n    //     string lastName;\r\n    //     uint userType;\r\n    //     bool userAccess;\r\n    // }\r\n    // struct Distributor{\r\n    //     string email;\r\n    //     string firstName;\r\n    //     string lastName;\r\n    //     string location;\r\n    //     string countryIsoCode;\r\n    //     uint userType;\r\n    //     bool userAccess;\r\n\r\n    // }\r\n\r\n    // function scanDistributor(/*uint64 _boxtId,uint64 _distributorId*/)public pure returns(bool){\r\n    //     // first map packet id and get packet location\r\n    //     // second we store distributor id in box distributors array\r\n    //     return true;\r\n    // }\r\n\r\n    // function scanPacket(/*uint64 _packetId*/)public pure returns(/* packetdtail*//*supply chin */bool){\r\n    //     return true;\r\n    // }\r\n\r\n    function login(string memory _email,string memory _password,uint _appId)public view returns(bool){\r\n\r\n        bytes32 email = keccak256(abi.encodePacked((_email)));\r\n        bytes32 password = keccak256(abi.encodePacked((_password)));\r\n        uint userAccess;\r\n        if(email == password){\r\n            return true;\r\n        }\r\n\r\n        if(_appId==1){\r\n            if(adminc.isAdmin(email)){\r\n                userAccess = adminc.checkAdminUserAccess(email);\r\n                require(!(userAccess == 1), \"user not register in the system\");\r\n                require(!(userAccess == 2),\"user not confirm thier email\");\r\n                bytes32 passwordCode = adminc.checkAdminPasswordCode(email);\r\n                if(passwordCode == password ){\r\n                    if(userAccess == 5){\r\n                        return true;\r\n                    }else{\r\n                        require(!(userAccess == 3),\"user tempory block in the system\");\r\n                        require(!(userAccess == 4),\"user deleted from system\");\r\n                        return false;\r\n                    }\r\n                } else {\r\n                    require(false,\"dosen't macth this password\");\r\n                    return false;\r\n                }\r\n            } else if(managerc.isManager(email)){\r\n                userAccess = managerc.checkManagerUserAccess(email);\r\n                require(!(userAccess == 1),\"user not register in the system\");\r\n                require(!(userAccess == 2),\"user not confirm thier email\");\r\n                bytes32 passwordCode = managerc.checkManagerPasswordCode(email);\r\n                if(passwordCode == password ){\r\n                    if(userAccess == 5){\r\n                        return true;\r\n                    }else{\r\n                        require(!(userAccess == 3),\"user tempory block in the system\");\r\n                        require(!(userAccess == 4),\"user deleted from system\");\r\n                        return false;\r\n                    }\r\n                } else {\r\n                    require(false,\"dosen't macth this password\");\r\n                    return false;\r\n                }\r\n            } else {\r\n                require(false,\"dosen't macth this email\");\r\n            }\r\n        }\r\n        else if(_appId==2){\r\n            if(loaderc.isLoader(email)){\r\n                userAccess = loaderc.checkLoaderUserAccess(email);\r\n                require(!(userAccess == 1), \"user not register in the system\");\r\n                require(!(userAccess == 2),\"user not confirm thier email\");\r\n                bytes32 passwordCode = loaderc.checkLoaderPasswordCode(email);\r\n                if(passwordCode == password ){\r\n                    if(userAccess == 5){\r\n                        return true;\r\n                    }else{\r\n                        require(!(userAccess == 3),\"user tempory block in the system\");\r\n                        require(!(userAccess == 4),\"user deleted from system\");\r\n                        return false;\r\n                    }\r\n                } else {\r\n                    require(false,\"dosen't macth this password\");\r\n                    return false;\r\n                }\r\n            } else if(supervisorc.isSupervisor(email)){\r\n                userAccess = supervisorc.checkSupervisorUserAccess(email);\r\n                require(!(userAccess == 1),\"user not register in the system\");\r\n                require(!(userAccess == 2),\"user not confirm thier email\");\r\n                bytes32 passwordCode = supervisorc.checkSupervisorPasswordCode(email);\r\n                if(passwordCode == password ){\r\n                    if(userAccess == 5){\r\n                        return true;\r\n                    }else{\r\n                        require(!(userAccess == 3),\"user tempory block in the system\");\r\n                        require(!(userAccess == 4),\"user deleted from system\");\r\n                        return false;\r\n                    }\r\n                } else {\r\n                    require(false,\"dosen't macth this password\");\r\n                    return false;\r\n                }\r\n            } else {\r\n                require(false,\"dosen't macth this email\");\r\n            }\r\n        }\r\n        else if(_appId == 3){\r\n            if(distributorc.isDistributor(email)){\r\n                userAccess = distributorc.checkDistributorUserAccess(email);\r\n                require(!(userAccess == 1), \"user not register in the system\");\r\n                require(!(userAccess == 2),\"user not confirm thier email\");\r\n                bytes32 passwordCode = distributorc.checkDistributorPasswordCode(email);\r\n                if(passwordCode == password ){\r\n                    if(userAccess == 5){\r\n                        return true;\r\n                    }else{\r\n                        require(!(userAccess == 3),\"user tempory block in the system\");\r\n                        require(!(userAccess == 4),\"user deleted from system\");\r\n                        return false;\r\n                    }\r\n                } else {\r\n                    require(false,\"dosen't macth this password\");\r\n                    return false;\r\n                }\r\n            } else {\r\n                require(false,\"dosen't macth this email\");\r\n            }\r\n        }\r\n        else{\r\n            require(false,\"dosen't macth this password\");\r\n        }\r\n    }\r\n\r\n    //mapping(address => UserStruct) private userStructs;\r\n    //address[] private adminIndex;\r\n\r\n    //\r\n    //  mapping(uint => Box) public boxes;\r\n    //  mapping(uint => Packet) public packets;\r\n\r\n\r\n    // event LogNewUser(address indexed userAddress, uint index, bytes32 userEmail, uint userAge);\r\n    // event LogUpdateUser(address indexed userAddress, uint index, bytes32 userEmail, uint userAge);\r\n\r\n\r\n/////////////////////////\r\n    ///\r\n    function registation(string memory _email,bytes32 token,uint _appId) public view returns(bool,uint) {\r\n       bytes32 email = keccak256(abi.encodePacked((_email)));\r\n        uint userAccess;\r\n        if(_appId==1){\r\n            if(adminc.isAdmin(email)){\r\n                userAccess = adminc.checkAdminUserAccess(email);\r\n                if(userAccess == 1) {\r\n                    if(adminc.checkAdminToken(_email,token)){\r\n                       return (true,11);\r\n                    } else{\r\n                        require(false,\"token is invalid\");\r\n                    }\r\n                }else{\r\n                    require(false,\"user Allredy signup\");\r\n                }\r\n            } else if(managerc.isManager(email)){\r\n                userAccess = managerc.checkManagerUserAccess(email);\r\n                if(userAccess == 1) {\r\n                    if(managerc.checkManagerToken(_email,token)){\r\n                        return (true,12);\r\n                    } else{\r\n                        require(false,\"token is invalid\");\r\n                    }\r\n                }else{\r\n                    require(false,\"user Allredy signup\");\r\n                }\r\n            } else {\r\n                require(false,\"dosen't macth this email\");\r\n            }\r\n        }\r\n        else if(_appId==2){\r\n            if(loaderc.isLoader(email)){\r\n                userAccess = loaderc.checkLoaderUserAccess(email);\r\n                if(userAccess == 1) {\r\n                    if(loaderc.checkLoaderToken(_email,token)){\r\n                         return (true,21);\r\n                    } else{\r\n                        require(false,\"token is invalid\");\r\n                    }\r\n                }else{\r\n                    require(false,\"user Allredy signup\");\r\n                }\r\n            } else if(supervisorc.isSupervisor(email)){\r\n                userAccess = supervisorc.checkSupervisorUserAccess(email);\r\n                if(userAccess == 1) {\r\n                    if(supervisorc.checkSupervisorToken(_email,token)){\r\n                         return (true,22);\r\n                    } else{\r\n                        require(false,\"token is invalid\");\r\n                    }\r\n                }else{\r\n                    require(false,\"user Allredy signup\");\r\n                }\r\n            } else {\r\n                require(false,\"dosen't macth this email\");\r\n            }\r\n        }\r\n        else if(_appId == 3){\r\n            if(distributorc.isDistributor(email)){\r\n                userAccess = distributorc.checkDistributorUserAccess(email);\r\n                if(userAccess == 1) {\r\n                    if(distributorc.checkDistributorToken(_email,token)){\r\n                         return (true,31);\r\n                    } else{\r\n                        require(false,\"token is invalid\");\r\n                    }\r\n                }else{\r\n                    require(false,\"user Allredy signup\");\r\n                }\r\n            } else {\r\n                require(false,\"dosen't macth this email\");\r\n            }\r\n        }\r\n        else{\r\n            require(false,\"dosen't macth this email\");\r\n        }\r\n    }\r\n    function frogetPassword(string memory _email,uint _appId) public view returns(bool,uint) {\r\n        \r\n        bytes32 email = keccak256(abi.encodePacked((_email)));\r\n        uint userAccess;\r\n        if(_appId==1){\r\n            if(adminc.isAdmin(email)){\r\n                userAccess = adminc.checkAdminUserAccess(email);\r\n                require(!(userAccess == 1), \"user not register in the system\");\r\n                require(!(userAccess == 2),\"user not confirm thier email\");\r\n                return (true,11);\r\n            } else if(managerc.isManager(email)){\r\n                userAccess = managerc.checkManagerUserAccess(email);\r\n                require(!(userAccess == 1),\"user not register in the system\");\r\n                require(!(userAccess == 2),\"user not confirm thier email\");\r\n                return (true,12);\r\n            } else {\r\n                require(false,\"dosen't macth this email\");\r\n            }\r\n        }\r\n        else if(_appId==2){\r\n            if(loaderc.isLoader(email)){\r\n                userAccess = loaderc.checkLoaderUserAccess(email);\r\n                require(!(userAccess == 1), \"user not register in the system\");\r\n                require(!(userAccess == 2),\"user not confirm thier email\");\r\n                return (true,21);\r\n\r\n            } else if(supervisorc.isSupervisor(email)){\r\n                userAccess = supervisorc.checkSupervisorUserAccess(email);\r\n                require(!(userAccess == 1),\"user not register in the system\");\r\n                require(!(userAccess == 2),\"user not confirm thier email\");\r\n                return (true,22);\r\n            } else {\r\n                require(false,\"dosen't macth this email\");\r\n            }\r\n        }\r\n        else if(_appId == 3){\r\n            if(distributorc.isDistributor(email)){\r\n                userAccess = distributorc.checkDistributorUserAccess(email);\r\n                require(!(userAccess == 1), \"user not register in the system\");\r\n                require(!(userAccess == 2),\"user not confirm thier email\");\r\n                return (true,31);\r\n            } else {\r\n                require(false,\"dosen't macth this email\");\r\n            }\r\n        }\r\n        else{\r\n            require(false,\"dosen't macth this email\");\r\n        }\r\n\r\n    }\r\n    function resetPassword(string memory _email,bytes32 token,uint _appId)public view returns(bool,uint) {\r\n       bytes32 email = keccak256(abi.encodePacked((_email)));\r\n        uint userAccess;\r\n        if(_appId==1){\r\n            if(adminc.isAdmin(email)){\r\n                userAccess = adminc.checkAdminUserAccess(email);\r\n                require(!(userAccess == 4), \"user remove from the system\");\r\n                require(!(userAccess == 3),\"user tempory block from the system\");\r\n                if(adminc.checkAdminToken(_email,token)){\r\n                    return (true,11);\r\n                } else{\r\n                    require(false,\"token is invalid\");\r\n                }\r\n            } else if(managerc.isManager(email)){\r\n                userAccess = managerc.checkManagerUserAccess(email);\r\n                userAccess = managerc.checkManagerUserAccess(email);\r\n                require(!(userAccess == 4), \"user remove from the system\");\r\n                require(!(userAccess == 3),\"user tempory block from the system\");\r\n                if(managerc.checkManagerToken(_email,token)){\r\n                   return (true,12);\r\n                } else{\r\n                    require(false,\"token is invalid\");\r\n                }\r\n            } else {\r\n                require(false,\"dosen't macth this email\");\r\n            }\r\n        }\r\n        else if(_appId==2){\r\n            if(loaderc.isLoader(email)){\r\n                userAccess = loaderc.checkLoaderUserAccess(email);\r\n                require(!(userAccess == 4), \"user remove from the system\");\r\n                require(!(userAccess == 3),\"user tempory block from the system\");\r\n                if(loaderc.checkLoaderToken(_email,token)){\r\n                    return (true,21);\r\n                } else{\r\n                    require(false,\"token is invalid\");\r\n                }\r\n            } else if(supervisorc.isSupervisor(email)){\r\n                userAccess = supervisorc.checkSupervisorUserAccess(email);\r\n                require(!(userAccess == 4), \"user remove from the system\");\r\n                require(!(userAccess == 3),\"user tempory block from the system\");\r\n                if(supervisorc.checkSupervisorToken(_email,token)){\r\n                    return (true,22);\r\n                } else{\r\n                    require(false,\"token is invalid\");\r\n                }\r\n            } else {\r\n                require(false,\"dosen't macth this email\");\r\n            }\r\n        }\r\n        else if(_appId == 3){\r\n            if(distributorc.isDistributor(email)){\r\n                userAccess = distributorc.checkDistributorUserAccess(email);\r\n                require(!(userAccess == 4), \"user remove from the system\");\r\n                require(!(userAccess == 3),\"user tempory block from the system\");\r\n                if(distributorc.checkDistributorToken(_email,token)){\r\n                    return (true,31);\r\n                } else{\r\n                    require(false,\"token is invalid\");\r\n                }\r\n            } else {\r\n                require(false,\"dosen't macth this email\");\r\n            }\r\n        }\r\n        else{\r\n            require(false,\"dosen't macth this email\");\r\n        }\r\n    }\r\n    // function createBox() public returns(bool){\r\n\r\n    // }\r\n    // function creatPacket() public returns(bool){\r\n    // }\r\n\r\n\r\n}\r\n",
  "sourcePath": "C:/project/tea supply chain mangement system/test2/contracts/Login.sol",
  "compiler": {
    "name": "solc",
    "version": "0.5.8+commit.23d335f2.Emscripten.clang"
  },
  "schemaVersion": "3.0.20",
  "updatedAt": "2020-02-13T05:40:10.016Z",
  "networkType": "ethereum",
  "devdoc": {
    "methods": {}
  },
  "userdoc": {
    "methods": {}
  }
}