{
  "contractName": "Login",
  "abi": [
    {
      "constant": true,
      "inputs": [
        {
          "name": "",
          "type": "bytes32"
        }
      ],
      "name": "adminArray",
      "outputs": [
        {
          "name": "email",
          "type": "string"
        },
        {
          "name": "emailCode",
          "type": "bytes32"
        },
        {
          "name": "passwordCode",
          "type": "bytes32"
        },
        {
          "name": "passwordRestToken",
          "type": "bytes32"
        },
        {
          "name": "name",
          "type": "string"
        },
        {
          "name": "contactNumber",
          "type": "uint256"
        },
        {
          "name": "userAddress",
          "type": "string"
        },
        {
          "name": "userAccess",
          "type": "uint256"
        },
        {
          "name": "index",
          "type": "uint256"
        }
      ],
      "payable": false,
      "stateMutability": "view",
      "type": "function"
    },
    {
      "anonymous": false,
      "inputs": [
        {
          "indexed": true,
          "name": "emailCode",
          "type": "bytes32"
        },
        {
          "indexed": false,
          "name": "index",
          "type": "uint256"
        },
        {
          "indexed": false,
          "name": "email",
          "type": "string"
        },
        {
          "indexed": false,
          "name": "passwordCode",
          "type": "bytes32"
        },
        {
          "indexed": false,
          "name": "passwordRestToken",
          "type": "bytes32"
        },
        {
          "indexed": false,
          "name": "name",
          "type": "string"
        },
        {
          "indexed": false,
          "name": "contactNumber",
          "type": "uint256"
        },
        {
          "indexed": false,
          "name": "userAddress",
          "type": "string"
        },
        {
          "indexed": false,
          "name": "userAccess",
          "type": "uint256"
        }
      ],
      "name": "LogNewAdmin",
      "type": "event"
    },
    {
      "anonymous": false,
      "inputs": [
        {
          "indexed": true,
          "name": "emailCode",
          "type": "bytes32"
        },
        {
          "indexed": false,
          "name": "index",
          "type": "uint256"
        },
        {
          "indexed": false,
          "name": "email",
          "type": "string"
        },
        {
          "indexed": false,
          "name": "passwordCode",
          "type": "bytes32"
        },
        {
          "indexed": false,
          "name": "passwordRestToken",
          "type": "bytes32"
        },
        {
          "indexed": false,
          "name": "name",
          "type": "string"
        },
        {
          "indexed": false,
          "name": "contactNumber",
          "type": "uint256"
        },
        {
          "indexed": false,
          "name": "userAddress",
          "type": "string"
        },
        {
          "indexed": false,
          "name": "userAccess",
          "type": "uint256"
        }
      ],
      "name": "LogUpdateAdmin",
      "type": "event"
    },
    {
      "constant": true,
      "inputs": [],
      "name": "scanDistributor",
      "outputs": [
        {
          "name": "",
          "type": "bool"
        }
      ],
      "payable": false,
      "stateMutability": "pure",
      "type": "function"
    },
    {
      "constant": true,
      "inputs": [],
      "name": "scanPacket",
      "outputs": [
        {
          "name": "",
          "type": "bool"
        }
      ],
      "payable": false,
      "stateMutability": "pure",
      "type": "function"
    },
    {
      "constant": true,
      "inputs": [
        {
          "name": "_email",
          "type": "string"
        },
        {
          "name": "_password",
          "type": "string"
        },
        {
          "name": "_appId",
          "type": "uint256"
        }
      ],
      "name": "log",
      "outputs": [
        {
          "name": "",
          "type": "bool"
        }
      ],
      "payable": false,
      "stateMutability": "pure",
      "type": "function"
    },
    {
      "constant": true,
      "inputs": [
        {
          "name": "_emailCode",
          "type": "bytes32"
        }
      ],
      "name": "isUser",
      "outputs": [
        {
          "name": "isIndeed",
          "type": "bool"
        }
      ],
      "payable": false,
      "stateMutability": "view",
      "type": "function"
    },
    {
      "constant": false,
      "inputs": [
        {
          "name": "_emailCode",
          "type": "bytes32"
        },
        {
          "name": "_email",
          "type": "string"
        },
        {
          "name": "_name",
          "type": "string"
        }
      ],
      "name": "setDisplayAdmin",
      "outputs": [
        {
          "name": "",
          "type": "bool"
        }
      ],
      "payable": false,
      "stateMutability": "nonpayable",
      "type": "function"
    },
    {
      "constant": false,
      "inputs": [
        {
          "name": "_email",
          "type": "string"
        },
        {
          "name": "_name",
          "type": "string"
        }
      ],
      "name": "insertAdmin",
      "outputs": [
        {
          "name": "index",
          "type": "uint256"
        }
      ],
      "payable": false,
      "stateMutability": "nonpayable",
      "type": "function"
    },
    {
      "constant": true,
      "inputs": [
        {
          "name": "_email",
          "type": "string"
        }
      ],
      "name": "getAdmin",
      "outputs": [
        {
          "name": "email",
          "type": "string"
        },
        {
          "name": "name",
          "type": "string"
        },
        {
          "name": "contactNumber",
          "type": "uint256"
        },
        {
          "name": "userAddress",
          "type": "string"
        },
        {
          "name": "userAccess",
          "type": "uint256"
        }
      ],
      "payable": false,
      "stateMutability": "view",
      "type": "function"
    },
    {
      "constant": true,
      "inputs": [
        {
          "name": "i",
          "type": "uint256"
        }
      ],
      "name": "getAdmini",
      "outputs": [
        {
          "name": "",
          "type": "bytes32"
        },
        {
          "name": "",
          "type": "string"
        },
        {
          "name": "",
          "type": "string"
        },
        {
          "name": "",
          "type": "uint256"
        },
        {
          "name": "",
          "type": "string"
        },
        {
          "name": "",
          "type": "uint256"
        }
      ],
      "payable": false,
      "stateMutability": "view",
      "type": "function"
    },
    {
      "constant": false,
      "inputs": [
        {
          "name": "_email",
          "type": "string"
        },
        {
          "name": "_name",
          "type": "string"
        }
      ],
      "name": "updateAdminName",
      "outputs": [
        {
          "name": "success",
          "type": "bool"
        }
      ],
      "payable": false,
      "stateMutability": "nonpayable",
      "type": "function"
    },
    {
      "constant": false,
      "inputs": [
        {
          "name": "_email",
          "type": "string"
        },
        {
          "name": "_userAddress",
          "type": "string"
        }
      ],
      "name": "updateAdminAddress",
      "outputs": [
        {
          "name": "success",
          "type": "bool"
        }
      ],
      "payable": false,
      "stateMutability": "nonpayable",
      "type": "function"
    },
    {
      "constant": false,
      "inputs": [
        {
          "name": "_email",
          "type": "string"
        },
        {
          "name": "_contactNumber",
          "type": "uint256"
        }
      ],
      "name": "updateAdminContactNumber",
      "outputs": [
        {
          "name": "success",
          "type": "bool"
        }
      ],
      "payable": false,
      "stateMutability": "nonpayable",
      "type": "function"
    },
    {
      "constant": false,
      "inputs": [
        {
          "name": "_email",
          "type": "string"
        },
        {
          "name": "index",
          "type": "uint256[]"
        },
        {
          "name": "_name",
          "type": "string"
        },
        {
          "name": "_userAddress",
          "type": "string"
        },
        {
          "name": "_contactNumber",
          "type": "uint256"
        }
      ],
      "name": "updateAdmin",
      "outputs": [
        {
          "name": "success",
          "type": "bool"
        }
      ],
      "payable": false,
      "stateMutability": "nonpayable",
      "type": "function"
    },
    {
      "constant": true,
      "inputs": [],
      "name": "getUserCount",
      "outputs": [
        {
          "name": "",
          "type": "uint256"
        }
      ],
      "payable": false,
      "stateMutability": "view",
      "type": "function"
    }
  ],
  "bytecode": "0x608060405234801561001057600080fd5b50613010806100206000396000f3fe608060405234801561001057600080fd5b50600436106100e95760003560e01c8063806137f61161008c578063b5cb15f711610066578063b5cb15f71461097b578063c4c755ca14610995578063e6d218d914610bc7578063f3690dcc14610dbd576100e9565b8063806137f6146105515780638ab5626f146106c7578063b45ecca814610852576100e9565b806343cbe7e3116100c857806343cbe7e3146102d85780635821efa1146102e057806375580b551461040b578063760bb00614610534576100e9565b8062a6771b146100ee57806309a5325214610232578063191e66e8146102d8575b600080fd5b61021e6004803603606081101561010457600080fd5b81359190810190604081016020820135600160201b81111561012557600080fd5b82018360208201111561013757600080fd5b803590602001918460018302840111600160201b8311171561015857600080fd5b91908080601f0160208091040260200160405190810160405280939291908181526020018383808284376000920191909152509295949360208101935035915050600160201b8111156101aa57600080fd5b8201836020820111156101bc57600080fd5b803590602001918460018302840111600160201b831117156101dd57600080fd5b91908080601f016020809104026020016040519081016040528093929190818152602001838380828437600092019190915250929550610ee6945050505050565b604080519115158252519081900360200190f35b61021e6004803603604081101561024857600080fd5b810190602081018135600160201b81111561026257600080fd5b82018360208201111561027457600080fd5b803590602001918460018302840111600160201b8311171561029557600080fd5b91908080601f0160208091040260200160405190810160405280939291908181526020018383808284376000920191909152509295505091359250611008915050565b61021e61133e565b61021e600480360360608110156102f657600080fd5b810190602081018135600160201b81111561031057600080fd5b82018360208201111561032257600080fd5b803590602001918460018302840111600160201b8311171561034357600080fd5b91908080601f0160208091040260200160405190810160405280939291908181526020018383808284376000920191909152509295949360208101935035915050600160201b81111561039557600080fd5b8201836020820111156103a757600080fd5b803590602001918460018302840111600160201b831117156103c857600080fd5b91908080601f0160208091040260200160405190810160405280939291908181526020018383808284376000920191909152509295505091359250611344915050565b61021e6004803603604081101561042157600080fd5b810190602081018135600160201b81111561043b57600080fd5b82018360208201111561044d57600080fd5b803590602001918460018302840111600160201b8311171561046e57600080fd5b91908080601f0160208091040260200160405190810160405280939291908181526020018383808284376000920191909152509295949360208101935035915050600160201b8111156104c057600080fd5b8201836020820111156104d257600080fd5b803590602001918460018302840111600160201b831117156104f357600080fd5b91908080601f016020809104026020016040519081016040528093929190818152602001838380828437600092019190915250929550611483945050505050565b61021e6004803603602081101561054a57600080fd5b5035611787565b61056e6004803603602081101561056757600080fd5b50356117d5565b60405180878152602001806020018060200186815260200180602001858152602001848103845289818151815260200191508051906020019080838360005b838110156105c55781810151838201526020016105ad565b50505050905090810190601f1680156105f25780820380516001836020036101000a031916815260200191505b5084810383528851815288516020918201918a019080838360005b8381101561062557818101518382015260200161060d565b50505050905090810190601f1680156106525780820380516001836020036101000a031916815260200191505b50848103825286518152865160209182019188019080838360005b8381101561068557818101518382015260200161066d565b50505050905090810190601f1680156106b25780820380516001836020036101000a031916815260200191505b50995050505050505050505060405180910390f35b6106e4600480360360208110156106dd57600080fd5b5035611a58565b60405180806020018a8152602001898152602001888152602001806020018781526020018060200186815260200185815260200184810384528d818151815260200191508051906020019080838360005b8381101561074d578181015183820152602001610735565b50505050905090810190601f16801561077a5780820380516001836020036101000a031916815260200191505b5084810383528951815289516020918201918b019080838360005b838110156107ad578181015183820152602001610795565b50505050905090810190601f1680156107da5780820380516001836020036101000a031916815260200191505b50848103825287518152875160209182019189019080838360005b8381101561080d5781810151838201526020016107f5565b50505050905090810190601f16801561083a5780820380516001836020036101000a031916815260200191505b509c5050505050505050505050505060405180910390f35b61021e6004803603604081101561086857600080fd5b810190602081018135600160201b81111561088257600080fd5b82018360208201111561089457600080fd5b803590602001918460018302840111600160201b831117156108b557600080fd5b91908080601f0160208091040260200160405190810160405280939291908181526020018383808284376000920191909152509295949360208101935035915050600160201b81111561090757600080fd5b82018360208201111561091957600080fd5b803590602001918460018302840111600160201b8311171561093a57600080fd5b91908080601f016020809104026020016040519081016040528093929190818152602001838380828437600092019190915250929550611c49945050505050565b610983611f99565b60408051918252519081900360200190f35b61021e600480360360a08110156109ab57600080fd5b810190602081018135600160201b8111156109c557600080fd5b8201836020820111156109d757600080fd5b803590602001918460018302840111600160201b831117156109f857600080fd5b91908080601f0160208091040260200160405190810160405280939291908181526020018383808284376000920191909152509295949360208101935035915050600160201b811115610a4a57600080fd5b820183602082011115610a5c57600080fd5b803590602001918460208302840111600160201b83111715610a7d57600080fd5b9190808060200260200160405190810160405280939291908181526020018383602002808284376000920191909152509295949360208101935035915050600160201b811115610acc57600080fd5b820183602082011115610ade57600080fd5b803590602001918460018302840111600160201b83111715610aff57600080fd5b91908080601f0160208091040260200160405190810160405280939291908181526020018383808284376000920191909152509295949360208101935035915050600160201b811115610b5157600080fd5b820183602082011115610b6357600080fd5b803590602001918460018302840111600160201b83111715610b8457600080fd5b91908080601f0160208091040260200160405190810160405280939291908181526020018383808284376000920191909152509295505091359250611f9f915050565b610c6b60048036036020811015610bdd57600080fd5b810190602081018135600160201b811115610bf757600080fd5b820183602082011115610c0957600080fd5b803590602001918460018302840111600160201b83111715610c2a57600080fd5b91908080601f016020809104026020016040519081016040528093929190818152602001838380828437600092019190915250929550612829945050505050565b60405180806020018060200186815260200180602001858152602001848103845289818151815260200191508051906020019080838360005b83811015610cbc578181015183820152602001610ca4565b50505050905090810190601f168015610ce95780820380516001836020036101000a031916815260200191505b5084810383528851815288516020918201918a019080838360005b83811015610d1c578181015183820152602001610d04565b50505050905090810190601f168015610d495780820380516001836020036101000a031916815260200191505b50848103825286518152865160209182019188019080838360005b83811015610d7c578181015183820152602001610d64565b50505050905090810190601f168015610da95780820380516001836020036101000a031916815260200191505b509850505050505050505060405180910390f35b61098360048036036040811015610dd357600080fd5b810190602081018135600160201b811115610ded57600080fd5b820183602082011115610dff57600080fd5b803590602001918460018302840111600160201b83111715610e2057600080fd5b91908080601f0160208091040260200160405190810160405280939291908181526020018383808284376000920191909152509295949360208101935035915050600160201b811115610e7257600080fd5b820183602082011115610e8457600080fd5b803590602001918460018302840111600160201b83111715610ea557600080fd5b91908080601f016020809104026020016040519081016040528093929190818152602001838380828437600092019190915250929550612ade945050505050565b6000610ef0612eb8565b84815260208082018590526040808301859052632ac5f23e6060808501919091528151908101909152603b8082529091612faa908301396080820152600160a082018190528054808201808355600092909252825160069091027fb10e2d527612073b26eecdfd717e6a320cf44b4afac2b0732d9fcbe2b7fa0cf681019182556020808501518051869493610fab937fb10e2d527612073b26eecdfd717e6a320cf44b4afac2b0732d9fcbe2b7fa0cf7909101920190612ef1565b5060408201518051610fc7916002840191602090910190612ef1565b506060820151600382015560808201518051610fed916004840191602090910190612ef1565b5060a0820151816005015550505060019150505b9392505050565b600080836040516020018082805190602001908083835b6020831061103e5780518252601f19909201916020918201910161101f565b6001836020036101000a03801982511681845116808217855250505050505090500191505060405160208183030381529060405280519060200120905061108481611787565b15156001146110d55760408051600160e51b62461bcd0281526020600482015260126024820152600160701b7175736572206e6f7420696e2073797374656d02604482015290519081900360640190fd5b600081815260208190526040902060058101849055600801546001805485929081106110fd57fe5b90600052602060002090600602016003018190555080600080516020612f8a83398151915260008084815260200190815260200160002060080154866000808681526020019081526020016000206002015460008087815260200190815260200160002060030154600080888152602001908152602001600020600401896000808a81526020019081526020016000206006016000808b8152602001908152602001600020600701546040518089815260200180602001888152602001878152602001806020018681526020018060200185815260200184810384528b818151815260200191508051906020019080838360005b838110156112095781810151838201526020016111f1565b50505050905090810190601f1680156112365780820380516001836020036101000a031916815260200191505b508481038352885460026000196101006001841615020190911604808252602090910190899080156112a95780601f1061127e576101008083540402835291602001916112a9565b820191906000526020600020905b81548152906001019060200180831161128c57829003601f168201915b505084810382528654600260001961010060018416150201909116048082526020909101908790801561131d5780601f106112f25761010080835404028352916020019161131d565b820191906000526020600020905b81548152906001019060200180831161130057829003601f168201915b50509b50505050505050505050505060405180910390a25060019392505050565b60015b90565b600080846040516020018082805190602001908083835b6020831061137a5780518252601f19909201916020918201910161135b565b6001836020036101000a0380198251168184511680821785525050505050509050019150506040516020818303038152906040528051906020012090506000846040516020018082805190602001908083835b602083106113ec5780518252601f1990920191602091820191016113cd565b6001836020036101000a0380198251168184511680821785525050505050509050019150506040516020818303038152906040528051906020012090508082141561143c57600192505050611001565b836001141561145057600192505050611001565b836002141561146457600192505050611001565b836003141561147857600192505050611001565b600092505050611001565b600080836040516020018082805190602001908083835b602083106114b95780518252601f19909201916020918201910161149a565b6001836020036101000a0380198251168184511680821785525050505050509050019150506040516020818303038152906040528051906020012090506114ff81611787565b15156001146115505760408051600160e51b62461bcd0281526020600482015260126024820152600160701b7175736572206e6f7420696e2073797374656d02604482015290519081900360640190fd5b600081815260208181526040909120845161157392600490920191860190612ef1565b5060008181526020819052604090206008015460018054859290811061159557fe5b906000526020600020906006020160020190805190602001906115b9929190612ef1565b5080600080516020612f8a8339815191526000808481526020019081526020016000206008015486600080868152602001908152602001600020600201546000808781526020019081526020016000206003015488600080898152602001908152602001600020600501546000808a81526020019081526020016000206006016000808b8152602001908152602001600020600701546040518089815260200180602001888152602001878152602001806020018681526020018060200185815260200184810384528b818151815260200191508051906020019080838360005b838110156116b257818101518382015260200161169a565b50505050905090810190601f1680156116df5780820380516001836020036101000a031916815260200191505b5084810383528851815288516020918201918a019080838360005b838110156117125781810151838201526020016116fa565b50505050905090810190601f16801561173f5780820380516001836020036101000a031916815260200191505b5084810382528654600260001961010060018416150201909116048082526020909101908790801561131d5780601f106112f25761010080835404028352916020019161131d565b600154600090611799575060006117d0565b6000828152602081905260409020600801546001805484929081106117ba57fe5b9060005260206000209060060201600001541490505b919050565b6000606080600060606000600187815481106117ed57fe5b9060005260206000209060060201600001546001888154811061180c57fe5b90600052602060002090600602016001016001898154811061182a57fe5b906000526020600020906006020160020160018a8154811061184857fe5b90600052602060002090600602016003015460018b8154811061186757fe5b906000526020600020906006020160040160018c8154811061188557fe5b600091825260209182902060056006909202010154855460408051601f6002600019610100600187161502019094169390930492830185900485028101850190915281815291928791908301828280156119205780601f106118f557610100808354040283529160200191611920565b820191906000526020600020905b81548152906001019060200180831161190357829003601f168201915b5050875460408051602060026001851615610100026000190190941693909304601f8101849004840282018401909252818152959a50899450925084019050828280156119ae5780601f10611983576101008083540402835291602001916119ae565b820191906000526020600020905b81548152906001019060200180831161199157829003601f168201915b5050855460408051602060026001851615610100026000190190941693909304601f810184900484028201840190925281815295995087945092508401905082828015611a3c5780601f10611a1157610100808354040283529160200191611a3c565b820191906000526020600020905b815481529060010190602001808311611a1f57829003601f168201915b5050505050915095509550955095509550955091939550919395565b6000602081815291815260409081902080548251601f600260001961010060018616150201909316929092049182018590048502810185019093528083529092839190830182828015611aec5780601f10611ac157610100808354040283529160200191611aec565b820191906000526020600020905b815481529060010190602001808311611acf57829003601f168201915b505050505090806001015490806002015490806003015490806004018054600181600116156101000203166002900480601f016020809104026020016040519081016040528092919081815260200182805460018160011615610100020316600290048015611b9c5780601f10611b7157610100808354040283529160200191611b9c565b820191906000526020600020905b815481529060010190602001808311611b7f57829003601f168201915b50505050600583015460068401805460408051602060026001851615610100026000190190941693909304601f81018490048402820184019092528181529596939593945090830182828015611c335780601f10611c0857610100808354040283529160200191611c33565b820191906000526020600020905b815481529060010190602001808311611c1657829003601f168201915b5050505050908060070154908060080154905089565b600080836040516020018082805190602001908083835b60208310611c7f5780518252601f199092019160209182019101611c60565b6001836020036101000a038019825116818451168082178552505050505050905001915050604051602081830303815290604052805190602001209050611cc581611787565b1515600114611d165760408051600160e51b62461bcd0281526020600482015260126024820152600160701b7175736572206e6f7420696e2073797374656d02604482015290519081900360640190fd5b6000818152602081815260409091208451611d3992600690920191860190612ef1565b50600081815260208190526040902060080154600180548592908110611d5b57fe5b90600052602060002090600602016004019080519060200190611d7f929190612ef1565b5080600080516020612f8a83398151915260008084815260200190815260200160002060080154866000808681526020019081526020016000206002015460008087815260200190815260200160002060030154600080888152602001908152602001600020600401600080898152602001908152602001600020600501548a6000808b8152602001908152602001600020600701546040518089815260200180602001888152602001878152602001806020018681526020018060200185815260200184810384528b818151815260200191508051906020019080838360005b83811015611e78578181015183820152602001611e60565b50505050905090810190601f168015611ea55780820380516001836020036101000a031916815260200191505b50848103835288546002600019610100600184161502019091160480825260209091019089908015611f185780601f10611eed57610100808354040283529160200191611f18565b820191906000526020600020905b815481529060010190602001808311611efb57829003601f168201915b5050848103825286518152865160209182019188019080838360005b83811015611f4c578181015183820152602001611f34565b50505050905090810190601f168015611f795780820380516001836020036101000a031916815260200191505b509b50505050505050505050505060405180910390a25060019392505050565b60015490565b600080866040516020018082805190602001908083835b60208310611fd55780518252601f199092019160209182019101611fb6565b6001836020036101000a03801982511681845116808217855250505050505090500191505060405160208183030381529060405280519060200120905061201b81611787565b151560011461206c5760408051600160e51b62461bcd0281526020600482015260126024820152600160701b7175736572206e6f7420696e2073797374656d02604482015290519081900360640190fd5b6000818152602081905260408120600801545b875182101561281a5787828151811061209457fe5b60200260200101516001141561230f5760008381526020818152604090912088516120c7926004909201918a0190612ef1565b5086600182815481106120d657fe5b906000526020600020906006020160020190805190602001906120fa929190612ef1565b5082600080516020612f8a833981519152600080868152602001908152602001600020600801548b60008088815260200190815260200160002060020154600080898152602001908152602001600020600301548c6000808b8152602001908152602001600020600501546000808c81526020019081526020016000206006016000808d8152602001908152602001600020600701546040518089815260200180602001888152602001878152602001806020018681526020018060200185815260200184810384528b818151815260200191508051906020019080838360005b838110156121f35781810151838201526020016121db565b50505050905090810190601f1680156122205780820380516001836020036101000a031916815260200191505b5084810383528851815288516020918201918a019080838360005b8381101561225357818101518382015260200161223b565b50505050905090810190601f1680156122805780820380516001836020036101000a031916815260200191505b508481038252865460026000196101006001841615020190911604808252602090910190879080156122f35780601f106122c8576101008083540402835291602001916122f3565b820191906000526020600020905b8154815290600101906020018083116122d657829003601f168201915b50509b50505050505050505050505060405180910390a261280f565b87828151811061231b57fe5b60200260200101516002141561259657600083815260208181526040909120875161234e92600690920191890190612ef1565b50856001828154811061235d57fe5b90600052602060002090600602016004019080519060200190612381929190612ef1565b5082600080516020612f8a833981519152600080868152602001908152602001600020600801548b60008088815260200190815260200160002060020154600080898152602001908152602001600020600301546000808a81526020019081526020016000206004016000808b8152602001908152602001600020600501548d6000808d8152602001908152602001600020600701546040518089815260200180602001888152602001878152602001806020018681526020018060200185815260200184810384528b818151815260200191508051906020019080838360005b8381101561247a578181015183820152602001612462565b50505050905090810190601f1680156124a75780820380516001836020036101000a031916815260200191505b5084810383528854600260001961010060018416150201909116048082526020909101908990801561251a5780601f106124ef5761010080835404028352916020019161251a565b820191906000526020600020905b8154815290600101906020018083116124fd57829003601f168201915b5050848103825286518152865160209182019188019080838360005b8381101561254e578181015183820152602001612536565b50505050905090810190601f16801561257b5780820380516001836020036101000a031916815260200191505b509b50505050505050505050505060405180910390a261280f565b8782815181106125a257fe5b60200260200101516003141561280f57600083815260208190526040902060050185905560018054869190839081106125d757fe5b90600052602060002090600602016003018190555082600080516020612f8a833981519152600080868152602001908152602001600020600801548b60008088815260200190815260200160002060020154600080898152602001908152602001600020600301546000808a81526020019081526020016000206004018b6000808c81526020019081526020016000206006016000808d8152602001908152602001600020600701546040518089815260200180602001888152602001878152602001806020018681526020018060200185815260200184810384528b818151815260200191508051906020019080838360005b838110156126e35781810151838201526020016126cb565b50505050905090810190601f1680156127105780820380516001836020036101000a031916815260200191505b508481038352885460026000196101006001841615020190911604808252602090910190899080156127835780601f1061275857610100808354040283529160200191612783565b820191906000526020600020905b81548152906001019060200180831161276657829003601f168201915b50508481038252865460026000196101006001841615020190911604808252602090910190879080156127f75780601f106127cc576101008083540402835291602001916127f7565b820191906000526020600020905b8154815290600101906020018083116127da57829003601f168201915b50509b50505050505050505050505060405180910390a25b60019091019061207f565b50600198975050505050505050565b60608060006060600080866040516020018082805190602001908083835b602083106128665780518252601f199092019160209182019101612847565b6001836020036101000a0380198251168184511680821785525050505050509050019150506040516020818303038152906040528051906020012090506128ac81611787565b15156001146128fd5760408051600160e51b62461bcd0281526020600482015260126024820152600160701b7175736572206e6f7420696e2073797374656d02604482015290519081900360640190fd5b600081815260208181526040918290206005810154600782015482548551601f6002600019610100600186161502019093169290920491820186900486028101860190965280865292946004860194929360068701938791908301828280156129a75780601f1061297c576101008083540402835291602001916129a7565b820191906000526020600020905b81548152906001019060200180831161298a57829003601f168201915b5050875460408051602060026001851615610100026000190190941693909304601f8101849004840282018401909252818152959a5089945092508401905082828015612a355780601f10612a0a57610100808354040283529160200191612a35565b820191906000526020600020905b815481529060010190602001808311612a1857829003601f168201915b5050855460408051602060026001851615610100026000190190941693909304601f810184900484028201840190925281815295995087945092508401905082828015612ac35780601f10612a9857610100808354040283529160200191612ac3565b820191906000526020600020905b815481529060010190602001808311612aa657829003601f168201915b50505050509150955095509550955095505091939590929450565b600080836040516020018082805190602001908083835b60208310612b145780518252601f199092019160209182019101612af5565b6001836020036101000a038019825116818451168082178552505050505050905001915050604051602081830303815290604052805190602001209050612b5a81611787565b151560011415612bb45760408051600160e51b62461bcd02815260206004820152601660248201527f7573657220616c6c7265647920696e2073797374656d00000000000000000000604482015290519081900360640190fd5b6000818152602081815260409091208551612bd192870190612ef1565b506000818152602081815260408220600181018490556002810183905560038101929092558451612c089260040191860190612ef1565b5060008181526020818152604080832060058101849055815180840192839052848152858552939092529151612c449260069092019190612ef1565b5060008181526020819052604090206001600790910155612c66818585610ee6565b50600180805490500360008083815260200190815260200160002060080181905550807f2d9d676840c870cc037bd86cc92e3231dc401cfe5b6a8cda2f2bda9c44e5234a6000808481526020019081526020016000206008015486600080868152602001908152602001600020600201546000808781526020019081526020016000206003015488600080898152602001908152602001600020600501546000808a81526020019081526020016000206006016000808b8152602001908152602001600020600701546040518089815260200180602001888152602001878152602001806020018681526020018060200185815260200184810384528b818151815260200191508051906020019080838360005b83811015612d92578181015183820152602001612d7a565b50505050905090810190601f168015612dbf5780820380516001836020036101000a031916815260200191505b5084810383528851815288516020918201918a019080838360005b83811015612df2578181015183820152602001612dda565b50505050905090810190601f168015612e1f5780820380516001836020036101000a031916815260200191505b50848103825286546002600019610100600184161502019091160480825260209091019087908015612e925780601f10612e6757610100808354040283529160200191612e92565b820191906000526020600020905b815481529060010190602001808311612e7557829003601f168201915b50509b50505050505050505050505060405180910390a250506001546000190192915050565b6040518060c001604052806000801916815260200160608152602001606081526020016000815260200160608152602001600081525090565b828054600181600116156101000203166002900490600052602060002090601f016020900481019282601f10612f3257805160ff1916838001178555612f5f565b82800160010185558215612f5f579182015b82811115612f5f578251825591602001919060010190612f44565b50612f6b929150612f6f565b5090565b61134191905b80821115612f6b5760008155600101612f7556fee4b15a551fc7f1c535736e08118cbf9622dc7104fbc63bc36ab16524aa9935d9313333352c626f676168617761746874686120526f61642c70616e6e697069746979612c636f6c6f6d626f2c737269206c616e6b612c3130323330a165627a7a72305820601e8cb77b5be1e0b7a1b0e72be3756a76bcf93cbb7952b4943f6242561cef3f0029",
  "source": "pragma solidity >=0.4.21 <0.6.0;\r\n\r\ncontract Login {\r\n    struct Packet{\r\n        uint packetId;\r\n        uint boxId;\r\n        uint productId;\r\n        uint rate;\r\n        //\r\n    }\r\n    struct Box{\r\n        uint boxtId;\r\n        uint containerId;\r\n        uint orderId;\r\n    }\r\n    struct Container{\r\n        uint containerId;\r\n        uint orderId;\r\n        uint rate;\r\n\r\n    }\r\n    struct Order{\r\n        uint packetId;\r\n        uint orderId;\r\n    }\r\n    struct Product{\r\n        uint packetId;\r\n        uint orderId;\r\n        uint rate;\r\n\r\n    }\r\n    struct Estate{\r\n        uint packetId;\r\n        uint orderId;\r\n        uint rate;\r\n\r\n    }\r\n\r\n    struct Manager{\r\n        string email;\r\n        string firstName;\r\n        string lastName;\r\n        uint userType;\r\n        bool userAccess;\r\n    }\r\n    struct Worker{\r\n        string email;\r\n        string firstName;\r\n        string lastName;\r\n        uint userType;\r\n        bool userAccess;\r\n    }\r\n    struct Distributor{\r\n        string email;\r\n        string firstName;\r\n        string lastName;\r\n        string location;\r\n        string countryIsoCode;\r\n        uint userType;\r\n        bool userAccess;\r\n\r\n    }\r\n\r\n    function scanDistributor(/*uint64 _boxtId,uint64 _distributorId*/)public pure returns(bool){\r\n        // first map packet id and get packet location\r\n        // second we store distributor id in box distributors array\r\n        return true;\r\n    }\r\n\r\n    function scanPacket(/*uint64 _packetId*/)public pure returns(/* packetdtail*//*supply chin */bool){\r\n        return true;\r\n    }\r\n\r\n    function log(string memory _email,string memory _password,uint _appId)public pure returns(bool){\r\n\r\n        bytes32 email = keccak256(abi.encodePacked((_email)));\r\n        bytes32 password = keccak256(abi.encodePacked((_password)));\r\n\r\n        if(email == password){\r\n            return true;\r\n        }\r\n\r\n        if(_appId==1){\r\n            return true;\r\n        }\r\n        else if(_appId==2){\r\n            return true;\r\n        }\r\n        else if(_appId == 3){\r\n            return true;\r\n        }\r\n        else{\r\n            return false;\r\n        }\r\n    }\r\n    struct Admin{\r\n        string email;\r\n        bytes32 emailCode;\r\n        bytes32 passwordCode;\r\n        bytes32 passwordRestToken;\r\n        string name;\r\n        uint contactNumber;\r\n        string userAddress;\r\n        uint userAccess;\r\n        uint index;\r\n    }\r\n\r\n    struct DisplayAdmin{\r\n        bytes32 emailCode;\r\n        string email;\r\n        string name;\r\n        uint contactNumber;\r\n        string userAddress;\r\n        uint userAccess;\r\n    }\r\n\r\n    //mapping(address => UserStruct) private userStructs;\r\n    //address[] private userIndex;\r\n\r\n    //\r\n     mapping(bytes32 => Admin) public adminArray;\r\n     DisplayAdmin[] private userIndex;\r\n\r\n    // event LogNewUser(address indexed userAddress, uint index, bytes32 userEmail, uint userAge);\r\n    // event LogUpdateUser(address indexed userAddress, uint index, bytes32 userEmail, uint userAge);\r\n    // event LogDeleteUser(address indexed userAddress, uint index);\r\n\r\n    event LogNewAdmin(\r\n        bytes32 indexed emailCode,\r\n        uint index,string email,\r\n        bytes32 passwordCode,\r\n        bytes32 passwordRestToken,\r\n        string name,\r\n        uint contactNumber,\r\n        string userAddress,\r\n        uint userAccess\r\n        );\r\n    event LogUpdateAdmin(\r\n        bytes32 indexed emailCode,\r\n        uint index,string email,\r\n        bytes32 passwordCode,\r\n        bytes32 passwordRestToken,\r\n        string name,\r\n        uint contactNumber,\r\n        string userAddress,\r\n        uint userAccess\r\n        );\r\n\r\n    function isUser(bytes32 _emailCode)public view returns(bool isIndeed) {\r\n        if(userIndex.length == 0) return false;\r\n        return (userIndex[adminArray[_emailCode].index].emailCode == _emailCode);\r\n   }\r\n\r\n    function setDisplayAdmin(bytes32 _emailCode,string memory _email,string memory _name) public returns(bool){\r\n\r\n        DisplayAdmin memory displayAdmin;\r\n        displayAdmin.emailCode = _emailCode;\r\n        displayAdmin.email = _email;\r\n        displayAdmin.name = _name;\r\n        displayAdmin.contactNumber = 717615678;\r\n        displayAdmin.userAddress = \"1335,bogahawaththa Road,pannipitiya,colombo,sri lanka,10230\";\r\n        displayAdmin.userAccess = 1;\r\n        userIndex.push(displayAdmin);\r\n        return true;\r\n\r\n    }\r\n\r\n    function insertAdmin(string memory _email,string memory _name) public returns(uint index)\r\n    {\r\n        bytes32 _emailCode = keccak256(abi.encodePacked((_email)));\r\n        require(isUser(_emailCode) != true,'user allredy in system');\r\n\r\n        adminArray[_emailCode].email = _email;\r\n        adminArray[_emailCode].emailCode = _emailCode;\r\n        adminArray[_emailCode].passwordCode = \"\";\r\n        adminArray[_emailCode].passwordRestToken = \"\";\r\n        adminArray[_emailCode].name = _name;\r\n        adminArray[_emailCode].contactNumber = 0;\r\n        adminArray[_emailCode].userAddress = \"\";\r\n        adminArray[_emailCode].userAccess = 1;\r\n        setDisplayAdmin(_emailCode,_email,_name);\r\n        adminArray[_emailCode].index = userIndex.length-1;\r\n\r\n        emit LogNewAdmin(\r\n            _emailCode,\r\n            adminArray[_emailCode].index,\r\n            _email,\r\n            adminArray[_emailCode].passwordCode,\r\n            adminArray[_emailCode].passwordRestToken,\r\n            _name,\r\n            adminArray[_emailCode].contactNumber,\r\n            adminArray[_emailCode].userAddress,\r\n            adminArray[_emailCode].userAccess\r\n            );\r\n        return userIndex.length-1;\r\n    }\r\n\r\n//    function deleteUser(address userAddress) public returns(uint index)\r\n//     {\r\n//         uint rowToDelete = userStructs[userAddress].index;\r\n//         address keyToMove = userIndex[userIndex.length-1];\r\n//         userIndex[rowToDelete] = keyToMove;\r\n//         userStructs[keyToMove].index = rowToDelete;\r\n//         userIndex.length--;\r\n//         emit LogDeleteUser(userAddress, rowToDelete);\r\n//         emit LogUpdateUser(keyToMove,  rowToDelete,  userStructs[keyToMove].userEmail,  userStructs[keyToMove].userAge);\r\n//         return rowToDelete;\r\n//     }\r\n    function getAdmin(string memory _email) public view returns(string memory email,string memory name,\r\n    uint contactNumber,string memory userAddress, uint userAccess)\r\n    {\r\n        bytes32 _emailCode = keccak256(abi.encodePacked((_email)));\r\n        require(isUser(_emailCode) == true,'user not in system');\r\n        return(\r\n            adminArray[_emailCode].email,\r\n            adminArray[_emailCode].name,\r\n            adminArray[_emailCode].contactNumber,\r\n            adminArray[_emailCode].userAddress,\r\n            adminArray[_emailCode].userAccess\r\n            );\r\n    }\r\n    // function getAdmins() public view returns(string[] memory email){\r\n    //     email = new string[](5);\r\n    //     // string[] memory name;\r\n    //     // uint[] memory contactNumber;\r\n    //     // string[] memory userAddress;\r\n    //     // uint[] memory userAccess;\r\n    //      for (uint i = 0; i < userIndex.length; i++) {\r\n    //         email[i] = userIndex[i].email;\r\n    //     }\r\n    // }\r\n    function getAdmini(uint i) public view returns(\r\n        bytes32,\r\n        string memory,\r\n        string memory,\r\n        uint,\r\n        string memory,\r\n        uint\r\n        ){\r\n            return (\r\n                userIndex[i].emailCode,\r\n                userIndex[i].email,\r\n                userIndex[i].name,\r\n                userIndex[i].contactNumber,\r\n                userIndex[i].userAddress,\r\n                userIndex[i].userAccess\r\n                );\r\n    }\r\n    // function updateUserEmail(address userAddress, bytes32 userEmail) public returns(bool success)\r\n    // {\r\n    //     userStructs[userAddress].userEmail = userEmail;\r\n    //     emit LogUpdateUser(userAddress,  userStructs[userAddress].index, userEmail, userStructs[userAddress].userAge);\r\n    //     return true;\r\n    // }\r\n    function updateAdminName (string memory _email,string memory _name) public returns(bool success)\r\n    {\r\n        bytes32 _emailCode = keccak256(abi.encodePacked((_email)));\r\n        require(isUser(_emailCode) == true,'user not in system');\r\n        adminArray[_emailCode].name = _name;\r\n        userIndex[adminArray[_emailCode].index].name = _name;\r\n        emit LogUpdateAdmin(\r\n            _emailCode,\r\n            adminArray[_emailCode].index,\r\n            _email,\r\n            adminArray[_emailCode].passwordCode,\r\n            adminArray[_emailCode].passwordRestToken,\r\n            _name,\r\n            adminArray[_emailCode].contactNumber,\r\n            adminArray[_emailCode].userAddress,\r\n            adminArray[_emailCode].userAccess\r\n            );\r\n        return true;\r\n    }\r\n    function updateAdminAddress (string memory _email,string memory _userAddress) public returns(bool success)\r\n    {\r\n        bytes32 _emailCode = keccak256(abi.encodePacked((_email)));\r\n        require(isUser(_emailCode) == true,'user not in system');\r\n        adminArray[_emailCode].userAddress = _userAddress;\r\n        userIndex[adminArray[_emailCode].index].userAddress = _userAddress;\r\n        emit LogUpdateAdmin(\r\n            _emailCode,\r\n            adminArray[_emailCode].index,\r\n            _email,\r\n            adminArray[_emailCode].passwordCode,\r\n            adminArray[_emailCode].passwordRestToken,\r\n            adminArray[_emailCode].name,\r\n            adminArray[_emailCode].contactNumber,\r\n            _userAddress,\r\n            adminArray[_emailCode].userAccess\r\n            );\r\n        return true;\r\n    }\r\n     function updateAdminContactNumber (string memory _email,uint _contactNumber) public returns(bool success)\r\n    {\r\n        bytes32 _emailCode = keccak256(abi.encodePacked((_email)));\r\n        require(isUser(_emailCode) == true,'user not in system');\r\n        adminArray[_emailCode].contactNumber = _contactNumber;\r\n        userIndex[adminArray[_emailCode].index].contactNumber = _contactNumber;\r\n        emit LogUpdateAdmin(\r\n            _emailCode,\r\n            adminArray[_emailCode].index,\r\n            _email,\r\n            adminArray[_emailCode].passwordCode,\r\n            adminArray[_emailCode].passwordRestToken,\r\n            adminArray[_emailCode].name,\r\n            _contactNumber,\r\n            adminArray[_emailCode].userAddress,\r\n            adminArray[_emailCode].userAccess\r\n            );\r\n        return true;\r\n    }\r\n    function updateAdmin(\r\n        string memory _email,\r\n        uint[] memory index,\r\n        string memory _name,\r\n        string memory _userAddress,\r\n        uint _contactNumber\r\n        ) public returns(bool success)\r\n    {\r\n        bytes32 _emailCode = keccak256(abi.encodePacked((_email)));\r\n        require(isUser(_emailCode) == true,'user not in system');\r\n        uint i;\r\n        uint num = adminArray[_emailCode].index;\r\n\r\n        for (i = 0;i<index.length;i++){\r\n            if(index[i]==1){\r\n                adminArray[_emailCode].name = _name;\r\n                userIndex[num].name = _name;\r\n                emit LogUpdateAdmin(\r\n                    _emailCode,\r\n                    adminArray[_emailCode].index,\r\n                    _email,adminArray[_emailCode].passwordCode,\r\n                    adminArray[_emailCode].passwordRestToken,\r\n                    _name,\r\n                    adminArray[_emailCode].contactNumber,\r\n                    adminArray[_emailCode].userAddress,\r\n                    adminArray[_emailCode].userAccess\r\n                    );\r\n\r\n            }\r\n            else if(index[i]==2){\r\n                adminArray[_emailCode].userAddress = _userAddress;\r\n\r\n                userIndex[num].userAddress = _userAddress;\r\n\r\n                emit LogUpdateAdmin(\r\n                    _emailCode,\r\n                    adminArray[_emailCode].index,\r\n                    _email,\r\n                    adminArray[_emailCode].passwordCode,\r\n                    adminArray[_emailCode].passwordRestToken,\r\n                    adminArray[_emailCode].name,\r\n                    adminArray[_emailCode].contactNumber,\r\n                    _userAddress,\r\n                    adminArray[_emailCode].userAccess\r\n                    );\r\n\r\n            }\r\n            else if(index[i]==3){\r\n                adminArray[_emailCode].contactNumber = _contactNumber;\r\n                userIndex[num].contactNumber = _contactNumber;\r\n                emit LogUpdateAdmin(\r\n                    _emailCode,\r\n                    adminArray[_emailCode].index,\r\n                    _email,\r\n                    adminArray[_emailCode].passwordCode,\r\n                    adminArray[_emailCode].passwordRestToken,\r\n                    adminArray[_emailCode].name,\r\n                    _contactNumber,\r\n                    adminArray[_emailCode].userAddress,\r\n                    adminArray[_emailCode].userAccess\r\n                    );\r\n\r\n            }\r\n        }\r\n        return true;\r\n    }\r\n\r\n    function getUserCount() public view returns(uint)\r\n    {\r\n        return userIndex.length;\r\n    }\r\n}",
  "sourcePath": "C:/project/tea supply chain mangement system/test2/contracts/Login.sol",
  "compiler": {
    "name": "solc",
    "version": "0.5.8+commit.23d335f2.Emscripten.clang"
  },
  "schemaVersion": "3.0.16",
  "updatedAt": "2019-10-27T20:42:05.324Z",
  "devdoc": {
    "methods": {}
  },
  "userdoc": {
    "methods": {}
  }
}