{
  "contractName": "Login",
  "abi": [
    {
      "inputs": [
        {
          "name": "ad",
          "type": "address"
        },
        {
          "name": "ma",
          "type": "address"
        },
        {
          "name": "dis",
          "type": "address"
        },
        {
          "name": "lo",
          "type": "address"
        },
        {
          "name": "su",
          "type": "address"
        }
      ],
      "payable": false,
      "stateMutability": "nonpayable",
      "type": "constructor"
    },
    {
      "constant": true,
      "inputs": [
        {
          "name": "_email",
          "type": "string"
        },
        {
          "name": "_password",
          "type": "string"
        },
        {
          "name": "_appId",
          "type": "uint256"
        }
      ],
      "name": "login",
      "outputs": [
        {
          "name": "",
          "type": "bool"
        }
      ],
      "payable": false,
      "stateMutability": "view",
      "type": "function"
    },
    {
      "constant": false,
      "inputs": [
        {
          "name": "token",
          "type": "bytes32"
        }
      ],
      "name": "registation",
      "outputs": [
        {
          "name": "",
          "type": "bool"
        }
      ],
      "payable": false,
      "stateMutability": "nonpayable",
      "type": "function"
    },
    {
      "constant": false,
      "inputs": [
        {
          "name": "_email",
          "type": "string"
        },
        {
          "name": "_appId",
          "type": "uint256"
        }
      ],
      "name": "frogetPassword",
      "outputs": [
        {
          "name": "",
          "type": "bytes32"
        }
      ],
      "payable": false,
      "stateMutability": "nonpayable",
      "type": "function"
    },
    {
      "constant": false,
      "inputs": [
        {
          "name": "token",
          "type": "bytes32"
        },
        {
          "name": "password",
          "type": "string"
        }
      ],
      "name": "resetPassword",
      "outputs": [
        {
          "name": "",
          "type": "bool"
        }
      ],
      "payable": false,
      "stateMutability": "nonpayable",
      "type": "function"
    }
  ],
  "bytecode": "0x608060405234801561001057600080fd5b5060405160a080611a58833981018060405260a081101561003057600080fd5b508051602082015160408301516060840151608090940151600080546001600160a01b039586166001600160a01b031991821617909155600180549486169482169490941790935560028054928516928416929092179091556003805494841694831694909417909355600480549290931691161790556119a2806100b66000396000f3fe608060405234801561001057600080fd5b506004361061004c5760003560e01c806302d256ca146100515780632c848ac414610109578063651cbbc7146101c8578063e3797ad6146102f3575b600080fd5b6100f76004803603604081101561006757600080fd5b810190602081018135600160201b81111561008157600080fd5b82018360208201111561009357600080fd5b803590602001918460018302840111600160201b831117156100b457600080fd5b91908080601f0160208091040260200160405190810160405280939291908181526020018383808284376000920191909152509295505091359250610310915050565b60408051918252519081900360200190f35b6101b46004803603604081101561011f57600080fd5b81359190810190604081016020820135600160201b81111561014057600080fd5b82018360208201111561015257600080fd5b803590602001918460018302840111600160201b8311171561017357600080fd5b91908080601f016020809104026020016040519081016040528093929190818152602001838380828437600092019190915250929550610d71945050505050565b604080519115158252519081900360200190f35b6101b4600480360360608110156101de57600080fd5b810190602081018135600160201b8111156101f857600080fd5b82018360208201111561020a57600080fd5b803590602001918460018302840111600160201b8311171561022b57600080fd5b91908080601f0160208091040260200160405190810160405280939291908181526020018383808284376000920191909152509295949360208101935035915050600160201b81111561027d57600080fd5b82018360208201111561028f57600080fd5b803590602001918460018302840111600160201b831117156102b057600080fd5b91908080601f0160208091040260200160405190810160405280939291908181526020018383808284376000920191909152509295505091359250610d79915050565b6101b46004803603602081101561030957600080fd5b5035611930565b600080836040516020018082805190602001908083835b602083106103465780518252601f199092019160209182019101610327565b6001836020036101000a038019825116818451168082178552505050505050905001915050604051602081830303815290604052805190602001209050600083600114156107cb5760005460408051600160e71b62e5a2890281526004810185905290516001600160a01b03909216916372d1448091602480820192602092909190829003018186803b1580156103dc57600080fd5b505afa1580156103f0573d6000803e3d6000fd5b505050506040513d602081101561040657600080fd5b5051156105a05760005460408051600160e51b63044d21090281526004810185905290516001600160a01b03909216916389a4212091602480820192602092909190829003018186803b15801561045c57600080fd5b505afa158015610470573d6000803e3d6000fd5b505050506040513d602081101561048657600080fd5b5051905060018114156104d15760408051600160e51b62461bcd02815260206004820152601f6024820152600080516020611957833981519152604482015290519081900360640190fd5b80600214156105185760408051600160e51b62461bcd02815260206004820152601c6024820152600080516020611937833981519152604482015290519081900360640190fd5b6000805460408051600160e11b6370d08cc10281526004810186905290516001600160a01b039092169163e1a119829160248082019260209290919082900301818787803b15801561056957600080fd5b505af115801561057d573d6000803e3d6000fd5b505050506040513d602081101561059357600080fd5b50519350610d6b92505050565b60015460408051600160e01b63a952fab30281526004810185905290516001600160a01b039092169163a952fab391602480820192602092909190829003018186803b1580156105ef57600080fd5b505afa158015610603573d6000803e3d6000fd5b505050506040513d602081101561061957600080fd5b50511561077b5760015460408051600160e21b6308f510990281526004810185905290516001600160a01b03909216916323d4426491602480820192602092909190829003018186803b15801561066f57600080fd5b505afa158015610683573d6000803e3d6000fd5b505050506040513d602081101561069957600080fd5b5051905060018114156106e45760408051600160e51b62461bcd02815260206004820152601f6024820152600080516020611957833981519152604482015290519081900360640190fd5b806002141561072b5760408051600160e51b62461bcd02815260206004820152601c6024820152600080516020611937833981519152604482015290519081900360640190fd5b60015460408051600160e11b630a4153b10281526004810185905290516000926001600160a01b031691631482a76291602480830192602092919082900301818787803b15801561056957600080fd5b60408051600160e51b62461bcd02815260206004820152601860248201527f646f73656e2774206d61637468207468697320656d61696c0000000000000000604482015290519081900360640190fd5b8360021415610b875760035460408051600160e01b630bfab7e90281526004810185905290516001600160a01b0390921691630bfab7e991602480820192602092909190829003018186803b15801561082357600080fd5b505afa158015610837573d6000803e3d6000fd5b505050506040513d602081101561084d57600080fd5b5051156109af5760035460408051600160e01b63ec440dbd0281526004810185905290516001600160a01b039092169163ec440dbd91602480820192602092909190829003018186803b1580156108a357600080fd5b505afa1580156108b7573d6000803e3d6000fd5b505050506040513d60208110156108cd57600080fd5b5051905060018114156109185760408051600160e51b62461bcd02815260206004820152601f6024820152600080516020611957833981519152604482015290519081900360640190fd5b806002141561095f5760408051600160e51b62461bcd02815260206004820152601c6024820152600080516020611937833981519152604482015290519081900360640190fd5b60035460408051600160e11b632c571a5b0281526004810185905290516000926001600160a01b0316916358ae34b691602480830192602092919082900301818787803b15801561056957600080fd5b6004805460408051600160e41b630a0e1629028152928301859052516001600160a01b039091169163a0e16290916024808301926020929190829003018186803b1580156109fc57600080fd5b505afa158015610a10573d6000803e3d6000fd5b505050506040513d6020811015610a2657600080fd5b50511561077b576004805460408051600160e11b6361e6992d028152928301859052516001600160a01b039091169163c3cd325a916024808301926020929190829003018186803b158015610a7a57600080fd5b505afa158015610a8e573d6000803e3d6000fd5b505050506040513d6020811015610aa457600080fd5b505190506001811415610aef5760408051600160e51b62461bcd02815260206004820152601f6024820152600080516020611957833981519152604482015290519081900360640190fd5b8060021415610b365760408051600160e51b62461bcd02815260206004820152601c6024820152600080516020611937833981519152604482015290519081900360640190fd5b6004805460408051600160e11b63455b4559028152928301859052516000926001600160a01b0390921691638ab68ab291602480830192602092919082900301818787803b15801561056957600080fd5b836003141561077b5760025460408051600160e01b63ea0fd49b0281526004810185905290516001600160a01b039092169163ea0fd49b91602480820192602092909190829003018186803b158015610bdf57600080fd5b505afa158015610bf3573d6000803e3d6000fd5b505050506040513d6020811015610c0957600080fd5b50511561077b5760025460408051600160e11b63123fd8a10281526004810185905290516001600160a01b039092169163247fb14291602480820192602092909190829003018186803b158015610c5f57600080fd5b505afa158015610c73573d6000803e3d6000fd5b505050506040513d6020811015610c8957600080fd5b505190506001811415610cd45760408051600160e51b62461bcd02815260206004820152601f6024820152600080516020611957833981519152604482015290519081900360640190fd5b8060021415610d1b5760408051600160e51b62461bcd02815260206004820152601c6024820152600080516020611937833981519152604482015290519081900360640190fd5b60025460408051600160e01b635a103bb10281526004810185905290516000926001600160a01b031691635a103bb191602480830192602092919082900301818787803b15801561056957600080fd5b92915050565b600092915050565b600080846040516020018082805190602001908083835b60208310610daf5780518252601f199092019160209182019101610d90565b6001836020036101000a0380198251168184511680821785525050505050509050019150506040516020818303038152906040528051906020012090506000846040516020018082805190602001908083835b60208310610e215780518252601f199092019160209182019101610e02565b6001836020036101000a038019825116818451168082178552505050505050905001915050604051602081830303815290604052805190602001209050600081831415610e745760019350505050611929565b846001141561138c5760005460408051600160e71b62e5a2890281526004810186905290516001600160a01b03909216916372d1448091602480820192602092909190829003018186803b158015610ecb57600080fd5b505afa158015610edf573d6000803e3d6000fd5b505050506040513d6020811015610ef557600080fd5b5051156111b25760005460408051600160e51b63044d21090281526004810186905290516001600160a01b03909216916389a4212091602480820192602092909190829003018186803b158015610f4b57600080fd5b505afa158015610f5f573d6000803e3d6000fd5b505050506040513d6020811015610f7557600080fd5b505190506001811415610fc05760408051600160e51b62461bcd02815260206004820152601f6024820152600080516020611957833981519152604482015290519081900360640190fd5b80600214156110075760408051600160e51b62461bcd02815260206004820152601c6024820152600080516020611937833981519152604482015290519081900360640190fd5b6000805460408051600160e01b63e4fa3a930281526004810187905290516001600160a01b039092169163e4fa3a9391602480820192602092909190829003018186803b15801561105757600080fd5b505afa15801561106b573d6000803e3d6000fd5b505050506040513d602081101561108157600080fd5b50519050828114156111625781600514156110a3576001945050505050611929565b81600314156110fc5760408051600160e51b62461bcd02815260206004820181905260248201527f757365722074656d706f727920626c6f636b20696e207468652073797374656d604482015290519081900360640190fd5b81600414156111555760408051600160e51b62461bcd02815260206004820152601860248201527f757365722064656c657465642066726f6d2073797374656d0000000000000000604482015290519081900360640190fd5b6000945050505050611929565b60408051600160e51b62461bcd02815260206004820152601b60248201527f646f73656e2774206d6163746820746869732070617373776f72640000000000604482015290519081900360640190fd5b60015460408051600160e01b63a952fab30281526004810186905290516001600160a01b039092169163a952fab391602480820192602092909190829003018186803b15801561120157600080fd5b505afa158015611215573d6000803e3d6000fd5b505050506040513d602081101561122b57600080fd5b50511561077b5760015460408051600160e21b6308f510990281526004810186905290516001600160a01b03909216916323d4426491602480820192602092909190829003018186803b15801561128157600080fd5b505afa158015611295573d6000803e3d6000fd5b505050506040513d60208110156112ab57600080fd5b5051905060018114156112f65760408051600160e51b62461bcd02815260206004820152601f6024820152600080516020611957833981519152604482015290519081900360640190fd5b806002141561133d5760408051600160e51b62461bcd02815260206004820152601c6024820152600080516020611937833981519152604482015290519081900360640190fd5b60015460408051600160e11b63570207f50281526004810186905290516000926001600160a01b03169163ae040fea916024808301926020929190829003018186803b15801561105757600080fd5b84600214156117465760035460408051600160e01b630bfab7e90281526004810186905290516001600160a01b0390921691630bfab7e991602480820192602092909190829003018186803b1580156113e457600080fd5b505afa1580156113f8573d6000803e3d6000fd5b505050506040513d602081101561140e57600080fd5b50511561156f5760035460408051600160e01b63ec440dbd0281526004810186905290516001600160a01b039092169163ec440dbd91602480820192602092909190829003018186803b15801561146457600080fd5b505afa158015611478573d6000803e3d6000fd5b505050506040513d602081101561148e57600080fd5b5051905060018114156114d95760408051600160e51b62461bcd02815260206004820152601f6024820152600080516020611957833981519152604482015290519081900360640190fd5b80600214156115205760408051600160e51b62461bcd02815260206004820152601c6024820152600080516020611937833981519152604482015290519081900360640190fd5b60035460408051600160e01b63d8264a050281526004810186905290516000926001600160a01b03169163d8264a05916024808301926020929190829003018186803b15801561105757600080fd5b6004805460408051600160e41b630a0e1629028152928301869052516001600160a01b039091169163a0e16290916024808301926020929190829003018186803b1580156115bc57600080fd5b505afa1580156115d0573d6000803e3d6000fd5b505050506040513d60208110156115e657600080fd5b50511561077b576004805460408051600160e11b6361e6992d028152928301869052516001600160a01b039091169163c3cd325a916024808301926020929190829003018186803b15801561163a57600080fd5b505afa15801561164e573d6000803e3d6000fd5b505050506040513d602081101561166457600080fd5b5051905060018114156116af5760408051600160e51b62461bcd02815260206004820152601f6024820152600080516020611957833981519152604482015290519081900360640190fd5b80600214156116f65760408051600160e51b62461bcd02815260206004820152601c6024820152600080516020611937833981519152604482015290519081900360640190fd5b6004805460408051600160e01b6389cda3dd028152928301869052516000926001600160a01b03909216916389cda3dd916024808301926020929190829003018186803b15801561105757600080fd5b84600314156111625760025460408051600160e01b63ea0fd49b0281526004810186905290516001600160a01b039092169163ea0fd49b91602480820192602092909190829003018186803b15801561179e57600080fd5b505afa1580156117b2573d6000803e3d6000fd5b505050506040513d60208110156117c857600080fd5b50511561077b5760025460408051600160e11b63123fd8a10281526004810186905290516001600160a01b039092169163247fb14291602480820192602092909190829003018186803b15801561181e57600080fd5b505afa158015611832573d6000803e3d6000fd5b505050506040513d602081101561184857600080fd5b5051905060018114156118935760408051600160e51b62461bcd02815260206004820152601f6024820152600080516020611957833981519152604482015290519081900360640190fd5b80600214156118da5760408051600160e51b62461bcd02815260206004820152601c6024820152600080516020611937833981519152604482015290519081900360640190fd5b60025460408051600160e01b635d4b3b7f0281526004810186905290516000926001600160a01b031691635d4b3b7f916024808301926020929190829003018186803b15801561105757600080fd5b9392505050565b5060009056fe75736572206e6f7420636f6e6669726d20746869657220656d61696c0000000075736572206e6f7420726567697374657220696e207468652073797374656d00a165627a7a72305820e441cb88d9c9f4f985c98ed64a1bc02526f6878ae82ec008eae1208d7b4ec5430029",
  "source": "pragma solidity >=0.4.21 <0.6.0;\r\n\r\nimport \"./Admin.sol\";\r\nimport \"./Manager.sol\";\r\nimport \"./Distributor.sol\";\r\nimport \"./Loader.sol\";\r\nimport \"./Supervisor.sol\";\r\n\r\ncontract Login {\r\n    AdminContract adminc;\r\n    ManagerContract managerc;\r\n    DistributorContract distributorc;\r\n    LoaderContract loaderc;\r\n    SupervisorContract supervisorc;\r\n    constructor(address ad,address ma,address dis,address lo,address su) public {\r\n        adminc = AdminContract(ad);\r\n        managerc = ManagerContract(ma);\r\n        distributorc = DistributorContract(dis);\r\n        loaderc = LoaderContract(lo);\r\n        supervisorc = SupervisorContract(su);\r\n    }\r\n    // struct Packet{\r\n    //     uint packetId;\r\n    //     uint boxId;\r\n    //     uint productId;\r\n    //     uint rate;\r\n    // }\r\n    // struct Box{\r\n    //     uint boxtId;\r\n    //     uint containerId;\r\n    //     uint orderId;\r\n    //     uint[] distributorIndex;\r\n    //     uint256[]  time;\r\n    // }\r\n    // struct Container{\r\n    //     uint containerId;\r\n    //     uint orderId;\r\n    //     uint rate;\r\n    //     uint[] distributorIndex;\r\n    //     uint256[]  time;\r\n    // }\r\n    // struct Order{\r\n    //     uint packetId;\r\n    //     uint orderId;\r\n    // }\r\n    // struct Product{\r\n    //     uint packetId;\r\n    //     uint orderId;\r\n    //     uint rate;\r\n\r\n    // }\r\n    // struct Estate{\r\n    //     uint packetId;\r\n    //     uint orderId;\r\n    //     uint rate;\r\n\r\n    // }\r\n\r\n    // struct Manager{\r\n    //     string email;\r\n    //     string firstName;\r\n    //     string lastName;\r\n    //     uint userType;\r\n    //     bool userAccess;\r\n    // }\r\n    // struct Worker{\r\n    //     string email;\r\n    //     string firstName;\r\n    //     string lastName;\r\n    //     uint userType;\r\n    //     bool userAccess;\r\n    // }\r\n    // struct Distributor{\r\n    //     string email;\r\n    //     string firstName;\r\n    //     string lastName;\r\n    //     string location;\r\n    //     string countryIsoCode;\r\n    //     uint userType;\r\n    //     bool userAccess;\r\n\r\n    // }\r\n\r\n    // function scanDistributor(/*uint64 _boxtId,uint64 _distributorId*/)public pure returns(bool){\r\n    //     // first map packet id and get packet location\r\n    //     // second we store distributor id in box distributors array\r\n    //     return true;\r\n    // }\r\n\r\n    // function scanPacket(/*uint64 _packetId*/)public pure returns(/* packetdtail*//*supply chin */bool){\r\n    //     return true;\r\n    // }\r\n\r\n    function login(string memory _email,string memory _password,uint _appId)public view returns(bool){\r\n\r\n        bytes32 email = keccak256(abi.encodePacked((_email)));\r\n        bytes32 password = keccak256(abi.encodePacked((_password)));\r\n        uint userAccess;\r\n        if(email == password){\r\n            return true;\r\n        }\r\n\r\n        if(_appId==1){\r\n            if(adminc.isAdmin(email)){\r\n                userAccess = adminc.checkAdminUserAccess(email);\r\n                require(!(userAccess == 1), \"user not register in the system\");\r\n                require(!(userAccess == 2),\"user not confirm thier email\");\r\n                bytes32 passwordCode = adminc.checkAdminPasswordCode(email);\r\n                if(passwordCode == password ){\r\n                    if(userAccess == 5){\r\n                        return true;\r\n                    }else{\r\n                        require(!(userAccess == 3),\"user tempory block in the system\");\r\n                        require(!(userAccess == 4),\"user deleted from system\");\r\n                        return false;\r\n                    }\r\n                } else {\r\n                    require(false,\"dosen't macth this password\");\r\n                    return false;\r\n                }\r\n            } else if(managerc.isManager(email)){\r\n                userAccess = managerc.checkManagerUserAccess(email);\r\n                require(!(userAccess == 1),\"user not register in the system\");\r\n                require(!(userAccess == 2),\"user not confirm thier email\");\r\n                bytes32 passwordCode = managerc.checkManagerPasswordCode(email);\r\n                if(passwordCode == password ){\r\n                    if(userAccess == 5){\r\n                        return true;\r\n                    }else{\r\n                        require(!(userAccess == 3),\"user tempory block in the system\");\r\n                        require(!(userAccess == 4),\"user deleted from system\");\r\n                        return false;\r\n                    }\r\n                } else {\r\n                    require(false,\"dosen't macth this password\");\r\n                    return false;\r\n                }\r\n            } else {\r\n                require(false,\"dosen't macth this email\");\r\n            }\r\n        }\r\n        else if(_appId==2){\r\n            if(loaderc.isLoader(email)){\r\n                userAccess = loaderc.checkLoaderUserAccess(email);\r\n                require(!(userAccess == 1), \"user not register in the system\");\r\n                require(!(userAccess == 2),\"user not confirm thier email\");\r\n                bytes32 passwordCode = loaderc.checkLoaderPasswordCode(email);\r\n                if(passwordCode == password ){\r\n                    if(userAccess == 5){\r\n                        return true;\r\n                    }else{\r\n                        require(!(userAccess == 3),\"user tempory block in the system\");\r\n                        require(!(userAccess == 4),\"user deleted from system\");\r\n                        return false;\r\n                    }\r\n                } else {\r\n                    require(false,\"dosen't macth this password\");\r\n                    return false;\r\n                }\r\n            } else if(supervisorc.isSupervisor(email)){\r\n                userAccess = supervisorc.checkSupervisorUserAccess(email);\r\n                require(!(userAccess == 1),\"user not register in the system\");\r\n                require(!(userAccess == 2),\"user not confirm thier email\");\r\n                bytes32 passwordCode = supervisorc.checkSupervisorPasswordCode(email);\r\n                if(passwordCode == password ){\r\n                    if(userAccess == 5){\r\n                        return true;\r\n                    }else{\r\n                        require(!(userAccess == 3),\"user tempory block in the system\");\r\n                        require(!(userAccess == 4),\"user deleted from system\");\r\n                        return false;\r\n                    }\r\n                } else {\r\n                    require(false,\"dosen't macth this password\");\r\n                    return false;\r\n                }\r\n            } else {\r\n                require(false,\"dosen't macth this email\");\r\n            }\r\n        }\r\n        else if(_appId == 3){\r\n            if(distributorc.isDistributor(email)){\r\n                userAccess = distributorc.checkDistributorUserAccess(email);\r\n                require(!(userAccess == 1), \"user not register in the system\");\r\n                require(!(userAccess == 2),\"user not confirm thier email\");\r\n                bytes32 passwordCode = distributorc.checkDistributorPasswordCode(email);\r\n                if(passwordCode == password ){\r\n                    if(userAccess == 5){\r\n                        return true;\r\n                    }else{\r\n                        require(!(userAccess == 3),\"user tempory block in the system\");\r\n                        require(!(userAccess == 4),\"user deleted from system\");\r\n                        return false;\r\n                    }\r\n                } else {\r\n                    require(false,\"dosen't macth this password\");\r\n                    return false;\r\n                }\r\n            } else {\r\n                require(false,\"dosen't macth this email\");\r\n            }\r\n        }\r\n        else{\r\n            require(false,\"dosen't macth this password\");\r\n        }\r\n    }\r\n\r\n    //mapping(address => UserStruct) private userStructs;\r\n    //address[] private adminIndex;\r\n\r\n    //\r\n    //  mapping(uint => Box) public boxes;\r\n    //  mapping(uint => Packet) public packets;\r\n\r\n\r\n    // event LogNewUser(address indexed userAddress, uint index, bytes32 userEmail, uint userAge);\r\n    // event LogUpdateUser(address indexed userAddress, uint index, bytes32 userEmail, uint userAge);\r\n\r\n\r\n/////////////////////////\r\n    ///\r\n    function registation(bytes32 token) public returns(bool) {\r\n       // return true;\r\n    }\r\n    function frogetPassword(string memory _email,uint _appId) public returns(bytes32) {\r\n        // x\r\n        bytes32 email = keccak256(abi.encodePacked((_email)));\r\n        uint userAccess;\r\n        if(_appId==1){\r\n            if(adminc.isAdmin(email)){\r\n                userAccess = adminc.checkAdminUserAccess(email);\r\n                require(!(userAccess == 1), \"user not register in the system\");\r\n                require(!(userAccess == 2),\"user not confirm thier email\");\r\n                bytes32 resetToken = adminc.createAdminToken(email);\r\n                return resetToken;\r\n                \r\n            } else if(managerc.isManager(email)){\r\n                userAccess = managerc.checkManagerUserAccess(email);\r\n                require(!(userAccess == 1),\"user not register in the system\");\r\n                require(!(userAccess == 2),\"user not confirm thier email\");\r\n                bytes32 resetToken = managerc.createManagerToken(email);\r\n                return resetToken;\r\n                \r\n            } else {\r\n                require(false,\"dosen't macth this email\");\r\n            }\r\n        }\r\n        else if(_appId==2){\r\n            if(loaderc.isLoader(email)){\r\n                userAccess = loaderc.checkLoaderUserAccess(email);\r\n                require(!(userAccess == 1), \"user not register in the system\");\r\n                require(!(userAccess == 2),\"user not confirm thier email\");\r\n                bytes32 resetToken = loaderc.createLoaderToken(email);\r\n                return resetToken;\r\n            } else if(supervisorc.isSupervisor(email)){\r\n                userAccess = supervisorc.checkSupervisorUserAccess(email);\r\n                require(!(userAccess == 1),\"user not register in the system\");\r\n                require(!(userAccess == 2),\"user not confirm thier email\");\r\n                bytes32 resetToken = supervisorc.createSupervisorToken(email);\r\n                return resetToken;\r\n            } else {\r\n                require(false,\"dosen't macth this email\");\r\n            }\r\n        }\r\n        else if(_appId == 3){\r\n            if(distributorc.isDistributor(email)){\r\n                userAccess = distributorc.checkDistributorUserAccess(email);\r\n                require(!(userAccess == 1), \"user not register in the system\");\r\n                require(!(userAccess == 2),\"user not confirm thier email\");\r\n                bytes32 resetToken = distributorc.createDistributorToken(email);\r\n                return resetToken;\r\n            } else {\r\n                require(false,\"dosen't macth this email\");\r\n            }\r\n        }\r\n        else{\r\n            require(false,\"dosen't macth this email\");\r\n        }\r\n\r\n    }\r\n    function resetPassword(bytes32 token,string memory password)public returns(bool) {\r\n\r\n    }\r\n    // function createBox() public returns(bool){\r\n\r\n    // }\r\n    // function creatPacket() public returns(bool){\r\n    // }\r\n\r\n\r\n}\r\n",
  "sourcePath": "C:/project/tea supply chain mangement system/test2/contracts/Login.sol",
  "compiler": {
    "name": "solc",
    "version": "0.5.8+commit.23d335f2.Emscripten.clang"
  },
  "schemaVersion": "3.0.16",
  "updatedAt": "2020-01-10T17:22:01.877Z",
  "devdoc": {
    "methods": {}
  },
  "userdoc": {
    "methods": {}
  }
}