{
  "contractName": "Login",
  "abi": [
    {
      "inputs": [
        {
          "name": "ad",
          "type": "address"
        },
        {
          "name": "ma",
          "type": "address"
        },
        {
          "name": "dis",
          "type": "address"
        },
        {
          "name": "lo",
          "type": "address"
        },
        {
          "name": "su",
          "type": "address"
        }
      ],
      "payable": false,
      "stateMutability": "nonpayable",
      "type": "constructor"
    },
    {
      "constant": true,
      "inputs": [
        {
          "name": "_email",
          "type": "string"
        },
        {
          "name": "_password",
          "type": "string"
        },
        {
          "name": "_appId",
          "type": "uint256"
        }
      ],
      "name": "login",
      "outputs": [
        {
          "name": "",
          "type": "bool"
        }
      ],
      "payable": false,
      "stateMutability": "view",
      "type": "function"
    },
    {
      "constant": false,
      "inputs": [
        {
          "name": "token",
          "type": "bytes32"
        }
      ],
      "name": "registation",
      "outputs": [
        {
          "name": "",
          "type": "bool"
        }
      ],
      "payable": false,
      "stateMutability": "nonpayable",
      "type": "function"
    },
    {
      "constant": false,
      "inputs": [
        {
          "name": "_email",
          "type": "string"
        }
      ],
      "name": "frogetPassword",
      "outputs": [
        {
          "name": "",
          "type": "bool"
        }
      ],
      "payable": false,
      "stateMutability": "nonpayable",
      "type": "function"
    },
    {
      "constant": false,
      "inputs": [
        {
          "name": "token",
          "type": "bytes32"
        },
        {
          "name": "password",
          "type": "string"
        }
      ],
      "name": "resetPassword",
      "outputs": [
        {
          "name": "",
          "type": "bool"
        }
      ],
      "payable": false,
      "stateMutability": "nonpayable",
      "type": "function"
    }
  ],
  "bytecode": "0x608060405234801561001057600080fd5b5060405160a080610acd833981018060405260a081101561003057600080fd5b508051602082015160408301516060840151608090940151600080546001600160a01b039586166001600160a01b03199182161790915560018054948616948216949094179093556002805492851692841692909217909155600380549484169483169490941790935560048054929093169116179055610a17806100b66000396000f3fe608060405234801561001057600080fd5b506004361061004c5760003560e01c8063054f1a5a146100515780632c848ac414610109578063651cbbc7146101b4578063e3797ad6146102df575b600080fd5b6100f56004803603602081101561006757600080fd5b810190602081018135600160201b81111561008157600080fd5b82018360208201111561009357600080fd5b803590602001918460018302840111600160201b831117156100b457600080fd5b91908080601f0160208091040260200160405190810160405280939291908181526020018383808284376000920191909152509295506102f8945050505050565b604080519115158252519081900360200190f35b6100f56004803603604081101561011f57600080fd5b81359190810190604081016020820135600160201b81111561014057600080fd5b82018360208201111561015257600080fd5b803590602001918460018302840111600160201b8311171561017357600080fd5b91908080601f0160208091040260200160405190810160405280939291908181526020018383808284376000920191909152509295506102fe945050505050565b6100f5600480360360608110156101ca57600080fd5b810190602081018135600160201b8111156101e457600080fd5b8201836020820111156101f657600080fd5b803590602001918460018302840111600160201b8311171561021757600080fd5b91908080601f0160208091040260200160405190810160405280939291908181526020018383808284376000920191909152509295949360208101935035915050600160201b81111561026957600080fd5b82018360208201111561027b57600080fd5b803590602001918460018302840111600160201b8311171561029c57600080fd5b91908080601f0160208091040260200160405190810160405280939291908181526020018383808284376000920191909152509295505091359250610306915050565b6100f5600480360360208110156102f557600080fd5b50355b50600090565b600092915050565b600080846040516020018082805190602001908083835b6020831061033c5780518252601f19909201916020918201910161031d565b6001836020036101000a0380198251168184511680821785525050505050509050019150506040516020818303038152906040528051906020012090506000846040516020018082805190602001908083835b602083106103ae5780518252601f19909201916020918201910161038f565b6001836020036101000a03801982511681845116808217855250505050505090500191505060405160208183030381529060405280519060200120905060008183141561040157600193505050506109e4565b84600114156109b25760005460408051600160e51b63044d21090281526004810186905290516001600160a01b03909216916389a4212091602480820192602092909190829003018186803b15801561045957600080fd5b505afa15801561046d573d6000803e3d6000fd5b505050506040513d602081101561048357600080fd5b505160005460408051600160e71b62e5a2890281526004810187905290519293506001600160a01b03909116916372d1448091602480820192602092909190829003018186803b1580156104d657600080fd5b505afa1580156104ea573d6000803e3d6000fd5b505050506040513d602081101561050057600080fd5b5051156107645780600114156105605760408051600160e51b62461bcd02815260206004820152601f60248201527f75736572206e6f7420726567697374657220696e207468652073797374656d00604482015290519081900360640190fd5b80600214156105b95760408051600160e51b62461bcd02815260206004820152601c60248201527f75736572206e6f7420636f6e6669726d20746869657220656d61696c00000000604482015290519081900360640190fd5b6000805460408051600160e01b63e4fa3a930281526004810187905290516001600160a01b039092169163e4fa3a9391602480820192602092909190829003018186803b15801561060957600080fd5b505afa15801561061d573d6000803e3d6000fd5b505050506040513d602081101561063357600080fd5b50519050828114156107145781600514156106555760019450505050506109e4565b81600314156106ae5760408051600160e51b62461bcd02815260206004820181905260248201527f757365722074656d706f727920626c6f636b20696e207468652073797374656d604482015290519081900360640190fd5b81600414156107075760408051600160e51b62461bcd02815260206004820152601860248201527f757365722064656c657465642066726f6d2073797374656d0000000000000000604482015290519081900360640190fd5b60009450505050506109e4565b60408051600160e51b62461bcd02815260206004820152601b60248201527f646f73656e2774206d6163746820746869732070617373776f72640000000000604482015290519081900360640190fd5b60015460408051600160e01b63a952fab30281526004810186905290516001600160a01b039092169163a952fab391602480820192602092909190829003018186803b1580156107b357600080fd5b505afa1580156107c7573d6000803e3d6000fd5b505050506040513d60208110156107dd57600080fd5b5051156109625760015460408051600160e21b6308f510990281526004810186905290516001600160a01b03909216916323d4426491602480820192602092909190829003018186803b15801561083357600080fd5b505afa158015610847573d6000803e3d6000fd5b505050506040513d602081101561085d57600080fd5b5051905060018114156108ba5760408051600160e51b62461bcd02815260206004820152601f60248201527f75736572206e6f7420726567697374657220696e207468652073797374656d00604482015290519081900360640190fd5b80600214156109135760408051600160e51b62461bcd02815260206004820152601c60248201527f75736572206e6f7420636f6e6669726d20746869657220656d61696c00000000604482015290519081900360640190fd5b60015460408051600160e11b63570207f50281526004810186905290516000926001600160a01b03169163ae040fea916024808301926020929190829003018186803b15801561060957600080fd5b60408051600160e51b62461bcd02815260206004820152601860248201527f646f73656e2774206d61637468207468697320656d61696c0000000000000000604482015290519081900360640190fd5b84600214156109c757600193505050506109e4565b84600314156109dc57600193505050506109e4565b600093505050505b939250505056fea165627a7a72305820c478e40f95370295aa3278310652e72402d6689ac7ad973022c8ee05f32d37600029",
  "source": "pragma solidity >=0.4.21 <0.6.0;\r\n\r\nimport \"./Admin.sol\";\r\nimport \"./Manager.sol\";\r\nimport \"./Distributor.sol\";\r\nimport \"./Loader.sol\";\r\nimport \"./Supervisor.sol\";\r\n\r\ncontract Login {\r\n    AdminContract adminc;\r\n    ManagerContract managerc;\r\n    DistributorContract distributorc;\r\n    LoaderContract loaderc;\r\n    SupervisorContract supervisorc;\r\n    constructor(address ad,address ma,address dis,address lo,address su) public {\r\n        adminc = AdminContract(ad);\r\n        managerc = ManagerContract(ma);\r\n        distributorc = DistributorContract(dis);\r\n        loaderc = LoaderContract(lo);\r\n        supervisorc = SupervisorContract(su);\r\n    }\r\n    // struct Packet{\r\n    //     uint packetId;\r\n    //     uint boxId;\r\n    //     uint productId;\r\n    //     uint rate;\r\n    // }\r\n    // struct Box{\r\n    //     uint boxtId;\r\n    //     uint containerId;\r\n    //     uint orderId;\r\n    //     uint[] distributorIndex;\r\n    //     uint256[]  time;\r\n    // }\r\n    // struct Container{\r\n    //     uint containerId;\r\n    //     uint orderId;\r\n    //     uint rate;\r\n    //     uint[] distributorIndex;\r\n    //     uint256[]  time;\r\n    // }\r\n    // struct Order{\r\n    //     uint packetId;\r\n    //     uint orderId;\r\n    // }\r\n    // struct Product{\r\n    //     uint packetId;\r\n    //     uint orderId;\r\n    //     uint rate;\r\n\r\n    // }\r\n    // struct Estate{\r\n    //     uint packetId;\r\n    //     uint orderId;\r\n    //     uint rate;\r\n\r\n    // }\r\n\r\n    // struct Manager{\r\n    //     string email;\r\n    //     string firstName;\r\n    //     string lastName;\r\n    //     uint userType;\r\n    //     bool userAccess;\r\n    // }\r\n    // struct Worker{\r\n    //     string email;\r\n    //     string firstName;\r\n    //     string lastName;\r\n    //     uint userType;\r\n    //     bool userAccess;\r\n    // }\r\n    // struct Distributor{\r\n    //     string email;\r\n    //     string firstName;\r\n    //     string lastName;\r\n    //     string location;\r\n    //     string countryIsoCode;\r\n    //     uint userType;\r\n    //     bool userAccess;\r\n\r\n    // }\r\n\r\n    // function scanDistributor(/*uint64 _boxtId,uint64 _distributorId*/)public pure returns(bool){\r\n    //     // first map packet id and get packet location\r\n    //     // second we store distributor id in box distributors array\r\n    //     return true;\r\n    // }\r\n\r\n    // function scanPacket(/*uint64 _packetId*/)public pure returns(/* packetdtail*//*supply chin */bool){\r\n    //     return true;\r\n    // }\r\n\r\n    function login(string memory _email,string memory _password,uint _appId)public view returns(bool){\r\n\r\n        bytes32 email = keccak256(abi.encodePacked((_email)));\r\n        bytes32 password = keccak256(abi.encodePacked((_password)));\r\n        uint userAccess;\r\n        if(email == password){\r\n            return true;\r\n        }\r\n\r\n        if(_appId==1){\r\n        \r\n            userAccess = adminc.checkAdminUserAccess(email);\r\n            \r\n            if(adminc.isAdmin(email)){\r\n                require(!(userAccess== 1),\"user not register in the system\");\r\n                require(!(userAccess == 2),\"user not confirm thier email\");\r\n                bytes32 passwordCode = adminc.checkAdminPasswordCode(email);\r\n                if(passwordCode == password ){\r\n                    if(userAccess == 5){\r\n                        return true;\r\n                    }else{\r\n                        require(!(userAccess == 3),\"user tempory block in the system\");\r\n                        require(!(userAccess == 4),\"user deleted from system\");\r\n                        return false;\r\n                    }\r\n                } else {\r\n                    require(false,\"dosen't macth this password\");\r\n                    return false;\r\n                }\r\n            } else if(managerc.isManager(email)){\r\n                userAccess = managerc.checkManagerUserAccess(email);\r\n                require(!(userAccess== 1),\"user not register in the system\");\r\n                require(!(userAccess == 2),\"user not confirm thier email\");\r\n                bytes32 passwordCode = managerc.checkManagerPasswordCode(email);\r\n                if(passwordCode == password ){\r\n                    if(userAccess == 5){\r\n                        return true;\r\n                    }else{\r\n                        require(!(userAccess == 3),\"user tempory block in the system\");\r\n                        require(!(userAccess == 4),\"user deleted from system\");\r\n                        return false;\r\n                    }\r\n                } else {\r\n                    require(false,\"dosen't macth this password\");\r\n                    return false;\r\n                }\r\n                \r\n            } else {\r\n                require(false,\"dosen't macth this email\");\r\n            }\r\n        }\r\n        else if(_appId==2){\r\n            return true;\r\n        }\r\n        else if(_appId == 3){\r\n            return true;\r\n        }\r\n        else{\r\n            return false;\r\n        }\r\n    }\r\n    \r\n   \r\n    \r\n\r\n    //mapping(address => UserStruct) private userStructs;\r\n    //address[] private adminIndex;\r\n\r\n    //\r\n    //  mapping(uint => Box) public boxes;\r\n    //  mapping(uint => Packet) public packets;\r\n\r\n\r\n    // event LogNewUser(address indexed userAddress, uint index, bytes32 userEmail, uint userAge);\r\n    // event LogUpdateUser(address indexed userAddress, uint index, bytes32 userEmail, uint userAge);\r\n    \r\n\r\n/////////////////////////\r\n    \r\n\r\n    \r\n    ///\r\n    function registation(bytes32 token) public returns(bool)\r\n    {\r\n       // return true;\r\n    }\r\n    function frogetPassword(string memory _email) public returns(bool)\r\n    {\r\n        \r\n    }\r\n    function resetPassword(bytes32 token,string memory password)public returns(bool)\r\n    {\r\n\r\n    }\r\n    // function createBox() public returns(bool){\r\n\r\n    // }\r\n    // function creatPacket() public returns(bool){\r\n    // }\r\n\r\n\r\n}\r\n",
  "sourcePath": "C:/project/tea supply chain mangement system/test2/contracts/Login.sol",
  "compiler": {
    "name": "solc",
    "version": "0.5.8+commit.23d335f2.Emscripten.clang"
  },
  "schemaVersion": "3.0.16",
  "updatedAt": "2019-11-16T02:02:56.765Z",
  "devdoc": {
    "methods": {}
  },
  "userdoc": {
    "methods": {}
  }
}