{
  "contractName": "Login",
  "abi": [
    {
      "inputs": [
        {
          "internalType": "address",
          "name": "ad",
          "type": "address"
        },
        {
          "internalType": "address",
          "name": "ma",
          "type": "address"
        },
        {
          "internalType": "address",
          "name": "dis",
          "type": "address"
        },
        {
          "internalType": "address",
          "name": "lo",
          "type": "address"
        },
        {
          "internalType": "address",
          "name": "su",
          "type": "address"
        }
      ],
      "payable": false,
      "stateMutability": "nonpayable",
      "type": "constructor"
    },
    {
      "constant": true,
      "inputs": [],
      "name": "adminc",
      "outputs": [
        {
          "internalType": "contract AdminContract",
          "name": "",
          "type": "address"
        }
      ],
      "payable": false,
      "stateMutability": "view",
      "type": "function"
    },
    {
      "constant": true,
      "inputs": [],
      "name": "distributorc",
      "outputs": [
        {
          "internalType": "contract DistributorContract",
          "name": "",
          "type": "address"
        }
      ],
      "payable": false,
      "stateMutability": "view",
      "type": "function"
    },
    {
      "constant": true,
      "inputs": [],
      "name": "loaderc",
      "outputs": [
        {
          "internalType": "contract LoaderContract",
          "name": "",
          "type": "address"
        }
      ],
      "payable": false,
      "stateMutability": "view",
      "type": "function"
    },
    {
      "constant": true,
      "inputs": [],
      "name": "managerc",
      "outputs": [
        {
          "internalType": "contract ManagerContract",
          "name": "",
          "type": "address"
        }
      ],
      "payable": false,
      "stateMutability": "view",
      "type": "function"
    },
    {
      "constant": true,
      "inputs": [],
      "name": "supervisorc",
      "outputs": [
        {
          "internalType": "contract SupervisorContract",
          "name": "",
          "type": "address"
        }
      ],
      "payable": false,
      "stateMutability": "view",
      "type": "function"
    },
    {
      "constant": true,
      "inputs": [
        {
          "internalType": "string",
          "name": "_email",
          "type": "string"
        },
        {
          "internalType": "string",
          "name": "_password",
          "type": "string"
        },
        {
          "internalType": "uint256",
          "name": "_appId",
          "type": "uint256"
        }
      ],
      "name": "login",
      "outputs": [
        {
          "internalType": "bool",
          "name": "",
          "type": "bool"
        }
      ],
      "payable": false,
      "stateMutability": "view",
      "type": "function"
    },
    {
      "constant": true,
      "inputs": [
        {
          "internalType": "string",
          "name": "_email",
          "type": "string"
        },
        {
          "internalType": "bytes32",
          "name": "token",
          "type": "bytes32"
        },
        {
          "internalType": "uint256",
          "name": "_appId",
          "type": "uint256"
        }
      ],
      "name": "registation",
      "outputs": [
        {
          "internalType": "bool",
          "name": "",
          "type": "bool"
        },
        {
          "internalType": "uint256",
          "name": "",
          "type": "uint256"
        }
      ],
      "payable": false,
      "stateMutability": "view",
      "type": "function"
    },
    {
      "constant": true,
      "inputs": [
        {
          "internalType": "string",
          "name": "_email",
          "type": "string"
        },
        {
          "internalType": "uint256",
          "name": "_appId",
          "type": "uint256"
        }
      ],
      "name": "frogetPassword",
      "outputs": [
        {
          "internalType": "bool",
          "name": "",
          "type": "bool"
        },
        {
          "internalType": "uint256",
          "name": "",
          "type": "uint256"
        }
      ],
      "payable": false,
      "stateMutability": "view",
      "type": "function"
    },
    {
      "constant": true,
      "inputs": [
        {
          "internalType": "string",
          "name": "_email",
          "type": "string"
        },
        {
          "internalType": "bytes32",
          "name": "token",
          "type": "bytes32"
        },
        {
          "internalType": "uint256",
          "name": "_appId",
          "type": "uint256"
        }
      ],
      "name": "resetPassword",
      "outputs": [
        {
          "internalType": "bool",
          "name": "",
          "type": "bool"
        },
        {
          "internalType": "uint256",
          "name": "",
          "type": "uint256"
        }
      ],
      "payable": false,
      "stateMutability": "view",
      "type": "function"
    }
  ],
  "bytecode": "0x608060405234801561001057600080fd5b50604051612f75380380612f75833981810160405260a081101561003357600080fd5b508051602082015160408301516060840151608090940151600280546001600160a01b039586166001600160a01b03199182168117909255600180549587169582168617905560008054948716948216851790556003805497871697821688179055600480549690931695811686179092556005805483169091179055600680548216909317909255600780548316909117905560088054821690931790925560098054909216179055612e89806100ec6000396000f3fe608060405234801561001057600080fd5b50600436106100935760003560e01c8063861ebb9111610066578063861ebb911461036557806386a14c2f1461040e578063c4b4051a14610416578063dd128d591461041e578063f2252f981461042657610093565b806302d256ca1461009857806325260174146101595780635244df2c14610202578063651cbbc714610226575b600080fd5b61013e600480360360408110156100ae57600080fd5b810190602081018135600160201b8111156100c857600080fd5b8201836020820111156100da57600080fd5b803590602001918460018302840111600160201b831117156100fb57600080fd5b91908080601f016020809104026020016040519081016040528093929190818152602001838380828437600092019190915250929550509135925061042e915050565b60408051921515835260208301919091528051918290030190f35b61013e6004803603606081101561016f57600080fd5b810190602081018135600160201b81111561018957600080fd5b82018360208201111561019b57600080fd5b803590602001918460018302840111600160201b831117156101bc57600080fd5b91908080601f0160208091040260200160405190810160405280939291908181526020018383808284376000920191909152509295505082359350505060200135610cda565b61020a611a58565b604080516001600160a01b039092168252519081900360200190f35b6103516004803603606081101561023c57600080fd5b810190602081018135600160201b81111561025657600080fd5b82018360208201111561026857600080fd5b803590602001918460018302840111600160201b8311171561028957600080fd5b91908080601f0160208091040260200160405190810160405280939291908181526020018383808284376000920191909152509295949360208101935035915050600160201b8111156102db57600080fd5b8201836020820111156102ed57600080fd5b803590602001918460018302840111600160201b8311171561030e57600080fd5b91908080601f0160208091040260200160405190810160405280939291908181526020018383808284376000920191909152509295505091359250611a67915050565b604080519115158252519081900360200190f35b61013e6004803603606081101561037b57600080fd5b810190602081018135600160201b81111561039557600080fd5b8201836020820111156103a757600080fd5b803590602001918460018302840111600160201b831117156103c857600080fd5b91908080601f01602080910402602001604051908101604052809392919081815260200183838082843760009201919091525092955050823593505050602001356125ca565b61020a612d96565b61020a612da5565b61020a612db4565b61020a612dc3565b6000806000846040516020018082805190602001908083835b602083106104665780518252601f199092019160209182019101610447565b6001836020036101000a03801982511681845116808217855250505050505090500191505060405160208183030381529060405280519060200120905060008460011415610818576002546040805162e5a28960e71b81526004810185905290516001600160a01b03909216916372d1448091602480820192602092909190829003018186803b1580156104f957600080fd5b505afa15801561050d573d6000803e3d6000fd5b505050506040513d602081101561052357600080fd5b50511561063c576002546040805163044d210960e51b81526004810185905290516001600160a01b03909216916389a4212091602480820192602092909190829003018186803b15801561057657600080fd5b505afa15801561058a573d6000803e3d6000fd5b505050506040513d60208110156105a057600080fd5b5051905060018114156105e8576040805162461bcd60e51b815260206004820152601f6024820152600080516020612df3833981519152604482015290519081900360640190fd5b806002141561062c576040805162461bcd60e51b815260206004820152601c6024820152600080516020612dd3833981519152604482015290519081900360640190fd5b5060019250600b9150610cd39050565b6001546040805163a952fab360e01b81526004810185905290516001600160a01b039092169163a952fab391602480820192602092909190829003018186803b15801561068857600080fd5b505afa15801561069c573d6000803e3d6000fd5b505050506040513d60208110156106b257600080fd5b5051156107cb57600154604080516308f5109960e21b81526004810185905290516001600160a01b03909216916323d4426491602480820192602092909190829003018186803b15801561070557600080fd5b505afa158015610719573d6000803e3d6000fd5b505050506040513d602081101561072f57600080fd5b505190506001811415610777576040805162461bcd60e51b815260206004820152601f6024820152600080516020612df3833981519152604482015290519081900360640190fd5b80600214156107bb576040805162461bcd60e51b815260206004820152601c6024820152600080516020612dd3833981519152604482015290519081900360640190fd5b5060019250600c9150610cd39050565b6040805162461bcd60e51b815260206004820152601860248201527f646f73656e2774206d61637468207468697320656d61696c0000000000000000604482015290519081900360640190fd5b8460021415610b3b5760035460408051630bfab7e960e01b81526004810185905290516001600160a01b0390921691630bfab7e991602480820192602092909190829003018186803b15801561086d57600080fd5b505afa158015610881573d6000803e3d6000fd5b505050506040513d602081101561089757600080fd5b5051156109b0576003546040805163ec440dbd60e01b81526004810185905290516001600160a01b039092169163ec440dbd91602480820192602092909190829003018186803b1580156108ea57600080fd5b505afa1580156108fe573d6000803e3d6000fd5b505050506040513d602081101561091457600080fd5b50519050600181141561095c576040805162461bcd60e51b815260206004820152601f6024820152600080516020612df3833981519152604482015290519081900360640190fd5b80600214156109a0576040805162461bcd60e51b815260206004820152601c6024820152600080516020612dd3833981519152604482015290519081900360640190fd5b506001925060159150610cd39050565b6004805460408051630a0e162960e41b8152928301859052516001600160a01b039091169163a0e16290916024808301926020929190829003018186803b1580156109fa57600080fd5b505afa158015610a0e573d6000803e3d6000fd5b505050506040513d6020811015610a2457600080fd5b5051156107cb5760048054604080516361e6992d60e11b8152928301859052516001600160a01b039091169163c3cd325a916024808301926020929190829003018186803b158015610a7557600080fd5b505afa158015610a89573d6000803e3d6000fd5b505050506040513d6020811015610a9f57600080fd5b505190506001811415610ae7576040805162461bcd60e51b815260206004820152601f6024820152600080516020612df3833981519152604482015290519081900360640190fd5b8060021415610b2b576040805162461bcd60e51b815260206004820152601c6024820152600080516020612dd3833981519152604482015290519081900360640190fd5b506001925060169150610cd39050565b84600314156107cb576000546040805163ea0fd49b60e01b81526004810185905290516001600160a01b039092169163ea0fd49b91602480820192602092909190829003018186803b158015610b9057600080fd5b505afa158015610ba4573d6000803e3d6000fd5b505050506040513d6020811015610bba57600080fd5b5051156107cb576000546040805163123fd8a160e11b81526004810185905290516001600160a01b039092169163247fb14291602480820192602092909190829003018186803b158015610c0d57600080fd5b505afa158015610c21573d6000803e3d6000fd5b505050506040513d6020811015610c3757600080fd5b505190506001811415610c7f576040805162461bcd60e51b815260206004820152601f6024820152600080516020612df3833981519152604482015290519081900360640190fd5b8060021415610cc3576040805162461bcd60e51b815260206004820152601c6024820152600080516020612dd3833981519152604482015290519081900360640190fd5b5060019250601f9150610cd39050565b9250929050565b6000806000856040516020018082805190602001908083835b60208310610d125780518252601f199092019160209182019101610cf3565b6001836020036101000a038019825116818451168082178552505050505050905001915050604051602081830303815290604052805190602001209050600084600114156112f0576002546040805162e5a28960e71b81526004810185905290516001600160a01b03909216916372d1448091602480820192602092909190829003018186803b158015610da557600080fd5b505afa158015610db9573d6000803e3d6000fd5b505050506040513d6020811015610dcf57600080fd5b505115611007576002546040805163044d210960e51b81526004810185905290516001600160a01b03909216916389a4212091602480820192602092909190829003018186803b158015610e2257600080fd5b505afa158015610e36573d6000803e3d6000fd5b505050506040513d6020811015610e4c57600080fd5b505190506004811415610e94576040805162461bcd60e51b815260206004820152601b6024820152600080516020612e35833981519152604482015290519081900360640190fd5b8060031415610ed45760405162461bcd60e51b8152600401808060200182810382526022815260200180612e136022913960400191505060405180910390fd5b600254604080516317141dc760e21b815260248101899052600481019182528951604482015289516001600160a01b0390931692635c50771c928b928b92829160640190602086019080838360005b83811015610f3b578181015183820152602001610f23565b50505050905090810190601f168015610f685780820380516001836020036101000a031916815260200191505b50935050505060206040518083038186803b158015610f8657600080fd5b505afa158015610f9a573d6000803e3d6000fd5b505050506040513d6020811015610fb057600080fd5b505115610fc7575060019250600b9150611a509050565b6040805162461bcd60e51b815260206004820152601060248201526f1d1bdad95b881a5cc81a5b9d985b1a5960821b604482015290519081900360640190fd5b6001546040805163a952fab360e01b81526004810185905290516001600160a01b039092169163a952fab391602480820192602092909190829003018186803b15801561105357600080fd5b505afa158015611067573d6000803e3d6000fd5b505050506040513d602081101561107d57600080fd5b5051156107cb57600154604080516308f5109960e21b81526004810185905290516001600160a01b03909216916323d4426491602480820192602092909190829003018186803b1580156110d057600080fd5b505afa1580156110e4573d6000803e3d6000fd5b505050506040513d60208110156110fa57600080fd5b5051600154604080516308f5109960e21b81526004810186905290519293506001600160a01b03909116916323d4426491602480820192602092909190829003018186803b15801561114b57600080fd5b505afa15801561115f573d6000803e3d6000fd5b505050506040513d602081101561117557600080fd5b5051905060048114156111bd576040805162461bcd60e51b815260206004820152601b6024820152600080516020612e35833981519152604482015290519081900360640190fd5b80600314156111fd5760405162461bcd60e51b8152600401808060200182810382526022815260200180612e136022913960400191505060405180910390fd5b60015460408051637b9f7ee960e11b815260248101899052600481019182528951604482015289516001600160a01b039093169263f73efdd2928b928b92829160640190602086019080838360005b8381101561126457818101518382015260200161124c565b50505050905090810190601f1680156112915780820380516001836020036101000a031916815260200191505b50935050505060206040518083038186803b1580156112af57600080fd5b505afa1580156112c3573d6000803e3d6000fd5b505050506040513d60208110156112d957600080fd5b505115610fc7575060019250600c9150611a509050565b84600214156117d35760035460408051630bfab7e960e01b81526004810185905290516001600160a01b0390921691630bfab7e991602480820192602092909190829003018186803b15801561134557600080fd5b505afa158015611359573d6000803e3d6000fd5b505050506040513d602081101561136f57600080fd5b505115611567576003546040805163ec440dbd60e01b81526004810185905290516001600160a01b039092169163ec440dbd91602480820192602092909190829003018186803b1580156113c257600080fd5b505afa1580156113d6573d6000803e3d6000fd5b505050506040513d60208110156113ec57600080fd5b505190506004811415611434576040805162461bcd60e51b815260206004820152601b6024820152600080516020612e35833981519152604482015290519081900360640190fd5b80600314156114745760405162461bcd60e51b8152600401808060200182810382526022815260200180612e136022913960400191505060405180910390fd5b6003546040805163236ddd8960e11b815260248101899052600481019182528951604482015289516001600160a01b03909316926346dbbb12928b928b92829160640190602086019080838360005b838110156114db5781810151838201526020016114c3565b50505050905090810190601f1680156115085780820380516001836020036101000a031916815260200191505b50935050505060206040518083038186803b15801561152657600080fd5b505afa15801561153a573d6000803e3d6000fd5b505050506040513d602081101561155057600080fd5b505115610fc757506001925060159150611a509050565b6004805460408051630a0e162960e41b8152928301859052516001600160a01b039091169163a0e16290916024808301926020929190829003018186803b1580156115b157600080fd5b505afa1580156115c5573d6000803e3d6000fd5b505050506040513d60208110156115db57600080fd5b5051156107cb5760048054604080516361e6992d60e11b8152928301859052516001600160a01b039091169163c3cd325a916024808301926020929190829003018186803b15801561162c57600080fd5b505afa158015611640573d6000803e3d6000fd5b505050506040513d602081101561165657600080fd5b50519050600481141561169e576040805162461bcd60e51b815260206004820152601b6024820152600080516020612e35833981519152604482015290519081900360640190fd5b80600314156116de5760405162461bcd60e51b8152600401808060200182810382526022815260200180612e136022913960400191505060405180910390fd5b600480546040805163b247bb2f60e01b8152602481018a90529283019081528951604484015289516001600160a01b039092169263b247bb2f928b928b929091829160640190602086019080838360005b8381101561174757818101518382015260200161172f565b50505050905090810190601f1680156117745780820380516001836020036101000a031916815260200191505b50935050505060206040518083038186803b15801561179257600080fd5b505afa1580156117a6573d6000803e3d6000fd5b505050506040513d60208110156117bc57600080fd5b505115610fc757506001925060169150611a509050565b84600314156107cb576000546040805163ea0fd49b60e01b81526004810185905290516001600160a01b039092169163ea0fd49b91602480820192602092909190829003018186803b15801561182857600080fd5b505afa15801561183c573d6000803e3d6000fd5b505050506040513d602081101561185257600080fd5b5051156107cb576000546040805163123fd8a160e11b81526004810185905290516001600160a01b039092169163247fb14291602480820192602092909190829003018186803b1580156118a557600080fd5b505afa1580156118b9573d6000803e3d6000fd5b505050506040513d60208110156118cf57600080fd5b505190506004811415611917576040805162461bcd60e51b815260206004820152601b6024820152600080516020612e35833981519152604482015290519081900360640190fd5b80600314156119575760405162461bcd60e51b8152600401808060200182810382526022815260200180612e136022913960400191505060405180910390fd5b600080546040805163c7f970ff60e01b8152602481018a9052600481019182528a5160448201528a516001600160a01b039093169363c7f970ff938c938c939092839260649092019160208701918190849084905b838110156119c45781810151838201526020016119ac565b50505050905090810190601f1680156119f15780820380516001836020036101000a031916815260200191505b50935050505060206040518083038186803b158015611a0f57600080fd5b505afa158015611a23573d6000803e3d6000fd5b505050506040513d6020811015611a3957600080fd5b505115610fc7575060019250601f9150611a509050565b935093915050565b6002546001600160a01b031681565b600080846040516020018082805190602001908083835b60208310611a9d5780518252601f199092019160209182019101611a7e565b6001836020036101000a0380198251168184511680821785525050505050509050019150506040516020818303038152906040528051906020012090506000846040516020018082805190602001908083835b60208310611b0f5780518252601f199092019160209182019101611af0565b6001836020036101000a038019825116818451168082178552505050505050905001915050604051602081830303815290604052805190602001209050600081831415611b6257600193505050506125c3565b8460011415612052576002546040805162e5a28960e71b81526004810186905290516001600160a01b03909216916372d1448091602480820192602092909190829003018186803b158015611bb657600080fd5b505afa158015611bca573d6000803e3d6000fd5b505050506040513d6020811015611be057600080fd5b505115611e87576002546040805163044d210960e51b81526004810186905290516001600160a01b03909216916389a4212091602480820192602092909190829003018186803b158015611c3357600080fd5b505afa158015611c47573d6000803e3d6000fd5b505050506040513d6020811015611c5d57600080fd5b505190506001811415611ca5576040805162461bcd60e51b815260206004820152601f6024820152600080516020612df3833981519152604482015290519081900360640190fd5b8060021415611ce9576040805162461bcd60e51b815260206004820152601c6024820152600080516020612dd3833981519152604482015290519081900360640190fd5b6002546040805163e4fa3a9360e01b81526004810186905290516000926001600160a01b03169163e4fa3a93916024808301926020929190829003018186803b158015611d3557600080fd5b505afa158015611d49573d6000803e3d6000fd5b505050506040513d6020811015611d5f57600080fd5b5051905082811415611e3a578160051415611d815760019450505050506125c3565b8160031415611dd7576040805162461bcd60e51b815260206004820181905260248201527f757365722074656d706f727920626c6f636b20696e207468652073797374656d604482015290519081900360640190fd5b8160041415611e2d576040805162461bcd60e51b815260206004820152601860248201527f757365722064656c657465642066726f6d2073797374656d0000000000000000604482015290519081900360640190fd5b60009450505050506125c3565b6040805162461bcd60e51b815260206004820152601b60248201527f646f73656e2774206d6163746820746869732070617373776f72640000000000604482015290519081900360640190fd5b6001546040805163a952fab360e01b81526004810186905290516001600160a01b039092169163a952fab391602480820192602092909190829003018186803b158015611ed357600080fd5b505afa158015611ee7573d6000803e3d6000fd5b505050506040513d6020811015611efd57600080fd5b5051156107cb57600154604080516308f5109960e21b81526004810186905290516001600160a01b03909216916323d4426491602480820192602092909190829003018186803b158015611f5057600080fd5b505afa158015611f64573d6000803e3d6000fd5b505050506040513d6020811015611f7a57600080fd5b505190506001811415611fc2576040805162461bcd60e51b815260206004820152601f6024820152600080516020612df3833981519152604482015290519081900360640190fd5b8060021415612006576040805162461bcd60e51b815260206004820152601c6024820152600080516020612dd3833981519152604482015290519081900360640190fd5b6001546040805163570207f560e11b81526004810186905290516000926001600160a01b03169163ae040fea916024808301926020929190829003018186803b158015611d3557600080fd5b84600214156123ee5760035460408051630bfab7e960e01b81526004810186905290516001600160a01b0390921691630bfab7e991602480820192602092909190829003018186803b1580156120a757600080fd5b505afa1580156120bb573d6000803e3d6000fd5b505050506040513d60208110156120d157600080fd5b505115612226576003546040805163ec440dbd60e01b81526004810186905290516001600160a01b039092169163ec440dbd91602480820192602092909190829003018186803b15801561212457600080fd5b505afa158015612138573d6000803e3d6000fd5b505050506040513d602081101561214e57600080fd5b505190506001811415612196576040805162461bcd60e51b815260206004820152601f6024820152600080516020612df3833981519152604482015290519081900360640190fd5b80600214156121da576040805162461bcd60e51b815260206004820152601c6024820152600080516020612dd3833981519152604482015290519081900360640190fd5b6003546040805163d8264a0560e01b81526004810186905290516000926001600160a01b03169163d8264a05916024808301926020929190829003018186803b158015611d3557600080fd5b6004805460408051630a0e162960e41b8152928301869052516001600160a01b039091169163a0e16290916024808301926020929190829003018186803b15801561227057600080fd5b505afa158015612284573d6000803e3d6000fd5b505050506040513d602081101561229a57600080fd5b5051156107cb5760048054604080516361e6992d60e11b8152928301869052516001600160a01b039091169163c3cd325a916024808301926020929190829003018186803b1580156122eb57600080fd5b505afa1580156122ff573d6000803e3d6000fd5b505050506040513d602081101561231557600080fd5b50519050600181141561235d576040805162461bcd60e51b815260206004820152601f6024820152600080516020612df3833981519152604482015290519081900360640190fd5b80600214156123a1576040805162461bcd60e51b815260206004820152601c6024820152600080516020612dd3833981519152604482015290519081900360640190fd5b60048054604080516389cda3dd60e01b8152928301869052516000926001600160a01b03909216916389cda3dd916024808301926020929190829003018186803b158015611d3557600080fd5b8460031415611e3a576000546040805163ea0fd49b60e01b81526004810186905290516001600160a01b039092169163ea0fd49b91602480820192602092909190829003018186803b15801561244357600080fd5b505afa158015612457573d6000803e3d6000fd5b505050506040513d602081101561246d57600080fd5b5051156107cb576000546040805163123fd8a160e11b81526004810186905290516001600160a01b039092169163247fb14291602480820192602092909190829003018186803b1580156124c057600080fd5b505afa1580156124d4573d6000803e3d6000fd5b505050506040513d60208110156124ea57600080fd5b505190506001811415612532576040805162461bcd60e51b815260206004820152601f6024820152600080516020612df3833981519152604482015290519081900360640190fd5b8060021415612576576040805162461bcd60e51b815260206004820152601c6024820152600080516020612dd3833981519152604482015290519081900360640190fd5b6000805460408051635d4b3b7f60e01b81526004810187905290516001600160a01b0390921691635d4b3b7f91602480820192602092909190829003018186803b158015611d3557600080fd5b9392505050565b6000806000856040516020018082805190602001908083835b602083106126025780518252601f1990920191602091820191016125e3565b6001836020036101000a03801982511681845116808217855250505050505090500191505060405160208183030381529060405280519060200120905060008460011415612954576002546040805162e5a28960e71b81526004810185905290516001600160a01b03909216916372d1448091602480820192602092909190829003018186803b15801561269557600080fd5b505afa1580156126a9573d6000803e3d6000fd5b505050506040513d60208110156126bf57600080fd5b5051156127f0576002546040805163044d210960e51b81526004810185905290516001600160a01b03909216916389a4212091602480820192602092909190829003018186803b15801561271257600080fd5b505afa158015612726573d6000803e3d6000fd5b505050506040513d602081101561273c57600080fd5b5051905060018114156127ad57600254604080516317141dc760e21b815260248101899052600481019182528951604482015289516001600160a01b0390931692635c50771c928b928b92829160640190602086019080838360008315610f3b578181015183820152602001610f23565b6040805162461bcd60e51b815260206004820152601360248201527207573657220416c6c72656479207369676e757606c1b604482015290519081900360640190fd5b6001546040805163a952fab360e01b81526004810185905290516001600160a01b039092169163a952fab391602480820192602092909190829003018186803b15801561283c57600080fd5b505afa158015612850573d6000803e3d6000fd5b505050506040513d602081101561286657600080fd5b5051156107cb57600154604080516308f5109960e21b81526004810185905290516001600160a01b03909216916323d4426491602480820192602092909190829003018186803b1580156128b957600080fd5b505afa1580156128cd573d6000803e3d6000fd5b505050506040513d60208110156128e357600080fd5b5051905060018114156127ad5760015460408051637b9f7ee960e11b815260248101899052600481019182528951604482015289516001600160a01b039093169263f73efdd2928b928b9282916064019060208601908083836000831561126457818101518382015260200161124c565b8460021415612c235760035460408051630bfab7e960e01b81526004810185905290516001600160a01b0390921691630bfab7e991602480820192602092909190829003018186803b1580156129a957600080fd5b505afa1580156129bd573d6000803e3d6000fd5b505050506040513d60208110156129d357600080fd5b505115612ac1576003546040805163ec440dbd60e01b81526004810185905290516001600160a01b039092169163ec440dbd91602480820192602092909190829003018186803b158015612a2657600080fd5b505afa158015612a3a573d6000803e3d6000fd5b505050506040513d6020811015612a5057600080fd5b5051905060018114156127ad576003546040805163236ddd8960e11b815260248101899052600481019182528951604482015289516001600160a01b03909316926346dbbb12928b928b928291606401906020860190808383600083156114db5781810151838201526020016114c3565b6004805460408051630a0e162960e41b8152928301859052516001600160a01b039091169163a0e16290916024808301926020929190829003018186803b158015612b0b57600080fd5b505afa158015612b1f573d6000803e3d6000fd5b505050506040513d6020811015612b3557600080fd5b5051156107cb5760048054604080516361e6992d60e11b8152928301859052516001600160a01b039091169163c3cd325a916024808301926020929190829003018186803b158015612b8657600080fd5b505afa158015612b9a573d6000803e3d6000fd5b505050506040513d6020811015612bb057600080fd5b5051905060018114156127ad57600480546040805163b247bb2f60e01b8152602481018a90529283019081528951604484015289516001600160a01b039092169263b247bb2f928b928b92909182916064019060208601908083836000831561174757818101518382015260200161172f565b84600314156107cb576000546040805163ea0fd49b60e01b81526004810185905290516001600160a01b039092169163ea0fd49b91602480820192602092909190829003018186803b158015612c7857600080fd5b505afa158015612c8c573d6000803e3d6000fd5b505050506040513d6020811015612ca257600080fd5b5051156107cb576000546040805163123fd8a160e11b81526004810185905290516001600160a01b039092169163247fb14291602480820192602092909190829003018186803b158015612cf557600080fd5b505afa158015612d09573d6000803e3d6000fd5b505050506040513d6020811015612d1f57600080fd5b5051905060018114156127ad57600080546040805163c7f970ff60e01b8152602481018a9052600481019182528a5160448201528a516001600160a01b039093169363c7f970ff938c938c9390928392606490920191602087019181908490849083156119c45781810151838201526020016119ac565b6000546001600160a01b031681565b6001546001600160a01b031681565b6004546001600160a01b031681565b6003546001600160a01b03168156fe75736572206e6f7420636f6e6669726d20746869657220656d61696c0000000075736572206e6f7420726567697374657220696e207468652073797374656d00757365722074656d706f727920626c6f636b2066726f6d207468652073797374656d757365722072656d6f76652066726f6d207468652073797374656d0000000000a265627a7a72315820ef99e93bcd4a6df71a1da868a6759710b0668665bf6465038a9a5f7627e5efa364736f6c63430005100032",
  "source": "pragma solidity >=0.4.21 <0.6.0;\n\nimport \"./Admin.sol\";\nimport \"./Manager.sol\";\nimport \"./Distributor.sol\";\nimport \"./Loader.sol\";\nimport \"./Supervisor.sol\";\n\ncontract Login {\n    DistributorContract public distributorc;\n    ManagerContract public managerc;\n    AdminContract public adminc;\n    LoaderContract public loaderc;\n    SupervisorContract public supervisorc;\n    address ada;\n    address maa;\n    address disa;\n    address loa;\n    address sua;\n    constructor(address ad,address ma,address dis,address lo,address su) public {\n        adminc = AdminContract(ad);\n        managerc = ManagerContract(ma);\n        distributorc = DistributorContract(dis);\n        loaderc = LoaderContract(lo);\n        supervisorc = SupervisorContract(su);\n        ada = ad;\n        maa = ma;\n        disa = dis;\n        loa = lo;\n        sua = su;\n    }\n    // struct Packet{\n    //     uint packetId;\n    //     uint boxId;\n    //     uint productId;\n    //     uint rate;\n    // }\n    // struct Box{\n    //     uint boxtId;\n    //     uint containerId;\n    //     uint orderId;\n    //     uint[] distributorIndex;\n    //     uint256[]  time;\n    // }\n    // struct Container{\n    //     uint containerId;\n    //     uint orderId;\n    //     uint rate;\n    //     uint[] distributorIndex;\n    //     uint256[]  time;\n    // }\n    // struct Order{\n    //     uint packetId;\n    //     uint orderId;\n    // }\n    // struct Product{\n    //     uint packetId;\n    //     uint orderId;\n    //     uint rate;\n\n    // }\n    // struct Estate{\n    //     uint packetId;\n    //     uint orderId;\n    //     uint rate;\n\n    // }\n\n    // struct Manager{\n    //     string email;\n    //     string firstName;\n    //     string lastName;\n    //     uint userType;\n    //     bool userAccess;\n    // }\n    // struct Worker{\n    //     string email;\n    //     string firstName;\n    //     string lastName;\n    //     uint userType;\n    //     bool userAccess;\n    // }\n    // struct Distributor{\n    //     string email;\n    //     string firstName;\n    //     string lastName;\n    //     string location;\n    //     string countryIsoCode;\n    //     uint userType;\n    //     bool userAccess;\n\n    // }\n\n    // function scanDistributor(/*uint64 _boxtId,uint64 _distributorId*/)public pure returns(bool){\n    //     // first map packet id and get packet location\n    //     // second we store distributor id in box distributors array\n    //     return true;\n    // }\n\n    // function scanPacket(/*uint64 _packetId*/)public pure returns(/* packetdtail*//*supply chin */bool){\n    //     return true;\n    // }\n\n    function login(string memory _email,string memory _password,uint _appId)public view returns(bool){\n\n        bytes32 email = keccak256(abi.encodePacked((_email)));\n        bytes32 password = keccak256(abi.encodePacked((_password)));\n        uint userAccess;\n        if(email == password){\n            return true;\n        }\n\n        if(_appId==1){\n            if(adminc.isAdmin(email)){\n                userAccess = adminc.checkAdminUserAccess(email);\n                require(!(userAccess == 1), \"user not register in the system\");\n                require(!(userAccess == 2),\"user not confirm thier email\");\n                bytes32 passwordCode = adminc.checkAdminPasswordCode(email);\n                if(passwordCode == password ){\n                    if(userAccess == 5){\n                        return true;\n                    }else{\n                        require(!(userAccess == 3),\"user tempory block in the system\");\n                        require(!(userAccess == 4),\"user deleted from system\");\n                        return false;\n                    }\n                } else {\n                    require(false,\"dosen't macth this password\");\n                    return false;\n                }\n            } else if(managerc.isManager(email)){\n                userAccess = managerc.checkManagerUserAccess(email);\n                require(!(userAccess == 1),\"user not register in the system\");\n                require(!(userAccess == 2),\"user not confirm thier email\");\n                bytes32 passwordCode = managerc.checkManagerPasswordCode(email);\n                if(passwordCode == password ){\n                    if(userAccess == 5){\n                        return true;\n                    }else{\n                        require(!(userAccess == 3),\"user tempory block in the system\");\n                        require(!(userAccess == 4),\"user deleted from system\");\n                        return false;\n                    }\n                } else {\n                    require(false,\"dosen't macth this password\");\n                    return false;\n                }\n            } else {\n                require(false,\"dosen't macth this email\");\n            }\n        }\n        else if(_appId==2){\n            if(loaderc.isLoader(email)){\n                userAccess = loaderc.checkLoaderUserAccess(email);\n                require(!(userAccess == 1), \"user not register in the system\");\n                require(!(userAccess == 2),\"user not confirm thier email\");\n                bytes32 passwordCode = loaderc.checkLoaderPasswordCode(email);\n                if(passwordCode == password ){\n                    if(userAccess == 5){\n                        return true;\n                    }else{\n                        require(!(userAccess == 3),\"user tempory block in the system\");\n                        require(!(userAccess == 4),\"user deleted from system\");\n                        return false;\n                    }\n                } else {\n                    require(false,\"dosen't macth this password\");\n                    return false;\n                }\n            } else if(supervisorc.isSupervisor(email)){\n                userAccess = supervisorc.checkSupervisorUserAccess(email);\n                require(!(userAccess == 1),\"user not register in the system\");\n                require(!(userAccess == 2),\"user not confirm thier email\");\n                bytes32 passwordCode = supervisorc.checkSupervisorPasswordCode(email);\n                if(passwordCode == password ){\n                    if(userAccess == 5){\n                        return true;\n                    }else{\n                        require(!(userAccess == 3),\"user tempory block in the system\");\n                        require(!(userAccess == 4),\"user deleted from system\");\n                        return false;\n                    }\n                } else {\n                    require(false,\"dosen't macth this password\");\n                    return false;\n                }\n            } else {\n                require(false,\"dosen't macth this email\");\n            }\n        }\n        else if(_appId == 3){\n            if(distributorc.isDistributor(email)){\n                userAccess = distributorc.checkDistributorUserAccess(email);\n                require(!(userAccess == 1), \"user not register in the system\");\n                require(!(userAccess == 2),\"user not confirm thier email\");\n                bytes32 passwordCode = distributorc.checkDistributorPasswordCode(email);\n                if(passwordCode == password ){\n                    if(userAccess == 5){\n                        return true;\n                    }else{\n                        require(!(userAccess == 3),\"user tempory block in the system\");\n                        require(!(userAccess == 4),\"user deleted from system\");\n                        return false;\n                    }\n                } else {\n                    require(false,\"dosen't macth this password\");\n                    return false;\n                }\n            } else {\n                require(false,\"dosen't macth this email\");\n            }\n        }\n        else{\n            require(false,\"dosen't macth this password\");\n        }\n    }\n\n    //mapping(address => UserStruct) private userStructs;\n    //address[] private adminIndex;\n\n    //\n    //  mapping(uint => Box) public boxes;\n    //  mapping(uint => Packet) public packets;\n\n\n    // event LogNewUser(address indexed userAddress, uint index, bytes32 userEmail, uint userAge);\n    // event LogUpdateUser(address indexed userAddress, uint index, bytes32 userEmail, uint userAge);\n\n\n/////////////////////////\n    function registation(string memory _email,bytes32 token,uint _appId) public view returns(bool,uint) {\n       bytes32 email = keccak256(abi.encodePacked((_email)));\n        uint userAccess;\n        if(_appId==1){\n            if(adminc.isAdmin(email)){\n                userAccess = adminc.checkAdminUserAccess(email);\n                if(userAccess == 1) {\n                    if(adminc.checkAdminToken(_email,token)){\n                       return (true,11);\n                    } else{\n                        require(false,\"token is invalid\");\n                    }\n                }else{\n                    require(false,\"user Allredy signup\");\n                }\n            } else if(managerc.isManager(email)){\n                userAccess = managerc.checkManagerUserAccess(email);\n                if(userAccess == 1) {\n                    if(managerc.checkManagerToken(_email,token)){\n                        return (true,12);\n                    } else{\n                        require(false,\"token is invalid\");\n                    }\n                }else{\n                    require(false,\"user Allredy signup\");\n                }\n            } else {\n                require(false,\"dosen't macth this email\");\n            }\n        }\n        else if(_appId==2){\n            if(loaderc.isLoader(email)){\n                userAccess = loaderc.checkLoaderUserAccess(email);\n                if(userAccess == 1) {\n                    if(loaderc.checkLoaderToken(_email,token)){\n                         return (true,21);\n                    } else{\n                        require(false,\"token is invalid\");\n                    }\n                }else{\n                    require(false,\"user Allredy signup\");\n                }\n            } else if(supervisorc.isSupervisor(email)){\n                userAccess = supervisorc.checkSupervisorUserAccess(email);\n                if(userAccess == 1) {\n                    if(supervisorc.checkSupervisorToken(_email,token)){\n                         return (true,22);\n                    } else{\n                        require(false,\"token is invalid\");\n                    }\n                }else{\n                    require(false,\"user Allredy signup\");\n                }\n            } else {\n                require(false,\"dosen't macth this email\");\n            }\n        }\n        else if(_appId == 3){\n            if(distributorc.isDistributor(email)){\n                userAccess = distributorc.checkDistributorUserAccess(email);\n                if(userAccess == 1) {\n                    if(distributorc.checkDistributorToken(_email,token)){\n                         return (true,31);\n                    } else{\n                        require(false,\"token is invalid\");\n                    }\n                }else{\n                    require(false,\"user Allredy signup\");\n                }\n            } else {\n                require(false,\"dosen't macth this email\");\n            }\n        }\n        else{\n            require(false,\"dosen't macth this email\");\n        }\n    }\n    function frogetPassword(string memory _email,uint _appId) public view returns(bool,uint) {\n        bytes32 email = keccak256(abi.encodePacked((_email)));\n        uint userAccess;\n        if(_appId==1){\n            if(adminc.isAdmin(email)){\n                userAccess = adminc.checkAdminUserAccess(email);\n                require(!(userAccess == 1), \"user not register in the system\");\n                require(!(userAccess == 2),\"user not confirm thier email\");\n                return (true,11);\n            } else if(managerc.isManager(email)){\n                userAccess = managerc.checkManagerUserAccess(email);\n                require(!(userAccess == 1),\"user not register in the system\");\n                require(!(userAccess == 2),\"user not confirm thier email\");\n                return (true,12);\n            } else {\n                require(false,\"dosen't macth this email\");\n            }\n        }\n        else if(_appId==2){\n            if(loaderc.isLoader(email)){\n                userAccess = loaderc.checkLoaderUserAccess(email);\n                require(!(userAccess == 1), \"user not register in the system\");\n                require(!(userAccess == 2),\"user not confirm thier email\");\n                return (true,21);\n\n            } else if(supervisorc.isSupervisor(email)){\n                userAccess = supervisorc.checkSupervisorUserAccess(email);\n                require(!(userAccess == 1),\"user not register in the system\");\n                require(!(userAccess == 2),\"user not confirm thier email\");\n                return (true,22);\n            } else {\n                require(false,\"dosen't macth this email\");\n            }\n        }\n        else if(_appId == 3){\n            if(distributorc.isDistributor(email)){\n                userAccess = distributorc.checkDistributorUserAccess(email);\n                require(!(userAccess == 1), \"user not register in the system\");\n                require(!(userAccess == 2),\"user not confirm thier email\");\n                return (true,31);\n            } else {\n                require(false,\"dosen't macth this email\");\n            }\n        }\n        else{\n            require(false,\"dosen't macth this email\");\n        }\n\n    }\n    function resetPassword(string memory _email,bytes32 token,uint _appId)public view returns(bool,uint) {\n       bytes32 email = keccak256(abi.encodePacked((_email)));\n        uint userAccess;\n        if(_appId==1){\n            if(adminc.isAdmin(email)){\n                userAccess = adminc.checkAdminUserAccess(email);\n                require(!(userAccess == 4), \"user remove from the system\");\n                require(!(userAccess == 3),\"user tempory block from the system\");\n                if(adminc.checkAdminToken(_email,token)){\n                    return (true,11);\n                } else{\n                    require(false,\"token is invalid\");\n                }\n            } else if(managerc.isManager(email)){\n                userAccess = managerc.checkManagerUserAccess(email);\n                userAccess = managerc.checkManagerUserAccess(email);\n                require(!(userAccess == 4), \"user remove from the system\");\n                require(!(userAccess == 3),\"user tempory block from the system\");\n                if(managerc.checkManagerToken(_email,token)){\n                   return (true,12);\n                } else{\n                    require(false,\"token is invalid\");\n                }\n            } else {\n                require(false,\"dosen't macth this email\");\n            }\n        }\n        else if(_appId==2){\n            if(loaderc.isLoader(email)){\n                userAccess = loaderc.checkLoaderUserAccess(email);\n                require(!(userAccess == 4), \"user remove from the system\");\n                require(!(userAccess == 3),\"user tempory block from the system\");\n                if(loaderc.checkLoaderToken(_email,token)){\n                    return (true,21);\n                } else{\n                    require(false,\"token is invalid\");\n                }\n            } else if(supervisorc.isSupervisor(email)){\n                userAccess = supervisorc.checkSupervisorUserAccess(email);\n                require(!(userAccess == 4), \"user remove from the system\");\n                require(!(userAccess == 3),\"user tempory block from the system\");\n                if(supervisorc.checkSupervisorToken(_email,token)){\n                    return (true,22);\n                } else{\n                    require(false,\"token is invalid\");\n                }\n            } else {\n                require(false,\"dosen't macth this email\");\n            }\n        }\n        else if(_appId == 3){\n            if(distributorc.isDistributor(email)){\n                userAccess = distributorc.checkDistributorUserAccess(email);\n                require(!(userAccess == 4), \"user remove from the system\");\n                require(!(userAccess == 3),\"user tempory block from the system\");\n                if(distributorc.checkDistributorToken(_email,token)){\n                    return (true,31);\n                } else{\n                    require(false,\"token is invalid\");\n                }\n            } else {\n                require(false,\"dosen't macth this email\");\n            }\n        }\n        else{\n            require(false,\"dosen't macth this email\");\n        }\n    }\n    // function createBox() public returns(bool){\n\n    // }\n    // function creatPacket() public returns(bool){\n    // }\n\n\n}\n",
  "sourcePath": "/home/ubuntu/tea-supplychain-manege-system/test2/contracts/Login.sol",
  "compiler": {
    "name": "solc",
    "version": "0.5.16+commit.9c3226ce.Emscripten.clang"
  },
  "schemaVersion": "3.0.23",
  "updatedAt": "2020-02-17T07:14:35.697Z",
  "networkType": "ethereum",
  "devdoc": {
    "methods": {}
  },
  "userdoc": {
    "methods": {
      "registation(string,bytes32,uint256)": {
        "notice": "//////////////////////"
      }
    }
  }
}