{
  "contractName": "Login",
  "abi": [
    {
      "constant": true,
      "inputs": [
        {
          "name": "",
          "type": "bytes32"
        },
        {
          "name": "",
          "type": "uint256"
        }
      ],
      "name": "adminArray",
      "outputs": [
        {
          "name": "email",
          "type": "string"
        },
        {
          "name": "passwordCode",
          "type": "bytes32"
        },
        {
          "name": "passwordRestToken",
          "type": "bytes32"
        },
        {
          "name": "firstName",
          "type": "string"
        },
        {
          "name": "lastName",
          "type": "string"
        },
        {
          "name": "contactNumber",
          "type": "uint256"
        },
        {
          "name": "userAddress",
          "type": "string"
        },
        {
          "name": "userType",
          "type": "uint256"
        },
        {
          "name": "userAccess",
          "type": "bool"
        }
      ],
      "payable": false,
      "stateMutability": "view",
      "type": "function"
    },
    {
      "constant": true,
      "inputs": [
        {
          "name": "_boxtId",
          "type": "uint64"
        },
        {
          "name": "_distributorId",
          "type": "uint64"
        }
      ],
      "name": "scanDistributor",
      "outputs": [
        {
          "name": "",
          "type": "bool"
        }
      ],
      "payable": false,
      "stateMutability": "view",
      "type": "function"
    },
    {
      "constant": true,
      "inputs": [
        {
          "name": "_email",
          "type": "string"
        },
        {
          "name": "_password",
          "type": "string"
        },
        {
          "name": "_appId",
          "type": "uint256"
        }
      ],
      "name": "log",
      "outputs": [
        {
          "name": "",
          "type": "bool"
        }
      ],
      "payable": false,
      "stateMutability": "pure",
      "type": "function"
    },
    {
      "constant": false,
      "inputs": [
        {
          "name": "_email",
          "type": "string"
        },
        {
          "name": "_firstName",
          "type": "string"
        },
        {
          "name": "_lastName",
          "type": "string"
        }
      ],
      "name": "addAdmin",
      "outputs": [
        {
          "name": "",
          "type": "bool"
        }
      ],
      "payable": false,
      "stateMutability": "nonpayable",
      "type": "function"
    }
  ],
  "bytecode": "0x608060405234801561001057600080fd5b50610c00806100206000396000f3fe608060405234801561001057600080fd5b506004361061004c5760003560e01c80635821efa1146100515780637689a47314610190578063dbd68c1f14610384578063dc4db7c0146103b3575b600080fd5b61017c6004803603606081101561006757600080fd5b810190602081018135600160201b81111561008157600080fd5b82018360208201111561009357600080fd5b803590602001918460018302840111600160201b831117156100b457600080fd5b91908080601f0160208091040260200160405190810160405280939291908181526020018383808284376000920191909152509295949360208101935035915050600160201b81111561010657600080fd5b82018360208201111561011857600080fd5b803590602001918460018302840111600160201b8311171561013957600080fd5b91908080601f0160208091040260200160405190810160405280939291908181526020018383808284376000920191909152509295505091359250610561915050565b604080519115158252519081900360200190f35b6101b3600480360360408110156101a657600080fd5b50803590602001356106a3565b60405180806020018a81526020018981526020018060200180602001888152602001806020018781526020018615151515815260200185810385528e818151815260200191508051906020019080838360005b8381101561021e578181015183820152602001610206565b50505050905090810190601f16801561024b5780820380516001836020036101000a031916815260200191505b5085810384528b5181528b516020918201918d019080838360005b8381101561027e578181015183820152602001610266565b50505050905090810190601f1680156102ab5780820380516001836020036101000a031916815260200191505b5085810383528a5181528a516020918201918c019080838360005b838110156102de5781810151838201526020016102c6565b50505050905090810190601f16801561030b5780820380516001836020036101000a031916815260200191505b5085810382528851815288516020918201918a019080838360005b8381101561033e578181015183820152602001610326565b50505050905090810190601f16801561036b5780820380516001836020036101000a031916815260200191505b509d505050505050505050505050505060405180910390f35b61017c6004803603604081101561039a57600080fd5b5067ffffffffffffffff81358116916020013516610940565b61017c600480360360608110156103c957600080fd5b810190602081018135600160201b8111156103e357600080fd5b8201836020820111156103f557600080fd5b803590602001918460018302840111600160201b8311171561041657600080fd5b91908080601f0160208091040260200160405190810160405280939291908181526020018383808284376000920191909152509295949360208101935035915050600160201b81111561046857600080fd5b82018360208201111561047a57600080fd5b803590602001918460018302840111600160201b8311171561049b57600080fd5b91908080601f0160208091040260200160405190810160405280939291908181526020018383808284376000920191909152509295949360208101935035915050600160201b8111156104ed57600080fd5b8201836020820111156104ff57600080fd5b803590602001918460018302840111600160201b8311171561052057600080fd5b91908080601f016020809104026020016040519081016040528093929190818152602001838380828437600092019190915250929550610948945050505050565b600080846040516020018082805190602001908083835b602083106105975780518252601f199092019160209182019101610578565b6001836020036101000a0380198251168184511680821785525050505050509050019150506040516020818303038152906040528051906020012090506000846040516020018082805190602001908083835b602083106106095780518252601f1990920191602091820191016105ea565b6001836020036101000a038019825116818451168082178552505050505050905001915050604051602081830303815290604052805190602001209050808214156106595760019250505061069c565b836001141561066d5760019250505061069c565b83600214156106815760019250505061069c565b83600314156106955760019250505061069c565b6000925050505b9392505050565b600060205281600052604060002081815481106106bc57fe5b60009182526020918290206009919091020180546040805160026001841615610100026000190190931692909204601f8101859004850283018501909152808252919450925083918301828280156107555780601f1061072a57610100808354040283529160200191610755565b820191906000526020600020905b81548152906001019060200180831161073857829003601f168201915b505050505090806001015490806002015490806003018054600181600116156101000203166002900480601f0160208091040260200160405190810160405280929190818152602001828054600181600116156101000203166002900480156107ff5780601f106107d4576101008083540402835291602001916107ff565b820191906000526020600020905b8154815290600101906020018083116107e257829003601f168201915b5050505060048301805460408051602060026001851615610100026000190190941693909304601f810184900484028201840190925281815294959493509083018282801561088f5780601f106108645761010080835404028352916020019161088f565b820191906000526020600020905b81548152906001019060200180831161087257829003601f168201915b50505050600583015460068401805460408051602060026001851615610100026000190190941693909304601f810184900484028201840190925281815295969395939450908301828280156109265780601f106108fb57610100808354040283529160200191610926565b820191906000526020600020905b81548152906001019060200180831161090957829003601f168201915b50505050600783015460089093015491929160ff16905089565b600092915050565b600080846040516020018082805190602001908083835b6020831061097e5780518252601f19909201916020918201910161095f565b6001836020036101000a0380198251168184511680821785525050505050509050019150506040516020818303038152906040528051906020012090506109c3610ae5565b858152600060208083018290526040808401839052606084018890526080840187905260a084018390528051808301825283815260c0850152600160e085018190526101008501849052858452838352908320805491820180825590845292829020845180518694600990940290920192610a4392849290910190610b39565b5060208281015160018301556040830151600283015560608301518051610a709260038501920190610b39565b5060808201518051610a8c916004840191602090910190610b39565b5060a0820151600582015560c08201518051610ab2916006840191602090910190610b39565b5060e08201516007820155610100909101516008909101805460ff19169115159190911790555060019695505050505050565b60405180610120016040528060608152602001600080191681526020016000801916815260200160608152602001606081526020016000815260200160608152602001600081526020016000151581525090565b828054600181600116156101000203166002900490600052602060002090601f016020900481019282601f10610b7a57805160ff1916838001178555610ba7565b82800160010185558215610ba7579182015b82811115610ba7578251825591602001919060010190610b8c565b50610bb3929150610bb7565b5090565b610bd191905b80821115610bb35760008155600101610bbd565b9056fea165627a7a72305820f65140b5119735fa18ee8b5cb932fdff2c9efb0234f076d11e17947fc8b8f8ef0029",
  "source": "pragma solidity >=0.4.21 <0.6.0;\r\n\r\ncontract Login {\r\n    struct Packet{\r\n        uint packetId;\r\n        uint boxId;\r\n        uint productId;\r\n        uint rate;\r\n    }\r\n    struct Box{\r\n        uint boxtId;\r\n        uint containerId;\r\n        uint orderId;\r\n    }\r\n    struct Container{\r\n        uint containerId;\r\n        uint orderId;\r\n        uint rate;\r\n\r\n    }\r\n    struct Order{\r\n        uint packetId;\r\n        uint orderId;\r\n    }\r\n    struct Product{\r\n        uint packetId;\r\n        uint orderId;\r\n        uint rate;\r\n\r\n    }\r\n    struct Estate{\r\n        uint packetId;\r\n        uint orderId;\r\n        uint rate;\r\n\r\n    }\r\n    struct Admin{\r\n        string email;\r\n        bytes32 passwordCode;\r\n        bytes32 passwordRestToken;\r\n        string firstName;\r\n        string lastName;\r\n        uint contactNumber;\r\n        string userAddress;\r\n        uint userType;\r\n        bool userAccess;\r\n    }\r\n    struct Manager{\r\n        string email;\r\n        string firstName;\r\n        string lastName;\r\n        uint userType;\r\n        bool userAccess;\r\n    }\r\n    struct Worker{\r\n        string email;\r\n        string firstName;\r\n        string lastName;\r\n        uint userType;\r\n        bool userAccess;\r\n    }\r\n    struct Distributor{\r\n        string email;\r\n        string firstName;\r\n        string lastName;\r\n        string location;\r\n        string countryIsoCode;\r\n        uint userType;\r\n        bool userAccess;\r\n\r\n    }\r\n\r\n    mapping(bytes32 => Admin[]) public adminArray;\r\n\r\n    function scanDistributor(uint64 _boxtId,uint64 _distributorId)public view returns(bool) {\r\n        // first map packet id and get packet location\r\n        // second we store distributor id in box distributors array\r\n    }\r\n\r\n    // function scanPacket(uint64 _packetId)public view returns(/* packetdtail*//*supply chin */bool){\r\n    //     return true;\r\n    // }\r\n\r\n    function log(string memory _email,string memory _password,uint _appId)public pure returns(bool){\r\n\r\n        bytes32 email = keccak256(abi.encodePacked((_email)));\r\n        bytes32 password = keccak256(abi.encodePacked((_password)));\r\n\r\n        if(email == password){\r\n            return true;\r\n        }\r\n\r\n        if(_appId==1){\r\n            return true;\r\n        }\r\n        else if(_appId==2){\r\n            return true;\r\n        }\r\n        else if(_appId == 3){\r\n            return true;\r\n        }\r\n        else{\r\n            return false;\r\n        }\r\n    }\r\n\r\n    function addAdmin(string memory _email,string memory _firstName,string memory _lastName)public returns(bool){\r\n        bytes32 _emailCode = keccak256(abi.encodePacked((_email)));\r\n        Admin memory _admin;\r\n        _admin.email = _email;\r\n        _admin.passwordCode = \"\";\r\n        _admin.passwordRestToken = \"\";\r\n        _admin.firstName = _firstName;\r\n        _admin.lastName = _lastName;\r\n        _admin.contactNumber = 0;\r\n        _admin.userAddress = \"\";\r\n        _admin.userType = 1;\r\n        _admin.userAccess = false;\r\n        adminArray[_emailCode].push(_admin);\r\n        return true;\r\n\r\n    }\r\n}",
  "sourcePath": "C:/project/tea supply chain mangement system/code/test2/contracts/Login.sol",
  "compiler": {
    "name": "solc",
    "version": "0.5.8+commit.23d335f2.Emscripten.clang"
  },
  "schemaVersion": "3.0.16",
  "updatedAt": "2019-10-22T08:34:40.940Z",
  "devdoc": {
    "methods": {}
  },
  "userdoc": {
    "methods": {}
  }
}