{
  "contractName": "Login",
  "abi": [
    {
      "constant": true,
      "inputs": [
        {
          "name": "",
          "type": "uint256"
        }
      ],
      "name": "boxes",
      "outputs": [
        {
          "name": "boxtId",
          "type": "uint256"
        },
        {
          "name": "containerId",
          "type": "uint256"
        },
        {
          "name": "orderId",
          "type": "uint256"
        }
      ],
      "payable": false,
      "stateMutability": "view",
      "type": "function"
    },
    {
      "constant": true,
      "inputs": [
        {
          "name": "",
          "type": "bytes32"
        }
      ],
      "name": "adminArray",
      "outputs": [
        {
          "name": "email",
          "type": "string"
        },
        {
          "name": "emailCode",
          "type": "bytes32"
        },
        {
          "name": "passwordCode",
          "type": "bytes32"
        },
        {
          "name": "passwordRestToken",
          "type": "bytes32"
        },
        {
          "name": "name",
          "type": "string"
        },
        {
          "name": "contactNumber",
          "type": "uint256"
        },
        {
          "name": "userAddress",
          "type": "string"
        },
        {
          "name": "userAccess",
          "type": "uint256"
        },
        {
          "name": "index",
          "type": "uint256"
        }
      ],
      "payable": false,
      "stateMutability": "view",
      "type": "function"
    },
    {
      "constant": true,
      "inputs": [
        {
          "name": "",
          "type": "uint256"
        }
      ],
      "name": "packets",
      "outputs": [
        {
          "name": "packetId",
          "type": "uint256"
        },
        {
          "name": "boxId",
          "type": "uint256"
        },
        {
          "name": "productId",
          "type": "uint256"
        },
        {
          "name": "rate",
          "type": "uint256"
        }
      ],
      "payable": false,
      "stateMutability": "view",
      "type": "function"
    },
    {
      "anonymous": false,
      "inputs": [
        {
          "indexed": true,
          "name": "emailCode",
          "type": "bytes32"
        },
        {
          "indexed": false,
          "name": "index",
          "type": "uint256"
        },
        {
          "indexed": false,
          "name": "email",
          "type": "string"
        },
        {
          "indexed": false,
          "name": "passwordCode",
          "type": "bytes32"
        },
        {
          "indexed": false,
          "name": "passwordRestToken",
          "type": "bytes32"
        },
        {
          "indexed": false,
          "name": "name",
          "type": "string"
        },
        {
          "indexed": false,
          "name": "contactNumber",
          "type": "uint256"
        },
        {
          "indexed": false,
          "name": "userAddress",
          "type": "string"
        },
        {
          "indexed": false,
          "name": "userAccess",
          "type": "uint256"
        }
      ],
      "name": "LogNewAdmin",
      "type": "event"
    },
    {
      "anonymous": false,
      "inputs": [
        {
          "indexed": true,
          "name": "emailCode",
          "type": "bytes32"
        },
        {
          "indexed": false,
          "name": "index",
          "type": "uint256"
        },
        {
          "indexed": false,
          "name": "email",
          "type": "string"
        },
        {
          "indexed": false,
          "name": "passwordCode",
          "type": "bytes32"
        },
        {
          "indexed": false,
          "name": "passwordRestToken",
          "type": "bytes32"
        },
        {
          "indexed": false,
          "name": "name",
          "type": "string"
        },
        {
          "indexed": false,
          "name": "contactNumber",
          "type": "uint256"
        },
        {
          "indexed": false,
          "name": "userAddress",
          "type": "string"
        },
        {
          "indexed": false,
          "name": "userAccess",
          "type": "uint256"
        }
      ],
      "name": "LogUpdateAdmin",
      "type": "event"
    },
    {
      "anonymous": false,
      "inputs": [
        {
          "indexed": true,
          "name": "emailcode",
          "type": "bytes32"
        },
        {
          "indexed": false,
          "name": "index",
          "type": "uint256"
        }
      ],
      "name": "LogDeleteAdmin",
      "type": "event"
    },
    {
      "constant": true,
      "inputs": [],
      "name": "scanDistributor",
      "outputs": [
        {
          "name": "",
          "type": "bool"
        }
      ],
      "payable": false,
      "stateMutability": "pure",
      "type": "function"
    },
    {
      "constant": true,
      "inputs": [],
      "name": "scanPacket",
      "outputs": [
        {
          "name": "",
          "type": "bool"
        }
      ],
      "payable": false,
      "stateMutability": "pure",
      "type": "function"
    },
    {
      "constant": true,
      "inputs": [
        {
          "name": "_email",
          "type": "string"
        },
        {
          "name": "_password",
          "type": "string"
        },
        {
          "name": "_appId",
          "type": "uint256"
        }
      ],
      "name": "login",
      "outputs": [
        {
          "name": "",
          "type": "bool"
        }
      ],
      "payable": false,
      "stateMutability": "view",
      "type": "function"
    },
    {
      "constant": false,
      "inputs": [
        {
          "name": "_email",
          "type": "string"
        },
        {
          "name": "_name",
          "type": "string"
        }
      ],
      "name": "insertAdmin",
      "outputs": [
        {
          "name": "",
          "type": "bytes32"
        }
      ],
      "payable": false,
      "stateMutability": "nonpayable",
      "type": "function"
    },
    {
      "constant": false,
      "inputs": [
        {
          "name": "email",
          "type": "bytes32"
        }
      ],
      "name": "deleteAdmin",
      "outputs": [
        {
          "name": "",
          "type": "string"
        }
      ],
      "payable": false,
      "stateMutability": "nonpayable",
      "type": "function"
    },
    {
      "constant": true,
      "inputs": [
        {
          "name": "_email",
          "type": "string"
        }
      ],
      "name": "getAdmin",
      "outputs": [
        {
          "name": "email",
          "type": "string"
        },
        {
          "name": "name",
          "type": "string"
        },
        {
          "name": "contactNumber",
          "type": "uint256"
        },
        {
          "name": "userAddress",
          "type": "string"
        },
        {
          "name": "userAccess",
          "type": "uint256"
        }
      ],
      "payable": false,
      "stateMutability": "view",
      "type": "function"
    },
    {
      "constant": true,
      "inputs": [
        {
          "name": "i",
          "type": "uint256"
        }
      ],
      "name": "getAdmini",
      "outputs": [
        {
          "name": "",
          "type": "bytes32"
        },
        {
          "name": "",
          "type": "string"
        },
        {
          "name": "",
          "type": "string"
        },
        {
          "name": "",
          "type": "uint256"
        },
        {
          "name": "",
          "type": "string"
        },
        {
          "name": "",
          "type": "uint256"
        }
      ],
      "payable": false,
      "stateMutability": "view",
      "type": "function"
    },
    {
      "constant": true,
      "inputs": [],
      "name": "getAdminCount",
      "outputs": [
        {
          "name": "",
          "type": "uint256"
        }
      ],
      "payable": false,
      "stateMutability": "view",
      "type": "function"
    },
    {
      "constant": false,
      "inputs": [
        {
          "name": "_email",
          "type": "string"
        },
        {
          "name": "_name",
          "type": "string"
        }
      ],
      "name": "updateAdminName",
      "outputs": [
        {
          "name": "success",
          "type": "bool"
        }
      ],
      "payable": false,
      "stateMutability": "nonpayable",
      "type": "function"
    },
    {
      "constant": false,
      "inputs": [
        {
          "name": "_email",
          "type": "string"
        },
        {
          "name": "_userAddress",
          "type": "string"
        }
      ],
      "name": "updateAdminAddress",
      "outputs": [
        {
          "name": "success",
          "type": "bool"
        }
      ],
      "payable": false,
      "stateMutability": "nonpayable",
      "type": "function"
    },
    {
      "constant": false,
      "inputs": [
        {
          "name": "_email",
          "type": "string"
        },
        {
          "name": "_contactNumber",
          "type": "uint256"
        }
      ],
      "name": "updateAdminContactNumber",
      "outputs": [
        {
          "name": "success",
          "type": "bool"
        }
      ],
      "payable": false,
      "stateMutability": "nonpayable",
      "type": "function"
    },
    {
      "constant": false,
      "inputs": [
        {
          "name": "_email",
          "type": "string"
        },
        {
          "name": "index",
          "type": "uint256[]"
        },
        {
          "name": "_name",
          "type": "string"
        },
        {
          "name": "_userAddress",
          "type": "string"
        },
        {
          "name": "_contactNumber",
          "type": "uint256"
        }
      ],
      "name": "updateAdmin",
      "outputs": [
        {
          "name": "success",
          "type": "bool"
        }
      ],
      "payable": false,
      "stateMutability": "nonpayable",
      "type": "function"
    },
    {
      "constant": false,
      "inputs": [
        {
          "name": "_email",
          "type": "string"
        }
      ],
      "name": "updateAdminEmail",
      "outputs": [
        {
          "name": "success",
          "type": "bool"
        }
      ],
      "payable": false,
      "stateMutability": "nonpayable",
      "type": "function"
    },
    {
      "constant": false,
      "inputs": [
        {
          "name": "token",
          "type": "bytes32"
        }
      ],
      "name": "registation",
      "outputs": [
        {
          "name": "",
          "type": "bool"
        }
      ],
      "payable": false,
      "stateMutability": "nonpayable",
      "type": "function"
    },
    {
      "constant": false,
      "inputs": [
        {
          "name": "_email",
          "type": "string"
        }
      ],
      "name": "frogetPassword",
      "outputs": [
        {
          "name": "",
          "type": "bool"
        }
      ],
      "payable": false,
      "stateMutability": "nonpayable",
      "type": "function"
    },
    {
      "constant": false,
      "inputs": [
        {
          "name": "token",
          "type": "bytes32"
        },
        {
          "name": "password",
          "type": "string"
        }
      ],
      "name": "resetPassword",
      "outputs": [
        {
          "name": "",
          "type": "bool"
        }
      ],
      "payable": false,
      "stateMutability": "nonpayable",
      "type": "function"
    },
    {
      "constant": false,
      "inputs": [],
      "name": "createBox",
      "outputs": [
        {
          "name": "",
          "type": "bool"
        }
      ],
      "payable": false,
      "stateMutability": "nonpayable",
      "type": "function"
    },
    {
      "constant": false,
      "inputs": [],
      "name": "creatPacket",
      "outputs": [
        {
          "name": "",
          "type": "bool"
        }
      ],
      "payable": false,
      "stateMutability": "nonpayable",
      "type": "function"
    }
  ],
  "bytecode": "0x608060405234801561001057600080fd5b5061381f806100206000396000f3fe608060405234801561001057600080fd5b50600436106101375760003560e01c8063806137f6116100b8578063c4c755ca1161007c578063c4c755ca14610aba578063d0a9e0c014610cec578063e3797ad614610d2f578063e6d218d914610d4c578063ec8b1cb21461066e578063f3690dcc14610f4257610137565b8063806137f6146106765780638ab5626f146107ec5780638b7bf3eb146109775780639e0ee56f1461013c578063b45ecca81461099157610137565b806343cbe7e3116100ff57806343cbe7e31461029a5780634ed3faf2146103df578063651cbbc71461041a57806375580b55146105455780637fa767bc1461066e57610137565b8063054f1a5a1461013c57806309a53252146101f4578063191e66e81461029a5780631f24f8a5146102a25780632c848ac414610334575b600080fd5b6101e06004803603602081101561015257600080fd5b810190602081018135600160201b81111561016c57600080fd5b82018360208201111561017e57600080fd5b803590602001918460018302840111600160201b8311171561019f57600080fd5b91908080601f01602080910402602001604051908101604052809392919081815260200183838082843760009201919091525092955061106b945050505050565b604080519115158252519081900360200190f35b6101e06004803603604081101561020a57600080fd5b810190602081018135600160201b81111561022457600080fd5b82018360208201111561023657600080fd5b803590602001918460018302840111600160201b8311171561025757600080fd5b91908080601f0160208091040260200160405190810160405280939291908181526020018383808284376000920191909152509295505091359250611071915050565b6101e06113ad565b6102bf600480360360208110156102b857600080fd5b50356113b3565b6040805160208082528351818301528351919283929083019185019080838360005b838110156102f95781810151838201526020016102e1565b50505050905090810190601f1680156103265780820380516001836020036101000a031916815260200191505b509250505060405180910390f35b6101e06004803603604081101561034a57600080fd5b81359190810190604081016020820135600160201b81111561036b57600080fd5b82018360208201111561037d57600080fd5b803590602001918460018302840111600160201b8311171561039e57600080fd5b91908080601f0160208091040260200160405190810160405280939291908181526020018383808284376000920191909152509295506115e5945050505050565b6103fc600480360360208110156103f557600080fd5b50356115ed565b60408051938452602084019290925282820152519081900360600190f35b6101e06004803603606081101561043057600080fd5b810190602081018135600160201b81111561044a57600080fd5b82018360208201111561045c57600080fd5b803590602001918460018302840111600160201b8311171561047d57600080fd5b91908080601f0160208091040260200160405190810160405280939291908181526020018383808284376000920191909152509295949360208101935035915050600160201b8111156104cf57600080fd5b8201836020820111156104e157600080fd5b803590602001918460018302840111600160201b8311171561050257600080fd5b91908080601f016020809104026020016040519081016040528093929190818152602001838380828437600092019190915250929550509135925061160e915050565b6101e06004803603604081101561055b57600080fd5b810190602081018135600160201b81111561057557600080fd5b82018360208201111561058757600080fd5b803590602001918460018302840111600160201b831117156105a857600080fd5b91908080601f0160208091040260200160405190810160405280939291908181526020018383808284376000920191909152509295949360208101935035915050600160201b8111156105fa57600080fd5b82018360208201111561060c57600080fd5b803590602001918460018302840111600160201b8311171561062d57600080fd5b91908080601f0160208091040260200160405190810160405280939291908181526020018383808284376000920191909152509295506119da945050505050565b6101e0611ce6565b6106936004803603602081101561068c57600080fd5b5035611ceb565b60405180878152602001806020018060200186815260200180602001858152602001848103845289818151815260200191508051906020019080838360005b838110156106ea5781810151838201526020016106d2565b50505050905090810190601f1680156107175780820380516001836020036101000a031916815260200191505b5084810383528851815288516020918201918a019080838360005b8381101561074a578181015183820152602001610732565b50505050905090810190601f1680156107775780820380516001836020036101000a031916815260200191505b50848103825286518152865160209182019188019080838360005b838110156107aa578181015183820152602001610792565b50505050905090810190601f1680156107d75780820380516001836020036101000a031916815260200191505b50995050505050505050505060405180910390f35b6108096004803603602081101561080257600080fd5b5035611f6e565b60405180806020018a8152602001898152602001888152602001806020018781526020018060200186815260200185815260200184810384528d818151815260200191508051906020019080838360005b8381101561087257818101518382015260200161085a565b50505050905090810190601f16801561089f5780820380516001836020036101000a031916815260200191505b5084810383528951815289516020918201918b019080838360005b838110156108d25781810151838201526020016108ba565b50505050905090810190601f1680156108ff5780820380516001836020036101000a031916815260200191505b50848103825287518152875160209182019189019080838360005b8381101561093257818101518382015260200161091a565b50505050905090810190601f16801561095f5780820380516001836020036101000a031916815260200191505b509c5050505050505050505050505060405180910390f35b61097f61215c565b60408051918252519081900360200190f35b6101e0600480360360408110156109a757600080fd5b810190602081018135600160201b8111156109c157600080fd5b8201836020820111156109d357600080fd5b803590602001918460018302840111600160201b831117156109f457600080fd5b91908080601f0160208091040260200160405190810160405280939291908181526020018383808284376000920191909152509295949360208101935035915050600160201b811115610a4657600080fd5b820183602082011115610a5857600080fd5b803590602001918460018302840111600160201b83111715610a7957600080fd5b91908080601f016020809104026020016040519081016040528093929190818152602001838380828437600092019190915250929550612162945050505050565b6101e0600480360360a0811015610ad057600080fd5b810190602081018135600160201b811115610aea57600080fd5b820183602082011115610afc57600080fd5b803590602001918460018302840111600160201b83111715610b1d57600080fd5b91908080601f0160208091040260200160405190810160405280939291908181526020018383808284376000920191909152509295949360208101935035915050600160201b811115610b6f57600080fd5b820183602082011115610b8157600080fd5b803590602001918460208302840111600160201b83111715610ba257600080fd5b9190808060200260200160405190810160405280939291908181526020018383602002808284376000920191909152509295949360208101935035915050600160201b811115610bf157600080fd5b820183602082011115610c0357600080fd5b803590602001918460018302840111600160201b83111715610c2457600080fd5b91908080601f0160208091040260200160405190810160405280939291908181526020018383808284376000920191909152509295949360208101935035915050600160201b811115610c7657600080fd5b820183602082011115610c8857600080fd5b803590602001918460018302840111600160201b83111715610ca957600080fd5b91908080601f01602080910402602001604051908101604052809392919081815260200183838082843760009201919091525092955050913592506124ba915050565b610d0960048036036020811015610d0257600080fd5b5035612d5a565b604080519485526020850193909352838301919091526060830152519081900360800190f35b6101e060048036036020811015610d4557600080fd5b503561106b565b610df060048036036020811015610d6257600080fd5b810190602081018135600160201b811115610d7c57600080fd5b820183602082011115610d8e57600080fd5b803590602001918460018302840111600160201b83111715610daf57600080fd5b91908080601f016020809104026020016040519081016040528093929190818152602001838380828437600092019190915250929550612d82945050505050565b60405180806020018060200186815260200180602001858152602001848103845289818151815260200191508051906020019080838360005b83811015610e41578181015183820152602001610e29565b50505050905090810190601f168015610e6e5780820380516001836020036101000a031916815260200191505b5084810383528851815288516020918201918a019080838360005b83811015610ea1578181015183820152602001610e89565b50505050905090810190601f168015610ece5780820380516001836020036101000a031916815260200191505b50848103825286518152865160209182019188019080838360005b83811015610f01578181015183820152602001610ee9565b50505050905090810190601f168015610f2e5780820380516001836020036101000a031916815260200191505b509850505050505050505060405180910390f35b61097f60048036036040811015610f5857600080fd5b810190602081018135600160201b811115610f7257600080fd5b820183602082011115610f8457600080fd5b803590602001918460018302840111600160201b83111715610fa557600080fd5b91908080601f0160208091040260200160405190810160405280939291908181526020018383808284376000920191909152509295949360208101935035915050600160201b811115610ff757600080fd5b82018360208201111561100957600080fd5b803590602001918460018302840111600160201b8311171561102a57600080fd5b91908080601f016020809104026020016040519081016040528093929190818152602001838380828437600092019190915250929550613037945050505050565b50600090565b600080836040516020018082805190602001908083835b602083106110a75780518252601f199092019160209182019101611088565b6001836020036101000a0380198251168184511680821785525050505050509050019150506040516020818303038152906040528051906020012090506110ed81613438565b151560011461113e5760408051600160e51b62461bcd0281526020600482015260126024820152600160701b7175736572206e6f7420696e2073797374656d02604482015290519081900360640190fd5b6000818152600260205260409020600581018490556008015460038054859290811061116657fe5b90600052602060002090600602016003018190555080600080516020613799833981519152600260008481526020019081526020016000206008015486600260008681526020019081526020016000206002015460026000878152602001908152602001600020600301546002600088815260200190815260200160002060040189600260008a8152602001908152602001600020600601600260008b8152602001908152602001600020600701546040518089815260200180602001888152602001878152602001806020018681526020018060200185815260200184810384528b818151815260200191508051906020019080838360005b83811015611278578181015183820152602001611260565b50505050905090810190601f1680156112a55780820380516001836020036101000a031916815260200191505b508481038352885460026000196101006001841615020190911604808252602090910190899080156113185780601f106112ed57610100808354040283529160200191611318565b820191906000526020600020905b8154815290600101906020018083116112fb57829003601f168201915b505084810382528654600260001961010060018416150201909116048082526020909101908790801561138c5780601f106113615761010080835404028352916020019161138c565b820191906000526020600020905b81548152906001019060200180831161136f57829003601f168201915b50509b50505050505050505050505060405180910390a25060019392505050565b60015b90565b60606000815b6004548210156114905783600483815481106113d157fe5b9060005260206000209060020201600001541415611485576004805460001981019081106113fb57fe5b9060005260206000209060020201600001546004838154811061141a57fe5b600091825260209091206002909102015560048054600019810190811061143d57fe5b9060005260206000209060020201600101546004838154811061145c57fe5b6000918252602090912060016002909202010155600480549061148390600019830161365f565b505b6001909101906113b9565b60008481526002602052604090206004600782018190556008909101546003805490919081106114bc57fe5b90600052602060002090600602016005018190555060036002600086815260200190815260200160002060080154815481106114f457fe5b600091825260209182902060026006909202018101805460408051601f60001961010060018616150201909316949094049182018590048502840185019052808352919290919083018282801561158c5780601f106115615761010080835404028352916020019161158c565b820191906000526020600020905b81548152906001019060200180831161156f57829003601f168201915b505050600087815260026020908152604091829020600801548251908152915194955088947f4e8bcb6b6008aa5ec72e5bc9e94a9b6e33366c23fd6447d9427295b2c1a2396b945091829003019150a29150505b919050565b600092915050565b60006020819052908152604090208054600182015460029092015490919083565b600080846040516020018082805190602001908083835b602083106116445780518252601f199092019160209182019101611625565b6001836020036101000a0380198251168184511680821785525050505050509050019150506040516020818303038152906040528051906020012090506000846040516020018082805190602001908083835b602083106116b65780518252601f199092019160209182019101611697565b6001836020036101000a03801982511681845116808217855250505050505090500191505060405160208183030381529060405280519060200120905080821415611706576001925050506119d3565b83600114156119af5761171882613438565b61176c5760408051600160e51b62461bcd02815260206004820152601860248201527f646f73656e2774206d61637468207468697320656d61696c0000000000000000604482015290519081900360640190fd5b600082815260026020526040902060070154600114156117d65760408051600160e51b62461bcd02815260206004820152601f60248201527f75736572206e6f7420726567697374657220696e207468652073797374656d00604482015290519081900360640190fd5b60008281526002602081905260409091206007015414156118415760408051600160e51b62461bcd02815260206004820152601c60248201527f75736572206e6f7420636f6e6669726d20746869657220656d61696c00000000604482015290519081900360640190fd5b6000828152600260208190526040909120015481141561195f5760008281526002602052604090206007015460051415611880576001925050506119d3565b600082815260026020526040902060070154600314156118ea5760408051600160e51b62461bcd02815260206004820181905260248201527f757365722074656d706f727920626c6f636b20696e207468652073797374656d604482015290519081900360640190fd5b600082815260026020526040902060070154600414156119545760408051600160e51b62461bcd02815260206004820152601860248201527f757365722064656c657465642066726f6d2073797374656d0000000000000000604482015290519081900360640190fd5b6000925050506119d3565b60408051600160e51b62461bcd02815260206004820152601b60248201527f646f73656e2774206d6163746820746869732070617373776f72640000000000604482015290519081900360640190fd5b83600214156119c3576001925050506119d3565b8360031415611954576001925050505b9392505050565b600080836040516020018082805190602001908083835b60208310611a105780518252601f1990920191602091820191016119f1565b6001836020036101000a038019825116818451168082178552505050505050905001915050604051602081830303815290604052805190602001209050611a5681613438565b1515600114611aa75760408051600160e51b62461bcd0281526020600482015260126024820152600160701b7175736572206e6f7420696e2073797374656d02604482015290519081900360640190fd5b60008181526002602090815260409091208451611acc92600490920191860190613690565b50600081815260026020526040902060080154600380548592908110611aee57fe5b90600052602060002090600602016002019080519060200190611b12929190613690565b508060008051602061379983398151915260026000848152602001908152602001600020600801548660026000868152602001908152602001600020600201546002600087815260200190815260200160002060030154886002600089815260200190815260200160002060050154600260008a8152602001908152602001600020600601600260008b8152602001908152602001600020600701546040518089815260200180602001888152602001878152602001806020018681526020018060200185815260200184810384528b818151815260200191508051906020019080838360005b83811015611c11578181015183820152602001611bf9565b50505050905090810190601f168015611c3e5780820380516001836020036101000a031916815260200191505b5084810383528851815288516020918201918a019080838360005b83811015611c71578181015183820152602001611c59565b50505050905090810190601f168015611c9e5780820380516001836020036101000a031916815260200191505b5084810382528654600260001961010060018416150201909116048082526020909101908790801561138c5780601f106113615761010080835404028352916020019161138c565b600090565b600060608060006060600060038781548110611d0357fe5b90600052602060002090600602016000015460038881548110611d2257fe5b906000526020600020906006020160010160038981548110611d4057fe5b906000526020600020906006020160020160038a81548110611d5e57fe5b90600052602060002090600602016003015460038b81548110611d7d57fe5b906000526020600020906006020160040160038c81548110611d9b57fe5b600091825260209182902060056006909202010154855460408051601f600260001961010060018716150201909416939093049283018590048502810185019091528181529192879190830182828015611e365780601f10611e0b57610100808354040283529160200191611e36565b820191906000526020600020905b815481529060010190602001808311611e1957829003601f168201915b5050875460408051602060026001851615610100026000190190941693909304601f8101849004840282018401909252818152959a5089945092508401905082828015611ec45780601f10611e9957610100808354040283529160200191611ec4565b820191906000526020600020905b815481529060010190602001808311611ea757829003601f168201915b5050855460408051602060026001851615610100026000190190941693909304601f810184900484028201840190925281815295995087945092508401905082828015611f525780601f10611f2757610100808354040283529160200191611f52565b820191906000526020600020905b815481529060010190602001808311611f3557829003601f168201915b5050505050915095509550955095509550955091939550919395565b600260208181526000928352604092839020805484516001821615610100026000190190911693909304601f8101839004830284018301909452838352928391830182828015611fff5780601f10611fd457610100808354040283529160200191611fff565b820191906000526020600020905b815481529060010190602001808311611fe257829003601f168201915b505050505090806001015490806002015490806003015490806004018054600181600116156101000203166002900480601f0160208091040260200160405190810160405280929190818152602001828054600181600116156101000203166002900480156120af5780601f10612084576101008083540402835291602001916120af565b820191906000526020600020905b81548152906001019060200180831161209257829003601f168201915b50505050600583015460068401805460408051602060026001851615610100026000190190941693909304601f810184900484028201840190925281815295969395939450908301828280156121465780601f1061211b57610100808354040283529160200191612146565b820191906000526020600020905b81548152906001019060200180831161212957829003601f168201915b5050505050908060070154908060080154905089565b60035490565b600080836040516020018082805190602001908083835b602083106121985780518252601f199092019160209182019101612179565b6001836020036101000a0380198251168184511680821785525050505050509050019150506040516020818303038152906040528051906020012090506121de81613438565b151560011461222f5760408051600160e51b62461bcd0281526020600482015260126024820152600160701b7175736572206e6f7420696e2073797374656d02604482015290519081900360640190fd5b6000818152600260209081526040909120845161225492600690920191860190613690565b5060008181526002602052604090206008015460038054859290811061227657fe5b9060005260206000209060060201600401908051906020019061229a929190613690565b5080600080516020613799833981519152600260008481526020019081526020016000206008015486600260008681526020019081526020016000206002015460026000878152602001908152602001600020600301546002600088815260200190815260200160002060040160026000898152602001908152602001600020600501548a600260008b8152602001908152602001600020600701546040518089815260200180602001888152602001878152602001806020018681526020018060200185815260200184810384528b818151815260200191508051906020019080838360005b83811015612399578181015183820152602001612381565b50505050905090810190601f1680156123c65780820380516001836020036101000a031916815260200191505b508481038352885460026000196101006001841615020190911604808252602090910190899080156124395780601f1061240e57610100808354040283529160200191612439565b820191906000526020600020905b81548152906001019060200180831161241c57829003601f168201915b5050848103825286518152865160209182019188019080838360005b8381101561246d578181015183820152602001612455565b50505050905090810190601f16801561249a5780820380516001836020036101000a031916815260200191505b509b50505050505050505050505060405180910390a25060019392505050565b600080866040516020018082805190602001908083835b602083106124f05780518252601f1990920191602091820191016124d1565b6001836020036101000a03801982511681845116808217855250505050505090500191505060405160208183030381529060405280519060200120905061253681613438565b15156001146125875760408051600160e51b62461bcd0281526020600482015260126024820152600160701b7175736572206e6f7420696e2073797374656d02604482015290519081900360640190fd5b6000818152600260205260408120600801545b8751821015612d4b578782815181106125af57fe5b60200260200101516001141561283257600083815260026020908152604090912088516125e4926004909201918a0190613690565b5086600382815481106125f357fe5b90600052602060002090600602016002019080519060200190612617929190613690565b508260008051602061379983398151915260026000868152602001908152602001600020600801548b600260008881526020019081526020016000206002015460026000898152602001908152602001600020600301548c600260008b815260200190815260200160002060050154600260008c8152602001908152602001600020600601600260008d8152602001908152602001600020600701546040518089815260200180602001888152602001878152602001806020018681526020018060200185815260200184810384528b818151815260200191508051906020019080838360005b838110156127165781810151838201526020016126fe565b50505050905090810190601f1680156127435780820380516001836020036101000a031916815260200191505b5084810383528851815288516020918201918a019080838360005b8381101561277657818101518382015260200161275e565b50505050905090810190601f1680156127a35780820380516001836020036101000a031916815260200191505b508481038252865460026000196101006001841615020190911604808252602090910190879080156128165780601f106127eb57610100808354040283529160200191612816565b820191906000526020600020905b8154815290600101906020018083116127f957829003601f168201915b50509b50505050505050505050505060405180910390a2612d40565b87828151811061283e57fe5b602002602001015160021415612ac1576000838152600260209081526040909120875161287392600690920191890190613690565b50856003828154811061288257fe5b906000526020600020906006020160040190805190602001906128a6929190613690565b508260008051602061379983398151915260026000868152602001908152602001600020600801548b60026000888152602001908152602001600020600201546002600089815260200190815260200160002060030154600260008a8152602001908152602001600020600401600260008b8152602001908152602001600020600501548d600260008d8152602001908152602001600020600701546040518089815260200180602001888152602001878152602001806020018681526020018060200185815260200184810384528b818151815260200191508051906020019080838360005b838110156129a557818101518382015260200161298d565b50505050905090810190601f1680156129d25780820380516001836020036101000a031916815260200191505b50848103835288546002600019610100600184161502019091160480825260209091019089908015612a455780601f10612a1a57610100808354040283529160200191612a45565b820191906000526020600020905b815481529060010190602001808311612a2857829003601f168201915b5050848103825286518152865160209182019188019080838360005b83811015612a79578181015183820152602001612a61565b50505050905090810190601f168015612aa65780820380516001836020036101000a031916815260200191505b509b50505050505050505050505060405180910390a2612d40565b878281518110612acd57fe5b602002602001015160031415612d405760008381526002602052604090206005018590556003805486919083908110612b0257fe5b9060005260206000209060060201600301819055508260008051602061379983398151915260026000868152602001908152602001600020600801548b60026000888152602001908152602001600020600201546002600089815260200190815260200160002060030154600260008a81526020019081526020016000206004018b600260008c8152602001908152602001600020600601600260008d8152602001908152602001600020600701546040518089815260200180602001888152602001878152602001806020018681526020018060200185815260200184810384528b818151815260200191508051906020019080838360005b83811015612c14578181015183820152602001612bfc565b50505050905090810190601f168015612c415780820380516001836020036101000a031916815260200191505b50848103835288546002600019610100600184161502019091160480825260209091019089908015612cb45780601f10612c8957610100808354040283529160200191612cb4565b820191906000526020600020905b815481529060010190602001808311612c9757829003601f168201915b5050848103825286546002600019610100600184161502019091160480825260209091019087908015612d285780601f10612cfd57610100808354040283529160200191612d28565b820191906000526020600020905b815481529060010190602001808311612d0b57829003601f168201915b50509b50505050505050505050505060405180910390a25b60019091019061259a565b50600198975050505050505050565b6001602081905260009182526040909120805491810154600282015460039092015490919084565b60608060006060600080866040516020018082805190602001908083835b60208310612dbf5780518252601f199092019160209182019101612da0565b6001836020036101000a038019825116818451168082178552505050505050905001915050604051602081830303815290604052805190602001209050612e0581613438565b1515600114612e565760408051600160e51b62461bcd0281526020600482015260126024820152600160701b7175736572206e6f7420696e2073797374656d02604482015290519081900360640190fd5b60008181526002602081815260409283902060058101546007820154825486516001821615610100026000190190911695909504601f8101859004850286018501909652858552919460048601949193600687019392918791830182828015612f005780601f10612ed557610100808354040283529160200191612f00565b820191906000526020600020905b815481529060010190602001808311612ee357829003601f168201915b5050875460408051602060026001851615610100026000190190941693909304601f8101849004840282018401909252818152959a5089945092508401905082828015612f8e5780601f10612f6357610100808354040283529160200191612f8e565b820191906000526020600020905b815481529060010190602001808311612f7157829003601f168201915b5050855460408051602060026001851615610100026000190190941693909304601f81018490048402820184019092528181529599508794509250840190508282801561301c5780601f10612ff15761010080835404028352916020019161301c565b820191906000526020600020905b815481529060010190602001808311612fff57829003601f168201915b50505050509150955095509550955095505091939590929450565b600080836040516020018082805190602001908083835b6020831061306d5780518252601f19909201916020918201910161304e565b51815160209384036101000a60001901801990921691161790526040805192909401828103601f19018352808552825192820192909220600083529082019384905290519092209194509092506130c79150839050613438565b1515600114156131215760408051600160e51b62461bcd02815260206004820152601660248201527f7573657220616c6c7265647920696e2073797374656d00000000000000000000604482015290519081900360640190fd5b6000828152600260209081526040909120865161314092880190613690565b5060008281526002602081815260408320600181018690559182018490556003820192909255855161317a92600490920191870190613690565b50600082815260026020818152604080842060058101859055815180840192839052858152948790529290915291516131b99260069092019190613690565b50600082815260026020526040902060016007909101556131db828686613485565b506001600380549050036002600084815260200190815260200160002060080181905550817f2d9d676840c870cc037bd86cc92e3231dc401cfe5b6a8cda2f2bda9c44e5234a6002600085815260200190815260200160002060080154876002600087815260200190815260200160002060020154600260008881526020019081526020016000206003015489600260008a815260200190815260200160002060050154600260008b8152602001908152602001600020600601600260008c8152602001908152602001600020600701546040518089815260200180602001888152602001878152602001806020018681526020018060200185815260200184810384528b818151815260200191508051906020019080838360005b8381101561330f5781810151838201526020016132f7565b50505050905090810190601f16801561333c5780820380516001836020036101000a031916815260200191505b5084810383528851815288516020918201918a019080838360005b8381101561336f578181015183820152602001613357565b50505050905090810190601f16801561339c5780820380516001836020036101000a031916815260200191505b5084810382528654600260001961010060018416150201909116048082526020909101908790801561340f5780601f106133e45761010080835404028352916020019161340f565b820191906000526020600020905b8154815290600101906020018083116133f257829003601f168201915b50509b50505050505050505050505060405180910390a261342f826135ab565b95945050505050565b60035460009061344a575060006115e0565b60008281526002602052604090206008015460038054849290811061346b57fe5b906000526020600020906006020160000154149050919050565b600061348f61370e565b84815260208082018590526040808301859052632ac5f23e6060808501919091528151908101909152603b80825290916137b9908301396080820152600160a0820181905260038054918201808255600091909152825160069092027fc2575a0e9e593c00f959f8c92f12db2869c3395a3b0502d05e2516446f71f85b8101928355602080850151805193948694909361354f937fc2575a0e9e593c00f959f8c92f12db2869c3395a3b0502d05e2516446f71f85c909101920190613690565b506040820151805161356b916002840191602090910190613690565b506060820151600382015560808201518051613591916004840191602090910190613690565b5060a0820151816005015550505060019150509392505050565b6000806135b6613633565b90506135c0613747565b928352602083018181526004805460018101825560009190915293517f8a35acfbc15ff81a39ae7d344fd709f28e8600b4aa8c65c6b64bfe7fe36bd19b600290950294850155517f8a35acfbc15ff81a39ae7d344fd709f28e8600b4aa8c65c6b64bfe7fe36bd19c909301929092555090565b604080514260208083019190915244828401528251808303840181526060909201909252805191012090565b81548183558181111561368b5760020281600202836000526020600020918201910161368b919061375e565b505050565b828054600181600116156101000203166002900490600052602060002090601f016020900481019282601f106136d157805160ff19168380011785556136fe565b828001600101855582156136fe579182015b828111156136fe5782518255916020019190600101906136e3565b5061370a92915061377e565b5090565b6040518060c001604052806000801916815260200160608152602001606081526020016000815260200160608152602001600081525090565b604080518082019091526000808252602082015290565b6113b091905b8082111561370a5760008082556001820155600201613764565b6113b091905b8082111561370a576000815560010161378456fee4b15a551fc7f1c535736e08118cbf9622dc7104fbc63bc36ab16524aa9935d9313333352c626f676168617761746874686120526f61642c70616e6e697069746979612c636f6c6f6d626f2c737269206c616e6b612c3130323330a165627a7a723058200bdd778379eb0a9af368b91fc38ef4776744a4701ef0013236bb7d2dd6cf043f0029",
  "source": "pragma solidity >=0.4.21 <0.6.0;\r\n\r\ncontract Login {\r\n    struct Packet{\r\n        uint packetId;\r\n        uint boxId;\r\n        uint productId;\r\n        uint rate;\r\n    }\r\n    struct Box{\r\n        uint boxtId;\r\n        uint containerId;\r\n        uint orderId;\r\n        uint[] distributorIndex;\r\n        uint256[]  time;\r\n    }\r\n    struct Container{\r\n        uint containerId;\r\n        uint orderId;\r\n        uint rate;\r\n        uint[] distributorIndex;\r\n        uint256[]  time;\r\n    }\r\n    struct Order{\r\n        uint packetId;\r\n        uint orderId;\r\n    }\r\n    struct Product{\r\n        uint packetId;\r\n        uint orderId;\r\n        uint rate;\r\n\r\n    }\r\n    struct Estate{\r\n        uint packetId;\r\n        uint orderId;\r\n        uint rate;\r\n\r\n    }\r\n\r\n    struct Manager{\r\n        string email;\r\n        string firstName;\r\n        string lastName;\r\n        uint userType;\r\n        bool userAccess;\r\n    }\r\n    struct Worker{\r\n        string email;\r\n        string firstName;\r\n        string lastName;\r\n        uint userType;\r\n        bool userAccess;\r\n    }\r\n    struct Distributor{\r\n        string email;\r\n        string firstName;\r\n        string lastName;\r\n        string location;\r\n        string countryIsoCode;\r\n        uint userType;\r\n        bool userAccess;\r\n\r\n    }\r\n\r\n    function scanDistributor(/*uint64 _boxtId,uint64 _distributorId*/)public pure returns(bool){\r\n        // first map packet id and get packet location\r\n        // second we store distributor id in box distributors array\r\n        return true;\r\n    }\r\n\r\n    function scanPacket(/*uint64 _packetId*/)public pure returns(/* packetdtail*//*supply chin */bool){\r\n        return true;\r\n    }\r\n\r\n    function login(string memory _email,string memory _password,uint _appId)public view returns(bool){\r\n\r\n        bytes32 email = keccak256(abi.encodePacked((_email)));\r\n        bytes32 password = keccak256(abi.encodePacked((_password)));\r\n\r\n        if(email == password){\r\n            return true;\r\n        }\r\n\r\n        if(_appId==1){\r\n            require(isUser(email),\"dosen't macth this email\");\r\n            require(!(adminArray[email].userAccess == 1),\"user not register in the system\");\r\n            require(!(adminArray[email].userAccess == 2),\"user not confirm thier email\");\r\n            if(adminArray[email].passwordCode == password ){\r\n                if(adminArray[email].userAccess == 5){\r\n                    return true;\r\n                }else{\r\n                    require(!(adminArray[email].userAccess == 3),\"user tempory block in the system\");\r\n                    require(!(adminArray[email].userAccess == 4),\"user deleted from system\");\r\n                    return false;\r\n                }\r\n                \r\n            } else{\r\n                require(false,\"dosen't macth this password\");\r\n                return false;\r\n            }\r\n        }\r\n        else if(_appId==2){\r\n            return true;\r\n        }\r\n        else if(_appId == 3){\r\n            return true;\r\n        }\r\n        else{\r\n            return false;\r\n        }\r\n    }\r\n    \r\n    struct Admin{\r\n        string email;\r\n        bytes32 emailCode;\r\n        bytes32 passwordCode;\r\n        bytes32 passwordRestToken;\r\n        string name;\r\n        uint contactNumber;\r\n        string userAddress;\r\n        uint userAccess;\r\n        uint index;\r\n    }\r\n\r\n    struct DisplayAdmin{\r\n        bytes32 emailCode;\r\n        string email;\r\n        string name;\r\n        uint contactNumber;\r\n        string userAddress;\r\n        uint userAccess;\r\n    }\r\n    \r\n    struct RegistationToken{\r\n        bytes32 emailCode;\r\n        bytes32 token;\r\n    }\r\n\r\n    //mapping(address => UserStruct) private userStructs;\r\n    //address[] private adminIndex;\r\n\r\n    //\r\n     mapping(uint => Box) public boxes;\r\n     mapping(uint => Packet) public packets;\r\n     \r\n     mapping(bytes32 => Admin) public adminArray;\r\n     \r\n     DisplayAdmin[] private adminIndex;\r\n     RegistationToken[] private adminRegistationToken;\r\n\r\n    // event LogNewUser(address indexed userAddress, uint index, bytes32 userEmail, uint userAge);\r\n    // event LogUpdateUser(address indexed userAddress, uint index, bytes32 userEmail, uint userAge);\r\n    \r\n\r\n    event LogNewAdmin(\r\n        bytes32 indexed emailCode,\r\n        uint index,string email,\r\n        bytes32 passwordCode,\r\n        bytes32 passwordRestToken,\r\n        string name,\r\n        uint contactNumber,\r\n        string userAddress,\r\n        uint userAccess\r\n        );\r\n        \r\n    event LogUpdateAdmin(\r\n        bytes32 indexed emailCode,\r\n        uint index,string email,\r\n        bytes32 passwordCode,\r\n        bytes32 passwordRestToken,\r\n        string name,\r\n        uint contactNumber,\r\n        string userAddress,\r\n        uint userAccess\r\n        );\r\n        \r\n    event LogDeleteAdmin(\r\n        bytes32 indexed emailcode,\r\n        uint index\r\n        );\r\n\r\n    function isUser(bytes32 _emailCode)private view returns(bool isIndeed) {\r\n        if(adminIndex.length == 0) return false;\r\n        return (adminIndex[adminArray[_emailCode].index].emailCode == _emailCode);\r\n   }\r\n   \r\n    function createAdminToken(bytes32 _emailCode)private returns(bytes32){\r\n        bytes32 token = randomtoken();\r\n        RegistationToken memory registationToken;\r\n        registationToken.emailCode=_emailCode;\r\n        registationToken.token=token;\r\n        adminRegistationToken.push(registationToken);\r\n        return token;\r\n    }\r\n    \r\n    function randomtoken() private view returns (bytes32) {\r\n       return keccak256(abi.encodePacked(block.timestamp,block.difficulty));\r\n   }\r\n    \r\n    function setDisplayAdmin(bytes32 _emailCode,string memory _email,string memory _name) private returns(bool){\r\n\r\n        DisplayAdmin memory displayAdmin;\r\n        displayAdmin.emailCode = _emailCode;\r\n        displayAdmin.email = _email;\r\n        displayAdmin.name = _name;\r\n        displayAdmin.contactNumber = 717615678;\r\n        displayAdmin.userAddress = \"1335,bogahawaththa Road,pannipitiya,colombo,sri lanka,10230\";\r\n        displayAdmin.userAccess = 1;\r\n        adminIndex.push(displayAdmin);\r\n        return true;\r\n\r\n    }\r\n\r\n/////////////////////////\r\n\r\n\r\n    function insertAdmin(string memory _email,string memory _name) public returns(bytes32)\r\n    {\r\n        bytes32 _emailCode = keccak256(abi.encodePacked((_email)));\r\n        bytes32 _passwordCode = keccak256(abi.encodePacked((\"\")));\r\n        require(isUser(_emailCode) != true,'user allredy in system');\r\n\r\n        adminArray[_emailCode].email = _email;\r\n        adminArray[_emailCode].emailCode = _emailCode;\r\n        adminArray[_emailCode].passwordCode = _passwordCode;\r\n        adminArray[_emailCode].passwordRestToken = \"\";\r\n        adminArray[_emailCode].name = _name;\r\n        adminArray[_emailCode].contactNumber = 0;\r\n        adminArray[_emailCode].userAddress = \"\";\r\n        adminArray[_emailCode].userAccess = 1;\r\n        setDisplayAdmin(_emailCode,_email,_name);\r\n        adminArray[_emailCode].index = adminIndex.length-1;\r\n\r\n        emit LogNewAdmin(\r\n            _emailCode,\r\n            adminArray[_emailCode].index,\r\n            _email,\r\n            adminArray[_emailCode].passwordCode,\r\n            adminArray[_emailCode].passwordRestToken,\r\n            _name,\r\n            adminArray[_emailCode].contactNumber,\r\n            adminArray[_emailCode].userAddress,\r\n            adminArray[_emailCode].userAccess\r\n            );\r\n        return createAdminToken(_emailCode);\r\n    }\r\n\r\n    function deleteAdmin(bytes32 email) public returns(string memory)\r\n    {\r\n        uint i;\r\n        string memory name;\r\n        for(i=0;i<adminRegistationToken.length;i++){\r\n            if(adminRegistationToken[i].emailCode == email){\r\n                adminRegistationToken[i].emailCode=adminRegistationToken[adminRegistationToken.length-1].emailCode;\r\n                adminRegistationToken[i].token=adminRegistationToken[adminRegistationToken.length-1].token;\r\n                adminRegistationToken.length--;\r\n            }\r\n        }\r\n        adminArray[email].userAccess = 4;\r\n        adminIndex[adminArray[email].index].userAccess=4;\r\n        name =adminIndex[adminArray[email].index].name;\r\n        emit LogDeleteAdmin(\r\n            email,\r\n            adminArray[email].index\r\n        );\r\n        return name;\r\n    }\r\n    \r\n    function getAdmin(string memory _email) public view returns(string memory email,string memory name,\r\n    uint contactNumber,string memory userAddress, uint userAccess)\r\n    {\r\n        bytes32 _emailCode = keccak256(abi.encodePacked((_email)));\r\n        require(isUser(_emailCode) == true,'user not in system');\r\n        return(\r\n            adminArray[_emailCode].email,\r\n            adminArray[_emailCode].name,\r\n            adminArray[_emailCode].contactNumber,\r\n            adminArray[_emailCode].userAddress,\r\n            adminArray[_emailCode].userAccess\r\n            );\r\n    }\r\n    \r\n    function getAdmini(uint i) public view returns(\r\n        bytes32,\r\n        string memory,\r\n        string memory,\r\n        uint,\r\n        string memory,\r\n        uint\r\n        ){\r\n            return (\r\n                adminIndex[i].emailCode,\r\n                adminIndex[i].email,\r\n                adminIndex[i].name,\r\n                adminIndex[i].contactNumber,\r\n                adminIndex[i].userAddress,\r\n                adminIndex[i].userAccess\r\n                );\r\n    }\r\n    \r\n    function getAdminCount() public view returns(uint)\r\n    {\r\n        return adminIndex.length;\r\n    }\r\n    \r\n    // function updateUserEmail(address userAddress, bytes32 userEmail) public returns(bool success)\r\n    // {\r\n    //     userStructs[userAddress].userEmail = userEmail;\r\n    //     emit LogUpdateUser(userAddress,  userStructs[userAddress].index, userEmail, userStructs[userAddress].userAge);\r\n    //     return true;\r\n    // }\r\n    \r\n    \r\n    function updateAdminName (string memory _email,string memory _name) public returns(bool success)\r\n    {\r\n        bytes32 _emailCode = keccak256(abi.encodePacked((_email)));\r\n        require(isUser(_emailCode) == true,'user not in system');\r\n        adminArray[_emailCode].name = _name;\r\n        adminIndex[adminArray[_emailCode].index].name = _name;\r\n        emit LogUpdateAdmin(\r\n            _emailCode,\r\n            adminArray[_emailCode].index,\r\n            _email,\r\n            adminArray[_emailCode].passwordCode,\r\n            adminArray[_emailCode].passwordRestToken,\r\n            _name,\r\n            adminArray[_emailCode].contactNumber,\r\n            adminArray[_emailCode].userAddress,\r\n            adminArray[_emailCode].userAccess\r\n            );\r\n        return true;\r\n    }\r\n    \r\n    function updateAdminAddress (string memory _email,string memory _userAddress) public returns(bool success)\r\n    {\r\n        bytes32 _emailCode = keccak256(abi.encodePacked((_email)));\r\n        require(isUser(_emailCode) == true,'user not in system');\r\n        adminArray[_emailCode].userAddress = _userAddress;\r\n        adminIndex[adminArray[_emailCode].index].userAddress = _userAddress;\r\n        emit LogUpdateAdmin(\r\n            _emailCode,\r\n            adminArray[_emailCode].index,\r\n            _email,\r\n            adminArray[_emailCode].passwordCode,\r\n            adminArray[_emailCode].passwordRestToken,\r\n            adminArray[_emailCode].name,\r\n            adminArray[_emailCode].contactNumber,\r\n            _userAddress,\r\n            adminArray[_emailCode].userAccess\r\n            );\r\n        return true;\r\n    }\r\n    \r\n     function updateAdminContactNumber (string memory _email,uint _contactNumber) public returns(bool success)\r\n    {\r\n        bytes32 _emailCode = keccak256(abi.encodePacked((_email)));\r\n        require(isUser(_emailCode) == true,'user not in system');\r\n        adminArray[_emailCode].contactNumber = _contactNumber;\r\n        adminIndex[adminArray[_emailCode].index].contactNumber = _contactNumber;\r\n        emit LogUpdateAdmin(\r\n            _emailCode,\r\n            adminArray[_emailCode].index,\r\n            _email,\r\n            adminArray[_emailCode].passwordCode,\r\n            adminArray[_emailCode].passwordRestToken,\r\n            adminArray[_emailCode].name,\r\n            _contactNumber,\r\n            adminArray[_emailCode].userAddress,\r\n            adminArray[_emailCode].userAccess\r\n            );\r\n        return true;\r\n    }\r\n    \r\n    function updateAdmin(\r\n        string memory _email,\r\n        uint[] memory index,\r\n        string memory _name,\r\n        string memory _userAddress,\r\n        uint _contactNumber\r\n        ) public returns(bool success)\r\n    {\r\n        bytes32 _emailCode = keccak256(abi.encodePacked((_email)));\r\n        require(isUser(_emailCode) == true,'user not in system');\r\n        uint i;\r\n        uint num = adminArray[_emailCode].index;\r\n\r\n        for (i = 0;i<index.length;i++){\r\n            if(index[i]==1){\r\n                adminArray[_emailCode].name = _name;\r\n                adminIndex[num].name = _name;\r\n                emit LogUpdateAdmin(\r\n                    _emailCode,\r\n                    adminArray[_emailCode].index,\r\n                    _email,adminArray[_emailCode].passwordCode,\r\n                    adminArray[_emailCode].passwordRestToken,\r\n                    _name,\r\n                    adminArray[_emailCode].contactNumber,\r\n                    adminArray[_emailCode].userAddress,\r\n                    adminArray[_emailCode].userAccess\r\n                    );\r\n\r\n            }\r\n            else if(index[i]==2){\r\n                adminArray[_emailCode].userAddress = _userAddress;\r\n\r\n                adminIndex[num].userAddress = _userAddress;\r\n\r\n                emit LogUpdateAdmin(\r\n                    _emailCode,\r\n                    adminArray[_emailCode].index,\r\n                    _email,\r\n                    adminArray[_emailCode].passwordCode,\r\n                    adminArray[_emailCode].passwordRestToken,\r\n                    adminArray[_emailCode].name,\r\n                    adminArray[_emailCode].contactNumber,\r\n                    _userAddress,\r\n                    adminArray[_emailCode].userAccess\r\n                    );\r\n\r\n            }\r\n            else if(index[i]==3){\r\n                adminArray[_emailCode].contactNumber = _contactNumber;\r\n                adminIndex[num].contactNumber = _contactNumber;\r\n                emit LogUpdateAdmin(\r\n                    _emailCode,\r\n                    adminArray[_emailCode].index,\r\n                    _email,\r\n                    adminArray[_emailCode].passwordCode,\r\n                    adminArray[_emailCode].passwordRestToken,\r\n                    adminArray[_emailCode].name,\r\n                    _contactNumber,\r\n                    adminArray[_emailCode].userAddress,\r\n                    adminArray[_emailCode].userAccess\r\n                    );\r\n\r\n            }\r\n        }\r\n        return true;\r\n    }\r\n    \r\n    \r\n    ///////\r\n    function updateAdminEmail (string memory _email) public returns(bool success)\r\n    {\r\n       // return true;\r\n    }\r\n    \r\n    ///\r\n    function registation(bytes32 token) public returns(bool)\r\n    {\r\n       // return true;\r\n    }\r\n    \r\n    function frogetPassword(string memory _email) public returns(bool){\r\n        \r\n    }\r\n    \r\n    function resetPassword(bytes32 token,string memory password)public returns(bool)\r\n    {\r\n        \r\n    }\r\n\r\n    \r\n\r\n    function createBox() public returns(bool){\r\n\r\n    }\r\n\r\n    function creatPacket() public returns(bool){\r\n\r\n    }\r\n}",
  "sourcePath": "C:/project/tea supply chain mangement system/test2/contracts/Login.sol",
  "compiler": {
    "name": "solc",
    "version": "0.5.8+commit.23d335f2.Emscripten.clang"
  },
  "schemaVersion": "3.0.16",
  "updatedAt": "2019-11-01T02:52:26.606Z",
  "devdoc": {
    "methods": {}
  },
  "userdoc": {
    "methods": {
      "insertAdmin(string,string)": {
        "notice": "//////////////////////"
      },
      "updateAdminEmail(string)": {
        "notice": "////"
      }
    }
  }
}