{
  "contractName": "ManagerContract",
  "abi": [
    {
      "constant": true,
      "inputs": [
        {
          "name": "",
          "type": "bytes32"
        }
      ],
      "name": "managerArray",
      "outputs": [
        {
          "name": "email",
          "type": "string"
        },
        {
          "name": "emailCode",
          "type": "bytes32"
        },
        {
          "name": "passwordCode",
          "type": "bytes32"
        },
        {
          "name": "name",
          "type": "string"
        },
        {
          "name": "contactNumber",
          "type": "uint256"
        },
        {
          "name": "userAddress",
          "type": "string"
        },
        {
          "name": "userAccess",
          "type": "uint256"
        },
        {
          "name": "index",
          "type": "uint256"
        }
      ],
      "payable": false,
      "stateMutability": "view",
      "type": "function"
    },
    {
      "anonymous": false,
      "inputs": [
        {
          "indexed": true,
          "name": "emailCode",
          "type": "bytes32"
        },
        {
          "indexed": false,
          "name": "index",
          "type": "uint256"
        },
        {
          "indexed": false,
          "name": "email",
          "type": "string"
        },
        {
          "indexed": false,
          "name": "passwordCode",
          "type": "bytes32"
        },
        {
          "indexed": false,
          "name": "name",
          "type": "string"
        },
        {
          "indexed": false,
          "name": "contactNumber",
          "type": "uint256"
        },
        {
          "indexed": false,
          "name": "userAddress",
          "type": "string"
        },
        {
          "indexed": false,
          "name": "userAccess",
          "type": "uint256"
        }
      ],
      "name": "LogNewManager",
      "type": "event"
    },
    {
      "anonymous": false,
      "inputs": [
        {
          "indexed": true,
          "name": "emailCode",
          "type": "bytes32"
        },
        {
          "indexed": false,
          "name": "index",
          "type": "uint256"
        },
        {
          "indexed": false,
          "name": "email",
          "type": "string"
        },
        {
          "indexed": false,
          "name": "passwordCode",
          "type": "bytes32"
        },
        {
          "indexed": false,
          "name": "name",
          "type": "string"
        },
        {
          "indexed": false,
          "name": "contactNumber",
          "type": "uint256"
        },
        {
          "indexed": false,
          "name": "userAddress",
          "type": "string"
        },
        {
          "indexed": false,
          "name": "userAccess",
          "type": "uint256"
        }
      ],
      "name": "LogUpdateManager",
      "type": "event"
    },
    {
      "anonymous": false,
      "inputs": [
        {
          "indexed": true,
          "name": "emailcode",
          "type": "bytes32"
        },
        {
          "indexed": false,
          "name": "index",
          "type": "uint256"
        }
      ],
      "name": "LogDeleteManager",
      "type": "event"
    },
    {
      "constant": true,
      "inputs": [
        {
          "name": "_emailCode",
          "type": "bytes32"
        }
      ],
      "name": "isManager",
      "outputs": [
        {
          "name": "isIndeed",
          "type": "bool"
        }
      ],
      "payable": false,
      "stateMutability": "view",
      "type": "function"
    },
    {
      "constant": false,
      "inputs": [
        {
          "name": "_email",
          "type": "string"
        }
      ],
      "name": "createManagerToken",
      "outputs": [
        {
          "name": "",
          "type": "bytes32"
        }
      ],
      "payable": false,
      "stateMutability": "nonpayable",
      "type": "function"
    },
    {
      "constant": true,
      "inputs": [
        {
          "name": "_email",
          "type": "string"
        }
      ],
      "name": "getManagerToken",
      "outputs": [
        {
          "name": "",
          "type": "bytes32"
        }
      ],
      "payable": false,
      "stateMutability": "view",
      "type": "function"
    },
    {
      "constant": true,
      "inputs": [
        {
          "name": "_email",
          "type": "string"
        },
        {
          "name": "_token",
          "type": "bytes32"
        }
      ],
      "name": "checkManagerToken",
      "outputs": [
        {
          "name": "",
          "type": "bool"
        }
      ],
      "payable": false,
      "stateMutability": "view",
      "type": "function"
    },
    {
      "constant": false,
      "inputs": [
        {
          "name": "_email",
          "type": "string"
        },
        {
          "name": "_password",
          "type": "string"
        }
      ],
      "name": "setPassword",
      "outputs": [
        {
          "name": "",
          "type": "bool"
        }
      ],
      "payable": false,
      "stateMutability": "nonpayable",
      "type": "function"
    },
    {
      "constant": false,
      "inputs": [
        {
          "name": "_email",
          "type": "string"
        },
        {
          "name": "_name",
          "type": "string"
        },
        {
          "name": "_address",
          "type": "string"
        },
        {
          "name": "_telephone",
          "type": "uint256"
        }
      ],
      "name": "insertManager",
      "outputs": [
        {
          "name": "",
          "type": "bool"
        }
      ],
      "payable": false,
      "stateMutability": "nonpayable",
      "type": "function"
    },
    {
      "constant": false,
      "inputs": [
        {
          "name": "email",
          "type": "bytes32"
        }
      ],
      "name": "deleteManager",
      "outputs": [
        {
          "name": "",
          "type": "string"
        }
      ],
      "payable": false,
      "stateMutability": "nonpayable",
      "type": "function"
    },
    {
      "constant": false,
      "inputs": [
        {
          "name": "email",
          "type": "bytes32"
        }
      ],
      "name": "blockManager",
      "outputs": [
        {
          "name": "",
          "type": "string"
        }
      ],
      "payable": false,
      "stateMutability": "nonpayable",
      "type": "function"
    },
    {
      "constant": false,
      "inputs": [
        {
          "name": "_email",
          "type": "string"
        },
        {
          "name": "usreAccess",
          "type": "uint256"
        }
      ],
      "name": "editUserAccess",
      "outputs": [
        {
          "name": "",
          "type": "bool"
        }
      ],
      "payable": false,
      "stateMutability": "nonpayable",
      "type": "function"
    },
    {
      "constant": true,
      "inputs": [
        {
          "name": "_email",
          "type": "string"
        }
      ],
      "name": "getManager",
      "outputs": [
        {
          "name": "",
          "type": "bytes32"
        },
        {
          "name": "email",
          "type": "string"
        },
        {
          "name": "name",
          "type": "string"
        },
        {
          "name": "contactNumber",
          "type": "uint256"
        },
        {
          "name": "userAddress",
          "type": "string"
        },
        {
          "name": "userAccess",
          "type": "uint256"
        }
      ],
      "payable": false,
      "stateMutability": "view",
      "type": "function"
    },
    {
      "constant": true,
      "inputs": [
        {
          "name": "i",
          "type": "uint256"
        }
      ],
      "name": "getManageri",
      "outputs": [
        {
          "name": "",
          "type": "bytes32"
        },
        {
          "name": "",
          "type": "string"
        },
        {
          "name": "",
          "type": "string"
        },
        {
          "name": "",
          "type": "uint256"
        },
        {
          "name": "",
          "type": "string"
        },
        {
          "name": "",
          "type": "uint256"
        }
      ],
      "payable": false,
      "stateMutability": "view",
      "type": "function"
    },
    {
      "constant": true,
      "inputs": [],
      "name": "getManagerCount",
      "outputs": [
        {
          "name": "",
          "type": "uint256"
        }
      ],
      "payable": false,
      "stateMutability": "view",
      "type": "function"
    },
    {
      "constant": false,
      "inputs": [
        {
          "name": "_email",
          "type": "string"
        },
        {
          "name": "_name",
          "type": "string"
        }
      ],
      "name": "updateManagerName",
      "outputs": [
        {
          "name": "success",
          "type": "bool"
        }
      ],
      "payable": false,
      "stateMutability": "nonpayable",
      "type": "function"
    },
    {
      "constant": false,
      "inputs": [
        {
          "name": "_email",
          "type": "string"
        },
        {
          "name": "_userAddress",
          "type": "string"
        }
      ],
      "name": "updateManagerAddress",
      "outputs": [
        {
          "name": "success",
          "type": "bool"
        }
      ],
      "payable": false,
      "stateMutability": "nonpayable",
      "type": "function"
    },
    {
      "constant": false,
      "inputs": [
        {
          "name": "_email",
          "type": "string"
        },
        {
          "name": "_contactNumber",
          "type": "uint256"
        }
      ],
      "name": "updateManagerContactNumber",
      "outputs": [
        {
          "name": "success",
          "type": "bool"
        }
      ],
      "payable": false,
      "stateMutability": "nonpayable",
      "type": "function"
    },
    {
      "constant": false,
      "inputs": [
        {
          "name": "_email",
          "type": "string"
        },
        {
          "name": "index",
          "type": "uint256[]"
        },
        {
          "name": "_name",
          "type": "string"
        },
        {
          "name": "_userAddress",
          "type": "string"
        },
        {
          "name": "_contactNumber",
          "type": "uint256"
        }
      ],
      "name": "updateManager",
      "outputs": [
        {
          "name": "success",
          "type": "bool"
        }
      ],
      "payable": false,
      "stateMutability": "nonpayable",
      "type": "function"
    },
    {
      "constant": false,
      "inputs": [
        {
          "name": "_email",
          "type": "string"
        }
      ],
      "name": "updateManageriEmail",
      "outputs": [
        {
          "name": "success",
          "type": "bool"
        }
      ],
      "payable": false,
      "stateMutability": "nonpayable",
      "type": "function"
    },
    {
      "constant": true,
      "inputs": [
        {
          "name": "email",
          "type": "bytes32"
        }
      ],
      "name": "checkManagerUserAccess",
      "outputs": [
        {
          "name": "userAccess",
          "type": "uint256"
        }
      ],
      "payable": false,
      "stateMutability": "view",
      "type": "function"
    },
    {
      "constant": true,
      "inputs": [
        {
          "name": "email",
          "type": "bytes32"
        }
      ],
      "name": "checkManagerPasswordCode",
      "outputs": [
        {
          "name": "passwordCode",
          "type": "bytes32"
        }
      ],
      "payable": false,
      "stateMutability": "view",
      "type": "function"
    }
  ],
  "bytecode": "0x608060405234801561001057600080fd5b506138f6806100206000396000f3fe608060405234801561001057600080fd5b506004361061012c5760003560e01c80639d7450ab116100ad578063ca38649611610071578063ca38649614610e21578063cf92838414610f4a578063f73efdd214610f52578063f9fcecd714610ff8578063ff79fd99146110155761012c565b80639d7450ab14610b1d578063a952fab314610c46578063acc29ad214610c63578063ae040fea14610c80578063b5bd215814610c9d5761012c565b8063366203f5116100f4578063366203f5146106eb578063431c0fc01461078f57806365851668146108215780636609b7cc146109d157806392eedbab14610a775761012c565b8063044d58d6146101315780631ee441e9146103775780632284bef31461057457806323d442641461062a578063329310ee14610647575b600080fd5b610363600480360360a081101561014757600080fd5b810190602081018135600160201b81111561016157600080fd5b82018360208201111561017357600080fd5b803590602001918460018302840111600160201b8311171561019457600080fd5b91908080601f0160208091040260200160405190810160405280939291908181526020018383808284376000920191909152509295949360208101935035915050600160201b8111156101e657600080fd5b8201836020820111156101f857600080fd5b803590602001918460208302840111600160201b8311171561021957600080fd5b9190808060200260200160405190810160405280939291908181526020018383602002808284376000920191909152509295949360208101935035915050600160201b81111561026857600080fd5b82018360208201111561027a57600080fd5b803590602001918460018302840111600160201b8311171561029b57600080fd5b91908080601f0160208091040260200160405190810160405280939291908181526020018383808284376000920191909152509295949360208101935035915050600160201b8111156102ed57600080fd5b8201836020820111156102ff57600080fd5b803590602001918460018302840111600160201b8311171561032057600080fd5b91908080601f016020809104026020016040519081016040528093929190818152602001838380828437600092019190915250929550509135925061113e915050565b604080519115158252519081900360200190f35b61041b6004803603602081101561038d57600080fd5b810190602081018135600160201b8111156103a757600080fd5b8201836020820111156103b957600080fd5b803590602001918460018302840111600160201b831117156103da57600080fd5b91908080601f016020809104026020016040519081016040528093929190818152602001838380828437600092019190915250929550611971945050505050565b60405180878152602001806020018060200186815260200180602001858152602001848103845289818151815260200191508051906020019080838360005b8381101561047257818101518382015260200161045a565b50505050905090810190601f16801561049f5780820380516001836020036101000a031916815260200191505b5084810383528851815288516020918201918a019080838360005b838110156104d25781810151838201526020016104ba565b50505050905090810190601f1680156104ff5780820380516001836020036101000a031916815260200191505b50848103825286518152865160209182019188019080838360005b8381101561053257818101518382015260200161051a565b50505050905090810190601f16801561055f5780820380516001836020036101000a031916815260200191505b50995050505050505050505060405180910390f35b6106186004803603602081101561058a57600080fd5b810190602081018135600160201b8111156105a457600080fd5b8201836020820111156105b657600080fd5b803590602001918460018302840111600160201b831117156105d757600080fd5b91908080601f016020809104026020016040519081016040528093929190818152602001838380828437600092019190915250929550611c2b945050505050565b60408051918252519081900360200190f35b6106186004803603602081101561064057600080fd5b5035611cef565b6103636004803603602081101561065d57600080fd5b810190602081018135600160201b81111561067757600080fd5b82018360208201111561068957600080fd5b803590602001918460018302840111600160201b831117156106aa57600080fd5b91908080601f016020809104026020016040519081016040528093929190818152602001838380828437600092019190915250929550611d04945050505050565b6106186004803603602081101561070157600080fd5b810190602081018135600160201b81111561071b57600080fd5b82018360208201111561072d57600080fd5b803590602001918460018302840111600160201b8311171561074e57600080fd5b91908080601f016020809104026020016040519081016040528093929190818152602001838380828437600092019190915250929550611d0a945050505050565b6107ac600480360360208110156107a557600080fd5b5035611d92565b6040805160208082528351818301528351919283929083019185019080838360005b838110156107e65781810151838201526020016107ce565b50505050905090810190601f1680156108135780820380516001836020036101000a031916815260200191505b509250505060405180910390f35b6103636004803603608081101561083757600080fd5b810190602081018135600160201b81111561085157600080fd5b82018360208201111561086357600080fd5b803590602001918460018302840111600160201b8311171561088457600080fd5b91908080601f0160208091040260200160405190810160405280939291908181526020018383808284376000920191909152509295949360208101935035915050600160201b8111156108d657600080fd5b8201836020820111156108e857600080fd5b803590602001918460018302840111600160201b8311171561090957600080fd5b91908080601f0160208091040260200160405190810160405280939291908181526020018383808284376000920191909152509295949360208101935035915050600160201b81111561095b57600080fd5b82018360208201111561096d57600080fd5b803590602001918460018302840111600160201b8311171561098e57600080fd5b91908080601f0160208091040260200160405190810160405280939291908181526020018383808284376000920191909152509295505091359250611fd7915050565b610363600480360360408110156109e757600080fd5b810190602081018135600160201b811115610a0157600080fd5b820183602082011115610a1357600080fd5b803590602001918460018302840111600160201b83111715610a3457600080fd5b91908080601f0160208091040260200160405190810160405280939291908181526020018383808284376000920191909152509295505091359250612379915050565b61036360048036036040811015610a8d57600080fd5b810190602081018135600160201b811115610aa757600080fd5b820183602082011115610ab957600080fd5b803590602001918460018302840111600160201b83111715610ada57600080fd5b91908080601f0160208091040260200160405190810160405280939291908181526020018383808284376000920191909152509295505091359250612431915050565b61036360048036036040811015610b3357600080fd5b810190602081018135600160201b811115610b4d57600080fd5b820183602082011115610b5f57600080fd5b803590602001918460018302840111600160201b83111715610b8057600080fd5b91908080601f0160208091040260200160405190810160405280939291908181526020018383808284376000920191909152509295949360208101935035915050600160201b811115610bd257600080fd5b820183602082011115610be457600080fd5b803590602001918460018302840111600160201b83111715610c0557600080fd5b91908080601f016020809104026020016040519081016040528093929190818152602001838380828437600092019190915250929550612713945050505050565b61036360048036036020811015610c5c57600080fd5b5035612a12565b6107ac60048036036020811015610c7957600080fd5b5035612a5f565b61061860048036036020811015610c9657600080fd5b5035612bc7565b610cba60048036036020811015610cb357600080fd5b5035612bdc565b6040518080602001898152602001888152602001806020018781526020018060200186815260200185815260200184810384528c818151815260200191508051906020019080838360005b83811015610d1d578181015183820152602001610d05565b50505050905090810190601f168015610d4a5780820380516001836020036101000a031916815260200191505b5084810383528951815289516020918201918b019080838360005b83811015610d7d578181015183820152602001610d65565b50505050905090810190601f168015610daa5780820380516001836020036101000a031916815260200191505b50848103825287518152875160209182019189019080838360005b83811015610ddd578181015183820152602001610dc5565b50505050905090810190601f168015610e0a5780820380516001836020036101000a031916815260200191505b509b50505050505050505050505060405180910390f35b61036360048036036040811015610e3757600080fd5b810190602081018135600160201b811115610e5157600080fd5b820183602082011115610e6357600080fd5b803590602001918460018302840111600160201b83111715610e8457600080fd5b91908080601f0160208091040260200160405190810160405280939291908181526020018383808284376000920191909152509295949360208101935035915050600160201b811115610ed657600080fd5b820183602082011115610ee857600080fd5b803590602001918460018302840111600160201b83111715610f0957600080fd5b91908080601f016020809104026020016040519081016040528093929190818152602001838380828437600092019190915250929550612dc7945050505050565b6106186130d4565b61036360048036036040811015610f6857600080fd5b810190602081018135600160201b811115610f8257600080fd5b820183602082011115610f9457600080fd5b803590602001918460018302840111600160201b83111715610fb557600080fd5b91908080601f01602080910402602001604051908101604052809392919081815260200183838082843760009201919091525092955050913592506130db915050565b61041b6004803603602081101561100e57600080fd5b5035613167565b6103636004803603604081101561102b57600080fd5b810190602081018135600160201b81111561104557600080fd5b82018360208201111561105757600080fd5b803590602001918460018302840111600160201b8311171561107857600080fd5b91908080601f0160208091040260200160405190810160405280939291908181526020018383808284376000920191909152509295949360208101935035915050600160201b8111156110ca57600080fd5b8201836020820111156110dc57600080fd5b803590602001918460018302840111600160201b831117156110fd57600080fd5b91908080601f0160208091040260200160405190810160405280939291908181526020018383808284376000920191909152509295506133ea945050505050565b600080866040516020018082805190602001908083835b602083106111745780518252601f199092019160209182019101611155565b6001836020036101000a0380198251168184511680821785525050505050509050019150506040516020818303038152906040528051906020012090506111ba81612a12565b151560011461120b5760408051600160e51b62461bcd0281526020600482015260126024820152600160701b7175736572206e6f7420696e2073797374656d02604482015290519081900360640190fd5b6000818152602081905260408120600701545b87518210156119625787828151811061123357fe5b602002602001015160011415611491576000838152602081815260409091208851611266926003909201918a01906137d9565b50866001828154811061127557fe5b906000526020600020906006020160020190805190602001906112999291906137d9565b50826000805160206138ab833981519152600080868152602001908152602001600020600701548b600080888152602001908152602001600020600201548b6000808a8152602001908152602001600020600401546000808b81526020019081526020016000206005016000808c8152602001908152602001600020600601546040518088815260200180602001878152602001806020018681526020018060200185815260200184810384528a818151815260200191508051906020019080838360005b8381101561137657818101518382015260200161135e565b50505050905090810190601f1680156113a35780820380516001836020036101000a031916815260200191505b5084810383528851815288516020918201918a019080838360005b838110156113d65781810151838201526020016113be565b50505050905090810190601f1680156114035780820380516001836020036101000a031916815260200191505b508481038252865460026000196101006001841615020190911604808252602090910190879080156114765780601f1061144b57610100808354040283529160200191611476565b820191906000526020600020905b81548152906001019060200180831161145957829003601f168201915b50509a505050505050505050505060405180910390a2611957565b87828151811061149d57fe5b6020026020010151600214156116fb5760008381526020818152604090912087516114d0926005909201918901906137d9565b5085600182815481106114df57fe5b906000526020600020906006020160040190805190602001906115039291906137d9565b50826000805160206138ab833981519152600080868152602001908152602001600020600701548b600080888152602001908152602001600020600201546000808981526020019081526020016000206003016000808a8152602001908152602001600020600401548c6000808c8152602001908152602001600020600601546040518088815260200180602001878152602001806020018681526020018060200185815260200184810384528a818151815260200191508051906020019080838360005b838110156115e05781810151838201526020016115c8565b50505050905090810190601f16801561160d5780820380516001836020036101000a031916815260200191505b508481038352885460026000196101006001841615020190911604808252602090910190899080156116805780601f1061165557610100808354040283529160200191611680565b820191906000526020600020905b81548152906001019060200180831161166357829003601f168201915b5050848103825286518152865160209182019188019080838360005b838110156116b457818101518382015260200161169c565b50505050905090810190601f1680156116e15780820380516001836020036101000a031916815260200191505b509a505050505050505050505060405180910390a2611957565b87828151811061170757fe5b602002602001015160031415611957576000838152602081905260409020600401859055600180548691908390811061173c57fe5b906000526020600020906006020160030181905550826000805160206138ab833981519152600080868152602001908152602001600020600701548b600080888152602001908152602001600020600201546000808981526020019081526020016000206003018a6000808b81526020019081526020016000206005016000808c8152602001908152602001600020600601546040518088815260200180602001878152602001806020018681526020018060200185815260200184810384528a818151815260200191508051906020019080838360005b8381101561182c578181015183820152602001611814565b50505050905090810190601f1680156118595780820380516001836020036101000a031916815260200191505b508481038352885460026000196101006001841615020190911604808252602090910190899080156118cc5780601f106118a1576101008083540402835291602001916118cc565b820191906000526020600020905b8154815290600101906020018083116118af57829003601f168201915b50508481038252865460026000196101006001841615020190911604808252602090910190879080156119405780601f1061191557610100808354040283529160200191611940565b820191906000526020600020905b81548152906001019060200180831161192357829003601f168201915b50509a505050505050505050505060405180910390a25b60019091019061121e565b50600198975050505050505050565b600060608060006060600080876040516020018082805190602001908083835b602083106119b05780518252601f199092019160209182019101611991565b6001836020036101000a0380198251168184511680821785525050505050509050019150506040516020818303038152906040528051906020012090506119f681612a12565b1515600114611a475760408051600160e51b62461bcd0281526020600482015260126024820152600160701b7175736572206e6f7420696e2073797374656d02604482015290519081900360640190fd5b60008181526020818152604091829020600481015460068201548254855160026001831615610100026000190190921691909104601f810186900486028201860190965285815286959394600386019460058701939291879190830182828015611af25780601f10611ac757610100808354040283529160200191611af2565b820191906000526020600020905b815481529060010190602001808311611ad557829003601f168201915b5050875460408051602060026001851615610100026000190190941693909304601f8101849004840282018401909252818152959a5089945092508401905082828015611b805780601f10611b5557610100808354040283529160200191611b80565b820191906000526020600020905b815481529060010190602001808311611b6357829003601f168201915b5050855460408051602060026001851615610100026000190190941693909304601f810184900484028201840190925281815295995087945092508401905082828015611c0e5780601f10611be357610100808354040283529160200191611c0e565b820191906000526020600020905b815481529060010190602001808311611bf157829003601f168201915b505050505091509650965096509650965096505091939550919395565b600080826040516020018082805190602001908083835b60208310611c615780518252601f199092019160209182019101611c42565b6001836020036101000a0380198251168184511680821785525050505050509050019150506040516020818303038152906040528051906020012090506000611ca861369c565b6000838152600260205260409020549091508214611cd25760008281526002602052604090208290555b60009182526002602052604090912060010181905590505b919050565b60009081526020819052604090206006015490565b50600090565b600080826040516020018082805190602001908083835b60208310611d405780518252601f199092019160209182019101611d21565b51815160209384036101000a60001901801990921691161790526040805192909401828103601f1901835284528151918101919091206000908152600290915291909120600101549695505050505050565b600081815260208190526040902060060154606090819060051415611eb4576000838152602081905260409020600360068201819055600790910154600180549091908110611ddd57fe5b90600052602060002090600602016005018190555060016000808581526020019081526020016000206007015481548110611e1457fe5b600091825260209182902060026006909202018101805460408051601f600019610100600186161502019093169490940491820185900485028401850190528083529192909190830182828015611eac5780601f10611e8157610100808354040283529160200191611eac565b820191906000526020600020905b815481529060010190602001808311611e8f57829003601f168201915b505050505090505b60008381526020819052604090206006015460031415611fd1576000838152602081905260409020600560068201819055600790910154600180549091908110611efa57fe5b90600052602060002090600602016005018190555060016000808581526020019081526020016000206007015481548110611f3157fe5b600091825260209182902060026006909202018101805460408051601f600019610100600186161502019093169490940491820185900485028401850190528083529192909190830182828015611fc95780601f10611f9e57610100808354040283529160200191611fc9565b820191906000526020600020905b815481529060010190602001808311611fac57829003601f168201915b505050505090505b92915050565b600080856040516020018082805190602001908083835b6020831061200d5780518252601f199092019160209182019101611fee565b6001836020036101000a03801982511681845116808217855250505050505090500191505060405160208183030381529060405280519060200120905060006040516020018080600160f81b606102815250600101905060405160208183030381529060405280519060200120905061208582612a12565b1515600114156120df5760408051600160e51b62461bcd02815260206004820152601660248201527f7573657220616c6c7265647920696e2073797374656d00000000000000000000604482015290519081900360640190fd5b60008281526020818152604090912088516120fc928a01906137d9565b506000828152602081815260409091206001810184905560028101839055875161212e926003909201918901906137d9565b50600082815260208181526040909120600481018690558651612159926005909201918801906137d9565b506000828152602081905260409020600160069091015561217d82888887896136d3565b5060015460008381526020819052604090206000199091016007909101556121a487611c2b565b50817fed0e2a55a61d47006f4012fd541352d88ea2ea83e374e8df42478202507aaf926000808581526020019081526020016000206007015489600080878152602001908152602001600020600201548a898b6000808b8152602001908152602001600020600601546040518088815260200180602001878152602001806020018681526020018060200185815260200184810384528a818151815260200191508051906020019080838360005b8381101561226a578181015183820152602001612252565b50505050905090810190601f1680156122975780820380516001836020036101000a031916815260200191505b5084810383528851815288516020918201918a019080838360005b838110156122ca5781810151838201526020016122b2565b50505050905090810190601f1680156122f75780820380516001836020036101000a031916815260200191505b50848103825286518152865160209182019188019080838360005b8381101561232a578181015183820152602001612312565b50505050905090810190601f1680156123575780820380516001836020036101000a031916815260200191505b509a505050505050505050505060405180910390a25060019695505050505050565b600080836040516020018082805190602001908083835b602083106123af5780518252601f199092019160209182019101612390565b51815160209384036101000a60001901801990921691161790526040805192909401828103601f1901835284528151918101919091206000818152918290529290206006810188905560070154600180549396508895509350918210905061241357fe5b60009182526020909120600560069092020101555060019392505050565b600080836040516020018082805190602001908083835b602083106124675780518252601f199092019160209182019101612448565b6001836020036101000a0380198251168184511680821785525050505050509050019150506040516020818303038152906040528051906020012090506124ad81612a12565b15156001146124fe5760408051600160e51b62461bcd0281526020600482015260126024820152600160701b7175736572206e6f7420696e2073797374656d02604482015290519081900360640190fd5b6000818152602081905260409020600481018490556007015460018054859290811061252657fe5b60009182526020808320600692830201600390810194909455848352828152604080842060078101546002820154948201548351828152938401869052608084018b905260c0840181905260e08486018181528d51918601919091528c518a996000805160206138ab8339815191529994988f989097918701968f96600590910195949293606085019260a0860192610100870192918d0191908190849084905b838110156125df5781810151838201526020016125c7565b50505050905090810190601f16801561260c5780820380516001836020036101000a031916815260200191505b5084810383528854600260001961010060018416150201909116048082526020909101908990801561267f5780601f106126545761010080835404028352916020019161267f565b820191906000526020600020905b81548152906001019060200180831161266257829003601f168201915b50508481038252865460026000196101006001841615020190911604808252602090910190879080156126f35780601f106126c8576101008083540402835291602001916126f3565b820191906000526020600020905b8154815290600101906020018083116126d657829003601f168201915b50509a505050505050505050505060405180910390a25060019392505050565b600080836040516020018082805190602001908083835b602083106127495780518252601f19909201916020918201910161272a565b6001836020036101000a03801982511681845116808217855250505050505090500191505060405160208183030381529060405280519060200120905061278f81612a12565b15156001146127e05760408051600160e51b62461bcd0281526020600482015260126024820152600160701b7175736572206e6f7420696e2073797374656d02604482015290519081900360640190fd5b6000818152602081815260409091208451612803926005909201918601906137d9565b5060008181526020819052604090206007015460018054859290811061282557fe5b906000526020600020906006020160040190805190602001906128499291906137d9565b50600081815260208181526040808320600781015460028201546004830154600684015485518481529586018390526080860182905260c0860181905260e08688018181528d51918801919091528c518a996000805160206138ab8339815191529996988f9896976003909701968f959491939192606085019260a0860192610100870192908d0191908190849084905b838110156128f25781810151838201526020016128da565b50505050905090810190601f16801561291f5780820380516001836020036101000a031916815260200191505b508481038352885460026000196101006001841615020190911604808252602090910190899080156129925780601f1061296757610100808354040283529160200191612992565b820191906000526020600020905b81548152906001019060200180831161297557829003601f168201915b5050848103825286518152865160209182019188019080838360005b838110156129c65781810151838201526020016129ae565b50505050905090810190601f1680156129f35780820380516001836020036101000a031916815260200191505b509a505050505050505050505060405180910390a25060019392505050565b600154600090612a2457506000611cea565b600082815260208190526040902060070154600180548492908110612a4557fe5b906000526020600020906006020160000154149050919050565b6000818152600260209081526040808320838155600190810184905591839052822060046006820181905560079091015482546060949385939290918110612aa357fe5b90600052602060002090600602016005018190555060016000808681526020019081526020016000206007015481548110612ada57fe5b600091825260209182902060026006909202018101805460408051601f600019610100600186161502019093169490940491820185900485028401850190528083529192909190830182828015612b725780601f10612b4757610100808354040283529160200191612b72565b820191906000526020600020905b815481529060010190602001808311612b5557829003601f168201915b50505060008781526020818152604091829020600701548251908152915194955088947fcec3494a01493810b31d02909f4026a3beb9634e1d053e594bfeab6c5f7e2de7945091829003019150a29392505050565b60009081526020819052604090206002015490565b6000602081815291815260409081902080548251601f600260001961010060018616150201909316929092049182018590048502810185019093528083529092839190830182828015612c705780601f10612c4557610100808354040283529160200191612c70565b820191906000526020600020905b815481529060010190602001808311612c5357829003601f168201915b505050505090806001015490806002015490806003018054600181600116156101000203166002900480601f016020809104026020016040519081016040528092919081815260200182805460018160011615610100020316600290048015612d1a5780601f10612cef57610100808354040283529160200191612d1a565b820191906000526020600020905b815481529060010190602001808311612cfd57829003601f168201915b50505050600483015460058401805460408051602060026001851615610100026000190190941693909304601f81018490048402820184019092528181529596939593945090830182828015612db15780601f10612d8657610100808354040283529160200191612db1565b820191906000526020600020905b815481529060010190602001808311612d9457829003601f168201915b5050505050908060060154908060070154905088565b600080836040516020018082805190602001908083835b60208310612dfd5780518252601f199092019160209182019101612dde565b6001836020036101000a0380198251168184511680821785525050505050509050019150506040516020818303038152906040528051906020012090506000836040516020018082805190602001908083835b60208310612e6f5780518252601f199092019160209182019101612e50565b51815160209384036101000a60001901801990921691161790526040805192909401828103601f19018352845281519181019190912060008881528083528481206002808201849055845294812081815560019081018290559252600560068501819055600790940154825491975093955090935082109050612eee57fe5b60009182526020808320600560069093020182019390935584825281835260408083206007810154600482015483518281529384018890526080840181905260c0840185905260e08488018181528d51918601919091528c518a986000805160206138ab8339815191529894978f978c9760038101979083019592949193606085019260a08601926101008701928d0191908190849084905b83811015612f9f578181015183820152602001612f87565b50505050905090810190601f168015612fcc5780820380516001836020036101000a031916815260200191505b5084810383528854600260001961010060018416150201909116048082526020909101908990801561303f5780601f106130145761010080835404028352916020019161303f565b820191906000526020600020905b81548152906001019060200180831161302257829003601f168201915b50508481038252865460026000196101006001841615020190911604808252602090910190879080156130b35780601f10613088576101008083540402835291602001916130b3565b820191906000526020600020905b81548152906001019060200180831161309657829003601f168201915b50509a505050505050505050505060405180910390a2506001949350505050565b6001545b90565b600080836040516020018082805190602001908083835b602083106131115780518252601f1990920191602091820191016130f2565b51815160209384036101000a60001901801990921691161790526040805192909401828103601f190183528452815191810191909120600090815260029091529190912060010154959095149695505050505050565b60006060806000606060006001878154811061317f57fe5b9060005260206000209060060201600001546001888154811061319e57fe5b9060005260206000209060060201600101600189815481106131bc57fe5b906000526020600020906006020160020160018a815481106131da57fe5b90600052602060002090600602016003015460018b815481106131f957fe5b906000526020600020906006020160040160018c8154811061321757fe5b600091825260209182902060056006909202010154855460408051601f6002600019610100600187161502019094169390930492830185900485028101850190915281815291928791908301828280156132b25780601f10613287576101008083540402835291602001916132b2565b820191906000526020600020905b81548152906001019060200180831161329557829003601f168201915b5050875460408051602060026001851615610100026000190190941693909304601f8101849004840282018401909252818152959a50899450925084019050828280156133405780601f1061331557610100808354040283529160200191613340565b820191906000526020600020905b81548152906001019060200180831161332357829003601f168201915b5050855460408051602060026001851615610100026000190190941693909304601f8101849004840282018401909252818152959950879450925084019050828280156133ce5780601f106133a3576101008083540402835291602001916133ce565b820191906000526020600020905b8154815290600101906020018083116133b157829003601f168201915b5050505050915095509550955095509550955091939550919395565b600080836040516020018082805190602001908083835b602083106134205780518252601f199092019160209182019101613401565b6001836020036101000a03801982511681845116808217855250505050505090500191505060405160208183030381529060405280519060200120905061346681612a12565b15156001146134b75760408051600160e51b62461bcd0281526020600482015260126024820152600160701b7175736572206e6f7420696e2073797374656d02604482015290519081900360640190fd5b60008181526020818152604090912084516134da926003909201918601906137d9565b506000818152602081905260409020600701546001805485929081106134fc57fe5b906000526020600020906006020160020190805190602001906135209291906137d9565b50600081815260208181526040808320600781015460028201546004830154600684015485518481529586018390526080860182905260c0860181905260e08688018181528d51918801919091528c518a996000805160206138ab8339815191529996988f9896978f97600501959491939192606085019260a0860192610100870192908d0191908190849084905b838110156135c75781810151838201526020016135af565b50505050905090810190601f1680156135f45780820380516001836020036101000a031916815260200191505b5084810383528851815288516020918201918a019080838360005b8381101561362757818101518382015260200161360f565b50505050905090810190601f1680156136545780820380516001836020036101000a031916815260200191505b508481038252865460026000196101006001841615020190911604808252602090910190879080156126f35780601f106126c8576101008083540402835291602001916126f3565b6040805142602080830191909152448284015243606080840191909152835180840390910181526080909201909252805191012090565b60006136dd613857565b8681526020808201878152604083018790526060830186905260808301859052600160a084018190528054808201808355600092909252845160069091027fb10e2d527612073b26eecdfd717e6a320cf44b4afac2b0732d9fcbe2b7fa0cf681019182559251805192948694929361377b937fb10e2d527612073b26eecdfd717e6a320cf44b4afac2b0732d9fcbe2b7fa0cf70192909101906137d9565b50604082015180516137979160028401916020909101906137d9565b5060608201516003820155608082015180516137bd9160048401916020909101906137d9565b5060a08201518160050155505050600191505095945050505050565b828054600181600116156101000203166002900490600052602060002090601f016020900481019282601f1061381a57805160ff1916838001178555613847565b82800160010185558215613847579182015b8281111561384757825182559160200191906001019061382c565b50613853929150613890565b5090565b6040518060c001604052806000801916815260200160608152602001606081526020016000815260200160608152602001600081525090565b6130d891905b80821115613853576000815560010161389656fee1ce8a5698f886f0a6061eee05f8bc638625d91d97bc8f0383900a0d00ebe76ba165627a7a723058204d1e0f391290f7f60ca1502afecc3a1e502d616ffc29a8b56430ce42da41ad140029",
  "source": "pragma solidity >=0.4.21 <0.6.0;\r\n\r\ncontract ManagerContract {\r\n\r\n    struct Manager{\r\n        string email;\r\n        bytes32 emailCode;\r\n        bytes32 passwordCode;\r\n        string name;\r\n        uint contactNumber;\r\n        string userAddress;\r\n        uint userAccess;\r\n        uint index;\r\n    }\r\n\r\n    struct DisplayManager{\r\n        bytes32 emailCode;\r\n        string email;\r\n        string name;\r\n        uint contactNumber;\r\n        string userAddress;\r\n        uint userAccess;\r\n    }\r\n    \r\n    event LogNewManager(\r\n        bytes32 indexed emailCode,\r\n        uint index,string email,\r\n        bytes32 passwordCode,\r\n        string name,\r\n        uint contactNumber,\r\n        string userAddress,\r\n        uint userAccess\r\n        );\r\n    event LogUpdateManager(\r\n        bytes32 indexed emailCode,\r\n        uint index,string email,\r\n        bytes32 passwordCode,\r\n        string name,\r\n        uint contactNumber,\r\n        string userAddress,\r\n        uint userAccess\r\n        );\r\n    event LogDeleteManager(\r\n        bytes32 indexed emailcode,\r\n        uint index\r\n        );\r\n\r\n    struct RegistationToken{\r\n        bytes32 emailCode;\r\n        bytes32 token;\r\n    }\r\n\r\n    mapping(bytes32 => Manager) public managerArray;\r\n    DisplayManager[] private managerIndex;\r\n    mapping(bytes32 => RegistationToken) private managerRegistationToken;\r\n\r\n    function isManager(bytes32 _emailCode)public view returns(bool isIndeed) {\r\n        if(managerIndex.length == 0) return false;\r\n        return (managerIndex[managerArray[_emailCode].index].emailCode == _emailCode);\r\n    }\r\n    function createManagerToken(string memory _email)public returns(bytes32){\r\n        bytes32 _emailCode = keccak256(abi.encodePacked((_email)));\r\n        bytes32 token = randomtoken();\r\n        if(managerRegistationToken[_emailCode].emailCode != _emailCode){\r\n            managerRegistationToken[_emailCode].emailCode = _emailCode;\r\n        }\r\n        managerRegistationToken[_emailCode].token = token;\r\n        return token;\r\n    }\r\n    function getManagerToken(string memory _email)public view returns(bytes32){\r\n        bytes32 _emailCode = keccak256(abi.encodePacked((_email)));\r\n        return  managerRegistationToken[_emailCode].token;\r\n    }\r\n    function checkManagerToken(string memory _email,bytes32 _token)public view returns(bool){\r\n        bytes32 _emailCode = keccak256(abi.encodePacked((_email)));\r\n        return  (managerRegistationToken[_emailCode].token == _token);\r\n    }\r\n    function randomtoken() private view returns (bytes32) {\r\n       return keccak256(abi.encodePacked(block.timestamp,block.difficulty,block.number));\r\n    }\r\n    function setPassword(string memory _email,string memory _password)public returns (bool) {\r\n        bytes32 _emailCode = keccak256(abi.encodePacked((_email)));\r\n        bytes32 _passwordCode = keccak256(abi.encodePacked((_password)));\r\n\r\n        managerArray[_emailCode].passwordCode = _passwordCode;\r\n        delete managerRegistationToken[_emailCode];\r\n        managerArray[_emailCode].userAccess = 5;\r\n        managerIndex[managerArray[_emailCode].index].userAccess = 5;\r\n        emit LogUpdateManager(\r\n            _emailCode,\r\n            managerArray[_emailCode].index,\r\n            _email,\r\n            _passwordCode,\r\n            managerArray[_emailCode].name,\r\n            managerArray[_emailCode].contactNumber,\r\n            managerArray[_emailCode].userAddress,\r\n            5\r\n            );\r\n        return true;\r\n\r\n    }\r\n    function setDisplayManager(bytes32 _emailCode,string memory _email,string memory _name,uint _telephone,string memory _address)\r\n     private returns(bool){\r\n\r\n        DisplayManager memory displayManager;\r\n        displayManager.emailCode = _emailCode;\r\n        displayManager.email = _email;\r\n        displayManager.name = _name;\r\n        displayManager.contactNumber = _telephone;\r\n        displayManager.userAddress = _address;\r\n        displayManager.userAccess = 1;\r\n        managerIndex.push(displayManager);\r\n        return true;\r\n\r\n    }\r\n    function insertManager(string memory _email,string memory _name,string memory _address,uint _telephone) public returns(bool){\r\n        bytes32 _emailCode = keccak256(abi.encodePacked((_email)));\r\n        bytes32 _passwordCode = keccak256(abi.encodePacked((\"a\")));\r\n        require(isManager(_emailCode) != true,'user allredy in system');\r\n\r\n        managerArray[_emailCode].email = _email;\r\n        managerArray[_emailCode].emailCode = _emailCode;\r\n        managerArray[_emailCode].passwordCode = _passwordCode;\r\n        managerArray[_emailCode].name = _name;\r\n        managerArray[_emailCode].contactNumber = _telephone;\r\n        managerArray[_emailCode].userAddress = _address;\r\n        managerArray[_emailCode].userAccess = 1;\r\n        setDisplayManager(_emailCode,_email,_name,_telephone,_address);\r\n        managerArray[_emailCode].index = managerIndex.length-1;\r\n        createManagerToken(_email);\r\n\r\n        emit LogNewManager (\r\n            _emailCode,\r\n            managerArray[_emailCode].index,\r\n            _email,\r\n            managerArray[_emailCode].passwordCode,\r\n            _name,\r\n            _telephone,\r\n            _address,\r\n            managerArray[_emailCode].userAccess\r\n            );\r\n        return true;\r\n    }\r\n    function deleteManager (bytes32 email) public returns(string memory){\r\n        uint i;\r\n        string memory name;\r\n        delete managerRegistationToken[email];\r\n        managerArray[email].userAccess = 4;\r\n        managerIndex[managerArray[email].index].userAccess = 4;\r\n        name = managerIndex[managerArray[email].index].name;\r\n        emit LogDeleteManager(\r\n            email,\r\n            managerArray[email].index\r\n        );\r\n        return name;\r\n    }\r\n    function blockManager(bytes32 email) public returns(string memory)\r\n    {\r\n        string memory name;\r\n        if(managerArray[email].userAccess == 5){\r\n        managerArray[email].userAccess = 3;\r\n        managerIndex[managerArray[email].index].userAccess = 3;\r\n        name = managerIndex[managerArray[email].index].name;\r\n        }\r\n        if(managerArray[email].userAccess == 3){\r\n        managerArray[email].userAccess = 5;\r\n        managerIndex[managerArray[email].index].userAccess = 5;\r\n        name = managerIndex[managerArray[email].index].name;\r\n        }\r\n        return name;\r\n    }\r\n    function editUserAccess(string memory _email,uint usreAccess)public returns(bool){\r\n        bytes32 email = keccak256(abi.encodePacked((_email)));\r\n        managerArray[email].userAccess = usreAccess;\r\n        managerIndex[managerArray[email].index].userAccess = usreAccess;\r\n        return true;\r\n\r\n    }\r\n    function getManager(string memory _email) public view returns(bytes32,string memory email,string memory name,\r\n    uint contactNumber,string memory userAddress, uint userAccess){\r\n        bytes32 _emailCode = keccak256(abi.encodePacked((_email)));\r\n        require(isManager(_emailCode) == true,'user not in system');\r\n        return(\r\n            _emailCode,\r\n            managerArray[_emailCode].email,\r\n            managerArray[_emailCode].name,\r\n            managerArray[_emailCode].contactNumber,\r\n            managerArray[_emailCode].userAddress,\r\n            managerArray[_emailCode].userAccess\r\n            );\r\n    }\r\n    function getManageri(uint i) public view returns(\r\n        bytes32,\r\n        string memory,\r\n        string memory,\r\n        uint,\r\n        string memory,\r\n        uint\r\n        ){\r\n            return (\r\n                managerIndex[i].emailCode,\r\n                managerIndex[i].email,\r\n                managerIndex[i].name,\r\n                managerIndex[i].contactNumber,\r\n                managerIndex[i].userAddress,\r\n                managerIndex[i].userAccess\r\n                );\r\n    }\r\n    function getManagerCount() public view returns(uint)\r\n    {\r\n        return managerIndex.length;\r\n    }\r\n    \r\n    // function updateUserEmail(address userAddress, bytes32 userEmail) public returns(bool success)\r\n    // {\r\n    //     userStructs[userAddress].userEmail = userEmail;\r\n    //     emit LogUpdateUser(userAddress,  userStructs[userAddress].index, userEmail, userStructs[userAddress].userAge);\r\n    //     return true;\r\n    // }\r\n    function updateManagerName (string memory _email,string memory _name) public returns(bool success){\r\n        bytes32 _emailCode = keccak256(abi.encodePacked((_email)));\r\n        require(isManager(_emailCode) == true,'user not in system');\r\n        managerArray[_emailCode].name = _name;\r\n        managerIndex[managerArray[_emailCode].index].name = _name;\r\n        emit LogUpdateManager(\r\n            _emailCode,\r\n            managerArray[_emailCode].index,\r\n            _email,\r\n            managerArray[_emailCode].passwordCode,\r\n            _name,\r\n            managerArray[_emailCode].contactNumber,\r\n            managerArray[_emailCode].userAddress,\r\n            managerArray[_emailCode].userAccess\r\n            );\r\n        return true;\r\n    }\r\n    function updateManagerAddress (string memory _email,string memory _userAddress) public returns(bool success){\r\n        bytes32 _emailCode = keccak256(abi.encodePacked((_email)));\r\n        require(isManager(_emailCode) == true,'user not in system');\r\n        managerArray[_emailCode].userAddress = _userAddress;\r\n        managerIndex[managerArray[_emailCode].index].userAddress = _userAddress;\r\n        emit LogUpdateManager(\r\n            _emailCode,\r\n            managerArray[_emailCode].index,\r\n            _email,\r\n            managerArray[_emailCode].passwordCode,\r\n            managerArray[_emailCode].name,\r\n            managerArray[_emailCode].contactNumber,\r\n            _userAddress,\r\n            managerArray[_emailCode].userAccess\r\n            );\r\n        return true;\r\n    }\r\n    function updateManagerContactNumber (string memory _email,uint _contactNumber) public returns(bool success){\r\n        bytes32 _emailCode = keccak256(abi.encodePacked((_email)));\r\n        require(isManager(_emailCode) == true,'user not in system');\r\n        managerArray[_emailCode].contactNumber = _contactNumber;\r\n        managerIndex[managerArray[_emailCode].index].contactNumber = _contactNumber;\r\n        emit LogUpdateManager(\r\n            _emailCode,\r\n            managerArray[_emailCode].index,\r\n            _email,\r\n            managerArray[_emailCode].passwordCode,\r\n            managerArray[_emailCode].name,\r\n            _contactNumber,\r\n            managerArray[_emailCode].userAddress,\r\n            managerArray[_emailCode].userAccess\r\n            );\r\n        return true;\r\n    }\r\n    function updateManager(\r\n        string memory _email,\r\n        uint[] memory index,\r\n        string memory _name,\r\n        string memory _userAddress,\r\n        uint _contactNumber\r\n        ) public returns(bool success){\r\n        bytes32 _emailCode = keccak256(abi.encodePacked((_email)));\r\n        require(isManager(_emailCode) == true,'user not in system');\r\n        uint i;\r\n        uint num = managerArray[_emailCode].index;\r\n\r\n        for (i = 0;i<index.length;i++){\r\n            if(index[i]==1){\r\n                managerArray[_emailCode].name = _name;\r\n                managerIndex[num].name = _name;\r\n                emit LogUpdateManager(\r\n                    _emailCode,\r\n                    managerArray[_emailCode].index,\r\n                    _email,managerArray[_emailCode].passwordCode,\r\n                    _name,\r\n                    managerArray[_emailCode].contactNumber,\r\n                    managerArray[_emailCode].userAddress,\r\n                    managerArray[_emailCode].userAccess\r\n                    );\r\n\r\n            }\r\n            else if(index[i]==2){\r\n                managerArray[_emailCode].userAddress = _userAddress;\r\n\r\n                managerIndex[num].userAddress = _userAddress;\r\n\r\n                emit LogUpdateManager(\r\n                    _emailCode,\r\n                    managerArray[_emailCode].index,\r\n                    _email,\r\n                    managerArray[_emailCode].passwordCode,\r\n                    managerArray[_emailCode].name,\r\n                    managerArray[_emailCode].contactNumber,\r\n                    _userAddress,\r\n                    managerArray[_emailCode].userAccess\r\n                    );\r\n\r\n            }\r\n            else if(index[i]==3){\r\n                managerArray[_emailCode].contactNumber = _contactNumber;\r\n                managerIndex[num].contactNumber = _contactNumber;\r\n                emit LogUpdateManager(\r\n                    _emailCode,\r\n                    managerArray[_emailCode].index,\r\n                    _email,\r\n                    managerArray[_emailCode].passwordCode,\r\n                    managerArray[_emailCode].name,\r\n                    _contactNumber,\r\n                    managerArray[_emailCode].userAddress,\r\n                    managerArray[_emailCode].userAccess\r\n                    );\r\n\r\n            }\r\n        }\r\n        return true;\r\n    }\r\n    ///////\r\n    function updateManageriEmail (string memory _email) public returns(bool success)\r\n    {\r\n       // return true;\r\n    }\r\n    function checkManagerUserAccess(bytes32 email)public view returns(uint userAccess){\r\n        \r\n        return managerArray[email].userAccess;\r\n    }\r\n    function checkManagerPasswordCode(bytes32 email) public view returns(bytes32 passwordCode ){\r\n        return managerArray[email].passwordCode;\r\n    }\r\n}",
  "sourcePath": "C:\\project\\tea supply chain mangement system\\test2\\contracts\\Manager.sol",
  "compiler": {
    "name": "solc",
    "version": "0.5.8+commit.23d335f2.Emscripten.clang"
  },
  "schemaVersion": "3.0.16",
  "updatedAt": "2020-01-13T03:30:36.380Z",
  "devdoc": {
    "methods": {}
  },
  "userdoc": {
    "methods": {
      "updateManageriEmail(string)": {
        "notice": "////"
      }
    }
  }
}