{
  "contractName": "ManagerContract",
  "abi": [
    {
      "anonymous": false,
      "inputs": [
        {
          "indexed": true,
          "name": "emailCode",
          "type": "bytes32"
        },
        {
          "indexed": false,
          "name": "index",
          "type": "uint256"
        },
        {
          "indexed": false,
          "name": "email",
          "type": "string"
        },
        {
          "indexed": false,
          "name": "passwordCode",
          "type": "bytes32"
        },
        {
          "indexed": false,
          "name": "passwordRestToken",
          "type": "bytes32"
        },
        {
          "indexed": false,
          "name": "name",
          "type": "string"
        },
        {
          "indexed": false,
          "name": "contactNumber",
          "type": "uint256"
        },
        {
          "indexed": false,
          "name": "userAddress",
          "type": "string"
        },
        {
          "indexed": false,
          "name": "userAccess",
          "type": "uint256"
        }
      ],
      "name": "LogNewManager",
      "type": "event"
    },
    {
      "anonymous": false,
      "inputs": [
        {
          "indexed": true,
          "name": "emailCode",
          "type": "bytes32"
        },
        {
          "indexed": false,
          "name": "index",
          "type": "uint256"
        },
        {
          "indexed": false,
          "name": "email",
          "type": "string"
        },
        {
          "indexed": false,
          "name": "passwordCode",
          "type": "bytes32"
        },
        {
          "indexed": false,
          "name": "passwordRestToken",
          "type": "bytes32"
        },
        {
          "indexed": false,
          "name": "name",
          "type": "string"
        },
        {
          "indexed": false,
          "name": "contactNumber",
          "type": "uint256"
        },
        {
          "indexed": false,
          "name": "userAddress",
          "type": "string"
        },
        {
          "indexed": false,
          "name": "userAccess",
          "type": "uint256"
        }
      ],
      "name": "LogUpdateManager",
      "type": "event"
    },
    {
      "anonymous": false,
      "inputs": [
        {
          "indexed": true,
          "name": "emailcode",
          "type": "bytes32"
        },
        {
          "indexed": false,
          "name": "index",
          "type": "uint256"
        }
      ],
      "name": "LogDeleteManager",
      "type": "event"
    },
    {
      "constant": true,
      "inputs": [
        {
          "name": "_emailCode",
          "type": "bytes32"
        }
      ],
      "name": "isManager",
      "outputs": [
        {
          "name": "isIndeed",
          "type": "bool"
        }
      ],
      "payable": false,
      "stateMutability": "view",
      "type": "function"
    },
    {
      "constant": false,
      "inputs": [
        {
          "name": "_email",
          "type": "string"
        },
        {
          "name": "_name",
          "type": "string"
        }
      ],
      "name": "insertManager",
      "outputs": [
        {
          "name": "",
          "type": "bytes32"
        }
      ],
      "payable": false,
      "stateMutability": "nonpayable",
      "type": "function"
    },
    {
      "constant": false,
      "inputs": [
        {
          "name": "email",
          "type": "bytes32"
        }
      ],
      "name": "deleteManager",
      "outputs": [
        {
          "name": "",
          "type": "string"
        }
      ],
      "payable": false,
      "stateMutability": "nonpayable",
      "type": "function"
    },
    {
      "constant": false,
      "inputs": [
        {
          "name": "email",
          "type": "bytes32"
        }
      ],
      "name": "blockManager",
      "outputs": [
        {
          "name": "",
          "type": "string"
        }
      ],
      "payable": false,
      "stateMutability": "nonpayable",
      "type": "function"
    },
    {
      "constant": true,
      "inputs": [
        {
          "name": "_email",
          "type": "string"
        }
      ],
      "name": "getManager",
      "outputs": [
        {
          "name": "email",
          "type": "string"
        },
        {
          "name": "name",
          "type": "string"
        },
        {
          "name": "contactNumber",
          "type": "uint256"
        },
        {
          "name": "userAddress",
          "type": "string"
        },
        {
          "name": "userAccess",
          "type": "uint256"
        }
      ],
      "payable": false,
      "stateMutability": "view",
      "type": "function"
    },
    {
      "constant": true,
      "inputs": [
        {
          "name": "i",
          "type": "uint256"
        }
      ],
      "name": "getManageri",
      "outputs": [
        {
          "name": "",
          "type": "bytes32"
        },
        {
          "name": "",
          "type": "string"
        },
        {
          "name": "",
          "type": "string"
        },
        {
          "name": "",
          "type": "uint256"
        },
        {
          "name": "",
          "type": "string"
        },
        {
          "name": "",
          "type": "uint256"
        }
      ],
      "payable": false,
      "stateMutability": "view",
      "type": "function"
    },
    {
      "constant": true,
      "inputs": [],
      "name": "getManagerCount",
      "outputs": [
        {
          "name": "",
          "type": "uint256"
        }
      ],
      "payable": false,
      "stateMutability": "view",
      "type": "function"
    },
    {
      "constant": false,
      "inputs": [
        {
          "name": "_email",
          "type": "string"
        },
        {
          "name": "_name",
          "type": "string"
        }
      ],
      "name": "updateDistributorName",
      "outputs": [
        {
          "name": "success",
          "type": "bool"
        }
      ],
      "payable": false,
      "stateMutability": "nonpayable",
      "type": "function"
    },
    {
      "constant": false,
      "inputs": [
        {
          "name": "_email",
          "type": "string"
        },
        {
          "name": "_userAddress",
          "type": "string"
        }
      ],
      "name": "updateManagerAddress",
      "outputs": [
        {
          "name": "success",
          "type": "bool"
        }
      ],
      "payable": false,
      "stateMutability": "nonpayable",
      "type": "function"
    },
    {
      "constant": false,
      "inputs": [
        {
          "name": "_email",
          "type": "string"
        },
        {
          "name": "_contactNumber",
          "type": "uint256"
        }
      ],
      "name": "updateManagerContactNumber",
      "outputs": [
        {
          "name": "success",
          "type": "bool"
        }
      ],
      "payable": false,
      "stateMutability": "nonpayable",
      "type": "function"
    },
    {
      "constant": false,
      "inputs": [
        {
          "name": "_email",
          "type": "string"
        },
        {
          "name": "index",
          "type": "uint256[]"
        },
        {
          "name": "_name",
          "type": "string"
        },
        {
          "name": "_userAddress",
          "type": "string"
        },
        {
          "name": "_contactNumber",
          "type": "uint256"
        }
      ],
      "name": "updateManager",
      "outputs": [
        {
          "name": "success",
          "type": "bool"
        }
      ],
      "payable": false,
      "stateMutability": "nonpayable",
      "type": "function"
    },
    {
      "constant": false,
      "inputs": [
        {
          "name": "_email",
          "type": "string"
        }
      ],
      "name": "updateManagerEmail",
      "outputs": [
        {
          "name": "success",
          "type": "bool"
        }
      ],
      "payable": false,
      "stateMutability": "nonpayable",
      "type": "function"
    },
    {
      "constant": true,
      "inputs": [
        {
          "name": "email",
          "type": "bytes32"
        }
      ],
      "name": "checkManagerUserAccess",
      "outputs": [
        {
          "name": "userAccess",
          "type": "uint256"
        }
      ],
      "payable": false,
      "stateMutability": "view",
      "type": "function"
    },
    {
      "constant": true,
      "inputs": [
        {
          "name": "email",
          "type": "bytes32"
        }
      ],
      "name": "checkManagerPasswordCode",
      "outputs": [
        {
          "name": "passwordCode",
          "type": "bytes32"
        }
      ],
      "payable": false,
      "stateMutability": "view",
      "type": "function"
    }
  ],
  "bytecode": "0x608060405234801561001057600080fd5b50612f39806100206000396000f3fe608060405234801561001057600080fd5b50600436106100ea5760003560e01c8063a952fab31161008c578063cba073fd11610066578063cba073fd1461093b578063cf92838414610a64578063f9fcecd714610a6c578063fe7e1c8914610be2576100ea565b8063a952fab3146108e4578063acc29ad214610901578063ae040fea1461091e576100ea565b8063431c0fc0116100c8578063431c0fc01461055a5780634dc242c8146105ec57806392eedbab146107155780639d7450ab146107bb576100ea565b8063044d58d6146100ef5780631ee441e91461033557806323d442641461052b575b600080fd5b610321600480360360a081101561010557600080fd5b810190602081018135600160201b81111561011f57600080fd5b82018360208201111561013157600080fd5b803590602001918460018302840111600160201b8311171561015257600080fd5b91908080601f0160208091040260200160405190810160405280939291908181526020018383808284376000920191909152509295949360208101935035915050600160201b8111156101a457600080fd5b8201836020820111156101b657600080fd5b803590602001918460208302840111600160201b831117156101d757600080fd5b9190808060200260200160405190810160405280939291908181526020018383602002808284376000920191909152509295949360208101935035915050600160201b81111561022657600080fd5b82018360208201111561023857600080fd5b803590602001918460018302840111600160201b8311171561025957600080fd5b91908080601f0160208091040260200160405190810160405280939291908181526020018383808284376000920191909152509295949360208101935035915050600160201b8111156102ab57600080fd5b8201836020820111156102bd57600080fd5b803590602001918460018302840111600160201b831117156102de57600080fd5b91908080601f0160208091040260200160405190810160405280939291908181526020018383808284376000920191909152509295505091359250610c86915050565b604080519115158252519081900360200190f35b6103d96004803603602081101561034b57600080fd5b810190602081018135600160201b81111561036557600080fd5b82018360208201111561037757600080fd5b803590602001918460018302840111600160201b8311171561039857600080fd5b91908080601f016020809104026020016040519081016040528093929190818152602001838380828437600092019190915250929550611510945050505050565b60405180806020018060200186815260200180602001858152602001848103845289818151815260200191508051906020019080838360005b8381101561042a578181015183820152602001610412565b50505050905090810190601f1680156104575780820380516001836020036101000a031916815260200191505b5084810383528851815288516020918201918a019080838360005b8381101561048a578181015183820152602001610472565b50505050905090810190601f1680156104b75780820380516001836020036101000a031916815260200191505b50848103825286518152865160209182019188019080838360005b838110156104ea5781810151838201526020016104d2565b50505050905090810190601f1680156105175780820380516001836020036101000a031916815260200191505b509850505050505050505060405180910390f35b6105486004803603602081101561054157600080fd5b50356117c5565b60408051918252519081900360200190f35b6105776004803603602081101561057057600080fd5b50356117dd565b6040805160208082528351818301528351919283929083019185019080838360005b838110156105b1578181015183820152602001610599565b50505050905090810190601f1680156105de5780820380516001836020036101000a031916815260200191505b509250505060405180910390f35b6103216004803603604081101561060257600080fd5b810190602081018135600160201b81111561061c57600080fd5b82018360208201111561062e57600080fd5b803590602001918460018302840111600160201b8311171561064f57600080fd5b91908080601f0160208091040260200160405190810160405280939291908181526020018383808284376000920191909152509295949360208101935035915050600160201b8111156106a157600080fd5b8201836020820111156106b357600080fd5b803590602001918460018302840111600160201b831117156106d457600080fd5b91908080601f0160208091040260200160405190810160405280939291908181526020018383808284376000920191909152509295506118ea945050505050565b6103216004803603604081101561072b57600080fd5b810190602081018135600160201b81111561074557600080fd5b82018360208201111561075757600080fd5b803590602001918460018302840111600160201b8311171561077857600080fd5b91908080601f0160208091040260200160405190810160405280939291908181526020018383808284376000920191909152509295505091359250611c3a915050565b610321600480360360408110156107d157600080fd5b810190602081018135600160201b8111156107eb57600080fd5b8201836020820111156107fd57600080fd5b803590602001918460018302840111600160201b8311171561081e57600080fd5b91908080601f0160208091040260200160405190810160405280939291908181526020018383808284376000920191909152509295949360208101935035915050600160201b81111561087057600080fd5b82018360208201111561088257600080fd5b803590602001918460018302840111600160201b831117156108a357600080fd5b91908080601f016020809104026020016040519081016040528093929190818152602001838380828437600092019190915250929550611f24945050505050565b610321600480360360208110156108fa57600080fd5b5035612274565b6105776004803603602081101561091757600080fd5b50356122c1565b6105486004803603602081101561093457600080fd5b50356124f2565b6105486004803603604081101561095157600080fd5b810190602081018135600160201b81111561096b57600080fd5b82018360208201111561097d57600080fd5b803590602001918460018302840111600160201b8311171561099e57600080fd5b91908080601f0160208091040260200160405190810160405280939291908181526020018383808284376000920191909152509295949360208101935035915050600160201b8111156109f057600080fd5b820183602082011115610a0257600080fd5b803590602001918460018302840111600160201b83111715610a2357600080fd5b91908080601f016020809104026020016040519081016040528093929190818152602001838380828437600092019190915250929550612507945050505050565b610548612916565b610a8960048036036020811015610a8257600080fd5b503561291d565b60405180878152602001806020018060200186815260200180602001858152602001848103845289818151815260200191508051906020019080838360005b83811015610ae0578181015183820152602001610ac8565b50505050905090810190601f168015610b0d5780820380516001836020036101000a031916815260200191505b5084810383528851815288516020918201918a019080838360005b83811015610b40578181015183820152602001610b28565b50505050905090810190601f168015610b6d5780820380516001836020036101000a031916815260200191505b50848103825286518152865160209182019188019080838360005b83811015610ba0578181015183820152602001610b88565b50505050905090810190601f168015610bcd5780820380516001836020036101000a031916815260200191505b50995050505050505050505060405180910390f35b61032160048036036020811015610bf857600080fd5b810190602081018135600160201b811115610c1257600080fd5b820183602082011115610c2457600080fd5b803590602001918460018302840111600160201b83111715610c4557600080fd5b91908080601f016020809104026020016040519081016040528093929190818152602001838380828437600092019190915250929550612ba0945050505050565b600080866040516020018082805190602001908083835b60208310610cbc5780518252601f199092019160209182019101610c9d565b6001836020036101000a038019825116818451168082178552505050505050905001915050604051602081830303815290604052805190602001209050610d0281612274565b1515600114610d535760408051600160e51b62461bcd0281526020600482015260126024820152600160701b7175736572206e6f7420696e2073797374656d02604482015290519081900360640190fd5b6000818152602081905260408120600801545b875182101561150157878281518110610d7b57fe5b602002602001015160011415610ff6576000838152602081815260409091208851610dae926004909201918a0190612d79565b508660018281548110610dbd57fe5b90600052602060002090600602016002019080519060200190610de1929190612d79565b5082600080516020612eb3833981519152600080868152602001908152602001600020600801548b60008088815260200190815260200160002060020154600080898152602001908152602001600020600301548c6000808b8152602001908152602001600020600501546000808c81526020019081526020016000206006016000808d8152602001908152602001600020600701546040518089815260200180602001888152602001878152602001806020018681526020018060200185815260200184810384528b818151815260200191508051906020019080838360005b83811015610eda578181015183820152602001610ec2565b50505050905090810190601f168015610f075780820380516001836020036101000a031916815260200191505b5084810383528851815288516020918201918a019080838360005b83811015610f3a578181015183820152602001610f22565b50505050905090810190601f168015610f675780820380516001836020036101000a031916815260200191505b50848103825286546002600019610100600184161502019091160480825260209091019087908015610fda5780601f10610faf57610100808354040283529160200191610fda565b820191906000526020600020905b815481529060010190602001808311610fbd57829003601f168201915b50509b50505050505050505050505060405180910390a26114f6565b87828151811061100257fe5b60200260200101516002141561127d57600083815260208181526040909120875161103592600690920191890190612d79565b50856001828154811061104457fe5b90600052602060002090600602016004019080519060200190611068929190612d79565b5082600080516020612eb3833981519152600080868152602001908152602001600020600801548b60008088815260200190815260200160002060020154600080898152602001908152602001600020600301546000808a81526020019081526020016000206004016000808b8152602001908152602001600020600501548d6000808d8152602001908152602001600020600701546040518089815260200180602001888152602001878152602001806020018681526020018060200185815260200184810384528b818151815260200191508051906020019080838360005b83811015611161578181015183820152602001611149565b50505050905090810190601f16801561118e5780820380516001836020036101000a031916815260200191505b508481038352885460026000196101006001841615020190911604808252602090910190899080156112015780601f106111d657610100808354040283529160200191611201565b820191906000526020600020905b8154815290600101906020018083116111e457829003601f168201915b5050848103825286518152865160209182019188019080838360005b8381101561123557818101518382015260200161121d565b50505050905090810190601f1680156112625780820380516001836020036101000a031916815260200191505b509b50505050505050505050505060405180910390a26114f6565b87828151811061128957fe5b6020026020010151600314156114f657600083815260208190526040902060050185905560018054869190839081106112be57fe5b90600052602060002090600602016003018190555082600080516020612eb3833981519152600080868152602001908152602001600020600801548b60008088815260200190815260200160002060020154600080898152602001908152602001600020600301546000808a81526020019081526020016000206004018b6000808c81526020019081526020016000206006016000808d8152602001908152602001600020600701546040518089815260200180602001888152602001878152602001806020018681526020018060200185815260200184810384528b818151815260200191508051906020019080838360005b838110156113ca5781810151838201526020016113b2565b50505050905090810190601f1680156113f75780820380516001836020036101000a031916815260200191505b5084810383528854600260001961010060018416150201909116048082526020909101908990801561146a5780601f1061143f5761010080835404028352916020019161146a565b820191906000526020600020905b81548152906001019060200180831161144d57829003601f168201915b50508481038252865460026000196101006001841615020190911604808252602090910190879080156114de5780601f106114b3576101008083540402835291602001916114de565b820191906000526020600020905b8154815290600101906020018083116114c157829003601f168201915b50509b50505050505050505050505060405180910390a25b600190910190610d66565b50600198975050505050505050565b60608060006060600080866040516020018082805190602001908083835b6020831061154d5780518252601f19909201916020918201910161152e565b6001836020036101000a03801982511681845116808217855250505050505090500191505060405160208183030381529060405280519060200120905061159381612274565b15156001146115e45760408051600160e51b62461bcd0281526020600482015260126024820152600160701b7175736572206e6f7420696e2073797374656d02604482015290519081900360640190fd5b600081815260208181526040918290206005810154600782015482548551601f60026000196101006001861615020190931692909204918201869004860281018601909652808652929460048601949293600687019387919083018282801561168e5780601f106116635761010080835404028352916020019161168e565b820191906000526020600020905b81548152906001019060200180831161167157829003601f168201915b5050875460408051602060026001851615610100026000190190941693909304601f8101849004840282018401909252818152959a508994509250840190508282801561171c5780601f106116f15761010080835404028352916020019161171c565b820191906000526020600020905b8154815290600101906020018083116116ff57829003601f168201915b5050855460408051602060026001851615610100026000190190941693909304601f8101849004840282018401909252818152959950879450925084019050828280156117aa5780601f1061177f576101008083540402835291602001916117aa565b820191906000526020600020905b81548152906001019060200180831161178d57829003601f168201915b50505050509150955095509550955095505091939590929450565b6000818152602081905260409020600701545b919050565b6000818152602081905260409020600360078201819055600890910154600180546060938493909291811061180e57fe5b9060005260206000209060060201600501819055506001600080858152602001908152602001600020600801548154811061184557fe5b600091825260209182902060026006909202018101805460408051601f6000196101006001861615020190931694909404918201859004850284018501905280835291929091908301828280156118dd5780601f106118b2576101008083540402835291602001916118dd565b820191906000526020600020905b8154815290600101906020018083116118c057829003601f168201915b5093979650505050505050565b600080836040516020018082805190602001908083835b602083106119205780518252601f199092019160209182019101611901565b6001836020036101000a03801982511681845116808217855250505050505090500191505060405160208183030381529060405280519060200120905061196681612274565b15156001146119b75760408051600160e51b62461bcd0281526020600482015260126024820152600160701b7175736572206e6f7420696e2073797374656d02604482015290519081900360640190fd5b60008181526020818152604090912084516119da92600490920191860190612d79565b506000818152602081905260409020600801546001805485929081106119fc57fe5b90600052602060002090600602016002019080519060200190611a20929190612d79565b5080600080516020612eb38339815191526000808481526020019081526020016000206008015486600080868152602001908152602001600020600201546000808781526020019081526020016000206003015488600080898152602001908152602001600020600501546000808a81526020019081526020016000206006016000808b8152602001908152602001600020600701546040518089815260200180602001888152602001878152602001806020018681526020018060200185815260200184810384528b818151815260200191508051906020019080838360005b83811015611b19578181015183820152602001611b01565b50505050905090810190601f168015611b465780820380516001836020036101000a031916815260200191505b5084810383528851815288516020918201918a019080838360005b83811015611b79578181015183820152602001611b61565b50505050905090810190601f168015611ba65780820380516001836020036101000a031916815260200191505b50848103825286546002600019610100600184161502019091160480825260209091019087908015611c195780601f10611bee57610100808354040283529160200191611c19565b820191906000526020600020905b815481529060010190602001808311611bfc57829003601f168201915b50509b50505050505050505050505060405180910390a25060019392505050565b600080836040516020018082805190602001908083835b60208310611c705780518252601f199092019160209182019101611c51565b6001836020036101000a038019825116818451168082178552505050505050905001915050604051602081830303815290604052805190602001209050611cb681612274565b1515600114611d075760408051600160e51b62461bcd0281526020600482015260126024820152600160701b7175736572206e6f7420696e2073797374656d02604482015290519081900360640190fd5b60008181526020819052604090206005810184905560080154600180548592908110611d2f57fe5b90600052602060002090600602016003018190555080600080516020612eb383398151915260008084815260200190815260200160002060080154866000808681526020019081526020016000206002015460008087815260200190815260200160002060030154600080888152602001908152602001600020600401896000808a81526020019081526020016000206006016000808b8152602001908152602001600020600701546040518089815260200180602001888152602001878152602001806020018681526020018060200185815260200184810384528b818151815260200191508051906020019080838360005b83811015611e3b578181015183820152602001611e23565b50505050905090810190601f168015611e685780820380516001836020036101000a031916815260200191505b50848103835288546002600019610100600184161502019091160480825260209091019089908015611edb5780601f10611eb057610100808354040283529160200191611edb565b820191906000526020600020905b815481529060010190602001808311611ebe57829003601f168201915b5050848103825286546002600019610100600184161502019091160480825260209091019087908015611c195780601f10611bee57610100808354040283529160200191611c19565b600080836040516020018082805190602001908083835b60208310611f5a5780518252601f199092019160209182019101611f3b565b6001836020036101000a038019825116818451168082178552505050505050905001915050604051602081830303815290604052805190602001209050611fa081612274565b1515600114611ff15760408051600160e51b62461bcd0281526020600482015260126024820152600160701b7175736572206e6f7420696e2073797374656d02604482015290519081900360640190fd5b600081815260208181526040909120845161201492600690920191860190612d79565b5060008181526020819052604090206008015460018054859290811061203657fe5b9060005260206000209060060201600401908051906020019061205a929190612d79565b5080600080516020612eb383398151915260008084815260200190815260200160002060080154866000808681526020019081526020016000206002015460008087815260200190815260200160002060030154600080888152602001908152602001600020600401600080898152602001908152602001600020600501548a6000808b8152602001908152602001600020600701546040518089815260200180602001888152602001878152602001806020018681526020018060200185815260200184810384528b818151815260200191508051906020019080838360005b8381101561215357818101518382015260200161213b565b50505050905090810190601f1680156121805780820380516001836020036101000a031916815260200191505b508481038352885460026000196101006001841615020190911604808252602090910190899080156121f35780601f106121c8576101008083540402835291602001916121f3565b820191906000526020600020905b8154815290600101906020018083116121d657829003601f168201915b5050848103825286518152865160209182019188019080838360005b8381101561222757818101518382015260200161220f565b50505050905090810190601f1680156122545780820380516001836020036101000a031916815260200191505b509b50505050505050505050505060405180910390a25060019392505050565b600154600090612286575060006117d8565b6000828152602081905260409020600801546001805484929081106122a757fe5b906000526020600020906006020160000154149050919050565b60606000815b6002548210156123a25783600283815481106122df57fe5b90600052602060002090600202016000015414156123975760028054600019810190811061230957fe5b9060005260206000209060020201600001546002838154811061232857fe5b60009182526020909120600291820201919091558054600019810190811061234c57fe5b9060005260206000209060020201600101546002838154811061236b57fe5b90600052602060002090600202016001018190555060028054809190600190036123959190612df7565b505b6001909101906122c7565b60008481526020819052604090206004600782018190556008909101546001805490919081106123ce57fe5b9060005260206000209060060201600501819055506001600080868152602001908152602001600020600801548154811061240557fe5b600091825260209182902060026006909202018101805460408051601f60001961010060018616150201909316949094049182018590048502840185019052808352919290919083018282801561249d5780601f106124725761010080835404028352916020019161249d565b820191906000526020600020905b81548152906001019060200180831161248057829003601f168201915b50505060008781526020818152604091829020600801548251908152915194955088947fcec3494a01493810b31d02909f4026a3beb9634e1d053e594bfeab6c5f7e2de7945091829003019150a29392505050565b60009081526020819052604090206002015490565b600080836040516020018082805190602001908083835b6020831061253d5780518252601f19909201916020918201910161251e565b6001836020036101000a03801982511681845116808217855250505050505090500191505060405160208183030381529060405280519060200120905060006040516020018080600160f81b60610281525060010190506040516020818303038152906040528051906020012090506125b582612274565b15156001141561260f5760408051600160e51b62461bcd02815260206004820152601660248201527f7573657220616c6c7265647920696e2073797374656d00000000000000000000604482015290519081900360640190fd5b600082815260208181526040909120865161262c92880190612d79565b5060008281526020818152604082206001810185905560028101849055600381019290925585516126639260040191870190612d79565b506000828152602081815260408083206005810184905581518084019283905284815286855293909252915161269f9260069092019190612d79565b50600082815260208190526040902060016007909101556126c1828686612ba6565b50600180805490500360008084815260200190815260200160002060080181905550817f451df1d5e8e769a5e36f6aebe6f662d78a422bb5163a3076e0f40f305c45000d60008085815260200190815260200160002060080154876000808781526020019081526020016000206002015460008088815260200190815260200160002060030154896000808a8152602001908152602001600020600501546000808b81526020019081526020016000206006016000808c8152602001908152602001600020600701546040518089815260200180602001888152602001878152602001806020018681526020018060200185815260200184810384528b818151815260200191508051906020019080838360005b838110156127ed5781810151838201526020016127d5565b50505050905090810190601f16801561281a5780820380516001836020036101000a031916815260200191505b5084810383528851815288516020918201918a019080838360005b8381101561284d578181015183820152602001612835565b50505050905090810190601f16801561287a5780820380516001836020036101000a031916815260200191505b508481038252865460026000196101006001841615020190911604808252602090910190879080156128ed5780601f106128c2576101008083540402835291602001916128ed565b820191906000526020600020905b8154815290600101906020018083116128d057829003601f168201915b50509b50505050505050505050505060405180910390a261290d82612cc7565b95945050505050565b6001545b90565b60006060806000606060006001878154811061293557fe5b9060005260206000209060060201600001546001888154811061295457fe5b90600052602060002090600602016001016001898154811061297257fe5b906000526020600020906006020160020160018a8154811061299057fe5b90600052602060002090600602016003015460018b815481106129af57fe5b906000526020600020906006020160040160018c815481106129cd57fe5b600091825260209182902060056006909202010154855460408051601f600260001961010060018716150201909416939093049283018590048502810185019091528181529192879190830182828015612a685780601f10612a3d57610100808354040283529160200191612a68565b820191906000526020600020905b815481529060010190602001808311612a4b57829003601f168201915b5050875460408051602060026001851615610100026000190190941693909304601f8101849004840282018401909252818152959a5089945092508401905082828015612af65780601f10612acb57610100808354040283529160200191612af6565b820191906000526020600020905b815481529060010190602001808311612ad957829003601f168201915b5050855460408051602060026001851615610100026000190190941693909304601f810184900484028201840190925281815295995087945092508401905082828015612b845780601f10612b5957610100808354040283529160200191612b84565b820191906000526020600020905b815481529060010190602001808311612b6757829003601f168201915b5050505050915095509550955095509550955091939550919395565b50600090565b6000612bb0612e28565b84815260208082018590526040808301859052632ac5f23e6060808501919091528151908101909152603b8082529091612ed3908301396080820152600160a082018190528054808201808355600092909252825160069091027fb10e2d527612073b26eecdfd717e6a320cf44b4afac2b0732d9fcbe2b7fa0cf681019182556020808501518051869493612c6b937fb10e2d527612073b26eecdfd717e6a320cf44b4afac2b0732d9fcbe2b7fa0cf7909101920190612d79565b5060408201518051612c87916002840191602090910190612d79565b506060820151600382015560808201518051612cad916004840191602090910190612d79565b5060a0820151816005015550505060019150509392505050565b600080612cd2612d4d565b9050612cdc612e61565b83815260208101828152600280546001810182556000829052925192027f405787fa12a823e0f2b7631cc41b3ba8828b3321ca811111fa75cd3aa3bb5ace810192909255517f405787fa12a823e0f2b7631cc41b3ba8828b3321ca811111fa75cd3aa3bb5acf909101559050919050565b604080514260208083019190915244828401528251808303840181526060909201909252805191012090565b828054600181600116156101000203166002900490600052602060002090601f016020900481019282601f10612dba57805160ff1916838001178555612de7565b82800160010185558215612de7579182015b82811115612de7578251825591602001919060010190612dcc565b50612df3929150612e78565b5090565b815481835581811115612e2357600202816002028360005260206000209182019101612e239190612e92565b505050565b6040518060c001604052806000801916815260200160608152602001606081526020016000815260200160608152602001600081525090565b604080518082019091526000808252602082015290565b61291a91905b80821115612df35760008155600101612e7e565b61291a91905b80821115612df35760008082556001820155600201612e9856fe4517ce58cbae2880223bd8cb107789f39a8e2e3a7537d42071aee080b06a59eb313333352c626f676168617761746874686120526f61642c70616e6e697069746979612c636f6c6f6d626f2c737269206c616e6b612c3130323330a165627a7a72305820dd0d6ec0d891f7573e8c1acb692a64d9bc67048a61b218021557484a004b8ee20029",
  "source": "pragma solidity >=0.4.21 <0.6.0;\r\n\r\ncontract ManagerContract {\r\n     \r\n    struct Manager{\r\n        string email;\r\n        bytes32 emailCode;\r\n        bytes32 passwordCode;\r\n        bytes32 passwordRestToken;\r\n        string name;\r\n        uint contactNumber;\r\n        string userAddress;\r\n        uint userAccess;\r\n        uint index;\r\n    }\r\n\r\n    struct DisplayManager{\r\n        bytes32 emailCode;\r\n        string email;\r\n        string name;\r\n        uint contactNumber;\r\n        string userAddress;\r\n        uint userAccess;\r\n    }\r\n    \r\n    event LogNewManager(\r\n        bytes32 indexed emailCode,\r\n        uint index,string email,\r\n        bytes32 passwordCode,\r\n        bytes32 passwordRestToken,\r\n        string name,\r\n        uint contactNumber,\r\n        string userAddress,\r\n        uint userAccess\r\n        );\r\n    event LogUpdateManager(\r\n        bytes32 indexed emailCode,\r\n        uint index,string email,\r\n        bytes32 passwordCode,\r\n        bytes32 passwordRestToken,\r\n        string name,\r\n        uint contactNumber,\r\n        string userAddress,\r\n        uint userAccess\r\n        );\r\n    event LogDeleteManager(\r\n        bytes32 indexed emailcode,\r\n        uint index\r\n        );\r\n        \r\n    struct RegistationToken{\r\n        bytes32 emailCode;\r\n        bytes32 token;\r\n    }\r\n        \r\n    mapping(bytes32 => Manager) private managerArray;\r\n    DisplayManager[] private managerIndex;\r\n    RegistationToken[] private managerRegistationToken;\r\n    \r\n    function isManager(bytes32 _emailCode)public view returns(bool isIndeed) {\r\n        if(managerIndex.length == 0) return false;\r\n        return (managerIndex[managerArray[_emailCode].index].emailCode == _emailCode);\r\n    }\r\n    function createManagerToken(bytes32 _emailCode)private returns(bytes32){\r\n        bytes32 token = randomtoken();\r\n        RegistationToken memory registationToken;\r\n        registationToken.emailCode = _emailCode;\r\n        registationToken.token = token;\r\n        managerRegistationToken.push(registationToken);\r\n        return token;\r\n    }\r\n    function randomtoken() private view returns (bytes32) {\r\n       return keccak256(abi.encodePacked( block.timestamp, block.difficulty));\r\n    }\r\n    function setDisplayManager(bytes32 _emailCode,string memory _email,string memory _name) private returns(bool){\r\n\r\n        DisplayManager memory displayManager;\r\n        displayManager.emailCode = _emailCode;\r\n        displayManager.email = _email;\r\n        displayManager.name = _name;\r\n        displayManager.contactNumber = 717615678;\r\n        displayManager.userAddress = \"1335,bogahawaththa Road,pannipitiya,colombo,sri lanka,10230\";\r\n        displayManager.userAccess = 1;\r\n        managerIndex.push(displayManager);\r\n        return true;\r\n\r\n    }\r\n    function insertManager(string memory _email,string memory _name) public returns(bytes32){\r\n        bytes32 _emailCode = keccak256(abi.encodePacked((_email)));\r\n        bytes32 _passwordCode = keccak256(abi.encodePacked((\"a\")));\r\n        require(isManager(_emailCode) != true,'user allredy in system');\r\n\r\n        managerArray[_emailCode].email = _email;\r\n        managerArray[_emailCode].emailCode = _emailCode;\r\n        managerArray[_emailCode].passwordCode = _passwordCode;\r\n        managerArray[_emailCode].passwordRestToken = \"\";\r\n        managerArray[_emailCode].name = _name;\r\n        managerArray[_emailCode].contactNumber = 0;\r\n        managerArray[_emailCode].userAddress = \"\";\r\n        managerArray[_emailCode].userAccess = 1;\r\n        setDisplayManager(_emailCode,_email,_name);\r\n        managerArray[_emailCode].index = managerIndex.length-1;\r\n\r\n        emit LogNewManager (\r\n            _emailCode,\r\n            managerArray[_emailCode].index,\r\n            _email,\r\n            managerArray[_emailCode].passwordCode,\r\n            managerArray[_emailCode].passwordRestToken,\r\n            _name,\r\n            managerArray[_emailCode].contactNumber,\r\n            managerArray[_emailCode].userAddress,\r\n            managerArray[_emailCode].userAccess\r\n            );\r\n        return createManagerToken(_emailCode);\r\n    }\r\n    function deleteManager (bytes32 email) public returns(string memory){\r\n        uint i;\r\n        string memory name;\r\n        for( i = 0; i < managerRegistationToken.length; i++) {\r\n            if(managerRegistationToken[i].emailCode == email){\r\n                managerRegistationToken[i].emailCode = managerRegistationToken[managerRegistationToken.length-1].emailCode;\r\n                managerRegistationToken[i].token = managerRegistationToken[managerRegistationToken.length-1].token;\r\n                managerRegistationToken.length--;\r\n            }\r\n        }\r\n        managerArray[email].userAccess = 4;\r\n        managerIndex[managerArray[email].index].userAccess = 4;\r\n        name = managerIndex[managerArray[email].index].name;\r\n        emit LogDeleteManager(\r\n            email,\r\n            managerArray[email].index\r\n        );\r\n        return name;\r\n    }\r\n    function blockManager(bytes32 email) public returns(string memory)\r\n    {\r\n        string memory name;\r\n        managerArray[email].userAccess = 3;\r\n        managerIndex[managerArray[email].index].userAccess = 3;\r\n        name = managerIndex[managerArray[email].index].name;\r\n        return name;\r\n    }\r\n    function getManager(string memory _email) public view returns(string memory email,string memory name,\r\n    uint contactNumber,string memory userAddress, uint userAccess){\r\n        bytes32 _emailCode = keccak256(abi.encodePacked((_email)));\r\n        require(isManager(_emailCode) == true,'user not in system');\r\n        return(\r\n            managerArray[_emailCode].email,\r\n            managerArray[_emailCode].name,\r\n            managerArray[_emailCode].contactNumber,\r\n            managerArray[_emailCode].userAddress,\r\n            managerArray[_emailCode].userAccess\r\n            );\r\n    }\r\n    function getManageri(uint i) public view returns(\r\n        bytes32,\r\n        string memory,\r\n        string memory,\r\n        uint,\r\n        string memory,\r\n        uint\r\n        ){\r\n            return (\r\n                managerIndex[i].emailCode,\r\n                managerIndex[i].email,\r\n                managerIndex[i].name,\r\n                managerIndex[i].contactNumber,\r\n                managerIndex[i].userAddress,\r\n                managerIndex[i].userAccess\r\n                );\r\n    }\r\n    function getManagerCount() public view returns(uint)\r\n    {\r\n        return managerIndex.length;\r\n    }\r\n    \r\n    // function updateUserEmail(address userAddress, bytes32 userEmail) public returns(bool success)\r\n    // {\r\n    //     userStructs[userAddress].userEmail = userEmail;\r\n    //     emit LogUpdateUser(userAddress,  userStructs[userAddress].index, userEmail, userStructs[userAddress].userAge);\r\n    //     return true;\r\n    // }\r\n    function updateDistributorName (string memory _email,string memory _name) public returns(bool success){\r\n        bytes32 _emailCode = keccak256(abi.encodePacked((_email)));\r\n        require(isManager(_emailCode) == true,'user not in system');\r\n        managerArray[_emailCode].name = _name;\r\n        managerIndex[managerArray[_emailCode].index].name = _name;\r\n        emit LogUpdateManager(\r\n            _emailCode,\r\n            managerArray[_emailCode].index,\r\n            _email,\r\n            managerArray[_emailCode].passwordCode,\r\n            managerArray[_emailCode].passwordRestToken,\r\n            _name,\r\n            managerArray[_emailCode].contactNumber,\r\n            managerArray[_emailCode].userAddress,\r\n            managerArray[_emailCode].userAccess\r\n            );\r\n        return true;\r\n    }\r\n    function updateManagerAddress (string memory _email,string memory _userAddress) public returns(bool success){\r\n        bytes32 _emailCode = keccak256(abi.encodePacked((_email)));\r\n        require(isManager(_emailCode) == true,'user not in system');\r\n        managerArray[_emailCode].userAddress = _userAddress;\r\n        managerIndex[managerArray[_emailCode].index].userAddress = _userAddress;\r\n        emit LogUpdateManager(\r\n            _emailCode,\r\n            managerArray[_emailCode].index,\r\n            _email,\r\n            managerArray[_emailCode].passwordCode,\r\n            managerArray[_emailCode].passwordRestToken,\r\n            managerArray[_emailCode].name,\r\n            managerArray[_emailCode].contactNumber,\r\n            _userAddress,\r\n            managerArray[_emailCode].userAccess\r\n            );\r\n        return true;\r\n    }\r\n    function updateManagerContactNumber (string memory _email,uint _contactNumber) public returns(bool success){\r\n        bytes32 _emailCode = keccak256(abi.encodePacked((_email)));\r\n        require(isManager(_emailCode) == true,'user not in system');\r\n        managerArray[_emailCode].contactNumber = _contactNumber;\r\n        managerIndex[managerArray[_emailCode].index].contactNumber = _contactNumber;\r\n        emit LogUpdateManager(\r\n            _emailCode,\r\n            managerArray[_emailCode].index,\r\n            _email,\r\n            managerArray[_emailCode].passwordCode,\r\n            managerArray[_emailCode].passwordRestToken,\r\n            managerArray[_emailCode].name,\r\n            _contactNumber,\r\n            managerArray[_emailCode].userAddress,\r\n            managerArray[_emailCode].userAccess\r\n            );\r\n        return true;\r\n    }\r\n    function updateManager(\r\n        string memory _email,\r\n        uint[] memory index,\r\n        string memory _name,\r\n        string memory _userAddress,\r\n        uint _contactNumber\r\n        ) public returns(bool success){\r\n        bytes32 _emailCode = keccak256(abi.encodePacked((_email)));\r\n        require(isManager(_emailCode) == true,'user not in system');\r\n        uint i;\r\n        uint num = managerArray[_emailCode].index;\r\n\r\n        for (i = 0;i<index.length;i++){\r\n            if(index[i]==1){\r\n                managerArray[_emailCode].name = _name;\r\n                managerIndex[num].name = _name;\r\n                emit LogUpdateManager(\r\n                    _emailCode,\r\n                    managerArray[_emailCode].index,\r\n                    _email,managerArray[_emailCode].passwordCode,\r\n                    managerArray[_emailCode].passwordRestToken,\r\n                    _name,\r\n                    managerArray[_emailCode].contactNumber,\r\n                    managerArray[_emailCode].userAddress,\r\n                    managerArray[_emailCode].userAccess\r\n                    );\r\n\r\n            }\r\n            else if(index[i]==2){\r\n                managerArray[_emailCode].userAddress = _userAddress;\r\n\r\n                managerIndex[num].userAddress = _userAddress;\r\n\r\n                emit LogUpdateManager(\r\n                    _emailCode,\r\n                    managerArray[_emailCode].index,\r\n                    _email,\r\n                    managerArray[_emailCode].passwordCode,\r\n                    managerArray[_emailCode].passwordRestToken,\r\n                    managerArray[_emailCode].name,\r\n                    managerArray[_emailCode].contactNumber,\r\n                    _userAddress,\r\n                    managerArray[_emailCode].userAccess\r\n                    );\r\n\r\n            }\r\n            else if(index[i]==3){\r\n                managerArray[_emailCode].contactNumber = _contactNumber;\r\n                managerIndex[num].contactNumber = _contactNumber;\r\n                emit LogUpdateManager(\r\n                    _emailCode,\r\n                    managerArray[_emailCode].index,\r\n                    _email,\r\n                    managerArray[_emailCode].passwordCode,\r\n                    managerArray[_emailCode].passwordRestToken,\r\n                    managerArray[_emailCode].name,\r\n                    _contactNumber,\r\n                    managerArray[_emailCode].userAddress,\r\n                    managerArray[_emailCode].userAccess\r\n                    );\r\n\r\n            }\r\n        }\r\n        return true;\r\n    }\r\n    ///////\r\n    function updateManagerEmail (string memory _email) public returns(bool success)\r\n    {\r\n       // return true;\r\n    }\r\n    \r\n    function checkManagerUserAccess(bytes32 email)public view returns(uint userAccess){\r\n        return managerArray[email].userAccess;\r\n    }\r\n    function checkManagerPasswordCode(bytes32 email) public view returns(bytes32 passwordCode){\r\n        return managerArray[email].passwordCode;\r\n    }\r\n}",
  "sourcePath": "C:\\project\\tea supply chain mangement system\\test2\\contracts\\Manager.sol",
  "compiler": {
    "name": "solc",
    "version": "0.5.8+commit.23d335f2.Emscripten.clang"
  },
  "schemaVersion": "3.0.16",
  "updatedAt": "2019-11-16T02:02:57.110Z",
  "devdoc": {
    "methods": {}
  },
  "userdoc": {
    "methods": {
      "updateManagerEmail(string)": {
        "notice": "////"
      }
    }
  }
}