{
  "contractName": "ManagerContract",
  "abi": [
    {
      "constant": true,
      "inputs": [
        {
          "name": "",
          "type": "bytes32"
        }
      ],
      "name": "managerArray",
      "outputs": [
        {
          "name": "email",
          "type": "string"
        },
        {
          "name": "emailCode",
          "type": "bytes32"
        },
        {
          "name": "passwordCode",
          "type": "bytes32"
        },
        {
          "name": "passwordRestToken",
          "type": "bytes32"
        },
        {
          "name": "name",
          "type": "string"
        },
        {
          "name": "contactNumber",
          "type": "uint256"
        },
        {
          "name": "userAddress",
          "type": "string"
        },
        {
          "name": "userAccess",
          "type": "uint256"
        },
        {
          "name": "index",
          "type": "uint256"
        }
      ],
      "payable": false,
      "stateMutability": "view",
      "type": "function"
    },
    {
      "anonymous": false,
      "inputs": [
        {
          "indexed": true,
          "name": "emailCode",
          "type": "bytes32"
        },
        {
          "indexed": false,
          "name": "index",
          "type": "uint256"
        },
        {
          "indexed": false,
          "name": "email",
          "type": "string"
        },
        {
          "indexed": false,
          "name": "passwordCode",
          "type": "bytes32"
        },
        {
          "indexed": false,
          "name": "passwordRestToken",
          "type": "bytes32"
        },
        {
          "indexed": false,
          "name": "name",
          "type": "string"
        },
        {
          "indexed": false,
          "name": "contactNumber",
          "type": "uint256"
        },
        {
          "indexed": false,
          "name": "userAddress",
          "type": "string"
        },
        {
          "indexed": false,
          "name": "userAccess",
          "type": "uint256"
        }
      ],
      "name": "LogNewManager",
      "type": "event"
    },
    {
      "anonymous": false,
      "inputs": [
        {
          "indexed": true,
          "name": "emailCode",
          "type": "bytes32"
        },
        {
          "indexed": false,
          "name": "index",
          "type": "uint256"
        },
        {
          "indexed": false,
          "name": "email",
          "type": "string"
        },
        {
          "indexed": false,
          "name": "passwordCode",
          "type": "bytes32"
        },
        {
          "indexed": false,
          "name": "passwordRestToken",
          "type": "bytes32"
        },
        {
          "indexed": false,
          "name": "name",
          "type": "string"
        },
        {
          "indexed": false,
          "name": "contactNumber",
          "type": "uint256"
        },
        {
          "indexed": false,
          "name": "userAddress",
          "type": "string"
        },
        {
          "indexed": false,
          "name": "userAccess",
          "type": "uint256"
        }
      ],
      "name": "LogUpdateManager",
      "type": "event"
    },
    {
      "anonymous": false,
      "inputs": [
        {
          "indexed": true,
          "name": "emailcode",
          "type": "bytes32"
        },
        {
          "indexed": false,
          "name": "index",
          "type": "uint256"
        }
      ],
      "name": "LogDeleteManager",
      "type": "event"
    },
    {
      "constant": true,
      "inputs": [
        {
          "name": "_emailCode",
          "type": "bytes32"
        }
      ],
      "name": "isManager",
      "outputs": [
        {
          "name": "isIndeed",
          "type": "bool"
        }
      ],
      "payable": false,
      "stateMutability": "view",
      "type": "function"
    },
    {
      "constant": false,
      "inputs": [
        {
          "name": "_emailCode",
          "type": "bytes32"
        }
      ],
      "name": "createManagerToken",
      "outputs": [
        {
          "name": "",
          "type": "bytes32"
        }
      ],
      "payable": false,
      "stateMutability": "nonpayable",
      "type": "function"
    },
    {
      "constant": false,
      "inputs": [
        {
          "name": "_email",
          "type": "string"
        },
        {
          "name": "_name",
          "type": "string"
        },
        {
          "name": "_address",
          "type": "string"
        },
        {
          "name": "_telephone",
          "type": "uint256"
        }
      ],
      "name": "insertManager",
      "outputs": [
        {
          "name": "",
          "type": "bool"
        }
      ],
      "payable": false,
      "stateMutability": "nonpayable",
      "type": "function"
    },
    {
      "constant": false,
      "inputs": [
        {
          "name": "email",
          "type": "bytes32"
        }
      ],
      "name": "deleteManager",
      "outputs": [
        {
          "name": "",
          "type": "string"
        }
      ],
      "payable": false,
      "stateMutability": "nonpayable",
      "type": "function"
    },
    {
      "constant": false,
      "inputs": [
        {
          "name": "email",
          "type": "bytes32"
        }
      ],
      "name": "blockManager",
      "outputs": [
        {
          "name": "",
          "type": "string"
        }
      ],
      "payable": false,
      "stateMutability": "nonpayable",
      "type": "function"
    },
    {
      "constant": false,
      "inputs": [
        {
          "name": "_email",
          "type": "string"
        },
        {
          "name": "usreAccess",
          "type": "uint256"
        }
      ],
      "name": "editUserAccess",
      "outputs": [
        {
          "name": "",
          "type": "bool"
        }
      ],
      "payable": false,
      "stateMutability": "nonpayable",
      "type": "function"
    },
    {
      "constant": true,
      "inputs": [
        {
          "name": "_email",
          "type": "string"
        }
      ],
      "name": "getManager",
      "outputs": [
        {
          "name": "",
          "type": "bytes32"
        },
        {
          "name": "email",
          "type": "string"
        },
        {
          "name": "name",
          "type": "string"
        },
        {
          "name": "contactNumber",
          "type": "uint256"
        },
        {
          "name": "userAddress",
          "type": "string"
        },
        {
          "name": "userAccess",
          "type": "uint256"
        }
      ],
      "payable": false,
      "stateMutability": "view",
      "type": "function"
    },
    {
      "constant": true,
      "inputs": [
        {
          "name": "i",
          "type": "uint256"
        }
      ],
      "name": "getManageri",
      "outputs": [
        {
          "name": "",
          "type": "bytes32"
        },
        {
          "name": "",
          "type": "string"
        },
        {
          "name": "",
          "type": "string"
        },
        {
          "name": "",
          "type": "uint256"
        },
        {
          "name": "",
          "type": "string"
        },
        {
          "name": "",
          "type": "uint256"
        }
      ],
      "payable": false,
      "stateMutability": "view",
      "type": "function"
    },
    {
      "constant": true,
      "inputs": [],
      "name": "getManagerCount",
      "outputs": [
        {
          "name": "",
          "type": "uint256"
        }
      ],
      "payable": false,
      "stateMutability": "view",
      "type": "function"
    },
    {
      "constant": false,
      "inputs": [
        {
          "name": "_email",
          "type": "string"
        },
        {
          "name": "_name",
          "type": "string"
        }
      ],
      "name": "updateManagerName",
      "outputs": [
        {
          "name": "success",
          "type": "bool"
        }
      ],
      "payable": false,
      "stateMutability": "nonpayable",
      "type": "function"
    },
    {
      "constant": false,
      "inputs": [
        {
          "name": "_email",
          "type": "string"
        },
        {
          "name": "_userAddress",
          "type": "string"
        }
      ],
      "name": "updateManagerAddress",
      "outputs": [
        {
          "name": "success",
          "type": "bool"
        }
      ],
      "payable": false,
      "stateMutability": "nonpayable",
      "type": "function"
    },
    {
      "constant": false,
      "inputs": [
        {
          "name": "_email",
          "type": "string"
        },
        {
          "name": "_contactNumber",
          "type": "uint256"
        }
      ],
      "name": "updateManagerContactNumber",
      "outputs": [
        {
          "name": "success",
          "type": "bool"
        }
      ],
      "payable": false,
      "stateMutability": "nonpayable",
      "type": "function"
    },
    {
      "constant": false,
      "inputs": [
        {
          "name": "_email",
          "type": "string"
        },
        {
          "name": "index",
          "type": "uint256[]"
        },
        {
          "name": "_name",
          "type": "string"
        },
        {
          "name": "_userAddress",
          "type": "string"
        },
        {
          "name": "_contactNumber",
          "type": "uint256"
        }
      ],
      "name": "updateManager",
      "outputs": [
        {
          "name": "success",
          "type": "bool"
        }
      ],
      "payable": false,
      "stateMutability": "nonpayable",
      "type": "function"
    },
    {
      "constant": false,
      "inputs": [
        {
          "name": "_email",
          "type": "string"
        }
      ],
      "name": "updateManageriEmail",
      "outputs": [
        {
          "name": "success",
          "type": "bool"
        }
      ],
      "payable": false,
      "stateMutability": "nonpayable",
      "type": "function"
    },
    {
      "constant": true,
      "inputs": [
        {
          "name": "email",
          "type": "bytes32"
        }
      ],
      "name": "checkManagerUserAccess",
      "outputs": [
        {
          "name": "userAccess",
          "type": "uint256"
        }
      ],
      "payable": false,
      "stateMutability": "view",
      "type": "function"
    },
    {
      "constant": true,
      "inputs": [
        {
          "name": "email",
          "type": "bytes32"
        }
      ],
      "name": "checkManagerPasswordCode",
      "outputs": [
        {
          "name": "passwordCode",
          "type": "bytes32"
        }
      ],
      "payable": false,
      "stateMutability": "view",
      "type": "function"
    }
  ],
  "bytecode": "0x608060405234801561001057600080fd5b506132ca806100206000396000f3fe608060405234801561001057600080fd5b506004361061010b5760003560e01c806392eedbab116100a2578063ae040fea11610071578063ae040fea14610b34578063b5bd215814610b51578063cf92838414610cdc578063f9fcecd714610ce4578063ff79fd9914610d015761010b565b806392eedbab1461092b5780639d7450ab146109d1578063a952fab314610afa578063acc29ad214610b175761010b565b8063329310ee116100de578063329310ee1461059f578063431c0fc01461064357806365851668146106d55780636609b7cc146108855761010b565b8063044d58d6146101105780631482a762146103565780631ee441e91461038557806323d4426414610582575b600080fd5b610342600480360360a081101561012657600080fd5b810190602081018135600160201b81111561014057600080fd5b82018360208201111561015257600080fd5b803590602001918460018302840111600160201b8311171561017357600080fd5b91908080601f0160208091040260200160405190810160405280939291908181526020018383808284376000920191909152509295949360208101935035915050600160201b8111156101c557600080fd5b8201836020820111156101d757600080fd5b803590602001918460208302840111600160201b831117156101f857600080fd5b9190808060200260200160405190810160405280939291908181526020018383602002808284376000920191909152509295949360208101935035915050600160201b81111561024757600080fd5b82018360208201111561025957600080fd5b803590602001918460018302840111600160201b8311171561027a57600080fd5b91908080601f0160208091040260200160405190810160405280939291908181526020018383808284376000920191909152509295949360208101935035915050600160201b8111156102cc57600080fd5b8201836020820111156102de57600080fd5b803590602001918460018302840111600160201b831117156102ff57600080fd5b91908080601f0160208091040260200160405190810160405280939291908181526020018383808284376000920191909152509295505091359250610e2a915050565b604080519115158252519081900360200190f35b6103736004803603602081101561036c57600080fd5b50356116b4565b60408051918252519081900360200190f35b6104296004803603602081101561039b57600080fd5b810190602081018135600160201b8111156103b557600080fd5b8201836020820111156103c757600080fd5b803590602001918460018302840111600160201b831117156103e857600080fd5b91908080601f016020809104026020016040519081016040528093929190818152602001838380828437600092019190915250929550611705945050505050565b60405180878152602001806020018060200186815260200180602001858152602001848103845289818151815260200191508051906020019080838360005b83811015610480578181015183820152602001610468565b50505050905090810190601f1680156104ad5780820380516001836020036101000a031916815260200191505b5084810383528851815288516020918201918a019080838360005b838110156104e05781810151838201526020016104c8565b50505050905090810190601f16801561050d5780820380516001836020036101000a031916815260200191505b50848103825286518152865160209182019188019080838360005b83811015610540578181015183820152602001610528565b50505050905090810190601f16801561056d5780820380516001836020036101000a031916815260200191505b50995050505050505050505060405180910390f35b6103736004803603602081101561059857600080fd5b50356119bf565b610342600480360360208110156105b557600080fd5b810190602081018135600160201b8111156105cf57600080fd5b8201836020820111156105e157600080fd5b803590602001918460018302840111600160201b8311171561060257600080fd5b91908080601f0160208091040260200160405190810160405280939291908181526020018383808284376000920191909152509295506119d4945050505050565b6106606004803603602081101561065957600080fd5b50356119da565b6040805160208082528351818301528351919283929083019185019080838360005b8381101561069a578181015183820152602001610682565b50505050905090810190601f1680156106c75780820380516001836020036101000a031916815260200191505b509250505060405180910390f35b610342600480360360808110156106eb57600080fd5b810190602081018135600160201b81111561070557600080fd5b82018360208201111561071757600080fd5b803590602001918460018302840111600160201b8311171561073857600080fd5b91908080601f0160208091040260200160405190810160405280939291908181526020018383808284376000920191909152509295949360208101935035915050600160201b81111561078a57600080fd5b82018360208201111561079c57600080fd5b803590602001918460018302840111600160201b831117156107bd57600080fd5b91908080601f0160208091040260200160405190810160405280939291908181526020018383808284376000920191909152509295949360208101935035915050600160201b81111561080f57600080fd5b82018360208201111561082157600080fd5b803590602001918460018302840111600160201b8311171561084257600080fd5b91908080601f0160208091040260200160405190810160405280939291908181526020018383808284376000920191909152509295505091359250611c1f915050565b6103426004803603604081101561089b57600080fd5b810190602081018135600160201b8111156108b557600080fd5b8201836020820111156108c757600080fd5b803590602001918460018302840111600160201b831117156108e857600080fd5b91908080601f0160208091040260200160405190810160405280939291908181526020018383808284376000920191909152509295505091359250611ff4915050565b6103426004803603604081101561094157600080fd5b810190602081018135600160201b81111561095b57600080fd5b82018360208201111561096d57600080fd5b803590602001918460018302840111600160201b8311171561098e57600080fd5b91908080601f01602080910402602001604051908101604052809392919081815260200183838082843760009201919091525092955050913592506120ac915050565b610342600480360360408110156109e757600080fd5b810190602081018135600160201b811115610a0157600080fd5b820183602082011115610a1357600080fd5b803590602001918460018302840111600160201b83111715610a3457600080fd5b91908080601f0160208091040260200160405190810160405280939291908181526020018383808284376000920191909152509295949360208101935035915050600160201b811115610a8657600080fd5b820183602082011115610a9857600080fd5b803590602001918460018302840111600160201b83111715610ab957600080fd5b91908080601f0160208091040260200160405190810160405280939291908181526020018383808284376000920191909152509295506123e2945050505050565b61034260048036036020811015610b1057600080fd5b5035612732565b61066060048036036020811015610b2d57600080fd5b503561277f565b61037360048036036020811015610b4a57600080fd5b50356128e7565b610b6e60048036036020811015610b6757600080fd5b50356128fc565b60405180806020018a8152602001898152602001888152602001806020018781526020018060200186815260200185815260200184810384528d818151815260200191508051906020019080838360005b83811015610bd7578181015183820152602001610bbf565b50505050905090810190601f168015610c045780820380516001836020036101000a031916815260200191505b5084810383528951815289516020918201918b019080838360005b83811015610c37578181015183820152602001610c1f565b50505050905090810190601f168015610c645780820380516001836020036101000a031916815260200191505b50848103825287518152875160209182019189019080838360005b83811015610c97578181015183820152602001610c7f565b50505050905090810190601f168015610cc45780820380516001836020036101000a031916815260200191505b509c5050505050505050505050505060405180910390f35b610373612aed565b61042960048036036020811015610cfa57600080fd5b5035612af4565b61034260048036036040811015610d1757600080fd5b810190602081018135600160201b811115610d3157600080fd5b820183602082011115610d4357600080fd5b803590602001918460018302840111600160201b83111715610d6457600080fd5b91908080601f0160208091040260200160405190810160405280939291908181526020018383808284376000920191909152509295949360208101935035915050600160201b811115610db657600080fd5b820183602082011115610dc857600080fd5b803590602001918460018302840111600160201b83111715610de957600080fd5b91908080601f016020809104026020016040519081016040528093929190818152602001838380828437600092019190915250929550612d77945050505050565b600080866040516020018082805190602001908083835b60208310610e605780518252601f199092019160209182019101610e41565b6001836020036101000a038019825116818451168082178552505050505050905001915050604051602081830303815290604052805190602001209050610ea681612732565b1515600114610ef75760408051600160e51b62461bcd0281526020600482015260126024820152600160701b7175736572206e6f7420696e2073797374656d02604482015290519081900360640190fd5b6000818152602081905260408120600801545b87518210156116a557878281518110610f1f57fe5b60200260200101516001141561119a576000838152602081815260409091208851610f52926004909201918a01906131ad565b508660018281548110610f6157fe5b90600052602060002090600602016002019080519060200190610f859291906131ad565b508260008051602061327f833981519152600080868152602001908152602001600020600801548b60008088815260200190815260200160002060020154600080898152602001908152602001600020600301548c6000808b8152602001908152602001600020600501546000808c81526020019081526020016000206006016000808d8152602001908152602001600020600701546040518089815260200180602001888152602001878152602001806020018681526020018060200185815260200184810384528b818151815260200191508051906020019080838360005b8381101561107e578181015183820152602001611066565b50505050905090810190601f1680156110ab5780820380516001836020036101000a031916815260200191505b5084810383528851815288516020918201918a019080838360005b838110156110de5781810151838201526020016110c6565b50505050905090810190601f16801561110b5780820380516001836020036101000a031916815260200191505b5084810382528654600260001961010060018416150201909116048082526020909101908790801561117e5780601f106111535761010080835404028352916020019161117e565b820191906000526020600020905b81548152906001019060200180831161116157829003601f168201915b50509b50505050505050505050505060405180910390a261169a565b8782815181106111a657fe5b6020026020010151600214156114215760008381526020818152604090912087516111d9926006909201918901906131ad565b5085600182815481106111e857fe5b9060005260206000209060060201600401908051906020019061120c9291906131ad565b508260008051602061327f833981519152600080868152602001908152602001600020600801548b60008088815260200190815260200160002060020154600080898152602001908152602001600020600301546000808a81526020019081526020016000206004016000808b8152602001908152602001600020600501548d6000808d8152602001908152602001600020600701546040518089815260200180602001888152602001878152602001806020018681526020018060200185815260200184810384528b818151815260200191508051906020019080838360005b838110156113055781810151838201526020016112ed565b50505050905090810190601f1680156113325780820380516001836020036101000a031916815260200191505b508481038352885460026000196101006001841615020190911604808252602090910190899080156113a55780601f1061137a576101008083540402835291602001916113a5565b820191906000526020600020905b81548152906001019060200180831161138857829003601f168201915b5050848103825286518152865160209182019188019080838360005b838110156113d95781810151838201526020016113c1565b50505050905090810190601f1680156114065780820380516001836020036101000a031916815260200191505b509b50505050505050505050505060405180910390a261169a565b87828151811061142d57fe5b60200260200101516003141561169a576000838152602081905260409020600501859055600180548691908390811061146257fe5b9060005260206000209060060201600301819055508260008051602061327f833981519152600080868152602001908152602001600020600801548b60008088815260200190815260200160002060020154600080898152602001908152602001600020600301546000808a81526020019081526020016000206004018b6000808c81526020019081526020016000206006016000808d8152602001908152602001600020600701546040518089815260200180602001888152602001878152602001806020018681526020018060200185815260200184810384528b818151815260200191508051906020019080838360005b8381101561156e578181015183820152602001611556565b50505050905090810190601f16801561159b5780820380516001836020036101000a031916815260200191505b5084810383528854600260001961010060018416150201909116048082526020909101908990801561160e5780601f106115e35761010080835404028352916020019161160e565b820191906000526020600020905b8154815290600101906020018083116115f157829003601f168201915b50508481038252865460026000196101006001841615020190911604808252602090910190879080156116825780601f1061165757610100808354040283529160200191611682565b820191906000526020600020905b81548152906001019060200180831161166557829003601f168201915b50509b50505050505050505050505060405180910390a25b600190910190610f0a565b50600198975050505050505050565b6000806116bf61307b565b60008481526002602052604090205490915083146116e95760008381526002602052604090208390555b600083815260026020526040902060010181905590505b919050565b600060608060006060600080876040516020018082805190602001908083835b602083106117445780518252601f199092019160209182019101611725565b6001836020036101000a03801982511681845116808217855250505050505090500191505060405160208183030381529060405280519060200120905061178a81612732565b15156001146117db5760408051600160e51b62461bcd0281526020600482015260126024820152600160701b7175736572206e6f7420696e2073797374656d02604482015290519081900360640190fd5b60008181526020818152604091829020600581015460078201548254855160026001831615610100026000190190921691909104601f8101869004860282018601909652858152869593946004860194600687019392918791908301828280156118865780601f1061185b57610100808354040283529160200191611886565b820191906000526020600020905b81548152906001019060200180831161186957829003601f168201915b5050875460408051602060026001851615610100026000190190941693909304601f8101849004840282018401909252818152959a50899450925084019050828280156119145780601f106118e957610100808354040283529160200191611914565b820191906000526020600020905b8154815290600101906020018083116118f757829003601f168201915b5050855460408051602060026001851615610100026000190190941693909304601f8101849004840282018401909252818152959950879450925084019050828280156119a25780601f10611977576101008083540402835291602001916119a2565b820191906000526020600020905b81548152906001019060200180831161198557829003601f168201915b505050505091509650965096509650965096505091939550919395565b60009081526020819052604090206007015490565b50600090565b600081815260208190526040902060070154606090819060051415611afc576000838152602081905260409020600360078201819055600890910154600180549091908110611a2557fe5b90600052602060002090600602016005018190555060016000808581526020019081526020016000206008015481548110611a5c57fe5b600091825260209182902060026006909202018101805460408051601f600019610100600186161502019093169490940491820185900485028401850190528083529192909190830182828015611af45780601f10611ac957610100808354040283529160200191611af4565b820191906000526020600020905b815481529060010190602001808311611ad757829003601f168201915b505050505090505b60008381526020819052604090206007015460031415611c19576000838152602081905260409020600560078201819055600890910154600180549091908110611b4257fe5b90600052602060002090600602016005018190555060016000808581526020019081526020016000206008015481548110611b7957fe5b600091825260209182902060026006909202018101805460408051601f600019610100600186161502019093169490940491820185900485028401850190528083529192909190830182828015611c115780601f10611be657610100808354040283529160200191611c11565b820191906000526020600020905b815481529060010190602001808311611bf457829003601f168201915b505050505090505b92915050565b600080856040516020018082805190602001908083835b60208310611c555780518252601f199092019160209182019101611c36565b6001836020036101000a03801982511681845116808217855250505050505090500191505060405160208183030381529060405280519060200120905060006040516020018080600160f81b6061028152506001019050604051602081830303815290604052805190602001209050611ccd82612732565b151560011415611d275760408051600160e51b62461bcd02815260206004820152601660248201527f7573657220616c6c7265647920696e2073797374656d00000000000000000000604482015290519081900360640190fd5b6000828152602081815260409091208851611d44928a01906131ad565b50600082815260208190526040902060018101839055600201819055611d69826116b4565b60008381526020818152604090912060038101929092558751611d9292600401918901906131ad565b50600082815260208181526040909120600581018690558651611dbd926006909201918801906131ad565b5060008281526020819052604090206001600790910155611de182888887896130a7565b50600180805490500360008084815260200190815260200160002060080181905550817f451df1d5e8e769a5e36f6aebe6f662d78a422bb5163a3076e0f40f305c45000d600080858152602001908152602001600020600801548960008087815260200190815260200160002060020154600080888152602001908152602001600020600301548b8a8c6000808c8152602001908152602001600020600701546040518089815260200180602001888152602001878152602001806020018681526020018060200185815260200184810384528b818151815260200191508051906020019080838360005b83811015611ee4578181015183820152602001611ecc565b50505050905090810190601f168015611f115780820380516001836020036101000a031916815260200191505b5084810383528851815288516020918201918a019080838360005b83811015611f44578181015183820152602001611f2c565b50505050905090810190601f168015611f715780820380516001836020036101000a031916815260200191505b50848103825286518152865160209182019188019080838360005b83811015611fa4578181015183820152602001611f8c565b50505050905090810190601f168015611fd15780820380516001836020036101000a031916815260200191505b509b50505050505050505050505060405180910390a25060019695505050505050565b600080836040516020018082805190602001908083835b6020831061202a5780518252601f19909201916020918201910161200b565b51815160209384036101000a60001901801990921691161790526040805192909401828103601f1901835284528151918101919091206000818152918290529290206007810188905560080154600180549396508895509350918210905061208e57fe5b60009182526020909120600560069092020101555060019392505050565b600080836040516020018082805190602001908083835b602083106120e25780518252601f1990920191602091820191016120c3565b6001836020036101000a03801982511681845116808217855250505050505090500191505060405160208183030381529060405280519060200120905061212881612732565b15156001146121795760408051600160e51b62461bcd0281526020600482015260126024820152600160701b7175736572206e6f7420696e2073797374656d02604482015290519081900360640190fd5b600081815260208190526040902060058101849055600801546001805485929081106121a157fe5b9060005260206000209060060201600301819055508060008051602061327f83398151915260008084815260200190815260200160002060080154866000808681526020019081526020016000206002015460008087815260200190815260200160002060030154600080888152602001908152602001600020600401896000808a81526020019081526020016000206006016000808b8152602001908152602001600020600701546040518089815260200180602001888152602001878152602001806020018681526020018060200185815260200184810384528b818151815260200191508051906020019080838360005b838110156122ad578181015183820152602001612295565b50505050905090810190601f1680156122da5780820380516001836020036101000a031916815260200191505b5084810383528854600260001961010060018416150201909116048082526020909101908990801561234d5780601f106123225761010080835404028352916020019161234d565b820191906000526020600020905b81548152906001019060200180831161233057829003601f168201915b50508481038252865460026000196101006001841615020190911604808252602090910190879080156123c15780601f10612396576101008083540402835291602001916123c1565b820191906000526020600020905b8154815290600101906020018083116123a457829003601f168201915b50509b50505050505050505050505060405180910390a25060019392505050565b600080836040516020018082805190602001908083835b602083106124185780518252601f1990920191602091820191016123f9565b6001836020036101000a03801982511681845116808217855250505050505090500191505060405160208183030381529060405280519060200120905061245e81612732565b15156001146124af5760408051600160e51b62461bcd0281526020600482015260126024820152600160701b7175736572206e6f7420696e2073797374656d02604482015290519081900360640190fd5b60008181526020818152604090912084516124d2926006909201918601906131ad565b506000818152602081905260409020600801546001805485929081106124f457fe5b906000526020600020906006020160040190805190602001906125189291906131ad565b508060008051602061327f83398151915260008084815260200190815260200160002060080154866000808681526020019081526020016000206002015460008087815260200190815260200160002060030154600080888152602001908152602001600020600401600080898152602001908152602001600020600501548a6000808b8152602001908152602001600020600701546040518089815260200180602001888152602001878152602001806020018681526020018060200185815260200184810384528b818151815260200191508051906020019080838360005b838110156126115781810151838201526020016125f9565b50505050905090810190601f16801561263e5780820380516001836020036101000a031916815260200191505b508481038352885460026000196101006001841615020190911604808252602090910190899080156126b15780601f10612686576101008083540402835291602001916126b1565b820191906000526020600020905b81548152906001019060200180831161269457829003601f168201915b5050848103825286518152865160209182019188019080838360005b838110156126e55781810151838201526020016126cd565b50505050905090810190601f1680156127125780820380516001836020036101000a031916815260200191505b509b50505050505050505050505060405180910390a25060019392505050565b60015460009061274457506000611700565b60008281526020819052604090206008015460018054849290811061276557fe5b906000526020600020906006020160000154149050919050565b60008181526002602090815260408083208381556001908101849055918390528220600460078201819055600890910154825460609493859392909181106127c357fe5b906000526020600020906006020160050181905550600160008086815260200190815260200160002060080154815481106127fa57fe5b600091825260209182902060026006909202018101805460408051601f6000196101006001861615020190931694909404918201859004850284018501905280835291929091908301828280156128925780601f1061286757610100808354040283529160200191612892565b820191906000526020600020905b81548152906001019060200180831161287557829003601f168201915b50505060008781526020818152604091829020600801548251908152915194955088947fcec3494a01493810b31d02909f4026a3beb9634e1d053e594bfeab6c5f7e2de7945091829003019150a29392505050565b60009081526020819052604090206002015490565b6000602081815291815260409081902080548251601f6002600019610100600186161502019093169290920491820185900485028101850190935280835290928391908301828280156129905780601f1061296557610100808354040283529160200191612990565b820191906000526020600020905b81548152906001019060200180831161297357829003601f168201915b505050505090806001015490806002015490806003015490806004018054600181600116156101000203166002900480601f016020809104026020016040519081016040528092919081815260200182805460018160011615610100020316600290048015612a405780601f10612a1557610100808354040283529160200191612a40565b820191906000526020600020905b815481529060010190602001808311612a2357829003601f168201915b50505050600583015460068401805460408051602060026001851615610100026000190190941693909304601f81018490048402820184019092528181529596939593945090830182828015612ad75780601f10612aac57610100808354040283529160200191612ad7565b820191906000526020600020905b815481529060010190602001808311612aba57829003601f168201915b5050505050908060070154908060080154905089565b6001545b90565b600060608060006060600060018781548110612b0c57fe5b90600052602060002090600602016000015460018881548110612b2b57fe5b906000526020600020906006020160010160018981548110612b4957fe5b906000526020600020906006020160020160018a81548110612b6757fe5b90600052602060002090600602016003015460018b81548110612b8657fe5b906000526020600020906006020160040160018c81548110612ba457fe5b600091825260209182902060056006909202010154855460408051601f600260001961010060018716150201909416939093049283018590048502810185019091528181529192879190830182828015612c3f5780601f10612c1457610100808354040283529160200191612c3f565b820191906000526020600020905b815481529060010190602001808311612c2257829003601f168201915b5050875460408051602060026001851615610100026000190190941693909304601f8101849004840282018401909252818152959a5089945092508401905082828015612ccd5780601f10612ca257610100808354040283529160200191612ccd565b820191906000526020600020905b815481529060010190602001808311612cb057829003601f168201915b5050855460408051602060026001851615610100026000190190941693909304601f810184900484028201840190925281815295995087945092508401905082828015612d5b5780601f10612d3057610100808354040283529160200191612d5b565b820191906000526020600020905b815481529060010190602001808311612d3e57829003601f168201915b5050505050915095509550955095509550955091939550919395565b600080836040516020018082805190602001908083835b60208310612dad5780518252601f199092019160209182019101612d8e565b6001836020036101000a038019825116818451168082178552505050505050905001915050604051602081830303815290604052805190602001209050612df381612732565b1515600114612e445760408051600160e51b62461bcd0281526020600482015260126024820152600160701b7175736572206e6f7420696e2073797374656d02604482015290519081900360640190fd5b6000818152602081815260409091208451612e67926004909201918601906131ad565b50600081815260208190526040902060080154600180548592908110612e8957fe5b90600052602060002090600602016002019080519060200190612ead9291906131ad565b508060008051602061327f8339815191526000808481526020019081526020016000206008015486600080868152602001908152602001600020600201546000808781526020019081526020016000206003015488600080898152602001908152602001600020600501546000808a81526020019081526020016000206006016000808b8152602001908152602001600020600701546040518089815260200180602001888152602001878152602001806020018681526020018060200185815260200184810384528b818151815260200191508051906020019080838360005b83811015612fa6578181015183820152602001612f8e565b50505050905090810190601f168015612fd35780820380516001836020036101000a031916815260200191505b5084810383528851815288516020918201918a019080838360005b83811015613006578181015183820152602001612fee565b50505050905090810190601f1680156130335780820380516001836020036101000a031916815260200191505b508481038252865460026000196101006001841615020190911604808252602090910190879080156123c15780601f10612396576101008083540402835291602001916123c1565b604080514260208083019190915244828401528251808303840181526060909201909252805191012090565b60006130b161322b565b8681526020808201878152604083018790526060830186905260808301859052600160a084018190528054808201808355600092909252845160069091027fb10e2d527612073b26eecdfd717e6a320cf44b4afac2b0732d9fcbe2b7fa0cf681019182559251805192948694929361314f937fb10e2d527612073b26eecdfd717e6a320cf44b4afac2b0732d9fcbe2b7fa0cf70192909101906131ad565b506040820151805161316b9160028401916020909101906131ad565b5060608201516003820155608082015180516131919160048401916020909101906131ad565b5060a08201518160050155505050600191505095945050505050565b828054600181600116156101000203166002900490600052602060002090601f016020900481019282601f106131ee57805160ff191683800117855561321b565b8280016001018555821561321b579182015b8281111561321b578251825591602001919060010190613200565b50613227929150613264565b5090565b6040518060c001604052806000801916815260200160608152602001606081526020016000815260200160608152602001600081525090565b612af191905b80821115613227576000815560010161326a56fe4517ce58cbae2880223bd8cb107789f39a8e2e3a7537d42071aee080b06a59eba165627a7a723058203a5b47bbcaa5bb4e13340131ed596bf5e19951cd3d8c51fdc7a867a7b52079d40029",
  "source": "pragma solidity >=0.4.21 <0.6.0;\r\n\r\ncontract ManagerContract {\r\n\r\n    struct Manager{\r\n        string email;\r\n        bytes32 emailCode;\r\n        bytes32 passwordCode;\r\n        bytes32 passwordRestToken;\r\n        string name;\r\n        uint contactNumber;\r\n        string userAddress;\r\n        uint userAccess;\r\n        uint index;\r\n    }\r\n\r\n    struct DisplayManager{\r\n        bytes32 emailCode;\r\n        string email;\r\n        string name;\r\n        uint contactNumber;\r\n        string userAddress;\r\n        uint userAccess;\r\n    }\r\n    \r\n    event LogNewManager(\r\n        bytes32 indexed emailCode,\r\n        uint index,string email,\r\n        bytes32 passwordCode,\r\n        bytes32 passwordRestToken,\r\n        string name,\r\n        uint contactNumber,\r\n        string userAddress,\r\n        uint userAccess\r\n        );\r\n    event LogUpdateManager(\r\n        bytes32 indexed emailCode,\r\n        uint index,string email,\r\n        bytes32 passwordCode,\r\n        bytes32 passwordRestToken,\r\n        string name,\r\n        uint contactNumber,\r\n        string userAddress,\r\n        uint userAccess\r\n        );\r\n    event LogDeleteManager(\r\n        bytes32 indexed emailcode,\r\n        uint index\r\n        );\r\n\r\n    struct RegistationToken{\r\n        bytes32 emailCode;\r\n        bytes32 token;\r\n    }\r\n\r\n    mapping(bytes32 => Manager) public managerArray;\r\n    DisplayManager[] private managerIndex;\r\n    mapping(bytes32 => RegistationToken) private managerRegistationToken;\r\n\r\n    function isManager(bytes32 _emailCode)public view returns(bool isIndeed) {\r\n        if(managerIndex.length == 0) return false;\r\n        return (managerIndex[managerArray[_emailCode].index].emailCode == _emailCode);\r\n    }\r\n    function createManagerToken(bytes32 _emailCode)public returns(bytes32){\r\n        bytes32 token = randomtoken();\r\n        if(managerRegistationToken[_emailCode].emailCode != _emailCode){\r\n            managerRegistationToken[_emailCode].emailCode = _emailCode;\r\n        }\r\n        managerRegistationToken[_emailCode].token = token;\r\n        return token;\r\n    }\r\n    function randomtoken() private view returns (bytes32) {\r\n       return keccak256(abi.encodePacked( block.timestamp, block.difficulty));\r\n    }\r\n    function setDisplayManager(bytes32 _emailCode,string memory _email,string memory _name,uint _telephone,string memory _address)\r\n     private returns(bool){\r\n\r\n        DisplayManager memory displayManager;\r\n        displayManager.emailCode = _emailCode;\r\n        displayManager.email = _email;\r\n        displayManager.name = _name;\r\n        displayManager.contactNumber = _telephone;\r\n        displayManager.userAddress = _address;\r\n        displayManager.userAccess = 1;\r\n        managerIndex.push(displayManager);\r\n        return true;\r\n\r\n    }\r\n    function insertManager(string memory _email,string memory _name,string memory _address,uint _telephone) public returns(bool){\r\n        bytes32 _emailCode = keccak256(abi.encodePacked((_email)));\r\n        bytes32 _passwordCode = keccak256(abi.encodePacked((\"a\")));\r\n        require(isManager(_emailCode) != true,'user allredy in system');\r\n\r\n        managerArray[_emailCode].email = _email;\r\n        managerArray[_emailCode].emailCode = _emailCode;\r\n        managerArray[_emailCode].passwordCode = _passwordCode;\r\n        managerArray[_emailCode].passwordRestToken = createManagerToken(_emailCode);\r\n        managerArray[_emailCode].name = _name;\r\n        managerArray[_emailCode].contactNumber = _telephone;\r\n        managerArray[_emailCode].userAddress = _address;\r\n        managerArray[_emailCode].userAccess = 1;\r\n        setDisplayManager(_emailCode,_email,_name,_telephone,_address);\r\n        managerArray[_emailCode].index = managerIndex.length-1;\r\n\r\n        emit LogNewManager (\r\n            _emailCode,\r\n            managerArray[_emailCode].index,\r\n            _email,\r\n            managerArray[_emailCode].passwordCode,\r\n            managerArray[_emailCode].passwordRestToken,\r\n            _name,\r\n            _telephone,\r\n            _address,\r\n            managerArray[_emailCode].userAccess\r\n            );\r\n        return true;\r\n    }\r\n    function deleteManager (bytes32 email) public returns(string memory){\r\n        uint i;\r\n        string memory name;\r\n        delete managerRegistationToken[email];\r\n        managerArray[email].userAccess = 4;\r\n        managerIndex[managerArray[email].index].userAccess = 4;\r\n        name = managerIndex[managerArray[email].index].name;\r\n        emit LogDeleteManager(\r\n            email,\r\n            managerArray[email].index\r\n        );\r\n        return name;\r\n    }\r\n    function blockManager(bytes32 email) public returns(string memory)\r\n    {\r\n        string memory name;\r\n        if(managerArray[email].userAccess == 5){\r\n        managerArray[email].userAccess = 3;\r\n        managerIndex[managerArray[email].index].userAccess = 3;\r\n        name = managerIndex[managerArray[email].index].name;\r\n        }\r\n        if(managerArray[email].userAccess == 3){\r\n        managerArray[email].userAccess = 5;\r\n        managerIndex[managerArray[email].index].userAccess = 5;\r\n        name = managerIndex[managerArray[email].index].name;\r\n        }\r\n        return name;\r\n    }\r\n    function editUserAccess(string memory _email,uint usreAccess)public returns(bool){\r\n        bytes32 email = keccak256(abi.encodePacked((_email)));\r\n        managerArray[email].userAccess = usreAccess;\r\n        managerIndex[managerArray[email].index].userAccess = usreAccess;\r\n        return true;\r\n\r\n    }\r\n    function getManager(string memory _email) public view returns(bytes32,string memory email,string memory name,\r\n    uint contactNumber,string memory userAddress, uint userAccess){\r\n        bytes32 _emailCode = keccak256(abi.encodePacked((_email)));\r\n        require(isManager(_emailCode) == true,'user not in system');\r\n        return(\r\n            _emailCode,\r\n            managerArray[_emailCode].email,\r\n            managerArray[_emailCode].name,\r\n            managerArray[_emailCode].contactNumber,\r\n            managerArray[_emailCode].userAddress,\r\n            managerArray[_emailCode].userAccess\r\n            );\r\n    }\r\n    function getManageri(uint i) public view returns(\r\n        bytes32,\r\n        string memory,\r\n        string memory,\r\n        uint,\r\n        string memory,\r\n        uint\r\n        ){\r\n            return (\r\n                managerIndex[i].emailCode,\r\n                managerIndex[i].email,\r\n                managerIndex[i].name,\r\n                managerIndex[i].contactNumber,\r\n                managerIndex[i].userAddress,\r\n                managerIndex[i].userAccess\r\n                );\r\n    }\r\n    function getManagerCount() public view returns(uint)\r\n    {\r\n        return managerIndex.length;\r\n    }\r\n    \r\n    // function updateUserEmail(address userAddress, bytes32 userEmail) public returns(bool success)\r\n    // {\r\n    //     userStructs[userAddress].userEmail = userEmail;\r\n    //     emit LogUpdateUser(userAddress,  userStructs[userAddress].index, userEmail, userStructs[userAddress].userAge);\r\n    //     return true;\r\n    // }\r\n    function updateManagerName (string memory _email,string memory _name) public returns(bool success){\r\n        bytes32 _emailCode = keccak256(abi.encodePacked((_email)));\r\n        require(isManager(_emailCode) == true,'user not in system');\r\n        managerArray[_emailCode].name = _name;\r\n        managerIndex[managerArray[_emailCode].index].name = _name;\r\n        emit LogUpdateManager(\r\n            _emailCode,\r\n            managerArray[_emailCode].index,\r\n            _email,\r\n            managerArray[_emailCode].passwordCode,\r\n            managerArray[_emailCode].passwordRestToken,\r\n            _name,\r\n            managerArray[_emailCode].contactNumber,\r\n            managerArray[_emailCode].userAddress,\r\n            managerArray[_emailCode].userAccess\r\n            );\r\n        return true;\r\n    }\r\n    function updateManagerAddress (string memory _email,string memory _userAddress) public returns(bool success){\r\n        bytes32 _emailCode = keccak256(abi.encodePacked((_email)));\r\n        require(isManager(_emailCode) == true,'user not in system');\r\n        managerArray[_emailCode].userAddress = _userAddress;\r\n        managerIndex[managerArray[_emailCode].index].userAddress = _userAddress;\r\n        emit LogUpdateManager(\r\n            _emailCode,\r\n            managerArray[_emailCode].index,\r\n            _email,\r\n            managerArray[_emailCode].passwordCode,\r\n            managerArray[_emailCode].passwordRestToken,\r\n            managerArray[_emailCode].name,\r\n            managerArray[_emailCode].contactNumber,\r\n            _userAddress,\r\n            managerArray[_emailCode].userAccess\r\n            );\r\n        return true;\r\n    }\r\n    function updateManagerContactNumber (string memory _email,uint _contactNumber) public returns(bool success){\r\n        bytes32 _emailCode = keccak256(abi.encodePacked((_email)));\r\n        require(isManager(_emailCode) == true,'user not in system');\r\n        managerArray[_emailCode].contactNumber = _contactNumber;\r\n        managerIndex[managerArray[_emailCode].index].contactNumber = _contactNumber;\r\n        emit LogUpdateManager(\r\n            _emailCode,\r\n            managerArray[_emailCode].index,\r\n            _email,\r\n            managerArray[_emailCode].passwordCode,\r\n            managerArray[_emailCode].passwordRestToken,\r\n            managerArray[_emailCode].name,\r\n            _contactNumber,\r\n            managerArray[_emailCode].userAddress,\r\n            managerArray[_emailCode].userAccess\r\n            );\r\n        return true;\r\n    }\r\n    function updateManager(\r\n        string memory _email,\r\n        uint[] memory index,\r\n        string memory _name,\r\n        string memory _userAddress,\r\n        uint _contactNumber\r\n        ) public returns(bool success){\r\n        bytes32 _emailCode = keccak256(abi.encodePacked((_email)));\r\n        require(isManager(_emailCode) == true,'user not in system');\r\n        uint i;\r\n        uint num = managerArray[_emailCode].index;\r\n\r\n        for (i = 0;i<index.length;i++){\r\n            if(index[i]==1){\r\n                managerArray[_emailCode].name = _name;\r\n                managerIndex[num].name = _name;\r\n                emit LogUpdateManager(\r\n                    _emailCode,\r\n                    managerArray[_emailCode].index,\r\n                    _email,managerArray[_emailCode].passwordCode,\r\n                    managerArray[_emailCode].passwordRestToken,\r\n                    _name,\r\n                    managerArray[_emailCode].contactNumber,\r\n                    managerArray[_emailCode].userAddress,\r\n                    managerArray[_emailCode].userAccess\r\n                    );\r\n\r\n            }\r\n            else if(index[i]==2){\r\n                managerArray[_emailCode].userAddress = _userAddress;\r\n\r\n                managerIndex[num].userAddress = _userAddress;\r\n\r\n                emit LogUpdateManager(\r\n                    _emailCode,\r\n                    managerArray[_emailCode].index,\r\n                    _email,\r\n                    managerArray[_emailCode].passwordCode,\r\n                    managerArray[_emailCode].passwordRestToken,\r\n                    managerArray[_emailCode].name,\r\n                    managerArray[_emailCode].contactNumber,\r\n                    _userAddress,\r\n                    managerArray[_emailCode].userAccess\r\n                    );\r\n\r\n            }\r\n            else if(index[i]==3){\r\n                managerArray[_emailCode].contactNumber = _contactNumber;\r\n                managerIndex[num].contactNumber = _contactNumber;\r\n                emit LogUpdateManager(\r\n                    _emailCode,\r\n                    managerArray[_emailCode].index,\r\n                    _email,\r\n                    managerArray[_emailCode].passwordCode,\r\n                    managerArray[_emailCode].passwordRestToken,\r\n                    managerArray[_emailCode].name,\r\n                    _contactNumber,\r\n                    managerArray[_emailCode].userAddress,\r\n                    managerArray[_emailCode].userAccess\r\n                    );\r\n\r\n            }\r\n        }\r\n        return true;\r\n    }\r\n    ///////\r\n    function updateManageriEmail (string memory _email) public returns(bool success)\r\n    {\r\n       // return true;\r\n    }\r\n    function checkManagerUserAccess(bytes32 email)public view returns(uint userAccess){\r\n        \r\n        return managerArray[email].userAccess;\r\n    }\r\n    function checkManagerPasswordCode(bytes32 email) public view returns(bytes32 passwordCode ){\r\n        return managerArray[email].passwordCode;\r\n    }\r\n}",
  "sourcePath": "C:\\project\\tea supply chain mangement system\\test2\\contracts\\Manager.sol",
  "compiler": {
    "name": "solc",
    "version": "0.5.8+commit.23d335f2.Emscripten.clang"
  },
  "schemaVersion": "3.0.16",
  "updatedAt": "2020-01-11T17:15:52.299Z",
  "devdoc": {
    "methods": {}
  },
  "userdoc": {
    "methods": {
      "updateManageriEmail(string)": {
        "notice": "////"
      }
    }
  }
}