{
  "contractName": "ManagerContract",
  "abi": [
    {
      "constant": true,
      "inputs": [
        {
          "name": "",
          "type": "bytes32"
        }
      ],
      "name": "managerArray",
      "outputs": [
        {
          "name": "email",
          "type": "string"
        },
        {
          "name": "emailCode",
          "type": "bytes32"
        },
        {
          "name": "passwordCode",
          "type": "bytes32"
        },
        {
          "name": "passwordRestToken",
          "type": "bytes32"
        },
        {
          "name": "name",
          "type": "string"
        },
        {
          "name": "contactNumber",
          "type": "uint256"
        },
        {
          "name": "userAddress",
          "type": "string"
        },
        {
          "name": "userAccess",
          "type": "uint256"
        },
        {
          "name": "index",
          "type": "uint256"
        }
      ],
      "payable": false,
      "stateMutability": "view",
      "type": "function"
    },
    {
      "anonymous": false,
      "inputs": [
        {
          "indexed": true,
          "name": "emailCode",
          "type": "bytes32"
        },
        {
          "indexed": false,
          "name": "index",
          "type": "uint256"
        },
        {
          "indexed": false,
          "name": "email",
          "type": "string"
        },
        {
          "indexed": false,
          "name": "passwordCode",
          "type": "bytes32"
        },
        {
          "indexed": false,
          "name": "passwordRestToken",
          "type": "bytes32"
        },
        {
          "indexed": false,
          "name": "name",
          "type": "string"
        },
        {
          "indexed": false,
          "name": "contactNumber",
          "type": "uint256"
        },
        {
          "indexed": false,
          "name": "userAddress",
          "type": "string"
        },
        {
          "indexed": false,
          "name": "userAccess",
          "type": "uint256"
        }
      ],
      "name": "LogNewManager",
      "type": "event"
    },
    {
      "anonymous": false,
      "inputs": [
        {
          "indexed": true,
          "name": "emailCode",
          "type": "bytes32"
        },
        {
          "indexed": false,
          "name": "index",
          "type": "uint256"
        },
        {
          "indexed": false,
          "name": "email",
          "type": "string"
        },
        {
          "indexed": false,
          "name": "passwordCode",
          "type": "bytes32"
        },
        {
          "indexed": false,
          "name": "passwordRestToken",
          "type": "bytes32"
        },
        {
          "indexed": false,
          "name": "name",
          "type": "string"
        },
        {
          "indexed": false,
          "name": "contactNumber",
          "type": "uint256"
        },
        {
          "indexed": false,
          "name": "userAddress",
          "type": "string"
        },
        {
          "indexed": false,
          "name": "userAccess",
          "type": "uint256"
        }
      ],
      "name": "LogUpdateManager",
      "type": "event"
    },
    {
      "anonymous": false,
      "inputs": [
        {
          "indexed": true,
          "name": "emailcode",
          "type": "bytes32"
        },
        {
          "indexed": false,
          "name": "index",
          "type": "uint256"
        }
      ],
      "name": "LogDeleteManager",
      "type": "event"
    },
    {
      "constant": true,
      "inputs": [
        {
          "name": "_emailCode",
          "type": "bytes32"
        }
      ],
      "name": "isManager",
      "outputs": [
        {
          "name": "isIndeed",
          "type": "bool"
        }
      ],
      "payable": false,
      "stateMutability": "view",
      "type": "function"
    },
    {
      "constant": false,
      "inputs": [
        {
          "name": "_email",
          "type": "string"
        },
        {
          "name": "_name",
          "type": "string"
        },
        {
          "name": "_address",
          "type": "string"
        },
        {
          "name": "_telephone",
          "type": "uint256"
        }
      ],
      "name": "insertManager",
      "outputs": [
        {
          "name": "",
          "type": "bool"
        }
      ],
      "payable": false,
      "stateMutability": "nonpayable",
      "type": "function"
    },
    {
      "constant": false,
      "inputs": [
        {
          "name": "email",
          "type": "bytes32"
        }
      ],
      "name": "deleteManager",
      "outputs": [
        {
          "name": "",
          "type": "string"
        }
      ],
      "payable": false,
      "stateMutability": "nonpayable",
      "type": "function"
    },
    {
      "constant": false,
      "inputs": [
        {
          "name": "email",
          "type": "bytes32"
        }
      ],
      "name": "blockManager",
      "outputs": [
        {
          "name": "",
          "type": "string"
        }
      ],
      "payable": false,
      "stateMutability": "nonpayable",
      "type": "function"
    },
    {
      "constant": false,
      "inputs": [
        {
          "name": "_email",
          "type": "string"
        },
        {
          "name": "usreAccess",
          "type": "uint256"
        }
      ],
      "name": "editUserAccess",
      "outputs": [
        {
          "name": "",
          "type": "bool"
        }
      ],
      "payable": false,
      "stateMutability": "nonpayable",
      "type": "function"
    },
    {
      "constant": true,
      "inputs": [
        {
          "name": "_email",
          "type": "string"
        }
      ],
      "name": "getManager",
      "outputs": [
        {
          "name": "",
          "type": "bytes32"
        },
        {
          "name": "email",
          "type": "string"
        },
        {
          "name": "name",
          "type": "string"
        },
        {
          "name": "contactNumber",
          "type": "uint256"
        },
        {
          "name": "userAddress",
          "type": "string"
        },
        {
          "name": "userAccess",
          "type": "uint256"
        }
      ],
      "payable": false,
      "stateMutability": "view",
      "type": "function"
    },
    {
      "constant": true,
      "inputs": [
        {
          "name": "i",
          "type": "uint256"
        }
      ],
      "name": "getManageri",
      "outputs": [
        {
          "name": "",
          "type": "bytes32"
        },
        {
          "name": "",
          "type": "string"
        },
        {
          "name": "",
          "type": "string"
        },
        {
          "name": "",
          "type": "uint256"
        },
        {
          "name": "",
          "type": "string"
        },
        {
          "name": "",
          "type": "uint256"
        }
      ],
      "payable": false,
      "stateMutability": "view",
      "type": "function"
    },
    {
      "constant": true,
      "inputs": [],
      "name": "getManagerCount",
      "outputs": [
        {
          "name": "",
          "type": "uint256"
        }
      ],
      "payable": false,
      "stateMutability": "view",
      "type": "function"
    },
    {
      "constant": false,
      "inputs": [
        {
          "name": "_email",
          "type": "string"
        },
        {
          "name": "_name",
          "type": "string"
        }
      ],
      "name": "updateManagerName",
      "outputs": [
        {
          "name": "success",
          "type": "bool"
        }
      ],
      "payable": false,
      "stateMutability": "nonpayable",
      "type": "function"
    },
    {
      "constant": false,
      "inputs": [
        {
          "name": "_email",
          "type": "string"
        },
        {
          "name": "_userAddress",
          "type": "string"
        }
      ],
      "name": "updateManagerAddress",
      "outputs": [
        {
          "name": "success",
          "type": "bool"
        }
      ],
      "payable": false,
      "stateMutability": "nonpayable",
      "type": "function"
    },
    {
      "constant": false,
      "inputs": [
        {
          "name": "_email",
          "type": "string"
        },
        {
          "name": "_contactNumber",
          "type": "uint256"
        }
      ],
      "name": "updateManagerContactNumber",
      "outputs": [
        {
          "name": "success",
          "type": "bool"
        }
      ],
      "payable": false,
      "stateMutability": "nonpayable",
      "type": "function"
    },
    {
      "constant": false,
      "inputs": [
        {
          "name": "_email",
          "type": "string"
        },
        {
          "name": "index",
          "type": "uint256[]"
        },
        {
          "name": "_name",
          "type": "string"
        },
        {
          "name": "_userAddress",
          "type": "string"
        },
        {
          "name": "_contactNumber",
          "type": "uint256"
        }
      ],
      "name": "updateManager",
      "outputs": [
        {
          "name": "success",
          "type": "bool"
        }
      ],
      "payable": false,
      "stateMutability": "nonpayable",
      "type": "function"
    },
    {
      "constant": false,
      "inputs": [
        {
          "name": "_email",
          "type": "string"
        }
      ],
      "name": "updateManageriEmail",
      "outputs": [
        {
          "name": "success",
          "type": "bool"
        }
      ],
      "payable": false,
      "stateMutability": "nonpayable",
      "type": "function"
    },
    {
      "constant": true,
      "inputs": [
        {
          "name": "email",
          "type": "bytes32"
        }
      ],
      "name": "checkManagerUserAccess",
      "outputs": [
        {
          "name": "userAccess",
          "type": "uint256"
        }
      ],
      "payable": false,
      "stateMutability": "view",
      "type": "function"
    },
    {
      "constant": true,
      "inputs": [
        {
          "name": "email",
          "type": "bytes32"
        }
      ],
      "name": "checkManagerPasswordCode",
      "outputs": [
        {
          "name": "passwordCode",
          "type": "bytes32"
        }
      ],
      "payable": false,
      "stateMutability": "view",
      "type": "function"
    }
  ],
  "bytecode": "0x608060405234801561001057600080fd5b5061340b806100206000396000f3fe608060405234801561001057600080fd5b50600436106101005760003560e01c80639d7450ab11610097578063b5bd215811610066578063b5bd215814610b29578063cf92838414610cb4578063f9fcecd714610cbc578063ff79fd9914610cd957610100565b80639d7450ab146109a9578063a952fab314610ad2578063acc29ad214610aef578063ae040fea14610b0c57610100565b8063431c0fc0116100d3578063431c0fc01461061b57806365851668146106ad5780636609b7cc1461085d57806392eedbab1461090357610100565b8063044d58d6146101055780631ee441e91461034b57806323d4426414610548578063329310ee14610577575b600080fd5b610337600480360360a081101561011b57600080fd5b810190602081018135600160201b81111561013557600080fd5b82018360208201111561014757600080fd5b803590602001918460018302840111600160201b8311171561016857600080fd5b91908080601f0160208091040260200160405190810160405280939291908181526020018383808284376000920191909152509295949360208101935035915050600160201b8111156101ba57600080fd5b8201836020820111156101cc57600080fd5b803590602001918460208302840111600160201b831117156101ed57600080fd5b9190808060200260200160405190810160405280939291908181526020018383602002808284376000920191909152509295949360208101935035915050600160201b81111561023c57600080fd5b82018360208201111561024e57600080fd5b803590602001918460018302840111600160201b8311171561026f57600080fd5b91908080601f0160208091040260200160405190810160405280939291908181526020018383808284376000920191909152509295949360208101935035915050600160201b8111156102c157600080fd5b8201836020820111156102d357600080fd5b803590602001918460018302840111600160201b831117156102f457600080fd5b91908080601f0160208091040260200160405190810160405280939291908181526020018383808284376000920191909152509295505091359250610e02915050565b604080519115158252519081900360200190f35b6103ef6004803603602081101561036157600080fd5b810190602081018135600160201b81111561037b57600080fd5b82018360208201111561038d57600080fd5b803590602001918460018302840111600160201b831117156103ae57600080fd5b91908080601f01602080910402602001604051908101604052809392919081815260200183838082843760009201919091525092955061168c945050505050565b60405180878152602001806020018060200186815260200180602001858152602001848103845289818151815260200191508051906020019080838360005b8381101561044657818101518382015260200161042e565b50505050905090810190601f1680156104735780820380516001836020036101000a031916815260200191505b5084810383528851815288516020918201918a019080838360005b838110156104a657818101518382015260200161048e565b50505050905090810190601f1680156104d35780820380516001836020036101000a031916815260200191505b50848103825286518152865160209182019188019080838360005b838110156105065781810151838201526020016104ee565b50505050905090810190601f1680156105335780820380516001836020036101000a031916815260200191505b50995050505050505050505060405180910390f35b6105656004803603602081101561055e57600080fd5b5035611946565b60408051918252519081900360200190f35b6103376004803603602081101561058d57600080fd5b810190602081018135600160201b8111156105a757600080fd5b8201836020820111156105b957600080fd5b803590602001918460018302840111600160201b831117156105da57600080fd5b91908080601f01602080910402602001604051908101604052809392919081815260200183838082843760009201919091525092955061195e945050505050565b6106386004803603602081101561063157600080fd5b5035611964565b6040805160208082528351818301528351919283929083019185019080838360005b8381101561067257818101518382015260200161065a565b50505050905090810190601f16801561069f5780820380516001836020036101000a031916815260200191505b509250505060405180910390f35b610337600480360360808110156106c357600080fd5b810190602081018135600160201b8111156106dd57600080fd5b8201836020820111156106ef57600080fd5b803590602001918460018302840111600160201b8311171561071057600080fd5b91908080601f0160208091040260200160405190810160405280939291908181526020018383808284376000920191909152509295949360208101935035915050600160201b81111561076257600080fd5b82018360208201111561077457600080fd5b803590602001918460018302840111600160201b8311171561079557600080fd5b91908080601f0160208091040260200160405190810160405280939291908181526020018383808284376000920191909152509295949360208101935035915050600160201b8111156107e757600080fd5b8201836020820111156107f957600080fd5b803590602001918460018302840111600160201b8311171561081a57600080fd5b91908080601f0160208091040260200160405190810160405280939291908181526020018383808284376000920191909152509295505091359250611ba9915050565b6103376004803603604081101561087357600080fd5b810190602081018135600160201b81111561088d57600080fd5b82018360208201111561089f57600080fd5b803590602001918460018302840111600160201b831117156108c057600080fd5b91908080601f0160208091040260200160405190810160405280939291908181526020018383808284376000920191909152509295505091359250611f7e915050565b6103376004803603604081101561091957600080fd5b810190602081018135600160201b81111561093357600080fd5b82018360208201111561094557600080fd5b803590602001918460018302840111600160201b8311171561096657600080fd5b91908080601f0160208091040260200160405190810160405280939291908181526020018383808284376000920191909152509295505091359250612036915050565b610337600480360360408110156109bf57600080fd5b810190602081018135600160201b8111156109d957600080fd5b8201836020820111156109eb57600080fd5b803590602001918460018302840111600160201b83111715610a0c57600080fd5b91908080601f0160208091040260200160405190810160405280939291908181526020018383808284376000920191909152509295949360208101935035915050600160201b811115610a5e57600080fd5b820183602082011115610a7057600080fd5b803590602001918460018302840111600160201b83111715610a9157600080fd5b91908080601f01602080910402602001604051908101604052809392919081815260200183838082843760009201919091525092955061236c945050505050565b61033760048036036020811015610ae857600080fd5b50356126bc565b61063860048036036020811015610b0557600080fd5b5035612709565b61056560048036036020811015610b2257600080fd5b503561293a565b610b4660048036036020811015610b3f57600080fd5b503561294f565b60405180806020018a8152602001898152602001888152602001806020018781526020018060200186815260200185815260200184810384528d818151815260200191508051906020019080838360005b83811015610baf578181015183820152602001610b97565b50505050905090810190601f168015610bdc5780820380516001836020036101000a031916815260200191505b5084810383528951815289516020918201918b019080838360005b83811015610c0f578181015183820152602001610bf7565b50505050905090810190601f168015610c3c5780820380516001836020036101000a031916815260200191505b50848103825287518152875160209182019189019080838360005b83811015610c6f578181015183820152602001610c57565b50505050905090810190601f168015610c9c5780820380516001836020036101000a031916815260200191505b509c5050505050505050505050505060405180910390f35b610565612b40565b6103ef60048036036020811015610cd257600080fd5b5035612b47565b61033760048036036040811015610cef57600080fd5b810190602081018135600160201b811115610d0957600080fd5b820183602082011115610d1b57600080fd5b803590602001918460018302840111600160201b83111715610d3c57600080fd5b91908080601f0160208091040260200160405190810160405280939291908181526020018383808284376000920191909152509295949360208101935035915050600160201b811115610d8e57600080fd5b820183602082011115610da057600080fd5b803590602001918460018302840111600160201b83111715610dc157600080fd5b91908080601f016020809104026020016040519081016040528093929190818152602001838380828437600092019190915250929550612dca945050505050565b600080866040516020018082805190602001908083835b60208310610e385780518252601f199092019160209182019101610e19565b6001836020036101000a038019825116818451168082178552505050505050905001915050604051602081830303815290604052805190602001209050610e7e816126bc565b1515600114610ecf5760408051600160e51b62461bcd0281526020600482015260126024820152600160701b7175736572206e6f7420696e2073797374656d02604482015290519081900360640190fd5b6000818152602081905260408120600801545b875182101561167d57878281518110610ef757fe5b602002602001015160011415611172576000838152602081815260409091208851610f2a926004909201918a0190613286565b508660018281548110610f3957fe5b90600052602060002090600602016002019080519060200190610f5d929190613286565b50826000805160206133c0833981519152600080868152602001908152602001600020600801548b60008088815260200190815260200160002060020154600080898152602001908152602001600020600301548c6000808b8152602001908152602001600020600501546000808c81526020019081526020016000206006016000808d8152602001908152602001600020600701546040518089815260200180602001888152602001878152602001806020018681526020018060200185815260200184810384528b818151815260200191508051906020019080838360005b8381101561105657818101518382015260200161103e565b50505050905090810190601f1680156110835780820380516001836020036101000a031916815260200191505b5084810383528851815288516020918201918a019080838360005b838110156110b657818101518382015260200161109e565b50505050905090810190601f1680156110e35780820380516001836020036101000a031916815260200191505b508481038252865460026000196101006001841615020190911604808252602090910190879080156111565780601f1061112b57610100808354040283529160200191611156565b820191906000526020600020905b81548152906001019060200180831161113957829003601f168201915b50509b50505050505050505050505060405180910390a2611672565b87828151811061117e57fe5b6020026020010151600214156113f95760008381526020818152604090912087516111b192600690920191890190613286565b5085600182815481106111c057fe5b906000526020600020906006020160040190805190602001906111e4929190613286565b50826000805160206133c0833981519152600080868152602001908152602001600020600801548b60008088815260200190815260200160002060020154600080898152602001908152602001600020600301546000808a81526020019081526020016000206004016000808b8152602001908152602001600020600501548d6000808d8152602001908152602001600020600701546040518089815260200180602001888152602001878152602001806020018681526020018060200185815260200184810384528b818151815260200191508051906020019080838360005b838110156112dd5781810151838201526020016112c5565b50505050905090810190601f16801561130a5780820380516001836020036101000a031916815260200191505b5084810383528854600260001961010060018416150201909116048082526020909101908990801561137d5780601f106113525761010080835404028352916020019161137d565b820191906000526020600020905b81548152906001019060200180831161136057829003601f168201915b5050848103825286518152865160209182019188019080838360005b838110156113b1578181015183820152602001611399565b50505050905090810190601f1680156113de5780820380516001836020036101000a031916815260200191505b509b50505050505050505050505060405180910390a2611672565b87828151811061140557fe5b602002602001015160031415611672576000838152602081905260409020600501859055600180548691908390811061143a57fe5b906000526020600020906006020160030181905550826000805160206133c0833981519152600080868152602001908152602001600020600801548b60008088815260200190815260200160002060020154600080898152602001908152602001600020600301546000808a81526020019081526020016000206004018b6000808c81526020019081526020016000206006016000808d8152602001908152602001600020600701546040518089815260200180602001888152602001878152602001806020018681526020018060200185815260200184810384528b818151815260200191508051906020019080838360005b8381101561154657818101518382015260200161152e565b50505050905090810190601f1680156115735780820380516001836020036101000a031916815260200191505b508481038352885460026000196101006001841615020190911604808252602090910190899080156115e65780601f106115bb576101008083540402835291602001916115e6565b820191906000526020600020905b8154815290600101906020018083116115c957829003601f168201915b505084810382528654600260001961010060018416150201909116048082526020909101908790801561165a5780601f1061162f5761010080835404028352916020019161165a565b820191906000526020600020905b81548152906001019060200180831161163d57829003601f168201915b50509b50505050505050505050505060405180910390a25b600190910190610ee2565b50600198975050505050505050565b600060608060006060600080876040516020018082805190602001908083835b602083106116cb5780518252601f1990920191602091820191016116ac565b6001836020036101000a038019825116818451168082178552505050505050905001915050604051602081830303815290604052805190602001209050611711816126bc565b15156001146117625760408051600160e51b62461bcd0281526020600482015260126024820152600160701b7175736572206e6f7420696e2073797374656d02604482015290519081900360640190fd5b60008181526020818152604091829020600581015460078201548254855160026001831615610100026000190190921691909104601f81018690048602820186019096528581528695939460048601946006870193929187919083018282801561180d5780601f106117e25761010080835404028352916020019161180d565b820191906000526020600020905b8154815290600101906020018083116117f057829003601f168201915b5050875460408051602060026001851615610100026000190190941693909304601f8101849004840282018401909252818152959a508994509250840190508282801561189b5780601f106118705761010080835404028352916020019161189b565b820191906000526020600020905b81548152906001019060200180831161187e57829003601f168201915b5050855460408051602060026001851615610100026000190190941693909304601f8101849004840282018401909252818152959950879450925084019050828280156119295780601f106118fe57610100808354040283529160200191611929565b820191906000526020600020905b81548152906001019060200180831161190c57829003601f168201915b505050505091509650965096509650965096505091939550919395565b6000818152602081905260409020600701545b919050565b50600090565b600081815260208190526040902060070154606090819060051415611a865760008381526020819052604090206003600782018190556008909101546001805490919081106119af57fe5b906000526020600020906006020160050181905550600160008085815260200190815260200160002060080154815481106119e657fe5b600091825260209182902060026006909202018101805460408051601f600019610100600186161502019093169490940491820185900485028401850190528083529192909190830182828015611a7e5780601f10611a5357610100808354040283529160200191611a7e565b820191906000526020600020905b815481529060010190602001808311611a6157829003601f168201915b505050505090505b60008381526020819052604090206007015460031415611ba3576000838152602081905260409020600560078201819055600890910154600180549091908110611acc57fe5b90600052602060002090600602016005018190555060016000808581526020019081526020016000206008015481548110611b0357fe5b600091825260209182902060026006909202018101805460408051601f600019610100600186161502019093169490940491820185900485028401850190528083529192909190830182828015611b9b5780601f10611b7057610100808354040283529160200191611b9b565b820191906000526020600020905b815481529060010190602001808311611b7e57829003601f168201915b505050505090505b92915050565b600080856040516020018082805190602001908083835b60208310611bdf5780518252601f199092019160209182019101611bc0565b6001836020036101000a03801982511681845116808217855250505050505090500191505060405160208183030381529060405280519060200120905060006040516020018080600160f81b6061028152506001019050604051602081830303815290604052805190602001209050611c57826126bc565b151560011415611cb15760408051600160e51b62461bcd02815260206004820152601660248201527f7573657220616c6c7265647920696e2073797374656d00000000000000000000604482015290519081900360640190fd5b6000828152602081815260409091208851611cce928a0190613286565b50600082815260208190526040902060018101839055600201819055611cf3826130ce565b60008381526020818152604090912060038101929092558751611d1c9260040191890190613286565b50600082815260208181526040909120600581018690558651611d4792600690920191880190613286565b5060008281526020819052604090206001600790910155611d6b8288888789613154565b50600180805490500360008084815260200190815260200160002060080181905550817f451df1d5e8e769a5e36f6aebe6f662d78a422bb5163a3076e0f40f305c45000d600080858152602001908152602001600020600801548960008087815260200190815260200160002060020154600080888152602001908152602001600020600301548b8a8c6000808c8152602001908152602001600020600701546040518089815260200180602001888152602001878152602001806020018681526020018060200185815260200184810384528b818151815260200191508051906020019080838360005b83811015611e6e578181015183820152602001611e56565b50505050905090810190601f168015611e9b5780820380516001836020036101000a031916815260200191505b5084810383528851815288516020918201918a019080838360005b83811015611ece578181015183820152602001611eb6565b50505050905090810190601f168015611efb5780820380516001836020036101000a031916815260200191505b50848103825286518152865160209182019188019080838360005b83811015611f2e578181015183820152602001611f16565b50505050905090810190601f168015611f5b5780820380516001836020036101000a031916815260200191505b509b50505050505050505050505060405180910390a25060019695505050505050565b600080836040516020018082805190602001908083835b60208310611fb45780518252601f199092019160209182019101611f95565b51815160209384036101000a60001901801990921691161790526040805192909401828103601f1901835284528151918101919091206000818152918290529290206007810188905560080154600180549396508895509350918210905061201857fe5b60009182526020909120600560069092020101555060019392505050565b600080836040516020018082805190602001908083835b6020831061206c5780518252601f19909201916020918201910161204d565b6001836020036101000a0380198251168184511680821785525050505050509050019150506040516020818303038152906040528051906020012090506120b2816126bc565b15156001146121035760408051600160e51b62461bcd0281526020600482015260126024820152600160701b7175736572206e6f7420696e2073797374656d02604482015290519081900360640190fd5b6000818152602081905260409020600581018490556008015460018054859290811061212b57fe5b906000526020600020906006020160030181905550806000805160206133c083398151915260008084815260200190815260200160002060080154866000808681526020019081526020016000206002015460008087815260200190815260200160002060030154600080888152602001908152602001600020600401896000808a81526020019081526020016000206006016000808b8152602001908152602001600020600701546040518089815260200180602001888152602001878152602001806020018681526020018060200185815260200184810384528b818151815260200191508051906020019080838360005b8381101561223757818101518382015260200161221f565b50505050905090810190601f1680156122645780820380516001836020036101000a031916815260200191505b508481038352885460026000196101006001841615020190911604808252602090910190899080156122d75780601f106122ac576101008083540402835291602001916122d7565b820191906000526020600020905b8154815290600101906020018083116122ba57829003601f168201915b505084810382528654600260001961010060018416150201909116048082526020909101908790801561234b5780601f106123205761010080835404028352916020019161234b565b820191906000526020600020905b81548152906001019060200180831161232e57829003601f168201915b50509b50505050505050505050505060405180910390a25060019392505050565b600080836040516020018082805190602001908083835b602083106123a25780518252601f199092019160209182019101612383565b6001836020036101000a0380198251168184511680821785525050505050509050019150506040516020818303038152906040528051906020012090506123e8816126bc565b15156001146124395760408051600160e51b62461bcd0281526020600482015260126024820152600160701b7175736572206e6f7420696e2073797374656d02604482015290519081900360640190fd5b600081815260208181526040909120845161245c92600690920191860190613286565b5060008181526020819052604090206008015460018054859290811061247e57fe5b906000526020600020906006020160040190805190602001906124a2929190613286565b50806000805160206133c083398151915260008084815260200190815260200160002060080154866000808681526020019081526020016000206002015460008087815260200190815260200160002060030154600080888152602001908152602001600020600401600080898152602001908152602001600020600501548a6000808b8152602001908152602001600020600701546040518089815260200180602001888152602001878152602001806020018681526020018060200185815260200184810384528b818151815260200191508051906020019080838360005b8381101561259b578181015183820152602001612583565b50505050905090810190601f1680156125c85780820380516001836020036101000a031916815260200191505b5084810383528854600260001961010060018416150201909116048082526020909101908990801561263b5780601f106126105761010080835404028352916020019161263b565b820191906000526020600020905b81548152906001019060200180831161261e57829003601f168201915b5050848103825286518152865160209182019188019080838360005b8381101561266f578181015183820152602001612657565b50505050905090810190601f16801561269c5780820380516001836020036101000a031916815260200191505b509b50505050505050505050505060405180910390a25060019392505050565b6001546000906126ce57506000611959565b6000828152602081905260409020600801546001805484929081106126ef57fe5b906000526020600020906006020160000154149050919050565b60606000815b6002548210156127ea57836002838154811061272757fe5b90600052602060002090600202016000015414156127df5760028054600019810190811061275157fe5b9060005260206000209060020201600001546002838154811061277057fe5b60009182526020909120600291820201919091558054600019810190811061279457fe5b906000526020600020906002020160010154600283815481106127b357fe5b90600052602060002090600202016001018190555060028054809190600190036127dd9190613304565b505b60019091019061270f565b600084815260208190526040902060046007820181905560089091015460018054909190811061281657fe5b9060005260206000209060060201600501819055506001600080868152602001908152602001600020600801548154811061284d57fe5b600091825260209182902060026006909202018101805460408051601f6000196101006001861615020190931694909404918201859004850284018501905280835291929091908301828280156128e55780601f106128ba576101008083540402835291602001916128e5565b820191906000526020600020905b8154815290600101906020018083116128c857829003601f168201915b50505060008781526020818152604091829020600801548251908152915194955088947fcec3494a01493810b31d02909f4026a3beb9634e1d053e594bfeab6c5f7e2de7945091829003019150a29392505050565b60009081526020819052604090206002015490565b6000602081815291815260409081902080548251601f6002600019610100600186161502019093169290920491820185900485028101850190935280835290928391908301828280156129e35780601f106129b8576101008083540402835291602001916129e3565b820191906000526020600020905b8154815290600101906020018083116129c657829003601f168201915b505050505090806001015490806002015490806003015490806004018054600181600116156101000203166002900480601f016020809104026020016040519081016040528092919081815260200182805460018160011615610100020316600290048015612a935780601f10612a6857610100808354040283529160200191612a93565b820191906000526020600020905b815481529060010190602001808311612a7657829003601f168201915b50505050600583015460068401805460408051602060026001851615610100026000190190941693909304601f81018490048402820184019092528181529596939593945090830182828015612b2a5780601f10612aff57610100808354040283529160200191612b2a565b820191906000526020600020905b815481529060010190602001808311612b0d57829003601f168201915b5050505050908060070154908060080154905089565b6001545b90565b600060608060006060600060018781548110612b5f57fe5b90600052602060002090600602016000015460018881548110612b7e57fe5b906000526020600020906006020160010160018981548110612b9c57fe5b906000526020600020906006020160020160018a81548110612bba57fe5b90600052602060002090600602016003015460018b81548110612bd957fe5b906000526020600020906006020160040160018c81548110612bf757fe5b600091825260209182902060056006909202010154855460408051601f600260001961010060018716150201909416939093049283018590048502810185019091528181529192879190830182828015612c925780601f10612c6757610100808354040283529160200191612c92565b820191906000526020600020905b815481529060010190602001808311612c7557829003601f168201915b5050875460408051602060026001851615610100026000190190941693909304601f8101849004840282018401909252818152959a5089945092508401905082828015612d205780601f10612cf557610100808354040283529160200191612d20565b820191906000526020600020905b815481529060010190602001808311612d0357829003601f168201915b5050855460408051602060026001851615610100026000190190941693909304601f810184900484028201840190925281815295995087945092508401905082828015612dae5780601f10612d8357610100808354040283529160200191612dae565b820191906000526020600020905b815481529060010190602001808311612d9157829003601f168201915b5050505050915095509550955095509550955091939550919395565b600080836040516020018082805190602001908083835b60208310612e005780518252601f199092019160209182019101612de1565b6001836020036101000a038019825116818451168082178552505050505050905001915050604051602081830303815290604052805190602001209050612e46816126bc565b1515600114612e975760408051600160e51b62461bcd0281526020600482015260126024820152600160701b7175736572206e6f7420696e2073797374656d02604482015290519081900360640190fd5b6000818152602081815260409091208451612eba92600490920191860190613286565b50600081815260208190526040902060080154600180548592908110612edc57fe5b90600052602060002090600602016002019080519060200190612f00929190613286565b50806000805160206133c08339815191526000808481526020019081526020016000206008015486600080868152602001908152602001600020600201546000808781526020019081526020016000206003015488600080898152602001908152602001600020600501546000808a81526020019081526020016000206006016000808b8152602001908152602001600020600701546040518089815260200180602001888152602001878152602001806020018681526020018060200185815260200184810384528b818151815260200191508051906020019080838360005b83811015612ff9578181015183820152602001612fe1565b50505050905090810190601f1680156130265780820380516001836020036101000a031916815260200191505b5084810383528851815288516020918201918a019080838360005b83811015613059578181015183820152602001613041565b50505050905090810190601f1680156130865780820380516001836020036101000a031916815260200191505b5084810382528654600260001961010060018416150201909116048082526020909101908790801561234b5780601f106123205761010080835404028352916020019161234b565b6000806130d961325a565b90506130e3613335565b83815260208101828152600280546001810182556000829052925192027f405787fa12a823e0f2b7631cc41b3ba8828b3321ca811111fa75cd3aa3bb5ace810192909255517f405787fa12a823e0f2b7631cc41b3ba8828b3321ca811111fa75cd3aa3bb5acf909101559050919050565b600061315e61334c565b8681526020808201878152604083018790526060830186905260808301859052600160a084018190528054808201808355600092909252845160069091027fb10e2d527612073b26eecdfd717e6a320cf44b4afac2b0732d9fcbe2b7fa0cf68101918255925180519294869492936131fc937fb10e2d527612073b26eecdfd717e6a320cf44b4afac2b0732d9fcbe2b7fa0cf7019290910190613286565b5060408201518051613218916002840191602090910190613286565b50606082015160038201556080820151805161323e916004840191602090910190613286565b5060a08201518160050155505050600191505095945050505050565b604080514260208083019190915244828401528251808303840181526060909201909252805191012090565b828054600181600116156101000203166002900490600052602060002090601f016020900481019282601f106132c757805160ff19168380011785556132f4565b828001600101855582156132f4579182015b828111156132f45782518255916020019190600101906132d9565b50613300929150613385565b5090565b81548183558181111561333057600202816002028360005260206000209182019101613330919061339f565b505050565b604080518082019091526000808252602082015290565b6040518060c001604052806000801916815260200160608152602001606081526020016000815260200160608152602001600081525090565b612b4491905b80821115613300576000815560010161338b565b612b4491905b8082111561330057600080825560018201556002016133a556fe4517ce58cbae2880223bd8cb107789f39a8e2e3a7537d42071aee080b06a59eba165627a7a72305820d83c12f806cd2057c1400c66a37758df83ca73d91e853b53ce3e43f6634ecd1f0029",
  "source": "pragma solidity >=0.4.21 <0.6.0;\r\n\r\ncontract ManagerContract {\r\n\r\n    struct Manager{\r\n        string email;\r\n        bytes32 emailCode;\r\n        bytes32 passwordCode;\r\n        bytes32 passwordRestToken;\r\n        string name;\r\n        uint contactNumber;\r\n        string userAddress;\r\n        uint userAccess;\r\n        uint index;\r\n    }\r\n\r\n    struct DisplayManager{\r\n        bytes32 emailCode;\r\n        string email;\r\n        string name;\r\n        uint contactNumber;\r\n        string userAddress;\r\n        uint userAccess;\r\n    }\r\n    \r\n    event LogNewManager(\r\n        bytes32 indexed emailCode,\r\n        uint index,string email,\r\n        bytes32 passwordCode,\r\n        bytes32 passwordRestToken,\r\n        string name,\r\n        uint contactNumber,\r\n        string userAddress,\r\n        uint userAccess\r\n        );\r\n    event LogUpdateManager(\r\n        bytes32 indexed emailCode,\r\n        uint index,string email,\r\n        bytes32 passwordCode,\r\n        bytes32 passwordRestToken,\r\n        string name,\r\n        uint contactNumber,\r\n        string userAddress,\r\n        uint userAccess\r\n        );\r\n    event LogDeleteManager(\r\n        bytes32 indexed emailcode,\r\n        uint index\r\n        );\r\n\r\n    struct RegistationToken{\r\n        bytes32 emailCode;\r\n        bytes32 token;\r\n    }\r\n\r\n    mapping(bytes32 => Manager) public managerArray;\r\n    DisplayManager[] private managerIndex;\r\n    RegistationToken[] private managerRegistationToken;\r\n\r\n    function isManager(bytes32 _emailCode)public view returns(bool isIndeed) {\r\n        if(managerIndex.length == 0) return false;\r\n        return (managerIndex[managerArray[_emailCode].index].emailCode == _emailCode);\r\n    }\r\n    function createManagerToken(bytes32 _emailCode)private returns(bytes32){\r\n        bytes32 token = randomtoken();\r\n        RegistationToken memory registationToken;\r\n        registationToken.emailCode = _emailCode;\r\n        registationToken.token = token;\r\n        managerRegistationToken.push(registationToken);\r\n        return token;\r\n    }\r\n    function randomtoken() private view returns (bytes32) {\r\n       return keccak256(abi.encodePacked( block.timestamp, block.difficulty));\r\n    }\r\n    function setDisplayManager(bytes32 _emailCode,string memory _email,string memory _name,uint _telephone,string memory _address)\r\n     private returns(bool){\r\n\r\n        DisplayManager memory displayManager;\r\n        displayManager.emailCode = _emailCode;\r\n        displayManager.email = _email;\r\n        displayManager.name = _name;\r\n        displayManager.contactNumber = _telephone;\r\n        displayManager.userAddress = _address;\r\n        displayManager.userAccess = 1;\r\n        managerIndex.push(displayManager);\r\n        return true;\r\n\r\n    }\r\n    function insertManager(string memory _email,string memory _name,string memory _address,uint _telephone) public returns(bool){\r\n        bytes32 _emailCode = keccak256(abi.encodePacked((_email)));\r\n        bytes32 _passwordCode = keccak256(abi.encodePacked((\"a\")));\r\n        require(isManager(_emailCode) != true,'user allredy in system');\r\n\r\n        managerArray[_emailCode].email = _email;\r\n        managerArray[_emailCode].emailCode = _emailCode;\r\n        managerArray[_emailCode].passwordCode = _passwordCode;\r\n        managerArray[_emailCode].passwordRestToken = createManagerToken(_emailCode);\r\n        managerArray[_emailCode].name = _name;\r\n        managerArray[_emailCode].contactNumber = _telephone;\r\n        managerArray[_emailCode].userAddress = _address;\r\n        managerArray[_emailCode].userAccess = 1;\r\n        setDisplayManager(_emailCode,_email,_name,_telephone,_address);\r\n        managerArray[_emailCode].index = managerIndex.length-1;\r\n\r\n        emit LogNewManager (\r\n            _emailCode,\r\n            managerArray[_emailCode].index,\r\n            _email,\r\n            managerArray[_emailCode].passwordCode,\r\n            managerArray[_emailCode].passwordRestToken,\r\n            _name,\r\n            _telephone,\r\n            _address,\r\n            managerArray[_emailCode].userAccess\r\n            );\r\n        return true;\r\n    }\r\n    function deleteManager (bytes32 email) public returns(string memory){\r\n        uint i;\r\n        string memory name;\r\n        for( i = 0; i < managerRegistationToken.length; i++) {\r\n            if(managerRegistationToken[i].emailCode == email){\r\n                managerRegistationToken[i].emailCode = managerRegistationToken[managerRegistationToken.length-1].emailCode;\r\n                managerRegistationToken[i].token = managerRegistationToken[managerRegistationToken.length-1].token;\r\n                managerRegistationToken.length--;\r\n            }\r\n        }\r\n        managerArray[email].userAccess = 4;\r\n        managerIndex[managerArray[email].index].userAccess = 4;\r\n        name = managerIndex[managerArray[email].index].name;\r\n        emit LogDeleteManager(\r\n            email,\r\n            managerArray[email].index\r\n        );\r\n        return name;\r\n    }\r\n    function blockManager(bytes32 email) public returns(string memory)\r\n    {\r\n        string memory name;\r\n        if(managerArray[email].userAccess == 5){\r\n        managerArray[email].userAccess = 3;\r\n        managerIndex[managerArray[email].index].userAccess = 3;\r\n        name = managerIndex[managerArray[email].index].name;\r\n        }\r\n        if(managerArray[email].userAccess == 3){\r\n        managerArray[email].userAccess = 5;\r\n        managerIndex[managerArray[email].index].userAccess = 5;\r\n        name = managerIndex[managerArray[email].index].name;\r\n        }\r\n        return name;\r\n    }\r\n    function editUserAccess(string memory _email,uint usreAccess)public returns(bool){\r\n        bytes32 email = keccak256(abi.encodePacked((_email)));\r\n        managerArray[email].userAccess = usreAccess;\r\n        managerIndex[managerArray[email].index].userAccess = usreAccess;\r\n        return true;\r\n\r\n    }\r\n    function getManager(string memory _email) public view returns(bytes32,string memory email,string memory name,\r\n    uint contactNumber,string memory userAddress, uint userAccess){\r\n        bytes32 _emailCode = keccak256(abi.encodePacked((_email)));\r\n        require(isManager(_emailCode) == true,'user not in system');\r\n        return(\r\n            _emailCode,\r\n            managerArray[_emailCode].email,\r\n            managerArray[_emailCode].name,\r\n            managerArray[_emailCode].contactNumber,\r\n            managerArray[_emailCode].userAddress,\r\n            managerArray[_emailCode].userAccess\r\n            );\r\n    }\r\n    function getManageri(uint i) public view returns(\r\n        bytes32,\r\n        string memory,\r\n        string memory,\r\n        uint,\r\n        string memory,\r\n        uint\r\n        ){\r\n            return (\r\n                managerIndex[i].emailCode,\r\n                managerIndex[i].email,\r\n                managerIndex[i].name,\r\n                managerIndex[i].contactNumber,\r\n                managerIndex[i].userAddress,\r\n                managerIndex[i].userAccess\r\n                );\r\n    }\r\n    function getManagerCount() public view returns(uint)\r\n    {\r\n        return managerIndex.length;\r\n    }\r\n    \r\n    // function updateUserEmail(address userAddress, bytes32 userEmail) public returns(bool success)\r\n    // {\r\n    //     userStructs[userAddress].userEmail = userEmail;\r\n    //     emit LogUpdateUser(userAddress,  userStructs[userAddress].index, userEmail, userStructs[userAddress].userAge);\r\n    //     return true;\r\n    // }\r\n    function updateManagerName (string memory _email,string memory _name) public returns(bool success){\r\n        bytes32 _emailCode = keccak256(abi.encodePacked((_email)));\r\n        require(isManager(_emailCode) == true,'user not in system');\r\n        managerArray[_emailCode].name = _name;\r\n        managerIndex[managerArray[_emailCode].index].name = _name;\r\n        emit LogUpdateManager(\r\n            _emailCode,\r\n            managerArray[_emailCode].index,\r\n            _email,\r\n            managerArray[_emailCode].passwordCode,\r\n            managerArray[_emailCode].passwordRestToken,\r\n            _name,\r\n            managerArray[_emailCode].contactNumber,\r\n            managerArray[_emailCode].userAddress,\r\n            managerArray[_emailCode].userAccess\r\n            );\r\n        return true;\r\n    }\r\n    function updateManagerAddress (string memory _email,string memory _userAddress) public returns(bool success){\r\n        bytes32 _emailCode = keccak256(abi.encodePacked((_email)));\r\n        require(isManager(_emailCode) == true,'user not in system');\r\n        managerArray[_emailCode].userAddress = _userAddress;\r\n        managerIndex[managerArray[_emailCode].index].userAddress = _userAddress;\r\n        emit LogUpdateManager(\r\n            _emailCode,\r\n            managerArray[_emailCode].index,\r\n            _email,\r\n            managerArray[_emailCode].passwordCode,\r\n            managerArray[_emailCode].passwordRestToken,\r\n            managerArray[_emailCode].name,\r\n            managerArray[_emailCode].contactNumber,\r\n            _userAddress,\r\n            managerArray[_emailCode].userAccess\r\n            );\r\n        return true;\r\n    }\r\n    function updateManagerContactNumber (string memory _email,uint _contactNumber) public returns(bool success){\r\n        bytes32 _emailCode = keccak256(abi.encodePacked((_email)));\r\n        require(isManager(_emailCode) == true,'user not in system');\r\n        managerArray[_emailCode].contactNumber = _contactNumber;\r\n        managerIndex[managerArray[_emailCode].index].contactNumber = _contactNumber;\r\n        emit LogUpdateManager(\r\n            _emailCode,\r\n            managerArray[_emailCode].index,\r\n            _email,\r\n            managerArray[_emailCode].passwordCode,\r\n            managerArray[_emailCode].passwordRestToken,\r\n            managerArray[_emailCode].name,\r\n            _contactNumber,\r\n            managerArray[_emailCode].userAddress,\r\n            managerArray[_emailCode].userAccess\r\n            );\r\n        return true;\r\n    }\r\n    function updateManager(\r\n        string memory _email,\r\n        uint[] memory index,\r\n        string memory _name,\r\n        string memory _userAddress,\r\n        uint _contactNumber\r\n        ) public returns(bool success){\r\n        bytes32 _emailCode = keccak256(abi.encodePacked((_email)));\r\n        require(isManager(_emailCode) == true,'user not in system');\r\n        uint i;\r\n        uint num = managerArray[_emailCode].index;\r\n\r\n        for (i = 0;i<index.length;i++){\r\n            if(index[i]==1){\r\n                managerArray[_emailCode].name = _name;\r\n                managerIndex[num].name = _name;\r\n                emit LogUpdateManager(\r\n                    _emailCode,\r\n                    managerArray[_emailCode].index,\r\n                    _email,managerArray[_emailCode].passwordCode,\r\n                    managerArray[_emailCode].passwordRestToken,\r\n                    _name,\r\n                    managerArray[_emailCode].contactNumber,\r\n                    managerArray[_emailCode].userAddress,\r\n                    managerArray[_emailCode].userAccess\r\n                    );\r\n\r\n            }\r\n            else if(index[i]==2){\r\n                managerArray[_emailCode].userAddress = _userAddress;\r\n\r\n                managerIndex[num].userAddress = _userAddress;\r\n\r\n                emit LogUpdateManager(\r\n                    _emailCode,\r\n                    managerArray[_emailCode].index,\r\n                    _email,\r\n                    managerArray[_emailCode].passwordCode,\r\n                    managerArray[_emailCode].passwordRestToken,\r\n                    managerArray[_emailCode].name,\r\n                    managerArray[_emailCode].contactNumber,\r\n                    _userAddress,\r\n                    managerArray[_emailCode].userAccess\r\n                    );\r\n\r\n            }\r\n            else if(index[i]==3){\r\n                managerArray[_emailCode].contactNumber = _contactNumber;\r\n                managerIndex[num].contactNumber = _contactNumber;\r\n                emit LogUpdateManager(\r\n                    _emailCode,\r\n                    managerArray[_emailCode].index,\r\n                    _email,\r\n                    managerArray[_emailCode].passwordCode,\r\n                    managerArray[_emailCode].passwordRestToken,\r\n                    managerArray[_emailCode].name,\r\n                    _contactNumber,\r\n                    managerArray[_emailCode].userAddress,\r\n                    managerArray[_emailCode].userAccess\r\n                    );\r\n\r\n            }\r\n        }\r\n        return true;\r\n    }\r\n    ///////\r\n    function updateManageriEmail (string memory _email) public returns(bool success)\r\n    {\r\n       // return true;\r\n    }\r\n    function checkManagerUserAccess(bytes32 email)public view returns(uint userAccess){\r\n        \r\n        return managerArray[email].userAccess;\r\n    }\r\n    function checkManagerPasswordCode(bytes32 email) public view returns(bytes32 passwordCode ){\r\n        return managerArray[email].passwordCode;\r\n    }\r\n}",
  "sourcePath": "C:\\project\\tea supply chain mangement system\\test2\\contracts\\Manager.sol",
  "compiler": {
    "name": "solc",
    "version": "0.5.8+commit.23d335f2.Emscripten.clang"
  },
  "schemaVersion": "3.0.16",
  "updatedAt": "2019-11-29T00:00:45.271Z",
  "devdoc": {
    "methods": {}
  },
  "userdoc": {
    "methods": {
      "updateManageriEmail(string)": {
        "notice": "////"
      }
    }
  }
}