{
  "contractName": "OrderContract",
  "abi": [
    {
      "constant": true,
      "inputs": [
        {
          "name": "",
          "type": "bytes32"
        }
      ],
      "name": "OrderArray",
      "outputs": [
        {
          "name": "orderName",
          "type": "string"
        },
        {
          "name": "orderNameCode",
          "type": "bytes32"
        },
        {
          "name": "progress",
          "type": "string"
        },
        {
          "name": "quntity",
          "type": "uint256"
        },
        {
          "name": "orderAccess",
          "type": "uint256"
        },
        {
          "name": "index",
          "type": "uint256"
        },
        {
          "name": "rate",
          "type": "uint256"
        },
        {
          "name": "unit",
          "type": "uint256"
        }
      ],
      "payable": false,
      "stateMutability": "view",
      "type": "function"
    },
    {
      "anonymous": false,
      "inputs": [
        {
          "indexed": true,
          "name": "orderNameCode",
          "type": "bytes32"
        },
        {
          "indexed": false,
          "name": "index",
          "type": "uint256"
        },
        {
          "indexed": false,
          "name": "orderName",
          "type": "string"
        },
        {
          "indexed": false,
          "name": "progress",
          "type": "string"
        },
        {
          "indexed": false,
          "name": "quntity",
          "type": "uint256"
        },
        {
          "indexed": false,
          "name": "orderAccess",
          "type": "uint256"
        },
        {
          "indexed": false,
          "name": "rate",
          "type": "uint256"
        },
        {
          "indexed": false,
          "name": "unit",
          "type": "uint256"
        }
      ],
      "name": "LogNewOrder",
      "type": "event"
    },
    {
      "anonymous": false,
      "inputs": [
        {
          "indexed": true,
          "name": "orderNameCode",
          "type": "bytes32"
        },
        {
          "indexed": false,
          "name": "index",
          "type": "uint256"
        },
        {
          "indexed": false,
          "name": "orderName",
          "type": "string"
        },
        {
          "indexed": false,
          "name": "progress",
          "type": "string"
        },
        {
          "indexed": false,
          "name": "quntity",
          "type": "uint256"
        },
        {
          "indexed": false,
          "name": "orderAccess",
          "type": "uint256"
        },
        {
          "indexed": false,
          "name": "rate",
          "type": "uint256"
        },
        {
          "indexed": false,
          "name": "unit",
          "type": "uint256"
        }
      ],
      "name": "LogUpdateOrder",
      "type": "event"
    },
    {
      "anonymous": false,
      "inputs": [
        {
          "indexed": true,
          "name": "orderNamecode",
          "type": "bytes32"
        },
        {
          "indexed": false,
          "name": "index",
          "type": "uint256"
        }
      ],
      "name": "LogDeleteOrder",
      "type": "event"
    },
    {
      "constant": true,
      "inputs": [
        {
          "name": "_orderNameCode",
          "type": "bytes32"
        }
      ],
      "name": "isOrder",
      "outputs": [
        {
          "name": "isIndeed",
          "type": "bool"
        }
      ],
      "payable": false,
      "stateMutability": "view",
      "type": "function"
    },
    {
      "constant": false,
      "inputs": [
        {
          "name": "_orderName",
          "type": "string"
        },
        {
          "name": "_progress",
          "type": "string"
        },
        {
          "name": "_quntity",
          "type": "uint256"
        }
      ],
      "name": "insertOrder",
      "outputs": [
        {
          "name": "",
          "type": "bool"
        }
      ],
      "payable": false,
      "stateMutability": "nonpayable",
      "type": "function"
    },
    {
      "constant": false,
      "inputs": [
        {
          "name": "_orderNameCode",
          "type": "bytes32"
        }
      ],
      "name": "deleteOrder",
      "outputs": [
        {
          "name": "",
          "type": "string"
        }
      ],
      "payable": false,
      "stateMutability": "nonpayable",
      "type": "function"
    },
    {
      "constant": true,
      "inputs": [
        {
          "name": "_orderName",
          "type": "string"
        }
      ],
      "name": "getOrder",
      "outputs": [
        {
          "name": "",
          "type": "bytes32"
        },
        {
          "name": "orderName",
          "type": "string"
        },
        {
          "name": "progress",
          "type": "string"
        },
        {
          "name": "quntity",
          "type": "uint256"
        },
        {
          "name": "orderAccess",
          "type": "uint256"
        },
        {
          "name": "rate",
          "type": "uint256"
        }
      ],
      "payable": false,
      "stateMutability": "view",
      "type": "function"
    },
    {
      "constant": true,
      "inputs": [
        {
          "name": "i",
          "type": "uint256"
        }
      ],
      "name": "getOrderi",
      "outputs": [
        {
          "name": "",
          "type": "bytes32"
        },
        {
          "name": "",
          "type": "string"
        },
        {
          "name": "",
          "type": "string"
        },
        {
          "name": "",
          "type": "uint256"
        },
        {
          "name": "",
          "type": "uint256"
        },
        {
          "name": "",
          "type": "uint256"
        }
      ],
      "payable": false,
      "stateMutability": "view",
      "type": "function"
    },
    {
      "constant": true,
      "inputs": [],
      "name": "getOrderCount",
      "outputs": [
        {
          "name": "",
          "type": "uint256"
        }
      ],
      "payable": false,
      "stateMutability": "view",
      "type": "function"
    },
    {
      "constant": false,
      "inputs": [
        {
          "name": "_orderName",
          "type": "string"
        },
        {
          "name": "_progress",
          "type": "string"
        }
      ],
      "name": "updateOrderOrderAddress",
      "outputs": [
        {
          "name": "success",
          "type": "bool"
        }
      ],
      "payable": false,
      "stateMutability": "nonpayable",
      "type": "function"
    },
    {
      "constant": false,
      "inputs": [
        {
          "name": "_orderName",
          "type": "string"
        },
        {
          "name": "_quntity",
          "type": "uint256"
        }
      ],
      "name": "updateOrderOwnerName",
      "outputs": [
        {
          "name": "success",
          "type": "bool"
        }
      ],
      "payable": false,
      "stateMutability": "nonpayable",
      "type": "function"
    },
    {
      "constant": false,
      "inputs": [
        {
          "name": "_orderName",
          "type": "string"
        },
        {
          "name": "index",
          "type": "uint256[]"
        },
        {
          "name": "_progress",
          "type": "string"
        },
        {
          "name": "_quntity",
          "type": "uint256"
        }
      ],
      "name": "updateOrder",
      "outputs": [
        {
          "name": "success",
          "type": "bool"
        }
      ],
      "payable": false,
      "stateMutability": "nonpayable",
      "type": "function"
    },
    {
      "constant": false,
      "inputs": [
        {
          "name": "_orderName",
          "type": "string"
        }
      ],
      "name": "updateOrderiorderName",
      "outputs": [
        {
          "name": "success",
          "type": "bool"
        }
      ],
      "payable": false,
      "stateMutability": "nonpayable",
      "type": "function"
    },
    {
      "constant": false,
      "inputs": [
        {
          "name": "_orderName",
          "type": "string"
        },
        {
          "name": "_rate",
          "type": "uint256"
        }
      ],
      "name": "rateOrder",
      "outputs": [
        {
          "name": "success",
          "type": "bool"
        }
      ],
      "payable": false,
      "stateMutability": "nonpayable",
      "type": "function"
    },
    {
      "constant": false,
      "inputs": [
        {
          "name": "_orderName",
          "type": "string"
        },
        {
          "name": "_qty",
          "type": "uint256"
        },
        {
          "name": "_step",
          "type": "uint256"
        }
      ],
      "name": "editProgress",
      "outputs": [
        {
          "name": "successs",
          "type": "bool"
        }
      ],
      "payable": false,
      "stateMutability": "nonpayable",
      "type": "function"
    }
  ],
  "bytecode": "0x608060405234801561001057600080fd5b5061247a806100206000396000f3fe608060405234801561001057600080fd5b50600436106100cf5760003560e01c80638723555e1161008c578063cba138e611610066578063cba138e614610814578063e56d794f1461093d578063f8d4b6eb1461095a578063fa207e1a14610a85576100cf565b80638723555e1461074b57806387a61cbd146107685780638d0a5fbb146107fa576100cf565b8063133bb28a146100d45780631c65e0ac146101915780633b662a82146102b65780634d6998751461035a57806363cb014014610400578063712ca0f8146105ad575b600080fd5b61017d600480360360608110156100ea57600080fd5b810190602081018135600160201b81111561010457600080fd5b82018360208201111561011657600080fd5b803590602001918460018302840111600160201b8311171561013757600080fd5b91908080601f0160208091040260200160405190810160405280939291908181526020018383808284376000920191909152509295505082359350505060200135610b2b565b604080519115158252519081900360200190f35b6101ae600480360360208110156101a757600080fd5b5035610b34565b60405180806020018981526020018060200188815260200187815260200186815260200185815260200184815260200183810383528b818151815260200191508051906020019080838360005b838110156102135781810151838201526020016101fb565b50505050905090810190601f1680156102405780820380516001836020036101000a031916815260200191505b5083810382528951815289516020918201918b019080838360005b8381101561027357818101518382015260200161025b565b50505050905090810190601f1680156102a05780820380516001836020036101000a031916815260200191505b509a505050505050505050505060405180910390f35b61017d600480360360208110156102cc57600080fd5b810190602081018135600160201b8111156102e657600080fd5b8201836020820111156102f857600080fd5b803590602001918460018302840111600160201b8311171561031957600080fd5b91908080601f016020809104026020016040519081016040528093929190818152602001838380828437600092019190915250929550610c94945050505050565b61017d6004803603604081101561037057600080fd5b810190602081018135600160201b81111561038a57600080fd5b82018360208201111561039c57600080fd5b803590602001918460018302840111600160201b831117156103bd57600080fd5b91908080601f0160208091040260200160405190810160405280939291908181526020018383808284376000920191909152509295505091359250610c9a915050565b61017d6004803603608081101561041657600080fd5b810190602081018135600160201b81111561043057600080fd5b82018360208201111561044257600080fd5b803590602001918460018302840111600160201b8311171561046357600080fd5b91908080601f0160208091040260200160405190810160405280939291908181526020018383808284376000920191909152509295949360208101935035915050600160201b8111156104b557600080fd5b8201836020820111156104c757600080fd5b803590602001918460208302840111600160201b831117156104e857600080fd5b9190808060200260200160405190810160405280939291908181526020018383602002808284376000920191909152509295949360208101935035915050600160201b81111561053757600080fd5b82018360208201111561054957600080fd5b803590602001918460018302840111600160201b8311171561056a57600080fd5b91908080601f0160208091040260200160405190810160405280939291908181526020018383808284376000920191909152509295505091359250610f37915050565b610651600480360360208110156105c357600080fd5b810190602081018135600160201b8111156105dd57600080fd5b8201836020820111156105ef57600080fd5b803590602001918460018302840111600160201b8311171561061057600080fd5b91908080601f016020809104026020016040519081016040528093929190818152602001838380828437600092019190915250929550611411945050505050565b604051808781526020018060200180602001868152602001858152602001848152602001838103835288818151815260200191508051906020019080838360005b838110156106aa578181015183820152602001610692565b50505050905090810190601f1680156106d75780820380516001836020036101000a031916815260200191505b50838103825287518152875160209182019189019080838360005b8381101561070a5781810151838201526020016106f2565b50505050905090810190601f1680156107375780820380516001836020036101000a031916815260200191505b509850505050505050505060405180910390f35b61017d6004803603602081101561076157600080fd5b5035611630565b6107856004803603602081101561077e57600080fd5b503561167e565b6040805160208082528351818301528351919283929083019185019080838360005b838110156107bf5781810151838201526020016107a7565b50505050905090810190601f1680156107ec5780820380516001836020036101000a031916815260200191505b509250505060405180910390f35b6108026117aa565b60408051918252519081900360200190f35b61017d6004803603604081101561082a57600080fd5b810190602081018135600160201b81111561084457600080fd5b82018360208201111561085657600080fd5b803590602001918460018302840111600160201b8311171561087757600080fd5b91908080601f0160208091040260200160405190810160405280939291908181526020018383808284376000920191909152509295949360208101935035915050600160201b8111156108c957600080fd5b8201836020820111156108db57600080fd5b803590602001918460018302840111600160201b831117156108fc57600080fd5b91908080601f0160208091040260200160405190810160405280939291908181526020018383808284376000920191909152509295506117b1945050505050565b6106516004803603602081101561095357600080fd5b5035611a68565b61017d6004803603606081101561097057600080fd5b810190602081018135600160201b81111561098a57600080fd5b82018360208201111561099c57600080fd5b803590602001918460018302840111600160201b831117156109bd57600080fd5b91908080601f0160208091040260200160405190810160405280939291908181526020018383808284376000920191909152509295949360208101935035915050600160201b811115610a0f57600080fd5b820183602082011115610a2157600080fd5b803590602001918460018302840111600160201b83111715610a4257600080fd5b91908080601f0160208091040260200160405190810160405280939291908181526020018383808284376000920191909152509295505091359250611c5d915050565b61017d60048036036040811015610a9b57600080fd5b810190602081018135600160201b811115610ab557600080fd5b820183602082011115610ac757600080fd5b803590602001918460018302840111600160201b83111715610ae857600080fd5b91908080601f0160208091040260200160405190810160405280939291908181526020018383808284376000920191909152509295505091359250611f58915050565b60019392505050565b6000602081815291815260409081902080548251601f600260001961010060018616150201909316929092049182018590048502810185019093528083529092839190830182828015610bc85780601f10610b9d57610100808354040283529160200191610bc8565b820191906000526020600020905b815481529060010190602001808311610bab57829003601f168201915b505050505090806001015490806002018054600181600116156101000203166002900480601f016020809104026020016040519081016040528092919081815260200182805460018160011615610100020316600290048015610c6c5780601f10610c4157610100808354040283529160200191610c6c565b820191906000526020600020905b815481529060010190602001808311610c4f57829003601f168201915b5050505050908060030154908060040154908060050154908060060154908060070154905088565b50600090565b600080836040516020018082805190602001908083835b60208310610cd05780518252601f199092019160209182019101610cb1565b6001836020036101000a038019825116818451168082178552505050505050905001915050604051602081830303815290604052805190602001209050610d1681611630565b1515600114610d5d5760408051600160e51b62461bcd028152602060048201526013602482015260008051602061242f833981519152604482015290519081900360640190fd5b60008181526020819052604090206003810184905560050154600180548592908110610d8557fe5b9060005260206000209060070201600301819055508060008051602061240f83398151915260008084815260200190815260200160002060050154866000808681526020019081526020016000206002018760008088815260200190815260200160002060040154600080898152602001908152602001600020600601546000808a815260200190815260200160002060070154604051808881526020018060200180602001878152602001868152602001858152602001848152602001838103835289818151815260200191508051906020019080838360005b83811015610e78578181015183820152602001610e60565b50505050905090810190601f168015610ea55780820380516001836020036101000a031916815260200191505b50838103825288546002600019610100600184161502019091160480825260209091019089908015610f185780601f10610eed57610100808354040283529160200191610f18565b820191906000526020600020905b815481529060010190602001808311610efb57829003601f168201915b5050995050505050505050505060405180910390a25060019392505050565b600080856040516020018082805190602001908083835b60208310610f6d5780518252601f199092019160209182019101610f4e565b6001836020036101000a038019825116818451168082178552505050505050905001915050604051602081830303815290604052805190602001209050610fb381611630565b1515600114610ffa5760408051600160e51b62461bcd028152602060048201526013602482015260008051602061242f833981519152604482015290519081900360640190fd5b6000818152602081905260408120600501545b86518210156114035786828151811061102257fe5b60200260200101516001141561120e57600083815260208181526040909120875161105592600290920191890190612336565b50856001828154811061106457fe5b90600052602060002090600702016002019080519060200190611088929190612336565b508260008051602061240f833981519152600080868152602001908152602001600020600501548a89600080898152602001908152602001600020600301546000808a8152602001908152602001600020600401546000808b8152602001908152602001600020600601546000808c815260200190815260200160002060070154604051808881526020018060200180602001878152602001868152602001858152602001848152602001838103835289818151815260200191508051906020019080838360005b83811015611168578181015183820152602001611150565b50505050905090810190601f1680156111955780820380516001836020036101000a031916815260200191505b5083810382528851815288516020918201918a019080838360005b838110156111c85781810151838201526020016111b0565b50505050905090810190601f1680156111f55780820380516001836020036101000a031916815260200191505b50995050505050505050505060405180910390a26113f8565b86828151811061121a57fe5b6020026020010151600214156113f8576000838152602081905260409020600301859055600180548691908390811061124f57fe5b9060005260206000209060070201600301819055508260008051602061240f833981519152600080868152602001908152602001600020600501548a600080888152602001908152602001600020600201896000808a8152602001908152602001600020600401546000808b8152602001908152602001600020600601546000808c815260200190815260200160002060070154604051808881526020018060200180602001878152602001868152602001858152602001848152602001838103835289818151815260200191508051906020019080838360005b8381101561134257818101518382015260200161132a565b50505050905090810190601f16801561136f5780820380516001836020036101000a031916815260200191505b508381038252885460026000196101006001841615020190911604808252602090910190899080156113e25780601f106113b7576101008083540402835291602001916113e2565b820191906000526020600020905b8154815290600101906020018083116113c557829003601f168201915b5050995050505050505050505060405180910390a25b60019091019061100d565b506001979650505050505050565b6000606080600080600080876040516020018082805190602001908083835b6020831061144f5780518252601f199092019160209182019101611430565b6001836020036101000a03801982511681845116808217855250505050505090500191505060405160208183030381529060405280519060200120905061149581611630565b15156001146114dc5760408051600160e51b62461bcd028152602060048201526013602482015260008051602061242f833981519152604482015290519081900360640190fd5b6000818152602081815260409182902060038101546004820154600683015483548651600260018316156101000260001901909216829004601f8101889004880282018801909852878152889795969187019590918791908301828280156115855780601f1061155a57610100808354040283529160200191611585565b820191906000526020600020905b81548152906001019060200180831161156857829003601f168201915b5050875460408051602060026001851615610100026000190190941693909304601f8101849004840282018401909252818152959a50899450925084019050828280156116135780601f106115e857610100808354040283529160200191611613565b820191906000526020600020905b8154815290600101906020018083116115f657829003601f168201915b505050505093509650965096509650965096505091939550919395565b60015460009061164257506000611679565b60008281526020819052604090206005015460018054849290811061166357fe5b9060005260206000209060070201600001541490505b919050565b6000818152602081905260409020600481810181905560059091015460018054606093929081106116ab57fe5b906000526020600020906007020160040181905550817fcf233cbfefe65a6306ab4f9ffff0e9ce38a398c3627a0a623463dd939323ff98600080858152602001908152602001600020600501546040518082815260200191505060405180910390a26000828152602081815260409182902080548351601f60026000196101006001861615020190931692909204918201849004840281018401909452808452909183018282801561179e5780601f106117735761010080835404028352916020019161179e565b820191906000526020600020905b81548152906001019060200180831161178157829003601f168201915b50505050509050919050565b6001545b90565b600080836040516020018082805190602001908083835b602083106117e75780518252601f1990920191602091820191016117c8565b6001836020036101000a03801982511681845116808217855250505050505090500191505060405160208183030381529060405280519060200120905061182d81611630565b15156001146118745760408051600160e51b62461bcd028152602060048201526013602482015260008051602061242f833981519152604482015290519081900360640190fd5b600081815260208181526040909120845161189792600290920191860190612336565b506000818152602081905260409020600501546001805485929081106118b957fe5b906000526020600020906007020160020190805190602001906118dd929190612336565b508060008051602061240f8339815191526000808481526020019081526020016000206005015486866000808781526020019081526020016000206003015460008088815260200190815260200160002060040154600080898152602001908152602001600020600601546000808a815260200190815260200160002060070154604051808881526020018060200180602001878152602001868152602001858152602001848152602001838103835289818151815260200191508051906020019080838360005b838110156119bd5781810151838201526020016119a5565b50505050905090810190601f1680156119ea5780820380516001836020036101000a031916815260200191505b5083810382528851815288516020918201918a019080838360005b83811015611a1d578181015183820152602001611a05565b50505050905090810190601f168015611a4a5780820380516001836020036101000a031916815260200191505b50995050505050505050505060405180910390a25060019392505050565b6000606080600080600060018781548110611a7f57fe5b90600052602060002090600702016000015460018881548110611a9e57fe5b906000526020600020906007020160010160018981548110611abc57fe5b906000526020600020906007020160020160018a81548110611ada57fe5b90600052602060002090600702016003015460018b81548110611af957fe5b90600052602060002090600702016004015460018c81548110611b1857fe5b600091825260209182902060056007909202010154855460408051601f600260001961010060018716150201909416939093049283018590048502810185019091528181529192879190830182828015611bb35780601f10611b8857610100808354040283529160200191611bb3565b820191906000526020600020905b815481529060010190602001808311611b9657829003601f168201915b5050875460408051602060026001851615610100026000190190941693909304601f8101849004840282018401909252818152959a5089945092508401905082828015611c415780601f10611c1657610100808354040283529160200191611c41565b820191906000526020600020905b815481529060010190602001808311611c2457829003601f168201915b5050505050935095509550955095509550955091939550919395565b600080846040516020018082805190602001908083835b60208310611c935780518252601f199092019160209182019101611c74565b6001836020036101000a038019825116818451168082178552505050505050905001915050604051602081830303815290604052805190602001209050611cd981611630565b151560011415611d335760408051600160e51b62461bcd02815260206004820152601760248201527f6f7264657220616c6c7265647920696e2073797374656d000000000000000000604482015290519081900360640190fd5b6000818152602081815260409091208651611d5092880190612336565b50600081815260208181526040909120600180820184905560048201558551611d8192600290920191870190612336565b506000818152602081905260408120600381018590556006810182905560070155611dae81868686612233565b50600180805490500360008083815260200190815260200160002060050181905550807fa826162c55d8f7fc43703a8149e83cc427348033cbf6170c60300a544d10212b6000808481526020019081526020016000206005015487878760008088815260200190815260200160002060040154600080898152602001908152602001600020600601546000808a815260200190815260200160002060070154604051808881526020018060200180602001878152602001868152602001858152602001848152602001838103835289818151815260200191508051906020019080838360005b83811015611eac578181015183820152602001611e94565b50505050905090810190601f168015611ed95780820380516001836020036101000a031916815260200191505b5083810382528851815288516020918201918a019080838360005b83811015611f0c578181015183820152602001611ef4565b50505050905090810190601f168015611f395780820380516001836020036101000a031916815260200191505b50995050505050505050505060405180910390a2506001949350505050565b600080836040516020018082805190602001908083835b60208310611f8e5780518252601f199092019160209182019101611f6f565b6001836020036101000a038019825116818451168082178552505050505050905001915050604051602081830303815290604052805190602001209050611fd481611630565b151560011461201b5760408051600160e51b62461bcd028152602060048201526013602482015260008051602061242f833981519152604482015290519081900360640190fd5b6000818152602081905260408120600781015460069091015460018201910285018161204357fe5b6000848152602081905260409020600781018054600190810190915592909104600682018190556005909101548254919350839291811061208057fe5b9060005260206000209060070201600501819055508160008051602061240f83398151915260008085815260200190815260200160002060050154876000808781526020019081526020016000206002016000808881526020019081526020016000206003015460008089815260200190815260200160002060040154876000808b815260200190815260200160002060070154604051808881526020018060200180602001878152602001868152602001858152602001848152602001838103835289818151815260200191508051906020019080838360005b8381101561217357818101518382015260200161215b565b50505050905090810190601f1680156121a05780820380516001836020036101000a031916815260200191505b508381038252885460026000196101006001841615020190911604808252602090910190899080156122135780601f106121e857610100808354040283529160200191612213565b820191906000526020600020905b8154815290600101906020018083116121f657829003601f168201915b5050995050505050505050505060405180910390a2506001949350505050565b600061223d6123b4565b85815260208082018681526040830186905260608301859052600160808401819052600060a0850181905260c08501819052815480830180845592909152845160079091027fb10e2d527612073b26eecdfd717e6a320cf44b4afac2b0732d9fcbe2b7fa0cf68101918255925180519294869492936122e2937fb10e2d527612073b26eecdfd717e6a320cf44b4afac2b0732d9fcbe2b7fa0cf7019290910190612336565b50604082015180516122fe916002840191602090910190612336565b50606082015160038201556080820151600482015560a0820151600582015560c0909101516006909101555060019695505050505050565b828054600181600116156101000203166002900490600052602060002090601f016020900481019282601f1061237757805160ff19168380011785556123a4565b828001600101855582156123a4579182015b828111156123a4578251825591602001919060010190612389565b506123b09291506123f4565b5090565b6040518060e00160405280600080191681526020016060815260200160608152602001600081526020016000815260200160008152602001600081525090565b6117ae91905b808211156123b057600081556001016123fa56fe2565072cfed99b84ad56c9faa71584105fc58f4ffd4496bd49399884ffe86b216f72646572206e6f7420696e2073797374656d00000000000000000000000000a165627a7a72305820387919bfce9bccaefeffaaa5544b629899c82d2d785530b40c22edb0f6fb3d950029",
  "source": "pragma solidity >=0.4.21 <0.6.0;\r\n\r\ncontract OrderContract {\r\n\r\n    struct Order{\r\n        string orderName;\r\n        bytes32 orderNameCode;\r\n        string progress;\r\n        uint quntity;\r\n        uint orderAccess;\r\n        uint index;\r\n        uint rate;\r\n        uint unit;\r\n    }\r\n\r\n    struct DisplayOrder{\r\n        bytes32 orderNameCode;\r\n        string orderName;\r\n        string progress;\r\n        uint quntity;\r\n        uint orderAccess;\r\n        uint rate;\r\n        uint unit;\r\n    }\r\n\r\n    event LogNewOrder(\r\n        bytes32 indexed orderNameCode,\r\n        uint index,string orderName,\r\n        string progress,\r\n        uint quntity,\r\n        uint orderAccess,\r\n        uint rate,\r\n        uint unit\r\n        );\r\n    event LogUpdateOrder(\r\n        bytes32 indexed orderNameCode,\r\n        uint index,string orderName,\r\n        string progress,\r\n        uint quntity,\r\n        uint orderAccess,\r\n        uint rate,\r\n        uint unit\r\n        );\r\n    event LogDeleteOrder(\r\n        bytes32 indexed orderNamecode,\r\n        uint index\r\n        );\r\n\r\n    mapping(bytes32 => Order) public OrderArray;\r\n    DisplayOrder[] private OrderIndex;\r\n\r\n    function isOrder(bytes32 _orderNameCode)public view returns(bool isIndeed) {\r\n        if(OrderIndex.length == 0) return false;\r\n        return (OrderIndex[OrderArray[_orderNameCode].index].orderNameCode == _orderNameCode);\r\n    }\r\n\r\n    function setDisplayOrder\r\n    (bytes32 _orderNameCode,string memory _orderName,string memory _progress,uint _quntity)\r\n     private returns(bool){\r\n\r\n        DisplayOrder memory displayOrder;\r\n        displayOrder.orderNameCode = _orderNameCode;\r\n        displayOrder.orderName = _orderName;\r\n        displayOrder.progress = _progress;\r\n        displayOrder.quntity = _quntity;\r\n        displayOrder.orderAccess = 1;\r\n        displayOrder.rate = 0;\r\n        displayOrder.unit = 0;\r\n        OrderIndex.push(displayOrder);\r\n        return true;\r\n\r\n    }\r\n    function insertOrder\r\n    (string memory _orderName,string memory _progress,uint _quntity) public returns(bool){\r\n        bytes32 _orderNameCode = keccak256(abi.encodePacked((_orderName)));\r\n        require(isOrder(_orderNameCode) != true,'order allredy in system');\r\n\r\n        OrderArray[_orderNameCode].orderName = _orderName;\r\n        OrderArray[_orderNameCode].orderNameCode = _orderNameCode;\r\n        OrderArray[_orderNameCode].orderAccess = 1;\r\n        OrderArray[_orderNameCode].progress = _progress;\r\n        OrderArray[_orderNameCode].quntity = _quntity;\r\n        OrderArray[_orderNameCode].rate = 0;\r\n        OrderArray[_orderNameCode].unit = 0;\r\n        setDisplayOrder(_orderNameCode,_orderName,_progress,_quntity);\r\n        OrderArray[_orderNameCode].index = OrderIndex.length-1;\r\n\r\n        emit LogNewOrder (\r\n            _orderNameCode,\r\n            OrderArray[_orderNameCode].index,\r\n            _orderName,\r\n            _progress,\r\n            _quntity,\r\n            OrderArray[_orderNameCode].orderAccess,\r\n            OrderArray[_orderNameCode].rate,\r\n            OrderArray[_orderNameCode].unit\r\n            );\r\n        return true;\r\n    }\r\n    function deleteOrder (bytes32 _orderNameCode) public returns(string memory){\r\n        OrderArray[_orderNameCode].orderAccess = 4;\r\n        OrderIndex[OrderArray[_orderNameCode].index].orderAccess = 4;\r\n        emit LogDeleteOrder(\r\n            _orderNameCode,\r\n            OrderArray[_orderNameCode].index\r\n        );\r\n        return  OrderArray[_orderNameCode].orderName;\r\n    }\r\n\r\n    function getOrder(string memory _orderName) public view returns\r\n    (bytes32,string memory orderName,string memory progress,uint quntity,\r\n    uint orderAccess,uint rate){\r\n        bytes32 _orderNameCode = keccak256(abi.encodePacked((_orderName)));\r\n        require(isOrder(_orderNameCode) == true,'order not in system');\r\n        return(\r\n            _orderNameCode,\r\n            OrderArray[_orderNameCode].orderName,\r\n            OrderArray[_orderNameCode].progress,\r\n            OrderArray[_orderNameCode].quntity,\r\n            OrderArray[_orderNameCode].orderAccess,\r\n            OrderArray[_orderNameCode].rate\r\n            );\r\n    }\r\n    function getOrderi(uint i) public view returns(\r\n        bytes32,\r\n        string memory,\r\n        string memory,\r\n        uint,\r\n        uint,\r\n        uint\r\n        ){\r\n            return (\r\n                OrderIndex[i].orderNameCode,\r\n                OrderIndex[i].orderName,\r\n                OrderIndex[i].progress,\r\n                OrderIndex[i].quntity,\r\n                OrderIndex[i].orderAccess,\r\n                OrderIndex[i].rate\r\n                );\r\n    }\r\n    function getOrderCount() public view returns(uint)\r\n    {\r\n        return OrderIndex.length;\r\n    }\r\n\r\n    // function updateUserorderName(address weight, bytes32 orderorderName) public returns(bool success)\r\n    // {\r\n    //     orderStructs[weight].orderorderName = orderorderName;\r\n    //     emit LogUpdateUser(weight,  orderStructs[weight].index, orderorderName, orderStructs[weight].orderAge);\r\n    //     return true;\r\n    // }\r\n    function updateOrderOrderAddress (string memory _orderName,string memory _progress) public returns(bool success){\r\n        bytes32 _orderNameCode = keccak256(abi.encodePacked((_orderName)));\r\n        require(isOrder(_orderNameCode) == true,'order not in system');\r\n        OrderArray[_orderNameCode].progress = _progress;\r\n        OrderIndex[OrderArray[_orderNameCode].index].progress = _progress;\r\n        emit LogUpdateOrder(\r\n            _orderNameCode,\r\n            OrderArray[_orderNameCode].index,\r\n            _orderName,\r\n            _progress,\r\n            OrderArray[_orderNameCode].quntity,\r\n            OrderArray[_orderNameCode].orderAccess,\r\n            OrderArray[_orderNameCode].rate,\r\n            OrderArray[_orderNameCode].unit\r\n            );\r\n        return true;\r\n    }\r\n    function updateOrderOwnerName (string memory _orderName,uint _quntity) public returns(bool success){\r\n        bytes32 _orderNameCode = keccak256(abi.encodePacked((_orderName)));\r\n        require(isOrder(_orderNameCode) == true,'order not in system');\r\n        OrderArray[_orderNameCode].quntity = _quntity;\r\n        OrderIndex[OrderArray[_orderNameCode].index].quntity = _quntity;\r\n        emit LogUpdateOrder(\r\n            _orderNameCode,\r\n            OrderArray[_orderNameCode].index,\r\n            _orderName,\r\n            OrderArray[_orderNameCode].progress,\r\n            _quntity,\r\n            OrderArray[_orderNameCode].orderAccess,\r\n            OrderArray[_orderNameCode].rate,\r\n            OrderArray[_orderNameCode].unit\r\n            );\r\n        return true;\r\n    }\r\n    \r\n    function updateOrder(\r\n        string memory _orderName,\r\n        uint[] memory index,\r\n        string memory _progress,\r\n        uint _quntity\r\n        ) public returns(bool success){\r\n        bytes32 _orderNameCode = keccak256(abi.encodePacked((_orderName)));\r\n        require(isOrder(_orderNameCode) == true,'order not in system');\r\n        uint i;\r\n        uint num = OrderArray[_orderNameCode].index;\r\n\r\n        for (i = 0;i<index.length;i++){\r\n            if(index[i]==1){\r\n                OrderArray[_orderNameCode].progress = _progress;\r\n                OrderIndex[num].progress = _progress;\r\n                emit LogUpdateOrder(\r\n                    _orderNameCode,\r\n                    OrderArray[_orderNameCode].index,\r\n                    _orderName,\r\n                    _progress,\r\n                    OrderArray[_orderNameCode].quntity,\r\n                    OrderArray[_orderNameCode].orderAccess,\r\n                    OrderArray[_orderNameCode].rate,\r\n                    OrderArray[_orderNameCode].unit\r\n                    );\r\n\r\n            }\r\n            else if(index[i]==2){\r\n                OrderArray[_orderNameCode].quntity = _quntity;\r\n                OrderIndex[num].quntity = _quntity;\r\n                emit LogUpdateOrder(\r\n                    _orderNameCode,\r\n                    OrderArray[_orderNameCode].index,\r\n                    _orderName,\r\n                    OrderArray[_orderNameCode].progress,\r\n                    _quntity,\r\n                    OrderArray[_orderNameCode].orderAccess,\r\n                    OrderArray[_orderNameCode].rate,\r\n                    OrderArray[_orderNameCode].unit\r\n                    );\r\n\r\n            }\r\n            \r\n        }\r\n        return true;\r\n    }\r\n    ///////\r\n    function updateOrderiorderName (string memory _orderName) public returns(bool success){\r\n       // return true;\r\n    }\r\n    function rateOrder (string memory _orderName,uint _rate) public returns(bool success){\r\n        bytes32 _orderNameCode = keccak256(abi.encodePacked((_orderName)));\r\n        require(isOrder(_orderNameCode) == true,'order not in system');\r\n        uint nrate = (_rate+OrderArray[_orderNameCode].rate*OrderArray[_orderNameCode].unit)/(OrderArray[_orderNameCode].unit+1);\r\n        OrderArray[_orderNameCode].unit = OrderArray[_orderNameCode].unit + 1;\r\n        OrderArray[_orderNameCode].rate = nrate;\r\n        OrderIndex[OrderArray[_orderNameCode].index].rate = nrate;\r\n        emit LogUpdateOrder(\r\n            _orderNameCode,\r\n            OrderArray[_orderNameCode].index,\r\n            _orderName,\r\n            OrderArray[_orderNameCode].progress,\r\n            OrderArray[_orderNameCode].quntity,\r\n            OrderArray[_orderNameCode].orderAccess,\r\n            nrate,\r\n            OrderArray[_orderNameCode].unit\r\n            );\r\n        return true;\r\n    }\r\n\r\n    function editProgress (string memory _orderName,uint _qty,uint _step) public returns (bool successs){\r\n        \r\n        return true;\r\n    }\r\n    \r\n    // function createOrderPacket (string memory _orderName,uint _unit) public returns(bool success){\r\n    //     bytes32 _orderNameCode = keccak256(abi.encodePacked((_orderName)));\r\n    //     require(isOrder(_orderNameCode) == true,'order not in system');\r\n    //     OrderArray[_orderNameCode].rate = _rate;\r\n    //     OrderIndex[OrderArray[_orderNameCode].index].rate = _rate;\r\n    //     emit LogUpdateOrder(\r\n    //         _orderNameCode,\r\n    //         OrderArray[_orderNameCode].index,\r\n    //         _orderName,\r\n    //         OrderArray[_orderNameCode].progress,\r\n    //         OrderArray[_orderNameCode].quntity,\r\n    //         OrderArray[_orderNameCode].weight,\r\n    //         OrderArray[_orderNameCode].orderAccess,\r\n    //         _rate,\r\n    //         OrderArray[_orderNameCode].contactnumberAndEmail,\r\n    //         OrderArray[_orderNameCode].unit\r\n    //         );\r\n    //     return true;\r\n    // }\r\n}",
  "sourcePath": "C:/project/tea supply chain mangement system/test2/contracts/Order.sol",
  "compiler": {
    "name": "solc",
    "version": "0.5.8+commit.23d335f2.Emscripten.clang"
  },
  "schemaVersion": "3.0.16",
  "updatedAt": "2020-01-13T03:30:36.619Z",
  "devdoc": {
    "methods": {}
  },
  "userdoc": {
    "methods": {
      "updateOrderiorderName(string)": {
        "notice": "////"
      }
    }
  }
}