{
  "contractName": "OrderContract",
  "abi": [
    {
      "anonymous": false,
      "inputs": [
        {
          "indexed": true,
          "internalType": "bytes32",
          "name": "orderNamecode",
          "type": "bytes32"
        },
        {
          "indexed": false,
          "internalType": "uint256",
          "name": "index",
          "type": "uint256"
        }
      ],
      "name": "LogDeleteOrder",
      "type": "event"
    },
    {
      "anonymous": false,
      "inputs": [
        {
          "indexed": true,
          "internalType": "bytes32",
          "name": "orderNameCode",
          "type": "bytes32"
        },
        {
          "indexed": false,
          "internalType": "uint256",
          "name": "index",
          "type": "uint256"
        },
        {
          "indexed": false,
          "internalType": "string",
          "name": "orderName",
          "type": "string"
        },
        {
          "indexed": false,
          "internalType": "string",
          "name": "productName",
          "type": "string"
        },
        {
          "indexed": false,
          "internalType": "string",
          "name": "progress",
          "type": "string"
        },
        {
          "indexed": false,
          "internalType": "uint256",
          "name": "quntity",
          "type": "uint256"
        },
        {
          "indexed": false,
          "internalType": "uint256",
          "name": "orderAccess",
          "type": "uint256"
        },
        {
          "indexed": false,
          "internalType": "uint256",
          "name": "rate",
          "type": "uint256"
        },
        {
          "indexed": false,
          "internalType": "uint256",
          "name": "unit",
          "type": "uint256"
        }
      ],
      "name": "LogNewOrder",
      "type": "event"
    },
    {
      "anonymous": false,
      "inputs": [
        {
          "indexed": true,
          "internalType": "bytes32",
          "name": "orderNameCode",
          "type": "bytes32"
        },
        {
          "indexed": false,
          "internalType": "uint256",
          "name": "index",
          "type": "uint256"
        },
        {
          "indexed": false,
          "internalType": "string",
          "name": "orderName",
          "type": "string"
        },
        {
          "indexed": false,
          "internalType": "string",
          "name": "progress",
          "type": "string"
        },
        {
          "indexed": false,
          "internalType": "uint256",
          "name": "quntity",
          "type": "uint256"
        },
        {
          "indexed": false,
          "internalType": "uint256",
          "name": "orderAccess",
          "type": "uint256"
        },
        {
          "indexed": false,
          "internalType": "uint256",
          "name": "rate",
          "type": "uint256"
        },
        {
          "indexed": false,
          "internalType": "uint256",
          "name": "unit",
          "type": "uint256"
        }
      ],
      "name": "LogUpdateOrder",
      "type": "event"
    },
    {
      "constant": true,
      "inputs": [
        {
          "internalType": "bytes32",
          "name": "",
          "type": "bytes32"
        }
      ],
      "name": "OrderArray",
      "outputs": [
        {
          "internalType": "string",
          "name": "orderName",
          "type": "string"
        },
        {
          "internalType": "bytes32",
          "name": "orderNameCode",
          "type": "bytes32"
        },
        {
          "internalType": "string",
          "name": "productName",
          "type": "string"
        },
        {
          "internalType": "string",
          "name": "progress",
          "type": "string"
        },
        {
          "internalType": "uint256",
          "name": "quntity",
          "type": "uint256"
        },
        {
          "internalType": "uint256",
          "name": "orderAccess",
          "type": "uint256"
        },
        {
          "internalType": "uint256",
          "name": "index",
          "type": "uint256"
        },
        {
          "internalType": "uint256",
          "name": "rate",
          "type": "uint256"
        },
        {
          "internalType": "uint256",
          "name": "unit",
          "type": "uint256"
        }
      ],
      "payable": false,
      "stateMutability": "view",
      "type": "function"
    },
    {
      "constant": true,
      "inputs": [
        {
          "internalType": "bytes32",
          "name": "_orderNameCode",
          "type": "bytes32"
        }
      ],
      "name": "isOrder",
      "outputs": [
        {
          "internalType": "bool",
          "name": "isIndeed",
          "type": "bool"
        }
      ],
      "payable": false,
      "stateMutability": "view",
      "type": "function"
    },
    {
      "constant": false,
      "inputs": [
        {
          "internalType": "string",
          "name": "_orderName",
          "type": "string"
        },
        {
          "internalType": "string",
          "name": "_progress",
          "type": "string"
        },
        {
          "internalType": "uint256",
          "name": "_quntity",
          "type": "uint256"
        },
        {
          "internalType": "string",
          "name": "productName",
          "type": "string"
        }
      ],
      "name": "insertOrder",
      "outputs": [
        {
          "internalType": "bool",
          "name": "",
          "type": "bool"
        }
      ],
      "payable": false,
      "stateMutability": "nonpayable",
      "type": "function"
    },
    {
      "constant": false,
      "inputs": [
        {
          "internalType": "bytes32",
          "name": "_orderNameCode",
          "type": "bytes32"
        }
      ],
      "name": "deleteOrder",
      "outputs": [
        {
          "internalType": "string",
          "name": "",
          "type": "string"
        }
      ],
      "payable": false,
      "stateMutability": "nonpayable",
      "type": "function"
    },
    {
      "constant": true,
      "inputs": [
        {
          "internalType": "string",
          "name": "_orderName",
          "type": "string"
        }
      ],
      "name": "getOrder",
      "outputs": [
        {
          "internalType": "bytes32",
          "name": "",
          "type": "bytes32"
        },
        {
          "internalType": "string",
          "name": "orderName",
          "type": "string"
        },
        {
          "internalType": "string",
          "name": "progress",
          "type": "string"
        },
        {
          "internalType": "uint256",
          "name": "quntity",
          "type": "uint256"
        },
        {
          "internalType": "uint256",
          "name": "orderAccess",
          "type": "uint256"
        },
        {
          "internalType": "uint256",
          "name": "rate",
          "type": "uint256"
        }
      ],
      "payable": false,
      "stateMutability": "view",
      "type": "function"
    },
    {
      "constant": true,
      "inputs": [
        {
          "internalType": "uint256",
          "name": "i",
          "type": "uint256"
        }
      ],
      "name": "getOrderi",
      "outputs": [
        {
          "internalType": "bytes32",
          "name": "",
          "type": "bytes32"
        },
        {
          "internalType": "string",
          "name": "",
          "type": "string"
        },
        {
          "internalType": "string",
          "name": "",
          "type": "string"
        },
        {
          "internalType": "string",
          "name": "",
          "type": "string"
        },
        {
          "internalType": "uint256",
          "name": "",
          "type": "uint256"
        },
        {
          "internalType": "uint256",
          "name": "",
          "type": "uint256"
        },
        {
          "internalType": "uint256",
          "name": "",
          "type": "uint256"
        }
      ],
      "payable": false,
      "stateMutability": "view",
      "type": "function"
    },
    {
      "constant": true,
      "inputs": [],
      "name": "getOrderCount",
      "outputs": [
        {
          "internalType": "uint256",
          "name": "",
          "type": "uint256"
        }
      ],
      "payable": false,
      "stateMutability": "view",
      "type": "function"
    },
    {
      "constant": false,
      "inputs": [
        {
          "internalType": "string",
          "name": "_orderName",
          "type": "string"
        },
        {
          "internalType": "string",
          "name": "_progress",
          "type": "string"
        }
      ],
      "name": "updateOrderOrderProgress",
      "outputs": [
        {
          "internalType": "bool",
          "name": "success",
          "type": "bool"
        }
      ],
      "payable": false,
      "stateMutability": "nonpayable",
      "type": "function"
    },
    {
      "constant": false,
      "inputs": [
        {
          "internalType": "string",
          "name": "_orderName",
          "type": "string"
        },
        {
          "internalType": "uint256",
          "name": "_rate",
          "type": "uint256"
        }
      ],
      "name": "rateOrder",
      "outputs": [
        {
          "internalType": "bool",
          "name": "success",
          "type": "bool"
        }
      ],
      "payable": false,
      "stateMutability": "nonpayable",
      "type": "function"
    }
  ],
  "bytecode": "0x608060405234801561001057600080fd5b50611d39806100206000396000f3fe608060405234801561001057600080fd5b50600436106100935760003560e01c806387a61cbd1161006657806387a61cbd146105a85780638d0a5fbb1461063a578063c4eccb5e14610654578063e56d794f1461077d578063fa207e1a146108fa57610093565b80631c65e0ac146100985780632fec4b2e14610223578063712ca0f8146103ed5780638723555e1461058b575b600080fd5b6100b5600480360360208110156100ae57600080fd5b50356109a0565b60405180806020018a8152602001806020018060200189815260200188815260200187815260200186815260200185815260200184810384528d818151815260200191508051906020019080838360005b8381101561011e578181015183820152602001610106565b50505050905090810190601f16801561014b5780820380516001836020036101000a031916815260200191505b5084810383528b5181528b516020918201918d019080838360005b8381101561017e578181015183820152602001610166565b50505050905090810190601f1680156101ab5780820380516001836020036101000a031916815260200191505b5084810382528a5181528a516020918201918c019080838360005b838110156101de5781810151838201526020016101c6565b50505050905090810190601f16801561020b5780820380516001836020036101000a031916815260200191505b509c5050505050505050505050505060405180910390f35b6103d96004803603608081101561023957600080fd5b810190602081018135600160201b81111561025357600080fd5b82018360208201111561026557600080fd5b803590602001918460018302840111600160201b8311171561028657600080fd5b91908080601f0160208091040260200160405190810160405280939291908181526020018383808284376000920191909152509295949360208101935035915050600160201b8111156102d857600080fd5b8201836020820111156102ea57600080fd5b803590602001918460018302840111600160201b8311171561030b57600080fd5b91908080601f01602080910402602001604051908101604052809392919081815260200183838082843760009201919091525092958435959094909350604081019250602001359050600160201b81111561036557600080fd5b82018360208201111561037757600080fd5b803590602001918460018302840111600160201b8311171561039857600080fd5b91908080601f016020809104026020016040519081016040528093929190818152602001838380828437600092019190915250929550610b90945050505050565b604080519115158252519081900360200190f35b6104916004803603602081101561040357600080fd5b810190602081018135600160201b81111561041d57600080fd5b82018360208201111561042f57600080fd5b803590602001918460018302840111600160201b8311171561045057600080fd5b91908080601f016020809104026020016040519081016040528093929190818152602001838380828437600092019190915250929550610ef1945050505050565b604051808781526020018060200180602001868152602001858152602001848152602001838103835288818151815260200191508051906020019080838360005b838110156104ea5781810151838201526020016104d2565b50505050905090810190601f1680156105175780820380516001836020036101000a031916815260200191505b50838103825287518152875160209182019189019080838360005b8381101561054a578181015183820152602001610532565b50505050905090810190601f1680156105775780820380516001836020036101000a031916815260200191505b509850505050505050505060405180910390f35b6103d9600480360360208110156105a157600080fd5b5035611114565b6105c5600480360360208110156105be57600080fd5b5035611162565b6040805160208082528351818301528351919283929083019185019080838360005b838110156105ff5781810151838201526020016105e7565b50505050905090810190601f16801561062c5780820380516001836020036101000a031916815260200191505b509250505060405180910390f35b61064261128f565b60408051918252519081900360200190f35b6103d96004803603604081101561066a57600080fd5b810190602081018135600160201b81111561068457600080fd5b82018360208201111561069657600080fd5b803590602001918460018302840111600160201b831117156106b757600080fd5b91908080601f0160208091040260200160405190810160405280939291908181526020018383808284376000920191909152509295949360208101935035915050600160201b81111561070957600080fd5b82018360208201111561071b57600080fd5b803590602001918460018302840111600160201b8311171561073c57600080fd5b91908080601f016020809104026020016040519081016040528093929190818152602001838380828437600092019190915250929550611296945050505050565b61079a6004803603602081101561079357600080fd5b5035611564565b6040518088815260200180602001806020018060200187815260200186815260200185815260200184810384528a818151815260200191508051906020019080838360005b838110156107f75781810151838201526020016107df565b50505050905090810190601f1680156108245780820380516001836020036101000a031916815260200191505b5084810383528951815289516020918201918b019080838360005b8381101561085757818101518382015260200161083f565b50505050905090810190601f1680156108845780820380516001836020036101000a031916815260200191505b5084810382528851815288516020918201918a019080838360005b838110156108b757818101518382015260200161089f565b50505050905090810190601f1680156108e45780820380516001836020036101000a031916815260200191505b509a505050505050505050505060405180910390f35b6103d96004803603604081101561091057600080fd5b810190602081018135600160201b81111561092a57600080fd5b82018360208201111561093c57600080fd5b803590602001918460018302840111600160201b8311171561095d57600080fd5b91908080601f016020809104026020016040519081016040528093929190818152602001838380828437600092019190915250929550509135925061180b915050565b6000602081815291815260409081902080548251601f600260001961010060018616150201909316929092049182018590048502810185019093528083529092839190830182828015610a345780601f10610a0957610100808354040283529160200191610a34565b820191906000526020600020905b815481529060010190602001808311610a1757829003601f168201915b505050505090806001015490806002018054600181600116156101000203166002900480601f016020809104026020016040519081016040528092919081815260200182805460018160011615610100020316600290048015610ad85780601f10610aad57610100808354040283529160200191610ad8565b820191906000526020600020905b815481529060010190602001808311610abb57829003601f168201915b5050505060038301805460408051602060026001851615610100026000190190941693909304601f8101849004840282018401909252818152949594935090830182828015610b685780601f10610b3d57610100808354040283529160200191610b68565b820191906000526020600020905b815481529060010190602001808311610b4b57829003601f168201915b5050505050908060040154908060050154908060060154908060070154908060080154905089565b600080856040516020018082805190602001908083835b60208310610bc65780518252601f199092019160209182019101610ba7565b6001836020036101000a038019825116818451168082178552505050505050905001915050604051602081830303815290604052805190602001209050610c0c81611114565b151560011415610c63576040805162461bcd60e51b815260206004820152601760248201527f6f7264657220616c6c7265647920696e2073797374656d000000000000000000604482015290519081900360640190fd5b6000818152602081815260409091208751610c8092890190611c24565b50600081815260208181526040909120600180820184905560058201558651610cb192600390920191880190611c24565b506000818152602081905260408120600481018690556007810182905560080155610cdf8187878688611afd565b50600180805490500360008083815260200190815260200160002060060181905550807fdf3d0fcf4424c4546e08b994b799901b7a16ba51d38374a45b7a44438e0a1bd06000808481526020019081526020016000206006015488868989600080898152602001908152602001600020600501546000808a8152602001908152602001600020600701546000808b8152602001908152602001600020600801546040518089815260200180602001806020018060200188815260200187815260200186815260200185815260200184810384528b818151815260200191508051906020019080838360005b83811015610de2578181015183820152602001610dca565b50505050905090810190601f168015610e0f5780820380516001836020036101000a031916815260200191505b5084810383528a5181528a516020918201918c019080838360005b83811015610e42578181015183820152602001610e2a565b50505050905090810190601f168015610e6f5780820380516001836020036101000a031916815260200191505b5084810382528951815289516020918201918b019080838360005b83811015610ea2578181015183820152602001610e8a565b50505050905090810190601f168015610ecf5780820380516001836020036101000a031916815260200191505b509b50505050505050505050505060405180910390a250600195945050505050565b6000606080600080600080876040516020018082805190602001908083835b60208310610f2f5780518252601f199092019160209182019101610f10565b6001836020036101000a038019825116818451168082178552505050505050905001915050604051602081830303815290604052805190602001209050610f7581611114565b1515600114610fc1576040805162461bcd60e51b81526020600482015260136024820152726f72646572206e6f7420696e2073797374656d60681b604482015290519081900360640190fd5b600081815260208181526040918290206004810154600582015460078301548354865160026001831615610100026000190190921691909104601f810187900487028201870190975286815287969495600387019587918301828280156110695780601f1061103e57610100808354040283529160200191611069565b820191906000526020600020905b81548152906001019060200180831161104c57829003601f168201915b5050875460408051602060026001851615610100026000190190941693909304601f8101849004840282018401909252818152959a50899450925084019050828280156110f75780601f106110cc576101008083540402835291602001916110f7565b820191906000526020600020905b8154815290600101906020018083116110da57829003601f168201915b505050505093509650965096509650965096505091939550919395565b6001546000906111265750600061115d565b60008281526020819052604090206006015460018054849290811061114757fe5b9060005260206000209060080201600001541490505b919050565b6000818152602081905260409020600460058201819055600690910154600180546060939290811061119057fe5b906000526020600020906008020160050181905550817fcf233cbfefe65a6306ab4f9ffff0e9ce38a398c3627a0a623463dd939323ff98600080858152602001908152602001600020600601546040518082815260200191505060405180910390a26000828152602081815260409182902080548351601f6002600019610100600186161502019093169290920491820184900484028101840190945280845290918301828280156112835780601f1061125857610100808354040283529160200191611283565b820191906000526020600020905b81548152906001019060200180831161126657829003601f168201915b50505050509050919050565b6001545b90565b600080836040516020018082805190602001908083835b602083106112cc5780518252601f1990920191602091820191016112ad565b6001836020036101000a03801982511681845116808217855250505050505090500191505060405160208183030381529060405280519060200120905061131281611114565b151560011461135e576040805162461bcd60e51b81526020600482015260136024820152726f72646572206e6f7420696e2073797374656d60681b604482015290519081900360640190fd5b600081815260208181526040909120845161138192600390920191860190611c24565b506000818152602081905260409020600601546001805485929081106113a357fe5b906000526020600020906008020160030190805190602001906113c7929190611c24565b50807f2565072cfed99b84ad56c9faa71584105fc58f4ffd4496bd49399884ffe86b216000808481526020019081526020016000206006015486866000808781526020019081526020016000206004015460008088815260200190815260200160002060050154600080898152602001908152602001600020600701546000808a815260200190815260200160002060080154604051808881526020018060200180602001878152602001868152602001858152602001848152602001838103835289818151815260200191508051906020019080838360005b838110156114b95781810151838201526020016114a1565b50505050905090810190601f1680156114e65780820380516001836020036101000a031916815260200191505b5083810382528851815288516020918201918a019080838360005b83811015611519578181015183820152602001611501565b50505050905090810190601f1680156115465780820380516001836020036101000a031916815260200191505b50995050505050505050505060405180910390a25060019392505050565b6000606080606060008060006001888154811061157d57fe5b9060005260206000209060080201600001546001898154811061159c57fe5b906000526020600020906008020160010160018a815481106115ba57fe5b906000526020600020906008020160020160018b815481106115d857fe5b906000526020600020906008020160030160018c815481106115f657fe5b90600052602060002090600802016004015460018d8154811061161557fe5b90600052602060002090600802016005015460018e8154811061163457fe5b600091825260209182902060066008909202010154865460408051601f6002600019610100600187161502019094169390930492830185900485028101850190915281815291928891908301828280156116cf5780601f106116a4576101008083540402835291602001916116cf565b820191906000526020600020905b8154815290600101906020018083116116b257829003601f168201915b5050885460408051602060026001851615610100026000190190941693909304601f8101849004840282018401909252818152959b508a94509250840190508282801561175d5780601f106117325761010080835404028352916020019161175d565b820191906000526020600020905b81548152906001019060200180831161174057829003601f168201915b5050875460408051602060026001851615610100026000190190941693909304601f8101849004840282018401909252818152959a50899450925084019050828280156117eb5780601f106117c0576101008083540402835291602001916117eb565b820191906000526020600020905b8154815290600101906020018083116117ce57829003601f168201915b505050505093509650965096509650965096509650919395979092949650565b600080836040516020018082805190602001908083835b602083106118415780518252601f199092019160209182019101611822565b6001836020036101000a03801982511681845116808217855250505050505090500191505060405160208183030381529060405280519060200120905061188781611114565b15156001146118d3576040805162461bcd60e51b81526020600482015260136024820152726f72646572206e6f7420696e2073797374656d60681b604482015290519081900360640190fd5b600081815260208190526040812060088101546007909101546001820191028501816118fb57fe5b6000848152602081905260409020600881018054600190810190915592909104600782018190556006909101548254919350839291811061193857fe5b906000526020600020906008020160060181905550817f2565072cfed99b84ad56c9faa71584105fc58f4ffd4496bd49399884ffe86b2160008085815260200190815260200160002060060154876000808781526020019081526020016000206003016000808881526020019081526020016000206004015460008089815260200190815260200160002060050154876000808b815260200190815260200160002060080154604051808881526020018060200180602001878152602001868152602001858152602001848152602001838103835289818151815260200191508051906020019080838360005b83811015611a3d578181015183820152602001611a25565b50505050905090810190601f168015611a6a5780820380516001836020036101000a031916815260200191505b50838103825288546002600019610100600184161502019091160480825260209091019089908015611add5780601f10611ab257610100808354040283529160200191611add565b820191906000526020600020905b815481529060010190602001808311611ac057829003601f168201915b5050995050505050505050505060405180910390a2506001949350505050565b6000611b07611ca2565b8681526020808201878152604083018690526060830187905260808301859052600160a08401819052600060c0850181905260e08501819052815480830180845592909152845160089091027fb10e2d527612073b26eecdfd717e6a320cf44b4afac2b0732d9fcbe2b7fa0cf6810191825592518051929486949293611bb3937fb10e2d527612073b26eecdfd717e6a320cf44b4afac2b0732d9fcbe2b7fa0cf7019290910190611c24565b5060408201518051611bcf916002840191602090910190611c24565b5060608201518051611beb916003840191602090910190611c24565b506080820151600482015560a0820151600582015560c0820151600682015560e090910151600790910155506001979650505050505050565b828054600181600116156101000203166002900490600052602060002090601f016020900481019282601f10611c6557805160ff1916838001178555611c92565b82800160010185558215611c92579182015b82811115611c92578251825591602001919060010190611c77565b50611c9e929150611cea565b5090565b60405180610100016040528060008019168152602001606081526020016060815260200160608152602001600081526020016000815260200160008152602001600081525090565b61129391905b80821115611c9e5760008155600101611cf056fea265627a7a72315820c8df9eb713830d7e94ed0eca50225391fc6a1c3838a5a951f3561d91d06462b064736f6c63430005100032",
  "source": "pragma solidity >=0.4.21 <0.6.0;\n\ncontract OrderContract {\n\n    struct Order{\n        string orderName;\n        bytes32 orderNameCode;\n        string productName;\n        string progress;\n        uint quntity;\n        uint orderAccess;\n        uint index;\n        uint rate;\n        uint unit;\n    }\n\n    struct DisplayOrder{\n        bytes32 orderNameCode;\n        string orderName;\n        string productName;\n        string progress;\n        uint quntity;\n        uint orderAccess;\n        uint rate;\n        uint unit;\n    }\n\n    event LogNewOrder(\n        bytes32 indexed orderNameCode,\n        uint index,string orderName,\n        string productName,\n        string progress,\n        uint quntity,\n        uint orderAccess,\n        uint rate,\n        uint unit\n        );\n    event LogUpdateOrder(\n        bytes32 indexed orderNameCode,\n        uint index,string orderName,\n        string progress,\n        uint quntity,\n        uint orderAccess,\n        uint rate,\n        uint unit\n        );\n    event LogDeleteOrder(\n        bytes32 indexed orderNamecode,\n        uint index\n        );\n\n    mapping(bytes32 => Order) public OrderArray;\n    DisplayOrder[] private OrderIndex;\n\n    function isOrder(bytes32 _orderNameCode)public view returns(bool isIndeed) {\n        if(OrderIndex.length == 0) return false;\n        return (OrderIndex[OrderArray[_orderNameCode].index].orderNameCode == _orderNameCode);\n    }\n\n    function setDisplayOrder\n    (bytes32 _orderNameCode,string memory _orderName,string memory _progress,string memory productName,uint _quntity)\n     private returns(bool){\n\n        DisplayOrder memory displayOrder;\n        displayOrder.orderNameCode = _orderNameCode;\n        displayOrder.orderName = _orderName;\n        displayOrder.productName = productName;\n        displayOrder.progress = _progress;\n        displayOrder.quntity = _quntity;\n        displayOrder.orderAccess = 1;\n        displayOrder.rate = 0;\n        displayOrder.unit = 0;\n        OrderIndex.push(displayOrder);\n        return true;\n\n    }\n    function insertOrder\n    (string memory _orderName,string memory _progress,uint _quntity,string memory productName) public returns(bool){\n        bytes32 _orderNameCode = keccak256(abi.encodePacked((_orderName)));\n        require(isOrder(_orderNameCode) != true,'order allredy in system');\n\n        OrderArray[_orderNameCode].orderName = _orderName;\n        OrderArray[_orderNameCode].orderNameCode = _orderNameCode;\n        OrderArray[_orderNameCode].orderAccess = 1;\n        OrderArray[_orderNameCode].progress = _progress;\n        OrderArray[_orderNameCode].quntity = _quntity;\n        OrderArray[_orderNameCode].rate = 0;\n        OrderArray[_orderNameCode].unit = 0;\n        setDisplayOrder(_orderNameCode,_orderName,_progress,productName,_quntity);\n        OrderArray[_orderNameCode].index = OrderIndex.length-1;\n\n        emit LogNewOrder (\n            _orderNameCode,\n            OrderArray[_orderNameCode].index,\n            _orderName,\n            productName,\n            _progress,\n            _quntity,\n            OrderArray[_orderNameCode].orderAccess,\n            OrderArray[_orderNameCode].rate,\n            OrderArray[_orderNameCode].unit\n            );\n        return true;\n    }\n    function deleteOrder (bytes32 _orderNameCode) public returns(string memory){\n        OrderArray[_orderNameCode].orderAccess = 4;\n        OrderIndex[OrderArray[_orderNameCode].index].orderAccess = 4;\n        emit LogDeleteOrder(\n            _orderNameCode,\n            OrderArray[_orderNameCode].index\n        );\n        return  OrderArray[_orderNameCode].orderName;\n    }\n\n    function getOrder(string memory _orderName) public view returns\n    (bytes32,string memory orderName,string memory progress,uint quntity,\n    uint orderAccess,uint rate){\n        bytes32 _orderNameCode = keccak256(abi.encodePacked((_orderName)));\n        require(isOrder(_orderNameCode) == true,'order not in system');\n        return(\n            _orderNameCode,\n            OrderArray[_orderNameCode].orderName,\n            OrderArray[_orderNameCode].progress,\n            OrderArray[_orderNameCode].quntity,\n            OrderArray[_orderNameCode].orderAccess,\n            OrderArray[_orderNameCode].rate\n            );\n    }\n    function getOrderi(uint i) public view returns(\n        bytes32,\n        string memory,\n        string memory,\n        string memory,\n        uint,\n        uint,\n        uint\n        ){\n            return (\n                OrderIndex[i].orderNameCode,\n                OrderIndex[i].orderName,\n                OrderIndex[i].productName,\n                OrderIndex[i].progress,\n                OrderIndex[i].quntity,\n                OrderIndex[i].orderAccess,\n                OrderIndex[i].rate\n                );\n    }\n    function getOrderCount() public view returns(uint)\n    {\n        return OrderIndex.length;\n    }\n\n    function updateOrderOrderProgress (string memory _orderName,string memory _progress) public returns(bool success){\n        bytes32 _orderNameCode = keccak256(abi.encodePacked((_orderName)));\n        require(isOrder(_orderNameCode) == true,'order not in system');\n        OrderArray[_orderNameCode].progress = _progress;\n        OrderIndex[OrderArray[_orderNameCode].index].progress = _progress;\n        emit LogUpdateOrder(\n            _orderNameCode,\n            OrderArray[_orderNameCode].index,\n            _orderName,\n            _progress,\n            OrderArray[_orderNameCode].quntity,\n            OrderArray[_orderNameCode].orderAccess,\n            OrderArray[_orderNameCode].rate,\n            OrderArray[_orderNameCode].unit\n            );\n        return true;\n    }\n\n    function rateOrder (string memory _orderName,uint _rate) public returns(bool success){\n        bytes32 _orderNameCode = keccak256(abi.encodePacked((_orderName)));\n        require(isOrder(_orderNameCode) == true,'order not in system');\n        uint nrate = (_rate+OrderArray[_orderNameCode].rate*OrderArray[_orderNameCode].unit)/(OrderArray[_orderNameCode].unit+1);\n        OrderArray[_orderNameCode].unit = OrderArray[_orderNameCode].unit + 1;\n        OrderArray[_orderNameCode].rate = nrate;\n        OrderIndex[OrderArray[_orderNameCode].index].rate = nrate;\n        emit LogUpdateOrder(\n            _orderNameCode,\n            OrderArray[_orderNameCode].index,\n            _orderName,\n            OrderArray[_orderNameCode].progress,\n            OrderArray[_orderNameCode].quntity,\n            OrderArray[_orderNameCode].orderAccess,\n            nrate,\n            OrderArray[_orderNameCode].unit\n            );\n        return true;\n    }\n    \n}",
  "sourcePath": "/home/ubuntu/tea-supplychain-manege-system/test2/contracts/Order.sol",
  "compiler": {
    "name": "solc",
    "version": "0.5.16+commit.9c3226ce.Emscripten.clang"
  },
  "schemaVersion": "3.0.23",
  "updatedAt": "2020-02-14T13:53:54.600Z",
  "networkType": "ethereum",
  "devdoc": {
    "methods": {}
  },
  "userdoc": {
    "methods": {}
  }
}