{
  "contractName": "PacketContract",
  "abi": [
    {
      "anonymous": false,
      "inputs": [
        {
          "indexed": true,
          "internalType": "bytes32",
          "name": "packetIdcode",
          "type": "bytes32"
        },
        {
          "indexed": false,
          "internalType": "uint256",
          "name": "index",
          "type": "uint256"
        }
      ],
      "name": "LogDeletePacket",
      "type": "event"
    },
    {
      "anonymous": false,
      "inputs": [
        {
          "indexed": true,
          "internalType": "bytes32",
          "name": "packetIdCode",
          "type": "bytes32"
        },
        {
          "indexed": false,
          "internalType": "uint256",
          "name": "index",
          "type": "uint256"
        },
        {
          "indexed": false,
          "internalType": "string",
          "name": "packetId",
          "type": "string"
        },
        {
          "indexed": false,
          "internalType": "string",
          "name": "oderId",
          "type": "string"
        }
      ],
      "name": "LogNewPacket",
      "type": "event"
    },
    {
      "constant": true,
      "inputs": [
        {
          "internalType": "bytes32",
          "name": "",
          "type": "bytes32"
        }
      ],
      "name": "OrderArray",
      "outputs": [
        {
          "internalType": "bytes32",
          "name": "orderIdCode",
          "type": "bytes32"
        },
        {
          "internalType": "string",
          "name": "orderId",
          "type": "string"
        },
        {
          "internalType": "string",
          "name": "packetId",
          "type": "string"
        },
        {
          "internalType": "uint256",
          "name": "index",
          "type": "uint256"
        },
        {
          "internalType": "uint256",
          "name": "quantity",
          "type": "uint256"
        }
      ],
      "payable": false,
      "stateMutability": "view",
      "type": "function"
    },
    {
      "constant": true,
      "inputs": [
        {
          "internalType": "bytes32",
          "name": "",
          "type": "bytes32"
        }
      ],
      "name": "PacketArray",
      "outputs": [
        {
          "internalType": "string",
          "name": "packetId",
          "type": "string"
        },
        {
          "internalType": "bytes32",
          "name": "packetIdCode",
          "type": "bytes32"
        },
        {
          "internalType": "string",
          "name": "orderId",
          "type": "string"
        },
        {
          "internalType": "string",
          "name": "boxId",
          "type": "string"
        },
        {
          "internalType": "uint256",
          "name": "index",
          "type": "uint256"
        },
        {
          "internalType": "uint256",
          "name": "rate",
          "type": "uint256"
        }
      ],
      "payable": false,
      "stateMutability": "view",
      "type": "function"
    },
    {
      "constant": true,
      "inputs": [
        {
          "internalType": "string",
          "name": "_packetId",
          "type": "string"
        }
      ],
      "name": "isPacket",
      "outputs": [
        {
          "internalType": "bool",
          "name": "isIndeed",
          "type": "bool"
        }
      ],
      "payable": false,
      "stateMutability": "view",
      "type": "function"
    },
    {
      "constant": true,
      "inputs": [
        {
          "internalType": "bytes32",
          "name": "_packetIdCode",
          "type": "bytes32"
        }
      ],
      "name": "isPacketx",
      "outputs": [
        {
          "internalType": "bool",
          "name": "isIndeed",
          "type": "bool"
        }
      ],
      "payable": false,
      "stateMutability": "view",
      "type": "function"
    },
    {
      "constant": false,
      "inputs": [
        {
          "internalType": "string",
          "name": "_packetId",
          "type": "string"
        },
        {
          "internalType": "string",
          "name": "_orderId",
          "type": "string"
        },
        {
          "internalType": "string",
          "name": "_boxId",
          "type": "string"
        }
      ],
      "name": "insertPacket",
      "outputs": [
        {
          "internalType": "bool",
          "name": "",
          "type": "bool"
        }
      ],
      "payable": false,
      "stateMutability": "nonpayable",
      "type": "function"
    },
    {
      "constant": true,
      "inputs": [
        {
          "internalType": "string",
          "name": "_packetId",
          "type": "string"
        }
      ],
      "name": "getPacket",
      "outputs": [
        {
          "internalType": "bytes32",
          "name": "packetIdCode",
          "type": "bytes32"
        },
        {
          "internalType": "string",
          "name": "packetId",
          "type": "string"
        },
        {
          "internalType": "string",
          "name": "orderId",
          "type": "string"
        },
        {
          "internalType": "string",
          "name": "boxId",
          "type": "string"
        },
        {
          "internalType": "uint256",
          "name": "rate",
          "type": "uint256"
        }
      ],
      "payable": false,
      "stateMutability": "view",
      "type": "function"
    },
    {
      "constant": true,
      "inputs": [
        {
          "internalType": "uint256",
          "name": "i",
          "type": "uint256"
        }
      ],
      "name": "getPacketi",
      "outputs": [
        {
          "internalType": "bytes32",
          "name": "packetIdCode",
          "type": "bytes32"
        },
        {
          "internalType": "string",
          "name": "packetId",
          "type": "string"
        },
        {
          "internalType": "string",
          "name": "orderId",
          "type": "string"
        },
        {
          "internalType": "string",
          "name": "boxId",
          "type": "string"
        }
      ],
      "payable": false,
      "stateMutability": "view",
      "type": "function"
    },
    {
      "constant": false,
      "inputs": [
        {
          "internalType": "string",
          "name": "_orderId",
          "type": "string"
        },
        {
          "internalType": "uint256",
          "name": "quantity",
          "type": "uint256"
        }
      ],
      "name": "insertOrder",
      "outputs": [
        {
          "internalType": "bool",
          "name": "",
          "type": "bool"
        }
      ],
      "payable": false,
      "stateMutability": "nonpayable",
      "type": "function"
    },
    {
      "constant": true,
      "inputs": [
        {
          "internalType": "string",
          "name": "_orderId",
          "type": "string"
        }
      ],
      "name": "getOrder",
      "outputs": [
        {
          "internalType": "bytes32",
          "name": "orderIdCode",
          "type": "bytes32"
        },
        {
          "internalType": "string",
          "name": "orderId",
          "type": "string"
        },
        {
          "internalType": "uint256",
          "name": "index",
          "type": "uint256"
        },
        {
          "internalType": "uint256",
          "name": "quantity",
          "type": "uint256"
        }
      ],
      "payable": false,
      "stateMutability": "view",
      "type": "function"
    },
    {
      "constant": true,
      "inputs": [],
      "name": "getLastPacket",
      "outputs": [
        {
          "internalType": "string",
          "name": "",
          "type": "string"
        }
      ],
      "payable": false,
      "stateMutability": "view",
      "type": "function"
    }
  ],
  "bytecode": "0x608060405234801561001057600080fd5b50611ca5806100206000396000f3fe608060405234801561001057600080fd5b506004361061009e5760003560e01c8063931c8a9011610066578063931c8a9014610637578063b901ad551461082d578063bbd209651461084a578063ec53b85e146108c7578063f9c031371461096d5761009e565b806315698139146100a35780631c65e0ac1461020b5780634187ecdd146102d857806364aa35a81461044e578063712ca0f814610506575b600080fd5b6100c0600480360360208110156100b957600080fd5b5035610b1b565b60405180858152602001806020018060200180602001848103845287818151815260200191508051906020019080838360005b8381101561010b5781810151838201526020016100f3565b50505050905090810190601f1680156101385780820380516001836020036101000a031916815260200191505b50848103835286518152865160209182019188019080838360005b8381101561016b578181015183820152602001610153565b50505050905090810190601f1680156101985780820380516001836020036101000a031916815260200191505b50848103825285518152855160209182019187019080838360005b838110156101cb5781810151838201526020016101b3565b50505050905090810190601f1680156101f85780820380516001836020036101000a031916815260200191505b5097505050505050505060405180910390f35b6102286004803603602081101561022157600080fd5b5035610d62565b604051808681526020018060200180602001858152602001848152602001838103835287818151815260200191508051906020019080838360005b8381101561027b578181015183820152602001610263565b50505050905090810190601f1680156102a85780820380516001836020036101000a031916815260200191505b508381038252865181528651602091820191880190808383600083156101cb5781810151838201526020016101b3565b6102f5600480360360208110156102ee57600080fd5b5035610ea6565b6040518080602001878152602001806020018060200186815260200185815260200184810384528a818151815260200191508051906020019080838360005b8381101561034c578181015183820152602001610334565b50505050905090810190601f1680156103795780820380516001836020036101000a031916815260200191505b5084810383528851815288516020918201918a019080838360005b838110156103ac578181015183820152602001610394565b50505050905090810190601f1680156103d95780820380516001836020036101000a031916815260200191505b50848103825287518152875160209182019189019080838360005b8381101561040c5781810151838201526020016103f4565b50505050905090810190601f1680156104395780820380516001836020036101000a031916815260200191505b50995050505050505050505060405180910390f35b6104f26004803603602081101561046457600080fd5b810190602081018135600160201b81111561047e57600080fd5b82018360208201111561049057600080fd5b803590602001918460018302840111600160201b831117156104b157600080fd5b91908080601f016020809104026020016040519081016040528093929190818152602001838380828437600092019190915250929550611084945050505050565b604080519115158252519081900360200190f35b6105aa6004803603602081101561051c57600080fd5b810190602081018135600160201b81111561053657600080fd5b82018360208201111561054857600080fd5b803590602001918460018302840111600160201b8311171561056957600080fd5b91908080601f01602080910402602001604051908101604052809392919081815260200183838082843760009201919091525092955061114c945050505050565b6040518085815260200180602001848152602001838152602001828103825285818151815260200191508051906020019080838360005b838110156105f95781810151838201526020016105e1565b50505050905090810190601f1680156106265780820380516001836020036101000a031916815260200191505b509550505050505060405180910390f35b6106db6004803603602081101561064d57600080fd5b810190602081018135600160201b81111561066757600080fd5b82018360208201111561067957600080fd5b803590602001918460018302840111600160201b8311171561069a57600080fd5b91908080601f016020809104026020016040519081016040528093929190818152602001838380828437600092019190915250929550611284945050505050565b60405180868152602001806020018060200180602001858152602001848103845288818151815260200191508051906020019080838360005b8381101561072c578181015183820152602001610714565b50505050905090810190601f1680156107595780820380516001836020036101000a031916815260200191505b50848103835287518152875160209182019189019080838360005b8381101561078c578181015183820152602001610774565b50505050905090810190601f1680156107b95780820380516001836020036101000a031916815260200191505b50848103825286518152865160209182019188019080838360005b838110156107ec5781810151838201526020016107d4565b50505050905090810190601f1680156108195780820380516001836020036101000a031916815260200191505b509850505050505050505060405180910390f35b6104f26004803603602081101561084357600080fd5b503561152e565b61085261157b565b6040805160208082528351818301528351919283929083019185019080838360005b8381101561088c578181015183820152602001610874565b50505050905090810190601f1680156108b95780820380516001836020036101000a031916815260200191505b509250505060405180910390f35b6104f2600480360360408110156108dd57600080fd5b810190602081018135600160201b8111156108f757600080fd5b82018360208201111561090957600080fd5b803590602001918460018302840111600160201b8311171561092a57600080fd5b91908080601f0160208091040260200160405190810160405280939291908181526020018383808284376000920191909152509295505091359250611653915050565b6104f26004803603606081101561098357600080fd5b810190602081018135600160201b81111561099d57600080fd5b8201836020820111156109af57600080fd5b803590602001918460018302840111600160201b831117156109d057600080fd5b91908080601f0160208091040260200160405190810160405280939291908181526020018383808284376000920191909152509295949360208101935035915050600160201b811115610a2257600080fd5b820183602082011115610a3457600080fd5b803590602001918460018302840111600160201b83111715610a5557600080fd5b91908080601f0160208091040260200160405190810160405280939291908181526020018383808284376000920191909152509295949360208101935035915050600160201b811115610aa757600080fd5b820183602082011115610ab957600080fd5b803590602001918460018302840111600160201b83111715610ada57600080fd5b91908080601f0160208091040260200160405190810160405280939291908181526020018383808284376000920191909152509295506117cf945050505050565b6000606080606060028581548110610b2f57fe5b90600052602060002090600502016001015460028681548110610b4e57fe5b906000526020600020906005020160000160028781548110610b6c57fe5b906000526020600020906005020160020160028881548110610b8a57fe5b9060005260206000209060050201600301828054600181600116156101000203166002900480601f016020809104026020016040519081016040528092919081815260200182805460018160011615610100020316600290048015610c305780601f10610c0557610100808354040283529160200191610c30565b820191906000526020600020905b815481529060010190602001808311610c1357829003601f168201915b5050855460408051602060026001851615610100026000190190941693909304601f810184900484028201840190925281815295985087945092508401905082828015610cbe5780601f10610c9357610100808354040283529160200191610cbe565b820191906000526020600020905b815481529060010190602001808311610ca157829003601f168201915b5050845460408051602060026001851615610100026000190190941693909304601f810184900484028201840190925281815295975086945092508401905082828015610d4c5780601f10610d2157610100808354040283529160200191610d4c565b820191906000526020600020905b815481529060010190602001808311610d2f57829003601f168201915b5050505050905093509350935093509193509193565b600160208181526000928352604092839020805481840180548651600296821615610100026000190190911695909504601f81018590048502860185019096528585529094919392909190830182828015610dfe5780601f10610dd357610100808354040283529160200191610dfe565b820191906000526020600020905b815481529060010190602001808311610de157829003601f168201915b50505060028085018054604080516020601f6000196101006001871615020190941695909504928301859004850281018501909152818152959695945090925090830182828015610e905780601f10610e6557610100808354040283529160200191610e90565b820191906000526020600020905b815481529060010190602001808311610e7357829003601f168201915b5050505050908060030154908060040154905085565b6000602081815291815260409081902080548251601f600260001961010060018616150201909316929092049182018590048502810185019093528083529092839190830182828015610f3a5780601f10610f0f57610100808354040283529160200191610f3a565b820191906000526020600020905b815481529060010190602001808311610f1d57829003601f168201915b505050505090806001015490806002018054600181600116156101000203166002900480601f016020809104026020016040519081016040528092919081815260200182805460018160011615610100020316600290048015610fde5780601f10610fb357610100808354040283529160200191610fde565b820191906000526020600020905b815481529060010190602001808311610fc157829003601f168201915b5050505060038301805460408051602060026001851615610100026000190190941693909304601f810184900484028201840190925281815294959493509083018282801561106e5780601f106110435761010080835404028352916020019161106e565b820191906000526020600020905b81548152906001019060200180831161105157829003601f168201915b5050505050908060040154908060050154905086565b600080826040516020018082805190602001908083835b602083106110ba5780518252601f19909201916020918201910161109b565b6001836020036101000a0380198251168184511680821785525050505050509050019150506040516020818303038152906040528051906020012090506002805490506000141561110f576000915050611147565b60008181526020819052604090206004015460028054839290811061113057fe5b906000526020600020906005020160010154149150505b919050565b600060606000806000856040516020018082805190602001908083835b602083106111885780518252601f199092019160209182019101611169565b518151602093840361010090810a600019908101801990941693909216929092179092526040805194909601848103601f190185528087528451948401949094206000818152600180865290889020805460038201546004830154928401805460029581161590970290970190951692909204601f8101879004870288018701909952888752919a50985091965094909350859183018282801561126d5780601f106112425761010080835404028352916020019161126d565b820191906000526020600020905b81548152906001019060200180831161125057829003601f168201915b505050505092509450945094509450509193509193565b60006060806060600080866040516020018082805190602001908083835b602083106112c15780518252601f1990920191602091820191016112a2565b6001836020036101000a0380198251168184511680821785525050505050509050019150506040516020818303038152906040528051906020012090506113078161152e565b1515600114611354576040805162461bcd60e51b81526020600482015260146024820152737061636b6574206e6f7420696e2073797374656d60601b604482015290519081900360640190fd5b60008181526020818152604091829020600581015481548451600260018316156101000260001901909216829004601f810186900486028201860190965285815286959394918501936003860193928691908301828280156113f75780601f106113cc576101008083540402835291602001916113f7565b820191906000526020600020905b8154815290600101906020018083116113da57829003601f168201915b5050865460408051602060026001851615610100026000190190941693909304601f8101849004840282018401909252818152959950889450925084019050828280156114855780601f1061145a57610100808354040283529160200191611485565b820191906000526020600020905b81548152906001019060200180831161146857829003601f168201915b5050855460408051602060026001851615610100026000190190941693909304601f8101849004840282018401909252818152959850879450925084019050828280156115135780601f106114e857610100808354040283529160200191611513565b820191906000526020600020905b8154815290600101906020018083116114f657829003601f168201915b50505050509150955095509550955095505091939590929450565b60025460009061154057506000611147565b60008281526020819052604090206004015460028054849290811061156157fe5b906000526020600020906005020160010154149050919050565b6002546060906115a357506040805180820190915260018152600360fc1b6020820152611650565b6002805460001981019081106115b557fe5b6000918252602091829020600590910201805460408051601f60026000196101006001871615020190941693909304928301859004850281018501909152818152928301828280156116485780601f1061161d57610100808354040283529160200191611648565b820191906000526020600020905b81548152906001019060200180831161162b57829003601f168201915b505050505090505b90565b600080836040516020018082805190602001908083835b602083106116895780518252601f19909201916020918201910161166a565b6001836020036101000a0380198251168184511680821785525050505050509050019150506040516020818303038152906040528051906020012090506116cf8161152e565b151560011415611721576040805162461bcd60e51b81526020600482015260186024820152777061636b657420616c6c7265647920696e2073797374656d60401b604482015290519081900360640190fd5b6000818152600160208181526040909220865161174693919092019190870190611b31565b506000818152600160205260409020818155600280546000199081016003840155600490920185905580549091810190811061177e57fe5b90600052602060002090600502016000016001600083815260200190815260200160002060020190805460018160011615610100020316600290046117c4929190611baf565b506001949350505050565b600080846040516020018082805190602001908083835b602083106118055780518252601f1990920191602091820191016117e6565b6001836020036101000a03801982511681845116808217855250505050505090500191505060405160208183030381529060405280519060200120905061184b8161152e565b15156001141561189d576040805162461bcd60e51b81526020600482015260186024820152777061636b657420616c6c7265647920696e2073797374656d60401b604482015290519081900360640190fd5b60008181526020818152604090912086516118ba92880190611b31565b506000818152602081815260409091206001810183905585516118e592600290920191870190611b31565b50600081815260208181526040909120845161190992600390920191860190611b31565b5060008181526020819052604081206005015561192881868686611a61565b506002546000828152602081815260408083206000199094016004909401849055805184815260608184018181528b51918301919091528a5187967fc862a783a3fe425ea5e37e9141011f6dcbb98727eff608e5e910dc1f897954aa9690958d958d959493908501926080860192880191908190849084905b838110156119b95781810151838201526020016119a1565b50505050905090810190601f1680156119e65780820380516001836020036101000a031916815260200191505b50838103825284518152845160209182019186019080838360005b83811015611a19578181015183820152602001611a01565b50505050905090810190601f168015611a465780820380516001836020036101000a031916815260200191505b509550505050505060405180910390a2506001949350505050565b6000611a6b611c24565b6020808201879052858252604082018590526060820184905260006080830181905260028054600181018083559190925283518051919385936005027f405787fa12a823e0f2b7631cc41b3ba8828b3321ca811111fa75cd3aa3bb5ace0192611ad79284920190611b31565b50602082810151600183015560408301518051611afa9260028501920190611b31565b5060608201518051611b16916003840191602090910190611b31565b50608082015181600401555050506001915050949350505050565b828054600181600116156101000203166002900490600052602060002090601f016020900481019282601f10611b7257805160ff1916838001178555611b9f565b82800160010185558215611b9f579182015b82811115611b9f578251825591602001919060010190611b84565b50611bab929150611c56565b5090565b828054600181600116156101000203166002900490600052602060002090601f016020900481019282601f10611be85780548555611b9f565b82800160010185558215611b9f57600052602060002091601f016020900482015b82811115611b9f578254825591600101919060010190611c09565b6040518060a0016040528060608152602001600080191681526020016060815260200160608152602001600081525090565b61165091905b80821115611bab5760008155600101611c5c56fea265627a7a72315820eac3f11ea68a9eefa0343de2ea9f8d9f10b9b84086bc2f6945645a63efc0986464736f6c634300050c0032",
  "source": "pragma solidity >=0.4.21 <0.6.0;\r\n\r\ncontract PacketContract {\r\n\r\n\r\n    struct Packet{\r\n        string packetId;\r\n        bytes32 packetIdCode;\r\n        string orderId;\r\n        string boxId;\r\n        uint index;\r\n        uint rate;\r\n    }\r\n\r\n    struct Order{\r\n        bytes32 orderIdCode;\r\n        string orderId;\r\n        string packetId;\r\n        uint index;\r\n        uint quantity;\r\n    }\r\n\r\n    struct DisplayPacket{\r\n        string packetId;\r\n        bytes32 packetIdCode;\r\n        string orderId;\r\n        string boxId;\r\n        uint rate;\r\n    }\r\n\r\n    event LogNewPacket(\r\n        bytes32 indexed packetIdCode,\r\n        uint index,\r\n        string packetId,\r\n        string oderId\r\n        );\r\n    event LogDeletePacket(\r\n        bytes32 indexed packetIdcode,\r\n        uint index\r\n        );\r\n\r\n    mapping(bytes32 => Packet) public PacketArray;\r\n    mapping(bytes32 => Order) public OrderArray;\r\n    DisplayPacket[] private PacketIndex;\r\n\r\n    function isPacket(string memory _packetId)public view returns(bool isIndeed) {\r\n        bytes32 _packetIdCode = keccak256(abi.encodePacked((_packetId)));\r\n        if(PacketIndex.length == 0) return false;\r\n        return (PacketIndex[PacketArray[_packetIdCode].index].packetIdCode == _packetIdCode);\r\n    }\r\n    function isPacketx(bytes32 _packetIdCode)public view returns(bool isIndeed) {\r\n        if(PacketIndex.length == 0) return false;\r\n        return (PacketIndex[PacketArray[_packetIdCode].index].packetIdCode == _packetIdCode);\r\n    }\r\n    function setDisplayPacket\r\n    (bytes32 _packetIdCode,string memory _packetId,string memory _orderId,string memory _boxId)\r\n     private returns(bool){\r\n\r\n        DisplayPacket memory displayPacket;\r\n        displayPacket.packetIdCode = _packetIdCode;\r\n        displayPacket.packetId = _packetId;\r\n        displayPacket.orderId = _orderId;\r\n        displayPacket.boxId = _boxId;\r\n        displayPacket.rate = 0;\r\n        PacketIndex.push(displayPacket);\r\n        return true;\r\n\r\n    }\r\n    function insertPacket\r\n    (string memory _packetId,string memory _orderId,string memory _boxId) public returns(bool){\r\n        bytes32 _packetIdCode = keccak256(abi.encodePacked((_packetId)));\r\n        require(isPacketx(_packetIdCode) != true,'packet allredy in system');\r\n\r\n        PacketArray[_packetIdCode].packetId = _packetId;\r\n        PacketArray[_packetIdCode].packetIdCode = _packetIdCode;\r\n        PacketArray[_packetIdCode].orderId = _orderId;\r\n        PacketArray[_packetIdCode].boxId = _boxId;\r\n        PacketArray[_packetIdCode].rate = 0;\r\n        setDisplayPacket(_packetIdCode,_packetId,_orderId,_boxId);\r\n        PacketArray[_packetIdCode].index = PacketIndex.length-1;\r\n\r\n        emit LogNewPacket (\r\n            _packetIdCode,\r\n            PacketArray[_packetIdCode].index,\r\n            _packetId,\r\n            _orderId\r\n            );\r\n        return true;\r\n    }\r\n\r\n    function getPacket(string memory _packetId) public view returns\r\n    (bytes32 packetIdCode,string memory packetId,string memory orderId,string memory boxId,uint rate){\r\n        bytes32 _packetIdCode = keccak256(abi.encodePacked((_packetId)));\r\n        require(isPacketx(_packetIdCode) == true,'packet not in system');\r\n        return(\r\n            _packetIdCode,\r\n            PacketArray[_packetIdCode].packetId,\r\n            PacketArray[_packetIdCode].orderId,\r\n            PacketArray[_packetIdCode].boxId,\r\n            PacketArray[_packetIdCode].rate\r\n            );\r\n\r\n    }\r\n\r\n    function getPacketi(uint i) public view returns\r\n    (bytes32 packetIdCode,string memory packetId,string memory orderId,string memory boxId){\r\n        return(\r\n            PacketIndex[i].packetIdCode,\r\n            PacketIndex[i].packetId,\r\n            PacketIndex[i].orderId,\r\n            PacketIndex[i].boxId\r\n            );\r\n\r\n    }\r\n\r\n    function insertOrder\r\n    (string memory _orderId,uint quantity) public returns(bool){\r\n        bytes32 _orderIdCode = keccak256(abi.encodePacked((_orderId)));\r\n        require(isPacketx(_orderIdCode) != true,'packet allredy in system');\r\n\r\n        OrderArray[_orderIdCode].orderId = _orderId;\r\n        OrderArray[_orderIdCode].orderIdCode = _orderIdCode;\r\n        OrderArray[_orderIdCode].index = PacketIndex.length-1;\r\n        OrderArray[_orderIdCode].quantity = quantity;\r\n        OrderArray[_orderIdCode].packetId = PacketIndex[PacketIndex.length-1].packetId;\r\n\r\n        return true;\r\n    }\r\n\r\n    function getOrder\r\n    (string memory _orderId) public view returns(\r\n        bytes32 orderIdCode,string memory orderId,uint index,uint quantity\r\n    ){\r\n        bytes32 _orderIdCode = keccak256(abi.encodePacked((_orderId)));\r\n\r\n        return(\r\n        OrderArray[_orderIdCode].orderIdCode,\r\n        OrderArray[_orderIdCode].orderId,\r\n        OrderArray[_orderIdCode].index,\r\n        OrderArray[_orderIdCode].quantity\r\n        );\r\n    }\r\n\r\n     function getLastPacket() public view returns(string memory){\r\n        if(PacketIndex.length == 0){\r\n            return '0';\r\n        } else{\r\n            return PacketIndex[PacketIndex.length - 1].packetId;\r\n        }\r\n    }\r\n\r\n}",
  "sourcePath": "C:/project/tea supply chain mangement system/test2/contracts/Packet.sol",
  "compiler": {
    "name": "solc",
    "version": "0.5.12+commit.7709ece9.Emscripten.clang"
  },
  "schemaVersion": "3.0.20",
  "updatedAt": "2020-02-13T05:40:10.270Z",
  "networkType": "ethereum",
  "devdoc": {
    "methods": {}
  },
  "userdoc": {
    "methods": {}
  }
}