{
  "contractName": "ProductContract",
  "abi": [
    {
      "anonymous": false,
      "inputs": [
        {
          "indexed": true,
          "internalType": "bytes32",
          "name": "productNamecode",
          "type": "bytes32"
        },
        {
          "indexed": false,
          "internalType": "uint256",
          "name": "index",
          "type": "uint256"
        }
      ],
      "name": "LogDeleteProduct",
      "type": "event"
    },
    {
      "anonymous": false,
      "inputs": [
        {
          "indexed": true,
          "internalType": "bytes32",
          "name": "productNameCode",
          "type": "bytes32"
        },
        {
          "indexed": false,
          "internalType": "uint256",
          "name": "index",
          "type": "uint256"
        },
        {
          "indexed": false,
          "internalType": "string",
          "name": "productName",
          "type": "string"
        },
        {
          "indexed": false,
          "internalType": "string",
          "name": "flaver",
          "type": "string"
        },
        {
          "indexed": false,
          "internalType": "string",
          "name": "packetTypeAndWeight",
          "type": "string"
        },
        {
          "indexed": false,
          "internalType": "uint256",
          "name": "productAccess",
          "type": "uint256"
        },
        {
          "indexed": false,
          "internalType": "uint256",
          "name": "rate",
          "type": "uint256"
        },
        {
          "indexed": false,
          "internalType": "uint256",
          "name": "price",
          "type": "uint256"
        },
        {
          "indexed": false,
          "internalType": "uint256",
          "name": "unit",
          "type": "uint256"
        }
      ],
      "name": "LogNewProduct",
      "type": "event"
    },
    {
      "anonymous": false,
      "inputs": [
        {
          "indexed": true,
          "internalType": "bytes32",
          "name": "productNameCode",
          "type": "bytes32"
        },
        {
          "indexed": false,
          "internalType": "uint256",
          "name": "index",
          "type": "uint256"
        },
        {
          "indexed": false,
          "internalType": "string",
          "name": "productName",
          "type": "string"
        },
        {
          "indexed": false,
          "internalType": "string",
          "name": "flaver",
          "type": "string"
        },
        {
          "indexed": false,
          "internalType": "string",
          "name": "packetTypeAndWeight",
          "type": "string"
        },
        {
          "indexed": false,
          "internalType": "uint256",
          "name": "productAccess",
          "type": "uint256"
        },
        {
          "indexed": false,
          "internalType": "uint256",
          "name": "rate",
          "type": "uint256"
        },
        {
          "indexed": false,
          "internalType": "uint256",
          "name": "price",
          "type": "uint256"
        },
        {
          "indexed": false,
          "internalType": "uint256",
          "name": "unit",
          "type": "uint256"
        }
      ],
      "name": "LogUpdateProduct",
      "type": "event"
    },
    {
      "constant": true,
      "inputs": [
        {
          "internalType": "bytes32",
          "name": "",
          "type": "bytes32"
        }
      ],
      "name": "ProductArray",
      "outputs": [
        {
          "internalType": "string",
          "name": "productName",
          "type": "string"
        },
        {
          "internalType": "bytes32",
          "name": "productNameCode",
          "type": "bytes32"
        },
        {
          "internalType": "string",
          "name": "flaver",
          "type": "string"
        },
        {
          "internalType": "string",
          "name": "packetTypeAndWeight",
          "type": "string"
        },
        {
          "internalType": "uint256",
          "name": "productAccess",
          "type": "uint256"
        },
        {
          "internalType": "uint256",
          "name": "index",
          "type": "uint256"
        },
        {
          "internalType": "uint256",
          "name": "rate",
          "type": "uint256"
        },
        {
          "internalType": "uint256",
          "name": "price",
          "type": "uint256"
        },
        {
          "internalType": "uint256",
          "name": "unit",
          "type": "uint256"
        }
      ],
      "payable": false,
      "stateMutability": "view",
      "type": "function"
    },
    {
      "constant": true,
      "inputs": [
        {
          "internalType": "bytes32",
          "name": "_productNameCode",
          "type": "bytes32"
        }
      ],
      "name": "isProduct",
      "outputs": [
        {
          "internalType": "bool",
          "name": "isIndeed",
          "type": "bool"
        }
      ],
      "payable": false,
      "stateMutability": "view",
      "type": "function"
    },
    {
      "constant": false,
      "inputs": [
        {
          "internalType": "string",
          "name": "_productName",
          "type": "string"
        },
        {
          "internalType": "string",
          "name": "_flaver",
          "type": "string"
        },
        {
          "internalType": "string",
          "name": "_packetTypeAndWeight",
          "type": "string"
        },
        {
          "internalType": "uint256",
          "name": "_price",
          "type": "uint256"
        }
      ],
      "name": "insertProduct",
      "outputs": [
        {
          "internalType": "bool",
          "name": "",
          "type": "bool"
        }
      ],
      "payable": false,
      "stateMutability": "nonpayable",
      "type": "function"
    },
    {
      "constant": false,
      "inputs": [
        {
          "internalType": "bytes32",
          "name": "_productNameCode",
          "type": "bytes32"
        }
      ],
      "name": "deleteProduct",
      "outputs": [
        {
          "internalType": "string",
          "name": "",
          "type": "string"
        }
      ],
      "payable": false,
      "stateMutability": "nonpayable",
      "type": "function"
    },
    {
      "constant": true,
      "inputs": [
        {
          "internalType": "string",
          "name": "_productName",
          "type": "string"
        }
      ],
      "name": "getProduct",
      "outputs": [
        {
          "internalType": "bytes32",
          "name": "",
          "type": "bytes32"
        },
        {
          "internalType": "string",
          "name": "productName",
          "type": "string"
        },
        {
          "internalType": "string",
          "name": "flaver",
          "type": "string"
        },
        {
          "internalType": "string",
          "name": "packetTypeAndWeight",
          "type": "string"
        },
        {
          "internalType": "uint256",
          "name": "productAccess",
          "type": "uint256"
        },
        {
          "internalType": "uint256",
          "name": "price",
          "type": "uint256"
        },
        {
          "internalType": "uint256",
          "name": "rate",
          "type": "uint256"
        }
      ],
      "payable": false,
      "stateMutability": "view",
      "type": "function"
    },
    {
      "constant": true,
      "inputs": [
        {
          "internalType": "uint256",
          "name": "i",
          "type": "uint256"
        }
      ],
      "name": "getProducti",
      "outputs": [
        {
          "internalType": "bytes32",
          "name": "",
          "type": "bytes32"
        },
        {
          "internalType": "string",
          "name": "",
          "type": "string"
        },
        {
          "internalType": "string",
          "name": "",
          "type": "string"
        },
        {
          "internalType": "string",
          "name": "",
          "type": "string"
        },
        {
          "internalType": "uint256",
          "name": "",
          "type": "uint256"
        },
        {
          "internalType": "uint256",
          "name": "",
          "type": "uint256"
        },
        {
          "internalType": "uint256",
          "name": "",
          "type": "uint256"
        }
      ],
      "payable": false,
      "stateMutability": "view",
      "type": "function"
    },
    {
      "constant": true,
      "inputs": [],
      "name": "getProductCount",
      "outputs": [
        {
          "internalType": "uint256",
          "name": "",
          "type": "uint256"
        }
      ],
      "payable": false,
      "stateMutability": "view",
      "type": "function"
    },
    {
      "constant": false,
      "inputs": [
        {
          "internalType": "string",
          "name": "_productName",
          "type": "string"
        },
        {
          "internalType": "string",
          "name": "_flaver",
          "type": "string"
        }
      ],
      "name": "updateProductFlaver",
      "outputs": [
        {
          "internalType": "bool",
          "name": "success",
          "type": "bool"
        }
      ],
      "payable": false,
      "stateMutability": "nonpayable",
      "type": "function"
    },
    {
      "constant": false,
      "inputs": [
        {
          "internalType": "string",
          "name": "_productName",
          "type": "string"
        },
        {
          "internalType": "string",
          "name": "_packetTypeAndWeight",
          "type": "string"
        }
      ],
      "name": "updateProductPacketTypeAndWeight",
      "outputs": [
        {
          "internalType": "bool",
          "name": "success",
          "type": "bool"
        }
      ],
      "payable": false,
      "stateMutability": "nonpayable",
      "type": "function"
    },
    {
      "constant": false,
      "inputs": [
        {
          "internalType": "string",
          "name": "_productName",
          "type": "string"
        },
        {
          "internalType": "uint256",
          "name": "_price",
          "type": "uint256"
        }
      ],
      "name": "updateProductPrice",
      "outputs": [
        {
          "internalType": "bool",
          "name": "success",
          "type": "bool"
        }
      ],
      "payable": false,
      "stateMutability": "nonpayable",
      "type": "function"
    },
    {
      "constant": false,
      "inputs": [
        {
          "internalType": "string",
          "name": "_productName",
          "type": "string"
        },
        {
          "internalType": "uint256[]",
          "name": "index",
          "type": "uint256[]"
        },
        {
          "internalType": "string",
          "name": "_flaver",
          "type": "string"
        },
        {
          "internalType": "string",
          "name": "_packetTypeAndWeight",
          "type": "string"
        },
        {
          "internalType": "uint256",
          "name": "_price",
          "type": "uint256"
        }
      ],
      "name": "updateProduct",
      "outputs": [
        {
          "internalType": "bool",
          "name": "success",
          "type": "bool"
        }
      ],
      "payable": false,
      "stateMutability": "nonpayable",
      "type": "function"
    },
    {
      "constant": false,
      "inputs": [
        {
          "internalType": "string",
          "name": "_productName",
          "type": "string"
        }
      ],
      "name": "updateProductiproductName",
      "outputs": [
        {
          "internalType": "bool",
          "name": "success",
          "type": "bool"
        }
      ],
      "payable": false,
      "stateMutability": "nonpayable",
      "type": "function"
    },
    {
      "constant": false,
      "inputs": [
        {
          "internalType": "string",
          "name": "_productName",
          "type": "string"
        },
        {
          "internalType": "uint256",
          "name": "_rate",
          "type": "uint256"
        }
      ],
      "name": "rateProduct",
      "outputs": [
        {
          "internalType": "bool",
          "name": "success",
          "type": "bool"
        }
      ],
      "payable": false,
      "stateMutability": "nonpayable",
      "type": "function"
    }
  ],
  "bytecode": "0x608060405234801561001057600080fd5b506131ba806100206000396000f3fe608060405234801561001057600080fd5b50600436106100cf5760003560e01c806394727b411161008c578063b3bfc19c11610066578063b3bfc19c14610900578063bdcb2a0514610a29578063bfb1c69d14610acd578063fe4a0c4514610bf6576100cf565b806394727b411461048c5780639e64e8e21461051e578063a652d8ec14610750576100cf565b80630c9ba81f146100d457806316a4bc881461025157806318e308be1461030b5780634a348da9146103b15780635f65faf1146103cb57806368111cce146103e8575b600080fd5b6100f1600480360360208110156100ea57600080fd5b5035610d81565b6040518088815260200180602001806020018060200187815260200186815260200185815260200184810384528a818151815260200191508051906020019080838360005b8381101561014e578181015183820152602001610136565b50505050905090810190601f16801561017b5780820380516001836020036101000a031916815260200191505b5084810383528951815289516020918201918b019080838360005b838110156101ae578181015183820152602001610196565b50505050905090810190601f1680156101db5780820380516001836020036101000a031916815260200191505b5084810382528851815288516020918201918a019080838360005b8381101561020e5781810151838201526020016101f6565b50505050905090810190601f16801561023b5780820380516001836020036101000a031916815260200191505b509a505050505050505050505060405180910390f35b6102f76004803603604081101561026757600080fd5b810190602081018135600160201b81111561028157600080fd5b82018360208201111561029357600080fd5b803590602001918460018302840111600160201b831117156102b457600080fd5b91908080601f0160208091040260200160405190810160405280939291908181526020018383808284376000920191909152509295505091359250611028915050565b604080519115158252519081900360200190f35b6102f76004803603604081101561032157600080fd5b810190602081018135600160201b81111561033b57600080fd5b82018360208201111561034d57600080fd5b803590602001918460018302840111600160201b8311171561036e57600080fd5b91908080601f0160208091040260200160405190810160405280939291908181526020018383808284376000920191909152509295505091359250611399915050565b6103b96116cc565b60408051918252519081900360200190f35b6102f7600480360360208110156103e157600080fd5b50356116d3565b6100f1600480360360208110156103fe57600080fd5b810190602081018135600160201b81111561041857600080fd5b82018360208201111561042a57600080fd5b803590602001918460018302840111600160201b8311171561044b57600080fd5b91908080601f016020809104026020016040519081016040528093929190818152602001838380828437600092019190915250929550611721945050505050565b6104a9600480360360208110156104a257600080fd5b50356119e1565b6040805160208082528351818301528351919283929083019185019080838360005b838110156104e35781810151838201526020016104cb565b50505050905090810190601f1680156105105780820380516001836020036101000a031916815260200191505b509250505060405180910390f35b6102f7600480360360a081101561053457600080fd5b810190602081018135600160201b81111561054e57600080fd5b82018360208201111561056057600080fd5b803590602001918460018302840111600160201b8311171561058157600080fd5b91908080601f0160208091040260200160405190810160405280939291908181526020018383808284376000920191909152509295949360208101935035915050600160201b8111156105d357600080fd5b8201836020820111156105e557600080fd5b803590602001918460208302840111600160201b8311171561060657600080fd5b9190808060200260200160405190810160405280939291908181526020018383602002808284376000920191909152509295949360208101935035915050600160201b81111561065557600080fd5b82018360208201111561066757600080fd5b803590602001918460018302840111600160201b8311171561068857600080fd5b91908080601f0160208091040260200160405190810160405280939291908181526020018383808284376000920191909152509295949360208101935035915050600160201b8111156106da57600080fd5b8201836020820111156106ec57600080fd5b803590602001918460018302840111600160201b8311171561070d57600080fd5b91908080601f0160208091040260200160405190810160405280939291908181526020018383808284376000920191909152509295505091359250611b0d915050565b6102f76004803603608081101561076657600080fd5b810190602081018135600160201b81111561078057600080fd5b82018360208201111561079257600080fd5b803590602001918460018302840111600160201b831117156107b357600080fd5b91908080601f0160208091040260200160405190810160405280939291908181526020018383808284376000920191909152509295949360208101935035915050600160201b81111561080557600080fd5b82018360208201111561081757600080fd5b803590602001918460018302840111600160201b8311171561083857600080fd5b91908080601f0160208091040260200160405190810160405280939291908181526020018383808284376000920191909152509295949360208101935035915050600160201b81111561088a57600080fd5b82018360208201111561089c57600080fd5b803590602001918460018302840111600160201b831117156108bd57600080fd5b91908080601f0160208091040260200160405190810160405280939291908181526020018383808284376000920191909152509295505091359250612394915050565b6102f76004803603604081101561091657600080fd5b810190602081018135600160201b81111561093057600080fd5b82018360208201111561094257600080fd5b803590602001918460018302840111600160201b8311171561096357600080fd5b91908080601f0160208091040260200160405190810160405280939291908181526020018383808284376000920191909152509295949360208101935035915050600160201b8111156109b557600080fd5b8201836020820111156109c757600080fd5b803590602001918460018302840111600160201b831117156109e857600080fd5b91908080601f01602080910402602001604051908101604052809392919081815260200183838082843760009201919091525092955061271a945050505050565b6102f760048036036020811015610a3f57600080fd5b810190602081018135600160201b811115610a5957600080fd5b820183602082011115610a6b57600080fd5b803590602001918460018302840111600160201b83111715610a8c57600080fd5b91908080601f016020809104026020016040519081016040528093929190818152602001838380828437600092019190915250929550612a1b945050505050565b6102f760048036036040811015610ae357600080fd5b810190602081018135600160201b811115610afd57600080fd5b820183602082011115610b0f57600080fd5b803590602001918460018302840111600160201b83111715610b3057600080fd5b91908080601f0160208091040260200160405190810160405280939291908181526020018383808284376000920191909152509295949360208101935035915050600160201b811115610b8257600080fd5b820183602082011115610b9457600080fd5b803590602001918460018302840111600160201b83111715610bb557600080fd5b91908080601f016020809104026020016040519081016040528093929190818152602001838380828437600092019190915250929550612a21945050505050565b610c1360048036036020811015610c0c57600080fd5b5035612d6e565b60405180806020018a8152602001806020018060200189815260200188815260200187815260200186815260200185815260200184810384528d818151815260200191508051906020019080838360005b83811015610c7c578181015183820152602001610c64565b50505050905090810190601f168015610ca95780820380516001836020036101000a031916815260200191505b5084810383528b5181528b516020918201918d019080838360005b83811015610cdc578181015183820152602001610cc4565b50505050905090810190601f168015610d095780820380516001836020036101000a031916815260200191505b5084810382528a5181528a516020918201918c019080838360005b83811015610d3c578181015183820152602001610d24565b50505050905090810190601f168015610d695780820380516001836020036101000a031916815260200191505b509c5050505050505050505050505060405180910390f35b60006060806060600080600060018881548110610d9a57fe5b90600052602060002090600802016000015460018981548110610db957fe5b906000526020600020906008020160010160018a81548110610dd757fe5b906000526020600020906008020160020160018b81548110610df557fe5b906000526020600020906008020160030160018c81548110610e1357fe5b90600052602060002090600802016004015460018d81548110610e3257fe5b90600052602060002090600802016006015460018e81548110610e5157fe5b600091825260209182902060056008909202010154865460408051601f600260001961010060018716150201909416939093049283018590048502810185019091528181529192889190830182828015610eec5780601f10610ec157610100808354040283529160200191610eec565b820191906000526020600020905b815481529060010190602001808311610ecf57829003601f168201915b5050885460408051602060026001851615610100026000190190941693909304601f8101849004840282018401909252818152959b508a945092508401905082828015610f7a5780601f10610f4f57610100808354040283529160200191610f7a565b820191906000526020600020905b815481529060010190602001808311610f5d57829003601f168201915b5050875460408051602060026001851615610100026000190190941693909304601f8101849004840282018401909252818152959a50899450925084019050828280156110085780601f10610fdd57610100808354040283529160200191611008565b820191906000526020600020905b815481529060010190602001808311610feb57829003601f168201915b505050505093509650965096509650965096509650919395979092949650565b600080836040516020018082805190602001908083835b6020831061105e5780518252601f19909201916020918201910161103f565b6001836020036101000a0380198251168184511680821785525050505050509050019150506040516020818303038152906040528051906020012090506110a4816116d3565b15156001146110f2576040805162461bcd60e51b815260206004820152601560248201527470726f64756374206e6f7420696e2073797374656d60581b604482015290519081900360640190fd5b6000818152602081905260408120600881015460069091015460018201910285018161111a57fe5b6000848152602081905260409020600881018054600190810190915592909104600682018190556005909101548254919350839291811061115757fe5b90600052602060002090600802016005018190555081600080516020613166833981519152600080858152602001908152602001600020600501548760008087815260200190815260200160002060020160008088815260200190815260200160002060030160008089815260200190815260200160002060040154876000808b8152602001908152602001600020600701546000808c8152602001908152602001600020600801546040518089815260200180602001806020018060200188815260200187815260200186815260200185815260200184810384528b818151815260200191508051906020019080838360005b8381101561126357818101518382015260200161124b565b50505050905090810190601f1680156112905780820380516001836020036101000a031916815260200191505b5084810383528a54600260001961010060018416150201909116048082526020909101908b9080156113035780601f106112d857610100808354040283529160200191611303565b820191906000526020600020905b8154815290600101906020018083116112e657829003601f168201915b505084810382528954600260001961010060018416150201909116048082526020909101908a9080156113775780601f1061134c57610100808354040283529160200191611377565b820191906000526020600020905b81548152906001019060200180831161135a57829003601f168201915b50509b50505050505050505050505060405180910390a2506001949350505050565b600080836040516020018082805190602001908083835b602083106113cf5780518252601f1990920191602091820191016113b0565b6001836020036101000a038019825116818451168082178552505050505050905001915050604051602081830303815290604052805190602001209050611415816116d3565b1515600114611463576040805162461bcd60e51b815260206004820152601560248201527470726f64756374206e6f7420696e2073797374656d60581b604482015290519081900360640190fd5b6000818152602081905260409020600781018490556005015460018054859290811061148b57fe5b90600052602060002090600802016006018190555080600080516020613166833981519152600080848152602001908152602001600020600501548660008086815260200190815260200160002060020160008087815260200190815260200160002060030160008088815260200190815260200160002060040154600080898152602001908152602001600020600601548a6000808b8152602001908152602001600020600801546040518089815260200180602001806020018060200188815260200187815260200186815260200185815260200184810384528b818151815260200191508051906020019080838360005b8381101561159757818101518382015260200161157f565b50505050905090810190601f1680156115c45780820380516001836020036101000a031916815260200191505b5084810383528a54600260001961010060018416150201909116048082526020909101908b9080156116375780601f1061160c57610100808354040283529160200191611637565b820191906000526020600020905b81548152906001019060200180831161161a57829003601f168201915b505084810382528954600260001961010060018416150201909116048082526020909101908a9080156116ab5780601f10611680576101008083540402835291602001916116ab565b820191906000526020600020905b81548152906001019060200180831161168e57829003601f168201915b50509b50505050505050505050505060405180910390a25060019392505050565b6001545b90565b6001546000906116e55750600061171c565b60008281526020819052604090206005015460018054849290811061170657fe5b9060005260206000209060080201600001541490505b919050565b60006060806060600080600080886040516020018082805190602001908083835b602083106117615780518252601f199092019160209182019101611742565b6001836020036101000a0380198251168184511680821785525050505050509050019150506040516020818303038152906040528051906020012090506117a7816116d3565b15156001146117f5576040805162461bcd60e51b815260206004820152601560248201527470726f64756374206e6f7420696e2073797374656d60581b604482015290519081900360640190fd5b6000818152602081815260409182902060048101546007820154600683015483548651600260018316156101000260001901909216829004601f8101889004880282018801909852878152889795969187019560038801959493928891908301828280156118a45780601f10611879576101008083540402835291602001916118a4565b820191906000526020600020905b81548152906001019060200180831161188757829003601f168201915b5050885460408051602060026001851615610100026000190190941693909304601f8101849004840282018401909252818152959b508a9450925084019050828280156119325780601f1061190757610100808354040283529160200191611932565b820191906000526020600020905b81548152906001019060200180831161191557829003601f168201915b5050875460408051602060026001851615610100026000190190941693909304601f8101849004840282018401909252818152959a50899450925084019050828280156119c05780601f10611995576101008083540402835291602001916119c0565b820191906000526020600020905b8154815290600101906020018083116119a357829003601f168201915b50505050509350975097509750975097509750975050919395979092949650565b600081815260208190526040902060048181018190556005909101546001805460609392908110611a0e57fe5b906000526020600020906008020160040181905550817fe1ff156be6bced8bd204b6d37ac5ca0bd9cbbc129fc6647c272b8b87bfb34fd6600080858152602001908152602001600020600501546040518082815260200191505060405180910390a26000828152602081815260409182902080548351601f600260001961010060018616150201909316929092049182018490048402810184019094528084529091830182828015611b015780601f10611ad657610100808354040283529160200191611b01565b820191906000526020600020905b815481529060010190602001808311611ae457829003601f168201915b50505050509050919050565b600080866040516020018082805190602001908083835b60208310611b435780518252601f199092019160209182019101611b24565b6001836020036101000a038019825116818451168082178552505050505050905001915050604051602081830303815290604052805190602001209050611b89816116d3565b1515600114611bd7576040805162461bcd60e51b815260206004820152601560248201527470726f64756374206e6f7420696e2073797374656d60581b604482015290519081900360640190fd5b6000818152602081905260408120600501545b875182101561238557878281518110611bff57fe5b602002602001015160011415611e7a576000838152602081815260409091208851611c32926002909201918a0190613085565b508660018281548110611c4157fe5b90600052602060002090600802016002019080519060200190611c65929190613085565b5082600080516020613166833981519152600080868152602001908152602001600020600501548b8a6000808981526020019081526020016000206003016000808a8152602001908152602001600020600401546000808b8152602001908152602001600020600601546000808c8152602001908152602001600020600701546000808d8152602001908152602001600020600801546040518089815260200180602001806020018060200188815260200187815260200186815260200185815260200184810384528b818151815260200191508051906020019080838360005b83811015611d5e578181015183820152602001611d46565b50505050905090810190601f168015611d8b5780820380516001836020036101000a031916815260200191505b5084810383528a5181528a516020918201918c019080838360005b83811015611dbe578181015183820152602001611da6565b50505050905090810190601f168015611deb5780820380516001836020036101000a031916815260200191505b5084810382528954600260001961010060018416150201909116048082526020909101908a908015611e5e5780601f10611e3357610100808354040283529160200191611e5e565b820191906000526020600020905b815481529060010190602001808311611e4157829003601f168201915b50509b50505050505050505050505060405180910390a261237a565b878281518110611e8657fe5b602002602001015160021415612101576000838152602081815260409091208751611eb992600390920191890190613085565b508560018281548110611ec857fe5b90600052602060002090600802016003019080519060200190611eec929190613085565b5082600080516020613166833981519152600080868152602001908152602001600020600501548b6000808881526020019081526020016000206002018a6000808a8152602001908152602001600020600401546000808b8152602001908152602001600020600601546000808c8152602001908152602001600020600701546000808d8152602001908152602001600020600801546040518089815260200180602001806020018060200188815260200187815260200186815260200185815260200184810384528b818151815260200191508051906020019080838360005b83811015611fe5578181015183820152602001611fcd565b50505050905090810190601f1680156120125780820380516001836020036101000a031916815260200191505b5084810383528a54600260001961010060018416150201909116048082526020909101908b9080156120855780601f1061205a57610100808354040283529160200191612085565b820191906000526020600020905b81548152906001019060200180831161206857829003601f168201915b505084810382528951815289516020918201918b019080838360005b838110156120b95781810151838201526020016120a1565b50505050905090810190601f1680156120e65780820380516001836020036101000a031916815260200191505b509b50505050505050505050505060405180910390a261237a565b87828151811061210d57fe5b60200260200101516003141561237a576000838152602081905260409020600701859055600180548691908390811061214257fe5b90600052602060002090600802016006018190555082600080516020613166833981519152600080868152602001908152602001600020600501548b6000808881526020019081526020016000206002016000808981526020019081526020016000206003016000808a8152602001908152602001600020600401546000808b8152602001908152602001600020600601548c6000808d8152602001908152602001600020600801546040518089815260200180602001806020018060200188815260200187815260200186815260200185815260200184810384528b818151815260200191508051906020019080838360005b8381101561224e578181015183820152602001612236565b50505050905090810190601f16801561227b5780820380516001836020036101000a031916815260200191505b5084810383528a54600260001961010060018416150201909116048082526020909101908b9080156122ee5780601f106122c3576101008083540402835291602001916122ee565b820191906000526020600020905b8154815290600101906020018083116122d157829003601f168201915b505084810382528954600260001961010060018416150201909116048082526020909101908a9080156123625780601f1061233757610100808354040283529160200191612362565b820191906000526020600020905b81548152906001019060200180831161234557829003601f168201915b50509b50505050505050505050505060405180910390a25b600190910190611bea565b50600198975050505050505050565b600080856040516020018082805190602001908083835b602083106123ca5780518252601f1990920191602091820191016123ab565b6001836020036101000a038019825116818451168082178552505050505050905001915050604051602081830303815290604052805190602001209050612410816116d3565b151560011415612467576040805162461bcd60e51b815260206004820152601960248201527f70726f6475637420616c6c7265647920696e2073797374656d00000000000000604482015290519081900360640190fd5b600081815260208181526040909120875161248492890190613085565b506000818152602081815260409091206001810183905586516124af92600290920191880190613085565b5060008181526020818152604090912085516124d392600390920191870190613085565b506000818152602081905260408120600160048201556007810185905560068101829055600801556125088187878787612f5e565b50600180805490500360008083815260200190815260200160002060050181905550807f658698f834b0c13f9740151fabaa541fc6532be36620da8761c82e426123e51f6000808481526020019081526020016000206005015488888860008088815260200190815260200160002060040154600080898152602001908152602001600020600601548a6000808b8152602001908152602001600020600801546040518089815260200180602001806020018060200188815260200187815260200186815260200185815260200184810384528b818151815260200191508051906020019080838360005b8381101561260b5781810151838201526020016125f3565b50505050905090810190601f1680156126385780820380516001836020036101000a031916815260200191505b5084810383528a5181528a516020918201918c019080838360005b8381101561266b578181015183820152602001612653565b50505050905090810190601f1680156126985780820380516001836020036101000a031916815260200191505b5084810382528951815289516020918201918b019080838360005b838110156126cb5781810151838201526020016126b3565b50505050905090810190601f1680156126f85780820380516001836020036101000a031916815260200191505b509b50505050505050505050505060405180910390a250600195945050505050565b600080836040516020018082805190602001908083835b602083106127505780518252601f199092019160209182019101612731565b6001836020036101000a038019825116818451168082178552505050505050905001915050604051602081830303815290604052805190602001209050612796816116d3565b15156001146127e4576040805162461bcd60e51b815260206004820152601560248201527470726f64756374206e6f7420696e2073797374656d60581b604482015290519081900360640190fd5b600081815260208181526040909120845161280792600290920191860190613085565b5060008181526020819052604090206005015460018054859290811061282957fe5b9060005260206000209060080201600201908051906020019061284d929190613085565b508060008051602061316683398151915260008084815260200190815260200160002060050154868660008087815260200190815260200160002060030160008088815260200190815260200160002060040154600080898152602001908152602001600020600601546000808a8152602001908152602001600020600701546000808b8152602001908152602001600020600801546040518089815260200180602001806020018060200188815260200187815260200186815260200185815260200184810384528b818151815260200191508051906020019080838360005b8381101561294657818101518382015260200161292e565b50505050905090810190601f1680156129735780820380516001836020036101000a031916815260200191505b5084810383528a5181528a516020918201918c019080838360005b838110156129a657818101518382015260200161298e565b50505050905090810190601f1680156129d35780820380516001836020036101000a031916815260200191505b5084810382528954600260001961010060018416150201909116048082526020909101908a9080156116ab5780601f10611680576101008083540402835291602001916116ab565b50600090565b600080836040516020018082805190602001908083835b60208310612a575780518252601f199092019160209182019101612a38565b6001836020036101000a038019825116818451168082178552505050505050905001915050604051602081830303815290604052805190602001209050612a9d816116d3565b1515600114612aeb576040805162461bcd60e51b815260206004820152601560248201527470726f64756374206e6f7420696e2073797374656d60581b604482015290519081900360640190fd5b6000818152602081815260409091208451612b0e92600390920191860190613085565b50600081815260208190526040902060050154600180548592908110612b3057fe5b90600052602060002090600802016003019080519060200190612b54929190613085565b508060008051602061316683398151915260008084815260200190815260200160002060050154866000808681526020019081526020016000206002018760008088815260200190815260200160002060040154600080898152602001908152602001600020600601546000808a8152602001908152602001600020600701546000808b8152602001908152602001600020600801546040518089815260200180602001806020018060200188815260200187815260200186815260200185815260200184810384528b818151815260200191508051906020019080838360005b83811015612c4d578181015183820152602001612c35565b50505050905090810190601f168015612c7a5780820380516001836020036101000a031916815260200191505b5084810383528a54600260001961010060018416150201909116048082526020909101908b908015612ced5780601f10612cc257610100808354040283529160200191612ced565b820191906000526020600020905b815481529060010190602001808311612cd057829003601f168201915b505084810382528951815289516020918201918b019080838360005b83811015612d21578181015183820152602001612d09565b50505050905090810190601f168015612d4e5780820380516001836020036101000a031916815260200191505b509b50505050505050505050505060405180910390a25060019392505050565b6000602081815291815260409081902080548251601f600260001961010060018616150201909316929092049182018590048502810185019093528083529092839190830182828015612e025780601f10612dd757610100808354040283529160200191612e02565b820191906000526020600020905b815481529060010190602001808311612de557829003601f168201915b505050505090806001015490806002018054600181600116156101000203166002900480601f016020809104026020016040519081016040528092919081815260200182805460018160011615610100020316600290048015612ea65780601f10612e7b57610100808354040283529160200191612ea6565b820191906000526020600020905b815481529060010190602001808311612e8957829003601f168201915b5050505060038301805460408051602060026001851615610100026000190190941693909304601f8101849004840282018401909252818152949594935090830182828015612f365780601f10612f0b57610100808354040283529160200191612f36565b820191906000526020600020905b815481529060010190602001808311612f1957829003601f168201915b5050505050908060040154908060050154908060060154908060070154908060080154905089565b6000612f68613103565b8681526020808201878152604083018790526060830186905260016080840181905260c08401869052600060a0850181905260e08501819052815480830180845592909152845160089091027fb10e2d527612073b26eecdfd717e6a320cf44b4afac2b0732d9fcbe2b7fa0cf6810191825592518051929486949293613014937fb10e2d527612073b26eecdfd717e6a320cf44b4afac2b0732d9fcbe2b7fa0cf7019290910190613085565b5060408201518051613030916002840191602090910190613085565b506060820151805161304c916003840191602090910190613085565b506080820151600482015560a0820151600582015560c0820151600682015560e090910151600790910155506001979650505050505050565b828054600181600116156101000203166002900490600052602060002090601f016020900481019282601f106130c657805160ff19168380011785556130f3565b828001600101855582156130f3579182015b828111156130f35782518255916020019190600101906130d8565b506130ff92915061314b565b5090565b60405180610100016040528060008019168152602001606081526020016060815260200160608152602001600081526020016000815260200160008152602001600081525090565b6116d091905b808211156130ff576000815560010161315156feff757f62d040f7e3d832721808f2e12f3df36f41c1060c4c814352ed0466f150a265627a7a7231582074e0fb49b643155e4b30f7233304024e1e4d1fd5a58f67f3faf3367794d0b80f64736f6c63430005100032",
  "source": "pragma solidity >=0.4.21 <0.6.0;\n\ncontract ProductContract {\n\n    struct Product{\n        string productName;\n        bytes32 productNameCode;\n        string flaver;\n        string packetTypeAndWeight;\n        uint productAccess;\n        uint index;\n        uint rate;\n        uint price;\n        uint unit;\n    }\n\n    struct DisplayProduct{\n        bytes32 productNameCode;\n        string productName;\n        string flaver;\n        string packetTypeAndWeight;\n        uint productAccess;\n        uint rate;\n        uint price;\n        uint unit;\n    }\n\n    event LogNewProduct(\n        bytes32 indexed productNameCode,\n        uint index,string productName,\n        string flaver,\n        string packetTypeAndWeight,\n        uint productAccess,\n        uint rate,\n        uint price,\n        uint unit\n        );\n    event LogUpdateProduct(\n        bytes32 indexed productNameCode,\n        uint index,string productName,\n        string flaver,\n        string packetTypeAndWeight,\n        uint productAccess,\n        uint rate,\n        uint price,\n        uint unit\n        );\n    event LogDeleteProduct(\n        bytes32 indexed productNamecode,\n        uint index\n        );\n\n    mapping(bytes32 => Product) public ProductArray;\n    DisplayProduct[] private ProductIndex;\n\n    function isProduct(bytes32 _productNameCode)public view returns(bool isIndeed) {\n        if(ProductIndex.length == 0) return false;\n        return (ProductIndex[ProductArray[_productNameCode].index].productNameCode == _productNameCode);\n    }\n\n    function setDisplayProduct\n    (bytes32 _productNameCode,string memory _productName,string memory _flaver,string memory _packetTypeAndWeight,uint _price)\n     private returns(bool){\n\n        DisplayProduct memory displayProduct;\n        displayProduct.productNameCode = _productNameCode;\n        displayProduct.productName = _productName;\n        displayProduct.flaver = _flaver;\n        displayProduct.packetTypeAndWeight = _packetTypeAndWeight;\n        displayProduct.productAccess = 1;\n        displayProduct.price = _price;\n        displayProduct.rate = 0;\n        displayProduct.unit = 0;\n        ProductIndex.push(displayProduct);\n        return true;\n\n    }\n    function insertProduct(string memory _productName,string memory _flaver,string memory _packetTypeAndWeight,uint _price) public returns(bool){\n        bytes32 _productNameCode = keccak256(abi.encodePacked((_productName)));\n        require(isProduct(_productNameCode) != true,'product allredy in system');\n\n        ProductArray[_productNameCode].productName = _productName;\n        ProductArray[_productNameCode].productNameCode = _productNameCode;\n        ProductArray[_productNameCode].flaver = _flaver;\n        ProductArray[_productNameCode].packetTypeAndWeight = _packetTypeAndWeight;\n        ProductArray[_productNameCode].productAccess = 1;\n        ProductArray[_productNameCode].price = _price;\n        ProductArray[_productNameCode].rate = 0;\n        ProductArray[_productNameCode].unit = 0;\n        setDisplayProduct(_productNameCode,_productName,_flaver,_packetTypeAndWeight,_price);\n        ProductArray[_productNameCode].index = ProductIndex.length-1;\n\n        emit LogNewProduct (\n            _productNameCode,\n            ProductArray[_productNameCode].index,\n            _productName,\n            _flaver,\n            _packetTypeAndWeight,\n            ProductArray[_productNameCode].productAccess,\n            ProductArray[_productNameCode].rate,\n            _price,\n            ProductArray[_productNameCode].unit\n            );\n        return true;\n    }\n    function deleteProduct (bytes32 _productNameCode) public returns(string memory){\n        ProductArray[_productNameCode].productAccess = 4;\n        ProductIndex[ProductArray[_productNameCode].index].productAccess = 4;\n        emit LogDeleteProduct(\n            _productNameCode,\n            ProductArray[_productNameCode].index\n        );\n        return  ProductArray[_productNameCode].productName;\n    }\n\n    function getProduct(string memory _productName) public view returns(bytes32,string memory productName,string memory flaver,\n    string memory packetTypeAndWeight, uint productAccess, uint price,uint rate){\n        bytes32 _productNameCode = keccak256(abi.encodePacked((_productName)));\n        require(isProduct(_productNameCode) == true,'product not in system');\n        return(\n            _productNameCode,\n            ProductArray[_productNameCode].productName,\n            ProductArray[_productNameCode].flaver,\n            ProductArray[_productNameCode].packetTypeAndWeight,\n            ProductArray[_productNameCode].productAccess,\n            ProductArray[_productNameCode].price,\n            ProductArray[_productNameCode].rate\n            );\n    }\n    function getProducti(uint i) public view returns(\n        bytes32,\n        string memory,\n        string memory,\n        string memory,\n        uint,\n        uint,\n        uint\n        ){\n            return (\n                ProductIndex[i].productNameCode,\n                ProductIndex[i].productName,\n                ProductIndex[i].flaver,\n                ProductIndex[i].packetTypeAndWeight,\n                ProductIndex[i].productAccess,\n                ProductIndex[i].price,\n                ProductIndex[i].rate\n                );\n    }\n    function getProductCount() public view returns(uint)\n    {\n        return ProductIndex.length;\n    }\n\n    // function updateUserproductName(address weight, bytes32 productproductName) public returns(bool success)\n    // {\n    //     productStructs[weight].productproductName = productproductName;\n    //     emit LogUpdateUser(weight,  productStructs[weight].index, productproductName, productStructs[weight].productAge);\n    //     return true;\n    // }\n    function updateProductFlaver (string memory _productName,string memory _flaver) public returns(bool success){\n        bytes32 _productNameCode = keccak256(abi.encodePacked((_productName)));\n        require(isProduct(_productNameCode) == true,'product not in system');\n        ProductArray[_productNameCode].flaver = _flaver;\n        ProductIndex[ProductArray[_productNameCode].index].flaver = _flaver;\n        emit LogUpdateProduct(\n            _productNameCode,\n            ProductArray[_productNameCode].index,\n            _productName,\n            _flaver,\n            ProductArray[_productNameCode].packetTypeAndWeight,\n            ProductArray[_productNameCode].productAccess,\n            ProductArray[_productNameCode].rate,\n            ProductArray[_productNameCode].price,\n            ProductArray[_productNameCode].unit\n            );\n        return true;\n    }\n    function updateProductPacketTypeAndWeight (string memory _productName,string memory _packetTypeAndWeight) public returns(bool success){\n        bytes32 _productNameCode = keccak256(abi.encodePacked((_productName)));\n        require(isProduct(_productNameCode) == true,'product not in system');\n        ProductArray[_productNameCode].packetTypeAndWeight = _packetTypeAndWeight;\n        ProductIndex[ProductArray[_productNameCode].index].packetTypeAndWeight = _packetTypeAndWeight;\n        emit LogUpdateProduct(\n            _productNameCode,\n            ProductArray[_productNameCode].index,\n            _productName,\n            ProductArray[_productNameCode].flaver,\n            _packetTypeAndWeight,\n            ProductArray[_productNameCode].productAccess,\n            ProductArray[_productNameCode].rate,\n            ProductArray[_productNameCode].price,\n            ProductArray[_productNameCode].unit\n            );\n        return true;\n    }\n    function updateProductPrice (string memory _productName,uint _price) public returns(bool success){\n        bytes32 _productNameCode = keccak256(abi.encodePacked((_productName)));\n        require(isProduct(_productNameCode) == true,'product not in system');\n        ProductArray[_productNameCode].price = _price;\n        ProductIndex[ProductArray[_productNameCode].index].price = _price;\n        emit LogUpdateProduct(\n            _productNameCode,\n            ProductArray[_productNameCode].index,\n            _productName,\n            ProductArray[_productNameCode].flaver,\n            ProductArray[_productNameCode].packetTypeAndWeight,\n            ProductArray[_productNameCode].productAccess,\n            ProductArray[_productNameCode].rate,\n            _price,\n            ProductArray[_productNameCode].unit\n            );\n        return true;\n    }\n    function updateProduct(\n        string memory _productName,\n        uint[] memory index,\n        string memory _flaver,\n        string memory _packetTypeAndWeight,\n        uint _price\n        ) public returns(bool success){\n        bytes32 _productNameCode = keccak256(abi.encodePacked((_productName)));\n        require(isProduct(_productNameCode) == true,'product not in system');\n        uint i;\n        uint num = ProductArray[_productNameCode].index;\n\n        for (i = 0;i<index.length;i++){\n            if(index[i]==1){\n                ProductArray[_productNameCode].flaver = _flaver;\n                ProductIndex[num].flaver = _flaver;\n                emit LogUpdateProduct(\n                    _productNameCode,\n                    ProductArray[_productNameCode].index,\n                    _productName,\n                    _flaver,\n                    ProductArray[_productNameCode].packetTypeAndWeight,\n                    ProductArray[_productNameCode].productAccess,\n                    ProductArray[_productNameCode].rate,\n                    ProductArray[_productNameCode].price,\n                    ProductArray[_productNameCode].unit\n                    );\n\n            }\n            else if(index[i]==2){\n                ProductArray[_productNameCode].packetTypeAndWeight = _packetTypeAndWeight;\n                ProductIndex[num].packetTypeAndWeight = _packetTypeAndWeight;\n                emit LogUpdateProduct(\n                    _productNameCode,\n                    ProductArray[_productNameCode].index,\n                    _productName,\n                    ProductArray[_productNameCode].flaver,\n                    _packetTypeAndWeight,\n                    ProductArray[_productNameCode].productAccess,\n                    ProductArray[_productNameCode].rate,\n                    ProductArray[_productNameCode].price,\n                    ProductArray[_productNameCode].unit\n                    );\n\n            }\n            else if(index[i]==3){\n                ProductArray[_productNameCode].price = _price;\n                ProductIndex[num].price = _price;\n                emit LogUpdateProduct(\n                    _productNameCode,\n                    ProductArray[_productNameCode].index,\n                    _productName,\n                    ProductArray[_productNameCode].flaver,\n                    ProductArray[_productNameCode].packetTypeAndWeight,\n                    ProductArray[_productNameCode].productAccess,\n                    ProductArray[_productNameCode].rate,\n                    _price,\n                    ProductArray[_productNameCode].unit\n                    );\n\n            }\n        }\n        return true;\n    }\n    ///////\n    function updateProductiproductName (string memory _productName) public returns(bool success){\n       // return true;\n    }\n    function rateProduct (string memory _productName,uint _rate) public returns(bool success){\n        bytes32 _productNameCode = keccak256(abi.encodePacked((_productName)));\n        require(isProduct(_productNameCode) == true,'product not in system');\n        uint nrate = (_rate+ProductArray[_productNameCode].rate*ProductArray[_productNameCode].unit)/(ProductArray[_productNameCode].unit+1);\n        ProductArray[_productNameCode].unit = ProductArray[_productNameCode].unit + 1;\n        ProductArray[_productNameCode].rate = nrate;\n        ProductIndex[ProductArray[_productNameCode].index].rate = nrate;\n        emit LogUpdateProduct(\n            _productNameCode,\n            ProductArray[_productNameCode].index,\n            _productName,\n            ProductArray[_productNameCode].flaver,\n            ProductArray[_productNameCode].packetTypeAndWeight,\n            ProductArray[_productNameCode].productAccess,\n            nrate,\n            ProductArray[_productNameCode].price,\n            ProductArray[_productNameCode].unit\n            );\n        return true;\n    }\n    // function createProductPacket (string memory _productName,uint _unit) public returns(bool success){\n    //     bytes32 _productNameCode = keccak256(abi.encodePacked((_productName)));\n    //     require(isProduct(_productNameCode) == true,'product not in system');\n    //     ProductArray[_productNameCode].rate = _rate;\n    //     ProductIndex[ProductArray[_productNameCode].index].rate = _rate;\n    //     emit LogUpdateProduct(\n    //         _productNameCode,\n    //         ProductArray[_productNameCode].index,\n    //         _productName,\n    //         ProductArray[_productNameCode].flaver,\n    //         ProductArray[_productNameCode].packetTypeAndWeight,\n    //         ProductArray[_productNameCode].weight,\n    //         ProductArray[_productNameCode].productAccess,\n    //         _rate,\n    //         ProductArray[_productNameCode].price,\n    //         ProductArray[_productNameCode].unit\n    //         );\n    //     return true;\n    // }\n}",
  "sourcePath": "/home/ubuntu/tea-supplychain-manege-system/test2/contracts/Product.sol",
  "compiler": {
    "name": "solc",
    "version": "0.5.16+commit.9c3226ce.Emscripten.clang"
  },
  "schemaVersion": "3.0.23",
  "updatedAt": "2020-02-14T23:38:48.558Z",
  "networkType": "ethereum",
  "devdoc": {
    "methods": {}
  },
  "userdoc": {
    "methods": {
      "updateProductiproductName(string)": {
        "notice": "////"
      }
    }
  }
}