{
  "contractName": "ProductContract",
  "abi": [
    {
      "constant": true,
      "inputs": [
        {
          "name": "",
          "type": "bytes32"
        }
      ],
      "name": "ProductArray",
      "outputs": [
        {
          "name": "productName",
          "type": "string"
        },
        {
          "name": "productNameCode",
          "type": "bytes32"
        },
        {
          "name": "flaver",
          "type": "string"
        },
        {
          "name": "packetTypeAndWeight",
          "type": "string"
        },
        {
          "name": "productAccess",
          "type": "uint256"
        },
        {
          "name": "index",
          "type": "uint256"
        },
        {
          "name": "rate",
          "type": "uint256"
        },
        {
          "name": "price",
          "type": "uint256"
        },
        {
          "name": "unit",
          "type": "uint256"
        }
      ],
      "payable": false,
      "stateMutability": "view",
      "type": "function"
    },
    {
      "anonymous": false,
      "inputs": [
        {
          "indexed": true,
          "name": "productNameCode",
          "type": "bytes32"
        },
        {
          "indexed": false,
          "name": "index",
          "type": "uint256"
        },
        {
          "indexed": false,
          "name": "productName",
          "type": "string"
        },
        {
          "indexed": false,
          "name": "flaver",
          "type": "string"
        },
        {
          "indexed": false,
          "name": "packetTypeAndWeight",
          "type": "string"
        },
        {
          "indexed": false,
          "name": "productAccess",
          "type": "uint256"
        },
        {
          "indexed": false,
          "name": "rate",
          "type": "uint256"
        },
        {
          "indexed": false,
          "name": "price",
          "type": "uint256"
        },
        {
          "indexed": false,
          "name": "unit",
          "type": "uint256"
        }
      ],
      "name": "LogNewProduct",
      "type": "event"
    },
    {
      "anonymous": false,
      "inputs": [
        {
          "indexed": true,
          "name": "productNameCode",
          "type": "bytes32"
        },
        {
          "indexed": false,
          "name": "index",
          "type": "uint256"
        },
        {
          "indexed": false,
          "name": "productName",
          "type": "string"
        },
        {
          "indexed": false,
          "name": "flaver",
          "type": "string"
        },
        {
          "indexed": false,
          "name": "packetTypeAndWeight",
          "type": "string"
        },
        {
          "indexed": false,
          "name": "productAccess",
          "type": "uint256"
        },
        {
          "indexed": false,
          "name": "rate",
          "type": "uint256"
        },
        {
          "indexed": false,
          "name": "price",
          "type": "uint256"
        },
        {
          "indexed": false,
          "name": "unit",
          "type": "uint256"
        }
      ],
      "name": "LogUpdateProduct",
      "type": "event"
    },
    {
      "anonymous": false,
      "inputs": [
        {
          "indexed": true,
          "name": "productNamecode",
          "type": "bytes32"
        },
        {
          "indexed": false,
          "name": "index",
          "type": "uint256"
        }
      ],
      "name": "LogDeleteProduct",
      "type": "event"
    },
    {
      "constant": true,
      "inputs": [
        {
          "name": "_productNameCode",
          "type": "bytes32"
        }
      ],
      "name": "isProduct",
      "outputs": [
        {
          "name": "isIndeed",
          "type": "bool"
        }
      ],
      "payable": false,
      "stateMutability": "view",
      "type": "function"
    },
    {
      "constant": false,
      "inputs": [
        {
          "name": "_productName",
          "type": "string"
        },
        {
          "name": "_flaver",
          "type": "string"
        },
        {
          "name": "_packetTypeAndWeight",
          "type": "string"
        },
        {
          "name": "_price",
          "type": "uint256"
        }
      ],
      "name": "insertProduct",
      "outputs": [
        {
          "name": "",
          "type": "bool"
        }
      ],
      "payable": false,
      "stateMutability": "nonpayable",
      "type": "function"
    },
    {
      "constant": false,
      "inputs": [
        {
          "name": "_productNameCode",
          "type": "bytes32"
        }
      ],
      "name": "deleteProduct",
      "outputs": [
        {
          "name": "",
          "type": "string"
        }
      ],
      "payable": false,
      "stateMutability": "nonpayable",
      "type": "function"
    },
    {
      "constant": true,
      "inputs": [
        {
          "name": "_productName",
          "type": "string"
        }
      ],
      "name": "getProduct",
      "outputs": [
        {
          "name": "",
          "type": "bytes32"
        },
        {
          "name": "productName",
          "type": "string"
        },
        {
          "name": "flaver",
          "type": "string"
        },
        {
          "name": "packetTypeAndWeight",
          "type": "string"
        },
        {
          "name": "productAccess",
          "type": "uint256"
        },
        {
          "name": "price",
          "type": "uint256"
        },
        {
          "name": "rate",
          "type": "uint256"
        }
      ],
      "payable": false,
      "stateMutability": "view",
      "type": "function"
    },
    {
      "constant": true,
      "inputs": [
        {
          "name": "i",
          "type": "uint256"
        }
      ],
      "name": "getProducti",
      "outputs": [
        {
          "name": "",
          "type": "bytes32"
        },
        {
          "name": "",
          "type": "string"
        },
        {
          "name": "",
          "type": "string"
        },
        {
          "name": "",
          "type": "string"
        },
        {
          "name": "",
          "type": "uint256"
        },
        {
          "name": "",
          "type": "uint256"
        },
        {
          "name": "",
          "type": "uint256"
        }
      ],
      "payable": false,
      "stateMutability": "view",
      "type": "function"
    },
    {
      "constant": true,
      "inputs": [],
      "name": "getProductCount",
      "outputs": [
        {
          "name": "",
          "type": "uint256"
        }
      ],
      "payable": false,
      "stateMutability": "view",
      "type": "function"
    },
    {
      "constant": false,
      "inputs": [
        {
          "name": "_productName",
          "type": "string"
        },
        {
          "name": "_flaver",
          "type": "string"
        }
      ],
      "name": "updateProductFlaver",
      "outputs": [
        {
          "name": "success",
          "type": "bool"
        }
      ],
      "payable": false,
      "stateMutability": "nonpayable",
      "type": "function"
    },
    {
      "constant": false,
      "inputs": [
        {
          "name": "_productName",
          "type": "string"
        },
        {
          "name": "_packetTypeAndWeight",
          "type": "string"
        }
      ],
      "name": "updateProductPacketTypeAndWeight",
      "outputs": [
        {
          "name": "success",
          "type": "bool"
        }
      ],
      "payable": false,
      "stateMutability": "nonpayable",
      "type": "function"
    },
    {
      "constant": false,
      "inputs": [
        {
          "name": "_productName",
          "type": "string"
        },
        {
          "name": "_price",
          "type": "uint256"
        }
      ],
      "name": "updateProductPrice",
      "outputs": [
        {
          "name": "success",
          "type": "bool"
        }
      ],
      "payable": false,
      "stateMutability": "nonpayable",
      "type": "function"
    },
    {
      "constant": false,
      "inputs": [
        {
          "name": "_productName",
          "type": "string"
        },
        {
          "name": "index",
          "type": "uint256[]"
        },
        {
          "name": "_flaver",
          "type": "string"
        },
        {
          "name": "_packetTypeAndWeight",
          "type": "string"
        },
        {
          "name": "_price",
          "type": "uint256"
        }
      ],
      "name": "updateProduct",
      "outputs": [
        {
          "name": "success",
          "type": "bool"
        }
      ],
      "payable": false,
      "stateMutability": "nonpayable",
      "type": "function"
    },
    {
      "constant": false,
      "inputs": [
        {
          "name": "_productName",
          "type": "string"
        }
      ],
      "name": "updateProductiproductName",
      "outputs": [
        {
          "name": "success",
          "type": "bool"
        }
      ],
      "payable": false,
      "stateMutability": "nonpayable",
      "type": "function"
    },
    {
      "constant": false,
      "inputs": [
        {
          "name": "_productName",
          "type": "string"
        },
        {
          "name": "_rate",
          "type": "uint256"
        }
      ],
      "name": "rateProduct",
      "outputs": [
        {
          "name": "success",
          "type": "bool"
        }
      ],
      "payable": false,
      "stateMutability": "nonpayable",
      "type": "function"
    }
  ],
  "bytecode": "0x608060405234801561001057600080fd5b506131aa806100206000396000f3fe608060405234801561001057600080fd5b50600436106100cf5760003560e01c806394727b411161008c578063b3bfc19c11610066578063b3bfc19c14610900578063bdcb2a0514610a29578063bfb1c69d14610acd578063fe4a0c4514610bf6576100cf565b806394727b411461048c5780639e64e8e21461051e578063a652d8ec14610750576100cf565b80630c9ba81f146100d457806316a4bc881461025157806318e308be1461030b5780634a348da9146103b15780635f65faf1146103cb57806368111cce146103e8575b600080fd5b6100f1600480360360208110156100ea57600080fd5b5035610d81565b6040518088815260200180602001806020018060200187815260200186815260200185815260200184810384528a818151815260200191508051906020019080838360005b8381101561014e578181015183820152602001610136565b50505050905090810190601f16801561017b5780820380516001836020036101000a031916815260200191505b5084810383528951815289516020918201918b019080838360005b838110156101ae578181015183820152602001610196565b50505050905090810190601f1680156101db5780820380516001836020036101000a031916815260200191505b5084810382528851815288516020918201918a019080838360005b8381101561020e5781810151838201526020016101f6565b50505050905090810190601f16801561023b5780820380516001836020036101000a031916815260200191505b509a505050505050505050505060405180910390f35b6102f76004803603604081101561026757600080fd5b810190602081018135600160201b81111561028157600080fd5b82018360208201111561029357600080fd5b803590602001918460018302840111600160201b831117156102b457600080fd5b91908080601f0160208091040260200160405190810160405280939291908181526020018383808284376000920191909152509295505091359250611028915050565b604080519115158252519081900360200190f35b6102f76004803603604081101561032157600080fd5b810190602081018135600160201b81111561033b57600080fd5b82018360208201111561034d57600080fd5b803590602001918460018302840111600160201b8311171561036e57600080fd5b91908080601f0160208091040260200160405190810160405280939291908181526020018383808284376000920191909152509295505091359250611392915050565b6103b96116be565b60408051918252519081900360200190f35b6102f7600480360360208110156103e157600080fd5b50356116c5565b6100f1600480360360208110156103fe57600080fd5b810190602081018135600160201b81111561041857600080fd5b82018360208201111561042a57600080fd5b803590602001918460018302840111600160201b8311171561044b57600080fd5b91908080601f016020809104026020016040519081016040528093929190818152602001838380828437600092019190915250929550611713945050505050565b6104a9600480360360208110156104a257600080fd5b50356119cc565b6040805160208082528351818301528351919283929083019185019080838360005b838110156104e35781810151838201526020016104cb565b50505050905090810190601f1680156105105780820380516001836020036101000a031916815260200191505b509250505060405180910390f35b6102f7600480360360a081101561053457600080fd5b810190602081018135600160201b81111561054e57600080fd5b82018360208201111561056057600080fd5b803590602001918460018302840111600160201b8311171561058157600080fd5b91908080601f0160208091040260200160405190810160405280939291908181526020018383808284376000920191909152509295949360208101935035915050600160201b8111156105d357600080fd5b8201836020820111156105e557600080fd5b803590602001918460208302840111600160201b8311171561060657600080fd5b9190808060200260200160405190810160405280939291908181526020018383602002808284376000920191909152509295949360208101935035915050600160201b81111561065557600080fd5b82018360208201111561066757600080fd5b803590602001918460018302840111600160201b8311171561068857600080fd5b91908080601f0160208091040260200160405190810160405280939291908181526020018383808284376000920191909152509295949360208101935035915050600160201b8111156106da57600080fd5b8201836020820111156106ec57600080fd5b803590602001918460018302840111600160201b8311171561070d57600080fd5b91908080601f0160208091040260200160405190810160405280939291908181526020018383808284376000920191909152509295505091359250611af8915050565b6102f76004803603608081101561076657600080fd5b810190602081018135600160201b81111561078057600080fd5b82018360208201111561079257600080fd5b803590602001918460018302840111600160201b831117156107b357600080fd5b91908080601f0160208091040260200160405190810160405280939291908181526020018383808284376000920191909152509295949360208101935035915050600160201b81111561080557600080fd5b82018360208201111561081757600080fd5b803590602001918460018302840111600160201b8311171561083857600080fd5b91908080601f0160208091040260200160405190810160405280939291908181526020018383808284376000920191909152509295949360208101935035915050600160201b81111561088a57600080fd5b82018360208201111561089c57600080fd5b803590602001918460018302840111600160201b831117156108bd57600080fd5b91908080601f0160208091040260200160405190810160405280939291908181526020018383808284376000920191909152509295505091359250612378915050565b6102f76004803603604081101561091657600080fd5b810190602081018135600160201b81111561093057600080fd5b82018360208201111561094257600080fd5b803590602001918460018302840111600160201b8311171561096357600080fd5b91908080601f0160208091040260200160405190810160405280939291908181526020018383808284376000920191909152509295949360208101935035915050600160201b8111156109b557600080fd5b8201836020820111156109c757600080fd5b803590602001918460018302840111600160201b831117156109e857600080fd5b91908080601f016020809104026020016040519081016040528093929190818152602001838380828437600092019190915250929550612701945050505050565b6102f760048036036020811015610a3f57600080fd5b810190602081018135600160201b811115610a5957600080fd5b820183602082011115610a6b57600080fd5b803590602001918460018302840111600160201b83111715610a8c57600080fd5b91908080601f0160208091040260200160405190810160405280939291908181526020018383808284376000920191909152509295506129fb945050505050565b6102f760048036036040811015610ae357600080fd5b810190602081018135600160201b811115610afd57600080fd5b820183602082011115610b0f57600080fd5b803590602001918460018302840111600160201b83111715610b3057600080fd5b91908080601f0160208091040260200160405190810160405280939291908181526020018383808284376000920191909152509295949360208101935035915050600160201b811115610b8257600080fd5b820183602082011115610b9457600080fd5b803590602001918460018302840111600160201b83111715610bb557600080fd5b91908080601f016020809104026020016040519081016040528093929190818152602001838380828437600092019190915250929550612a01945050505050565b610c1360048036036020811015610c0c57600080fd5b5035612d47565b60405180806020018a8152602001806020018060200189815260200188815260200187815260200186815260200185815260200184810384528d818151815260200191508051906020019080838360005b83811015610c7c578181015183820152602001610c64565b50505050905090810190601f168015610ca95780820380516001836020036101000a031916815260200191505b5084810383528b5181528b516020918201918d019080838360005b83811015610cdc578181015183820152602001610cc4565b50505050905090810190601f168015610d095780820380516001836020036101000a031916815260200191505b5084810382528a5181528a516020918201918c019080838360005b83811015610d3c578181015183820152602001610d24565b50505050905090810190601f168015610d695780820380516001836020036101000a031916815260200191505b509c5050505050505050505050505060405180910390f35b60006060806060600080600060018881548110610d9a57fe5b90600052602060002090600802016000015460018981548110610db957fe5b906000526020600020906008020160010160018a81548110610dd757fe5b906000526020600020906008020160020160018b81548110610df557fe5b906000526020600020906008020160030160018c81548110610e1357fe5b90600052602060002090600802016004015460018d81548110610e3257fe5b90600052602060002090600802016006015460018e81548110610e5157fe5b600091825260209182902060056008909202010154865460408051601f600260001961010060018716150201909416939093049283018590048502810185019091528181529192889190830182828015610eec5780601f10610ec157610100808354040283529160200191610eec565b820191906000526020600020905b815481529060010190602001808311610ecf57829003601f168201915b5050885460408051602060026001851615610100026000190190941693909304601f8101849004840282018401909252818152959b508a945092508401905082828015610f7a5780601f10610f4f57610100808354040283529160200191610f7a565b820191906000526020600020905b815481529060010190602001808311610f5d57829003601f168201915b5050875460408051602060026001851615610100026000190190941693909304601f8101849004840282018401909252818152959a50899450925084019050828280156110085780601f10610fdd57610100808354040283529160200191611008565b820191906000526020600020905b815481529060010190602001808311610feb57829003601f168201915b505050505093509650965096509650965096509650919395979092949650565b600080836040516020018082805190602001908083835b6020831061105e5780518252601f19909201916020918201910161103f565b6001836020036101000a0380198251168184511680821785525050505050509050019150506040516020818303038152906040528051906020012090506110a4816116c5565b15156001146110eb5760408051600160e51b62461bcd028152602060048201526015602482015260008051602061313f833981519152604482015290519081900360640190fd5b6000818152602081905260408120600881015460069091015460018201910285018161111357fe5b6000848152602081905260409020600881018054600190810190915592909104600682018190556005909101548254919350839291811061115057fe5b9060005260206000209060080201600501819055508160008051602061315f833981519152600080858152602001908152602001600020600501548760008087815260200190815260200160002060020160008088815260200190815260200160002060030160008089815260200190815260200160002060040154876000808b8152602001908152602001600020600701546000808c8152602001908152602001600020600801546040518089815260200180602001806020018060200188815260200187815260200186815260200185815260200184810384528b818151815260200191508051906020019080838360005b8381101561125c578181015183820152602001611244565b50505050905090810190601f1680156112895780820380516001836020036101000a031916815260200191505b5084810383528a54600260001961010060018416150201909116048082526020909101908b9080156112fc5780601f106112d1576101008083540402835291602001916112fc565b820191906000526020600020905b8154815290600101906020018083116112df57829003601f168201915b505084810382528954600260001961010060018416150201909116048082526020909101908a9080156113705780601f1061134557610100808354040283529160200191611370565b820191906000526020600020905b81548152906001019060200180831161135357829003601f168201915b50509b50505050505050505050505060405180910390a2506001949350505050565b600080836040516020018082805190602001908083835b602083106113c85780518252601f1990920191602091820191016113a9565b6001836020036101000a03801982511681845116808217855250505050505090500191505060405160208183030381529060405280519060200120905061140e816116c5565b15156001146114555760408051600160e51b62461bcd028152602060048201526015602482015260008051602061313f833981519152604482015290519081900360640190fd5b6000818152602081905260409020600781018490556005015460018054859290811061147d57fe5b9060005260206000209060080201600601819055508060008051602061315f833981519152600080848152602001908152602001600020600501548660008086815260200190815260200160002060020160008087815260200190815260200160002060030160008088815260200190815260200160002060040154600080898152602001908152602001600020600601548a6000808b8152602001908152602001600020600801546040518089815260200180602001806020018060200188815260200187815260200186815260200185815260200184810384528b818151815260200191508051906020019080838360005b83811015611589578181015183820152602001611571565b50505050905090810190601f1680156115b65780820380516001836020036101000a031916815260200191505b5084810383528a54600260001961010060018416150201909116048082526020909101908b9080156116295780601f106115fe57610100808354040283529160200191611629565b820191906000526020600020905b81548152906001019060200180831161160c57829003601f168201915b505084810382528954600260001961010060018416150201909116048082526020909101908a90801561169d5780601f106116725761010080835404028352916020019161169d565b820191906000526020600020905b81548152906001019060200180831161168057829003601f168201915b50509b50505050505050505050505060405180910390a25060019392505050565b6001545b90565b6001546000906116d75750600061170e565b6000828152602081905260409020600501546001805484929081106116f857fe5b9060005260206000209060080201600001541490505b919050565b60006060806060600080600080886040516020018082805190602001908083835b602083106117535780518252601f199092019160209182019101611734565b6001836020036101000a038019825116818451168082178552505050505050905001915050604051602081830303815290604052805190602001209050611799816116c5565b15156001146117e05760408051600160e51b62461bcd028152602060048201526015602482015260008051602061313f833981519152604482015290519081900360640190fd5b6000818152602081815260409182902060048101546007820154600683015483548651600260018316156101000260001901909216829004601f81018890048802820188019098528781528897959691870195600388019594939288919083018282801561188f5780601f106118645761010080835404028352916020019161188f565b820191906000526020600020905b81548152906001019060200180831161187257829003601f168201915b5050885460408051602060026001851615610100026000190190941693909304601f8101849004840282018401909252818152959b508a94509250840190508282801561191d5780601f106118f25761010080835404028352916020019161191d565b820191906000526020600020905b81548152906001019060200180831161190057829003601f168201915b5050875460408051602060026001851615610100026000190190941693909304601f8101849004840282018401909252818152959a50899450925084019050828280156119ab5780601f10611980576101008083540402835291602001916119ab565b820191906000526020600020905b81548152906001019060200180831161198e57829003601f168201915b50505050509350975097509750975097509750975050919395979092949650565b6000818152602081905260409020600481810181905560059091015460018054606093929081106119f957fe5b906000526020600020906008020160040181905550817fe1ff156be6bced8bd204b6d37ac5ca0bd9cbbc129fc6647c272b8b87bfb34fd6600080858152602001908152602001600020600501546040518082815260200191505060405180910390a26000828152602081815260409182902080548351601f600260001961010060018616150201909316929092049182018490048402810184019094528084529091830182828015611aec5780601f10611ac157610100808354040283529160200191611aec565b820191906000526020600020905b815481529060010190602001808311611acf57829003601f168201915b50505050509050919050565b600080866040516020018082805190602001908083835b60208310611b2e5780518252601f199092019160209182019101611b0f565b6001836020036101000a038019825116818451168082178552505050505050905001915050604051602081830303815290604052805190602001209050611b74816116c5565b1515600114611bbb5760408051600160e51b62461bcd028152602060048201526015602482015260008051602061313f833981519152604482015290519081900360640190fd5b6000818152602081905260408120600501545b875182101561236957878281518110611be357fe5b602002602001015160011415611e5e576000838152602081815260409091208851611c16926002909201918a019061305e565b508660018281548110611c2557fe5b90600052602060002090600802016002019080519060200190611c4992919061305e565b508260008051602061315f833981519152600080868152602001908152602001600020600501548b8a6000808981526020019081526020016000206003016000808a8152602001908152602001600020600401546000808b8152602001908152602001600020600601546000808c8152602001908152602001600020600701546000808d8152602001908152602001600020600801546040518089815260200180602001806020018060200188815260200187815260200186815260200185815260200184810384528b818151815260200191508051906020019080838360005b83811015611d42578181015183820152602001611d2a565b50505050905090810190601f168015611d6f5780820380516001836020036101000a031916815260200191505b5084810383528a5181528a516020918201918c019080838360005b83811015611da2578181015183820152602001611d8a565b50505050905090810190601f168015611dcf5780820380516001836020036101000a031916815260200191505b5084810382528954600260001961010060018416150201909116048082526020909101908a908015611e425780601f10611e1757610100808354040283529160200191611e42565b820191906000526020600020905b815481529060010190602001808311611e2557829003601f168201915b50509b50505050505050505050505060405180910390a261235e565b878281518110611e6a57fe5b6020026020010151600214156120e5576000838152602081815260409091208751611e9d9260039092019189019061305e565b508560018281548110611eac57fe5b90600052602060002090600802016003019080519060200190611ed092919061305e565b508260008051602061315f833981519152600080868152602001908152602001600020600501548b6000808881526020019081526020016000206002018a6000808a8152602001908152602001600020600401546000808b8152602001908152602001600020600601546000808c8152602001908152602001600020600701546000808d8152602001908152602001600020600801546040518089815260200180602001806020018060200188815260200187815260200186815260200185815260200184810384528b818151815260200191508051906020019080838360005b83811015611fc9578181015183820152602001611fb1565b50505050905090810190601f168015611ff65780820380516001836020036101000a031916815260200191505b5084810383528a54600260001961010060018416150201909116048082526020909101908b9080156120695780601f1061203e57610100808354040283529160200191612069565b820191906000526020600020905b81548152906001019060200180831161204c57829003601f168201915b505084810382528951815289516020918201918b019080838360005b8381101561209d578181015183820152602001612085565b50505050905090810190601f1680156120ca5780820380516001836020036101000a031916815260200191505b509b50505050505050505050505060405180910390a261235e565b8782815181106120f157fe5b60200260200101516003141561235e576000838152602081905260409020600701859055600180548691908390811061212657fe5b9060005260206000209060080201600601819055508260008051602061315f833981519152600080868152602001908152602001600020600501548b6000808881526020019081526020016000206002016000808981526020019081526020016000206003016000808a8152602001908152602001600020600401546000808b8152602001908152602001600020600601548c6000808d8152602001908152602001600020600801546040518089815260200180602001806020018060200188815260200187815260200186815260200185815260200184810384528b818151815260200191508051906020019080838360005b8381101561223257818101518382015260200161221a565b50505050905090810190601f16801561225f5780820380516001836020036101000a031916815260200191505b5084810383528a54600260001961010060018416150201909116048082526020909101908b9080156122d25780601f106122a7576101008083540402835291602001916122d2565b820191906000526020600020905b8154815290600101906020018083116122b557829003601f168201915b505084810382528954600260001961010060018416150201909116048082526020909101908a9080156123465780601f1061231b57610100808354040283529160200191612346565b820191906000526020600020905b81548152906001019060200180831161232957829003601f168201915b50509b50505050505050505050505060405180910390a25b600190910190611bce565b50600198975050505050505050565b600080856040516020018082805190602001908083835b602083106123ae5780518252601f19909201916020918201910161238f565b6001836020036101000a0380198251168184511680821785525050505050509050019150506040516020818303038152906040528051906020012090506123f4816116c5565b15156001141561244e5760408051600160e51b62461bcd02815260206004820152601960248201527f70726f6475637420616c6c7265647920696e2073797374656d00000000000000604482015290519081900360640190fd5b600081815260208181526040909120875161246b9289019061305e565b506000818152602081815260409091206001810183905586516124969260029092019188019061305e565b5060008181526020818152604090912085516124ba9260039092019187019061305e565b506000818152602081905260408120600160048201556007810185905560068101829055600801556124ef8187878787612f37565b50600180805490500360008083815260200190815260200160002060050181905550807f658698f834b0c13f9740151fabaa541fc6532be36620da8761c82e426123e51f6000808481526020019081526020016000206005015488888860008088815260200190815260200160002060040154600080898152602001908152602001600020600601548a6000808b8152602001908152602001600020600801546040518089815260200180602001806020018060200188815260200187815260200186815260200185815260200184810384528b818151815260200191508051906020019080838360005b838110156125f25781810151838201526020016125da565b50505050905090810190601f16801561261f5780820380516001836020036101000a031916815260200191505b5084810383528a5181528a516020918201918c019080838360005b8381101561265257818101518382015260200161263a565b50505050905090810190601f16801561267f5780820380516001836020036101000a031916815260200191505b5084810382528951815289516020918201918b019080838360005b838110156126b257818101518382015260200161269a565b50505050905090810190601f1680156126df5780820380516001836020036101000a031916815260200191505b509b50505050505050505050505060405180910390a250600195945050505050565b600080836040516020018082805190602001908083835b602083106127375780518252601f199092019160209182019101612718565b6001836020036101000a03801982511681845116808217855250505050505090500191505060405160208183030381529060405280519060200120905061277d816116c5565b15156001146127c45760408051600160e51b62461bcd028152602060048201526015602482015260008051602061313f833981519152604482015290519081900360640190fd5b60008181526020818152604090912084516127e79260029092019186019061305e565b5060008181526020819052604090206005015460018054859290811061280957fe5b9060005260206000209060080201600201908051906020019061282d92919061305e565b508060008051602061315f83398151915260008084815260200190815260200160002060050154868660008087815260200190815260200160002060030160008088815260200190815260200160002060040154600080898152602001908152602001600020600601546000808a8152602001908152602001600020600701546000808b8152602001908152602001600020600801546040518089815260200180602001806020018060200188815260200187815260200186815260200185815260200184810384528b818151815260200191508051906020019080838360005b8381101561292657818101518382015260200161290e565b50505050905090810190601f1680156129535780820380516001836020036101000a031916815260200191505b5084810383528a5181528a516020918201918c019080838360005b8381101561298657818101518382015260200161296e565b50505050905090810190601f1680156129b35780820380516001836020036101000a031916815260200191505b5084810382528954600260001961010060018416150201909116048082526020909101908a90801561169d5780601f106116725761010080835404028352916020019161169d565b50600090565b600080836040516020018082805190602001908083835b60208310612a375780518252601f199092019160209182019101612a18565b6001836020036101000a038019825116818451168082178552505050505050905001915050604051602081830303815290604052805190602001209050612a7d816116c5565b1515600114612ac45760408051600160e51b62461bcd028152602060048201526015602482015260008051602061313f833981519152604482015290519081900360640190fd5b6000818152602081815260409091208451612ae79260039092019186019061305e565b50600081815260208190526040902060050154600180548592908110612b0957fe5b90600052602060002090600802016003019080519060200190612b2d92919061305e565b508060008051602061315f83398151915260008084815260200190815260200160002060050154866000808681526020019081526020016000206002018760008088815260200190815260200160002060040154600080898152602001908152602001600020600601546000808a8152602001908152602001600020600701546000808b8152602001908152602001600020600801546040518089815260200180602001806020018060200188815260200187815260200186815260200185815260200184810384528b818151815260200191508051906020019080838360005b83811015612c26578181015183820152602001612c0e565b50505050905090810190601f168015612c535780820380516001836020036101000a031916815260200191505b5084810383528a54600260001961010060018416150201909116048082526020909101908b908015612cc65780601f10612c9b57610100808354040283529160200191612cc6565b820191906000526020600020905b815481529060010190602001808311612ca957829003601f168201915b505084810382528951815289516020918201918b019080838360005b83811015612cfa578181015183820152602001612ce2565b50505050905090810190601f168015612d275780820380516001836020036101000a031916815260200191505b509b50505050505050505050505060405180910390a25060019392505050565b6000602081815291815260409081902080548251601f600260001961010060018616150201909316929092049182018590048502810185019093528083529092839190830182828015612ddb5780601f10612db057610100808354040283529160200191612ddb565b820191906000526020600020905b815481529060010190602001808311612dbe57829003601f168201915b505050505090806001015490806002018054600181600116156101000203166002900480601f016020809104026020016040519081016040528092919081815260200182805460018160011615610100020316600290048015612e7f5780601f10612e5457610100808354040283529160200191612e7f565b820191906000526020600020905b815481529060010190602001808311612e6257829003601f168201915b5050505060038301805460408051602060026001851615610100026000190190941693909304601f8101849004840282018401909252818152949594935090830182828015612f0f5780601f10612ee457610100808354040283529160200191612f0f565b820191906000526020600020905b815481529060010190602001808311612ef257829003601f168201915b5050505050908060040154908060050154908060060154908060070154908060080154905089565b6000612f416130dc565b8681526020808201878152604083018790526060830186905260016080840181905260c08401869052600060a0850181905260e08501819052815480830180845592909152845160089091027fb10e2d527612073b26eecdfd717e6a320cf44b4afac2b0732d9fcbe2b7fa0cf6810191825592518051929486949293612fed937fb10e2d527612073b26eecdfd717e6a320cf44b4afac2b0732d9fcbe2b7fa0cf701929091019061305e565b506040820151805161300991600284019160209091019061305e565b506060820151805161302591600384019160209091019061305e565b506080820151600482015560a0820151600582015560c0820151600682015560e090910151600790910155506001979650505050505050565b828054600181600116156101000203166002900490600052602060002090601f016020900481019282601f1061309f57805160ff19168380011785556130cc565b828001600101855582156130cc579182015b828111156130cc5782518255916020019190600101906130b1565b506130d8929150613124565b5090565b60405180610100016040528060008019168152602001606081526020016060815260200160608152602001600081526020016000815260200160008152602001600081525090565b6116c291905b808211156130d8576000815560010161312a56fe70726f64756374206e6f7420696e2073797374656d0000000000000000000000ff757f62d040f7e3d832721808f2e12f3df36f41c1060c4c814352ed0466f150a165627a7a72305820a78cc2220df6d816b902bbb959332c9f60da964b0e7a881fc2d26715e0d5707d0029",
  "source": "pragma solidity >=0.4.21 <0.6.0;\r\n\r\ncontract ProductContract {\r\n\r\n    struct Product{\r\n        string productName;\r\n        bytes32 productNameCode;\r\n        string flaver;\r\n        string packetTypeAndWeight;\r\n        uint productAccess;\r\n        uint index;\r\n        uint rate;\r\n        uint price;\r\n        uint unit;\r\n    }\r\n\r\n    struct DisplayProduct{\r\n        bytes32 productNameCode;\r\n        string productName;\r\n        string flaver;\r\n        string packetTypeAndWeight;\r\n        uint productAccess;\r\n        uint rate;\r\n        uint price;\r\n        uint unit;\r\n    }\r\n\r\n    event LogNewProduct(\r\n        bytes32 indexed productNameCode,\r\n        uint index,string productName,\r\n        string flaver,\r\n        string packetTypeAndWeight,\r\n        uint productAccess,\r\n        uint rate,\r\n        uint price,\r\n        uint unit\r\n        );\r\n    event LogUpdateProduct(\r\n        bytes32 indexed productNameCode,\r\n        uint index,string productName,\r\n        string flaver,\r\n        string packetTypeAndWeight,\r\n        uint productAccess,\r\n        uint rate,\r\n        uint price,\r\n        uint unit\r\n        );\r\n    event LogDeleteProduct(\r\n        bytes32 indexed productNamecode,\r\n        uint index\r\n        );\r\n\r\n    mapping(bytes32 => Product) public ProductArray;\r\n    DisplayProduct[] private ProductIndex;\r\n\r\n    function isProduct(bytes32 _productNameCode)public view returns(bool isIndeed) {\r\n        if(ProductIndex.length == 0) return false;\r\n        return (ProductIndex[ProductArray[_productNameCode].index].productNameCode == _productNameCode);\r\n    }\r\n\r\n    function setDisplayProduct\r\n    (bytes32 _productNameCode,string memory _productName,string memory _flaver,string memory _packetTypeAndWeight,uint _price)\r\n     private returns(bool){\r\n\r\n        DisplayProduct memory displayProduct;\r\n        displayProduct.productNameCode = _productNameCode;\r\n        displayProduct.productName = _productName;\r\n        displayProduct.flaver = _flaver;\r\n        displayProduct.packetTypeAndWeight = _packetTypeAndWeight;\r\n        displayProduct.productAccess = 1;\r\n        displayProduct.price = _price;\r\n        displayProduct.rate = 0;\r\n        displayProduct.unit = 0;\r\n        ProductIndex.push(displayProduct);\r\n        return true;\r\n\r\n    }\r\n    function insertProduct(string memory _productName,string memory _flaver,string memory _packetTypeAndWeight,uint _price) public returns(bool){\r\n        bytes32 _productNameCode = keccak256(abi.encodePacked((_productName)));\r\n        require(isProduct(_productNameCode) != true,'product allredy in system');\r\n\r\n        ProductArray[_productNameCode].productName = _productName;\r\n        ProductArray[_productNameCode].productNameCode = _productNameCode;\r\n        ProductArray[_productNameCode].flaver = _flaver;\r\n        ProductArray[_productNameCode].packetTypeAndWeight = _packetTypeAndWeight;\r\n        ProductArray[_productNameCode].productAccess = 1;\r\n        ProductArray[_productNameCode].price = _price;\r\n        ProductArray[_productNameCode].rate = 0;\r\n        ProductArray[_productNameCode].unit = 0;\r\n        setDisplayProduct(_productNameCode,_productName,_flaver,_packetTypeAndWeight,_price);\r\n        ProductArray[_productNameCode].index = ProductIndex.length-1;\r\n\r\n        emit LogNewProduct (\r\n            _productNameCode,\r\n            ProductArray[_productNameCode].index,\r\n            _productName,\r\n            _flaver,\r\n            _packetTypeAndWeight,\r\n            ProductArray[_productNameCode].productAccess,\r\n            ProductArray[_productNameCode].rate,\r\n            _price,\r\n            ProductArray[_productNameCode].unit\r\n            );\r\n        return true;\r\n    }\r\n    function deleteProduct (bytes32 _productNameCode) public returns(string memory){\r\n        ProductArray[_productNameCode].productAccess = 4;\r\n        ProductIndex[ProductArray[_productNameCode].index].productAccess = 4;\r\n        emit LogDeleteProduct(\r\n            _productNameCode,\r\n            ProductArray[_productNameCode].index\r\n        );\r\n        return  ProductArray[_productNameCode].productName;\r\n    }\r\n\r\n    function getProduct(string memory _productName) public view returns(bytes32,string memory productName,string memory flaver,\r\n    string memory packetTypeAndWeight, uint productAccess, uint price,uint rate){\r\n        bytes32 _productNameCode = keccak256(abi.encodePacked((_productName)));\r\n        require(isProduct(_productNameCode) == true,'product not in system');\r\n        return(\r\n            _productNameCode,\r\n            ProductArray[_productNameCode].productName,\r\n            ProductArray[_productNameCode].flaver,\r\n            ProductArray[_productNameCode].packetTypeAndWeight,\r\n            ProductArray[_productNameCode].productAccess,\r\n            ProductArray[_productNameCode].price,\r\n            ProductArray[_productNameCode].rate\r\n            );\r\n    }\r\n    function getProducti(uint i) public view returns(\r\n        bytes32,\r\n        string memory,\r\n        string memory,\r\n        string memory,\r\n        uint,\r\n        uint,\r\n        uint\r\n        ){\r\n            return (\r\n                ProductIndex[i].productNameCode,\r\n                ProductIndex[i].productName,\r\n                ProductIndex[i].flaver,\r\n                ProductIndex[i].packetTypeAndWeight,\r\n                ProductIndex[i].productAccess,\r\n                ProductIndex[i].price,\r\n                ProductIndex[i].rate\r\n                );\r\n    }\r\n    function getProductCount() public view returns(uint)\r\n    {\r\n        return ProductIndex.length;\r\n    }\r\n\r\n    // function updateUserproductName(address weight, bytes32 productproductName) public returns(bool success)\r\n    // {\r\n    //     productStructs[weight].productproductName = productproductName;\r\n    //     emit LogUpdateUser(weight,  productStructs[weight].index, productproductName, productStructs[weight].productAge);\r\n    //     return true;\r\n    // }\r\n    function updateProductFlaver (string memory _productName,string memory _flaver) public returns(bool success){\r\n        bytes32 _productNameCode = keccak256(abi.encodePacked((_productName)));\r\n        require(isProduct(_productNameCode) == true,'product not in system');\r\n        ProductArray[_productNameCode].flaver = _flaver;\r\n        ProductIndex[ProductArray[_productNameCode].index].flaver = _flaver;\r\n        emit LogUpdateProduct(\r\n            _productNameCode,\r\n            ProductArray[_productNameCode].index,\r\n            _productName,\r\n            _flaver,\r\n            ProductArray[_productNameCode].packetTypeAndWeight,\r\n            ProductArray[_productNameCode].productAccess,\r\n            ProductArray[_productNameCode].rate,\r\n            ProductArray[_productNameCode].price,\r\n            ProductArray[_productNameCode].unit\r\n            );\r\n        return true;\r\n    }\r\n    function updateProductPacketTypeAndWeight (string memory _productName,string memory _packetTypeAndWeight) public returns(bool success){\r\n        bytes32 _productNameCode = keccak256(abi.encodePacked((_productName)));\r\n        require(isProduct(_productNameCode) == true,'product not in system');\r\n        ProductArray[_productNameCode].packetTypeAndWeight = _packetTypeAndWeight;\r\n        ProductIndex[ProductArray[_productNameCode].index].packetTypeAndWeight = _packetTypeAndWeight;\r\n        emit LogUpdateProduct(\r\n            _productNameCode,\r\n            ProductArray[_productNameCode].index,\r\n            _productName,\r\n            ProductArray[_productNameCode].flaver,\r\n            _packetTypeAndWeight,\r\n            ProductArray[_productNameCode].productAccess,\r\n            ProductArray[_productNameCode].rate,\r\n            ProductArray[_productNameCode].price,\r\n            ProductArray[_productNameCode].unit\r\n            );\r\n        return true;\r\n    }\r\n    function updateProductPrice (string memory _productName,uint _price) public returns(bool success){\r\n        bytes32 _productNameCode = keccak256(abi.encodePacked((_productName)));\r\n        require(isProduct(_productNameCode) == true,'product not in system');\r\n        ProductArray[_productNameCode].price = _price;\r\n        ProductIndex[ProductArray[_productNameCode].index].price = _price;\r\n        emit LogUpdateProduct(\r\n            _productNameCode,\r\n            ProductArray[_productNameCode].index,\r\n            _productName,\r\n            ProductArray[_productNameCode].flaver,\r\n            ProductArray[_productNameCode].packetTypeAndWeight,\r\n            ProductArray[_productNameCode].productAccess,\r\n            ProductArray[_productNameCode].rate,\r\n            _price,\r\n            ProductArray[_productNameCode].unit\r\n            );\r\n        return true;\r\n    }\r\n    function updateProduct(\r\n        string memory _productName,\r\n        uint[] memory index,\r\n        string memory _flaver,\r\n        string memory _packetTypeAndWeight,\r\n        uint _price\r\n        ) public returns(bool success){\r\n        bytes32 _productNameCode = keccak256(abi.encodePacked((_productName)));\r\n        require(isProduct(_productNameCode) == true,'product not in system');\r\n        uint i;\r\n        uint num = ProductArray[_productNameCode].index;\r\n\r\n        for (i = 0;i<index.length;i++){\r\n            if(index[i]==1){\r\n                ProductArray[_productNameCode].flaver = _flaver;\r\n                ProductIndex[num].flaver = _flaver;\r\n                emit LogUpdateProduct(\r\n                    _productNameCode,\r\n                    ProductArray[_productNameCode].index,\r\n                    _productName,\r\n                    _flaver,\r\n                    ProductArray[_productNameCode].packetTypeAndWeight,\r\n                    ProductArray[_productNameCode].productAccess,\r\n                    ProductArray[_productNameCode].rate,\r\n                    ProductArray[_productNameCode].price,\r\n                    ProductArray[_productNameCode].unit\r\n                    );\r\n\r\n            }\r\n            else if(index[i]==2){\r\n                ProductArray[_productNameCode].packetTypeAndWeight = _packetTypeAndWeight;\r\n                ProductIndex[num].packetTypeAndWeight = _packetTypeAndWeight;\r\n                emit LogUpdateProduct(\r\n                    _productNameCode,\r\n                    ProductArray[_productNameCode].index,\r\n                    _productName,\r\n                    ProductArray[_productNameCode].flaver,\r\n                    _packetTypeAndWeight,\r\n                    ProductArray[_productNameCode].productAccess,\r\n                    ProductArray[_productNameCode].rate,\r\n                    ProductArray[_productNameCode].price,\r\n                    ProductArray[_productNameCode].unit\r\n                    );\r\n\r\n            }\r\n            else if(index[i]==3){\r\n                ProductArray[_productNameCode].price = _price;\r\n                ProductIndex[num].price = _price;\r\n                emit LogUpdateProduct(\r\n                    _productNameCode,\r\n                    ProductArray[_productNameCode].index,\r\n                    _productName,\r\n                    ProductArray[_productNameCode].flaver,\r\n                    ProductArray[_productNameCode].packetTypeAndWeight,\r\n                    ProductArray[_productNameCode].productAccess,\r\n                    ProductArray[_productNameCode].rate,\r\n                    _price,\r\n                    ProductArray[_productNameCode].unit\r\n                    );\r\n\r\n            }\r\n        }\r\n        return true;\r\n    }\r\n    ///////\r\n    function updateProductiproductName (string memory _productName) public returns(bool success){\r\n       // return true;\r\n    }\r\n    function rateProduct (string memory _productName,uint _rate) public returns(bool success){\r\n        bytes32 _productNameCode = keccak256(abi.encodePacked((_productName)));\r\n        require(isProduct(_productNameCode) == true,'product not in system');\r\n        uint nrate = (_rate+ProductArray[_productNameCode].rate*ProductArray[_productNameCode].unit)/(ProductArray[_productNameCode].unit+1);\r\n        ProductArray[_productNameCode].unit = ProductArray[_productNameCode].unit + 1;\r\n        ProductArray[_productNameCode].rate = nrate;\r\n        ProductIndex[ProductArray[_productNameCode].index].rate = nrate;\r\n        emit LogUpdateProduct(\r\n            _productNameCode,\r\n            ProductArray[_productNameCode].index,\r\n            _productName,\r\n            ProductArray[_productNameCode].flaver,\r\n            ProductArray[_productNameCode].packetTypeAndWeight,\r\n            ProductArray[_productNameCode].productAccess,\r\n            nrate,\r\n            ProductArray[_productNameCode].price,\r\n            ProductArray[_productNameCode].unit\r\n            );\r\n        return true;\r\n    }\r\n    // function createProductPacket (string memory _productName,uint _unit) public returns(bool success){\r\n    //     bytes32 _productNameCode = keccak256(abi.encodePacked((_productName)));\r\n    //     require(isProduct(_productNameCode) == true,'product not in system');\r\n    //     ProductArray[_productNameCode].rate = _rate;\r\n    //     ProductIndex[ProductArray[_productNameCode].index].rate = _rate;\r\n    //     emit LogUpdateProduct(\r\n    //         _productNameCode,\r\n    //         ProductArray[_productNameCode].index,\r\n    //         _productName,\r\n    //         ProductArray[_productNameCode].flaver,\r\n    //         ProductArray[_productNameCode].packetTypeAndWeight,\r\n    //         ProductArray[_productNameCode].weight,\r\n    //         ProductArray[_productNameCode].productAccess,\r\n    //         _rate,\r\n    //         ProductArray[_productNameCode].price,\r\n    //         ProductArray[_productNameCode].unit\r\n    //         );\r\n    //     return true;\r\n    // }\r\n}",
  "sourcePath": "C:/project/tea supply chain mangement system/test2/contracts/Product.sol",
  "compiler": {
    "name": "solc",
    "version": "0.5.8+commit.23d335f2.Emscripten.clang"
  },
  "schemaVersion": "3.0.20",
  "updatedAt": "2020-02-13T05:40:10.236Z",
  "networkType": "ethereum",
  "devdoc": {
    "methods": {}
  },
  "userdoc": {
    "methods": {
      "updateProductiproductName(string)": {
        "notice": "////"
      }
    }
  }
}