{
  "contractName": "SupervisorContract",
  "abi": [
    {
      "constant": true,
      "inputs": [
        {
          "name": "",
          "type": "bytes32"
        }
      ],
      "name": "supervisorArray",
      "outputs": [
        {
          "name": "email",
          "type": "string"
        },
        {
          "name": "emailCode",
          "type": "bytes32"
        },
        {
          "name": "passwordCode",
          "type": "bytes32"
        },
        {
          "name": "passwordRestToken",
          "type": "bytes32"
        },
        {
          "name": "name",
          "type": "string"
        },
        {
          "name": "contactNumber",
          "type": "uint256"
        },
        {
          "name": "userAddress",
          "type": "string"
        },
        {
          "name": "userAccess",
          "type": "uint256"
        },
        {
          "name": "index",
          "type": "uint256"
        }
      ],
      "payable": false,
      "stateMutability": "view",
      "type": "function"
    },
    {
      "anonymous": false,
      "inputs": [
        {
          "indexed": true,
          "name": "emailCode",
          "type": "bytes32"
        },
        {
          "indexed": false,
          "name": "index",
          "type": "uint256"
        },
        {
          "indexed": false,
          "name": "email",
          "type": "string"
        },
        {
          "indexed": false,
          "name": "passwordCode",
          "type": "bytes32"
        },
        {
          "indexed": false,
          "name": "passwordRestToken",
          "type": "bytes32"
        },
        {
          "indexed": false,
          "name": "name",
          "type": "string"
        },
        {
          "indexed": false,
          "name": "contactNumber",
          "type": "uint256"
        },
        {
          "indexed": false,
          "name": "userAddress",
          "type": "string"
        },
        {
          "indexed": false,
          "name": "userAccess",
          "type": "uint256"
        }
      ],
      "name": "LogNewSupervisor",
      "type": "event"
    },
    {
      "anonymous": false,
      "inputs": [
        {
          "indexed": true,
          "name": "emailCode",
          "type": "bytes32"
        },
        {
          "indexed": false,
          "name": "index",
          "type": "uint256"
        },
        {
          "indexed": false,
          "name": "email",
          "type": "string"
        },
        {
          "indexed": false,
          "name": "passwordCode",
          "type": "bytes32"
        },
        {
          "indexed": false,
          "name": "passwordRestToken",
          "type": "bytes32"
        },
        {
          "indexed": false,
          "name": "name",
          "type": "string"
        },
        {
          "indexed": false,
          "name": "contactNumber",
          "type": "uint256"
        },
        {
          "indexed": false,
          "name": "userAddress",
          "type": "string"
        },
        {
          "indexed": false,
          "name": "userAccess",
          "type": "uint256"
        }
      ],
      "name": "LogUpdateSupervisor",
      "type": "event"
    },
    {
      "anonymous": false,
      "inputs": [
        {
          "indexed": true,
          "name": "emailcode",
          "type": "bytes32"
        },
        {
          "indexed": false,
          "name": "index",
          "type": "uint256"
        }
      ],
      "name": "LogDeleteSupervisor",
      "type": "event"
    },
    {
      "constant": true,
      "inputs": [
        {
          "name": "_emailCode",
          "type": "bytes32"
        }
      ],
      "name": "isSupervisor",
      "outputs": [
        {
          "name": "isIndeed",
          "type": "bool"
        }
      ],
      "payable": false,
      "stateMutability": "view",
      "type": "function"
    },
    {
      "constant": false,
      "inputs": [
        {
          "name": "_email",
          "type": "string"
        },
        {
          "name": "_name",
          "type": "string"
        },
        {
          "name": "_address",
          "type": "string"
        },
        {
          "name": "_telephone",
          "type": "uint256"
        }
      ],
      "name": "insertSupervisor",
      "outputs": [
        {
          "name": "",
          "type": "bool"
        }
      ],
      "payable": false,
      "stateMutability": "nonpayable",
      "type": "function"
    },
    {
      "constant": false,
      "inputs": [
        {
          "name": "email",
          "type": "bytes32"
        }
      ],
      "name": "deleteSupervisor",
      "outputs": [
        {
          "name": "",
          "type": "string"
        }
      ],
      "payable": false,
      "stateMutability": "nonpayable",
      "type": "function"
    },
    {
      "constant": false,
      "inputs": [
        {
          "name": "email",
          "type": "bytes32"
        }
      ],
      "name": "blockSupervisor",
      "outputs": [
        {
          "name": "",
          "type": "string"
        }
      ],
      "payable": false,
      "stateMutability": "nonpayable",
      "type": "function"
    },
    {
      "constant": false,
      "inputs": [
        {
          "name": "_email",
          "type": "string"
        },
        {
          "name": "usreAccess",
          "type": "uint256"
        }
      ],
      "name": "editUserAccess",
      "outputs": [
        {
          "name": "",
          "type": "bool"
        }
      ],
      "payable": false,
      "stateMutability": "nonpayable",
      "type": "function"
    },
    {
      "constant": true,
      "inputs": [
        {
          "name": "_email",
          "type": "string"
        }
      ],
      "name": "getSupervisor",
      "outputs": [
        {
          "name": "",
          "type": "bytes32"
        },
        {
          "name": "email",
          "type": "string"
        },
        {
          "name": "name",
          "type": "string"
        },
        {
          "name": "contactNumber",
          "type": "uint256"
        },
        {
          "name": "userAddress",
          "type": "string"
        },
        {
          "name": "userAccess",
          "type": "uint256"
        }
      ],
      "payable": false,
      "stateMutability": "view",
      "type": "function"
    },
    {
      "constant": true,
      "inputs": [
        {
          "name": "i",
          "type": "uint256"
        }
      ],
      "name": "getSupervisori",
      "outputs": [
        {
          "name": "",
          "type": "bytes32"
        },
        {
          "name": "",
          "type": "string"
        },
        {
          "name": "",
          "type": "string"
        },
        {
          "name": "",
          "type": "uint256"
        },
        {
          "name": "",
          "type": "string"
        },
        {
          "name": "",
          "type": "uint256"
        }
      ],
      "payable": false,
      "stateMutability": "view",
      "type": "function"
    },
    {
      "constant": true,
      "inputs": [],
      "name": "getSupervisorCount",
      "outputs": [
        {
          "name": "",
          "type": "uint256"
        }
      ],
      "payable": false,
      "stateMutability": "view",
      "type": "function"
    },
    {
      "constant": false,
      "inputs": [
        {
          "name": "_email",
          "type": "string"
        },
        {
          "name": "_name",
          "type": "string"
        }
      ],
      "name": "updateSupervisorName",
      "outputs": [
        {
          "name": "success",
          "type": "bool"
        }
      ],
      "payable": false,
      "stateMutability": "nonpayable",
      "type": "function"
    },
    {
      "constant": false,
      "inputs": [
        {
          "name": "_email",
          "type": "string"
        },
        {
          "name": "_userAddress",
          "type": "string"
        }
      ],
      "name": "updateSupervisorAddress",
      "outputs": [
        {
          "name": "success",
          "type": "bool"
        }
      ],
      "payable": false,
      "stateMutability": "nonpayable",
      "type": "function"
    },
    {
      "constant": false,
      "inputs": [
        {
          "name": "_email",
          "type": "string"
        },
        {
          "name": "_contactNumber",
          "type": "uint256"
        }
      ],
      "name": "updateSupervisorContactNumber",
      "outputs": [
        {
          "name": "success",
          "type": "bool"
        }
      ],
      "payable": false,
      "stateMutability": "nonpayable",
      "type": "function"
    },
    {
      "constant": false,
      "inputs": [
        {
          "name": "_email",
          "type": "string"
        },
        {
          "name": "index",
          "type": "uint256[]"
        },
        {
          "name": "_name",
          "type": "string"
        },
        {
          "name": "_userAddress",
          "type": "string"
        },
        {
          "name": "_contactNumber",
          "type": "uint256"
        }
      ],
      "name": "updateSupervisor",
      "outputs": [
        {
          "name": "success",
          "type": "bool"
        }
      ],
      "payable": false,
      "stateMutability": "nonpayable",
      "type": "function"
    },
    {
      "constant": false,
      "inputs": [
        {
          "name": "_email",
          "type": "string"
        }
      ],
      "name": "updateSupervisoriEmail",
      "outputs": [
        {
          "name": "success",
          "type": "bool"
        }
      ],
      "payable": false,
      "stateMutability": "nonpayable",
      "type": "function"
    },
    {
      "constant": true,
      "inputs": [
        {
          "name": "email",
          "type": "bytes32"
        }
      ],
      "name": "checkSupervisorUserAccess",
      "outputs": [
        {
          "name": "userAccess",
          "type": "uint256"
        }
      ],
      "payable": false,
      "stateMutability": "view",
      "type": "function"
    },
    {
      "constant": true,
      "inputs": [
        {
          "name": "email",
          "type": "bytes32"
        }
      ],
      "name": "checkSupervisorPasswordCode",
      "outputs": [
        {
          "name": "passwordCode",
          "type": "bytes32"
        }
      ],
      "payable": false,
      "stateMutability": "view",
      "type": "function"
    }
  ],
  "bytecode": "0x608060405234801561001057600080fd5b5061340a806100206000396000f3fe608060405234801561001057600080fd5b50600436106101005760003560e01c806389cda3dd11610097578063c27418da11610066578063c27418da14610a0b578063c3cd325a14610a28578063d9447e5914610a45578063efa3cbfe14610c7757610100565b806389cda3dd1461088e5780639af98ecf146108bd5780639fb646f4146109e6578063a0e16290146109ee57610100565b8063645ed50e116100d3578063645ed50e146105025780636609b7cc146106b2578063670151b8146107585780637e082866146107fc57610100565b8063129d9002146101055780631db7c608146102425780632d92dbc01461043f57806330532763146104e5575b600080fd5b61022e6004803603604081101561011b57600080fd5b810190602081018135600160201b81111561013557600080fd5b82018360208201111561014757600080fd5b803590602001918460018302840111600160201b8311171561016857600080fd5b91908080601f0160208091040260200160405190810160405280939291908181526020018383808284376000920191909152509295949360208101935035915050600160201b8111156101ba57600080fd5b8201836020820111156101cc57600080fd5b803590602001918460018302840111600160201b831117156101ed57600080fd5b91908080601f016020809104026020016040519081016040528093929190818152602001838380828437600092019190915250929550610e02945050505050565b604080519115158252519081900360200190f35b6102e66004803603602081101561025857600080fd5b810190602081018135600160201b81111561027257600080fd5b82018360208201111561028457600080fd5b803590602001918460018302840111600160201b831117156102a557600080fd5b91908080601f016020809104026020016040519081016040528093929190818152602001838380828437600092019190915250929550611152945050505050565b60405180878152602001806020018060200186815260200180602001858152602001848103845289818151815260200191508051906020019080838360005b8381101561033d578181015183820152602001610325565b50505050905090810190601f16801561036a5780820380516001836020036101000a031916815260200191505b5084810383528851815288516020918201918a019080838360005b8381101561039d578181015183820152602001610385565b50505050905090810190601f1680156103ca5780820380516001836020036101000a031916815260200191505b50848103825286518152865160209182019188019080838360005b838110156103fd5781810151838201526020016103e5565b50505050905090810190601f16801561042a5780820380516001836020036101000a031916815260200191505b50995050505050505050505060405180910390f35b61022e6004803603604081101561045557600080fd5b810190602081018135600160201b81111561046f57600080fd5b82018360208201111561048157600080fd5b803590602001918460018302840111600160201b831117156104a257600080fd5b91908080601f016020809104026020016040519081016040528093929190818152602001838380828437600092019190915250929550509135925061140c915050565b6102e6600480360360208110156104fb57600080fd5b5035611742565b61022e6004803603608081101561051857600080fd5b810190602081018135600160201b81111561053257600080fd5b82018360208201111561054457600080fd5b803590602001918460018302840111600160201b8311171561056557600080fd5b91908080601f0160208091040260200160405190810160405280939291908181526020018383808284376000920191909152509295949360208101935035915050600160201b8111156105b757600080fd5b8201836020820111156105c957600080fd5b803590602001918460018302840111600160201b831117156105ea57600080fd5b91908080601f0160208091040260200160405190810160405280939291908181526020018383808284376000920191909152509295949360208101935035915050600160201b81111561063c57600080fd5b82018360208201111561064e57600080fd5b803590602001918460018302840111600160201b8311171561066f57600080fd5b91908080601f01602080910402602001604051908101604052809392919081815260200183838082843760009201919091525092955050913592506119c5915050565b61022e600480360360408110156106c857600080fd5b810190602081018135600160201b8111156106e257600080fd5b8201836020820111156106f457600080fd5b803590602001918460018302840111600160201b8311171561071557600080fd5b91908080601f0160208091040260200160405190810160405280939291908181526020018383808284376000920191909152509295505091359250611d9a915050565b61022e6004803603602081101561076e57600080fd5b810190602081018135600160201b81111561078857600080fd5b82018360208201111561079a57600080fd5b803590602001918460018302840111600160201b831117156107bb57600080fd5b91908080601f016020809104026020016040519081016040528093929190818152602001838380828437600092019190915250929550611e52945050505050565b6108196004803603602081101561081257600080fd5b5035611e58565b6040805160208082528351818301528351919283929083019185019080838360005b8381101561085357818101518382015260200161083b565b50505050905090810190601f1680156108805780820380516001836020036101000a031916815260200191505b509250505060405180910390f35b6108ab600480360360208110156108a457600080fd5b503561209f565b60408051918252519081900360200190f35b61022e600480360360408110156108d357600080fd5b810190602081018135600160201b8111156108ed57600080fd5b8201836020820111156108ff57600080fd5b803590602001918460018302840111600160201b8311171561092057600080fd5b91908080601f0160208091040260200160405190810160405280939291908181526020018383808284376000920191909152509295949360208101935035915050600160201b81111561097257600080fd5b82018360208201111561098457600080fd5b803590602001918460018302840111600160201b831117156109a557600080fd5b91908080601f0160208091040260200160405190810160405280939291908181526020018383808284376000920191909152509295506120b4945050505050565b6108ab6123b8565b61022e60048036036020811015610a0457600080fd5b50356123bf565b61081960048036036020811015610a2157600080fd5b503561240c565b6108ab60048036036020811015610a3e57600080fd5b503561263d565b61022e600480360360a0811015610a5b57600080fd5b810190602081018135600160201b811115610a7557600080fd5b820183602082011115610a8757600080fd5b803590602001918460018302840111600160201b83111715610aa857600080fd5b91908080601f0160208091040260200160405190810160405280939291908181526020018383808284376000920191909152509295949360208101935035915050600160201b811115610afa57600080fd5b820183602082011115610b0c57600080fd5b803590602001918460208302840111600160201b83111715610b2d57600080fd5b9190808060200260200160405190810160405280939291908181526020018383602002808284376000920191909152509295949360208101935035915050600160201b811115610b7c57600080fd5b820183602082011115610b8e57600080fd5b803590602001918460018302840111600160201b83111715610baf57600080fd5b91908080601f0160208091040260200160405190810160405280939291908181526020018383808284376000920191909152509295949360208101935035915050600160201b811115610c0157600080fd5b820183602082011115610c1357600080fd5b803590602001918460018302840111600160201b83111715610c3457600080fd5b91908080601f0160208091040260200160405190810160405280939291908181526020018383808284376000920191909152509295505091359250612652915050565b610c9460048036036020811015610c8d57600080fd5b5035612edc565b60405180806020018a8152602001898152602001888152602001806020018781526020018060200186815260200185815260200184810384528d818151815260200191508051906020019080838360005b83811015610cfd578181015183820152602001610ce5565b50505050905090810190601f168015610d2a5780820380516001836020036101000a031916815260200191505b5084810383528951815289516020918201918b019080838360005b83811015610d5d578181015183820152602001610d45565b50505050905090810190601f168015610d8a5780820380516001836020036101000a031916815260200191505b50848103825287518152875160209182019189019080838360005b83811015610dbd578181015183820152602001610da5565b50505050905090810190601f168015610dea5780820380516001836020036101000a031916815260200191505b509c5050505050505050505050505060405180910390f35b600080836040516020018082805190602001908083835b60208310610e385780518252601f199092019160209182019101610e19565b6001836020036101000a038019825116818451168082178552505050505050905001915050604051602081830303815290604052805190602001209050610e7e816123bf565b1515600114610ecf5760408051600160e51b62461bcd0281526020600482015260126024820152600160701b7175736572206e6f7420696e2073797374656d02604482015290519081900360640190fd5b6000818152602081815260409091208451610ef292600690920191860190613285565b50600081815260208190526040902060080154600180548592908110610f1457fe5b90600052602060002090600602016004019080519060200190610f38929190613285565b50806000805160206133bf83398151915260008084815260200190815260200160002060080154866000808681526020019081526020016000206002015460008087815260200190815260200160002060030154600080888152602001908152602001600020600401600080898152602001908152602001600020600501548a6000808b8152602001908152602001600020600701546040518089815260200180602001888152602001878152602001806020018681526020018060200185815260200184810384528b818151815260200191508051906020019080838360005b83811015611031578181015183820152602001611019565b50505050905090810190601f16801561105e5780820380516001836020036101000a031916815260200191505b508481038352885460026000196101006001841615020190911604808252602090910190899080156110d15780601f106110a6576101008083540402835291602001916110d1565b820191906000526020600020905b8154815290600101906020018083116110b457829003601f168201915b5050848103825286518152865160209182019188019080838360005b838110156111055781810151838201526020016110ed565b50505050905090810190601f1680156111325780820380516001836020036101000a031916815260200191505b509b50505050505050505050505060405180910390a25060019392505050565b600060608060006060600080876040516020018082805190602001908083835b602083106111915780518252601f199092019160209182019101611172565b6001836020036101000a0380198251168184511680821785525050505050509050019150506040516020818303038152906040528051906020012090506111d7816123bf565b15156001146112285760408051600160e51b62461bcd0281526020600482015260126024820152600160701b7175736572206e6f7420696e2073797374656d02604482015290519081900360640190fd5b60008181526020818152604091829020600581015460078201548254855160026001831615610100026000190190921691909104601f8101869004860282018601909652858152869593946004860194600687019392918791908301828280156112d35780601f106112a8576101008083540402835291602001916112d3565b820191906000526020600020905b8154815290600101906020018083116112b657829003601f168201915b5050875460408051602060026001851615610100026000190190941693909304601f8101849004840282018401909252818152959a50899450925084019050828280156113615780601f1061133657610100808354040283529160200191611361565b820191906000526020600020905b81548152906001019060200180831161134457829003601f168201915b5050855460408051602060026001851615610100026000190190941693909304601f8101849004840282018401909252818152959950879450925084019050828280156113ef5780601f106113c4576101008083540402835291602001916113ef565b820191906000526020600020905b8154815290600101906020018083116113d257829003601f168201915b505050505091509650965096509650965096505091939550919395565b600080836040516020018082805190602001908083835b602083106114425780518252601f199092019160209182019101611423565b6001836020036101000a038019825116818451168082178552505050505050905001915050604051602081830303815290604052805190602001209050611488816123bf565b15156001146114d95760408051600160e51b62461bcd0281526020600482015260126024820152600160701b7175736572206e6f7420696e2073797374656d02604482015290519081900360640190fd5b6000818152602081905260409020600581018490556008015460018054859290811061150157fe5b906000526020600020906006020160030181905550806000805160206133bf83398151915260008084815260200190815260200160002060080154866000808681526020019081526020016000206002015460008087815260200190815260200160002060030154600080888152602001908152602001600020600401896000808a81526020019081526020016000206006016000808b8152602001908152602001600020600701546040518089815260200180602001888152602001878152602001806020018681526020018060200185815260200184810384528b818151815260200191508051906020019080838360005b8381101561160d5781810151838201526020016115f5565b50505050905090810190601f16801561163a5780820380516001836020036101000a031916815260200191505b508481038352885460026000196101006001841615020190911604808252602090910190899080156116ad5780601f10611682576101008083540402835291602001916116ad565b820191906000526020600020905b81548152906001019060200180831161169057829003601f168201915b50508481038252865460026000196101006001841615020190911604808252602090910190879080156117215780601f106116f657610100808354040283529160200191611721565b820191906000526020600020905b81548152906001019060200180831161170457829003601f168201915b50509b50505050505050505050505060405180910390a25060019392505050565b60006060806000606060006001878154811061175a57fe5b9060005260206000209060060201600001546001888154811061177957fe5b90600052602060002090600602016001016001898154811061179757fe5b906000526020600020906006020160020160018a815481106117b557fe5b90600052602060002090600602016003015460018b815481106117d457fe5b906000526020600020906006020160040160018c815481106117f257fe5b600091825260209182902060056006909202010154855460408051601f60026000196101006001871615020190941693909304928301859004850281018501909152818152919287919083018282801561188d5780601f106118625761010080835404028352916020019161188d565b820191906000526020600020905b81548152906001019060200180831161187057829003601f168201915b5050875460408051602060026001851615610100026000190190941693909304601f8101849004840282018401909252818152959a508994509250840190508282801561191b5780601f106118f05761010080835404028352916020019161191b565b820191906000526020600020905b8154815290600101906020018083116118fe57829003601f168201915b5050855460408051602060026001851615610100026000190190941693909304601f8101849004840282018401909252818152959950879450925084019050828280156119a95780601f1061197e576101008083540402835291602001916119a9565b820191906000526020600020905b81548152906001019060200180831161198c57829003601f168201915b5050505050915095509550955095509550955091939550919395565b600080856040516020018082805190602001908083835b602083106119fb5780518252601f1990920191602091820191016119dc565b6001836020036101000a03801982511681845116808217855250505050505090500191505060405160208183030381529060405280519060200120905060006040516020018080600160f81b6061028152506001019050604051602081830303815290604052805190602001209050611a73826123bf565b151560011415611acd5760408051600160e51b62461bcd02815260206004820152601660248201527f7573657220616c6c7265647920696e2073797374656d00000000000000000000604482015290519081900360640190fd5b6000828152602081815260409091208851611aea928a0190613285565b50600082815260208190526040902060018101839055600201819055611b0f826130cd565b60008381526020818152604090912060038101929092558751611b389260040191890190613285565b50600082815260208181526040909120600581018690558651611b6392600690920191880190613285565b5060008281526020819052604090206001600790910155611b878288888789613153565b50600180805490500360008084815260200190815260200160002060080181905550817fc0c62d08c78e5c16afc099fc9f763c6e634ce4469508079c0f61958fc34129a8600080858152602001908152602001600020600801548960008087815260200190815260200160002060020154600080888152602001908152602001600020600301548b8a8c6000808c8152602001908152602001600020600701546040518089815260200180602001888152602001878152602001806020018681526020018060200185815260200184810384528b818151815260200191508051906020019080838360005b83811015611c8a578181015183820152602001611c72565b50505050905090810190601f168015611cb75780820380516001836020036101000a031916815260200191505b5084810383528851815288516020918201918a019080838360005b83811015611cea578181015183820152602001611cd2565b50505050905090810190601f168015611d175780820380516001836020036101000a031916815260200191505b50848103825286518152865160209182019188019080838360005b83811015611d4a578181015183820152602001611d32565b50505050905090810190601f168015611d775780820380516001836020036101000a031916815260200191505b509b50505050505050505050505060405180910390a25060019695505050505050565b600080836040516020018082805190602001908083835b60208310611dd05780518252601f199092019160209182019101611db1565b51815160209384036101000a60001901801990921691161790526040805192909401828103601f19018352845281519181019190912060008181529182905292902060078101889055600801546001805493965088955093509182109050611e3457fe5b60009182526020909120600560069092020101555060019392505050565b50600090565b600081815260208190526040902060070154606090819060051415611f7a576000838152602081905260409020600360078201819055600890910154600180549091908110611ea357fe5b90600052602060002090600602016005018190555060016000808581526020019081526020016000206008015481548110611eda57fe5b600091825260209182902060026006909202018101805460408051601f600019610100600186161502019093169490940491820185900485028401850190528083529192909190830182828015611f725780601f10611f4757610100808354040283529160200191611f72565b820191906000526020600020905b815481529060010190602001808311611f5557829003601f168201915b505050505090505b60008381526020819052604090206007015460031415612097576000838152602081905260409020600560078201819055600890910154600180549091908110611fc057fe5b90600052602060002090600602016005018190555060016000808581526020019081526020016000206008015481548110611ff757fe5b600091825260209182902060026006909202018101805460408051601f60001961010060018616150201909316949094049182018590048502840185019052808352919290919083018282801561208f5780601f106120645761010080835404028352916020019161208f565b820191906000526020600020905b81548152906001019060200180831161207257829003601f168201915b505050505090505b90505b919050565b60009081526020819052604090206002015490565b600080836040516020018082805190602001908083835b602083106120ea5780518252601f1990920191602091820191016120cb565b6001836020036101000a038019825116818451168082178552505050505050905001915050604051602081830303815290604052805190602001209050612130816123bf565b15156001146121815760408051600160e51b62461bcd0281526020600482015260126024820152600160701b7175736572206e6f7420696e2073797374656d02604482015290519081900360640190fd5b60008181526020818152604090912084516121a492600490920191860190613285565b506000818152602081905260409020600801546001805485929081106121c657fe5b906000526020600020906006020160020190805190602001906121ea929190613285565b50806000805160206133bf8339815191526000808481526020019081526020016000206008015486600080868152602001908152602001600020600201546000808781526020019081526020016000206003015488600080898152602001908152602001600020600501546000808a81526020019081526020016000206006016000808b8152602001908152602001600020600701546040518089815260200180602001888152602001878152602001806020018681526020018060200185815260200184810384528b818151815260200191508051906020019080838360005b838110156122e35781810151838201526020016122cb565b50505050905090810190601f1680156123105780820380516001836020036101000a031916815260200191505b5084810383528851815288516020918201918a019080838360005b8381101561234357818101518382015260200161232b565b50505050905090810190601f1680156123705780820380516001836020036101000a031916815260200191505b508481038252865460026000196101006001841615020190911604808252602090910190879080156117215780601f106116f657610100808354040283529160200191611721565b6001545b90565b6001546000906123d15750600061209a565b6000828152602081905260409020600801546001805484929081106123f257fe5b906000526020600020906006020160000154149050919050565b60606000815b6002548210156124ed57836002838154811061242a57fe5b90600052602060002090600202016000015414156124e25760028054600019810190811061245457fe5b9060005260206000209060020201600001546002838154811061247357fe5b60009182526020909120600291820201919091558054600019810190811061249757fe5b906000526020600020906002020160010154600283815481106124b657fe5b90600052602060002090600202016001018190555060028054809190600190036124e09190613303565b505b600190910190612412565b600084815260208190526040902060046007820181905560089091015460018054909190811061251957fe5b9060005260206000209060060201600501819055506001600080868152602001908152602001600020600801548154811061255057fe5b600091825260209182902060026006909202018101805460408051601f6000196101006001861615020190931694909404918201859004850284018501905280835291929091908301828280156125e85780601f106125bd576101008083540402835291602001916125e8565b820191906000526020600020905b8154815290600101906020018083116125cb57829003601f168201915b50505060008781526020818152604091829020600801548251908152915194955088947fa5c19fdb258d8c46ca76c3d6908a1eae940f60ab0c5efff1face636445aa89ad945091829003019150a29392505050565b60009081526020819052604090206007015490565b600080866040516020018082805190602001908083835b602083106126885780518252601f199092019160209182019101612669565b6001836020036101000a0380198251168184511680821785525050505050509050019150506040516020818303038152906040528051906020012090506126ce816123bf565b151560011461271f5760408051600160e51b62461bcd0281526020600482015260126024820152600160701b7175736572206e6f7420696e2073797374656d02604482015290519081900360640190fd5b6000818152602081905260408120600801545b8751821015612ecd5787828151811061274757fe5b6020026020010151600114156129c257600083815260208181526040909120885161277a926004909201918a0190613285565b50866001828154811061278957fe5b906000526020600020906006020160020190805190602001906127ad929190613285565b50826000805160206133bf833981519152600080868152602001908152602001600020600801548b60008088815260200190815260200160002060020154600080898152602001908152602001600020600301548c6000808b8152602001908152602001600020600501546000808c81526020019081526020016000206006016000808d8152602001908152602001600020600701546040518089815260200180602001888152602001878152602001806020018681526020018060200185815260200184810384528b818151815260200191508051906020019080838360005b838110156128a657818101518382015260200161288e565b50505050905090810190601f1680156128d35780820380516001836020036101000a031916815260200191505b5084810383528851815288516020918201918a019080838360005b838110156129065781810151838201526020016128ee565b50505050905090810190601f1680156129335780820380516001836020036101000a031916815260200191505b508481038252865460026000196101006001841615020190911604808252602090910190879080156129a65780601f1061297b576101008083540402835291602001916129a6565b820191906000526020600020905b81548152906001019060200180831161298957829003601f168201915b50509b50505050505050505050505060405180910390a2612ec2565b8782815181106129ce57fe5b602002602001015160021415612c49576000838152602081815260409091208751612a0192600690920191890190613285565b508560018281548110612a1057fe5b90600052602060002090600602016004019080519060200190612a34929190613285565b50826000805160206133bf833981519152600080868152602001908152602001600020600801548b60008088815260200190815260200160002060020154600080898152602001908152602001600020600301546000808a81526020019081526020016000206004016000808b8152602001908152602001600020600501548d6000808d8152602001908152602001600020600701546040518089815260200180602001888152602001878152602001806020018681526020018060200185815260200184810384528b818151815260200191508051906020019080838360005b83811015612b2d578181015183820152602001612b15565b50505050905090810190601f168015612b5a5780820380516001836020036101000a031916815260200191505b50848103835288546002600019610100600184161502019091160480825260209091019089908015612bcd5780601f10612ba257610100808354040283529160200191612bcd565b820191906000526020600020905b815481529060010190602001808311612bb057829003601f168201915b5050848103825286518152865160209182019188019080838360005b83811015612c01578181015183820152602001612be9565b50505050905090810190601f168015612c2e5780820380516001836020036101000a031916815260200191505b509b50505050505050505050505060405180910390a2612ec2565b878281518110612c5557fe5b602002602001015160031415612ec25760008381526020819052604090206005018590556001805486919083908110612c8a57fe5b906000526020600020906006020160030181905550826000805160206133bf833981519152600080868152602001908152602001600020600801548b60008088815260200190815260200160002060020154600080898152602001908152602001600020600301546000808a81526020019081526020016000206004018b6000808c81526020019081526020016000206006016000808d8152602001908152602001600020600701546040518089815260200180602001888152602001878152602001806020018681526020018060200185815260200184810384528b818151815260200191508051906020019080838360005b83811015612d96578181015183820152602001612d7e565b50505050905090810190601f168015612dc35780820380516001836020036101000a031916815260200191505b50848103835288546002600019610100600184161502019091160480825260209091019089908015612e365780601f10612e0b57610100808354040283529160200191612e36565b820191906000526020600020905b815481529060010190602001808311612e1957829003601f168201915b5050848103825286546002600019610100600184161502019091160480825260209091019087908015612eaa5780601f10612e7f57610100808354040283529160200191612eaa565b820191906000526020600020905b815481529060010190602001808311612e8d57829003601f168201915b50509b50505050505050505050505060405180910390a25b600190910190612732565b50600198975050505050505050565b6000602081815291815260409081902080548251601f600260001961010060018616150201909316929092049182018590048502810185019093528083529092839190830182828015612f705780601f10612f4557610100808354040283529160200191612f70565b820191906000526020600020905b815481529060010190602001808311612f5357829003601f168201915b505050505090806001015490806002015490806003015490806004018054600181600116156101000203166002900480601f0160208091040260200160405190810160405280929190818152602001828054600181600116156101000203166002900480156130205780601f10612ff557610100808354040283529160200191613020565b820191906000526020600020905b81548152906001019060200180831161300357829003601f168201915b50505050600583015460068401805460408051602060026001851615610100026000190190941693909304601f810184900484028201840190925281815295969395939450908301828280156130b75780601f1061308c576101008083540402835291602001916130b7565b820191906000526020600020905b81548152906001019060200180831161309a57829003601f168201915b5050505050908060070154908060080154905089565b6000806130d8613259565b90506130e2613334565b83815260208101828152600280546001810182556000829052925192027f405787fa12a823e0f2b7631cc41b3ba8828b3321ca811111fa75cd3aa3bb5ace810192909255517f405787fa12a823e0f2b7631cc41b3ba8828b3321ca811111fa75cd3aa3bb5acf909101559050919050565b600061315d61334b565b8681526020808201878152604083018790526060830186905260808301859052600160a084018190528054808201808355600092909252845160069091027fb10e2d527612073b26eecdfd717e6a320cf44b4afac2b0732d9fcbe2b7fa0cf68101918255925180519294869492936131fb937fb10e2d527612073b26eecdfd717e6a320cf44b4afac2b0732d9fcbe2b7fa0cf7019290910190613285565b5060408201518051613217916002840191602090910190613285565b50606082015160038201556080820151805161323d916004840191602090910190613285565b5060a08201518160050155505050600191505095945050505050565b604080514260208083019190915244828401528251808303840181526060909201909252805191012090565b828054600181600116156101000203166002900490600052602060002090601f016020900481019282601f106132c657805160ff19168380011785556132f3565b828001600101855582156132f3579182015b828111156132f35782518255916020019190600101906132d8565b506132ff929150613384565b5090565b81548183558181111561332f5760020281600202836000526020600020918201910161332f919061339e565b505050565b604080518082019091526000808252602082015290565b6040518060c001604052806000801916815260200160608152602001606081526020016000815260200160608152602001600081525090565b6123bc91905b808211156132ff576000815560010161338a565b6123bc91905b808211156132ff57600080825560018201556002016133a456fe7b839715468e0a108a507bdb1adbf2a3420abc1e4f1c0cd1f905d823c3caeb90a165627a7a723058201ba7cea0a4970cfd968f9437fd17b961b39e1b53d96571760672e89fa22206090029",
  "source": "pragma solidity >=0.4.21 <0.6.0;\r\n\r\ncontract SupervisorContract {\r\n    \r\n    struct Supervisor{\r\n        string email;\r\n        bytes32 emailCode;\r\n        bytes32 passwordCode;\r\n        bytes32 passwordRestToken;\r\n        string name;\r\n        uint contactNumber;\r\n        string userAddress;\r\n        uint userAccess;\r\n        uint index;\r\n    }\r\n\r\n    struct DisplaySupervisor{\r\n        bytes32 emailCode;\r\n        string email;\r\n        string name;\r\n        uint contactNumber;\r\n        string userAddress;\r\n        uint userAccess;\r\n    }\r\n    \r\n    event LogNewSupervisor(\r\n        bytes32 indexed emailCode,\r\n        uint index,string email,\r\n        bytes32 passwordCode,\r\n        bytes32 passwordRestToken,\r\n        string name,\r\n        uint contactNumber,\r\n        string userAddress,\r\n        uint userAccess\r\n        );\r\n    event LogUpdateSupervisor(\r\n        bytes32 indexed emailCode,\r\n        uint index,string email,\r\n        bytes32 passwordCode,\r\n        bytes32 passwordRestToken,\r\n        string name,\r\n        uint contactNumber,\r\n        string userAddress,\r\n        uint userAccess\r\n        );\r\n    event LogDeleteSupervisor(\r\n        bytes32 indexed emailcode,\r\n        uint index\r\n        );\r\n        \r\n    struct RegistationToken{\r\n        bytes32 emailCode;\r\n        bytes32 token;\r\n    }\r\n        \r\n    mapping(bytes32 => Supervisor) public supervisorArray;\r\n    DisplaySupervisor[] private supervisorIndex;\r\n    RegistationToken[] private supervisorRegistationToken;\r\n    \r\n    function isSupervisor(bytes32 _emailCode)public view returns(bool isIndeed) {\r\n        if(supervisorIndex.length == 0) return false;\r\n        return (supervisorIndex[supervisorArray[_emailCode].index].emailCode == _emailCode);\r\n    }\r\n    function createSupervisorToken(bytes32 _emailCode)private returns(bytes32){\r\n        bytes32 token = randomtoken();\r\n        RegistationToken memory registationToken;\r\n        registationToken.emailCode = _emailCode;\r\n        registationToken.token = token;\r\n        supervisorRegistationToken.push(registationToken);\r\n        return token;\r\n    }\r\n    function randomtoken() private view returns (bytes32) {\r\n       return keccak256(abi.encodePacked( block.timestamp, block.difficulty));\r\n    }\r\n    function setDisplaySupervisor(bytes32 _emailCode,string memory _email,string memory _name,uint _telephone,string memory _address)\r\n     private returns(bool){\r\n\r\n        DisplaySupervisor memory displaySupervisor;\r\n        displaySupervisor.emailCode = _emailCode;\r\n        displaySupervisor.email = _email;\r\n        displaySupervisor.name = _name;\r\n        displaySupervisor.contactNumber = _telephone;\r\n        displaySupervisor.userAddress = _address;\r\n        displaySupervisor.userAccess = 1;\r\n        supervisorIndex.push(displaySupervisor);\r\n        return true;\r\n\r\n    }\r\n    function insertSupervisor(string memory _email,string memory _name,string memory _address,uint _telephone) public returns(bool){\r\n        bytes32 _emailCode = keccak256(abi.encodePacked((_email)));\r\n        bytes32 _passwordCode = keccak256(abi.encodePacked((\"a\")));\r\n        require(isSupervisor(_emailCode) != true,'user allredy in system');\r\n\r\n        supervisorArray[_emailCode].email = _email;\r\n        supervisorArray[_emailCode].emailCode = _emailCode;\r\n        supervisorArray[_emailCode].passwordCode = _passwordCode;\r\n        supervisorArray[_emailCode].passwordRestToken = createSupervisorToken(_emailCode);\r\n        supervisorArray[_emailCode].name = _name;\r\n        supervisorArray[_emailCode].contactNumber = _telephone;\r\n        supervisorArray[_emailCode].userAddress = _address;\r\n        supervisorArray[_emailCode].userAccess = 1;\r\n        setDisplaySupervisor(_emailCode,_email,_name,_telephone,_address);\r\n        supervisorArray[_emailCode].index = supervisorIndex.length-1;\r\n\r\n        emit LogNewSupervisor (\r\n            _emailCode,\r\n            supervisorArray[_emailCode].index,\r\n            _email,\r\n            supervisorArray[_emailCode].passwordCode,\r\n            supervisorArray[_emailCode].passwordRestToken,\r\n            _name,\r\n            _telephone,\r\n            _address,\r\n            supervisorArray[_emailCode].userAccess\r\n            );\r\n        return true;\r\n    }\r\n    function deleteSupervisor (bytes32 email) public returns(string memory){\r\n        uint i;\r\n        string memory name;\r\n        for( i = 0; i < supervisorRegistationToken.length; i++) {\r\n            if(supervisorRegistationToken[i].emailCode == email){\r\n                supervisorRegistationToken[i].emailCode = supervisorRegistationToken[supervisorRegistationToken.length-1].emailCode;\r\n                supervisorRegistationToken[i].token = supervisorRegistationToken[supervisorRegistationToken.length-1].token;\r\n                supervisorRegistationToken.length--;\r\n            }\r\n        }\r\n        supervisorArray[email].userAccess = 4;\r\n        supervisorIndex[supervisorArray[email].index].userAccess = 4;\r\n        name = supervisorIndex[supervisorArray[email].index].name;\r\n        emit LogDeleteSupervisor(\r\n            email,\r\n            supervisorArray[email].index\r\n        );\r\n        return name;\r\n    }\r\n    function blockSupervisor(bytes32 email) public returns(string memory)\r\n    {\r\n        string memory name;\r\n        if(supervisorArray[email].userAccess == 5){\r\n        supervisorArray[email].userAccess = 3;\r\n        supervisorIndex[supervisorArray[email].index].userAccess = 3;\r\n        name = supervisorIndex[supervisorArray[email].index].name;\r\n        }\r\n        if(supervisorArray[email].userAccess == 3){\r\n        supervisorArray[email].userAccess = 5;\r\n        supervisorIndex[supervisorArray[email].index].userAccess = 5;\r\n        name = supervisorIndex[supervisorArray[email].index].name;\r\n        }\r\n        return name;\r\n    }\r\n    function editUserAccess(string memory _email,uint usreAccess)public returns(bool){\r\n        bytes32 email = keccak256(abi.encodePacked((_email)));\r\n        supervisorArray[email].userAccess = usreAccess;\r\n        supervisorIndex[supervisorArray[email].index].userAccess = usreAccess;\r\n        return true;\r\n\r\n    }\r\n    function getSupervisor(string memory _email) public view returns(bytes32,string memory email,string memory name,\r\n    uint contactNumber,string memory userAddress, uint userAccess){\r\n        bytes32 _emailCode = keccak256(abi.encodePacked((_email)));\r\n        require(isSupervisor(_emailCode) == true,'user not in system');\r\n        return(\r\n            _emailCode,\r\n            supervisorArray[_emailCode].email,\r\n            supervisorArray[_emailCode].name,\r\n            supervisorArray[_emailCode].contactNumber,\r\n            supervisorArray[_emailCode].userAddress,\r\n            supervisorArray[_emailCode].userAccess\r\n            );\r\n    }\r\n    function getSupervisori(uint i) public view returns(\r\n        bytes32,\r\n        string memory,\r\n        string memory,\r\n        uint,\r\n        string memory,\r\n        uint\r\n        ){\r\n            return (\r\n                supervisorIndex[i].emailCode,\r\n                supervisorIndex[i].email,\r\n                supervisorIndex[i].name,\r\n                supervisorIndex[i].contactNumber,\r\n                supervisorIndex[i].userAddress,\r\n                supervisorIndex[i].userAccess\r\n                );\r\n    }\r\n    function getSupervisorCount() public view returns(uint)\r\n    {\r\n        return supervisorIndex.length;\r\n    }\r\n\r\n    // function updateUserEmail(address userAddress, bytes32 userEmail) public returns(bool success)\r\n    // {\r\n    //     userStructs[userAddress].userEmail = userEmail;\r\n    //     emit LogUpdateUser(userAddress,  userStructs[userAddress].index, userEmail, userStructs[userAddress].userAge);\r\n    //     return true;\r\n    // }\r\n    function updateSupervisorName (string memory _email,string memory _name) public returns(bool success){\r\n        bytes32 _emailCode = keccak256(abi.encodePacked((_email)));\r\n        require(isSupervisor(_emailCode) == true,'user not in system');\r\n        supervisorArray[_emailCode].name = _name;\r\n        supervisorIndex[supervisorArray[_emailCode].index].name = _name;\r\n        emit LogUpdateSupervisor(\r\n            _emailCode,\r\n            supervisorArray[_emailCode].index,\r\n            _email,\r\n            supervisorArray[_emailCode].passwordCode,\r\n            supervisorArray[_emailCode].passwordRestToken,\r\n            _name,\r\n            supervisorArray[_emailCode].contactNumber,\r\n            supervisorArray[_emailCode].userAddress,\r\n            supervisorArray[_emailCode].userAccess\r\n            );\r\n        return true;\r\n    }\r\n    function updateSupervisorAddress (string memory _email,string memory _userAddress) public returns(bool success){\r\n        bytes32 _emailCode = keccak256(abi.encodePacked((_email)));\r\n        require(isSupervisor(_emailCode) == true,'user not in system');\r\n        supervisorArray[_emailCode].userAddress = _userAddress;\r\n        supervisorIndex[supervisorArray[_emailCode].index].userAddress = _userAddress;\r\n        emit LogUpdateSupervisor(\r\n            _emailCode,\r\n            supervisorArray[_emailCode].index,\r\n            _email,\r\n            supervisorArray[_emailCode].passwordCode,\r\n            supervisorArray[_emailCode].passwordRestToken,\r\n            supervisorArray[_emailCode].name,\r\n            supervisorArray[_emailCode].contactNumber,\r\n            _userAddress,\r\n            supervisorArray[_emailCode].userAccess\r\n            );\r\n        return true;\r\n    }\r\n    function updateSupervisorContactNumber (string memory _email,uint _contactNumber) public returns(bool success){\r\n        bytes32 _emailCode = keccak256(abi.encodePacked((_email)));\r\n        require(isSupervisor(_emailCode) == true,'user not in system');\r\n        supervisorArray[_emailCode].contactNumber = _contactNumber;\r\n        supervisorIndex[supervisorArray[_emailCode].index].contactNumber = _contactNumber;\r\n        emit LogUpdateSupervisor(\r\n            _emailCode,\r\n            supervisorArray[_emailCode].index,\r\n            _email,\r\n            supervisorArray[_emailCode].passwordCode,\r\n            supervisorArray[_emailCode].passwordRestToken,\r\n            supervisorArray[_emailCode].name,\r\n            _contactNumber,\r\n            supervisorArray[_emailCode].userAddress,\r\n            supervisorArray[_emailCode].userAccess\r\n            );\r\n        return true;\r\n    }\r\n    function updateSupervisor(\r\n        string memory _email,\r\n        uint[] memory index,\r\n        string memory _name,\r\n        string memory _userAddress,\r\n        uint _contactNumber\r\n        ) public returns(bool success){\r\n        bytes32 _emailCode = keccak256(abi.encodePacked((_email)));\r\n        require(isSupervisor(_emailCode) == true,'user not in system');\r\n        uint i;\r\n        uint num = supervisorArray[_emailCode].index;\r\n\r\n        for (i = 0;i<index.length;i++){\r\n            if(index[i]==1){\r\n                supervisorArray[_emailCode].name = _name;\r\n                supervisorIndex[num].name = _name;\r\n                emit LogUpdateSupervisor(\r\n                    _emailCode,\r\n                    supervisorArray[_emailCode].index,\r\n                    _email,supervisorArray[_emailCode].passwordCode,\r\n                    supervisorArray[_emailCode].passwordRestToken,\r\n                    _name,\r\n                    supervisorArray[_emailCode].contactNumber,\r\n                    supervisorArray[_emailCode].userAddress,\r\n                    supervisorArray[_emailCode].userAccess\r\n                    );\r\n\r\n            }\r\n            else if(index[i]==2){\r\n                supervisorArray[_emailCode].userAddress = _userAddress;\r\n\r\n                supervisorIndex[num].userAddress = _userAddress;\r\n\r\n                emit LogUpdateSupervisor(\r\n                    _emailCode,\r\n                    supervisorArray[_emailCode].index,\r\n                    _email,\r\n                    supervisorArray[_emailCode].passwordCode,\r\n                    supervisorArray[_emailCode].passwordRestToken,\r\n                    supervisorArray[_emailCode].name,\r\n                    supervisorArray[_emailCode].contactNumber,\r\n                    _userAddress,\r\n                    supervisorArray[_emailCode].userAccess\r\n                    );\r\n\r\n            }\r\n            else if(index[i]==3){\r\n                supervisorArray[_emailCode].contactNumber = _contactNumber;\r\n                supervisorIndex[num].contactNumber = _contactNumber;\r\n                emit LogUpdateSupervisor(\r\n                    _emailCode,\r\n                    supervisorArray[_emailCode].index,\r\n                    _email,\r\n                    supervisorArray[_emailCode].passwordCode,\r\n                    supervisorArray[_emailCode].passwordRestToken,\r\n                    supervisorArray[_emailCode].name,\r\n                    _contactNumber,\r\n                    supervisorArray[_emailCode].userAddress,\r\n                    supervisorArray[_emailCode].userAccess\r\n                    );\r\n\r\n            }\r\n        }\r\n        return true;\r\n    }\r\n    ///////\r\n    function updateSupervisoriEmail (string memory _email) public returns(bool success)\r\n    {\r\n       // return true;\r\n    }\r\n    function checkSupervisorUserAccess(bytes32 email)public view returns(uint userAccess){\r\n\r\n        return supervisorArray[email].userAccess;\r\n    }\r\n    function checkSupervisorPasswordCode(bytes32 email) public view returns(bytes32 passwordCode ){\r\n        return supervisorArray[email].passwordCode;\r\n    }\r\n}",
  "sourcePath": "C:\\project\\tea supply chain mangement system\\test2\\contracts\\Supervisor.sol",
  "compiler": {
    "name": "solc",
    "version": "0.5.8+commit.23d335f2.Emscripten.clang"
  },
  "schemaVersion": "3.0.16",
  "updatedAt": "2019-11-29T00:00:45.314Z",
  "devdoc": {
    "methods": {}
  },
  "userdoc": {
    "methods": {
      "updateSupervisoriEmail(string)": {
        "notice": "////"
      }
    }
  }
}