{
  "contractName": "SupervisorContract",
  "abi": [
    {
      "anonymous": false,
      "inputs": [
        {
          "indexed": true,
          "internalType": "bytes32",
          "name": "emailcode",
          "type": "bytes32"
        },
        {
          "indexed": false,
          "internalType": "uint256",
          "name": "index",
          "type": "uint256"
        }
      ],
      "name": "LogDeleteSupervisor",
      "type": "event"
    },
    {
      "anonymous": false,
      "inputs": [
        {
          "indexed": true,
          "internalType": "bytes32",
          "name": "emailCode",
          "type": "bytes32"
        },
        {
          "indexed": false,
          "internalType": "uint256",
          "name": "index",
          "type": "uint256"
        },
        {
          "indexed": false,
          "internalType": "string",
          "name": "email",
          "type": "string"
        },
        {
          "indexed": false,
          "internalType": "bytes32",
          "name": "passwordCode",
          "type": "bytes32"
        },
        {
          "indexed": false,
          "internalType": "string",
          "name": "name",
          "type": "string"
        },
        {
          "indexed": false,
          "internalType": "uint256",
          "name": "contactNumber",
          "type": "uint256"
        },
        {
          "indexed": false,
          "internalType": "string",
          "name": "userAddress",
          "type": "string"
        },
        {
          "indexed": false,
          "internalType": "uint256",
          "name": "userAccess",
          "type": "uint256"
        }
      ],
      "name": "LogNewSupervisor",
      "type": "event"
    },
    {
      "anonymous": false,
      "inputs": [
        {
          "indexed": true,
          "internalType": "bytes32",
          "name": "emailCode",
          "type": "bytes32"
        },
        {
          "indexed": false,
          "internalType": "uint256",
          "name": "index",
          "type": "uint256"
        },
        {
          "indexed": false,
          "internalType": "string",
          "name": "email",
          "type": "string"
        },
        {
          "indexed": false,
          "internalType": "bytes32",
          "name": "passwordCode",
          "type": "bytes32"
        },
        {
          "indexed": false,
          "internalType": "string",
          "name": "name",
          "type": "string"
        },
        {
          "indexed": false,
          "internalType": "uint256",
          "name": "contactNumber",
          "type": "uint256"
        },
        {
          "indexed": false,
          "internalType": "string",
          "name": "userAddress",
          "type": "string"
        },
        {
          "indexed": false,
          "internalType": "uint256",
          "name": "userAccess",
          "type": "uint256"
        }
      ],
      "name": "LogUpdateSupervisor",
      "type": "event"
    },
    {
      "constant": true,
      "inputs": [
        {
          "internalType": "bytes32",
          "name": "",
          "type": "bytes32"
        }
      ],
      "name": "supervisorArray",
      "outputs": [
        {
          "internalType": "string",
          "name": "email",
          "type": "string"
        },
        {
          "internalType": "bytes32",
          "name": "emailCode",
          "type": "bytes32"
        },
        {
          "internalType": "bytes32",
          "name": "passwordCode",
          "type": "bytes32"
        },
        {
          "internalType": "string",
          "name": "name",
          "type": "string"
        },
        {
          "internalType": "uint256",
          "name": "contactNumber",
          "type": "uint256"
        },
        {
          "internalType": "string",
          "name": "userAddress",
          "type": "string"
        },
        {
          "internalType": "uint256",
          "name": "userAccess",
          "type": "uint256"
        },
        {
          "internalType": "uint256",
          "name": "index",
          "type": "uint256"
        }
      ],
      "payable": false,
      "stateMutability": "view",
      "type": "function"
    },
    {
      "constant": true,
      "inputs": [
        {
          "internalType": "bytes32",
          "name": "_emailCode",
          "type": "bytes32"
        }
      ],
      "name": "isSupervisor",
      "outputs": [
        {
          "internalType": "bool",
          "name": "isIndeed",
          "type": "bool"
        }
      ],
      "payable": false,
      "stateMutability": "view",
      "type": "function"
    },
    {
      "constant": false,
      "inputs": [
        {
          "internalType": "string",
          "name": "_email",
          "type": "string"
        }
      ],
      "name": "createSupervisorToken",
      "outputs": [
        {
          "internalType": "bytes32",
          "name": "",
          "type": "bytes32"
        }
      ],
      "payable": false,
      "stateMutability": "nonpayable",
      "type": "function"
    },
    {
      "constant": true,
      "inputs": [
        {
          "internalType": "string",
          "name": "_email",
          "type": "string"
        }
      ],
      "name": "getSupervisorToken",
      "outputs": [
        {
          "internalType": "bytes32",
          "name": "",
          "type": "bytes32"
        }
      ],
      "payable": false,
      "stateMutability": "view",
      "type": "function"
    },
    {
      "constant": true,
      "inputs": [
        {
          "internalType": "string",
          "name": "_email",
          "type": "string"
        },
        {
          "internalType": "bytes32",
          "name": "_token",
          "type": "bytes32"
        }
      ],
      "name": "checkSupervisorToken",
      "outputs": [
        {
          "internalType": "bool",
          "name": "",
          "type": "bool"
        }
      ],
      "payable": false,
      "stateMutability": "view",
      "type": "function"
    },
    {
      "constant": false,
      "inputs": [
        {
          "internalType": "string",
          "name": "_email",
          "type": "string"
        },
        {
          "internalType": "string",
          "name": "_password",
          "type": "string"
        }
      ],
      "name": "setPassword",
      "outputs": [
        {
          "internalType": "bool",
          "name": "",
          "type": "bool"
        }
      ],
      "payable": false,
      "stateMutability": "nonpayable",
      "type": "function"
    },
    {
      "constant": false,
      "inputs": [
        {
          "internalType": "string",
          "name": "_email",
          "type": "string"
        },
        {
          "internalType": "string",
          "name": "_name",
          "type": "string"
        },
        {
          "internalType": "string",
          "name": "_address",
          "type": "string"
        },
        {
          "internalType": "uint256",
          "name": "_telephone",
          "type": "uint256"
        }
      ],
      "name": "insertSupervisor",
      "outputs": [
        {
          "internalType": "bool",
          "name": "",
          "type": "bool"
        }
      ],
      "payable": false,
      "stateMutability": "nonpayable",
      "type": "function"
    },
    {
      "constant": false,
      "inputs": [
        {
          "internalType": "bytes32",
          "name": "email",
          "type": "bytes32"
        }
      ],
      "name": "deleteSupervisor",
      "outputs": [
        {
          "internalType": "string",
          "name": "",
          "type": "string"
        }
      ],
      "payable": false,
      "stateMutability": "nonpayable",
      "type": "function"
    },
    {
      "constant": false,
      "inputs": [
        {
          "internalType": "bytes32",
          "name": "email",
          "type": "bytes32"
        }
      ],
      "name": "blockSupervisor",
      "outputs": [
        {
          "internalType": "string",
          "name": "",
          "type": "string"
        }
      ],
      "payable": false,
      "stateMutability": "nonpayable",
      "type": "function"
    },
    {
      "constant": false,
      "inputs": [
        {
          "internalType": "string",
          "name": "_email",
          "type": "string"
        },
        {
          "internalType": "uint256",
          "name": "usreAccess",
          "type": "uint256"
        }
      ],
      "name": "editUserAccess",
      "outputs": [
        {
          "internalType": "bool",
          "name": "",
          "type": "bool"
        }
      ],
      "payable": false,
      "stateMutability": "nonpayable",
      "type": "function"
    },
    {
      "constant": true,
      "inputs": [
        {
          "internalType": "string",
          "name": "_email",
          "type": "string"
        }
      ],
      "name": "getSupervisor",
      "outputs": [
        {
          "internalType": "bytes32",
          "name": "",
          "type": "bytes32"
        },
        {
          "internalType": "string",
          "name": "email",
          "type": "string"
        },
        {
          "internalType": "string",
          "name": "name",
          "type": "string"
        },
        {
          "internalType": "uint256",
          "name": "contactNumber",
          "type": "uint256"
        },
        {
          "internalType": "string",
          "name": "userAddress",
          "type": "string"
        },
        {
          "internalType": "uint256",
          "name": "userAccess",
          "type": "uint256"
        }
      ],
      "payable": false,
      "stateMutability": "view",
      "type": "function"
    },
    {
      "constant": true,
      "inputs": [
        {
          "internalType": "uint256",
          "name": "i",
          "type": "uint256"
        }
      ],
      "name": "getSupervisori",
      "outputs": [
        {
          "internalType": "bytes32",
          "name": "",
          "type": "bytes32"
        },
        {
          "internalType": "string",
          "name": "",
          "type": "string"
        },
        {
          "internalType": "string",
          "name": "",
          "type": "string"
        },
        {
          "internalType": "uint256",
          "name": "",
          "type": "uint256"
        },
        {
          "internalType": "string",
          "name": "",
          "type": "string"
        },
        {
          "internalType": "uint256",
          "name": "",
          "type": "uint256"
        }
      ],
      "payable": false,
      "stateMutability": "view",
      "type": "function"
    },
    {
      "constant": true,
      "inputs": [],
      "name": "getSupervisorCount",
      "outputs": [
        {
          "internalType": "uint256",
          "name": "",
          "type": "uint256"
        }
      ],
      "payable": false,
      "stateMutability": "view",
      "type": "function"
    },
    {
      "constant": false,
      "inputs": [
        {
          "internalType": "string",
          "name": "_email",
          "type": "string"
        },
        {
          "internalType": "string",
          "name": "_name",
          "type": "string"
        }
      ],
      "name": "updateSupervisorName",
      "outputs": [
        {
          "internalType": "bool",
          "name": "success",
          "type": "bool"
        }
      ],
      "payable": false,
      "stateMutability": "nonpayable",
      "type": "function"
    },
    {
      "constant": false,
      "inputs": [
        {
          "internalType": "string",
          "name": "_email",
          "type": "string"
        },
        {
          "internalType": "string",
          "name": "_userAddress",
          "type": "string"
        }
      ],
      "name": "updateSupervisorAddress",
      "outputs": [
        {
          "internalType": "bool",
          "name": "success",
          "type": "bool"
        }
      ],
      "payable": false,
      "stateMutability": "nonpayable",
      "type": "function"
    },
    {
      "constant": false,
      "inputs": [
        {
          "internalType": "string",
          "name": "_email",
          "type": "string"
        },
        {
          "internalType": "uint256",
          "name": "_contactNumber",
          "type": "uint256"
        }
      ],
      "name": "updateSupervisorContactNumber",
      "outputs": [
        {
          "internalType": "bool",
          "name": "success",
          "type": "bool"
        }
      ],
      "payable": false,
      "stateMutability": "nonpayable",
      "type": "function"
    },
    {
      "constant": false,
      "inputs": [
        {
          "internalType": "string",
          "name": "_email",
          "type": "string"
        },
        {
          "internalType": "uint256[]",
          "name": "index",
          "type": "uint256[]"
        },
        {
          "internalType": "string",
          "name": "_name",
          "type": "string"
        },
        {
          "internalType": "string",
          "name": "_userAddress",
          "type": "string"
        },
        {
          "internalType": "uint256",
          "name": "_contactNumber",
          "type": "uint256"
        }
      ],
      "name": "updateSupervisor",
      "outputs": [
        {
          "internalType": "bool",
          "name": "success",
          "type": "bool"
        }
      ],
      "payable": false,
      "stateMutability": "nonpayable",
      "type": "function"
    },
    {
      "constant": false,
      "inputs": [
        {
          "internalType": "string",
          "name": "_email",
          "type": "string"
        }
      ],
      "name": "updateSupervisoriEmail",
      "outputs": [
        {
          "internalType": "bool",
          "name": "success",
          "type": "bool"
        }
      ],
      "payable": false,
      "stateMutability": "nonpayable",
      "type": "function"
    },
    {
      "constant": true,
      "inputs": [
        {
          "internalType": "bytes32",
          "name": "email",
          "type": "bytes32"
        }
      ],
      "name": "checkSupervisorUserAccess",
      "outputs": [
        {
          "internalType": "uint256",
          "name": "userAccess",
          "type": "uint256"
        }
      ],
      "payable": false,
      "stateMutability": "view",
      "type": "function"
    },
    {
      "constant": true,
      "inputs": [
        {
          "internalType": "bytes32",
          "name": "email",
          "type": "bytes32"
        }
      ],
      "name": "checkSupervisorPasswordCode",
      "outputs": [
        {
          "internalType": "bytes32",
          "name": "passwordCode",
          "type": "bytes32"
        }
      ],
      "payable": false,
      "stateMutability": "view",
      "type": "function"
    }
  ],
  "bytecode": "0x608060405234801561001057600080fd5b506138dd806100206000396000f3fe608060405234801561001057600080fd5b506004361061012c5760003560e01c806389cda3dd116100ad578063c27418da11610071578063c27418da14610c25578063c3cd325a14610c42578063ca38649614610c5f578063d9447e5914610d88578063efa3cbfe14610fba5761012c565b806389cda3dd14610a145780639af98ecf14610a315780639fb646f414610b5a578063a0e1629014610b62578063b247bb2f14610b7f5761012c565b8063645ed50e116100f4578063645ed50e146105e45780636609b7cc14610794578063670151b81461083a5780637e082866146108de578063898a33fd146109705761012c565b8063129d9002146101315780631db7c6081461026e5780632d92dbc01461046b57806330532763146105115780633b1125021461052e575b600080fd5b61025a6004803603604081101561014757600080fd5b810190602081018135600160201b81111561016157600080fd5b82018360208201111561017357600080fd5b803590602001918460018302840111600160201b8311171561019457600080fd5b91908080601f0160208091040260200160405190810160405280939291908181526020018383808284376000920191909152509295949360208101935035915050600160201b8111156101e657600080fd5b8201836020820111156101f857600080fd5b803590602001918460018302840111600160201b8311171561021957600080fd5b91908080601f01602080910402602001604051908101604052809392919081815260200183838082843760009201919091525092955061113e945050505050565b604080519115158252519081900360200190f35b6103126004803603602081101561028457600080fd5b810190602081018135600160201b81111561029e57600080fd5b8201836020820111156102b057600080fd5b803590602001918460018302840111600160201b831117156102d157600080fd5b91908080601f016020809104026020016040519081016040528093929190818152602001838380828437600092019190915250929550611437945050505050565b60405180878152602001806020018060200186815260200180602001858152602001848103845289818151815260200191508051906020019080838360005b83811015610369578181015183820152602001610351565b50505050905090810190601f1680156103965780820380516001836020036101000a031916815260200191505b5084810383528851815288516020918201918a019080838360005b838110156103c95781810151838201526020016103b1565b50505050905090810190601f1680156103f65780820380516001836020036101000a031916815260200191505b50848103825286518152865160209182019188019080838360005b83811015610429578181015183820152602001610411565b50505050905090810190601f1680156104565780820380516001836020036101000a031916815260200191505b50995050505050505050505060405180910390f35b61025a6004803603604081101561048157600080fd5b810190602081018135600160201b81111561049b57600080fd5b8201836020820111156104ad57600080fd5b803590602001918460018302840111600160201b831117156104ce57600080fd5b91908080601f01602080910402602001604051908101604052809392919081815260200183838082843760009201919091525092955050913592506116eb915050565b6103126004803603602081101561052757600080fd5b50356119c7565b6105d26004803603602081101561054457600080fd5b810190602081018135600160201b81111561055e57600080fd5b82018360208201111561057057600080fd5b803590602001918460018302840111600160201b8311171561059157600080fd5b91908080601f016020809104026020016040519081016040528093929190818152602001838380828437600092019190915250929550611c4a945050505050565b60408051918252519081900360200190f35b61025a600480360360808110156105fa57600080fd5b810190602081018135600160201b81111561061457600080fd5b82018360208201111561062657600080fd5b803590602001918460018302840111600160201b8311171561064757600080fd5b91908080601f0160208091040260200160405190810160405280939291908181526020018383808284376000920191909152509295949360208101935035915050600160201b81111561069957600080fd5b8201836020820111156106ab57600080fd5b803590602001918460018302840111600160201b831117156106cc57600080fd5b91908080601f0160208091040260200160405190810160405280939291908181526020018383808284376000920191909152509295949360208101935035915050600160201b81111561071e57600080fd5b82018360208201111561073057600080fd5b803590602001918460018302840111600160201b8311171561075157600080fd5b91908080601f0160208091040260200160405190810160405280939291908181526020018383808284376000920191909152509295505091359250611cdd915050565b61025a600480360360408110156107aa57600080fd5b810190602081018135600160201b8111156107c457600080fd5b8201836020820111156107d657600080fd5b803590602001918460018302840111600160201b831117156107f757600080fd5b91908080601f0160208091040260200160405190810160405280939291908181526020018383808284376000920191909152509295505091359250612072915050565b61025a6004803603602081101561085057600080fd5b810190602081018135600160201b81111561086a57600080fd5b82018360208201111561087c57600080fd5b803590602001918460018302840111600160201b8311171561089d57600080fd5b91908080601f01602080910402602001604051908101604052809392919081815260200183838082843760009201919091525092955061212a945050505050565b6108fb600480360360208110156108f457600080fd5b5035612130565b6040805160208082528351818301528351919283929083019185019080838360005b8381101561093557818101518382015260200161091d565b50505050905090810190601f1680156109625780820380516001836020036101000a031916815260200191505b509250505060405180910390f35b6105d26004803603602081101561098657600080fd5b810190602081018135600160201b8111156109a057600080fd5b8201836020820111156109b257600080fd5b803590602001918460018302840111600160201b831117156109d357600080fd5b91908080601f016020809104026020016040519081016040528093929190818152602001838380828437600092019190915250929550612375945050505050565b6105d260048036036020811015610a2a57600080fd5b5035612437565b61025a60048036036040811015610a4757600080fd5b810190602081018135600160201b811115610a6157600080fd5b820183602082011115610a7357600080fd5b803590602001918460018302840111600160201b83111715610a9457600080fd5b91908080601f0160208091040260200160405190810160405280939291908181526020018383808284376000920191909152509295949360208101935035915050600160201b811115610ae657600080fd5b820183602082011115610af857600080fd5b803590602001918460018302840111600160201b83111715610b1957600080fd5b91908080601f01602080910402602001604051908101604052809392919081815260200183838082843760009201919091525092955061244c945050505050565b6105d26126f8565b61025a60048036036020811015610b7857600080fd5b50356126ff565b61025a60048036036040811015610b9557600080fd5b810190602081018135600160201b811115610baf57600080fd5b820183602082011115610bc157600080fd5b803590602001918460018302840111600160201b83111715610be257600080fd5b91908080601f016020809104026020016040519081016040528093929190818152602001838380828437600092019190915250929550509135925061274c915050565b6108fb60048036036020811015610c3b57600080fd5b50356127d8565b6105d260048036036020811015610c5857600080fd5b5035612940565b61025a60048036036040811015610c7557600080fd5b810190602081018135600160201b811115610c8f57600080fd5b820183602082011115610ca157600080fd5b803590602001918460018302840111600160201b83111715610cc257600080fd5b91908080601f0160208091040260200160405190810160405280939291908181526020018383808284376000920191909152509295949360208101935035915050600160201b811115610d1457600080fd5b820183602082011115610d2657600080fd5b803590602001918460018302840111600160201b83111715610d4757600080fd5b91908080601f016020809104026020016040519081016040528093929190818152602001838380828437600092019190915250929550612955945050505050565b61025a600480360360a0811015610d9e57600080fd5b810190602081018135600160201b811115610db857600080fd5b820183602082011115610dca57600080fd5b803590602001918460018302840111600160201b83111715610deb57600080fd5b91908080601f0160208091040260200160405190810160405280939291908181526020018383808284376000920191909152509295949360208101935035915050600160201b811115610e3d57600080fd5b820183602082011115610e4f57600080fd5b803590602001918460208302840111600160201b83111715610e7057600080fd5b9190808060200260200160405190810160405280939291908181526020018383602002808284376000920191909152509295949360208101935035915050600160201b811115610ebf57600080fd5b820183602082011115610ed157600080fd5b803590602001918460018302840111600160201b83111715610ef257600080fd5b91908080601f0160208091040260200160405190810160405280939291908181526020018383808284376000920191909152509295949360208101935035915050600160201b811115610f4457600080fd5b820183602082011115610f5657600080fd5b803590602001918460018302840111600160201b83111715610f7757600080fd5b91908080601f0160208091040260200160405190810160405280939291908181526020018383808284376000920191909152509295505091359250612c62915050565b610fd760048036036020811015610fd057600080fd5b503561348f565b6040518080602001898152602001888152602001806020018781526020018060200186815260200185815260200184810384528c818151815260200191508051906020019080838360005b8381101561103a578181015183820152602001611022565b50505050905090810190601f1680156110675780820380516001836020036101000a031916815260200191505b5084810383528951815289516020918201918b019080838360005b8381101561109a578181015183820152602001611082565b50505050905090810190601f1680156110c75780820380516001836020036101000a031916815260200191505b50848103825287518152875160209182019189019080838360005b838110156110fa5781810151838201526020016110e2565b50505050905090810190601f1680156111275780820380516001836020036101000a031916815260200191505b509b50505050505050505050505060405180910390f35b600080836040516020018082805190602001908083835b602083106111745780518252601f199092019160209182019101611155565b6001836020036101000a0380198251168184511680821785525050505050509050019150506040516020818303038152906040528051906020012090506111ba816126ff565b1515600114611205576040805162461bcd60e51b815260206004820152601260248201527175736572206e6f7420696e2073797374656d60701b604482015290519081900360640190fd5b6000818152602081815260409091208451611228926005909201918601906137b7565b5060008181526020819052604090206007015460018054859290811061124a57fe5b9060005260206000209060060201600401908051906020019061126e9291906137b7565b50600081815260208181526040808320600781015460028201546004830154600684015485518481529586018390526080860182905260c0860181905260e08688018181528d51918801919091528c518a996000805160206138898339815191529996988f9896976003909701968f959491939192606085019260a0860192610100870192908d0191908190849084905b838110156113175781810151838201526020016112ff565b50505050905090810190601f1680156113445780820380516001836020036101000a031916815260200191505b508481038352885460026000196101006001841615020190911604808252602090910190899080156113b75780601f1061138c576101008083540402835291602001916113b7565b820191906000526020600020905b81548152906001019060200180831161139a57829003601f168201915b5050848103825286518152865160209182019188019080838360005b838110156113eb5781810151838201526020016113d3565b50505050905090810190601f1680156114185780820380516001836020036101000a031916815260200191505b509a505050505050505050505060405180910390a25060019392505050565b600060608060006060600080876040516020018082805190602001908083835b602083106114765780518252601f199092019160209182019101611457565b6001836020036101000a0380198251168184511680821785525050505050509050019150506040516020818303038152906040528051906020012090506114bc816126ff565b1515600114611507576040805162461bcd60e51b815260206004820152601260248201527175736572206e6f7420696e2073797374656d60701b604482015290519081900360640190fd5b60008181526020818152604091829020600481015460068201548254855160026001831615610100026000190190921691909104601f8101869004860282018601909652858152869593946003860194600587019392918791908301828280156115b25780601f10611587576101008083540402835291602001916115b2565b820191906000526020600020905b81548152906001019060200180831161159557829003601f168201915b5050875460408051602060026001851615610100026000190190941693909304601f8101849004840282018401909252818152959a50899450925084019050828280156116405780601f1061161557610100808354040283529160200191611640565b820191906000526020600020905b81548152906001019060200180831161162357829003601f168201915b5050855460408051602060026001851615610100026000190190941693909304601f8101849004840282018401909252818152959950879450925084019050828280156116ce5780601f106116a3576101008083540402835291602001916116ce565b820191906000526020600020905b8154815290600101906020018083116116b157829003601f168201915b505050505091509650965096509650965096505091939550919395565b600080836040516020018082805190602001908083835b602083106117215780518252601f199092019160209182019101611702565b6001836020036101000a038019825116818451168082178552505050505050905001915050604051602081830303815290604052805190602001209050611767816126ff565b15156001146117b2576040805162461bcd60e51b815260206004820152601260248201527175736572206e6f7420696e2073797374656d60701b604482015290519081900360640190fd5b600081815260208190526040902060048101849055600701546001805485929081106117da57fe5b60009182526020808320600692830201600390810194909455848352828152604080842060078101546002820154948201548351828152938401869052608084018b905260c0840181905260e08486018181528d51918601919091528c518a996000805160206138898339815191529994988f989097918701968f96600590910195949293606085019260a0860192610100870192918d0191908190849084905b8381101561189357818101518382015260200161187b565b50505050905090810190601f1680156118c05780820380516001836020036101000a031916815260200191505b508481038352885460026000196101006001841615020190911604808252602090910190899080156119335780601f1061190857610100808354040283529160200191611933565b820191906000526020600020905b81548152906001019060200180831161191657829003601f168201915b50508481038252865460026000196101006001841615020190911604808252602090910190879080156119a75780601f1061197c576101008083540402835291602001916119a7565b820191906000526020600020905b81548152906001019060200180831161198a57829003601f168201915b50509a505050505050505050505060405180910390a25060019392505050565b6000606080600060606000600187815481106119df57fe5b906000526020600020906006020160000154600188815481106119fe57fe5b906000526020600020906006020160010160018981548110611a1c57fe5b906000526020600020906006020160020160018a81548110611a3a57fe5b90600052602060002090600602016003015460018b81548110611a5957fe5b906000526020600020906006020160040160018c81548110611a7757fe5b600091825260209182902060056006909202010154855460408051601f600260001961010060018716150201909416939093049283018590048502810185019091528181529192879190830182828015611b125780601f10611ae757610100808354040283529160200191611b12565b820191906000526020600020905b815481529060010190602001808311611af557829003601f168201915b5050875460408051602060026001851615610100026000190190941693909304601f8101849004840282018401909252818152959a5089945092508401905082828015611ba05780601f10611b7557610100808354040283529160200191611ba0565b820191906000526020600020905b815481529060010190602001808311611b8357829003601f168201915b5050855460408051602060026001851615610100026000190190941693909304601f810184900484028201840190925281815295995087945092508401905082828015611c2e5780601f10611c0357610100808354040283529160200191611c2e565b820191906000526020600020905b815481529060010190602001808311611c1157829003601f168201915b5050505050915095509550955095509550955091939550919395565b600080826040516020018082805190602001908083835b60208310611c805780518252601f199092019160209182019101611c61565b6001836020036101000a03801982511681845116808217855250505050505090500191505060405160208183030381529060405280519060200120905060026000828152602001908152602001600020600101549150505b919050565b600080856040516020018082805190602001908083835b60208310611d135780518252601f199092019160209182019101611cf4565b6001836020036101000a03801982511681845116808217855250505050505090500191505060405160208183030381529060405280519060200120905060006040516020018080606160f81b8152506001019050604051602081830303815290604052805190602001209050611d88826126ff565b151560011415611dd8576040805162461bcd60e51b81526020600482015260166024820152757573657220616c6c7265647920696e2073797374656d60501b604482015290519081900360640190fd5b6000828152602081815260409091208851611df5928a01906137b7565b5060008281526020818152604090912060018101849055600281018390558751611e27926003909201918901906137b7565b50600082815260208181526040909120600481018690558651611e52926005909201918801906137b7565b5060008281526020819052604090206001600690910155611e76828888878961367a565b506001546000838152602081905260409020600019909101600790910155611e9d87612375565b50817f5b4a315693b2656459d62e0654a19fa40351916778bbbdbb52767e6a6348f0c16000808581526020019081526020016000206007015489600080878152602001908152602001600020600201548a898b6000808b8152602001908152602001600020600601546040518088815260200180602001878152602001806020018681526020018060200185815260200184810384528a818151815260200191508051906020019080838360005b83811015611f63578181015183820152602001611f4b565b50505050905090810190601f168015611f905780820380516001836020036101000a031916815260200191505b5084810383528851815288516020918201918a019080838360005b83811015611fc3578181015183820152602001611fab565b50505050905090810190601f168015611ff05780820380516001836020036101000a031916815260200191505b50848103825286518152865160209182019188019080838360005b8381101561202357818101518382015260200161200b565b50505050905090810190601f1680156120505780820380516001836020036101000a031916815260200191505b509a505050505050505050505060405180910390a25060019695505050505050565b600080836040516020018082805190602001908083835b602083106120a85780518252601f199092019160209182019101612089565b51815160209384036101000a60001901801990921691161790526040805192909401828103601f1901835284528151918101919091206000818152918290529290206006810188905560070154600180549396508895509350918210905061210c57fe5b60009182526020909120600560069092020101555060019392505050565b50600090565b60008181526020819052604090206006015460609081906005141561225257600083815260208190526040902060036006820181905560079091015460018054909190811061217b57fe5b906000526020600020906006020160050181905550600160008085815260200190815260200160002060070154815481106121b257fe5b600091825260209182902060026006909202018101805460408051601f60001961010060018616150201909316949094049182018590048502840185019052808352919290919083018282801561224a5780601f1061221f5761010080835404028352916020019161224a565b820191906000526020600020905b81548152906001019060200180831161222d57829003601f168201915b505050505090505b6000838152602081905260409020600601546003141561236f57600083815260208190526040902060056006820181905560079091015460018054909190811061229857fe5b906000526020600020906006020160050181905550600160008085815260200190815260200160002060070154815481106122cf57fe5b600091825260209182902060026006909202018101805460408051601f6000196101006001861615020190931694909404918201859004850284018501905280835291929091908301828280156123675780601f1061233c57610100808354040283529160200191612367565b820191906000526020600020905b81548152906001019060200180831161234a57829003601f168201915b505050505090505b92915050565b600080826040516020018082805190602001908083835b602083106123ab5780518252601f19909201916020918201910161238c565b6001836020036101000a03801982511681845116808217855250505050505090500191505060405160208183030381529060405280519060200120905060006123f2613780565b600083815260026020526040902054909150821461241c5760008281526002602052604090208290555b60009182526002602052604090912060010181905592915050565b60009081526020819052604090206002015490565b600080836040516020018082805190602001908083835b602083106124825780518252601f199092019160209182019101612463565b6001836020036101000a0380198251168184511680821785525050505050509050019150506040516020818303038152906040528051906020012090506124c8816126ff565b1515600114612513576040805162461bcd60e51b815260206004820152601260248201527175736572206e6f7420696e2073797374656d60701b604482015290519081900360640190fd5b6000818152602081815260409091208451612536926003909201918601906137b7565b5060008181526020819052604090206007015460018054859290811061255857fe5b9060005260206000209060060201600201908051906020019061257c9291906137b7565b50600081815260208181526040808320600781015460028201546004830154600684015485518481529586018390526080860182905260c0860181905260e08688018181528d51918801919091528c518a996000805160206138898339815191529996988f9896978f97600501959491939192606085019260a0860192610100870192908d0191908190849084905b8381101561262357818101518382015260200161260b565b50505050905090810190601f1680156126505780820380516001836020036101000a031916815260200191505b5084810383528851815288516020918201918a019080838360005b8381101561268357818101518382015260200161266b565b50505050905090810190601f1680156126b05780820380516001836020036101000a031916815260200191505b508481038252865460026000196101006001841615020190911604808252602090910190879080156119a75780601f1061197c576101008083540402835291602001916119a7565b6001545b90565b60015460009061271157506000611cd8565b60008281526020819052604090206007015460018054849290811061273257fe5b906000526020600020906006020160000154149050919050565b600080836040516020018082805190602001908083835b602083106127825780518252601f199092019160209182019101612763565b51815160209384036101000a60001901801990921691161790526040805192909401828103601f190183528452815191810191909120600090815260029091529190912060010154959095149695505050505050565b600081815260026020908152604080832083815560019081018490559183905282206004600682018190556007909101548254606094938593929091811061281c57fe5b9060005260206000209060060201600501819055506001600080868152602001908152602001600020600701548154811061285357fe5b600091825260209182902060026006909202018101805460408051601f6000196101006001861615020190931694909404918201859004850284018501905280835291929091908301828280156128eb5780601f106128c0576101008083540402835291602001916128eb565b820191906000526020600020905b8154815290600101906020018083116128ce57829003601f168201915b50505060008781526020818152604091829020600701548251908152915194955088947fa5c19fdb258d8c46ca76c3d6908a1eae940f60ab0c5efff1face636445aa89ad945091829003019150a29392505050565b60009081526020819052604090206006015490565b600080836040516020018082805190602001908083835b6020831061298b5780518252601f19909201916020918201910161296c565b6001836020036101000a0380198251168184511680821785525050505050509050019150506040516020818303038152906040528051906020012090506000836040516020018082805190602001908083835b602083106129fd5780518252601f1990920191602091820191016129de565b51815160209384036101000a60001901801990921691161790526040805192909401828103601f19018352845281519181019190912060008881528083528481206002808201849055845294812081815560019081018290559252600560068501819055600790940154825491975093955090935082109050612a7c57fe5b60009182526020808320600560069093020182019390935584825281835260408083206007810154600482015483518281529384018890526080840181905260c0840185905260e08488018181528d51918601919091528c518a986000805160206138898339815191529894978f978c9760038101979083019592949193606085019260a08601926101008701928d0191908190849084905b83811015612b2d578181015183820152602001612b15565b50505050905090810190601f168015612b5a5780820380516001836020036101000a031916815260200191505b50848103835288546002600019610100600184161502019091160480825260209091019089908015612bcd5780601f10612ba257610100808354040283529160200191612bcd565b820191906000526020600020905b815481529060010190602001808311612bb057829003601f168201915b5050848103825286546002600019610100600184161502019091160480825260209091019087908015612c415780601f10612c1657610100808354040283529160200191612c41565b820191906000526020600020905b815481529060010190602001808311612c2457829003601f168201915b50509a505050505050505050505060405180910390a2506001949350505050565b600080866040516020018082805190602001908083835b60208310612c985780518252601f199092019160209182019101612c79565b6001836020036101000a038019825116818451168082178552505050505050905001915050604051602081830303815290604052805190602001209050612cde816126ff565b1515600114612d29576040805162461bcd60e51b815260206004820152601260248201527175736572206e6f7420696e2073797374656d60701b604482015290519081900360640190fd5b6000818152602081905260408120600701545b875182101561348057878281518110612d5157fe5b602002602001015160011415612faf576000838152602081815260409091208851612d84926003909201918a01906137b7565b508660018281548110612d9357fe5b90600052602060002090600602016002019080519060200190612db79291906137b7565b5082600080516020613889833981519152600080868152602001908152602001600020600701548b600080888152602001908152602001600020600201548b6000808a8152602001908152602001600020600401546000808b81526020019081526020016000206005016000808c8152602001908152602001600020600601546040518088815260200180602001878152602001806020018681526020018060200185815260200184810384528a818151815260200191508051906020019080838360005b83811015612e94578181015183820152602001612e7c565b50505050905090810190601f168015612ec15780820380516001836020036101000a031916815260200191505b5084810383528851815288516020918201918a019080838360005b83811015612ef4578181015183820152602001612edc565b50505050905090810190601f168015612f215780820380516001836020036101000a031916815260200191505b50848103825286546002600019610100600184161502019091160480825260209091019087908015612f945780601f10612f6957610100808354040283529160200191612f94565b820191906000526020600020905b815481529060010190602001808311612f7757829003601f168201915b50509a505050505050505050505060405180910390a2613475565b878281518110612fbb57fe5b602002602001015160021415613219576000838152602081815260409091208751612fee926005909201918901906137b7565b508560018281548110612ffd57fe5b906000526020600020906006020160040190805190602001906130219291906137b7565b5082600080516020613889833981519152600080868152602001908152602001600020600701548b600080888152602001908152602001600020600201546000808981526020019081526020016000206003016000808a8152602001908152602001600020600401548c6000808c8152602001908152602001600020600601546040518088815260200180602001878152602001806020018681526020018060200185815260200184810384528a818151815260200191508051906020019080838360005b838110156130fe5781810151838201526020016130e6565b50505050905090810190601f16801561312b5780820380516001836020036101000a031916815260200191505b5084810383528854600260001961010060018416150201909116048082526020909101908990801561319e5780601f106131735761010080835404028352916020019161319e565b820191906000526020600020905b81548152906001019060200180831161318157829003601f168201915b5050848103825286518152865160209182019188019080838360005b838110156131d25781810151838201526020016131ba565b50505050905090810190601f1680156131ff5780820380516001836020036101000a031916815260200191505b509a505050505050505050505060405180910390a2613475565b87828151811061322557fe5b602002602001015160031415613475576000838152602081905260409020600401859055600180548691908390811061325a57fe5b90600052602060002090600602016003018190555082600080516020613889833981519152600080868152602001908152602001600020600701548b600080888152602001908152602001600020600201546000808981526020019081526020016000206003018a6000808b81526020019081526020016000206005016000808c8152602001908152602001600020600601546040518088815260200180602001878152602001806020018681526020018060200185815260200184810384528a818151815260200191508051906020019080838360005b8381101561334a578181015183820152602001613332565b50505050905090810190601f1680156133775780820380516001836020036101000a031916815260200191505b508481038352885460026000196101006001841615020190911604808252602090910190899080156133ea5780601f106133bf576101008083540402835291602001916133ea565b820191906000526020600020905b8154815290600101906020018083116133cd57829003601f168201915b505084810382528654600260001961010060018416150201909116048082526020909101908790801561345e5780601f106134335761010080835404028352916020019161345e565b820191906000526020600020905b81548152906001019060200180831161344157829003601f168201915b50509a505050505050505050505060405180910390a25b600190910190612d3c565b50600198975050505050505050565b6000602081815291815260409081902080548251601f6002600019610100600186161502019093169290920491820185900485028101850190935280835290928391908301828280156135235780601f106134f857610100808354040283529160200191613523565b820191906000526020600020905b81548152906001019060200180831161350657829003601f168201915b505050505090806001015490806002015490806003018054600181600116156101000203166002900480601f0160208091040260200160405190810160405280929190818152602001828054600181600116156101000203166002900480156135cd5780601f106135a2576101008083540402835291602001916135cd565b820191906000526020600020905b8154815290600101906020018083116135b057829003601f168201915b50505050600483015460058401805460408051602060026001851615610100026000190190941693909304601f810184900484028201840190925281815295969395939450908301828280156136645780601f1061363957610100808354040283529160200191613664565b820191906000526020600020905b81548152906001019060200180831161364757829003601f168201915b5050505050908060060154908060070154905088565b6000613684613835565b8681526020808201878152604083018790526060830186905260808301859052600160a084018190528054808201808355600092909252845160069091027fb10e2d527612073b26eecdfd717e6a320cf44b4afac2b0732d9fcbe2b7fa0cf6810191825592518051929486949293613722937fb10e2d527612073b26eecdfd717e6a320cf44b4afac2b0732d9fcbe2b7fa0cf70192909101906137b7565b506040820151805161373e9160028401916020909101906137b7565b5060608201516003820155608082015180516137649160048401916020909101906137b7565b5060a08201518160050155505050600191505095945050505050565b6040805142602080830191909152448284015243606080840191909152835180840390910181526080909201909252805191012090565b828054600181600116156101000203166002900490600052602060002090601f016020900481019282601f106137f857805160ff1916838001178555613825565b82800160010185558215613825579182015b8281111561382557825182559160200191906001019061380a565b5061383192915061386e565b5090565b6040518060c001604052806000801916815260200160608152602001606081526020016000815260200160608152602001600081525090565b6126fc91905b80821115613831576000815560010161387456fecb46eeb6bb50a8b5e92aedcd091536be514c5440f3b6ccbd538905454fe79f48a265627a7a72315820e7082db3768d32d9c6216c76cd5aea7e9b9a8877538acb5050713370a717a61464736f6c63430005100032",
  "source": "pragma solidity >=0.4.21 <0.6.0;\n\ncontract SupervisorContract {\n    \n    struct Supervisor{\n        string email;\n        bytes32 emailCode;\n        bytes32 passwordCode;\n        string name;\n        uint contactNumber;\n        string userAddress;\n        uint userAccess;\n        uint index;\n    }\n\n    struct DisplaySupervisor{\n        bytes32 emailCode;\n        string email;\n        string name;\n        uint contactNumber;\n        string userAddress;\n        uint userAccess;\n    }\n    \n    event LogNewSupervisor(\n        bytes32 indexed emailCode,\n        uint index,string email,\n        bytes32 passwordCode,\n        string name,\n        uint contactNumber,\n        string userAddress,\n        uint userAccess\n        );\n    event LogUpdateSupervisor(\n        bytes32 indexed emailCode,\n        uint index,string email,\n        bytes32 passwordCode,\n        string name,\n        uint contactNumber,\n        string userAddress,\n        uint userAccess\n        );\n    event LogDeleteSupervisor(\n        bytes32 indexed emailcode,\n        uint index\n        );\n        \n    struct RegistationToken{\n        bytes32 emailCode;\n        bytes32 token;\n    }\n        \n    mapping(bytes32 => Supervisor) public supervisorArray;\n    DisplaySupervisor[] private supervisorIndex;\n    mapping(bytes32 => RegistationToken) private supervisorRegistationToken;\n\n    function isSupervisor(bytes32 _emailCode)public view returns(bool isIndeed) {\n        if(supervisorIndex.length == 0) return false;\n        return (supervisorIndex[supervisorArray[_emailCode].index].emailCode == _emailCode);\n    }\n    function createSupervisorToken(string memory _email)public returns(bytes32){\n        bytes32 _emailCode = keccak256(abi.encodePacked((_email)));\n        bytes32 token = randomtoken();\n        if(supervisorRegistationToken[_emailCode].emailCode != _emailCode){\n            supervisorRegistationToken[_emailCode].emailCode = _emailCode;\n        }\n        supervisorRegistationToken[_emailCode].token = token;\n        return token;\n    }\n    function getSupervisorToken(string memory _email)public view returns(bytes32){\n        bytes32 _emailCode = keccak256(abi.encodePacked((_email)));\n        return  supervisorRegistationToken[_emailCode].token;\n    }\n    function checkSupervisorToken(string memory _email,bytes32 _token)public view returns(bool){\n        bytes32 _emailCode = keccak256(abi.encodePacked((_email)));\n        return  (supervisorRegistationToken[_emailCode].token == _token);\n    }\n    function randomtoken() private view returns (bytes32) {\n       return keccak256(abi.encodePacked(block.timestamp,block.difficulty,block.number));\n    }\n    function setPassword(string memory _email,string memory _password)public returns (bool) {\n        bytes32 _emailCode = keccak256(abi.encodePacked((_email)));\n        bytes32 _passwordCode = keccak256(abi.encodePacked((_password)));\n\n        supervisorArray[_emailCode].passwordCode = _passwordCode;\n        delete supervisorRegistationToken[_emailCode];\n        supervisorArray[_emailCode].userAccess = 5;\n        supervisorIndex[supervisorArray[_emailCode].index].userAccess = 5;\n        emit LogUpdateSupervisor(\n            _emailCode,\n            supervisorArray[_emailCode].index,\n            _email,\n            _passwordCode,\n            supervisorArray[_emailCode].name,\n            supervisorArray[_emailCode].contactNumber,\n            supervisorArray[_emailCode].userAddress,\n            5\n            );\n        return true;\n\n    }\n    function setDisplaySupervisor(bytes32 _emailCode,string memory _email,string memory _name,uint _telephone,string memory _address)\n     private returns(bool){\n\n        DisplaySupervisor memory displaySupervisor;\n        displaySupervisor.emailCode = _emailCode;\n        displaySupervisor.email = _email;\n        displaySupervisor.name = _name;\n        displaySupervisor.contactNumber = _telephone;\n        displaySupervisor.userAddress = _address;\n        displaySupervisor.userAccess = 1;\n        supervisorIndex.push(displaySupervisor);\n        return true;\n\n    }\n    function insertSupervisor(string memory _email,string memory _name,string memory _address,uint _telephone) public returns(bool){\n        bytes32 _emailCode = keccak256(abi.encodePacked((_email)));\n        bytes32 _passwordCode = keccak256(abi.encodePacked((\"a\")));\n        require(isSupervisor(_emailCode) != true,'user allredy in system');\n\n        supervisorArray[_emailCode].email = _email;\n        supervisorArray[_emailCode].emailCode = _emailCode;\n        supervisorArray[_emailCode].passwordCode = _passwordCode;\n        supervisorArray[_emailCode].name = _name;\n        supervisorArray[_emailCode].contactNumber = _telephone;\n        supervisorArray[_emailCode].userAddress = _address;\n        supervisorArray[_emailCode].userAccess = 1;\n        setDisplaySupervisor(_emailCode,_email,_name,_telephone,_address);\n        supervisorArray[_emailCode].index = supervisorIndex.length-1;\n        createSupervisorToken(_email);\n\n        emit LogNewSupervisor (\n            _emailCode,\n            supervisorArray[_emailCode].index,\n            _email,\n            supervisorArray[_emailCode].passwordCode,\n            _name,\n            _telephone,\n            _address,\n            supervisorArray[_emailCode].userAccess\n            );\n        return true;\n    }\n    function deleteSupervisor (bytes32 email) public returns(string memory){\n        uint i;\n        string memory name;\n         delete supervisorRegistationToken[email];\n        supervisorArray[email].userAccess = 4;\n        supervisorIndex[supervisorArray[email].index].userAccess = 4;\n        name = supervisorIndex[supervisorArray[email].index].name;\n        emit LogDeleteSupervisor(\n            email,\n            supervisorArray[email].index\n        );\n        return name;\n    }\n    function blockSupervisor(bytes32 email) public returns(string memory)\n    {\n        string memory name;\n        if(supervisorArray[email].userAccess == 5){\n        supervisorArray[email].userAccess = 3;\n        supervisorIndex[supervisorArray[email].index].userAccess = 3;\n        name = supervisorIndex[supervisorArray[email].index].name;\n        }\n        if(supervisorArray[email].userAccess == 3){\n        supervisorArray[email].userAccess = 5;\n        supervisorIndex[supervisorArray[email].index].userAccess = 5;\n        name = supervisorIndex[supervisorArray[email].index].name;\n        }\n        return name;\n    }\n    function editUserAccess(string memory _email,uint usreAccess)public returns(bool){\n        bytes32 email = keccak256(abi.encodePacked((_email)));\n        supervisorArray[email].userAccess = usreAccess;\n        supervisorIndex[supervisorArray[email].index].userAccess = usreAccess;\n        return true;\n\n    }\n    function getSupervisor(string memory _email) public view returns(bytes32,string memory email,string memory name,\n    uint contactNumber,string memory userAddress, uint userAccess){\n        bytes32 _emailCode = keccak256(abi.encodePacked((_email)));\n        require(isSupervisor(_emailCode) == true,'user not in system');\n        return(\n            _emailCode,\n            supervisorArray[_emailCode].email,\n            supervisorArray[_emailCode].name,\n            supervisorArray[_emailCode].contactNumber,\n            supervisorArray[_emailCode].userAddress,\n            supervisorArray[_emailCode].userAccess\n            );\n    }\n    function getSupervisori(uint i) public view returns(\n        bytes32,\n        string memory,\n        string memory,\n        uint,\n        string memory,\n        uint\n        ){\n            return (\n                supervisorIndex[i].emailCode,\n                supervisorIndex[i].email,\n                supervisorIndex[i].name,\n                supervisorIndex[i].contactNumber,\n                supervisorIndex[i].userAddress,\n                supervisorIndex[i].userAccess\n                );\n    }\n    function getSupervisorCount() public view returns(uint)\n    {\n        return supervisorIndex.length;\n    }\n\n    // function updateUserEmail(address userAddress, bytes32 userEmail) public returns(bool success)\n    // {\n    //     userStructs[userAddress].userEmail = userEmail;\n    //     emit LogUpdateUser(userAddress,  userStructs[userAddress].index, userEmail, userStructs[userAddress].userAge);\n    //     return true;\n    // }\n    function updateSupervisorName (string memory _email,string memory _name) public returns(bool success){\n        bytes32 _emailCode = keccak256(abi.encodePacked((_email)));\n        require(isSupervisor(_emailCode) == true,'user not in system');\n        supervisorArray[_emailCode].name = _name;\n        supervisorIndex[supervisorArray[_emailCode].index].name = _name;\n        emit LogUpdateSupervisor(\n            _emailCode,\n            supervisorArray[_emailCode].index,\n            _email,\n            supervisorArray[_emailCode].passwordCode,\n            _name,\n            supervisorArray[_emailCode].contactNumber,\n            supervisorArray[_emailCode].userAddress,\n            supervisorArray[_emailCode].userAccess\n            );\n        return true;\n    }\n    function updateSupervisorAddress (string memory _email,string memory _userAddress) public returns(bool success){\n        bytes32 _emailCode = keccak256(abi.encodePacked((_email)));\n        require(isSupervisor(_emailCode) == true,'user not in system');\n        supervisorArray[_emailCode].userAddress = _userAddress;\n        supervisorIndex[supervisorArray[_emailCode].index].userAddress = _userAddress;\n        emit LogUpdateSupervisor(\n            _emailCode,\n            supervisorArray[_emailCode].index,\n            _email,\n            supervisorArray[_emailCode].passwordCode,\n            supervisorArray[_emailCode].name,\n            supervisorArray[_emailCode].contactNumber,\n            _userAddress,\n            supervisorArray[_emailCode].userAccess\n            );\n        return true;\n    }\n    function updateSupervisorContactNumber (string memory _email,uint _contactNumber) public returns(bool success){\n        bytes32 _emailCode = keccak256(abi.encodePacked((_email)));\n        require(isSupervisor(_emailCode) == true,'user not in system');\n        supervisorArray[_emailCode].contactNumber = _contactNumber;\n        supervisorIndex[supervisorArray[_emailCode].index].contactNumber = _contactNumber;\n        emit LogUpdateSupervisor(\n            _emailCode,\n            supervisorArray[_emailCode].index,\n            _email,\n            supervisorArray[_emailCode].passwordCode,\n            supervisorArray[_emailCode].name,\n            _contactNumber,\n            supervisorArray[_emailCode].userAddress,\n            supervisorArray[_emailCode].userAccess\n            );\n        return true;\n    }\n    function updateSupervisor(\n        string memory _email,\n        uint[] memory index,\n        string memory _name,\n        string memory _userAddress,\n        uint _contactNumber\n        ) public returns(bool success){\n        bytes32 _emailCode = keccak256(abi.encodePacked((_email)));\n        require(isSupervisor(_emailCode) == true,'user not in system');\n        uint i;\n        uint num = supervisorArray[_emailCode].index;\n\n        for (i = 0;i<index.length;i++){\n            if(index[i]==1){\n                supervisorArray[_emailCode].name = _name;\n                supervisorIndex[num].name = _name;\n                emit LogUpdateSupervisor(\n                    _emailCode,\n                    supervisorArray[_emailCode].index,\n                    _email,supervisorArray[_emailCode].passwordCode,\n                    _name,\n                    supervisorArray[_emailCode].contactNumber,\n                    supervisorArray[_emailCode].userAddress,\n                    supervisorArray[_emailCode].userAccess\n                    );\n\n            }\n            else if(index[i]==2){\n                supervisorArray[_emailCode].userAddress = _userAddress;\n\n                supervisorIndex[num].userAddress = _userAddress;\n\n                emit LogUpdateSupervisor(\n                    _emailCode,\n                    supervisorArray[_emailCode].index,\n                    _email,\n                    supervisorArray[_emailCode].passwordCode,\n                    supervisorArray[_emailCode].name,\n                    supervisorArray[_emailCode].contactNumber,\n                    _userAddress,\n                    supervisorArray[_emailCode].userAccess\n                    );\n\n            }\n            else if(index[i]==3){\n                supervisorArray[_emailCode].contactNumber = _contactNumber;\n                supervisorIndex[num].contactNumber = _contactNumber;\n                emit LogUpdateSupervisor(\n                    _emailCode,\n                    supervisorArray[_emailCode].index,\n                    _email,\n                    supervisorArray[_emailCode].passwordCode,\n                    supervisorArray[_emailCode].name,\n                    _contactNumber,\n                    supervisorArray[_emailCode].userAddress,\n                    supervisorArray[_emailCode].userAccess\n                    );\n\n            }\n        }\n        return true;\n    }\n    ///////\n    function updateSupervisoriEmail (string memory _email) public returns(bool success)\n    {\n       // return true;\n    }\n    function checkSupervisorUserAccess(bytes32 email)public view returns(uint userAccess){\n\n        return supervisorArray[email].userAccess;\n    }\n    function checkSupervisorPasswordCode(bytes32 email) public view returns(bytes32 passwordCode ){\n        return supervisorArray[email].passwordCode;\n    }\n}",
  "sourcePath": "/home/ubuntu/tea-supplychain-manege-system/test2/contracts/Supervisor.sol",
  "compiler": {
    "name": "solc",
    "version": "0.5.16+commit.9c3226ce.Emscripten.clang"
  },
  "schemaVersion": "3.0.23",
  "updatedAt": "2020-02-14T13:53:54.534Z",
  "networkType": "ethereum",
  "devdoc": {
    "methods": {}
  },
  "userdoc": {
    "methods": {
      "updateSupervisoriEmail(string)": {
        "notice": "////"
      }
    }
  }
}