{
  "contractName": "SupervisorContract",
  "abi": [
    {
      "constant": true,
      "inputs": [
        {
          "name": "",
          "type": "bytes32"
        }
      ],
      "name": "supervisorArray",
      "outputs": [
        {
          "name": "email",
          "type": "string"
        },
        {
          "name": "emailCode",
          "type": "bytes32"
        },
        {
          "name": "passwordCode",
          "type": "bytes32"
        },
        {
          "name": "name",
          "type": "string"
        },
        {
          "name": "contactNumber",
          "type": "uint256"
        },
        {
          "name": "userAddress",
          "type": "string"
        },
        {
          "name": "userAccess",
          "type": "uint256"
        },
        {
          "name": "index",
          "type": "uint256"
        }
      ],
      "payable": false,
      "stateMutability": "view",
      "type": "function"
    },
    {
      "anonymous": false,
      "inputs": [
        {
          "indexed": true,
          "name": "emailCode",
          "type": "bytes32"
        },
        {
          "indexed": false,
          "name": "index",
          "type": "uint256"
        },
        {
          "indexed": false,
          "name": "email",
          "type": "string"
        },
        {
          "indexed": false,
          "name": "passwordCode",
          "type": "bytes32"
        },
        {
          "indexed": false,
          "name": "name",
          "type": "string"
        },
        {
          "indexed": false,
          "name": "contactNumber",
          "type": "uint256"
        },
        {
          "indexed": false,
          "name": "userAddress",
          "type": "string"
        },
        {
          "indexed": false,
          "name": "userAccess",
          "type": "uint256"
        }
      ],
      "name": "LogNewSupervisor",
      "type": "event"
    },
    {
      "anonymous": false,
      "inputs": [
        {
          "indexed": true,
          "name": "emailCode",
          "type": "bytes32"
        },
        {
          "indexed": false,
          "name": "index",
          "type": "uint256"
        },
        {
          "indexed": false,
          "name": "email",
          "type": "string"
        },
        {
          "indexed": false,
          "name": "passwordCode",
          "type": "bytes32"
        },
        {
          "indexed": false,
          "name": "name",
          "type": "string"
        },
        {
          "indexed": false,
          "name": "contactNumber",
          "type": "uint256"
        },
        {
          "indexed": false,
          "name": "userAddress",
          "type": "string"
        },
        {
          "indexed": false,
          "name": "userAccess",
          "type": "uint256"
        }
      ],
      "name": "LogUpdateSupervisor",
      "type": "event"
    },
    {
      "anonymous": false,
      "inputs": [
        {
          "indexed": true,
          "name": "emailcode",
          "type": "bytes32"
        },
        {
          "indexed": false,
          "name": "index",
          "type": "uint256"
        }
      ],
      "name": "LogDeleteSupervisor",
      "type": "event"
    },
    {
      "constant": true,
      "inputs": [
        {
          "name": "_emailCode",
          "type": "bytes32"
        }
      ],
      "name": "isSupervisor",
      "outputs": [
        {
          "name": "isIndeed",
          "type": "bool"
        }
      ],
      "payable": false,
      "stateMutability": "view",
      "type": "function"
    },
    {
      "constant": false,
      "inputs": [
        {
          "name": "_email",
          "type": "string"
        }
      ],
      "name": "createSupervisorToken",
      "outputs": [
        {
          "name": "",
          "type": "bytes32"
        }
      ],
      "payable": false,
      "stateMutability": "nonpayable",
      "type": "function"
    },
    {
      "constant": true,
      "inputs": [
        {
          "name": "_email",
          "type": "string"
        }
      ],
      "name": "getSupervisorToken",
      "outputs": [
        {
          "name": "",
          "type": "bytes32"
        }
      ],
      "payable": false,
      "stateMutability": "view",
      "type": "function"
    },
    {
      "constant": true,
      "inputs": [
        {
          "name": "_email",
          "type": "string"
        },
        {
          "name": "_token",
          "type": "bytes32"
        }
      ],
      "name": "checkSupervisorToken",
      "outputs": [
        {
          "name": "",
          "type": "bool"
        }
      ],
      "payable": false,
      "stateMutability": "view",
      "type": "function"
    },
    {
      "constant": false,
      "inputs": [
        {
          "name": "_email",
          "type": "string"
        },
        {
          "name": "_password",
          "type": "string"
        }
      ],
      "name": "setPassword",
      "outputs": [
        {
          "name": "",
          "type": "bool"
        }
      ],
      "payable": false,
      "stateMutability": "nonpayable",
      "type": "function"
    },
    {
      "constant": false,
      "inputs": [
        {
          "name": "_email",
          "type": "string"
        },
        {
          "name": "_name",
          "type": "string"
        },
        {
          "name": "_address",
          "type": "string"
        },
        {
          "name": "_telephone",
          "type": "uint256"
        }
      ],
      "name": "insertSupervisor",
      "outputs": [
        {
          "name": "",
          "type": "bool"
        }
      ],
      "payable": false,
      "stateMutability": "nonpayable",
      "type": "function"
    },
    {
      "constant": false,
      "inputs": [
        {
          "name": "email",
          "type": "bytes32"
        }
      ],
      "name": "deleteSupervisor",
      "outputs": [
        {
          "name": "",
          "type": "string"
        }
      ],
      "payable": false,
      "stateMutability": "nonpayable",
      "type": "function"
    },
    {
      "constant": false,
      "inputs": [
        {
          "name": "email",
          "type": "bytes32"
        }
      ],
      "name": "blockSupervisor",
      "outputs": [
        {
          "name": "",
          "type": "string"
        }
      ],
      "payable": false,
      "stateMutability": "nonpayable",
      "type": "function"
    },
    {
      "constant": false,
      "inputs": [
        {
          "name": "_email",
          "type": "string"
        },
        {
          "name": "usreAccess",
          "type": "uint256"
        }
      ],
      "name": "editUserAccess",
      "outputs": [
        {
          "name": "",
          "type": "bool"
        }
      ],
      "payable": false,
      "stateMutability": "nonpayable",
      "type": "function"
    },
    {
      "constant": true,
      "inputs": [
        {
          "name": "_email",
          "type": "string"
        }
      ],
      "name": "getSupervisor",
      "outputs": [
        {
          "name": "",
          "type": "bytes32"
        },
        {
          "name": "email",
          "type": "string"
        },
        {
          "name": "name",
          "type": "string"
        },
        {
          "name": "contactNumber",
          "type": "uint256"
        },
        {
          "name": "userAddress",
          "type": "string"
        },
        {
          "name": "userAccess",
          "type": "uint256"
        }
      ],
      "payable": false,
      "stateMutability": "view",
      "type": "function"
    },
    {
      "constant": true,
      "inputs": [
        {
          "name": "i",
          "type": "uint256"
        }
      ],
      "name": "getSupervisori",
      "outputs": [
        {
          "name": "",
          "type": "bytes32"
        },
        {
          "name": "",
          "type": "string"
        },
        {
          "name": "",
          "type": "string"
        },
        {
          "name": "",
          "type": "uint256"
        },
        {
          "name": "",
          "type": "string"
        },
        {
          "name": "",
          "type": "uint256"
        }
      ],
      "payable": false,
      "stateMutability": "view",
      "type": "function"
    },
    {
      "constant": true,
      "inputs": [],
      "name": "getSupervisorCount",
      "outputs": [
        {
          "name": "",
          "type": "uint256"
        }
      ],
      "payable": false,
      "stateMutability": "view",
      "type": "function"
    },
    {
      "constant": false,
      "inputs": [
        {
          "name": "_email",
          "type": "string"
        },
        {
          "name": "_name",
          "type": "string"
        }
      ],
      "name": "updateSupervisorName",
      "outputs": [
        {
          "name": "success",
          "type": "bool"
        }
      ],
      "payable": false,
      "stateMutability": "nonpayable",
      "type": "function"
    },
    {
      "constant": false,
      "inputs": [
        {
          "name": "_email",
          "type": "string"
        },
        {
          "name": "_userAddress",
          "type": "string"
        }
      ],
      "name": "updateSupervisorAddress",
      "outputs": [
        {
          "name": "success",
          "type": "bool"
        }
      ],
      "payable": false,
      "stateMutability": "nonpayable",
      "type": "function"
    },
    {
      "constant": false,
      "inputs": [
        {
          "name": "_email",
          "type": "string"
        },
        {
          "name": "_contactNumber",
          "type": "uint256"
        }
      ],
      "name": "updateSupervisorContactNumber",
      "outputs": [
        {
          "name": "success",
          "type": "bool"
        }
      ],
      "payable": false,
      "stateMutability": "nonpayable",
      "type": "function"
    },
    {
      "constant": false,
      "inputs": [
        {
          "name": "_email",
          "type": "string"
        },
        {
          "name": "index",
          "type": "uint256[]"
        },
        {
          "name": "_name",
          "type": "string"
        },
        {
          "name": "_userAddress",
          "type": "string"
        },
        {
          "name": "_contactNumber",
          "type": "uint256"
        }
      ],
      "name": "updateSupervisor",
      "outputs": [
        {
          "name": "success",
          "type": "bool"
        }
      ],
      "payable": false,
      "stateMutability": "nonpayable",
      "type": "function"
    },
    {
      "constant": false,
      "inputs": [
        {
          "name": "_email",
          "type": "string"
        }
      ],
      "name": "updateSupervisoriEmail",
      "outputs": [
        {
          "name": "success",
          "type": "bool"
        }
      ],
      "payable": false,
      "stateMutability": "nonpayable",
      "type": "function"
    },
    {
      "constant": true,
      "inputs": [
        {
          "name": "email",
          "type": "bytes32"
        }
      ],
      "name": "checkSupervisorUserAccess",
      "outputs": [
        {
          "name": "userAccess",
          "type": "uint256"
        }
      ],
      "payable": false,
      "stateMutability": "view",
      "type": "function"
    },
    {
      "constant": true,
      "inputs": [
        {
          "name": "email",
          "type": "bytes32"
        }
      ],
      "name": "checkSupervisorPasswordCode",
      "outputs": [
        {
          "name": "passwordCode",
          "type": "bytes32"
        }
      ],
      "payable": false,
      "stateMutability": "view",
      "type": "function"
    }
  ],
  "bytecode": "0x608060405234801561001057600080fd5b506138ff806100206000396000f3fe608060405234801561001057600080fd5b506004361061012c5760003560e01c806389cda3dd116100ad578063c27418da11610071578063c27418da14610c25578063c3cd325a14610c42578063ca38649614610c5f578063d9447e5914610d88578063efa3cbfe14610fba5761012c565b806389cda3dd14610a145780639af98ecf14610a315780639fb646f414610b5a578063a0e1629014610b62578063b247bb2f14610b7f5761012c565b8063645ed50e116100f4578063645ed50e146105e45780636609b7cc14610794578063670151b81461083a5780637e082866146108de578063898a33fd146109705761012c565b8063129d9002146101315780631db7c6081461026e5780632d92dbc01461046b57806330532763146105115780633b1125021461052e575b600080fd5b61025a6004803603604081101561014757600080fd5b810190602081018135600160201b81111561016157600080fd5b82018360208201111561017357600080fd5b803590602001918460018302840111600160201b8311171561019457600080fd5b91908080601f0160208091040260200160405190810160405280939291908181526020018383808284376000920191909152509295949360208101935035915050600160201b8111156101e657600080fd5b8201836020820111156101f857600080fd5b803590602001918460018302840111600160201b8311171561021957600080fd5b91908080601f01602080910402602001604051908101604052809392919081815260200183838082843760009201919091525092955061113e945050505050565b604080519115158252519081900360200190f35b6103126004803603602081101561028457600080fd5b810190602081018135600160201b81111561029e57600080fd5b8201836020820111156102b057600080fd5b803590602001918460018302840111600160201b831117156102d157600080fd5b91908080601f01602080910402602001604051908101604052809392919081815260200183838082843760009201919091525092955061143d945050505050565b60405180878152602001806020018060200186815260200180602001858152602001848103845289818151815260200191508051906020019080838360005b83811015610369578181015183820152602001610351565b50505050905090810190601f1680156103965780820380516001836020036101000a031916815260200191505b5084810383528851815288516020918201918a019080838360005b838110156103c95781810151838201526020016103b1565b50505050905090810190601f1680156103f65780820380516001836020036101000a031916815260200191505b50848103825286518152865160209182019188019080838360005b83811015610429578181015183820152602001610411565b50505050905090810190601f1680156104565780820380516001836020036101000a031916815260200191505b50995050505050505050505060405180910390f35b61025a6004803603604081101561048157600080fd5b810190602081018135600160201b81111561049b57600080fd5b8201836020820111156104ad57600080fd5b803590602001918460018302840111600160201b831117156104ce57600080fd5b91908080601f01602080910402602001604051908101604052809392919081815260200183838082843760009201919091525092955050913592506116f7915050565b6103126004803603602081101561052757600080fd5b50356119d9565b6105d26004803603602081101561054457600080fd5b810190602081018135600160201b81111561055e57600080fd5b82018360208201111561057057600080fd5b803590602001918460018302840111600160201b8311171561059157600080fd5b91908080601f016020809104026020016040519081016040528093929190818152602001838380828437600092019190915250929550611c5c945050505050565b60408051918252519081900360200190f35b61025a600480360360808110156105fa57600080fd5b810190602081018135600160201b81111561061457600080fd5b82018360208201111561062657600080fd5b803590602001918460018302840111600160201b8311171561064757600080fd5b91908080601f0160208091040260200160405190810160405280939291908181526020018383808284376000920191909152509295949360208101935035915050600160201b81111561069957600080fd5b8201836020820111156106ab57600080fd5b803590602001918460018302840111600160201b831117156106cc57600080fd5b91908080601f0160208091040260200160405190810160405280939291908181526020018383808284376000920191909152509295949360208101935035915050600160201b81111561071e57600080fd5b82018360208201111561073057600080fd5b803590602001918460018302840111600160201b8311171561075157600080fd5b91908080601f0160208091040260200160405190810160405280939291908181526020018383808284376000920191909152509295505091359250611cef915050565b61025a600480360360408110156107aa57600080fd5b810190602081018135600160201b8111156107c457600080fd5b8201836020820111156107d657600080fd5b803590602001918460018302840111600160201b831117156107f757600080fd5b91908080601f0160208091040260200160405190810160405280939291908181526020018383808284376000920191909152509295505091359250612091915050565b61025a6004803603602081101561085057600080fd5b810190602081018135600160201b81111561086a57600080fd5b82018360208201111561087c57600080fd5b803590602001918460018302840111600160201b8311171561089d57600080fd5b91908080601f016020809104026020016040519081016040528093929190818152602001838380828437600092019190915250929550612149945050505050565b6108fb600480360360208110156108f457600080fd5b503561214f565b6040805160208082528351818301528351919283929083019185019080838360005b8381101561093557818101518382015260200161091d565b50505050905090810190601f1680156109625780820380516001836020036101000a031916815260200191505b509250505060405180910390f35b6105d26004803603602081101561098657600080fd5b810190602081018135600160201b8111156109a057600080fd5b8201836020820111156109b257600080fd5b803590602001918460018302840111600160201b831117156109d357600080fd5b91908080601f016020809104026020016040519081016040528093929190818152602001838380828437600092019190915250929550612394945050505050565b6105d260048036036020811015610a2a57600080fd5b5035612456565b61025a60048036036040811015610a4757600080fd5b810190602081018135600160201b811115610a6157600080fd5b820183602082011115610a7357600080fd5b803590602001918460018302840111600160201b83111715610a9457600080fd5b91908080601f0160208091040260200160405190810160405280939291908181526020018383808284376000920191909152509295949360208101935035915050600160201b811115610ae657600080fd5b820183602082011115610af857600080fd5b803590602001918460018302840111600160201b83111715610b1957600080fd5b91908080601f01602080910402602001604051908101604052809392919081815260200183838082843760009201919091525092955061246b945050505050565b6105d261271d565b61025a60048036036020811015610b7857600080fd5b5035612724565b61025a60048036036040811015610b9557600080fd5b810190602081018135600160201b811115610baf57600080fd5b820183602082011115610bc157600080fd5b803590602001918460018302840111600160201b83111715610be257600080fd5b91908080601f0160208091040260200160405190810160405280939291908181526020018383808284376000920191909152509295505091359250612771915050565b6108fb60048036036020811015610c3b57600080fd5b50356127fd565b6105d260048036036020811015610c5857600080fd5b5035612965565b61025a60048036036040811015610c7557600080fd5b810190602081018135600160201b811115610c8f57600080fd5b820183602082011115610ca157600080fd5b803590602001918460018302840111600160201b83111715610cc257600080fd5b91908080601f0160208091040260200160405190810160405280939291908181526020018383808284376000920191909152509295949360208101935035915050600160201b811115610d1457600080fd5b820183602082011115610d2657600080fd5b803590602001918460018302840111600160201b83111715610d4757600080fd5b91908080601f01602080910402602001604051908101604052809392919081815260200183838082843760009201919091525092955061297a945050505050565b61025a600480360360a0811015610d9e57600080fd5b810190602081018135600160201b811115610db857600080fd5b820183602082011115610dca57600080fd5b803590602001918460018302840111600160201b83111715610deb57600080fd5b91908080601f0160208091040260200160405190810160405280939291908181526020018383808284376000920191909152509295949360208101935035915050600160201b811115610e3d57600080fd5b820183602082011115610e4f57600080fd5b803590602001918460208302840111600160201b83111715610e7057600080fd5b9190808060200260200160405190810160405280939291908181526020018383602002808284376000920191909152509295949360208101935035915050600160201b811115610ebf57600080fd5b820183602082011115610ed157600080fd5b803590602001918460018302840111600160201b83111715610ef257600080fd5b91908080601f0160208091040260200160405190810160405280939291908181526020018383808284376000920191909152509295949360208101935035915050600160201b811115610f4457600080fd5b820183602082011115610f5657600080fd5b803590602001918460018302840111600160201b83111715610f7757600080fd5b91908080601f0160208091040260200160405190810160405280939291908181526020018383808284376000920191909152509295505091359250612c87915050565b610fd760048036036020811015610fd057600080fd5b50356134ba565b6040518080602001898152602001888152602001806020018781526020018060200186815260200185815260200184810384528c818151815260200191508051906020019080838360005b8381101561103a578181015183820152602001611022565b50505050905090810190601f1680156110675780820380516001836020036101000a031916815260200191505b5084810383528951815289516020918201918b019080838360005b8381101561109a578181015183820152602001611082565b50505050905090810190601f1680156110c75780820380516001836020036101000a031916815260200191505b50848103825287518152875160209182019189019080838360005b838110156110fa5781810151838201526020016110e2565b50505050905090810190601f1680156111275780820380516001836020036101000a031916815260200191505b509b50505050505050505050505060405180910390f35b600080836040516020018082805190602001908083835b602083106111745780518252601f199092019160209182019101611155565b6001836020036101000a0380198251168184511680821785525050505050509050019150506040516020818303038152906040528051906020012090506111ba81612724565b151560011461120b5760408051600160e51b62461bcd0281526020600482015260126024820152600160701b7175736572206e6f7420696e2073797374656d02604482015290519081900360640190fd5b600081815260208181526040909120845161122e926005909201918601906137e2565b5060008181526020819052604090206007015460018054859290811061125057fe5b906000526020600020906006020160040190805190602001906112749291906137e2565b50600081815260208181526040808320600781015460028201546004830154600684015485518481529586018390526080860182905260c0860181905260e08688018181528d51918801919091528c518a996000805160206138b48339815191529996988f9896976003909701968f959491939192606085019260a0860192610100870192908d0191908190849084905b8381101561131d578181015183820152602001611305565b50505050905090810190601f16801561134a5780820380516001836020036101000a031916815260200191505b508481038352885460026000196101006001841615020190911604808252602090910190899080156113bd5780601f10611392576101008083540402835291602001916113bd565b820191906000526020600020905b8154815290600101906020018083116113a057829003601f168201915b5050848103825286518152865160209182019188019080838360005b838110156113f15781810151838201526020016113d9565b50505050905090810190601f16801561141e5780820380516001836020036101000a031916815260200191505b509a505050505050505050505060405180910390a25060019392505050565b600060608060006060600080876040516020018082805190602001908083835b6020831061147c5780518252601f19909201916020918201910161145d565b6001836020036101000a0380198251168184511680821785525050505050509050019150506040516020818303038152906040528051906020012090506114c281612724565b15156001146115135760408051600160e51b62461bcd0281526020600482015260126024820152600160701b7175736572206e6f7420696e2073797374656d02604482015290519081900360640190fd5b60008181526020818152604091829020600481015460068201548254855160026001831615610100026000190190921691909104601f8101869004860282018601909652858152869593946003860194600587019392918791908301828280156115be5780601f10611593576101008083540402835291602001916115be565b820191906000526020600020905b8154815290600101906020018083116115a157829003601f168201915b5050875460408051602060026001851615610100026000190190941693909304601f8101849004840282018401909252818152959a508994509250840190508282801561164c5780601f106116215761010080835404028352916020019161164c565b820191906000526020600020905b81548152906001019060200180831161162f57829003601f168201915b5050855460408051602060026001851615610100026000190190941693909304601f8101849004840282018401909252818152959950879450925084019050828280156116da5780601f106116af576101008083540402835291602001916116da565b820191906000526020600020905b8154815290600101906020018083116116bd57829003601f168201915b505050505091509650965096509650965096505091939550919395565b600080836040516020018082805190602001908083835b6020831061172d5780518252601f19909201916020918201910161170e565b6001836020036101000a03801982511681845116808217855250505050505090500191505060405160208183030381529060405280519060200120905061177381612724565b15156001146117c45760408051600160e51b62461bcd0281526020600482015260126024820152600160701b7175736572206e6f7420696e2073797374656d02604482015290519081900360640190fd5b600081815260208190526040902060048101849055600701546001805485929081106117ec57fe5b60009182526020808320600692830201600390810194909455848352828152604080842060078101546002820154948201548351828152938401869052608084018b905260c0840181905260e08486018181528d51918601919091528c518a996000805160206138b48339815191529994988f989097918701968f96600590910195949293606085019260a0860192610100870192918d0191908190849084905b838110156118a557818101518382015260200161188d565b50505050905090810190601f1680156118d25780820380516001836020036101000a031916815260200191505b508481038352885460026000196101006001841615020190911604808252602090910190899080156119455780601f1061191a57610100808354040283529160200191611945565b820191906000526020600020905b81548152906001019060200180831161192857829003601f168201915b50508481038252865460026000196101006001841615020190911604808252602090910190879080156119b95780601f1061198e576101008083540402835291602001916119b9565b820191906000526020600020905b81548152906001019060200180831161199c57829003601f168201915b50509a505050505050505050505060405180910390a25060019392505050565b6000606080600060606000600187815481106119f157fe5b90600052602060002090600602016000015460018881548110611a1057fe5b906000526020600020906006020160010160018981548110611a2e57fe5b906000526020600020906006020160020160018a81548110611a4c57fe5b90600052602060002090600602016003015460018b81548110611a6b57fe5b906000526020600020906006020160040160018c81548110611a8957fe5b600091825260209182902060056006909202010154855460408051601f600260001961010060018716150201909416939093049283018590048502810185019091528181529192879190830182828015611b245780601f10611af957610100808354040283529160200191611b24565b820191906000526020600020905b815481529060010190602001808311611b0757829003601f168201915b5050875460408051602060026001851615610100026000190190941693909304601f8101849004840282018401909252818152959a5089945092508401905082828015611bb25780601f10611b8757610100808354040283529160200191611bb2565b820191906000526020600020905b815481529060010190602001808311611b9557829003601f168201915b5050855460408051602060026001851615610100026000190190941693909304601f810184900484028201840190925281815295995087945092508401905082828015611c405780601f10611c1557610100808354040283529160200191611c40565b820191906000526020600020905b815481529060010190602001808311611c2357829003601f168201915b5050505050915095509550955095509550955091939550919395565b600080826040516020018082805190602001908083835b60208310611c925780518252601f199092019160209182019101611c73565b6001836020036101000a03801982511681845116808217855250505050505090500191505060405160208183030381529060405280519060200120905060026000828152602001908152602001600020600101549150505b919050565b600080856040516020018082805190602001908083835b60208310611d255780518252601f199092019160209182019101611d06565b6001836020036101000a03801982511681845116808217855250505050505090500191505060405160208183030381529060405280519060200120905060006040516020018080600160f81b6061028152506001019050604051602081830303815290604052805190602001209050611d9d82612724565b151560011415611df75760408051600160e51b62461bcd02815260206004820152601660248201527f7573657220616c6c7265647920696e2073797374656d00000000000000000000604482015290519081900360640190fd5b6000828152602081815260409091208851611e14928a01906137e2565b5060008281526020818152604090912060018101849055600281018390558751611e46926003909201918901906137e2565b50600082815260208181526040909120600481018690558651611e71926005909201918801906137e2565b5060008281526020819052604090206001600690910155611e9582888887896136a5565b506001546000838152602081905260409020600019909101600790910155611ebc87612394565b50817f5b4a315693b2656459d62e0654a19fa40351916778bbbdbb52767e6a6348f0c16000808581526020019081526020016000206007015489600080878152602001908152602001600020600201548a898b6000808b8152602001908152602001600020600601546040518088815260200180602001878152602001806020018681526020018060200185815260200184810384528a818151815260200191508051906020019080838360005b83811015611f82578181015183820152602001611f6a565b50505050905090810190601f168015611faf5780820380516001836020036101000a031916815260200191505b5084810383528851815288516020918201918a019080838360005b83811015611fe2578181015183820152602001611fca565b50505050905090810190601f16801561200f5780820380516001836020036101000a031916815260200191505b50848103825286518152865160209182019188019080838360005b8381101561204257818101518382015260200161202a565b50505050905090810190601f16801561206f5780820380516001836020036101000a031916815260200191505b509a505050505050505050505060405180910390a25060019695505050505050565b600080836040516020018082805190602001908083835b602083106120c75780518252601f1990920191602091820191016120a8565b51815160209384036101000a60001901801990921691161790526040805192909401828103601f1901835284528151918101919091206000818152918290529290206006810188905560070154600180549396508895509350918210905061212b57fe5b60009182526020909120600560069092020101555060019392505050565b50600090565b60008181526020819052604090206006015460609081906005141561227157600083815260208190526040902060036006820181905560079091015460018054909190811061219a57fe5b906000526020600020906006020160050181905550600160008085815260200190815260200160002060070154815481106121d157fe5b600091825260209182902060026006909202018101805460408051601f6000196101006001861615020190931694909404918201859004850284018501905280835291929091908301828280156122695780601f1061223e57610100808354040283529160200191612269565b820191906000526020600020905b81548152906001019060200180831161224c57829003601f168201915b505050505090505b6000838152602081905260409020600601546003141561238e5760008381526020819052604090206005600682018190556007909101546001805490919081106122b757fe5b906000526020600020906006020160050181905550600160008085815260200190815260200160002060070154815481106122ee57fe5b600091825260209182902060026006909202018101805460408051601f6000196101006001861615020190931694909404918201859004850284018501905280835291929091908301828280156123865780601f1061235b57610100808354040283529160200191612386565b820191906000526020600020905b81548152906001019060200180831161236957829003601f168201915b505050505090505b92915050565b600080826040516020018082805190602001908083835b602083106123ca5780518252601f1990920191602091820191016123ab565b6001836020036101000a03801982511681845116808217855250505050505090500191505060405160208183030381529060405280519060200120905060006124116137ab565b600083815260026020526040902054909150821461243b5760008281526002602052604090208290555b60009182526002602052604090912060010181905592915050565b60009081526020819052604090206002015490565b600080836040516020018082805190602001908083835b602083106124a15780518252601f199092019160209182019101612482565b6001836020036101000a0380198251168184511680821785525050505050509050019150506040516020818303038152906040528051906020012090506124e781612724565b15156001146125385760408051600160e51b62461bcd0281526020600482015260126024820152600160701b7175736572206e6f7420696e2073797374656d02604482015290519081900360640190fd5b600081815260208181526040909120845161255b926003909201918601906137e2565b5060008181526020819052604090206007015460018054859290811061257d57fe5b906000526020600020906006020160020190805190602001906125a19291906137e2565b50600081815260208181526040808320600781015460028201546004830154600684015485518481529586018390526080860182905260c0860181905260e08688018181528d51918801919091528c518a996000805160206138b48339815191529996988f9896978f97600501959491939192606085019260a0860192610100870192908d0191908190849084905b83811015612648578181015183820152602001612630565b50505050905090810190601f1680156126755780820380516001836020036101000a031916815260200191505b5084810383528851815288516020918201918a019080838360005b838110156126a8578181015183820152602001612690565b50505050905090810190601f1680156126d55780820380516001836020036101000a031916815260200191505b508481038252865460026000196101006001841615020190911604808252602090910190879080156119b95780601f1061198e576101008083540402835291602001916119b9565b6001545b90565b60015460009061273657506000611cea565b60008281526020819052604090206007015460018054849290811061275757fe5b906000526020600020906006020160000154149050919050565b600080836040516020018082805190602001908083835b602083106127a75780518252601f199092019160209182019101612788565b51815160209384036101000a60001901801990921691161790526040805192909401828103601f190183528452815191810191909120600090815260029091529190912060010154959095149695505050505050565b600081815260026020908152604080832083815560019081018490559183905282206004600682018190556007909101548254606094938593929091811061284157fe5b9060005260206000209060060201600501819055506001600080868152602001908152602001600020600701548154811061287857fe5b600091825260209182902060026006909202018101805460408051601f6000196101006001861615020190931694909404918201859004850284018501905280835291929091908301828280156129105780601f106128e557610100808354040283529160200191612910565b820191906000526020600020905b8154815290600101906020018083116128f357829003601f168201915b50505060008781526020818152604091829020600701548251908152915194955088947fa5c19fdb258d8c46ca76c3d6908a1eae940f60ab0c5efff1face636445aa89ad945091829003019150a29392505050565b60009081526020819052604090206006015490565b600080836040516020018082805190602001908083835b602083106129b05780518252601f199092019160209182019101612991565b6001836020036101000a0380198251168184511680821785525050505050509050019150506040516020818303038152906040528051906020012090506000836040516020018082805190602001908083835b60208310612a225780518252601f199092019160209182019101612a03565b51815160209384036101000a60001901801990921691161790526040805192909401828103601f19018352845281519181019190912060008881528083528481206002808201849055845294812081815560019081018290559252600560068501819055600790940154825491975093955090935082109050612aa157fe5b60009182526020808320600560069093020182019390935584825281835260408083206007810154600482015483518281529384018890526080840181905260c0840185905260e08488018181528d51918601919091528c518a986000805160206138b48339815191529894978f978c9760038101979083019592949193606085019260a08601926101008701928d0191908190849084905b83811015612b52578181015183820152602001612b3a565b50505050905090810190601f168015612b7f5780820380516001836020036101000a031916815260200191505b50848103835288546002600019610100600184161502019091160480825260209091019089908015612bf25780601f10612bc757610100808354040283529160200191612bf2565b820191906000526020600020905b815481529060010190602001808311612bd557829003601f168201915b5050848103825286546002600019610100600184161502019091160480825260209091019087908015612c665780601f10612c3b57610100808354040283529160200191612c66565b820191906000526020600020905b815481529060010190602001808311612c4957829003601f168201915b50509a505050505050505050505060405180910390a2506001949350505050565b600080866040516020018082805190602001908083835b60208310612cbd5780518252601f199092019160209182019101612c9e565b6001836020036101000a038019825116818451168082178552505050505050905001915050604051602081830303815290604052805190602001209050612d0381612724565b1515600114612d545760408051600160e51b62461bcd0281526020600482015260126024820152600160701b7175736572206e6f7420696e2073797374656d02604482015290519081900360640190fd5b6000818152602081905260408120600701545b87518210156134ab57878281518110612d7c57fe5b602002602001015160011415612fda576000838152602081815260409091208851612daf926003909201918a01906137e2565b508660018281548110612dbe57fe5b90600052602060002090600602016002019080519060200190612de29291906137e2565b50826000805160206138b4833981519152600080868152602001908152602001600020600701548b600080888152602001908152602001600020600201548b6000808a8152602001908152602001600020600401546000808b81526020019081526020016000206005016000808c8152602001908152602001600020600601546040518088815260200180602001878152602001806020018681526020018060200185815260200184810384528a818151815260200191508051906020019080838360005b83811015612ebf578181015183820152602001612ea7565b50505050905090810190601f168015612eec5780820380516001836020036101000a031916815260200191505b5084810383528851815288516020918201918a019080838360005b83811015612f1f578181015183820152602001612f07565b50505050905090810190601f168015612f4c5780820380516001836020036101000a031916815260200191505b50848103825286546002600019610100600184161502019091160480825260209091019087908015612fbf5780601f10612f9457610100808354040283529160200191612fbf565b820191906000526020600020905b815481529060010190602001808311612fa257829003601f168201915b50509a505050505050505050505060405180910390a26134a0565b878281518110612fe657fe5b602002602001015160021415613244576000838152602081815260409091208751613019926005909201918901906137e2565b50856001828154811061302857fe5b9060005260206000209060060201600401908051906020019061304c9291906137e2565b50826000805160206138b4833981519152600080868152602001908152602001600020600701548b600080888152602001908152602001600020600201546000808981526020019081526020016000206003016000808a8152602001908152602001600020600401548c6000808c8152602001908152602001600020600601546040518088815260200180602001878152602001806020018681526020018060200185815260200184810384528a818151815260200191508051906020019080838360005b83811015613129578181015183820152602001613111565b50505050905090810190601f1680156131565780820380516001836020036101000a031916815260200191505b508481038352885460026000196101006001841615020190911604808252602090910190899080156131c95780601f1061319e576101008083540402835291602001916131c9565b820191906000526020600020905b8154815290600101906020018083116131ac57829003601f168201915b5050848103825286518152865160209182019188019080838360005b838110156131fd5781810151838201526020016131e5565b50505050905090810190601f16801561322a5780820380516001836020036101000a031916815260200191505b509a505050505050505050505060405180910390a26134a0565b87828151811061325057fe5b6020026020010151600314156134a0576000838152602081905260409020600401859055600180548691908390811061328557fe5b906000526020600020906006020160030181905550826000805160206138b4833981519152600080868152602001908152602001600020600701548b600080888152602001908152602001600020600201546000808981526020019081526020016000206003018a6000808b81526020019081526020016000206005016000808c8152602001908152602001600020600601546040518088815260200180602001878152602001806020018681526020018060200185815260200184810384528a818151815260200191508051906020019080838360005b8381101561337557818101518382015260200161335d565b50505050905090810190601f1680156133a25780820380516001836020036101000a031916815260200191505b508481038352885460026000196101006001841615020190911604808252602090910190899080156134155780601f106133ea57610100808354040283529160200191613415565b820191906000526020600020905b8154815290600101906020018083116133f857829003601f168201915b50508481038252865460026000196101006001841615020190911604808252602090910190879080156134895780601f1061345e57610100808354040283529160200191613489565b820191906000526020600020905b81548152906001019060200180831161346c57829003601f168201915b50509a505050505050505050505060405180910390a25b600190910190612d67565b50600198975050505050505050565b6000602081815291815260409081902080548251601f60026000196101006001861615020190931692909204918201859004850281018501909352808352909283919083018282801561354e5780601f106135235761010080835404028352916020019161354e565b820191906000526020600020905b81548152906001019060200180831161353157829003601f168201915b505050505090806001015490806002015490806003018054600181600116156101000203166002900480601f0160208091040260200160405190810160405280929190818152602001828054600181600116156101000203166002900480156135f85780601f106135cd576101008083540402835291602001916135f8565b820191906000526020600020905b8154815290600101906020018083116135db57829003601f168201915b50505050600483015460058401805460408051602060026001851615610100026000190190941693909304601f8101849004840282018401909252818152959693959394509083018282801561368f5780601f106136645761010080835404028352916020019161368f565b820191906000526020600020905b81548152906001019060200180831161367257829003601f168201915b5050505050908060060154908060070154905088565b60006136af613860565b8681526020808201878152604083018790526060830186905260808301859052600160a084018190528054808201808355600092909252845160069091027fb10e2d527612073b26eecdfd717e6a320cf44b4afac2b0732d9fcbe2b7fa0cf681019182559251805192948694929361374d937fb10e2d527612073b26eecdfd717e6a320cf44b4afac2b0732d9fcbe2b7fa0cf70192909101906137e2565b50604082015180516137699160028401916020909101906137e2565b50606082015160038201556080820151805161378f9160048401916020909101906137e2565b5060a08201518160050155505050600191505095945050505050565b6040805142602080830191909152448284015243606080840191909152835180840390910181526080909201909252805191012090565b828054600181600116156101000203166002900490600052602060002090601f016020900481019282601f1061382357805160ff1916838001178555613850565b82800160010185558215613850579182015b82811115613850578251825591602001919060010190613835565b5061385c929150613899565b5090565b6040518060c001604052806000801916815260200160608152602001606081526020016000815260200160608152602001600081525090565b61272191905b8082111561385c576000815560010161389f56fecb46eeb6bb50a8b5e92aedcd091536be514c5440f3b6ccbd538905454fe79f48a165627a7a72305820898fdceb4bbdd16d00b8e9385cce2152fcdc782f636a373da5ba9df9f6bf63670029",
  "source": "pragma solidity >=0.4.21 <0.6.0;\r\n\r\ncontract SupervisorContract {\r\n    \r\n    struct Supervisor{\r\n        string email;\r\n        bytes32 emailCode;\r\n        bytes32 passwordCode;\r\n        string name;\r\n        uint contactNumber;\r\n        string userAddress;\r\n        uint userAccess;\r\n        uint index;\r\n    }\r\n\r\n    struct DisplaySupervisor{\r\n        bytes32 emailCode;\r\n        string email;\r\n        string name;\r\n        uint contactNumber;\r\n        string userAddress;\r\n        uint userAccess;\r\n    }\r\n    \r\n    event LogNewSupervisor(\r\n        bytes32 indexed emailCode,\r\n        uint index,string email,\r\n        bytes32 passwordCode,\r\n        string name,\r\n        uint contactNumber,\r\n        string userAddress,\r\n        uint userAccess\r\n        );\r\n    event LogUpdateSupervisor(\r\n        bytes32 indexed emailCode,\r\n        uint index,string email,\r\n        bytes32 passwordCode,\r\n        string name,\r\n        uint contactNumber,\r\n        string userAddress,\r\n        uint userAccess\r\n        );\r\n    event LogDeleteSupervisor(\r\n        bytes32 indexed emailcode,\r\n        uint index\r\n        );\r\n        \r\n    struct RegistationToken{\r\n        bytes32 emailCode;\r\n        bytes32 token;\r\n    }\r\n        \r\n    mapping(bytes32 => Supervisor) public supervisorArray;\r\n    DisplaySupervisor[] private supervisorIndex;\r\n    mapping(bytes32 => RegistationToken) private supervisorRegistationToken;\r\n\r\n    function isSupervisor(bytes32 _emailCode)public view returns(bool isIndeed) {\r\n        if(supervisorIndex.length == 0) return false;\r\n        return (supervisorIndex[supervisorArray[_emailCode].index].emailCode == _emailCode);\r\n    }\r\n    function createSupervisorToken(string memory _email)public returns(bytes32){\r\n        bytes32 _emailCode = keccak256(abi.encodePacked((_email)));\r\n        bytes32 token = randomtoken();\r\n        if(supervisorRegistationToken[_emailCode].emailCode != _emailCode){\r\n            supervisorRegistationToken[_emailCode].emailCode = _emailCode;\r\n        }\r\n        supervisorRegistationToken[_emailCode].token = token;\r\n        return token;\r\n    }\r\n    function getSupervisorToken(string memory _email)public view returns(bytes32){\r\n        bytes32 _emailCode = keccak256(abi.encodePacked((_email)));\r\n        return  supervisorRegistationToken[_emailCode].token;\r\n    }\r\n    function checkSupervisorToken(string memory _email,bytes32 _token)public view returns(bool){\r\n        bytes32 _emailCode = keccak256(abi.encodePacked((_email)));\r\n        return  (supervisorRegistationToken[_emailCode].token == _token);\r\n    }\r\n    function randomtoken() private view returns (bytes32) {\r\n       return keccak256(abi.encodePacked(block.timestamp,block.difficulty,block.number));\r\n    }\r\n    function setPassword(string memory _email,string memory _password)public returns (bool) {\r\n        bytes32 _emailCode = keccak256(abi.encodePacked((_email)));\r\n        bytes32 _passwordCode = keccak256(abi.encodePacked((_password)));\r\n\r\n        supervisorArray[_emailCode].passwordCode = _passwordCode;\r\n        delete supervisorRegistationToken[_emailCode];\r\n        supervisorArray[_emailCode].userAccess = 5;\r\n        supervisorIndex[supervisorArray[_emailCode].index].userAccess = 5;\r\n        emit LogUpdateSupervisor(\r\n            _emailCode,\r\n            supervisorArray[_emailCode].index,\r\n            _email,\r\n            _passwordCode,\r\n            supervisorArray[_emailCode].name,\r\n            supervisorArray[_emailCode].contactNumber,\r\n            supervisorArray[_emailCode].userAddress,\r\n            5\r\n            );\r\n        return true;\r\n\r\n    }\r\n    function setDisplaySupervisor(bytes32 _emailCode,string memory _email,string memory _name,uint _telephone,string memory _address)\r\n     private returns(bool){\r\n\r\n        DisplaySupervisor memory displaySupervisor;\r\n        displaySupervisor.emailCode = _emailCode;\r\n        displaySupervisor.email = _email;\r\n        displaySupervisor.name = _name;\r\n        displaySupervisor.contactNumber = _telephone;\r\n        displaySupervisor.userAddress = _address;\r\n        displaySupervisor.userAccess = 1;\r\n        supervisorIndex.push(displaySupervisor);\r\n        return true;\r\n\r\n    }\r\n    function insertSupervisor(string memory _email,string memory _name,string memory _address,uint _telephone) public returns(bool){\r\n        bytes32 _emailCode = keccak256(abi.encodePacked((_email)));\r\n        bytes32 _passwordCode = keccak256(abi.encodePacked((\"a\")));\r\n        require(isSupervisor(_emailCode) != true,'user allredy in system');\r\n\r\n        supervisorArray[_emailCode].email = _email;\r\n        supervisorArray[_emailCode].emailCode = _emailCode;\r\n        supervisorArray[_emailCode].passwordCode = _passwordCode;\r\n        supervisorArray[_emailCode].name = _name;\r\n        supervisorArray[_emailCode].contactNumber = _telephone;\r\n        supervisorArray[_emailCode].userAddress = _address;\r\n        supervisorArray[_emailCode].userAccess = 1;\r\n        setDisplaySupervisor(_emailCode,_email,_name,_telephone,_address);\r\n        supervisorArray[_emailCode].index = supervisorIndex.length-1;\r\n        createSupervisorToken(_email);\r\n\r\n        emit LogNewSupervisor (\r\n            _emailCode,\r\n            supervisorArray[_emailCode].index,\r\n            _email,\r\n            supervisorArray[_emailCode].passwordCode,\r\n            _name,\r\n            _telephone,\r\n            _address,\r\n            supervisorArray[_emailCode].userAccess\r\n            );\r\n        return true;\r\n    }\r\n    function deleteSupervisor (bytes32 email) public returns(string memory){\r\n        uint i;\r\n        string memory name;\r\n         delete supervisorRegistationToken[email];\r\n        supervisorArray[email].userAccess = 4;\r\n        supervisorIndex[supervisorArray[email].index].userAccess = 4;\r\n        name = supervisorIndex[supervisorArray[email].index].name;\r\n        emit LogDeleteSupervisor(\r\n            email,\r\n            supervisorArray[email].index\r\n        );\r\n        return name;\r\n    }\r\n    function blockSupervisor(bytes32 email) public returns(string memory)\r\n    {\r\n        string memory name;\r\n        if(supervisorArray[email].userAccess == 5){\r\n        supervisorArray[email].userAccess = 3;\r\n        supervisorIndex[supervisorArray[email].index].userAccess = 3;\r\n        name = supervisorIndex[supervisorArray[email].index].name;\r\n        }\r\n        if(supervisorArray[email].userAccess == 3){\r\n        supervisorArray[email].userAccess = 5;\r\n        supervisorIndex[supervisorArray[email].index].userAccess = 5;\r\n        name = supervisorIndex[supervisorArray[email].index].name;\r\n        }\r\n        return name;\r\n    }\r\n    function editUserAccess(string memory _email,uint usreAccess)public returns(bool){\r\n        bytes32 email = keccak256(abi.encodePacked((_email)));\r\n        supervisorArray[email].userAccess = usreAccess;\r\n        supervisorIndex[supervisorArray[email].index].userAccess = usreAccess;\r\n        return true;\r\n\r\n    }\r\n    function getSupervisor(string memory _email) public view returns(bytes32,string memory email,string memory name,\r\n    uint contactNumber,string memory userAddress, uint userAccess){\r\n        bytes32 _emailCode = keccak256(abi.encodePacked((_email)));\r\n        require(isSupervisor(_emailCode) == true,'user not in system');\r\n        return(\r\n            _emailCode,\r\n            supervisorArray[_emailCode].email,\r\n            supervisorArray[_emailCode].name,\r\n            supervisorArray[_emailCode].contactNumber,\r\n            supervisorArray[_emailCode].userAddress,\r\n            supervisorArray[_emailCode].userAccess\r\n            );\r\n    }\r\n    function getSupervisori(uint i) public view returns(\r\n        bytes32,\r\n        string memory,\r\n        string memory,\r\n        uint,\r\n        string memory,\r\n        uint\r\n        ){\r\n            return (\r\n                supervisorIndex[i].emailCode,\r\n                supervisorIndex[i].email,\r\n                supervisorIndex[i].name,\r\n                supervisorIndex[i].contactNumber,\r\n                supervisorIndex[i].userAddress,\r\n                supervisorIndex[i].userAccess\r\n                );\r\n    }\r\n    function getSupervisorCount() public view returns(uint)\r\n    {\r\n        return supervisorIndex.length;\r\n    }\r\n\r\n    // function updateUserEmail(address userAddress, bytes32 userEmail) public returns(bool success)\r\n    // {\r\n    //     userStructs[userAddress].userEmail = userEmail;\r\n    //     emit LogUpdateUser(userAddress,  userStructs[userAddress].index, userEmail, userStructs[userAddress].userAge);\r\n    //     return true;\r\n    // }\r\n    function updateSupervisorName (string memory _email,string memory _name) public returns(bool success){\r\n        bytes32 _emailCode = keccak256(abi.encodePacked((_email)));\r\n        require(isSupervisor(_emailCode) == true,'user not in system');\r\n        supervisorArray[_emailCode].name = _name;\r\n        supervisorIndex[supervisorArray[_emailCode].index].name = _name;\r\n        emit LogUpdateSupervisor(\r\n            _emailCode,\r\n            supervisorArray[_emailCode].index,\r\n            _email,\r\n            supervisorArray[_emailCode].passwordCode,\r\n            _name,\r\n            supervisorArray[_emailCode].contactNumber,\r\n            supervisorArray[_emailCode].userAddress,\r\n            supervisorArray[_emailCode].userAccess\r\n            );\r\n        return true;\r\n    }\r\n    function updateSupervisorAddress (string memory _email,string memory _userAddress) public returns(bool success){\r\n        bytes32 _emailCode = keccak256(abi.encodePacked((_email)));\r\n        require(isSupervisor(_emailCode) == true,'user not in system');\r\n        supervisorArray[_emailCode].userAddress = _userAddress;\r\n        supervisorIndex[supervisorArray[_emailCode].index].userAddress = _userAddress;\r\n        emit LogUpdateSupervisor(\r\n            _emailCode,\r\n            supervisorArray[_emailCode].index,\r\n            _email,\r\n            supervisorArray[_emailCode].passwordCode,\r\n            supervisorArray[_emailCode].name,\r\n            supervisorArray[_emailCode].contactNumber,\r\n            _userAddress,\r\n            supervisorArray[_emailCode].userAccess\r\n            );\r\n        return true;\r\n    }\r\n    function updateSupervisorContactNumber (string memory _email,uint _contactNumber) public returns(bool success){\r\n        bytes32 _emailCode = keccak256(abi.encodePacked((_email)));\r\n        require(isSupervisor(_emailCode) == true,'user not in system');\r\n        supervisorArray[_emailCode].contactNumber = _contactNumber;\r\n        supervisorIndex[supervisorArray[_emailCode].index].contactNumber = _contactNumber;\r\n        emit LogUpdateSupervisor(\r\n            _emailCode,\r\n            supervisorArray[_emailCode].index,\r\n            _email,\r\n            supervisorArray[_emailCode].passwordCode,\r\n            supervisorArray[_emailCode].name,\r\n            _contactNumber,\r\n            supervisorArray[_emailCode].userAddress,\r\n            supervisorArray[_emailCode].userAccess\r\n            );\r\n        return true;\r\n    }\r\n    function updateSupervisor(\r\n        string memory _email,\r\n        uint[] memory index,\r\n        string memory _name,\r\n        string memory _userAddress,\r\n        uint _contactNumber\r\n        ) public returns(bool success){\r\n        bytes32 _emailCode = keccak256(abi.encodePacked((_email)));\r\n        require(isSupervisor(_emailCode) == true,'user not in system');\r\n        uint i;\r\n        uint num = supervisorArray[_emailCode].index;\r\n\r\n        for (i = 0;i<index.length;i++){\r\n            if(index[i]==1){\r\n                supervisorArray[_emailCode].name = _name;\r\n                supervisorIndex[num].name = _name;\r\n                emit LogUpdateSupervisor(\r\n                    _emailCode,\r\n                    supervisorArray[_emailCode].index,\r\n                    _email,supervisorArray[_emailCode].passwordCode,\r\n                    _name,\r\n                    supervisorArray[_emailCode].contactNumber,\r\n                    supervisorArray[_emailCode].userAddress,\r\n                    supervisorArray[_emailCode].userAccess\r\n                    );\r\n\r\n            }\r\n            else if(index[i]==2){\r\n                supervisorArray[_emailCode].userAddress = _userAddress;\r\n\r\n                supervisorIndex[num].userAddress = _userAddress;\r\n\r\n                emit LogUpdateSupervisor(\r\n                    _emailCode,\r\n                    supervisorArray[_emailCode].index,\r\n                    _email,\r\n                    supervisorArray[_emailCode].passwordCode,\r\n                    supervisorArray[_emailCode].name,\r\n                    supervisorArray[_emailCode].contactNumber,\r\n                    _userAddress,\r\n                    supervisorArray[_emailCode].userAccess\r\n                    );\r\n\r\n            }\r\n            else if(index[i]==3){\r\n                supervisorArray[_emailCode].contactNumber = _contactNumber;\r\n                supervisorIndex[num].contactNumber = _contactNumber;\r\n                emit LogUpdateSupervisor(\r\n                    _emailCode,\r\n                    supervisorArray[_emailCode].index,\r\n                    _email,\r\n                    supervisorArray[_emailCode].passwordCode,\r\n                    supervisorArray[_emailCode].name,\r\n                    _contactNumber,\r\n                    supervisorArray[_emailCode].userAddress,\r\n                    supervisorArray[_emailCode].userAccess\r\n                    );\r\n\r\n            }\r\n        }\r\n        return true;\r\n    }\r\n    ///////\r\n    function updateSupervisoriEmail (string memory _email) public returns(bool success)\r\n    {\r\n       // return true;\r\n    }\r\n    function checkSupervisorUserAccess(bytes32 email)public view returns(uint userAccess){\r\n\r\n        return supervisorArray[email].userAccess;\r\n    }\r\n    function checkSupervisorPasswordCode(bytes32 email) public view returns(bytes32 passwordCode ){\r\n        return supervisorArray[email].passwordCode;\r\n    }\r\n}",
  "sourcePath": "C:\\project\\tea supply chain mangement system\\test2\\contracts\\Supervisor.sol",
  "compiler": {
    "name": "solc",
    "version": "0.5.8+commit.23d335f2.Emscripten.clang"
  },
  "schemaVersion": "3.0.16",
  "updatedAt": "2020-01-13T03:30:36.504Z",
  "devdoc": {
    "methods": {}
  },
  "userdoc": {
    "methods": {
      "updateSupervisoriEmail(string)": {
        "notice": "////"
      }
    }
  }
}