{
  "contractName": "SupervisorContract",
  "abi": [
    {
      "constant": true,
      "inputs": [
        {
          "name": "",
          "type": "bytes32"
        }
      ],
      "name": "supervisorArray",
      "outputs": [
        {
          "name": "email",
          "type": "string"
        },
        {
          "name": "emailCode",
          "type": "bytes32"
        },
        {
          "name": "passwordCode",
          "type": "bytes32"
        },
        {
          "name": "passwordRestToken",
          "type": "bytes32"
        },
        {
          "name": "name",
          "type": "string"
        },
        {
          "name": "contactNumber",
          "type": "uint256"
        },
        {
          "name": "userAddress",
          "type": "string"
        },
        {
          "name": "userAccess",
          "type": "uint256"
        },
        {
          "name": "index",
          "type": "uint256"
        }
      ],
      "payable": false,
      "stateMutability": "view",
      "type": "function"
    },
    {
      "anonymous": false,
      "inputs": [
        {
          "indexed": true,
          "name": "emailCode",
          "type": "bytes32"
        },
        {
          "indexed": false,
          "name": "index",
          "type": "uint256"
        },
        {
          "indexed": false,
          "name": "email",
          "type": "string"
        },
        {
          "indexed": false,
          "name": "passwordCode",
          "type": "bytes32"
        },
        {
          "indexed": false,
          "name": "passwordRestToken",
          "type": "bytes32"
        },
        {
          "indexed": false,
          "name": "name",
          "type": "string"
        },
        {
          "indexed": false,
          "name": "contactNumber",
          "type": "uint256"
        },
        {
          "indexed": false,
          "name": "userAddress",
          "type": "string"
        },
        {
          "indexed": false,
          "name": "userAccess",
          "type": "uint256"
        }
      ],
      "name": "LogNewSupervisor",
      "type": "event"
    },
    {
      "anonymous": false,
      "inputs": [
        {
          "indexed": true,
          "name": "emailCode",
          "type": "bytes32"
        },
        {
          "indexed": false,
          "name": "index",
          "type": "uint256"
        },
        {
          "indexed": false,
          "name": "email",
          "type": "string"
        },
        {
          "indexed": false,
          "name": "passwordCode",
          "type": "bytes32"
        },
        {
          "indexed": false,
          "name": "passwordRestToken",
          "type": "bytes32"
        },
        {
          "indexed": false,
          "name": "name",
          "type": "string"
        },
        {
          "indexed": false,
          "name": "contactNumber",
          "type": "uint256"
        },
        {
          "indexed": false,
          "name": "userAddress",
          "type": "string"
        },
        {
          "indexed": false,
          "name": "userAccess",
          "type": "uint256"
        }
      ],
      "name": "LogUpdateSupervisor",
      "type": "event"
    },
    {
      "anonymous": false,
      "inputs": [
        {
          "indexed": true,
          "name": "emailcode",
          "type": "bytes32"
        },
        {
          "indexed": false,
          "name": "index",
          "type": "uint256"
        }
      ],
      "name": "LogDeleteSupervisor",
      "type": "event"
    },
    {
      "constant": false,
      "inputs": [
        {
          "name": "_email",
          "type": "string"
        },
        {
          "name": "_name",
          "type": "string"
        }
      ],
      "name": "insertSupervisor",
      "outputs": [
        {
          "name": "",
          "type": "bytes32"
        }
      ],
      "payable": false,
      "stateMutability": "nonpayable",
      "type": "function"
    },
    {
      "constant": false,
      "inputs": [
        {
          "name": "email",
          "type": "bytes32"
        }
      ],
      "name": "deleteSupervisor",
      "outputs": [
        {
          "name": "",
          "type": "string"
        }
      ],
      "payable": false,
      "stateMutability": "nonpayable",
      "type": "function"
    },
    {
      "constant": false,
      "inputs": [
        {
          "name": "email",
          "type": "bytes32"
        }
      ],
      "name": "blockSupervisor",
      "outputs": [
        {
          "name": "",
          "type": "string"
        }
      ],
      "payable": false,
      "stateMutability": "nonpayable",
      "type": "function"
    },
    {
      "constant": true,
      "inputs": [
        {
          "name": "_email",
          "type": "string"
        }
      ],
      "name": "getSupervisor",
      "outputs": [
        {
          "name": "email",
          "type": "string"
        },
        {
          "name": "name",
          "type": "string"
        },
        {
          "name": "contactNumber",
          "type": "uint256"
        },
        {
          "name": "userAddress",
          "type": "string"
        },
        {
          "name": "userAccess",
          "type": "uint256"
        }
      ],
      "payable": false,
      "stateMutability": "view",
      "type": "function"
    },
    {
      "constant": true,
      "inputs": [
        {
          "name": "i",
          "type": "uint256"
        }
      ],
      "name": "getSupervisori",
      "outputs": [
        {
          "name": "",
          "type": "bytes32"
        },
        {
          "name": "",
          "type": "string"
        },
        {
          "name": "",
          "type": "string"
        },
        {
          "name": "",
          "type": "uint256"
        },
        {
          "name": "",
          "type": "string"
        },
        {
          "name": "",
          "type": "uint256"
        }
      ],
      "payable": false,
      "stateMutability": "view",
      "type": "function"
    },
    {
      "constant": true,
      "inputs": [],
      "name": "getSupervisorCount",
      "outputs": [
        {
          "name": "",
          "type": "uint256"
        }
      ],
      "payable": false,
      "stateMutability": "view",
      "type": "function"
    },
    {
      "constant": false,
      "inputs": [
        {
          "name": "_email",
          "type": "string"
        },
        {
          "name": "_name",
          "type": "string"
        }
      ],
      "name": "updateDistributorName",
      "outputs": [
        {
          "name": "success",
          "type": "bool"
        }
      ],
      "payable": false,
      "stateMutability": "nonpayable",
      "type": "function"
    },
    {
      "constant": false,
      "inputs": [
        {
          "name": "_email",
          "type": "string"
        },
        {
          "name": "_userAddress",
          "type": "string"
        }
      ],
      "name": "updateSupervisorAddress",
      "outputs": [
        {
          "name": "success",
          "type": "bool"
        }
      ],
      "payable": false,
      "stateMutability": "nonpayable",
      "type": "function"
    },
    {
      "constant": false,
      "inputs": [
        {
          "name": "_email",
          "type": "string"
        },
        {
          "name": "_contactNumber",
          "type": "uint256"
        }
      ],
      "name": "updateSupervisorContactNumber",
      "outputs": [
        {
          "name": "success",
          "type": "bool"
        }
      ],
      "payable": false,
      "stateMutability": "nonpayable",
      "type": "function"
    },
    {
      "constant": false,
      "inputs": [
        {
          "name": "_email",
          "type": "string"
        },
        {
          "name": "index",
          "type": "uint256[]"
        },
        {
          "name": "_name",
          "type": "string"
        },
        {
          "name": "_userAddress",
          "type": "string"
        },
        {
          "name": "_contactNumber",
          "type": "uint256"
        }
      ],
      "name": "updateSupervisor",
      "outputs": [
        {
          "name": "success",
          "type": "bool"
        }
      ],
      "payable": false,
      "stateMutability": "nonpayable",
      "type": "function"
    },
    {
      "constant": false,
      "inputs": [
        {
          "name": "_email",
          "type": "string"
        }
      ],
      "name": "updateSupervisorEmail",
      "outputs": [
        {
          "name": "success",
          "type": "bool"
        }
      ],
      "payable": false,
      "stateMutability": "nonpayable",
      "type": "function"
    },
    {
      "constant": true,
      "inputs": [
        {
          "name": "email",
          "type": "bytes32"
        }
      ],
      "name": "checkSupervisorUserAccess",
      "outputs": [
        {
          "name": "userAccess",
          "type": "uint256"
        }
      ],
      "payable": false,
      "stateMutability": "view",
      "type": "function"
    },
    {
      "constant": true,
      "inputs": [
        {
          "name": "email",
          "type": "bytes32"
        }
      ],
      "name": "checkSupervisorPasswordCode",
      "outputs": [
        {
          "name": "passwordCode",
          "type": "bytes32"
        }
      ],
      "payable": false,
      "stateMutability": "view",
      "type": "function"
    }
  ],
  "bytecode": "0x608060405234801561001057600080fd5b50613297806100206000396000f3fe608060405234801561001057600080fd5b50600436106100ea5760003560e01c806389cda3dd1161008c578063c3cd325a11610066578063c3cd325a14610976578063c9b5827514610993578063d9447e5914610a37578063efa3cbfe14610c69576100ea565b806389cda3dd146109345780639fb646f414610951578063c27418da14610959576100ea565b806330532763116100c857806330532763146104c85780634dc242c81461063e578063566a14a3146107675780637e082866146108a2576100ea565b8063129d9002146100ef5780631db7c6081461022c5780632d92dbc014610422575b600080fd5b6102186004803603604081101561010557600080fd5b810190602081018135600160201b81111561011f57600080fd5b82018360208201111561013157600080fd5b803590602001918460018302840111600160201b8311171561015257600080fd5b91908080601f0160208091040260200160405190810160405280939291908181526020018383808284376000920191909152509295949360208101935035915050600160201b8111156101a457600080fd5b8201836020820111156101b657600080fd5b803590602001918460018302840111600160201b831117156101d757600080fd5b91908080601f016020809104026020016040519081016040528093929190818152602001838380828437600092019190915250929550610df4945050505050565b604080519115158252519081900360200190f35b6102d06004803603602081101561024257600080fd5b810190602081018135600160201b81111561025c57600080fd5b82018360208201111561026e57600080fd5b803590602001918460018302840111600160201b8311171561028f57600080fd5b91908080601f016020809104026020016040519081016040528093929190818152602001838380828437600092019190915250929550611144945050505050565b60405180806020018060200186815260200180602001858152602001848103845289818151815260200191508051906020019080838360005b83811015610321578181015183820152602001610309565b50505050905090810190601f16801561034e5780820380516001836020036101000a031916815260200191505b5084810383528851815288516020918201918a019080838360005b83811015610381578181015183820152602001610369565b50505050905090810190601f1680156103ae5780820380516001836020036101000a031916815260200191505b50848103825286518152865160209182019188019080838360005b838110156103e15781810151838201526020016103c9565b50505050905090810190601f16801561040e5780820380516001836020036101000a031916815260200191505b509850505050505050505060405180910390f35b6102186004803603604081101561043857600080fd5b810190602081018135600160201b81111561045257600080fd5b82018360208201111561046457600080fd5b803590602001918460018302840111600160201b8311171561048557600080fd5b91908080601f01602080910402602001604051908101604052809392919081815260200183838082843760009201919091525092955050913592506113f9915050565b6104e5600480360360208110156104de57600080fd5b503561172f565b60405180878152602001806020018060200186815260200180602001858152602001848103845289818151815260200191508051906020019080838360005b8381101561053c578181015183820152602001610524565b50505050905090810190601f1680156105695780820380516001836020036101000a031916815260200191505b5084810383528851815288516020918201918a019080838360005b8381101561059c578181015183820152602001610584565b50505050905090810190601f1680156105c95780820380516001836020036101000a031916815260200191505b50848103825286518152865160209182019188019080838360005b838110156105fc5781810151838201526020016105e4565b50505050905090810190601f1680156106295780820380516001836020036101000a031916815260200191505b50995050505050505050505060405180910390f35b6102186004803603604081101561065457600080fd5b810190602081018135600160201b81111561066e57600080fd5b82018360208201111561068057600080fd5b803590602001918460018302840111600160201b831117156106a157600080fd5b91908080601f0160208091040260200160405190810160405280939291908181526020018383808284376000920191909152509295949360208101935035915050600160201b8111156106f357600080fd5b82018360208201111561070557600080fd5b803590602001918460018302840111600160201b8311171561072657600080fd5b91908080601f0160208091040260200160405190810160405280939291908181526020018383808284376000920191909152509295506119b2945050505050565b6108906004803603604081101561077d57600080fd5b810190602081018135600160201b81111561079757600080fd5b8201836020820111156107a957600080fd5b803590602001918460018302840111600160201b831117156107ca57600080fd5b91908080601f0160208091040260200160405190810160405280939291908181526020018383808284376000920191909152509295949360208101935035915050600160201b81111561081c57600080fd5b82018360208201111561082e57600080fd5b803590602001918460018302840111600160201b8311171561084f57600080fd5b91908080601f016020809104026020016040519081016040528093929190818152602001838380828437600092019190915250929550611cb6945050505050565b60408051918252519081900360200190f35b6108bf600480360360208110156108b857600080fd5b50356120c5565b6040805160208082528351818301528351919283929083019185019080838360005b838110156108f95781810151838201526020016108e1565b50505050905090810190601f1680156109265780820380516001836020036101000a031916815260200191505b509250505060405180910390f35b6108906004803603602081101561094a57600080fd5b50356121d4565b6108906121e9565b6108bf6004803603602081101561096f57600080fd5b50356121f0565b6108906004803603602081101561098c57600080fd5b5035612421565b610218600480360360208110156109a957600080fd5b810190602081018135600160201b8111156109c357600080fd5b8201836020820111156109d557600080fd5b803590602001918460018302840111600160201b831117156109f657600080fd5b91908080601f016020809104026020016040519081016040528093929190818152602001838380828437600092019190915250929550612436945050505050565b610218600480360360a0811015610a4d57600080fd5b810190602081018135600160201b811115610a6757600080fd5b820183602082011115610a7957600080fd5b803590602001918460018302840111600160201b83111715610a9a57600080fd5b91908080601f0160208091040260200160405190810160405280939291908181526020018383808284376000920191909152509295949360208101935035915050600160201b811115610aec57600080fd5b820183602082011115610afe57600080fd5b803590602001918460208302840111600160201b83111715610b1f57600080fd5b9190808060200260200160405190810160405280939291908181526020018383602002808284376000920191909152509295949360208101935035915050600160201b811115610b6e57600080fd5b820183602082011115610b8057600080fd5b803590602001918460018302840111600160201b83111715610ba157600080fd5b91908080601f0160208091040260200160405190810160405280939291908181526020018383808284376000920191909152509295949360208101935035915050600160201b811115610bf357600080fd5b820183602082011115610c0557600080fd5b803590602001918460018302840111600160201b83111715610c2657600080fd5b91908080601f016020809104026020016040519081016040528093929190818152602001838380828437600092019190915250929550509135925061243c915050565b610c8660048036036020811015610c7f57600080fd5b5035612cc6565b60405180806020018a8152602001898152602001888152602001806020018781526020018060200186815260200185815260200184810384528d818151815260200191508051906020019080838360005b83811015610cef578181015183820152602001610cd7565b50505050905090810190601f168015610d1c5780820380516001836020036101000a031916815260200191505b5084810383528951815289516020918201918b019080838360005b83811015610d4f578181015183820152602001610d37565b50505050905090810190601f168015610d7c5780820380516001836020036101000a031916815260200191505b50848103825287518152875160209182019189019080838360005b83811015610daf578181015183820152602001610d97565b50505050905090810190601f168015610ddc5780820380516001836020036101000a031916815260200191505b509c5050505050505050505050505060405180910390f35b600080836040516020018082805190602001908083835b60208310610e2a5780518252601f199092019160209182019101610e0b565b6001836020036101000a038019825116818451168082178552505050505050905001915050604051602081830303815290604052805190602001209050610e7081612eb7565b1515600114610ec15760408051600160e51b62461bcd0281526020600482015260126024820152600160701b7175736572206e6f7420696e2073797374656d02604482015290519081900360640190fd5b6000818152602081815260409091208451610ee4926006909201918601906130d7565b50600081815260208190526040902060080154600180548592908110610f0657fe5b90600052602060002090600602016004019080519060200190610f2a9291906130d7565b508060008051602061324c83398151915260008084815260200190815260200160002060080154866000808681526020019081526020016000206002015460008087815260200190815260200160002060030154600080888152602001908152602001600020600401600080898152602001908152602001600020600501548a6000808b8152602001908152602001600020600701546040518089815260200180602001888152602001878152602001806020018681526020018060200185815260200184810384528b818151815260200191508051906020019080838360005b8381101561102357818101518382015260200161100b565b50505050905090810190601f1680156110505780820380516001836020036101000a031916815260200191505b508481038352885460026000196101006001841615020190911604808252602090910190899080156110c35780601f10611098576101008083540402835291602001916110c3565b820191906000526020600020905b8154815290600101906020018083116110a657829003601f168201915b5050848103825286518152865160209182019188019080838360005b838110156110f75781810151838201526020016110df565b50505050905090810190601f1680156111245780820380516001836020036101000a031916815260200191505b509b50505050505050505050505060405180910390a25060019392505050565b60608060006060600080866040516020018082805190602001908083835b602083106111815780518252601f199092019160209182019101611162565b6001836020036101000a0380198251168184511680821785525050505050509050019150506040516020818303038152906040528051906020012090506111c781612eb7565b15156001146112185760408051600160e51b62461bcd0281526020600482015260126024820152600160701b7175736572206e6f7420696e2073797374656d02604482015290519081900360640190fd5b600081815260208181526040918290206005810154600782015482548551601f6002600019610100600186161502019093169290920491820186900486028101860190965280865292946004860194929360068701938791908301828280156112c25780601f10611297576101008083540402835291602001916112c2565b820191906000526020600020905b8154815290600101906020018083116112a557829003601f168201915b5050875460408051602060026001851615610100026000190190941693909304601f8101849004840282018401909252818152959a50899450925084019050828280156113505780601f1061132557610100808354040283529160200191611350565b820191906000526020600020905b81548152906001019060200180831161133357829003601f168201915b5050855460408051602060026001851615610100026000190190941693909304601f8101849004840282018401909252818152959950879450925084019050828280156113de5780601f106113b3576101008083540402835291602001916113de565b820191906000526020600020905b8154815290600101906020018083116113c157829003601f168201915b50505050509150955095509550955095505091939590929450565b600080836040516020018082805190602001908083835b6020831061142f5780518252601f199092019160209182019101611410565b6001836020036101000a03801982511681845116808217855250505050505090500191505060405160208183030381529060405280519060200120905061147581612eb7565b15156001146114c65760408051600160e51b62461bcd0281526020600482015260126024820152600160701b7175736572206e6f7420696e2073797374656d02604482015290519081900360640190fd5b600081815260208190526040902060058101849055600801546001805485929081106114ee57fe5b9060005260206000209060060201600301819055508060008051602061324c83398151915260008084815260200190815260200160002060080154866000808681526020019081526020016000206002015460008087815260200190815260200160002060030154600080888152602001908152602001600020600401896000808a81526020019081526020016000206006016000808b8152602001908152602001600020600701546040518089815260200180602001888152602001878152602001806020018681526020018060200185815260200184810384528b818151815260200191508051906020019080838360005b838110156115fa5781810151838201526020016115e2565b50505050905090810190601f1680156116275780820380516001836020036101000a031916815260200191505b5084810383528854600260001961010060018416150201909116048082526020909101908990801561169a5780601f1061166f5761010080835404028352916020019161169a565b820191906000526020600020905b81548152906001019060200180831161167d57829003601f168201915b505084810382528654600260001961010060018416150201909116048082526020909101908790801561170e5780601f106116e35761010080835404028352916020019161170e565b820191906000526020600020905b8154815290600101906020018083116116f157829003601f168201915b50509b50505050505050505050505060405180910390a25060019392505050565b60006060806000606060006001878154811061174757fe5b9060005260206000209060060201600001546001888154811061176657fe5b90600052602060002090600602016001016001898154811061178457fe5b906000526020600020906006020160020160018a815481106117a257fe5b90600052602060002090600602016003015460018b815481106117c157fe5b906000526020600020906006020160040160018c815481106117df57fe5b600091825260209182902060056006909202010154855460408051601f60026000196101006001871615020190941693909304928301859004850281018501909152818152919287919083018282801561187a5780601f1061184f5761010080835404028352916020019161187a565b820191906000526020600020905b81548152906001019060200180831161185d57829003601f168201915b5050875460408051602060026001851615610100026000190190941693909304601f8101849004840282018401909252818152959a50899450925084019050828280156119085780601f106118dd57610100808354040283529160200191611908565b820191906000526020600020905b8154815290600101906020018083116118eb57829003601f168201915b5050855460408051602060026001851615610100026000190190941693909304601f8101849004840282018401909252818152959950879450925084019050828280156119965780601f1061196b57610100808354040283529160200191611996565b820191906000526020600020905b81548152906001019060200180831161197957829003601f168201915b5050505050915095509550955095509550955091939550919395565b600080836040516020018082805190602001908083835b602083106119e85780518252601f1990920191602091820191016119c9565b6001836020036101000a038019825116818451168082178552505050505050905001915050604051602081830303815290604052805190602001209050611a2e81612eb7565b1515600114611a7f5760408051600160e51b62461bcd0281526020600482015260126024820152600160701b7175736572206e6f7420696e2073797374656d02604482015290519081900360640190fd5b6000818152602081815260409091208451611aa2926004909201918601906130d7565b50600081815260208190526040902060080154600180548592908110611ac457fe5b90600052602060002090600602016002019080519060200190611ae89291906130d7565b508060008051602061324c8339815191526000808481526020019081526020016000206008015486600080868152602001908152602001600020600201546000808781526020019081526020016000206003015488600080898152602001908152602001600020600501546000808a81526020019081526020016000206006016000808b8152602001908152602001600020600701546040518089815260200180602001888152602001878152602001806020018681526020018060200185815260200184810384528b818151815260200191508051906020019080838360005b83811015611be1578181015183820152602001611bc9565b50505050905090810190601f168015611c0e5780820380516001836020036101000a031916815260200191505b5084810383528851815288516020918201918a019080838360005b83811015611c41578181015183820152602001611c29565b50505050905090810190601f168015611c6e5780820380516001836020036101000a031916815260200191505b5084810382528654600260001961010060018416150201909116048082526020909101908790801561170e5780601f106116e35761010080835404028352916020019161170e565b600080836040516020018082805190602001908083835b60208310611cec5780518252601f199092019160209182019101611ccd565b6001836020036101000a03801982511681845116808217855250505050505090500191505060405160208183030381529060405280519060200120905060006040516020018080600160f81b6061028152506001019050604051602081830303815290604052805190602001209050611d6482612eb7565b151560011415611dbe5760408051600160e51b62461bcd02815260206004820152601660248201527f7573657220616c6c7265647920696e2073797374656d00000000000000000000604482015290519081900360640190fd5b6000828152602081815260409091208651611ddb928801906130d7565b506000828152602081815260408220600181018590556002810184905560038101929092558551611e1292600401918701906130d7565b5060008281526020818152604080832060058101849055815180840192839052848152868552939092529151611e4e92600690920191906130d7565b5060008281526020819052604090206001600790910155611e70828686612f04565b50600180805490500360008084815260200190815260200160002060080181905550817fc0c62d08c78e5c16afc099fc9f763c6e634ce4469508079c0f61958fc34129a860008085815260200190815260200160002060080154876000808781526020019081526020016000206002015460008088815260200190815260200160002060030154896000808a8152602001908152602001600020600501546000808b81526020019081526020016000206006016000808c8152602001908152602001600020600701546040518089815260200180602001888152602001878152602001806020018681526020018060200185815260200184810384528b818151815260200191508051906020019080838360005b83811015611f9c578181015183820152602001611f84565b50505050905090810190601f168015611fc95780820380516001836020036101000a031916815260200191505b5084810383528851815288516020918201918a019080838360005b83811015611ffc578181015183820152602001611fe4565b50505050905090810190601f1680156120295780820380516001836020036101000a031916815260200191505b5084810382528654600260001961010060018416150201909116048082526020909101908790801561209c5780601f106120715761010080835404028352916020019161209c565b820191906000526020600020905b81548152906001019060200180831161207f57829003601f168201915b50509b50505050505050505050505060405180910390a26120bc82613025565b95945050505050565b600081815260208190526040902060036007820181905560089091015460018054606093849390929181106120f657fe5b9060005260206000209060060201600501819055506001600080858152602001908152602001600020600801548154811061212d57fe5b600091825260209182902060026006909202018101805460408051601f6000196101006001861615020190931694909404918201859004850284018501905280835291929091908301828280156121c55780601f1061219a576101008083540402835291602001916121c5565b820191906000526020600020905b8154815290600101906020018083116121a857829003601f168201915b5093955050505050505b919050565b60009081526020819052604090206002015490565b6001545b90565b60606000815b6002548210156122d157836002838154811061220e57fe5b90600052602060002090600202016000015414156122c65760028054600019810190811061223857fe5b9060005260206000209060020201600001546002838154811061225757fe5b60009182526020909120600291820201919091558054600019810190811061227b57fe5b9060005260206000209060020201600101546002838154811061229a57fe5b90600052602060002090600202016001018190555060028054809190600190036122c49190613155565b505b6001909101906121f6565b60008481526020819052604090206004600782018190556008909101546001805490919081106122fd57fe5b9060005260206000209060060201600501819055506001600080868152602001908152602001600020600801548154811061233457fe5b600091825260209182902060026006909202018101805460408051601f6000196101006001861615020190931694909404918201859004850284018501905280835291929091908301828280156123cc5780601f106123a1576101008083540402835291602001916123cc565b820191906000526020600020905b8154815290600101906020018083116123af57829003601f168201915b50505060008781526020818152604091829020600801548251908152915194955088947fa5c19fdb258d8c46ca76c3d6908a1eae940f60ab0c5efff1face636445aa89ad945091829003019150a29392505050565b60009081526020819052604090206007015490565b50600090565b600080866040516020018082805190602001908083835b602083106124725780518252601f199092019160209182019101612453565b6001836020036101000a0380198251168184511680821785525050505050509050019150506040516020818303038152906040528051906020012090506124b881612eb7565b15156001146125095760408051600160e51b62461bcd0281526020600482015260126024820152600160701b7175736572206e6f7420696e2073797374656d02604482015290519081900360640190fd5b6000818152602081905260408120600801545b8751821015612cb75787828151811061253157fe5b6020026020010151600114156127ac576000838152602081815260409091208851612564926004909201918a01906130d7565b50866001828154811061257357fe5b906000526020600020906006020160020190805190602001906125979291906130d7565b508260008051602061324c833981519152600080868152602001908152602001600020600801548b60008088815260200190815260200160002060020154600080898152602001908152602001600020600301548c6000808b8152602001908152602001600020600501546000808c81526020019081526020016000206006016000808d8152602001908152602001600020600701546040518089815260200180602001888152602001878152602001806020018681526020018060200185815260200184810384528b818151815260200191508051906020019080838360005b83811015612690578181015183820152602001612678565b50505050905090810190601f1680156126bd5780820380516001836020036101000a031916815260200191505b5084810383528851815288516020918201918a019080838360005b838110156126f05781810151838201526020016126d8565b50505050905090810190601f16801561271d5780820380516001836020036101000a031916815260200191505b508481038252865460026000196101006001841615020190911604808252602090910190879080156127905780601f1061276557610100808354040283529160200191612790565b820191906000526020600020905b81548152906001019060200180831161277357829003601f168201915b50509b50505050505050505050505060405180910390a2612cac565b8782815181106127b857fe5b602002602001015160021415612a335760008381526020818152604090912087516127eb926006909201918901906130d7565b5085600182815481106127fa57fe5b9060005260206000209060060201600401908051906020019061281e9291906130d7565b508260008051602061324c833981519152600080868152602001908152602001600020600801548b60008088815260200190815260200160002060020154600080898152602001908152602001600020600301546000808a81526020019081526020016000206004016000808b8152602001908152602001600020600501548d6000808d8152602001908152602001600020600701546040518089815260200180602001888152602001878152602001806020018681526020018060200185815260200184810384528b818151815260200191508051906020019080838360005b838110156129175781810151838201526020016128ff565b50505050905090810190601f1680156129445780820380516001836020036101000a031916815260200191505b508481038352885460026000196101006001841615020190911604808252602090910190899080156129b75780601f1061298c576101008083540402835291602001916129b7565b820191906000526020600020905b81548152906001019060200180831161299a57829003601f168201915b5050848103825286518152865160209182019188019080838360005b838110156129eb5781810151838201526020016129d3565b50505050905090810190601f168015612a185780820380516001836020036101000a031916815260200191505b509b50505050505050505050505060405180910390a2612cac565b878281518110612a3f57fe5b602002602001015160031415612cac5760008381526020819052604090206005018590556001805486919083908110612a7457fe5b9060005260206000209060060201600301819055508260008051602061324c833981519152600080868152602001908152602001600020600801548b60008088815260200190815260200160002060020154600080898152602001908152602001600020600301546000808a81526020019081526020016000206004018b6000808c81526020019081526020016000206006016000808d8152602001908152602001600020600701546040518089815260200180602001888152602001878152602001806020018681526020018060200185815260200184810384528b818151815260200191508051906020019080838360005b83811015612b80578181015183820152602001612b68565b50505050905090810190601f168015612bad5780820380516001836020036101000a031916815260200191505b50848103835288546002600019610100600184161502019091160480825260209091019089908015612c205780601f10612bf557610100808354040283529160200191612c20565b820191906000526020600020905b815481529060010190602001808311612c0357829003601f168201915b5050848103825286546002600019610100600184161502019091160480825260209091019087908015612c945780601f10612c6957610100808354040283529160200191612c94565b820191906000526020600020905b815481529060010190602001808311612c7757829003601f168201915b50509b50505050505050505050505060405180910390a25b60019091019061251c565b50600198975050505050505050565b6000602081815291815260409081902080548251601f600260001961010060018616150201909316929092049182018590048502810185019093528083529092839190830182828015612d5a5780601f10612d2f57610100808354040283529160200191612d5a565b820191906000526020600020905b815481529060010190602001808311612d3d57829003601f168201915b505050505090806001015490806002015490806003015490806004018054600181600116156101000203166002900480601f016020809104026020016040519081016040528092919081815260200182805460018160011615610100020316600290048015612e0a5780601f10612ddf57610100808354040283529160200191612e0a565b820191906000526020600020905b815481529060010190602001808311612ded57829003601f168201915b50505050600583015460068401805460408051602060026001851615610100026000190190941693909304601f81018490048402820184019092528181529596939593945090830182828015612ea15780601f10612e7657610100808354040283529160200191612ea1565b820191906000526020600020905b815481529060010190602001808311612e8457829003601f168201915b5050505050908060070154908060080154905089565b600154600090612ec9575060006121cf565b600082815260208190526040902060080154600180548492908110612eea57fe5b906000526020600020906006020160000154149050919050565b6000612f0e613186565b84815260208082018590526040808301859052632ac5f23e6060808501919091528151908101909152603b8082529091613211908301396080820152600160a082018190528054808201808355600092909252825160069091027fb10e2d527612073b26eecdfd717e6a320cf44b4afac2b0732d9fcbe2b7fa0cf681019182556020808501518051869493612fc9937fb10e2d527612073b26eecdfd717e6a320cf44b4afac2b0732d9fcbe2b7fa0cf79091019201906130d7565b5060408201518051612fe59160028401916020909101906130d7565b50606082015160038201556080820151805161300b9160048401916020909101906130d7565b5060a0820151816005015550505060019150509392505050565b6000806130306130ab565b905061303a6131bf565b83815260208101828152600280546001810182556000829052925192027f405787fa12a823e0f2b7631cc41b3ba8828b3321ca811111fa75cd3aa3bb5ace810192909255517f405787fa12a823e0f2b7631cc41b3ba8828b3321ca811111fa75cd3aa3bb5acf909101559050919050565b604080514260208083019190915244828401528251808303840181526060909201909252805191012090565b828054600181600116156101000203166002900490600052602060002090601f016020900481019282601f1061311857805160ff1916838001178555613145565b82800160010185558215613145579182015b8281111561314557825182559160200191906001019061312a565b506131519291506131d6565b5090565b8154818355818111156131815760020281600202836000526020600020918201910161318191906131f0565b505050565b6040518060c001604052806000801916815260200160608152602001606081526020016000815260200160608152602001600081525090565b604080518082019091526000808252602082015290565b6121ed91905b8082111561315157600081556001016131dc565b6121ed91905b8082111561315157600080825560018201556002016131f656fe313333352c626f676168617761746874686120526f61642c70616e6e697069746979612c636f6c6f6d626f2c737269206c616e6b612c31303233307b839715468e0a108a507bdb1adbf2a3420abc1e4f1c0cd1f905d823c3caeb90a165627a7a723058209c70f5fea8831d423413966a30688db32cbaf42355b7c810ba6dc7b629e52fc60029",
  "source": "pragma solidity >=0.4.21 <0.6.0;\r\n\r\ncontract SupervisorContract {\r\n    \r\n    struct Supervisor{\r\n        string email;\r\n        bytes32 emailCode;\r\n        bytes32 passwordCode;\r\n        bytes32 passwordRestToken;\r\n        string name;\r\n        uint contactNumber;\r\n        string userAddress;\r\n        uint userAccess;\r\n        uint index;\r\n    }\r\n\r\n    struct DisplaySupervisor{\r\n        bytes32 emailCode;\r\n        string email;\r\n        string name;\r\n        uint contactNumber;\r\n        string userAddress;\r\n        uint userAccess;\r\n    }\r\n    \r\n    event LogNewSupervisor(\r\n        bytes32 indexed emailCode,\r\n        uint index,string email,\r\n        bytes32 passwordCode,\r\n        bytes32 passwordRestToken,\r\n        string name,\r\n        uint contactNumber,\r\n        string userAddress,\r\n        uint userAccess\r\n        );\r\n    event LogUpdateSupervisor(\r\n        bytes32 indexed emailCode,\r\n        uint index,string email,\r\n        bytes32 passwordCode,\r\n        bytes32 passwordRestToken,\r\n        string name,\r\n        uint contactNumber,\r\n        string userAddress,\r\n        uint userAccess\r\n        );\r\n    event LogDeleteSupervisor(\r\n        bytes32 indexed emailcode,\r\n        uint index\r\n        );\r\n        \r\n    struct RegistationToken{\r\n        bytes32 emailCode;\r\n        bytes32 token;\r\n    }\r\n        \r\n    mapping(bytes32 => Supervisor) public supervisorArray;\r\n    DisplaySupervisor[] private supervisorIndex;\r\n    RegistationToken[] private supervisorRegistationToken;\r\n    \r\n    function isSupervisor(bytes32 _emailCode)private view returns(bool isIndeed) {\r\n        if(supervisorIndex.length == 0) return false;\r\n        return (supervisorIndex[supervisorArray[_emailCode].index].emailCode == _emailCode);\r\n    }\r\n    function createSupervisorToken(bytes32 _emailCode)private returns(bytes32){\r\n        bytes32 token = randomtoken();\r\n        RegistationToken memory registationToken;\r\n        registationToken.emailCode = _emailCode;\r\n        registationToken.token = token;\r\n        supervisorRegistationToken.push(registationToken);\r\n        return token;\r\n    }\r\n    function randomtoken() private view returns (bytes32) {\r\n       return keccak256(abi.encodePacked( block.timestamp, block.difficulty));\r\n    }\r\n    function setDisplaySupervisor(bytes32 _emailCode,string memory _email,string memory _name) private returns(bool){\r\n\r\n        DisplaySupervisor memory displaySupervisor;\r\n        displaySupervisor.emailCode = _emailCode;\r\n        displaySupervisor.email = _email;\r\n        displaySupervisor.name = _name;\r\n        displaySupervisor.contactNumber = 717615678;\r\n        displaySupervisor.userAddress = \"1335,bogahawaththa Road,pannipitiya,colombo,sri lanka,10230\";\r\n        displaySupervisor.userAccess = 1;\r\n        supervisorIndex.push(displaySupervisor);\r\n        return true;\r\n\r\n    }\r\n    function insertSupervisor(string memory _email,string memory _name) public returns(bytes32){\r\n        bytes32 _emailCode = keccak256(abi.encodePacked((_email)));\r\n        bytes32 _passwordCode = keccak256(abi.encodePacked((\"a\")));\r\n        require(isSupervisor(_emailCode) != true,'user allredy in system');\r\n\r\n        supervisorArray[_emailCode].email = _email;\r\n        supervisorArray[_emailCode].emailCode = _emailCode;\r\n        supervisorArray[_emailCode].passwordCode = _passwordCode;\r\n        supervisorArray[_emailCode].passwordRestToken = \"\";\r\n        supervisorArray[_emailCode].name = _name;\r\n        supervisorArray[_emailCode].contactNumber = 0;\r\n        supervisorArray[_emailCode].userAddress = \"\";\r\n        supervisorArray[_emailCode].userAccess = 1;\r\n        setDisplaySupervisor(_emailCode,_email,_name);\r\n        supervisorArray[_emailCode].index = supervisorIndex.length-1;\r\n\r\n        emit LogNewSupervisor (\r\n            _emailCode,\r\n            supervisorArray[_emailCode].index,\r\n            _email,\r\n            supervisorArray[_emailCode].passwordCode,\r\n            supervisorArray[_emailCode].passwordRestToken,\r\n            _name,\r\n            supervisorArray[_emailCode].contactNumber,\r\n            supervisorArray[_emailCode].userAddress,\r\n            supervisorArray[_emailCode].userAccess\r\n            );\r\n        return createSupervisorToken(_emailCode);\r\n    }\r\n    function deleteSupervisor (bytes32 email) public returns(string memory){\r\n        uint i;\r\n        string memory name;\r\n        for( i = 0; i < supervisorRegistationToken.length; i++) {\r\n            if(supervisorRegistationToken[i].emailCode == email){\r\n                supervisorRegistationToken[i].emailCode = supervisorRegistationToken[supervisorRegistationToken.length-1].emailCode;\r\n                supervisorRegistationToken[i].token = supervisorRegistationToken[supervisorRegistationToken.length-1].token;\r\n                supervisorRegistationToken.length--;\r\n            }\r\n        }\r\n        supervisorArray[email].userAccess = 4;\r\n        supervisorIndex[supervisorArray[email].index].userAccess = 4;\r\n        name = supervisorIndex[supervisorArray[email].index].name;\r\n        emit LogDeleteSupervisor(\r\n            email,\r\n            supervisorArray[email].index\r\n        );\r\n        return name;\r\n    }\r\n    function blockSupervisor(bytes32 email) public returns(string memory)\r\n    {\r\n        string memory name;\r\n        supervisorArray[email].userAccess = 3;\r\n        supervisorIndex[supervisorArray[email].index].userAccess = 3;\r\n        name = supervisorIndex[supervisorArray[email].index].name;\r\n        return name;\r\n    }\r\n    function getSupervisor(string memory _email) public view returns(string memory email,string memory name,\r\n    uint contactNumber,string memory userAddress, uint userAccess){\r\n        bytes32 _emailCode = keccak256(abi.encodePacked((_email)));\r\n        require(isSupervisor(_emailCode) == true,'user not in system');\r\n        return(\r\n            supervisorArray[_emailCode].email,\r\n            supervisorArray[_emailCode].name,\r\n            supervisorArray[_emailCode].contactNumber,\r\n            supervisorArray[_emailCode].userAddress,\r\n            supervisorArray[_emailCode].userAccess\r\n            );\r\n    }\r\n    function getSupervisori(uint i) public view returns(\r\n        bytes32,\r\n        string memory,\r\n        string memory,\r\n        uint,\r\n        string memory,\r\n        uint\r\n        ){\r\n            return (\r\n                supervisorIndex[i].emailCode,\r\n                supervisorIndex[i].email,\r\n                supervisorIndex[i].name,\r\n                supervisorIndex[i].contactNumber,\r\n                supervisorIndex[i].userAddress,\r\n                supervisorIndex[i].userAccess\r\n                );\r\n    }\r\n    function getSupervisorCount() public view returns(uint)\r\n    {\r\n        return supervisorIndex.length;\r\n    }\r\n    \r\n    // function updateUserEmail(address userAddress, bytes32 userEmail) public returns(bool success)\r\n    // {\r\n    //     userStructs[userAddress].userEmail = userEmail;\r\n    //     emit LogUpdateUser(userAddress,  userStructs[userAddress].index, userEmail, userStructs[userAddress].userAge);\r\n    //     return true;\r\n    // }\r\n    function updateDistributorName (string memory _email,string memory _name) public returns(bool success){\r\n        bytes32 _emailCode = keccak256(abi.encodePacked((_email)));\r\n        require(isSupervisor(_emailCode) == true,'user not in system');\r\n        supervisorArray[_emailCode].name = _name;\r\n        supervisorIndex[supervisorArray[_emailCode].index].name = _name;\r\n        emit LogUpdateSupervisor(\r\n            _emailCode,\r\n            supervisorArray[_emailCode].index,\r\n            _email,\r\n            supervisorArray[_emailCode].passwordCode,\r\n            supervisorArray[_emailCode].passwordRestToken,\r\n            _name,\r\n            supervisorArray[_emailCode].contactNumber,\r\n            supervisorArray[_emailCode].userAddress,\r\n            supervisorArray[_emailCode].userAccess\r\n            );\r\n        return true;\r\n    }\r\n    function updateSupervisorAddress (string memory _email,string memory _userAddress) public returns(bool success){\r\n        bytes32 _emailCode = keccak256(abi.encodePacked((_email)));\r\n        require(isSupervisor(_emailCode) == true,'user not in system');\r\n        supervisorArray[_emailCode].userAddress = _userAddress;\r\n        supervisorIndex[supervisorArray[_emailCode].index].userAddress = _userAddress;\r\n        emit LogUpdateSupervisor(\r\n            _emailCode,\r\n            supervisorArray[_emailCode].index,\r\n            _email,\r\n            supervisorArray[_emailCode].passwordCode,\r\n            supervisorArray[_emailCode].passwordRestToken,\r\n            supervisorArray[_emailCode].name,\r\n            supervisorArray[_emailCode].contactNumber,\r\n            _userAddress,\r\n            supervisorArray[_emailCode].userAccess\r\n            );\r\n        return true;\r\n    }\r\n    function updateSupervisorContactNumber (string memory _email,uint _contactNumber) public returns(bool success){\r\n        bytes32 _emailCode = keccak256(abi.encodePacked((_email)));\r\n        require(isSupervisor(_emailCode) == true,'user not in system');\r\n        supervisorArray[_emailCode].contactNumber = _contactNumber;\r\n        supervisorIndex[supervisorArray[_emailCode].index].contactNumber = _contactNumber;\r\n        emit LogUpdateSupervisor(\r\n            _emailCode,\r\n            supervisorArray[_emailCode].index,\r\n            _email,\r\n            supervisorArray[_emailCode].passwordCode,\r\n            supervisorArray[_emailCode].passwordRestToken,\r\n            supervisorArray[_emailCode].name,\r\n            _contactNumber,\r\n            supervisorArray[_emailCode].userAddress,\r\n            supervisorArray[_emailCode].userAccess\r\n            );\r\n        return true;\r\n    }\r\n    function updateSupervisor(\r\n        string memory _email,\r\n        uint[] memory index,\r\n        string memory _name,\r\n        string memory _userAddress,\r\n        uint _contactNumber\r\n        ) public returns(bool success){\r\n        bytes32 _emailCode = keccak256(abi.encodePacked((_email)));\r\n        require(isSupervisor(_emailCode) == true,'user not in system');\r\n        uint i;\r\n        uint num = supervisorArray[_emailCode].index;\r\n\r\n        for (i = 0;i<index.length;i++){\r\n            if(index[i]==1){\r\n                supervisorArray[_emailCode].name = _name;\r\n                supervisorIndex[num].name = _name;\r\n                emit LogUpdateSupervisor(\r\n                    _emailCode,\r\n                    supervisorArray[_emailCode].index,\r\n                    _email,supervisorArray[_emailCode].passwordCode,\r\n                    supervisorArray[_emailCode].passwordRestToken,\r\n                    _name,\r\n                    supervisorArray[_emailCode].contactNumber,\r\n                    supervisorArray[_emailCode].userAddress,\r\n                    supervisorArray[_emailCode].userAccess\r\n                    );\r\n\r\n            }\r\n            else if(index[i]==2){\r\n                supervisorArray[_emailCode].userAddress = _userAddress;\r\n\r\n                supervisorIndex[num].userAddress = _userAddress;\r\n\r\n                emit LogUpdateSupervisor(\r\n                    _emailCode,\r\n                    supervisorArray[_emailCode].index,\r\n                    _email,\r\n                    supervisorArray[_emailCode].passwordCode,\r\n                    supervisorArray[_emailCode].passwordRestToken,\r\n                    supervisorArray[_emailCode].name,\r\n                    supervisorArray[_emailCode].contactNumber,\r\n                    _userAddress,\r\n                    supervisorArray[_emailCode].userAccess\r\n                    );\r\n\r\n            }\r\n            else if(index[i]==3){\r\n                supervisorArray[_emailCode].contactNumber = _contactNumber;\r\n                supervisorIndex[num].contactNumber = _contactNumber;\r\n                emit LogUpdateSupervisor(\r\n                    _emailCode,\r\n                    supervisorArray[_emailCode].index,\r\n                    _email,\r\n                    supervisorArray[_emailCode].passwordCode,\r\n                    supervisorArray[_emailCode].passwordRestToken,\r\n                    supervisorArray[_emailCode].name,\r\n                    _contactNumber,\r\n                    supervisorArray[_emailCode].userAddress,\r\n                    supervisorArray[_emailCode].userAccess\r\n                    );\r\n\r\n            }\r\n        }\r\n        return true;\r\n    }\r\n    ///////\r\n    function updateSupervisorEmail (string memory _email) public returns(bool success)\r\n    {\r\n       // return true;\r\n    }\r\n    \r\n    function checkSupervisorUserAccess(bytes32 email)public view returns(uint userAccess){\r\n        return supervisorArray[email].userAccess;\r\n    }\r\n    function checkSupervisorPasswordCode(bytes32 email) public view returns(bytes32 passwordCode){\r\n        return supervisorArray[email].passwordCode;\r\n    }\r\n}",
  "sourcePath": "C:\\project\\tea supply chain mangement system\\test2\\contracts\\Supervisor.sol",
  "compiler": {
    "name": "solc",
    "version": "0.5.8+commit.23d335f2.Emscripten.clang"
  },
  "schemaVersion": "3.0.16",
  "updatedAt": "2019-11-16T02:02:57.159Z",
  "devdoc": {
    "methods": {}
  },
  "userdoc": {
    "methods": {
      "updateSupervisorEmail(string)": {
        "notice": "////"
      }
    }
  }
}