{
  "contractName": "SupervisorContract",
  "abi": [
    {
      "constant": true,
      "inputs": [
        {
          "name": "",
          "type": "bytes32"
        }
      ],
      "name": "supervisorArray",
      "outputs": [
        {
          "name": "email",
          "type": "string"
        },
        {
          "name": "emailCode",
          "type": "bytes32"
        },
        {
          "name": "passwordCode",
          "type": "bytes32"
        },
        {
          "name": "passwordRestToken",
          "type": "bytes32"
        },
        {
          "name": "name",
          "type": "string"
        },
        {
          "name": "contactNumber",
          "type": "uint256"
        },
        {
          "name": "userAddress",
          "type": "string"
        },
        {
          "name": "userAccess",
          "type": "uint256"
        },
        {
          "name": "index",
          "type": "uint256"
        }
      ],
      "payable": false,
      "stateMutability": "view",
      "type": "function"
    },
    {
      "anonymous": false,
      "inputs": [
        {
          "indexed": true,
          "name": "emailCode",
          "type": "bytes32"
        },
        {
          "indexed": false,
          "name": "index",
          "type": "uint256"
        },
        {
          "indexed": false,
          "name": "email",
          "type": "string"
        },
        {
          "indexed": false,
          "name": "passwordCode",
          "type": "bytes32"
        },
        {
          "indexed": false,
          "name": "passwordRestToken",
          "type": "bytes32"
        },
        {
          "indexed": false,
          "name": "name",
          "type": "string"
        },
        {
          "indexed": false,
          "name": "contactNumber",
          "type": "uint256"
        },
        {
          "indexed": false,
          "name": "userAddress",
          "type": "string"
        },
        {
          "indexed": false,
          "name": "userAccess",
          "type": "uint256"
        }
      ],
      "name": "LogNewSupervisor",
      "type": "event"
    },
    {
      "anonymous": false,
      "inputs": [
        {
          "indexed": true,
          "name": "emailCode",
          "type": "bytes32"
        },
        {
          "indexed": false,
          "name": "index",
          "type": "uint256"
        },
        {
          "indexed": false,
          "name": "email",
          "type": "string"
        },
        {
          "indexed": false,
          "name": "passwordCode",
          "type": "bytes32"
        },
        {
          "indexed": false,
          "name": "passwordRestToken",
          "type": "bytes32"
        },
        {
          "indexed": false,
          "name": "name",
          "type": "string"
        },
        {
          "indexed": false,
          "name": "contactNumber",
          "type": "uint256"
        },
        {
          "indexed": false,
          "name": "userAddress",
          "type": "string"
        },
        {
          "indexed": false,
          "name": "userAccess",
          "type": "uint256"
        }
      ],
      "name": "LogUpdateSupervisor",
      "type": "event"
    },
    {
      "anonymous": false,
      "inputs": [
        {
          "indexed": true,
          "name": "emailcode",
          "type": "bytes32"
        },
        {
          "indexed": false,
          "name": "index",
          "type": "uint256"
        }
      ],
      "name": "LogDeleteSupervisor",
      "type": "event"
    },
    {
      "constant": true,
      "inputs": [
        {
          "name": "_emailCode",
          "type": "bytes32"
        }
      ],
      "name": "isSupervisor",
      "outputs": [
        {
          "name": "isIndeed",
          "type": "bool"
        }
      ],
      "payable": false,
      "stateMutability": "view",
      "type": "function"
    },
    {
      "constant": false,
      "inputs": [
        {
          "name": "_emailCode",
          "type": "bytes32"
        }
      ],
      "name": "createSupervisorToken",
      "outputs": [
        {
          "name": "",
          "type": "bytes32"
        }
      ],
      "payable": false,
      "stateMutability": "nonpayable",
      "type": "function"
    },
    {
      "constant": false,
      "inputs": [
        {
          "name": "_email",
          "type": "string"
        },
        {
          "name": "_name",
          "type": "string"
        },
        {
          "name": "_address",
          "type": "string"
        },
        {
          "name": "_telephone",
          "type": "uint256"
        }
      ],
      "name": "insertSupervisor",
      "outputs": [
        {
          "name": "",
          "type": "bool"
        }
      ],
      "payable": false,
      "stateMutability": "nonpayable",
      "type": "function"
    },
    {
      "constant": false,
      "inputs": [
        {
          "name": "email",
          "type": "bytes32"
        }
      ],
      "name": "deleteSupervisor",
      "outputs": [
        {
          "name": "",
          "type": "string"
        }
      ],
      "payable": false,
      "stateMutability": "nonpayable",
      "type": "function"
    },
    {
      "constant": false,
      "inputs": [
        {
          "name": "email",
          "type": "bytes32"
        }
      ],
      "name": "blockSupervisor",
      "outputs": [
        {
          "name": "",
          "type": "string"
        }
      ],
      "payable": false,
      "stateMutability": "nonpayable",
      "type": "function"
    },
    {
      "constant": false,
      "inputs": [
        {
          "name": "_email",
          "type": "string"
        },
        {
          "name": "usreAccess",
          "type": "uint256"
        }
      ],
      "name": "editUserAccess",
      "outputs": [
        {
          "name": "",
          "type": "bool"
        }
      ],
      "payable": false,
      "stateMutability": "nonpayable",
      "type": "function"
    },
    {
      "constant": true,
      "inputs": [
        {
          "name": "_email",
          "type": "string"
        }
      ],
      "name": "getSupervisor",
      "outputs": [
        {
          "name": "",
          "type": "bytes32"
        },
        {
          "name": "email",
          "type": "string"
        },
        {
          "name": "name",
          "type": "string"
        },
        {
          "name": "contactNumber",
          "type": "uint256"
        },
        {
          "name": "userAddress",
          "type": "string"
        },
        {
          "name": "userAccess",
          "type": "uint256"
        }
      ],
      "payable": false,
      "stateMutability": "view",
      "type": "function"
    },
    {
      "constant": true,
      "inputs": [
        {
          "name": "i",
          "type": "uint256"
        }
      ],
      "name": "getSupervisori",
      "outputs": [
        {
          "name": "",
          "type": "bytes32"
        },
        {
          "name": "",
          "type": "string"
        },
        {
          "name": "",
          "type": "string"
        },
        {
          "name": "",
          "type": "uint256"
        },
        {
          "name": "",
          "type": "string"
        },
        {
          "name": "",
          "type": "uint256"
        }
      ],
      "payable": false,
      "stateMutability": "view",
      "type": "function"
    },
    {
      "constant": true,
      "inputs": [],
      "name": "getSupervisorCount",
      "outputs": [
        {
          "name": "",
          "type": "uint256"
        }
      ],
      "payable": false,
      "stateMutability": "view",
      "type": "function"
    },
    {
      "constant": false,
      "inputs": [
        {
          "name": "_email",
          "type": "string"
        },
        {
          "name": "_name",
          "type": "string"
        }
      ],
      "name": "updateSupervisorName",
      "outputs": [
        {
          "name": "success",
          "type": "bool"
        }
      ],
      "payable": false,
      "stateMutability": "nonpayable",
      "type": "function"
    },
    {
      "constant": false,
      "inputs": [
        {
          "name": "_email",
          "type": "string"
        },
        {
          "name": "_userAddress",
          "type": "string"
        }
      ],
      "name": "updateSupervisorAddress",
      "outputs": [
        {
          "name": "success",
          "type": "bool"
        }
      ],
      "payable": false,
      "stateMutability": "nonpayable",
      "type": "function"
    },
    {
      "constant": false,
      "inputs": [
        {
          "name": "_email",
          "type": "string"
        },
        {
          "name": "_contactNumber",
          "type": "uint256"
        }
      ],
      "name": "updateSupervisorContactNumber",
      "outputs": [
        {
          "name": "success",
          "type": "bool"
        }
      ],
      "payable": false,
      "stateMutability": "nonpayable",
      "type": "function"
    },
    {
      "constant": false,
      "inputs": [
        {
          "name": "_email",
          "type": "string"
        },
        {
          "name": "index",
          "type": "uint256[]"
        },
        {
          "name": "_name",
          "type": "string"
        },
        {
          "name": "_userAddress",
          "type": "string"
        },
        {
          "name": "_contactNumber",
          "type": "uint256"
        }
      ],
      "name": "updateSupervisor",
      "outputs": [
        {
          "name": "success",
          "type": "bool"
        }
      ],
      "payable": false,
      "stateMutability": "nonpayable",
      "type": "function"
    },
    {
      "constant": false,
      "inputs": [
        {
          "name": "_email",
          "type": "string"
        }
      ],
      "name": "updateSupervisoriEmail",
      "outputs": [
        {
          "name": "success",
          "type": "bool"
        }
      ],
      "payable": false,
      "stateMutability": "nonpayable",
      "type": "function"
    },
    {
      "constant": true,
      "inputs": [
        {
          "name": "email",
          "type": "bytes32"
        }
      ],
      "name": "checkSupervisorUserAccess",
      "outputs": [
        {
          "name": "userAccess",
          "type": "uint256"
        }
      ],
      "payable": false,
      "stateMutability": "view",
      "type": "function"
    },
    {
      "constant": true,
      "inputs": [
        {
          "name": "email",
          "type": "bytes32"
        }
      ],
      "name": "checkSupervisorPasswordCode",
      "outputs": [
        {
          "name": "passwordCode",
          "type": "bytes32"
        }
      ],
      "payable": false,
      "stateMutability": "view",
      "type": "function"
    }
  ],
  "bytecode": "0x608060405234801561001057600080fd5b506132c9806100206000396000f3fe608060405234801561001057600080fd5b506004361061010b5760003560e01c806389cda3dd116100a2578063a0e1629011610071578063a0e1629014610a16578063c27418da14610a33578063c3cd325a14610a50578063d9447e5914610a6d578063efa3cbfe14610c9f5761010b565b806389cda3dd146108995780638ab68ab2146108c85780639af98ecf146108e55780639fb646f414610a0e5761010b565b8063645ed50e116100de578063645ed50e1461050d5780636609b7cc146106bd578063670151b8146107635780637e082866146108075761010b565b8063129d9002146101105780631db7c6081461024d5780632d92dbc01461044a57806330532763146104f0575b600080fd5b6102396004803603604081101561012657600080fd5b810190602081018135600160201b81111561014057600080fd5b82018360208201111561015257600080fd5b803590602001918460018302840111600160201b8311171561017357600080fd5b91908080601f0160208091040260200160405190810160405280939291908181526020018383808284376000920191909152509295949360208101935035915050600160201b8111156101c557600080fd5b8201836020820111156101d757600080fd5b803590602001918460018302840111600160201b831117156101f857600080fd5b91908080601f016020809104026020016040519081016040528093929190818152602001838380828437600092019190915250929550610e2a945050505050565b604080519115158252519081900360200190f35b6102f16004803603602081101561026357600080fd5b810190602081018135600160201b81111561027d57600080fd5b82018360208201111561028f57600080fd5b803590602001918460018302840111600160201b831117156102b057600080fd5b91908080601f01602080910402602001604051908101604052809392919081815260200183838082843760009201919091525092955061117a945050505050565b60405180878152602001806020018060200186815260200180602001858152602001848103845289818151815260200191508051906020019080838360005b83811015610348578181015183820152602001610330565b50505050905090810190601f1680156103755780820380516001836020036101000a031916815260200191505b5084810383528851815288516020918201918a019080838360005b838110156103a8578181015183820152602001610390565b50505050905090810190601f1680156103d55780820380516001836020036101000a031916815260200191505b50848103825286518152865160209182019188019080838360005b838110156104085781810151838201526020016103f0565b50505050905090810190601f1680156104355780820380516001836020036101000a031916815260200191505b50995050505050505050505060405180910390f35b6102396004803603604081101561046057600080fd5b810190602081018135600160201b81111561047a57600080fd5b82018360208201111561048c57600080fd5b803590602001918460018302840111600160201b831117156104ad57600080fd5b91908080601f0160208091040260200160405190810160405280939291908181526020018383808284376000920191909152509295505091359250611434915050565b6102f16004803603602081101561050657600080fd5b503561176a565b6102396004803603608081101561052357600080fd5b810190602081018135600160201b81111561053d57600080fd5b82018360208201111561054f57600080fd5b803590602001918460018302840111600160201b8311171561057057600080fd5b91908080601f0160208091040260200160405190810160405280939291908181526020018383808284376000920191909152509295949360208101935035915050600160201b8111156105c257600080fd5b8201836020820111156105d457600080fd5b803590602001918460018302840111600160201b831117156105f557600080fd5b91908080601f0160208091040260200160405190810160405280939291908181526020018383808284376000920191909152509295949360208101935035915050600160201b81111561064757600080fd5b82018360208201111561065957600080fd5b803590602001918460018302840111600160201b8311171561067a57600080fd5b91908080601f01602080910402602001604051908101604052809392919081815260200183838082843760009201919091525092955050913592506119ed915050565b610239600480360360408110156106d357600080fd5b810190602081018135600160201b8111156106ed57600080fd5b8201836020820111156106ff57600080fd5b803590602001918460018302840111600160201b8311171561072057600080fd5b91908080601f0160208091040260200160405190810160405280939291908181526020018383808284376000920191909152509295505091359250611dc2915050565b6102396004803603602081101561077957600080fd5b810190602081018135600160201b81111561079357600080fd5b8201836020820111156107a557600080fd5b803590602001918460018302840111600160201b831117156107c657600080fd5b91908080601f016020809104026020016040519081016040528093929190818152602001838380828437600092019190915250929550611e7a945050505050565b6108246004803603602081101561081d57600080fd5b5035611e80565b6040805160208082528351818301528351919283929083019185019080838360005b8381101561085e578181015183820152602001610846565b50505050905090810190601f16801561088b5780820380516001836020036101000a031916815260200191505b509250505060405180910390f35b6108b6600480360360208110156108af57600080fd5b50356120c7565b60408051918252519081900360200190f35b6108b6600480360360208110156108de57600080fd5b50356120dc565b610239600480360360408110156108fb57600080fd5b810190602081018135600160201b81111561091557600080fd5b82018360208201111561092757600080fd5b803590602001918460018302840111600160201b8311171561094857600080fd5b91908080601f0160208091040260200160405190810160405280939291908181526020018383808284376000920191909152509295949360208101935035915050600160201b81111561099a57600080fd5b8201836020820111156109ac57600080fd5b803590602001918460018302840111600160201b831117156109cd57600080fd5b91908080601f01602080910402602001604051908101604052809392919081815260200183838082843760009201919091525092955061212a945050505050565b6108b661242e565b61023960048036036020811015610a2c57600080fd5b5035612435565b61082460048036036020811015610a4957600080fd5b5035612482565b6108b660048036036020811015610a6657600080fd5b50356125ea565b610239600480360360a0811015610a8357600080fd5b810190602081018135600160201b811115610a9d57600080fd5b820183602082011115610aaf57600080fd5b803590602001918460018302840111600160201b83111715610ad057600080fd5b91908080601f0160208091040260200160405190810160405280939291908181526020018383808284376000920191909152509295949360208101935035915050600160201b811115610b2257600080fd5b820183602082011115610b3457600080fd5b803590602001918460208302840111600160201b83111715610b5557600080fd5b9190808060200260200160405190810160405280939291908181526020018383602002808284376000920191909152509295949360208101935035915050600160201b811115610ba457600080fd5b820183602082011115610bb657600080fd5b803590602001918460018302840111600160201b83111715610bd757600080fd5b91908080601f0160208091040260200160405190810160405280939291908181526020018383808284376000920191909152509295949360208101935035915050600160201b811115610c2957600080fd5b820183602082011115610c3b57600080fd5b803590602001918460018302840111600160201b83111715610c5c57600080fd5b91908080601f01602080910402602001604051908101604052809392919081815260200183838082843760009201919091525092955050913592506125ff915050565b610cbc60048036036020811015610cb557600080fd5b5035612e89565b60405180806020018a8152602001898152602001888152602001806020018781526020018060200186815260200185815260200184810384528d818151815260200191508051906020019080838360005b83811015610d25578181015183820152602001610d0d565b50505050905090810190601f168015610d525780820380516001836020036101000a031916815260200191505b5084810383528951815289516020918201918b019080838360005b83811015610d85578181015183820152602001610d6d565b50505050905090810190601f168015610db25780820380516001836020036101000a031916815260200191505b50848103825287518152875160209182019189019080838360005b83811015610de5578181015183820152602001610dcd565b50505050905090810190601f168015610e125780820380516001836020036101000a031916815260200191505b509c5050505050505050505050505060405180910390f35b600080836040516020018082805190602001908083835b60208310610e605780518252601f199092019160209182019101610e41565b6001836020036101000a038019825116818451168082178552505050505050905001915050604051602081830303815290604052805190602001209050610ea681612435565b1515600114610ef75760408051600160e51b62461bcd0281526020600482015260126024820152600160701b7175736572206e6f7420696e2073797374656d02604482015290519081900360640190fd5b6000818152602081815260409091208451610f1a926006909201918601906131ac565b50600081815260208190526040902060080154600180548592908110610f3c57fe5b90600052602060002090600602016004019080519060200190610f609291906131ac565b508060008051602061327e83398151915260008084815260200190815260200160002060080154866000808681526020019081526020016000206002015460008087815260200190815260200160002060030154600080888152602001908152602001600020600401600080898152602001908152602001600020600501548a6000808b8152602001908152602001600020600701546040518089815260200180602001888152602001878152602001806020018681526020018060200185815260200184810384528b818151815260200191508051906020019080838360005b83811015611059578181015183820152602001611041565b50505050905090810190601f1680156110865780820380516001836020036101000a031916815260200191505b508481038352885460026000196101006001841615020190911604808252602090910190899080156110f95780601f106110ce576101008083540402835291602001916110f9565b820191906000526020600020905b8154815290600101906020018083116110dc57829003601f168201915b5050848103825286518152865160209182019188019080838360005b8381101561112d578181015183820152602001611115565b50505050905090810190601f16801561115a5780820380516001836020036101000a031916815260200191505b509b50505050505050505050505060405180910390a25060019392505050565b600060608060006060600080876040516020018082805190602001908083835b602083106111b95780518252601f19909201916020918201910161119a565b6001836020036101000a0380198251168184511680821785525050505050509050019150506040516020818303038152906040528051906020012090506111ff81612435565b15156001146112505760408051600160e51b62461bcd0281526020600482015260126024820152600160701b7175736572206e6f7420696e2073797374656d02604482015290519081900360640190fd5b60008181526020818152604091829020600581015460078201548254855160026001831615610100026000190190921691909104601f8101869004860282018601909652858152869593946004860194600687019392918791908301828280156112fb5780601f106112d0576101008083540402835291602001916112fb565b820191906000526020600020905b8154815290600101906020018083116112de57829003601f168201915b5050875460408051602060026001851615610100026000190190941693909304601f8101849004840282018401909252818152959a50899450925084019050828280156113895780601f1061135e57610100808354040283529160200191611389565b820191906000526020600020905b81548152906001019060200180831161136c57829003601f168201915b5050855460408051602060026001851615610100026000190190941693909304601f8101849004840282018401909252818152959950879450925084019050828280156114175780601f106113ec57610100808354040283529160200191611417565b820191906000526020600020905b8154815290600101906020018083116113fa57829003601f168201915b505050505091509650965096509650965096505091939550919395565b600080836040516020018082805190602001908083835b6020831061146a5780518252601f19909201916020918201910161144b565b6001836020036101000a0380198251168184511680821785525050505050509050019150506040516020818303038152906040528051906020012090506114b081612435565b15156001146115015760408051600160e51b62461bcd0281526020600482015260126024820152600160701b7175736572206e6f7420696e2073797374656d02604482015290519081900360640190fd5b6000818152602081905260409020600581018490556008015460018054859290811061152957fe5b9060005260206000209060060201600301819055508060008051602061327e83398151915260008084815260200190815260200160002060080154866000808681526020019081526020016000206002015460008087815260200190815260200160002060030154600080888152602001908152602001600020600401896000808a81526020019081526020016000206006016000808b8152602001908152602001600020600701546040518089815260200180602001888152602001878152602001806020018681526020018060200185815260200184810384528b818151815260200191508051906020019080838360005b8381101561163557818101518382015260200161161d565b50505050905090810190601f1680156116625780820380516001836020036101000a031916815260200191505b508481038352885460026000196101006001841615020190911604808252602090910190899080156116d55780601f106116aa576101008083540402835291602001916116d5565b820191906000526020600020905b8154815290600101906020018083116116b857829003601f168201915b50508481038252865460026000196101006001841615020190911604808252602090910190879080156117495780601f1061171e57610100808354040283529160200191611749565b820191906000526020600020905b81548152906001019060200180831161172c57829003601f168201915b50509b50505050505050505050505060405180910390a25060019392505050565b60006060806000606060006001878154811061178257fe5b906000526020600020906006020160000154600188815481106117a157fe5b9060005260206000209060060201600101600189815481106117bf57fe5b906000526020600020906006020160020160018a815481106117dd57fe5b90600052602060002090600602016003015460018b815481106117fc57fe5b906000526020600020906006020160040160018c8154811061181a57fe5b600091825260209182902060056006909202010154855460408051601f6002600019610100600187161502019094169390930492830185900485028101850190915281815291928791908301828280156118b55780601f1061188a576101008083540402835291602001916118b5565b820191906000526020600020905b81548152906001019060200180831161189857829003601f168201915b5050875460408051602060026001851615610100026000190190941693909304601f8101849004840282018401909252818152959a50899450925084019050828280156119435780601f1061191857610100808354040283529160200191611943565b820191906000526020600020905b81548152906001019060200180831161192657829003601f168201915b5050855460408051602060026001851615610100026000190190941693909304601f8101849004840282018401909252818152959950879450925084019050828280156119d15780601f106119a6576101008083540402835291602001916119d1565b820191906000526020600020905b8154815290600101906020018083116119b457829003601f168201915b5050505050915095509550955095509550955091939550919395565b600080856040516020018082805190602001908083835b60208310611a235780518252601f199092019160209182019101611a04565b6001836020036101000a03801982511681845116808217855250505050505090500191505060405160208183030381529060405280519060200120905060006040516020018080600160f81b6061028152506001019050604051602081830303815290604052805190602001209050611a9b82612435565b151560011415611af55760408051600160e51b62461bcd02815260206004820152601660248201527f7573657220616c6c7265647920696e2073797374656d00000000000000000000604482015290519081900360640190fd5b6000828152602081815260409091208851611b12928a01906131ac565b50600082815260208190526040902060018101839055600201819055611b37826120dc565b60008381526020818152604090912060038101929092558751611b6092600401918901906131ac565b50600082815260208181526040909120600581018690558651611b8b926006909201918801906131ac565b5060008281526020819052604090206001600790910155611baf828888878961307a565b50600180805490500360008084815260200190815260200160002060080181905550817fc0c62d08c78e5c16afc099fc9f763c6e634ce4469508079c0f61958fc34129a8600080858152602001908152602001600020600801548960008087815260200190815260200160002060020154600080888152602001908152602001600020600301548b8a8c6000808c8152602001908152602001600020600701546040518089815260200180602001888152602001878152602001806020018681526020018060200185815260200184810384528b818151815260200191508051906020019080838360005b83811015611cb2578181015183820152602001611c9a565b50505050905090810190601f168015611cdf5780820380516001836020036101000a031916815260200191505b5084810383528851815288516020918201918a019080838360005b83811015611d12578181015183820152602001611cfa565b50505050905090810190601f168015611d3f5780820380516001836020036101000a031916815260200191505b50848103825286518152865160209182019188019080838360005b83811015611d72578181015183820152602001611d5a565b50505050905090810190601f168015611d9f5780820380516001836020036101000a031916815260200191505b509b50505050505050505050505060405180910390a25060019695505050505050565b600080836040516020018082805190602001908083835b60208310611df85780518252601f199092019160209182019101611dd9565b51815160209384036101000a60001901801990921691161790526040805192909401828103601f19018352845281519181019190912060008181529182905292902060078101889055600801546001805493965088955093509182109050611e5c57fe5b60009182526020909120600560069092020101555060019392505050565b50600090565b600081815260208190526040902060070154606090819060051415611fa2576000838152602081905260409020600360078201819055600890910154600180549091908110611ecb57fe5b90600052602060002090600602016005018190555060016000808581526020019081526020016000206008015481548110611f0257fe5b600091825260209182902060026006909202018101805460408051601f600019610100600186161502019093169490940491820185900485028401850190528083529192909190830182828015611f9a5780601f10611f6f57610100808354040283529160200191611f9a565b820191906000526020600020905b815481529060010190602001808311611f7d57829003601f168201915b505050505090505b600083815260208190526040902060070154600314156120bf576000838152602081905260409020600560078201819055600890910154600180549091908110611fe857fe5b9060005260206000209060060201600501819055506001600080858152602001908152602001600020600801548154811061201f57fe5b600091825260209182902060026006909202018101805460408051601f6000196101006001861615020190931694909404918201859004850284018501905280835291929091908301828280156120b75780601f1061208c576101008083540402835291602001916120b7565b820191906000526020600020905b81548152906001019060200180831161209a57829003601f168201915b505050505090505b90505b919050565b60009081526020819052604090206002015490565b6000806120e7613180565b60008481526002602052604090205490915083146121115760008381526002602052604090208390555b6000928352600260205260409092206001018290555090565b600080836040516020018082805190602001908083835b602083106121605780518252601f199092019160209182019101612141565b6001836020036101000a0380198251168184511680821785525050505050509050019150506040516020818303038152906040528051906020012090506121a681612435565b15156001146121f75760408051600160e51b62461bcd0281526020600482015260126024820152600160701b7175736572206e6f7420696e2073797374656d02604482015290519081900360640190fd5b600081815260208181526040909120845161221a926004909201918601906131ac565b5060008181526020819052604090206008015460018054859290811061223c57fe5b906000526020600020906006020160020190805190602001906122609291906131ac565b508060008051602061327e8339815191526000808481526020019081526020016000206008015486600080868152602001908152602001600020600201546000808781526020019081526020016000206003015488600080898152602001908152602001600020600501546000808a81526020019081526020016000206006016000808b8152602001908152602001600020600701546040518089815260200180602001888152602001878152602001806020018681526020018060200185815260200184810384528b818151815260200191508051906020019080838360005b83811015612359578181015183820152602001612341565b50505050905090810190601f1680156123865780820380516001836020036101000a031916815260200191505b5084810383528851815288516020918201918a019080838360005b838110156123b95781810151838201526020016123a1565b50505050905090810190601f1680156123e65780820380516001836020036101000a031916815260200191505b508481038252865460026000196101006001841615020190911604808252602090910190879080156117495780601f1061171e57610100808354040283529160200191611749565b6001545b90565b600154600090612447575060006120c2565b60008281526020819052604090206008015460018054849290811061246857fe5b906000526020600020906006020160000154149050919050565b60008181526002602090815260408083208381556001908101849055918390528220600460078201819055600890910154825460609493859392909181106124c657fe5b906000526020600020906006020160050181905550600160008086815260200190815260200160002060080154815481106124fd57fe5b600091825260209182902060026006909202018101805460408051601f6000196101006001861615020190931694909404918201859004850284018501905280835291929091908301828280156125955780601f1061256a57610100808354040283529160200191612595565b820191906000526020600020905b81548152906001019060200180831161257857829003601f168201915b50505060008781526020818152604091829020600801548251908152915194955088947fa5c19fdb258d8c46ca76c3d6908a1eae940f60ab0c5efff1face636445aa89ad945091829003019150a29392505050565b60009081526020819052604090206007015490565b600080866040516020018082805190602001908083835b602083106126355780518252601f199092019160209182019101612616565b6001836020036101000a03801982511681845116808217855250505050505090500191505060405160208183030381529060405280519060200120905061267b81612435565b15156001146126cc5760408051600160e51b62461bcd0281526020600482015260126024820152600160701b7175736572206e6f7420696e2073797374656d02604482015290519081900360640190fd5b6000818152602081905260408120600801545b8751821015612e7a578782815181106126f457fe5b60200260200101516001141561296f576000838152602081815260409091208851612727926004909201918a01906131ac565b50866001828154811061273657fe5b9060005260206000209060060201600201908051906020019061275a9291906131ac565b508260008051602061327e833981519152600080868152602001908152602001600020600801548b60008088815260200190815260200160002060020154600080898152602001908152602001600020600301548c6000808b8152602001908152602001600020600501546000808c81526020019081526020016000206006016000808d8152602001908152602001600020600701546040518089815260200180602001888152602001878152602001806020018681526020018060200185815260200184810384528b818151815260200191508051906020019080838360005b8381101561285357818101518382015260200161283b565b50505050905090810190601f1680156128805780820380516001836020036101000a031916815260200191505b5084810383528851815288516020918201918a019080838360005b838110156128b357818101518382015260200161289b565b50505050905090810190601f1680156128e05780820380516001836020036101000a031916815260200191505b508481038252865460026000196101006001841615020190911604808252602090910190879080156129535780601f1061292857610100808354040283529160200191612953565b820191906000526020600020905b81548152906001019060200180831161293657829003601f168201915b50509b50505050505050505050505060405180910390a2612e6f565b87828151811061297b57fe5b602002602001015160021415612bf65760008381526020818152604090912087516129ae926006909201918901906131ac565b5085600182815481106129bd57fe5b906000526020600020906006020160040190805190602001906129e19291906131ac565b508260008051602061327e833981519152600080868152602001908152602001600020600801548b60008088815260200190815260200160002060020154600080898152602001908152602001600020600301546000808a81526020019081526020016000206004016000808b8152602001908152602001600020600501548d6000808d8152602001908152602001600020600701546040518089815260200180602001888152602001878152602001806020018681526020018060200185815260200184810384528b818151815260200191508051906020019080838360005b83811015612ada578181015183820152602001612ac2565b50505050905090810190601f168015612b075780820380516001836020036101000a031916815260200191505b50848103835288546002600019610100600184161502019091160480825260209091019089908015612b7a5780601f10612b4f57610100808354040283529160200191612b7a565b820191906000526020600020905b815481529060010190602001808311612b5d57829003601f168201915b5050848103825286518152865160209182019188019080838360005b83811015612bae578181015183820152602001612b96565b50505050905090810190601f168015612bdb5780820380516001836020036101000a031916815260200191505b509b50505050505050505050505060405180910390a2612e6f565b878281518110612c0257fe5b602002602001015160031415612e6f5760008381526020819052604090206005018590556001805486919083908110612c3757fe5b9060005260206000209060060201600301819055508260008051602061327e833981519152600080868152602001908152602001600020600801548b60008088815260200190815260200160002060020154600080898152602001908152602001600020600301546000808a81526020019081526020016000206004018b6000808c81526020019081526020016000206006016000808d8152602001908152602001600020600701546040518089815260200180602001888152602001878152602001806020018681526020018060200185815260200184810384528b818151815260200191508051906020019080838360005b83811015612d43578181015183820152602001612d2b565b50505050905090810190601f168015612d705780820380516001836020036101000a031916815260200191505b50848103835288546002600019610100600184161502019091160480825260209091019089908015612de35780601f10612db857610100808354040283529160200191612de3565b820191906000526020600020905b815481529060010190602001808311612dc657829003601f168201915b5050848103825286546002600019610100600184161502019091160480825260209091019087908015612e575780601f10612e2c57610100808354040283529160200191612e57565b820191906000526020600020905b815481529060010190602001808311612e3a57829003601f168201915b50509b50505050505050505050505060405180910390a25b6001909101906126df565b50600198975050505050505050565b6000602081815291815260409081902080548251601f600260001961010060018616150201909316929092049182018590048502810185019093528083529092839190830182828015612f1d5780601f10612ef257610100808354040283529160200191612f1d565b820191906000526020600020905b815481529060010190602001808311612f0057829003601f168201915b505050505090806001015490806002015490806003015490806004018054600181600116156101000203166002900480601f016020809104026020016040519081016040528092919081815260200182805460018160011615610100020316600290048015612fcd5780601f10612fa257610100808354040283529160200191612fcd565b820191906000526020600020905b815481529060010190602001808311612fb057829003601f168201915b50505050600583015460068401805460408051602060026001851615610100026000190190941693909304601f810184900484028201840190925281815295969395939450908301828280156130645780601f1061303957610100808354040283529160200191613064565b820191906000526020600020905b81548152906001019060200180831161304757829003601f168201915b5050505050908060070154908060080154905089565b600061308461322a565b8681526020808201878152604083018790526060830186905260808301859052600160a084018190528054808201808355600092909252845160069091027fb10e2d527612073b26eecdfd717e6a320cf44b4afac2b0732d9fcbe2b7fa0cf6810191825592518051929486949293613122937fb10e2d527612073b26eecdfd717e6a320cf44b4afac2b0732d9fcbe2b7fa0cf70192909101906131ac565b506040820151805161313e9160028401916020909101906131ac565b5060608201516003820155608082015180516131649160048401916020909101906131ac565b5060a08201518160050155505050600191505095945050505050565b604080514260208083019190915244828401528251808303840181526060909201909252805191012090565b828054600181600116156101000203166002900490600052602060002090601f016020900481019282601f106131ed57805160ff191683800117855561321a565b8280016001018555821561321a579182015b8281111561321a5782518255916020019190600101906131ff565b50613226929150613263565b5090565b6040518060c001604052806000801916815260200160608152602001606081526020016000815260200160608152602001600081525090565b61243291905b80821115613226576000815560010161326956fe7b839715468e0a108a507bdb1adbf2a3420abc1e4f1c0cd1f905d823c3caeb90a165627a7a723058201600dbe4133f01665e944ef1006bd1ea4962bb2d1ec480c3763ee5a572fb456a0029",
  "source": "pragma solidity >=0.4.21 <0.6.0;\r\n\r\ncontract SupervisorContract {\r\n    \r\n    struct Supervisor{\r\n        string email;\r\n        bytes32 emailCode;\r\n        bytes32 passwordCode;\r\n        bytes32 passwordRestToken;\r\n        string name;\r\n        uint contactNumber;\r\n        string userAddress;\r\n        uint userAccess;\r\n        uint index;\r\n    }\r\n\r\n    struct DisplaySupervisor{\r\n        bytes32 emailCode;\r\n        string email;\r\n        string name;\r\n        uint contactNumber;\r\n        string userAddress;\r\n        uint userAccess;\r\n    }\r\n    \r\n    event LogNewSupervisor(\r\n        bytes32 indexed emailCode,\r\n        uint index,string email,\r\n        bytes32 passwordCode,\r\n        bytes32 passwordRestToken,\r\n        string name,\r\n        uint contactNumber,\r\n        string userAddress,\r\n        uint userAccess\r\n        );\r\n    event LogUpdateSupervisor(\r\n        bytes32 indexed emailCode,\r\n        uint index,string email,\r\n        bytes32 passwordCode,\r\n        bytes32 passwordRestToken,\r\n        string name,\r\n        uint contactNumber,\r\n        string userAddress,\r\n        uint userAccess\r\n        );\r\n    event LogDeleteSupervisor(\r\n        bytes32 indexed emailcode,\r\n        uint index\r\n        );\r\n        \r\n    struct RegistationToken{\r\n        bytes32 emailCode;\r\n        bytes32 token;\r\n    }\r\n        \r\n    mapping(bytes32 => Supervisor) public supervisorArray;\r\n    DisplaySupervisor[] private supervisorIndex;\r\n    mapping(bytes32 => RegistationToken) private supervisorRegistationToken;\r\n\r\n    function isSupervisor(bytes32 _emailCode)public view returns(bool isIndeed) {\r\n        if(supervisorIndex.length == 0) return false;\r\n        return (supervisorIndex[supervisorArray[_emailCode].index].emailCode == _emailCode);\r\n    }\r\n    function createSupervisorToken(bytes32 _emailCode)public returns(bytes32){\r\n        bytes32 token = randomtoken();\r\n        if(supervisorRegistationToken[_emailCode].emailCode != _emailCode){\r\n            supervisorRegistationToken[_emailCode].emailCode = _emailCode;\r\n        }\r\n        supervisorRegistationToken[_emailCode].token = token;\r\n        return token;\r\n    }\r\n    function randomtoken() private view returns (bytes32) {\r\n       return keccak256(abi.encodePacked( block.timestamp, block.difficulty));\r\n    }\r\n    function setDisplaySupervisor(bytes32 _emailCode,string memory _email,string memory _name,uint _telephone,string memory _address)\r\n     private returns(bool){\r\n\r\n        DisplaySupervisor memory displaySupervisor;\r\n        displaySupervisor.emailCode = _emailCode;\r\n        displaySupervisor.email = _email;\r\n        displaySupervisor.name = _name;\r\n        displaySupervisor.contactNumber = _telephone;\r\n        displaySupervisor.userAddress = _address;\r\n        displaySupervisor.userAccess = 1;\r\n        supervisorIndex.push(displaySupervisor);\r\n        return true;\r\n\r\n    }\r\n    function insertSupervisor(string memory _email,string memory _name,string memory _address,uint _telephone) public returns(bool){\r\n        bytes32 _emailCode = keccak256(abi.encodePacked((_email)));\r\n        bytes32 _passwordCode = keccak256(abi.encodePacked((\"a\")));\r\n        require(isSupervisor(_emailCode) != true,'user allredy in system');\r\n\r\n        supervisorArray[_emailCode].email = _email;\r\n        supervisorArray[_emailCode].emailCode = _emailCode;\r\n        supervisorArray[_emailCode].passwordCode = _passwordCode;\r\n        supervisorArray[_emailCode].passwordRestToken = createSupervisorToken(_emailCode);\r\n        supervisorArray[_emailCode].name = _name;\r\n        supervisorArray[_emailCode].contactNumber = _telephone;\r\n        supervisorArray[_emailCode].userAddress = _address;\r\n        supervisorArray[_emailCode].userAccess = 1;\r\n        setDisplaySupervisor(_emailCode,_email,_name,_telephone,_address);\r\n        supervisorArray[_emailCode].index = supervisorIndex.length-1;\r\n\r\n        emit LogNewSupervisor (\r\n            _emailCode,\r\n            supervisorArray[_emailCode].index,\r\n            _email,\r\n            supervisorArray[_emailCode].passwordCode,\r\n            supervisorArray[_emailCode].passwordRestToken,\r\n            _name,\r\n            _telephone,\r\n            _address,\r\n            supervisorArray[_emailCode].userAccess\r\n            );\r\n        return true;\r\n    }\r\n    function deleteSupervisor (bytes32 email) public returns(string memory){\r\n        uint i;\r\n        string memory name;\r\n         delete supervisorRegistationToken[email];\r\n        supervisorArray[email].userAccess = 4;\r\n        supervisorIndex[supervisorArray[email].index].userAccess = 4;\r\n        name = supervisorIndex[supervisorArray[email].index].name;\r\n        emit LogDeleteSupervisor(\r\n            email,\r\n            supervisorArray[email].index\r\n        );\r\n        return name;\r\n    }\r\n    function blockSupervisor(bytes32 email) public returns(string memory)\r\n    {\r\n        string memory name;\r\n        if(supervisorArray[email].userAccess == 5){\r\n        supervisorArray[email].userAccess = 3;\r\n        supervisorIndex[supervisorArray[email].index].userAccess = 3;\r\n        name = supervisorIndex[supervisorArray[email].index].name;\r\n        }\r\n        if(supervisorArray[email].userAccess == 3){\r\n        supervisorArray[email].userAccess = 5;\r\n        supervisorIndex[supervisorArray[email].index].userAccess = 5;\r\n        name = supervisorIndex[supervisorArray[email].index].name;\r\n        }\r\n        return name;\r\n    }\r\n    function editUserAccess(string memory _email,uint usreAccess)public returns(bool){\r\n        bytes32 email = keccak256(abi.encodePacked((_email)));\r\n        supervisorArray[email].userAccess = usreAccess;\r\n        supervisorIndex[supervisorArray[email].index].userAccess = usreAccess;\r\n        return true;\r\n\r\n    }\r\n    function getSupervisor(string memory _email) public view returns(bytes32,string memory email,string memory name,\r\n    uint contactNumber,string memory userAddress, uint userAccess){\r\n        bytes32 _emailCode = keccak256(abi.encodePacked((_email)));\r\n        require(isSupervisor(_emailCode) == true,'user not in system');\r\n        return(\r\n            _emailCode,\r\n            supervisorArray[_emailCode].email,\r\n            supervisorArray[_emailCode].name,\r\n            supervisorArray[_emailCode].contactNumber,\r\n            supervisorArray[_emailCode].userAddress,\r\n            supervisorArray[_emailCode].userAccess\r\n            );\r\n    }\r\n    function getSupervisori(uint i) public view returns(\r\n        bytes32,\r\n        string memory,\r\n        string memory,\r\n        uint,\r\n        string memory,\r\n        uint\r\n        ){\r\n            return (\r\n                supervisorIndex[i].emailCode,\r\n                supervisorIndex[i].email,\r\n                supervisorIndex[i].name,\r\n                supervisorIndex[i].contactNumber,\r\n                supervisorIndex[i].userAddress,\r\n                supervisorIndex[i].userAccess\r\n                );\r\n    }\r\n    function getSupervisorCount() public view returns(uint)\r\n    {\r\n        return supervisorIndex.length;\r\n    }\r\n\r\n    // function updateUserEmail(address userAddress, bytes32 userEmail) public returns(bool success)\r\n    // {\r\n    //     userStructs[userAddress].userEmail = userEmail;\r\n    //     emit LogUpdateUser(userAddress,  userStructs[userAddress].index, userEmail, userStructs[userAddress].userAge);\r\n    //     return true;\r\n    // }\r\n    function updateSupervisorName (string memory _email,string memory _name) public returns(bool success){\r\n        bytes32 _emailCode = keccak256(abi.encodePacked((_email)));\r\n        require(isSupervisor(_emailCode) == true,'user not in system');\r\n        supervisorArray[_emailCode].name = _name;\r\n        supervisorIndex[supervisorArray[_emailCode].index].name = _name;\r\n        emit LogUpdateSupervisor(\r\n            _emailCode,\r\n            supervisorArray[_emailCode].index,\r\n            _email,\r\n            supervisorArray[_emailCode].passwordCode,\r\n            supervisorArray[_emailCode].passwordRestToken,\r\n            _name,\r\n            supervisorArray[_emailCode].contactNumber,\r\n            supervisorArray[_emailCode].userAddress,\r\n            supervisorArray[_emailCode].userAccess\r\n            );\r\n        return true;\r\n    }\r\n    function updateSupervisorAddress (string memory _email,string memory _userAddress) public returns(bool success){\r\n        bytes32 _emailCode = keccak256(abi.encodePacked((_email)));\r\n        require(isSupervisor(_emailCode) == true,'user not in system');\r\n        supervisorArray[_emailCode].userAddress = _userAddress;\r\n        supervisorIndex[supervisorArray[_emailCode].index].userAddress = _userAddress;\r\n        emit LogUpdateSupervisor(\r\n            _emailCode,\r\n            supervisorArray[_emailCode].index,\r\n            _email,\r\n            supervisorArray[_emailCode].passwordCode,\r\n            supervisorArray[_emailCode].passwordRestToken,\r\n            supervisorArray[_emailCode].name,\r\n            supervisorArray[_emailCode].contactNumber,\r\n            _userAddress,\r\n            supervisorArray[_emailCode].userAccess\r\n            );\r\n        return true;\r\n    }\r\n    function updateSupervisorContactNumber (string memory _email,uint _contactNumber) public returns(bool success){\r\n        bytes32 _emailCode = keccak256(abi.encodePacked((_email)));\r\n        require(isSupervisor(_emailCode) == true,'user not in system');\r\n        supervisorArray[_emailCode].contactNumber = _contactNumber;\r\n        supervisorIndex[supervisorArray[_emailCode].index].contactNumber = _contactNumber;\r\n        emit LogUpdateSupervisor(\r\n            _emailCode,\r\n            supervisorArray[_emailCode].index,\r\n            _email,\r\n            supervisorArray[_emailCode].passwordCode,\r\n            supervisorArray[_emailCode].passwordRestToken,\r\n            supervisorArray[_emailCode].name,\r\n            _contactNumber,\r\n            supervisorArray[_emailCode].userAddress,\r\n            supervisorArray[_emailCode].userAccess\r\n            );\r\n        return true;\r\n    }\r\n    function updateSupervisor(\r\n        string memory _email,\r\n        uint[] memory index,\r\n        string memory _name,\r\n        string memory _userAddress,\r\n        uint _contactNumber\r\n        ) public returns(bool success){\r\n        bytes32 _emailCode = keccak256(abi.encodePacked((_email)));\r\n        require(isSupervisor(_emailCode) == true,'user not in system');\r\n        uint i;\r\n        uint num = supervisorArray[_emailCode].index;\r\n\r\n        for (i = 0;i<index.length;i++){\r\n            if(index[i]==1){\r\n                supervisorArray[_emailCode].name = _name;\r\n                supervisorIndex[num].name = _name;\r\n                emit LogUpdateSupervisor(\r\n                    _emailCode,\r\n                    supervisorArray[_emailCode].index,\r\n                    _email,supervisorArray[_emailCode].passwordCode,\r\n                    supervisorArray[_emailCode].passwordRestToken,\r\n                    _name,\r\n                    supervisorArray[_emailCode].contactNumber,\r\n                    supervisorArray[_emailCode].userAddress,\r\n                    supervisorArray[_emailCode].userAccess\r\n                    );\r\n\r\n            }\r\n            else if(index[i]==2){\r\n                supervisorArray[_emailCode].userAddress = _userAddress;\r\n\r\n                supervisorIndex[num].userAddress = _userAddress;\r\n\r\n                emit LogUpdateSupervisor(\r\n                    _emailCode,\r\n                    supervisorArray[_emailCode].index,\r\n                    _email,\r\n                    supervisorArray[_emailCode].passwordCode,\r\n                    supervisorArray[_emailCode].passwordRestToken,\r\n                    supervisorArray[_emailCode].name,\r\n                    supervisorArray[_emailCode].contactNumber,\r\n                    _userAddress,\r\n                    supervisorArray[_emailCode].userAccess\r\n                    );\r\n\r\n            }\r\n            else if(index[i]==3){\r\n                supervisorArray[_emailCode].contactNumber = _contactNumber;\r\n                supervisorIndex[num].contactNumber = _contactNumber;\r\n                emit LogUpdateSupervisor(\r\n                    _emailCode,\r\n                    supervisorArray[_emailCode].index,\r\n                    _email,\r\n                    supervisorArray[_emailCode].passwordCode,\r\n                    supervisorArray[_emailCode].passwordRestToken,\r\n                    supervisorArray[_emailCode].name,\r\n                    _contactNumber,\r\n                    supervisorArray[_emailCode].userAddress,\r\n                    supervisorArray[_emailCode].userAccess\r\n                    );\r\n\r\n            }\r\n        }\r\n        return true;\r\n    }\r\n    ///////\r\n    function updateSupervisoriEmail (string memory _email) public returns(bool success)\r\n    {\r\n       // return true;\r\n    }\r\n    function checkSupervisorUserAccess(bytes32 email)public view returns(uint userAccess){\r\n\r\n        return supervisorArray[email].userAccess;\r\n    }\r\n    function checkSupervisorPasswordCode(bytes32 email) public view returns(bytes32 passwordCode ){\r\n        return supervisorArray[email].passwordCode;\r\n    }\r\n}",
  "sourcePath": "C:\\project\\tea supply chain mangement system\\test2\\contracts\\Supervisor.sol",
  "compiler": {
    "name": "solc",
    "version": "0.5.8+commit.23d335f2.Emscripten.clang"
  },
  "schemaVersion": "3.0.16",
  "updatedAt": "2020-01-11T01:40:50.391Z",
  "devdoc": {
    "methods": {}
  },
  "userdoc": {
    "methods": {
      "updateSupervisoriEmail(string)": {
        "notice": "////"
      }
    }
  }
}